{
  "contractName": "Deals",
  "abi": [
    {
      "anonymous": false,
      "inputs": [
        {
          "indexed": false,
          "internalType": "address",
          "name": "_from",
          "type": "address"
        },
        {
          "indexed": false,
          "internalType": "uint256",
          "name": "_dealId",
          "type": "uint256"
        }
      ],
      "name": "CreateDeal",
      "type": "event"
    },
    {
      "inputs": [
        {
          "internalType": "uint256",
          "name": "_dealId",
          "type": "uint256"
        }
      ],
      "name": "getRulesCount",
      "outputs": [
        {
          "internalType": "uint256",
          "name": "",
          "type": "uint256"
        }
      ],
      "stateMutability": "view",
      "type": "function"
    },
    {
      "inputs": [
        {
          "internalType": "uint256",
          "name": "_dealId",
          "type": "uint256"
        },
        {
          "internalType": "uint256",
          "name": "_ruleId",
          "type": "uint256"
        }
      ],
      "name": "getArticlesCount",
      "outputs": [
        {
          "internalType": "uint256",
          "name": "",
          "type": "uint256"
        }
      ],
      "stateMutability": "view",
      "type": "function"
    },
    {
      "inputs": [
        {
          "internalType": "uint256",
          "name": "_dealId",
          "type": "uint256"
        }
      ],
      "name": "getInternalAccountsCount",
      "outputs": [
        {
          "internalType": "uint256",
          "name": "",
          "type": "uint256"
        }
      ],
      "stateMutability": "view",
      "type": "function"
    },
    {
      "inputs": [
        {
          "internalType": "uint256",
          "name": "_dealId",
          "type": "uint256"
        }
      ],
      "name": "getExternalAccountsCount",
      "outputs": [
        {
          "internalType": "uint256",
          "name": "",
          "type": "uint256"
        }
      ],
      "stateMutability": "view",
      "type": "function"
    },
    {
      "inputs": [
        {
          "internalType": "uint256",
          "name": "_dealId",
          "type": "uint256"
        },
        {
          "internalType": "uint256",
          "name": "_accountId",
          "type": "uint256"
        }
      ],
      "name": "getInternalAccount",
      "outputs": [
        {
          "internalType": "address",
          "name": "",
          "type": "address"
        }
      ],
      "stateMutability": "view",
      "type": "function"
    },
    {
      "inputs": [
        {
          "internalType": "uint256",
          "name": "_dealId",
          "type": "uint256"
        },
        {
          "internalType": "uint256",
          "name": "_accountId",
          "type": "uint256"
        }
      ],
      "name": "getExternalAccount",
      "outputs": [
        {
          "internalType": "address",
          "name": "",
          "type": "address"
        }
      ],
      "stateMutability": "view",
      "type": "function"
    },
    {
      "inputs": [
        {
          "internalType": "uint256",
          "name": "_dealId",
          "type": "uint256"
        },
        {
          "internalType": "uint256",
          "name": "_ruleId",
          "type": "uint256"
        },
        {
          "internalType": "uint256",
          "name": "_articleId",
          "type": "uint256"
        }
      ],
      "name": "getArticle",
      "outputs": [
        {
          "components": [
            {
              "internalType": "string",
              "name": "instructionName",
              "type": "string"
            },
            {
              "internalType": "string",
              "name": "paramStr",
              "type": "string"
            },
            {
              "internalType": "uint256",
              "name": "paramUInt",
              "type": "uint256"
            },
            {
              "internalType": "address",
              "name": "paramAddress",
              "type": "address"
            }
          ],
          "internalType": "struct CommonStructs.Article",
          "name": "",
          "type": "tuple"
        }
      ],
      "stateMutability": "view",
      "type": "function"
    },
    {
      "inputs": [
        {
          "internalType": "uint256",
          "name": "_dealId",
          "type": "uint256"
        }
      ],
      "name": "getInternalAccounts",
      "outputs": [
        {
          "internalType": "address[]",
          "name": "",
          "type": "address[]"
        }
      ],
      "stateMutability": "view",
      "type": "function"
    },
    {
      "inputs": [
        {
          "internalType": "address[]",
          "name": "_externalAccounts",
          "type": "address[]"
        },
        {
          "internalType": "address[]",
          "name": "_internalAccounts",
          "type": "address[]"
        },
        {
          "components": [
            {
              "internalType": "string",
              "name": "instructionName",
              "type": "string"
            },
            {
              "internalType": "string",
              "name": "paramStr",
              "type": "string"
            },
            {
              "internalType": "uint256",
              "name": "paramUInt",
              "type": "uint256"
            },
            {
              "internalType": "address",
              "name": "paramAddress",
              "type": "address"
            }
          ],
          "internalType": "struct CommonStructs.Article[][]",
          "name": "_rulesList",
          "type": "tuple[][]"
        }
      ],
      "name": "createDeal",
      "outputs": [
        {
          "internalType": "uint256",
          "name": "",
          "type": "uint256"
        }
      ],
      "stateMutability": "nonpayable",
      "type": "function"
    }
  ],
  "bytecode": "0x60806040526000805534801561001457600080fd5b506114d7806100246000396000f3fe608060405234801561001057600080fd5b50600436106100935760003560e01c8063950493a911610066578063950493a914610158578063b940cf0414610188578063bf251077146101b8578063ebeacaa3146101e8578063fccc610f1461021857610093565b806333d71975146100985780633eef7591146100c85780634b0262ac146100f8578063796546fa14610128575b600080fd5b6100b260048036038101906100ad9190610fb2565b610248565b6040516100bf9190611068565b60405180910390f35b6100e260048036038101906100dd9190611083565b6105ef565b6040516100ef91906110d2565b60405180910390f35b610112600480360381019061010d91906110ed565b610649565b60405161011f9190611068565b60405180910390f35b610142600480360381019061013d9190611083565b610666565b60405161014f91906110d2565b60405180910390f35b610172600480360381019061016d91906110ed565b6106c0565b60405161017f9190611068565b60405180910390f35b6101a2600480360381019061019d91906110ed565b6106dd565b6040516101af91906111d8565b60405180910390f35b6101d260048036038101906101cd91906111fa565b61077e565b6040516101df919061134e565b60405180910390f35b61020260048036038101906101fd91906110ed565b610953565b60405161020f9190611068565b60405180910390f35b610232600480360381019061022d9190611083565b610970565b60405161023f9190611068565b60405180910390f35b6000835160046000805481526020019081526020016000208190555060005b845181101561031257600660008054815260200190815260200160002085828151811061029757610296611370565b5b60200260200101519080600181540180825580915050600190039060005260206000200160009091909190916101000a81548173ffffffffffffffffffffffffffffffffffffffff021916908373ffffffffffffffffffffffffffffffffffffffff160217905550808061030a906113ce565b915050610267565b50825160036000805481526020019081526020016000208190555060005b83518110156103db5760056000805481526020019081526020016000208482815181106103605761035f611370565b5b60200260200101519080600181540180825580915050600190039060005260206000200160009091909190916101000a81548173ffffffffffffffffffffffffffffffffffffffff021916908373ffffffffffffffffffffffffffffffffffffffff16021790555080806103d3906113ce565b915050610330565b50815160016000805481526020019081526020016000208190555060005b825181101561058d5782818151811061041557610414611370565b5b602002602001015151600260008054815260200190815260200160002060008381526020019081526020016000208190555060005b83828151811061045d5761045c611370565b5b602002602001015151811015610579578382815181106104805761047f611370565b5b6020026020010151818151811061049a57610499611370565b5b602002602001015160076000805481526020019081526020016000206000848152602001908152602001600020600083815260200190815260200160002060008201518160000190805190602001906104f492919061099f565b50602082015181600101908051906020019061051192919061099f565b506040820151816002015560608201518160030160006101000a81548173ffffffffffffffffffffffffffffffffffffffff021916908373ffffffffffffffffffffffffffffffffffffffff1602179055509050508080610571906113ce565b91505061044a565b508080610585906113ce565b9150506103f9565b506000805490506000808154809291906105a6906113ce565b91905055507fd96bfefed58aa313e5af8a78aaac764b3f12d13339be60e009cc7cb05dd701a633826040516105dc929190611417565b60405180910390a1809150509392505050565b600060066000848152602001908152602001600020828154811061061657610615611370565b5b9060005260206000200160009054906101000a900473ffffffffffffffffffffffffffffffffffffffff16905092915050565b600060016000838152602001908152602001600020549050919050565b600060056000848152602001908152602001600020828154811061068d5761068c611370565b5b9060005260206000200160009054906101000a900473ffffffffffffffffffffffffffffffffffffffff16905092915050565b600060036000838152602001908152602001600020549050919050565b60606005600083815260200190815260200160002080548060200260200160405190810160405280929190818152602001828054801561077257602002820191906000526020600020905b8160009054906101000a900473ffffffffffffffffffffffffffffffffffffffff1673ffffffffffffffffffffffffffffffffffffffff1681526020019060010190808311610728575b50505050509050919050565b610786610a25565b60076000858152602001908152602001600020600084815260200190815260200160002060008381526020019081526020016000206040518060800160405290816000820180546107d69061146f565b80601f01602080910402602001604051908101604052809291908181526020018280546108029061146f565b801561084f5780601f106108245761010080835404028352916020019161084f565b820191906000526020600020905b81548152906001019060200180831161083257829003601f168201915b505050505081526020016001820180546108689061146f565b80601f01602080910402602001604051908101604052809291908181526020018280546108949061146f565b80156108e15780601f106108b6576101008083540402835291602001916108e1565b820191906000526020600020905b8154815290600101906020018083116108c457829003601f168201915b50505050508152602001600282015481526020016003820160009054906101000a900473ffffffffffffffffffffffffffffffffffffffff1673ffffffffffffffffffffffffffffffffffffffff1673ffffffffffffffffffffffffffffffffffffffff168152505090509392505050565b600060046000838152602001908152602001600020549050919050565b600060026000848152602001908152602001600020600083815260200190815260200160002054905092915050565b8280546109ab9061146f565b90600052602060002090601f0160209004810192826109cd5760008555610a14565b82601f106109e657805160ff1916838001178555610a14565b82800160010185558215610a14579182015b82811115610a135782518255916020019190600101906109f8565b5b509050610a219190610a63565b5090565b6040518060800160405280606081526020016060815260200160008152602001600073ffffffffffffffffffffffffffffffffffffffff1681525090565b5b80821115610a7c576000816000905550600101610a64565b5090565b6000604051905090565b600080fd5b600080fd5b600080fd5b6000601f19601f8301169050919050565b7f4e487b7100000000000000000000000000000000000000000000000000000000600052604160045260246000fd5b610ae282610a99565b810181811067ffffffffffffffff82111715610b0157610b00610aaa565b5b80604052505050565b6000610b14610a80565b9050610b208282610ad9565b919050565b600067ffffffffffffffff821115610b4057610b3f610aaa565b5b602082029050602081019050919050565b600080fd5b600073ffffffffffffffffffffffffffffffffffffffff82169050919050565b6000610b8182610b56565b9050919050565b610b9181610b76565b8114610b9c57600080fd5b50565b600081359050610bae81610b88565b92915050565b6000610bc7610bc284610b25565b610b0a565b90508083825260208201905060208402830185811115610bea57610be9610b51565b5b835b81811015610c135780610bff8882610b9f565b845260208401935050602081019050610bec565b5050509392505050565b600082601f830112610c3257610c31610a94565b5b8135610c42848260208601610bb4565b91505092915050565b600067ffffffffffffffff821115610c6657610c65610aaa565b5b602082029050602081019050919050565b600067ffffffffffffffff821115610c9257610c91610aaa565b5b602082029050602081019050919050565b600080fd5b600080fd5b600080fd5b600067ffffffffffffffff821115610ccd57610ccc610aaa565b5b610cd682610a99565b9050602081019050919050565b82818337600083830152505050565b6000610d05610d0084610cb2565b610b0a565b905082815260208101848484011115610d2157610d20610cad565b5b610d2c848285610ce3565b509392505050565b600082601f830112610d4957610d48610a94565b5b8135610d59848260208601610cf2565b91505092915050565b6000819050919050565b610d7581610d62565b8114610d8057600080fd5b50565b600081359050610d9281610d6c565b92915050565b600060808284031215610dae57610dad610ca3565b5b610db86080610b0a565b9050600082013567ffffffffffffffff811115610dd857610dd7610ca8565b5b610de484828501610d34565b600083015250602082013567ffffffffffffffff811115610e0857610e07610ca8565b5b610e1484828501610d34565b6020830152506040610e2884828501610d83565b6040830152506060610e3c84828501610b9f565b60608301525092915050565b6000610e5b610e5684610c77565b610b0a565b90508083825260208201905060208402830185811115610e7e57610e7d610b51565b5b835b81811015610ec557803567ffffffffffffffff811115610ea357610ea2610a94565b5b808601610eb08982610d98565b85526020850194505050602081019050610e80565b5050509392505050565b600082601f830112610ee457610ee3610a94565b5b8135610ef4848260208601610e48565b91505092915050565b6000610f10610f0b84610c4b565b610b0a565b90508083825260208201905060208402830185811115610f3357610f32610b51565b5b835b81811015610f7a57803567ffffffffffffffff811115610f5857610f57610a94565b5b808601610f658982610ecf565b85526020850194505050602081019050610f35565b5050509392505050565b600082601f830112610f9957610f98610a94565b5b8135610fa9848260208601610efd565b91505092915050565b600080600060608486031215610fcb57610fca610a8a565b5b600084013567ffffffffffffffff811115610fe957610fe8610a8f565b5b610ff586828701610c1d565b935050602084013567ffffffffffffffff81111561101657611015610a8f565b5b61102286828701610c1d565b925050604084013567ffffffffffffffff81111561104357611042610a8f565b5b61104f86828701610f84565b9150509250925092565b61106281610d62565b82525050565b600060208201905061107d6000830184611059565b92915050565b6000806040838503121561109a57611099610a8a565b5b60006110a885828601610d83565b92505060206110b985828601610d83565b9150509250929050565b6110cc81610b76565b82525050565b60006020820190506110e760008301846110c3565b92915050565b60006020828403121561110357611102610a8a565b5b600061111184828501610d83565b91505092915050565b600081519050919050565b600082825260208201905092915050565b6000819050602082019050919050565b61114f81610b76565b82525050565b60006111618383611146565b60208301905092915050565b6000602082019050919050565b60006111858261111a565b61118f8185611125565b935061119a83611136565b8060005b838110156111cb5781516111b28882611155565b97506111bd8361116d565b92505060018101905061119e565b5085935050505092915050565b600060208201905081810360008301526111f2818461117a565b905092915050565b60008060006060848603121561121357611212610a8a565b5b600061122186828701610d83565b935050602061123286828701610d83565b925050604061124386828701610d83565b9150509250925092565b600081519050919050565b600082825260208201905092915050565b60005b8381101561128757808201518184015260208101905061126c565b83811115611296576000848401525b50505050565b60006112a78261124d565b6112b18185611258565b93506112c1818560208601611269565b6112ca81610a99565b840191505092915050565b6112de81610d62565b82525050565b60006080830160008301518482036000860152611301828261129c565b9150506020830151848203602086015261131b828261129c565b915050604083015161133060408601826112d5565b5060608301516113436060860182611146565b508091505092915050565b6000602082019050818103600083015261136881846112e4565b905092915050565b7f4e487b7100000000000000000000000000000000000000000000000000000000600052603260045260246000fd5b7f4e487b7100000000000000000000000000000000000000000000000000000000600052601160045260246000fd5b60006113d982610d62565b91507fffffffffffffffffffffffffffffffffffffffffffffffffffffffffffffffff82141561140c5761140b61139f565b5b600182019050919050565b600060408201905061142c60008301856110c3565b6114396020830184611059565b9392505050565b7f4e487b7100000000000000000000000000000000000000000000000000000000600052602260045260246000fd5b6000600282049050600182168061148757607f821691505b6020821081141561149b5761149a611440565b5b5091905056fea2646970667358221220faf3735c4d97b08d18520b08bf41c2546ad3e327a0bf357045469426c37d42bc64736f6c63430008090033",
  "immutableReferences": {},
  "source": "// SPDX-License-Identifier: GPL-3.0\npragma solidity 0.8.9;\n\n/* EXTERNAL DEPENDENCIES */\n\n/* INTERNAL DEPENDENCIES */\nimport \"./CommonStructs.sol\";\n\n/**\n * @title Deals contract\n * @notice Contains the client data: mapping of the rules and accounts defined by the client\n */\n\ncontract Deals {\n    /* STORAGE VARIABLES */\n\n    /// @dev Incremental number that represents and gives access to a particular deal\n    uint dealId = 0;\n\n    /// @dev Number of rules for a particular deal (key = dealId)\n    mapping (uint => uint) private rulesCount;\n\n    /// @dev Number of articles for a particular rule (key = dealId, ruleId)\n    mapping (uint => mapping(uint => uint)) private articlesCount;\n\n    /// @dev Number of internal accounts for a particular deal (key = dealId)\n    mapping (uint => uint) private internalAccountsCount;\n\n    /// @dev Number of external accounts for a particular deal (key = dealId)\n    mapping (uint => uint) private externalAccountsCount;\n\n    /// @dev Mapping of internal accounts for a particular deal (key = dealId)\n    mapping (uint => address[]) private internalAccounts;\n\n    /// @dev Mapping of external accounts for a particular deal (key = dealId)\n    mapping (uint => address[]) private externalAccounts;\n\n    /// @dev Mapping of Articles composing a particular deal (key = dealId, ruleId, ArticleId)\n    mapping (uint => mapping (uint => mapping (uint => CommonStructs.Article))) private deals;\n    \n    /* STRUCT */\n   \n    /* EVENTS */\n\n    /** \n    * @dev Event emitted when a deal is created\n    * @param _from address that initiated the deal creation\n    * @param _dealId Id of the deal created\n    */\n    event CreateDeal(address _from, uint _dealId);\n\n    /* PUBLIC INTERFACE */\n\n    /** \n    * @dev Returns the number of rules of a deal\n    * @param _dealId Id of the deal\n    * @return Number of rules in the deal\n    */\n    function getRulesCount(uint _dealId) public view returns(uint) {\n        return rulesCount[_dealId];\n    }\n\n    /** \n    * @dev Returns the number of articles of a rule\n    * @param _dealId Id of the deal\n    * @param _ruleId Id of the rule\n    * @return Number of articles in the rule\n    */\n    function getArticlesCount(uint _dealId, uint _ruleId) public view returns(uint) {\n        return articlesCount[_dealId][_ruleId];\n    }\n\n    /** \n    * @dev Returns the number of internal accounts of a deal\n    * @param _dealId Id of the deal\n    * @return Number of internal accounts in the deal\n    */\n    function getInternalAccountsCount(uint _dealId) public view returns(uint) {\n        return internalAccountsCount[_dealId];\n    }\n\n    /** \n    * @dev Returns the number of external accounts of a deal\n    * @param _dealId Id of the deal\n    * @return Number of external accounts in the deal\n    */\n    function getExternalAccountsCount(uint _dealId) public view returns(uint) {\n        return externalAccountsCount[_dealId];\n    }\n    \n    /** \n    * @dev Returns the address of an internal account of a deal\n    * @param _dealId Id of the deal\n    * @param _accountId Id of the account\n    * @return Internal account address\n    */\n    function getInternalAccount(uint _dealId, uint _accountId) public view returns(address) {\n        return internalAccounts[_dealId][_accountId];\n    }\n\n    /** \n    * @dev Returns the address of an external account of a deal\n    * @param _dealId Id of the deal\n    * @param _accountId Id of the account\n    * @return External account address\n    */\n    function getExternalAccount(uint _dealId, uint _accountId) public view returns(address) {\n        return externalAccounts[_dealId][_accountId];\n    }\n\n    /** \n    * @dev Returns an article\n    * @param _dealId Id of the deal\n    * @param _ruleId Id of the rule\n    * @param _articleId Id of the article\n    * @return CommonStructs.Article\n    */\n    function getArticle(uint _dealId, uint _ruleId, uint _articleId) public view returns(CommonStructs.Article memory) {\n        return deals[_dealId][_ruleId][_articleId];\n    }\n    \n    /**\n    * @dev Returns the list of addresses of the internal accounts for a deal\n    * @param _dealId Id of the deal\n    * @return Address list of internal accounts\n    */\n    function getInternalAccounts(uint _dealId) public view returns(address[] memory) {\n        return internalAccounts[_dealId];\n    }\n    \n    /**\n    * @dev Creates a deal and returns its id\n    * @param _externalAccounts List of the external accounts addresses linked to the deal\n    * @param _internalAccounts List of the internal accounts addresses linked to the deal\n    * @param _rulesList List of the rules linked to the deal (rule = list of Articles)\n    * @return Deal Id\n    */\n    function createDeal\n    (\n        address[] memory _externalAccounts, \n        address[] memory _internalAccounts, \n        CommonStructs.Article[][] memory _rulesList\n    ) \n    public returns (uint) {\n        // Save external accounts\n        externalAccountsCount[dealId] = _externalAccounts.length;\n        for(uint i=0;i<_externalAccounts.length;i++)\n            externalAccounts[dealId].push(_externalAccounts[i]);\n\n        // Save internal accounts\n        internalAccountsCount[dealId] = _internalAccounts.length;\n        for(uint i=0;i<_internalAccounts.length;i++)\n            internalAccounts[dealId].push(_internalAccounts[i]);\n\n        // Save the rule count\n        rulesCount[dealId] = _rulesList.length;\n\n        // Save the rule list\n        for (uint i=0;i<_rulesList.length;i++){\n            articlesCount[dealId][i] = _rulesList[i].length;\n            for (uint j=0;j<_rulesList[i].length;j++){\n                deals[dealId][i][j] = _rulesList[i][j];\n            }\n        }\n        \n        // Log a CreateDeal event and increment the global dealId\n        uint currentDealId = dealId;\n        dealId++;\n        emit CreateDeal(msg.sender, currentDealId);\n\n        // Return the deal Id\n        return currentDealId;\n    }\n   \n}\n",
  "sourcePath": "/home/shakalee/Documents/Consensys/PROJOT-v0/contracts/Deals.sol",
  "compiler": {
    "name": "solc",
    "version": "0.8.9+commit.e5eed63a.Emscripten.clang"
  },
  "schemaVersion": "3.4.3",
  "updatedAt": "2021-11-20T22:55:09.311Z",
  "devdoc": {
    "events": {
      "CreateDeal(address,uint256)": {
        "details": "Event emitted when a deal is created",
        "params": {
          "_dealId": "Id of the deal created",
          "_from": "address that initiated the deal creation"
        }
      }
    },
    "kind": "dev",
    "methods": {
      "createDeal(address[],address[],(string,string,uint256,address)[][])": {
        "details": "Creates a deal and returns its id",
        "params": {
          "_externalAccounts": "List of the external accounts addresses linked to the deal",
          "_internalAccounts": "List of the internal accounts addresses linked to the deal",
          "_rulesList": "List of the rules linked to the deal (rule = list of Articles)"
        },
        "returns": {
          "_0": "Deal Id"
        }
      },
      "getArticle(uint256,uint256,uint256)": {
        "details": "Returns an article",
        "params": {
          "_articleId": "Id of the article",
          "_dealId": "Id of the deal",
          "_ruleId": "Id of the rule"
        },
        "returns": {
          "_0": "CommonStructs.Article"
        }
      },
      "getArticlesCount(uint256,uint256)": {
        "details": "Returns the number of articles of a rule",
        "params": {
          "_dealId": "Id of the deal",
          "_ruleId": "Id of the rule"
        },
        "returns": {
          "_0": "Number of articles in the rule"
        }
      },
      "getExternalAccount(uint256,uint256)": {
        "details": "Returns the address of an external account of a deal",
        "params": {
          "_accountId": "Id of the account",
          "_dealId": "Id of the deal"
        },
        "returns": {
          "_0": "External account address"
        }
      },
      "getExternalAccountsCount(uint256)": {
        "details": "Returns the number of external accounts of a deal",
        "params": {
          "_dealId": "Id of the deal"
        },
        "returns": {
          "_0": "Number of external accounts in the deal"
        }
      },
      "getInternalAccount(uint256,uint256)": {
        "details": "Returns the address of an internal account of a deal",
        "params": {
          "_accountId": "Id of the account",
          "_dealId": "Id of the deal"
        },
        "returns": {
          "_0": "Internal account address"
        }
      },
      "getInternalAccounts(uint256)": {
        "details": "Returns the list of addresses of the internal accounts for a deal",
        "params": {
          "_dealId": "Id of the deal"
        },
        "returns": {
          "_0": "Address list of internal accounts"
        }
      },
      "getInternalAccountsCount(uint256)": {
        "details": "Returns the number of internal accounts of a deal",
        "params": {
          "_dealId": "Id of the deal"
        },
        "returns": {
          "_0": "Number of internal accounts in the deal"
        }
      },
      "getRulesCount(uint256)": {
        "details": "Returns the number of rules of a deal",
        "params": {
          "_dealId": "Id of the deal"
        },
        "returns": {
          "_0": "Number of rules in the deal"
        }
      }
    },
    "stateVariables": {
      "articlesCount": {
        "details": "Number of articles for a particular rule (key = dealId, ruleId)"
      },
      "dealId": {
        "details": "Incremental number that represents and gives access to a particular deal"
      },
      "deals": {
        "details": "Mapping of Articles composing a particular deal (key = dealId, ruleId, ArticleId)"
      },
      "externalAccounts": {
        "details": "Mapping of external accounts for a particular deal (key = dealId)"
      },
      "externalAccountsCount": {
        "details": "Number of external accounts for a particular deal (key = dealId)"
      },
      "internalAccounts": {
        "details": "Mapping of internal accounts for a particular deal (key = dealId)"
      },
      "internalAccountsCount": {
        "details": "Number of internal accounts for a particular deal (key = dealId)"
      },
      "rulesCount": {
        "details": "Number of rules for a particular deal (key = dealId)"
      }
    },
    "title": "Deals contract",
    "version": 1
  },
  "userdoc": {
    "kind": "user",
    "methods": {},
    "notice": "Contains the client data: mapping of the rules and accounts defined by the client",
    "version": 1
  }
}