{
  "contractName": "Deals",
  "abi": [
    {
      "anonymous": false,
      "inputs": [
        {
          "indexed": false,
          "internalType": "address",
          "name": "_from",
          "type": "address"
        },
        {
          "indexed": false,
          "internalType": "uint256",
          "name": "_dealId",
          "type": "uint256"
        }
      ],
      "name": "CreateDeal",
      "type": "event"
    },
    {
      "inputs": [
        {
          "internalType": "uint256",
          "name": "_dealId",
          "type": "uint256"
        }
      ],
      "name": "getRulesCount",
      "outputs": [
        {
          "internalType": "uint256",
          "name": "",
          "type": "uint256"
        }
      ],
      "stateMutability": "view",
      "type": "function",
      "constant": true
    },
    {
      "inputs": [
        {
          "internalType": "uint256",
          "name": "_dealId",
          "type": "uint256"
        },
        {
          "internalType": "uint256",
          "name": "_ruleId",
          "type": "uint256"
        }
      ],
      "name": "getArticlesCount",
      "outputs": [
        {
          "internalType": "uint256",
          "name": "",
          "type": "uint256"
        }
      ],
      "stateMutability": "view",
      "type": "function",
      "constant": true
    },
    {
      "inputs": [
        {
          "internalType": "uint256",
          "name": "_dealId",
          "type": "uint256"
        }
      ],
      "name": "getInternalAccountsCount",
      "outputs": [
        {
          "internalType": "uint256",
          "name": "",
          "type": "uint256"
        }
      ],
      "stateMutability": "view",
      "type": "function",
      "constant": true
    },
    {
      "inputs": [
        {
          "internalType": "uint256",
          "name": "_dealId",
          "type": "uint256"
        }
      ],
      "name": "getExternalAccountsCount",
      "outputs": [
        {
          "internalType": "uint256",
          "name": "",
          "type": "uint256"
        }
      ],
      "stateMutability": "view",
      "type": "function",
      "constant": true
    },
    {
      "inputs": [
        {
          "internalType": "uint256",
          "name": "_dealId",
          "type": "uint256"
        },
        {
          "internalType": "uint256",
          "name": "_accountId",
          "type": "uint256"
        }
      ],
      "name": "getInternalAccount",
      "outputs": [
        {
          "internalType": "address",
          "name": "",
          "type": "address"
        }
      ],
      "stateMutability": "view",
      "type": "function",
      "constant": true
    },
    {
      "inputs": [
        {
          "internalType": "uint256",
          "name": "_dealId",
          "type": "uint256"
        },
        {
          "internalType": "uint256",
          "name": "_accountId",
          "type": "uint256"
        }
      ],
      "name": "getExternalAccount",
      "outputs": [
        {
          "internalType": "address",
          "name": "",
          "type": "address"
        }
      ],
      "stateMutability": "view",
      "type": "function",
      "constant": true
    },
    {
      "inputs": [
        {
          "internalType": "uint256",
          "name": "_dealId",
          "type": "uint256"
        },
        {
          "internalType": "uint256",
          "name": "_ruleId",
          "type": "uint256"
        },
        {
          "internalType": "uint256",
          "name": "_articleId",
          "type": "uint256"
        }
      ],
      "name": "getArticle",
      "outputs": [
        {
          "components": [
            {
              "internalType": "string",
              "name": "instructionName",
              "type": "string"
            },
            {
              "internalType": "string",
              "name": "paramStr",
              "type": "string"
            },
            {
              "internalType": "uint256",
              "name": "paramUInt",
              "type": "uint256"
            },
            {
              "internalType": "address",
              "name": "paramAddress",
              "type": "address"
            }
          ],
          "internalType": "struct CommonStructs.Article",
          "name": "",
          "type": "tuple"
        }
      ],
      "stateMutability": "view",
      "type": "function",
      "constant": true
    },
    {
      "inputs": [
        {
          "internalType": "uint256",
          "name": "_dealId",
          "type": "uint256"
        }
      ],
      "name": "getInternalAccounts",
      "outputs": [
        {
          "internalType": "address[]",
          "name": "",
          "type": "address[]"
        }
      ],
      "stateMutability": "view",
      "type": "function",
      "constant": true
    },
    {
      "inputs": [
        {
          "internalType": "address[]",
          "name": "_externalAccounts",
          "type": "address[]"
        },
        {
          "internalType": "address[]",
          "name": "_internalAccounts",
          "type": "address[]"
        },
        {
          "components": [
            {
              "internalType": "string",
              "name": "instructionName",
              "type": "string"
            },
            {
              "internalType": "string",
              "name": "paramStr",
              "type": "string"
            },
            {
              "internalType": "uint256",
              "name": "paramUInt",
              "type": "uint256"
            },
            {
              "internalType": "address",
              "name": "paramAddress",
              "type": "address"
            }
          ],
          "internalType": "struct CommonStructs.Article[][]",
          "name": "_rulesList",
          "type": "tuple[][]"
        }
      ],
      "name": "createDeal",
      "outputs": [
        {
          "internalType": "uint256",
          "name": "",
          "type": "uint256"
        }
      ],
      "stateMutability": "nonpayable",
      "type": "function"
    },
    {
      "inputs": [
        {
          "internalType": "string",
          "name": "_s1",
          "type": "string"
        },
        {
          "internalType": "string",
          "name": "_s2",
          "type": "string"
        }
      ],
      "name": "compareStrings",
      "outputs": [
        {
          "internalType": "bool",
          "name": "",
          "type": "bool"
        }
      ],
      "stateMutability": "pure",
      "type": "function",
      "constant": true
    }
  ],
  "bytecode": "0x60806040526000805534801561001457600080fd5b506115db806100246000396000f3fe608060405234801561001057600080fd5b506004361061009e5760003560e01c8063b940cf0411610066578063b940cf0414610193578063bed34bba146101c3578063bf251077146101f3578063ebeacaa314610223578063fccc610f146102535761009e565b806333d71975146100a35780633eef7591146100d35780634b0262ac14610103578063796546fa14610133578063950493a914610163575b600080fd5b6100bd60048036038101906100b89190611008565b610283565b6040516100ca91906110be565b60405180910390f35b6100ed60048036038101906100e891906110d9565b61062a565b6040516100fa9190611128565b60405180910390f35b61011d60048036038101906101189190611143565b610684565b60405161012a91906110be565b60405180910390f35b61014d600480360381019061014891906110d9565b6106a1565b60405161015a9190611128565b60405180910390f35b61017d60048036038101906101789190611143565b6106fb565b60405161018a91906110be565b60405180910390f35b6101ad60048036038101906101a89190611143565b610718565b6040516101ba919061122e565b60405180910390f35b6101dd60048036038101906101d89190611250565b6107b9565b6040516101ea91906112e3565b60405180910390f35b61020d600480360381019061020891906112fe565b6107d4565b60405161021a9190611452565b60405180910390f35b61023d60048036038101906102389190611143565b6109a9565b60405161024a91906110be565b60405180910390f35b61026d600480360381019061026891906110d9565b6109c6565b60405161027a91906110be565b60405180910390f35b6000835160046000805481526020019081526020016000208190555060005b845181101561034d5760066000805481526020019081526020016000208582815181106102d2576102d1611474565b5b60200260200101519080600181540180825580915050600190039060005260206000200160009091909190916101000a81548173ffffffffffffffffffffffffffffffffffffffff021916908373ffffffffffffffffffffffffffffffffffffffff1602179055508080610345906114d2565b9150506102a2565b50825160036000805481526020019081526020016000208190555060005b835181101561041657600560008054815260200190815260200160002084828151811061039b5761039a611474565b5b60200260200101519080600181540180825580915050600190039060005260206000200160009091909190916101000a81548173ffffffffffffffffffffffffffffffffffffffff021916908373ffffffffffffffffffffffffffffffffffffffff160217905550808061040e906114d2565b91505061036b565b50815160016000805481526020019081526020016000208190555060005b82518110156105c8578281815181106104505761044f611474565b5b602002602001015151600260008054815260200190815260200160002060008381526020019081526020016000208190555060005b83828151811061049857610497611474565b5b6020026020010151518110156105b4578382815181106104bb576104ba611474565b5b602002602001015181815181106104d5576104d4611474565b5b6020026020010151600760008054815260200190815260200160002060008481526020019081526020016000206000838152602001908152602001600020600082015181600001908051906020019061052f9291906109f5565b50602082015181600101908051906020019061054c9291906109f5565b506040820151816002015560608201518160030160006101000a81548173ffffffffffffffffffffffffffffffffffffffff021916908373ffffffffffffffffffffffffffffffffffffffff16021790555090505080806105ac906114d2565b915050610485565b5080806105c0906114d2565b915050610434565b506000805490506000808154809291906105e1906114d2565b91905055507fd96bfefed58aa313e5af8a78aaac764b3f12d13339be60e009cc7cb05dd701a6338260405161061792919061151b565b60405180910390a1809150509392505050565b600060066000848152602001908152602001600020828154811061065157610650611474565b5b9060005260206000200160009054906101000a900473ffffffffffffffffffffffffffffffffffffffff16905092915050565b600060016000838152602001908152602001600020549050919050565b60006005600084815260200190815260200160002082815481106106c8576106c7611474565b5b9060005260206000200160009054906101000a900473ffffffffffffffffffffffffffffffffffffffff16905092915050565b600060036000838152602001908152602001600020549050919050565b6060600560008381526020019081526020016000208054806020026020016040519081016040528092919081815260200182805480156107ad57602002820191906000526020600020905b8160009054906101000a900473ffffffffffffffffffffffffffffffffffffffff1673ffffffffffffffffffffffffffffffffffffffff1681526020019060010190808311610763575b50505050509050919050565b60008180519060200120838051906020012014905092915050565b6107dc610a7b565b600760008581526020019081526020016000206000848152602001908152602001600020600083815260200190815260200160002060405180608001604052908160008201805461082c90611573565b80601f016020809104026020016040519081016040528092919081815260200182805461085890611573565b80156108a55780601f1061087a576101008083540402835291602001916108a5565b820191906000526020600020905b81548152906001019060200180831161088857829003601f168201915b505050505081526020016001820180546108be90611573565b80601f01602080910402602001604051908101604052809291908181526020018280546108ea90611573565b80156109375780601f1061090c57610100808354040283529160200191610937565b820191906000526020600020905b81548152906001019060200180831161091a57829003601f168201915b50505050508152602001600282015481526020016003820160009054906101000a900473ffffffffffffffffffffffffffffffffffffffff1673ffffffffffffffffffffffffffffffffffffffff1673ffffffffffffffffffffffffffffffffffffffff168152505090509392505050565b600060046000838152602001908152602001600020549050919050565b600060026000848152602001908152602001600020600083815260200190815260200160002054905092915050565b828054610a0190611573565b90600052602060002090601f016020900481019282610a235760008555610a6a565b82601f10610a3c57805160ff1916838001178555610a6a565b82800160010185558215610a6a579182015b82811115610a69578251825591602001919060010190610a4e565b5b509050610a779190610ab9565b5090565b6040518060800160405280606081526020016060815260200160008152602001600073ffffffffffffffffffffffffffffffffffffffff1681525090565b5b80821115610ad2576000816000905550600101610aba565b5090565b6000604051905090565b600080fd5b600080fd5b600080fd5b6000601f19601f8301169050919050565b7f4e487b7100000000000000000000000000000000000000000000000000000000600052604160045260246000fd5b610b3882610aef565b810181811067ffffffffffffffff82111715610b5757610b56610b00565b5b80604052505050565b6000610b6a610ad6565b9050610b768282610b2f565b919050565b600067ffffffffffffffff821115610b9657610b95610b00565b5b602082029050602081019050919050565b600080fd5b600073ffffffffffffffffffffffffffffffffffffffff82169050919050565b6000610bd782610bac565b9050919050565b610be781610bcc565b8114610bf257600080fd5b50565b600081359050610c0481610bde565b92915050565b6000610c1d610c1884610b7b565b610b60565b90508083825260208201905060208402830185811115610c4057610c3f610ba7565b5b835b81811015610c695780610c558882610bf5565b845260208401935050602081019050610c42565b5050509392505050565b600082601f830112610c8857610c87610aea565b5b8135610c98848260208601610c0a565b91505092915050565b600067ffffffffffffffff821115610cbc57610cbb610b00565b5b602082029050602081019050919050565b600067ffffffffffffffff821115610ce857610ce7610b00565b5b602082029050602081019050919050565b600080fd5b600080fd5b600080fd5b600067ffffffffffffffff821115610d2357610d22610b00565b5b610d2c82610aef565b9050602081019050919050565b82818337600083830152505050565b6000610d5b610d5684610d08565b610b60565b905082815260208101848484011115610d7757610d76610d03565b5b610d82848285610d39565b509392505050565b600082601f830112610d9f57610d9e610aea565b5b8135610daf848260208601610d48565b91505092915050565b6000819050919050565b610dcb81610db8565b8114610dd657600080fd5b50565b600081359050610de881610dc2565b92915050565b600060808284031215610e0457610e03610cf9565b5b610e0e6080610b60565b9050600082013567ffffffffffffffff811115610e2e57610e2d610cfe565b5b610e3a84828501610d8a565b600083015250602082013567ffffffffffffffff811115610e5e57610e5d610cfe565b5b610e6a84828501610d8a565b6020830152506040610e7e84828501610dd9565b6040830152506060610e9284828501610bf5565b60608301525092915050565b6000610eb1610eac84610ccd565b610b60565b90508083825260208201905060208402830185811115610ed457610ed3610ba7565b5b835b81811015610f1b57803567ffffffffffffffff811115610ef957610ef8610aea565b5b808601610f068982610dee565b85526020850194505050602081019050610ed6565b5050509392505050565b600082601f830112610f3a57610f39610aea565b5b8135610f4a848260208601610e9e565b91505092915050565b6000610f66610f6184610ca1565b610b60565b90508083825260208201905060208402830185811115610f8957610f88610ba7565b5b835b81811015610fd057803567ffffffffffffffff811115610fae57610fad610aea565b5b808601610fbb8982610f25565b85526020850194505050602081019050610f8b565b5050509392505050565b600082601f830112610fef57610fee610aea565b5b8135610fff848260208601610f53565b91505092915050565b60008060006060848603121561102157611020610ae0565b5b600084013567ffffffffffffffff81111561103f5761103e610ae5565b5b61104b86828701610c73565b935050602084013567ffffffffffffffff81111561106c5761106b610ae5565b5b61107886828701610c73565b925050604084013567ffffffffffffffff81111561109957611098610ae5565b5b6110a586828701610fda565b9150509250925092565b6110b881610db8565b82525050565b60006020820190506110d360008301846110af565b92915050565b600080604083850312156110f0576110ef610ae0565b5b60006110fe85828601610dd9565b925050602061110f85828601610dd9565b9150509250929050565b61112281610bcc565b82525050565b600060208201905061113d6000830184611119565b92915050565b60006020828403121561115957611158610ae0565b5b600061116784828501610dd9565b91505092915050565b600081519050919050565b600082825260208201905092915050565b6000819050602082019050919050565b6111a581610bcc565b82525050565b60006111b7838361119c565b60208301905092915050565b6000602082019050919050565b60006111db82611170565b6111e5818561117b565b93506111f08361118c565b8060005b8381101561122157815161120888826111ab565b9750611213836111c3565b9250506001810190506111f4565b5085935050505092915050565b6000602082019050818103600083015261124881846111d0565b905092915050565b6000806040838503121561126757611266610ae0565b5b600083013567ffffffffffffffff81111561128557611284610ae5565b5b61129185828601610d8a565b925050602083013567ffffffffffffffff8111156112b2576112b1610ae5565b5b6112be85828601610d8a565b9150509250929050565b60008115159050919050565b6112dd816112c8565b82525050565b60006020820190506112f860008301846112d4565b92915050565b60008060006060848603121561131757611316610ae0565b5b600061132586828701610dd9565b935050602061133686828701610dd9565b925050604061134786828701610dd9565b9150509250925092565b600081519050919050565b600082825260208201905092915050565b60005b8381101561138b578082015181840152602081019050611370565b8381111561139a576000848401525b50505050565b60006113ab82611351565b6113b5818561135c565b93506113c581856020860161136d565b6113ce81610aef565b840191505092915050565b6113e281610db8565b82525050565b6000608083016000830151848203600086015261140582826113a0565b9150506020830151848203602086015261141f82826113a0565b915050604083015161143460408601826113d9565b506060830151611447606086018261119c565b508091505092915050565b6000602082019050818103600083015261146c81846113e8565b905092915050565b7f4e487b7100000000000000000000000000000000000000000000000000000000600052603260045260246000fd5b7f4e487b7100000000000000000000000000000000000000000000000000000000600052601160045260246000fd5b60006114dd82610db8565b91507fffffffffffffffffffffffffffffffffffffffffffffffffffffffffffffffff8214156115105761150f6114a3565b5b600182019050919050565b60006040820190506115306000830185611119565b61153d60208301846110af565b9392505050565b7f4e487b7100000000000000000000000000000000000000000000000000000000600052602260045260246000fd5b6000600282049050600182168061158b57607f821691505b6020821081141561159f5761159e611544565b5b5091905056fea26469706673582212205cd59968db860c5f0916b2100ff66ccfe017cdfc4069a063d8f0eefd06b8517164736f6c63430008090033",
  "immutableReferences": {},
  "source": "// SPDX-License-Identifier: GPL-3.0\npragma solidity 0.8.9;\n\n/* EXTERNAL DEPENDENCIES */\n\n/* INTERNAL DEPENDENCIES */\nimport \"./CommonStructs.sol\";\n\n/**\n * @title Deals contract\n * @notice Contains the client data: mapping of the rules and accounts defined by the client\n */\n\ncontract Deals {\n    /* STORAGE VARIABLES */\n\n    /// @dev Incremental number that represents and gives access to a particular deal\n    uint dealId = 0;\n\n    /// @dev Number of rules for a particular deal (key = dealId)\n    mapping (uint => uint) private rulesCount;\n\n    /// @dev Number of articles for a particular rule (key = dealId, ruleId)\n    mapping (uint => mapping(uint => uint)) private articlesCount;\n\n    /// @dev Number of internal accounts for a particular deal (key = dealId)\n    mapping (uint => uint) private internalAccountsCount;\n\n    /// @dev Number of external accounts for a particular deal (key = dealId)\n    mapping (uint => uint) private externalAccountsCount;\n\n    /// @dev Mapping of internal accounts for a particular deal (key = dealId)\n    mapping (uint => address[]) private internalAccounts;\n\n    /// @dev Mapping of external accounts for a particular deal (key = dealId)\n    mapping (uint => address[]) private externalAccounts;\n\n    /// @dev Mapping of Articles composing a particular deal (key = dealId, ruleId, ArticleId)\n    mapping (uint => mapping (uint => mapping (uint => CommonStructs.Article))) private deals;\n    \n    /* STRUCT */\n   \n    /* EVENTS */\n\n    /** \n    * @dev Event emitted when a deal is created\n    * @param _from address that initiated the deal creation\n    * @param _dealId Id of the deal created\n    */\n    event CreateDeal(address _from, uint _dealId);\n\n    /* PUBLIC INTERFACE */\n\n    /** \n    * @dev Returns the number of rules of a deal\n    * @param _dealId Id of the deal\n    */\n    function getRulesCount(uint _dealId) public view returns(uint) {\n        return rulesCount[_dealId];\n    }\n\n    /** \n    * @dev Returns the number of articles of a rule\n    * @param _dealId Id of the deal\n    * @param _ruleId Id of the rule\n    */\n    function getArticlesCount(uint _dealId, uint _ruleId) public view returns(uint) {\n        return articlesCount[_dealId][_ruleId];\n    }\n\n    /** \n    * @dev Returns the number of internal accounts of a deal\n    * @param _dealId Id of the deal\n    */\n    function getInternalAccountsCount(uint _dealId) public view returns(uint) {\n        return internalAccountsCount[_dealId];\n    }\n\n    /** \n    * @dev Returns the number of external accounts of a deal\n    * @param _dealId Id of the deal\n    */\n    function getExternalAccountsCount(uint _dealId) public view returns(uint) {\n        return externalAccountsCount[_dealId];\n    }\n    \n    /** \n    * @dev Returns the address of an internal account of a deal\n    * @param _dealId Id of the deal\n    * @param _accountId Id of the account\n    */\n    function getInternalAccount(uint _dealId, uint _accountId) public view returns(address) {\n        return internalAccounts[_dealId][_accountId];\n    }\n\n    /** \n    * @dev Returns the address of an external account of a deal\n    * @param _dealId Id of the deal\n    * @param _accountId Id of the account\n    */\n    function getExternalAccount(uint _dealId, uint _accountId) public view returns(address) {\n        return externalAccounts[_dealId][_accountId];\n    }\n\n    /** \n    * @dev Returns an article\n    * @param _dealId Id of the deal\n    * @param _ruleId Id of the rule\n    * @param _articleId Id of the article\n    */\n    function getArticle(uint _dealId, uint _ruleId, uint _articleId) public view returns(CommonStructs.Article memory) {\n        return deals[_dealId][_ruleId][_articleId];\n    }\n    \n    /**\n    * @dev Returns the list of addresses of the internal accounts for a deal\n    * @param _dealId Id of the deal\n    */\n    function getInternalAccounts(uint _dealId) public view returns(address[] memory) {\n        return internalAccounts[_dealId];\n    }\n    \n    /**\n    * @dev Creates a deal and returns its id\n    * @param _externalAccounts List of the external accounts addresses linked to the deal\n    * @param _internalAccounts List of the internal accounts addresses linked to the deal\n    * @param _rulesList List of the rules linked to the deal (rule = list of Articles)\n    */\n    function createDeal\n    (\n        address[] memory _externalAccounts, \n        address[] memory _internalAccounts, \n        CommonStructs.Article[][] memory _rulesList\n    ) \n    public returns (uint) {\n        // Save external accounts\n        externalAccountsCount[dealId] = _externalAccounts.length;\n        for(uint i=0;i<_externalAccounts.length;i++)\n            externalAccounts[dealId].push(_externalAccounts[i]);\n\n        // Save internal accounts\n        internalAccountsCount[dealId] = _internalAccounts.length;\n        for(uint i=0;i<_internalAccounts.length;i++)\n            internalAccounts[dealId].push(_internalAccounts[i]);\n\n        // Save the rule count\n        rulesCount[dealId] = _rulesList.length;\n\n        // Save the rule list\n        for (uint i=0;i<_rulesList.length;i++){\n            articlesCount[dealId][i] = _rulesList[i].length;\n            for (uint j=0;j<_rulesList[i].length;j++){\n                deals[dealId][i][j] = _rulesList[i][j];\n            }\n        }\n        \n        // Log a CreateDeal event and increment the global dealId\n        uint currentDealId = dealId;\n        dealId++;\n        emit CreateDeal(msg.sender, currentDealId);\n\n        // Return the deal Id\n        return currentDealId;\n    }\n\n    /* SUPPORT FUNCTIONS */\n    function compareStrings(string memory _s1, string memory _s2) public pure returns(bool) {\n        return keccak256(bytes(_s1)) == keccak256(bytes(_s2));\n    }\n   \n}\n",
  "sourcePath": "/home/shakalee/Documents/Consensys/PROJOT-v0/contracts/Deals.sol",
  "compiler": {
    "name": "solc",
    "version": "0.8.9+commit.e5eed63a.Emscripten.clang"
  },
  "schemaVersion": "3.4.3",
  "updatedAt": "2021-11-20T10:33:18.153Z",
  "networkType": "ethereum",
  "devdoc": {
    "events": {
      "CreateDeal(address,uint256)": {
        "details": "Event emitted when a deal is created",
        "params": {
          "_dealId": "Id of the deal created",
          "_from": "address that initiated the deal creation"
        }
      }
    },
    "kind": "dev",
    "methods": {
      "createDeal(address[],address[],(string,string,uint256,address)[][])": {
        "details": "Creates a deal and returns its id",
        "params": {
          "_externalAccounts": "List of the external accounts addresses linked to the deal",
          "_internalAccounts": "List of the internal accounts addresses linked to the deal",
          "_rulesList": "List of the rules linked to the deal (rule = list of Articles)"
        }
      },
      "getArticle(uint256,uint256,uint256)": {
        "details": "Returns an article",
        "params": {
          "_articleId": "Id of the article",
          "_dealId": "Id of the deal",
          "_ruleId": "Id of the rule"
        }
      },
      "getArticlesCount(uint256,uint256)": {
        "details": "Returns the number of articles of a rule",
        "params": {
          "_dealId": "Id of the deal",
          "_ruleId": "Id of the rule"
        }
      },
      "getExternalAccount(uint256,uint256)": {
        "details": "Returns the address of an external account of a deal",
        "params": {
          "_accountId": "Id of the account",
          "_dealId": "Id of the deal"
        }
      },
      "getExternalAccountsCount(uint256)": {
        "details": "Returns the number of external accounts of a deal",
        "params": {
          "_dealId": "Id of the deal"
        }
      },
      "getInternalAccount(uint256,uint256)": {
        "details": "Returns the address of an internal account of a deal",
        "params": {
          "_accountId": "Id of the account",
          "_dealId": "Id of the deal"
        }
      },
      "getInternalAccounts(uint256)": {
        "details": "Returns the list of addresses of the internal accounts for a deal",
        "params": {
          "_dealId": "Id of the deal"
        }
      },
      "getInternalAccountsCount(uint256)": {
        "details": "Returns the number of internal accounts of a deal",
        "params": {
          "_dealId": "Id of the deal"
        }
      },
      "getRulesCount(uint256)": {
        "details": "Returns the number of rules of a deal",
        "params": {
          "_dealId": "Id of the deal"
        }
      }
    },
    "stateVariables": {
      "articlesCount": {
        "details": "Number of articles for a particular rule (key = dealId, ruleId)"
      },
      "dealId": {
        "details": "Incremental number that represents and gives access to a particular deal"
      },
      "deals": {
        "details": "Mapping of Articles composing a particular deal (key = dealId, ruleId, ArticleId)"
      },
      "externalAccounts": {
        "details": "Mapping of external accounts for a particular deal (key = dealId)"
      },
      "externalAccountsCount": {
        "details": "Number of external accounts for a particular deal (key = dealId)"
      },
      "internalAccounts": {
        "details": "Mapping of internal accounts for a particular deal (key = dealId)"
      },
      "internalAccountsCount": {
        "details": "Number of internal accounts for a particular deal (key = dealId)"
      },
      "rulesCount": {
        "details": "Number of rules for a particular deal (key = dealId)"
      }
    },
    "title": "Deals contract",
    "version": 1
  },
  "userdoc": {
    "kind": "user",
    "methods": {},
    "notice": "Contains the client data: mapping of the rules and accounts defined by the client",
    "version": 1
  }
}