{
  "contractName": "Deals",
  "abi": [
    {
      "anonymous": false,
      "inputs": [
        {
          "indexed": false,
          "internalType": "address",
          "name": "_from",
          "type": "address"
        },
        {
          "indexed": false,
          "internalType": "uint256",
          "name": "_dealId",
          "type": "uint256"
        }
      ],
      "name": "CreateDeal",
      "type": "event"
    },
    {
      "inputs": [
        {
          "internalType": "uint256",
          "name": "_dealId",
          "type": "uint256"
        }
      ],
      "name": "getRulesCount",
      "outputs": [
        {
          "internalType": "uint256",
          "name": "",
          "type": "uint256"
        }
      ],
      "stateMutability": "view",
      "type": "function"
    },
    {
      "inputs": [
        {
          "internalType": "uint256",
          "name": "_dealId",
          "type": "uint256"
        },
        {
          "internalType": "uint256",
          "name": "_ruleId",
          "type": "uint256"
        }
      ],
      "name": "getArticlesCount",
      "outputs": [
        {
          "internalType": "uint256",
          "name": "",
          "type": "uint256"
        }
      ],
      "stateMutability": "view",
      "type": "function"
    },
    {
      "inputs": [
        {
          "internalType": "uint256",
          "name": "_dealId",
          "type": "uint256"
        }
      ],
      "name": "getAccountsCount",
      "outputs": [
        {
          "internalType": "uint256",
          "name": "",
          "type": "uint256"
        }
      ],
      "stateMutability": "view",
      "type": "function"
    },
    {
      "inputs": [
        {
          "internalType": "uint256",
          "name": "_dealId",
          "type": "uint256"
        },
        {
          "internalType": "uint256",
          "name": "_accountId",
          "type": "uint256"
        }
      ],
      "name": "getAccount",
      "outputs": [
        {
          "internalType": "address",
          "name": "",
          "type": "address"
        }
      ],
      "stateMutability": "view",
      "type": "function"
    },
    {
      "inputs": [
        {
          "internalType": "uint256",
          "name": "_dealId",
          "type": "uint256"
        },
        {
          "internalType": "uint256",
          "name": "_ruleId",
          "type": "uint256"
        },
        {
          "internalType": "uint256",
          "name": "_articleId",
          "type": "uint256"
        }
      ],
      "name": "getArticle",
      "outputs": [
        {
          "components": [
            {
              "internalType": "string",
              "name": "instructionName",
              "type": "string"
            },
            {
              "internalType": "string",
              "name": "paramStr",
              "type": "string"
            },
            {
              "internalType": "uint256",
              "name": "paramUInt",
              "type": "uint256"
            },
            {
              "internalType": "address",
              "name": "paramAddress",
              "type": "address"
            }
          ],
          "internalType": "struct CommonStructs.Article",
          "name": "",
          "type": "tuple"
        }
      ],
      "stateMutability": "view",
      "type": "function"
    },
    {
      "inputs": [
        {
          "internalType": "address[]",
          "name": "_accounts",
          "type": "address[]"
        },
        {
          "components": [
            {
              "internalType": "string",
              "name": "instructionName",
              "type": "string"
            },
            {
              "internalType": "string",
              "name": "paramStr",
              "type": "string"
            },
            {
              "internalType": "uint256",
              "name": "paramUInt",
              "type": "uint256"
            },
            {
              "internalType": "address",
              "name": "paramAddress",
              "type": "address"
            }
          ],
          "internalType": "struct CommonStructs.Article[][]",
          "name": "_rulesList",
          "type": "tuple[][]"
        }
      ],
      "name": "createDeal",
      "outputs": [
        {
          "internalType": "uint256",
          "name": "",
          "type": "uint256"
        }
      ],
      "stateMutability": "nonpayable",
      "type": "function"
    }
  ],
  "bytecode": "0x60806040526000805534801561001457600080fd5b50611134806100246000396000f3fe608060405234801561001057600080fd5b50600436106100625760003560e01c80634b0262ac146100675780636361f6de14610097578063bf251077146100c7578063d3151425146100f7578063fc51821c14610127578063fccc610f14610157575b600080fd5b610081600480360381019061007c9190610827565b610187565b60405161008e9190610863565b60405180910390f35b6100b160048036038101906100ac919061087e565b6101a4565b6040516100be91906108ff565b60405180910390f35b6100e160048036038101906100dc919061091a565b6101fe565b6040516100ee9190610a8e565b60405180910390f35b610111600480360381019061010c9190610827565b6103d3565b60405161011e9190610863565b60405180910390f35b610141600480360381019061013c9190610f55565b6103f0565b60405161014e9190610863565b60405180910390f35b610171600480360381019061016c919061087e565b6106cd565b60405161017e9190610863565b60405180910390f35b600060016000838152602001908152602001600020549050919050565b60006004600084815260200190815260200160002082815481106101cb576101ca610fcd565b5b9060005260206000200160009054906101000a900473ffffffffffffffffffffffffffffffffffffffff16905092915050565b6102066106fc565b60056000858152602001908152602001600020600084815260200190815260200160002060008381526020019081526020016000206040518060800160405290816000820180546102569061102b565b80601f01602080910402602001604051908101604052809291908181526020018280546102829061102b565b80156102cf5780601f106102a4576101008083540402835291602001916102cf565b820191906000526020600020905b8154815290600101906020018083116102b257829003601f168201915b505050505081526020016001820180546102e89061102b565b80601f01602080910402602001604051908101604052809291908181526020018280546103149061102b565b80156103615780601f1061033657610100808354040283529160200191610361565b820191906000526020600020905b81548152906001019060200180831161034457829003601f168201915b50505050508152602001600282015481526020016003820160009054906101000a900473ffffffffffffffffffffffffffffffffffffffff1673ffffffffffffffffffffffffffffffffffffffff1673ffffffffffffffffffffffffffffffffffffffff168152505090509392505050565b600060036000838152602001908152602001600020549050919050565b6000825160036000805481526020019081526020016000208190555060005b83518110156104ba57600460008054815260200190815260200160002084828151811061043f5761043e610fcd565b5b60200260200101519080600181540180825580915050600190039060005260206000200160009091909190916101000a81548173ffffffffffffffffffffffffffffffffffffffff021916908373ffffffffffffffffffffffffffffffffffffffff16021790555080806104b29061108c565b91505061040f565b50815160016000805481526020019081526020016000208190555060005b825181101561066c578281815181106104f4576104f3610fcd565b5b602002602001015151600260008054815260200190815260200160002060008381526020019081526020016000208190555060005b83828151811061053c5761053b610fcd565b5b6020026020010151518110156106585783828151811061055f5761055e610fcd565b5b6020026020010151818151811061057957610578610fcd565b5b602002602001015160056000805481526020019081526020016000206000848152602001908152602001600020600083815260200190815260200160002060008201518160000190805190602001906105d392919061073a565b5060208201518160010190805190602001906105f092919061073a565b506040820151816002015560608201518160030160006101000a81548173ffffffffffffffffffffffffffffffffffffffff021916908373ffffffffffffffffffffffffffffffffffffffff16021790555090505080806106509061108c565b915050610529565b5080806106649061108c565b9150506104d8565b506000805490506000808154809291906106859061108c565b91905055507fd96bfefed58aa313e5af8a78aaac764b3f12d13339be60e009cc7cb05dd701a633826040516106bb9291906110d5565b60405180910390a18091505092915050565b600060026000848152602001908152602001600020600083815260200190815260200160002054905092915050565b6040518060800160405280606081526020016060815260200160008152602001600073ffffffffffffffffffffffffffffffffffffffff1681525090565b8280546107469061102b565b90600052602060002090601f01602090048101928261076857600085556107af565b82601f1061078157805160ff19168380011785556107af565b828001600101855582156107af579182015b828111156107ae578251825591602001919060010190610793565b5b5090506107bc91906107c0565b5090565b5b808211156107d95760008160009055506001016107c1565b5090565b6000604051905090565b600080fd5b600080fd5b6000819050919050565b610804816107f1565b811461080f57600080fd5b50565b600081359050610821816107fb565b92915050565b60006020828403121561083d5761083c6107e7565b5b600061084b84828501610812565b91505092915050565b61085d816107f1565b82525050565b60006020820190506108786000830184610854565b92915050565b60008060408385031215610895576108946107e7565b5b60006108a385828601610812565b92505060206108b485828601610812565b9150509250929050565b600073ffffffffffffffffffffffffffffffffffffffff82169050919050565b60006108e9826108be565b9050919050565b6108f9816108de565b82525050565b600060208201905061091460008301846108f0565b92915050565b600080600060608486031215610933576109326107e7565b5b600061094186828701610812565b935050602061095286828701610812565b925050604061096386828701610812565b9150509250925092565b600081519050919050565b600082825260208201905092915050565b60005b838110156109a757808201518184015260208101905061098c565b838111156109b6576000848401525b50505050565b6000601f19601f8301169050919050565b60006109d88261096d565b6109e28185610978565b93506109f2818560208601610989565b6109fb816109bc565b840191505092915050565b610a0f816107f1565b82525050565b610a1e816108de565b82525050565b60006080830160008301518482036000860152610a4182826109cd565b91505060208301518482036020860152610a5b82826109cd565b9150506040830151610a706040860182610a06565b506060830151610a836060860182610a15565b508091505092915050565b60006020820190508181036000830152610aa88184610a24565b905092915050565b600080fd5b7f4e487b7100000000000000000000000000000000000000000000000000000000600052604160045260246000fd5b610aed826109bc565b810181811067ffffffffffffffff82111715610b0c57610b0b610ab5565b5b80604052505050565b6000610b1f6107dd565b9050610b2b8282610ae4565b919050565b600067ffffffffffffffff821115610b4b57610b4a610ab5565b5b602082029050602081019050919050565b600080fd5b610b6a816108de565b8114610b7557600080fd5b50565b600081359050610b8781610b61565b92915050565b6000610ba0610b9b84610b30565b610b15565b90508083825260208201905060208402830185811115610bc357610bc2610b5c565b5b835b81811015610bec5780610bd88882610b78565b845260208401935050602081019050610bc5565b5050509392505050565b600082601f830112610c0b57610c0a610ab0565b5b8135610c1b848260208601610b8d565b91505092915050565b600067ffffffffffffffff821115610c3f57610c3e610ab5565b5b602082029050602081019050919050565b600067ffffffffffffffff821115610c6b57610c6a610ab5565b5b602082029050602081019050919050565b600080fd5b600080fd5b600080fd5b600067ffffffffffffffff821115610ca657610ca5610ab5565b5b610caf826109bc565b9050602081019050919050565b82818337600083830152505050565b6000610cde610cd984610c8b565b610b15565b905082815260208101848484011115610cfa57610cf9610c86565b5b610d05848285610cbc565b509392505050565b600082601f830112610d2257610d21610ab0565b5b8135610d32848260208601610ccb565b91505092915050565b600060808284031215610d5157610d50610c7c565b5b610d5b6080610b15565b9050600082013567ffffffffffffffff811115610d7b57610d7a610c81565b5b610d8784828501610d0d565b600083015250602082013567ffffffffffffffff811115610dab57610daa610c81565b5b610db784828501610d0d565b6020830152506040610dcb84828501610812565b6040830152506060610ddf84828501610b78565b60608301525092915050565b6000610dfe610df984610c50565b610b15565b90508083825260208201905060208402830185811115610e2157610e20610b5c565b5b835b81811015610e6857803567ffffffffffffffff811115610e4657610e45610ab0565b5b808601610e538982610d3b565b85526020850194505050602081019050610e23565b5050509392505050565b600082601f830112610e8757610e86610ab0565b5b8135610e97848260208601610deb565b91505092915050565b6000610eb3610eae84610c24565b610b15565b90508083825260208201905060208402830185811115610ed657610ed5610b5c565b5b835b81811015610f1d57803567ffffffffffffffff811115610efb57610efa610ab0565b5b808601610f088982610e72565b85526020850194505050602081019050610ed8565b5050509392505050565b600082601f830112610f3c57610f3b610ab0565b5b8135610f4c848260208601610ea0565b91505092915050565b60008060408385031215610f6c57610f6b6107e7565b5b600083013567ffffffffffffffff811115610f8a57610f896107ec565b5b610f9685828601610bf6565b925050602083013567ffffffffffffffff811115610fb757610fb66107ec565b5b610fc385828601610f27565b9150509250929050565b7f4e487b7100000000000000000000000000000000000000000000000000000000600052603260045260246000fd5b7f4e487b7100000000000000000000000000000000000000000000000000000000600052602260045260246000fd5b6000600282049050600182168061104357607f821691505b6020821081141561105757611056610ffc565b5b50919050565b7f4e487b7100000000000000000000000000000000000000000000000000000000600052601160045260246000fd5b6000611097826107f1565b91507fffffffffffffffffffffffffffffffffffffffffffffffffffffffffffffffff8214156110ca576110c961105d565b5b600182019050919050565b60006040820190506110ea60008301856108f0565b6110f76020830184610854565b939250505056fea2646970667358221220c643ea1d6743df8e77277bbe9768d86d56484161231de6760eb713807f9e215564736f6c63430008090033",
  "immutableReferences": {},
  "source": "// SPDX-License-Identifier: GPL-3.0\npragma solidity 0.8.9;\n\n/* EXTERNAL DEPENDENCIES */\n\n/* INTERNAL DEPENDENCIES */\nimport \"./CommonStructs.sol\";\n\n/**\n * @title Deals contract\n * @notice Contains the client data: mapping of the rules and accounts defined by the client\n */\n\ncontract Deals {\n    /* STORAGE VARIABLES */\n\n    /// @dev Incremental number that represents and gives access to a particular deal\n    uint dealId = 0;\n\n    /// @dev Number of rules for a particular deal (key = dealId)\n    mapping (uint => uint) private rulesCount;\n\n    /// @dev Number of articles for a particular rule (key = dealId, ruleId)\n    mapping (uint => mapping(uint => uint)) private articlesCount;\n\n    /// @dev Number of accounts for a particular deal (key = dealId)\n    mapping (uint => uint) private accountsCount;\n\n    /// @dev Mapping of accounts for a particular deal (key = dealId)\n    mapping (uint => address[]) private accounts;\n\n    /// @dev Mapping of Articles composing a particular deal (key = dealId, ruleId, ArticleId)\n    mapping (uint => mapping (uint => mapping (uint => CommonStructs.Article))) private deals;\n    \n    /* STRUCT */\n   \n    /* EVENTS */\n\n    /** \n    * @dev Event emitted when a deal is created\n    * @param _from address that initiated the deal creation\n    * @param _dealId Id of the deal created\n    */\n    event CreateDeal(address _from, uint _dealId);\n\n    /* PUBLIC INTERFACE */\n\n    /** \n    * @dev Returns the number of rules of a deal\n    * @param _dealId Id of the deal\n    * @return Number of rules in the deal\n    */\n    function getRulesCount(uint _dealId) public view returns(uint) {\n        return rulesCount[_dealId];\n    }\n\n    /** \n    * @dev Returns the number of articles of a rule\n    * @param _dealId Id of the deal\n    * @param _ruleId Id of the rule\n    * @return Number of articles in the rule\n    */\n    function getArticlesCount(uint _dealId, uint _ruleId) public view returns(uint) {\n        return articlesCount[_dealId][_ruleId];\n    }\n\n    /** \n    * @dev Returns the number of accounts of a deal\n    * @param _dealId Id of the deal\n    * @return Number of accounts in the deal\n    */\n    function getAccountsCount(uint _dealId) public view returns(uint) {\n        return accountsCount[_dealId];\n    }\n    \n    /** \n    * @dev Returns the address of an account of a deal\n    * @param _dealId Id of the deal\n    * @param _accountId Id of the account\n    * @return Account address\n    */\n    function getAccount(uint _dealId, uint _accountId) public view returns(address) {\n        return accounts[_dealId][_accountId];\n    }\n\n    /** \n    * @dev Returns an article\n    * @param _dealId Id of the deal\n    * @param _ruleId Id of the rule\n    * @param _articleId Id of the article\n    * @return CommonStructs.Article\n    */\n    function getArticle(uint _dealId, uint _ruleId, uint _articleId) public view returns(CommonStructs.Article memory) {\n        return deals[_dealId][_ruleId][_articleId];\n    }\n    \n    /**\n    * @dev Creates a deal and returns its id\n    * @param _accounts List of the external accounts addresses linked to the deal\n    * @param _rulesList List of the rules linked to the deal (rule = list of Articles)\n    * @return Deal Id\n    */\n    function createDeal\n    (\n        address[] memory _accounts, \n        CommonStructs.Article[][] memory _rulesList\n    ) \n    public returns (uint) {\n        // Save accounts\n        accountsCount[dealId] = _accounts.length;\n        for(uint i=0;i<_accounts.length;i++)\n            accounts[dealId].push(_accounts[i]);\n\n        // Save the rule count\n        rulesCount[dealId] = _rulesList.length;\n\n        // Save the rule list\n        for (uint i=0;i<_rulesList.length;i++){\n            articlesCount[dealId][i] = _rulesList[i].length;\n            for (uint j=0;j<_rulesList[i].length;j++){\n                deals[dealId][i][j] = _rulesList[i][j];\n            }\n        }\n        \n        // Log a CreateDeal event and increment the global dealId\n        uint currentDealId = dealId;\n        dealId++;\n        emit CreateDeal(msg.sender, currentDealId);\n\n        // Return the deal Id\n        return currentDealId;\n    }\n   \n}\n",
  "sourcePath": "/home/shakalee/Documents/Consensys/PROJOT-v0/contracts/Deals.sol",
  "compiler": {
    "name": "solc",
    "version": "0.8.9+commit.e5eed63a.Emscripten.clang"
  },
  "schemaVersion": "3.4.3",
  "updatedAt": "2021-11-21T08:19:36.730Z",
  "devdoc": {
    "events": {
      "CreateDeal(address,uint256)": {
        "details": "Event emitted when a deal is created",
        "params": {
          "_dealId": "Id of the deal created",
          "_from": "address that initiated the deal creation"
        }
      }
    },
    "kind": "dev",
    "methods": {
      "createDeal(address[],(string,string,uint256,address)[][])": {
        "details": "Creates a deal and returns its id",
        "params": {
          "_accounts": "List of the external accounts addresses linked to the deal",
          "_rulesList": "List of the rules linked to the deal (rule = list of Articles)"
        },
        "returns": {
          "_0": "Deal Id"
        }
      },
      "getAccount(uint256,uint256)": {
        "details": "Returns the address of an account of a deal",
        "params": {
          "_accountId": "Id of the account",
          "_dealId": "Id of the deal"
        },
        "returns": {
          "_0": "Account address"
        }
      },
      "getAccountsCount(uint256)": {
        "details": "Returns the number of accounts of a deal",
        "params": {
          "_dealId": "Id of the deal"
        },
        "returns": {
          "_0": "Number of accounts in the deal"
        }
      },
      "getArticle(uint256,uint256,uint256)": {
        "details": "Returns an article",
        "params": {
          "_articleId": "Id of the article",
          "_dealId": "Id of the deal",
          "_ruleId": "Id of the rule"
        },
        "returns": {
          "_0": "CommonStructs.Article"
        }
      },
      "getArticlesCount(uint256,uint256)": {
        "details": "Returns the number of articles of a rule",
        "params": {
          "_dealId": "Id of the deal",
          "_ruleId": "Id of the rule"
        },
        "returns": {
          "_0": "Number of articles in the rule"
        }
      },
      "getRulesCount(uint256)": {
        "details": "Returns the number of rules of a deal",
        "params": {
          "_dealId": "Id of the deal"
        },
        "returns": {
          "_0": "Number of rules in the deal"
        }
      }
    },
    "stateVariables": {
      "accounts": {
        "details": "Mapping of accounts for a particular deal (key = dealId)"
      },
      "accountsCount": {
        "details": "Number of accounts for a particular deal (key = dealId)"
      },
      "articlesCount": {
        "details": "Number of articles for a particular rule (key = dealId, ruleId)"
      },
      "dealId": {
        "details": "Incremental number that represents and gives access to a particular deal"
      },
      "deals": {
        "details": "Mapping of Articles composing a particular deal (key = dealId, ruleId, ArticleId)"
      },
      "rulesCount": {
        "details": "Number of rules for a particular deal (key = dealId)"
      }
    },
    "title": "Deals contract",
    "version": 1
  },
  "userdoc": {
    "kind": "user",
    "methods": {},
    "notice": "Contains the client data: mapping of the rules and accounts defined by the client",
    "version": 1
  }
}