{
  "contractName": "Deals",
  "abi": [
    {
      "anonymous": false,
      "inputs": [
        {
          "indexed": false,
          "internalType": "address",
          "name": "_from",
          "type": "address"
        },
        {
          "indexed": false,
          "internalType": "uint256",
          "name": "_dealId",
          "type": "uint256"
        }
      ],
      "name": "CreateDeal",
      "type": "event"
    },
    {
      "anonymous": false,
      "inputs": [
        {
          "indexed": true,
          "internalType": "address",
          "name": "previousOwner",
          "type": "address"
        },
        {
          "indexed": true,
          "internalType": "address",
          "name": "newOwner",
          "type": "address"
        }
      ],
      "name": "OwnershipTransferred",
      "type": "event"
    },
    {
      "anonymous": false,
      "inputs": [
        {
          "indexed": false,
          "internalType": "address",
          "name": "_from",
          "type": "address"
        },
        {
          "indexed": false,
          "internalType": "address",
          "name": "_old",
          "type": "address"
        },
        {
          "indexed": false,
          "internalType": "address",
          "name": "_new",
          "type": "address"
        }
      ],
      "name": "SetProxyContractAddress",
      "type": "event"
    },
    {
      "inputs": [],
      "name": "owner",
      "outputs": [
        {
          "internalType": "address",
          "name": "",
          "type": "address"
        }
      ],
      "stateMutability": "view",
      "type": "function",
      "constant": true
    },
    {
      "inputs": [],
      "name": "proxyContractAddress",
      "outputs": [
        {
          "internalType": "address",
          "name": "",
          "type": "address"
        }
      ],
      "stateMutability": "view",
      "type": "function",
      "constant": true
    },
    {
      "inputs": [
        {
          "internalType": "address",
          "name": "newOwner",
          "type": "address"
        }
      ],
      "name": "transferOwnership",
      "outputs": [],
      "stateMutability": "nonpayable",
      "type": "function"
    },
    {
      "inputs": [
        {
          "internalType": "address",
          "name": "_new",
          "type": "address"
        }
      ],
      "name": "setProxyContractAddress",
      "outputs": [],
      "stateMutability": "nonpayable",
      "type": "function"
    },
    {
      "inputs": [
        {
          "internalType": "uint256",
          "name": "_dealId",
          "type": "uint256"
        }
      ],
      "name": "getRulesCount",
      "outputs": [
        {
          "internalType": "uint256",
          "name": "",
          "type": "uint256"
        }
      ],
      "stateMutability": "view",
      "type": "function",
      "constant": true
    },
    {
      "inputs": [
        {
          "internalType": "uint256",
          "name": "_dealId",
          "type": "uint256"
        },
        {
          "internalType": "uint256",
          "name": "_ruleId",
          "type": "uint256"
        }
      ],
      "name": "getArticlesCount",
      "outputs": [
        {
          "internalType": "uint256",
          "name": "",
          "type": "uint256"
        }
      ],
      "stateMutability": "view",
      "type": "function",
      "constant": true
    },
    {
      "inputs": [
        {
          "internalType": "uint256",
          "name": "_dealId",
          "type": "uint256"
        }
      ],
      "name": "getAccountsCount",
      "outputs": [
        {
          "internalType": "uint256",
          "name": "",
          "type": "uint256"
        }
      ],
      "stateMutability": "view",
      "type": "function",
      "constant": true
    },
    {
      "inputs": [
        {
          "internalType": "uint256",
          "name": "_dealId",
          "type": "uint256"
        },
        {
          "internalType": "uint256",
          "name": "_accountId",
          "type": "uint256"
        }
      ],
      "name": "getAccount",
      "outputs": [
        {
          "internalType": "address",
          "name": "",
          "type": "address"
        }
      ],
      "stateMutability": "view",
      "type": "function",
      "constant": true
    },
    {
      "inputs": [
        {
          "internalType": "uint256",
          "name": "_dealId",
          "type": "uint256"
        },
        {
          "internalType": "uint256",
          "name": "_ruleId",
          "type": "uint256"
        },
        {
          "internalType": "uint256",
          "name": "_articleId",
          "type": "uint256"
        }
      ],
      "name": "getArticle",
      "outputs": [
        {
          "components": [
            {
              "internalType": "string",
              "name": "instructionName",
              "type": "string"
            },
            {
              "internalType": "string",
              "name": "paramStr",
              "type": "string"
            },
            {
              "internalType": "uint256",
              "name": "paramUInt",
              "type": "uint256"
            },
            {
              "internalType": "address",
              "name": "paramAddress",
              "type": "address"
            }
          ],
          "internalType": "struct CommonStructs.Article",
          "name": "",
          "type": "tuple"
        }
      ],
      "stateMutability": "view",
      "type": "function",
      "constant": true
    },
    {
      "inputs": [
        {
          "internalType": "address[]",
          "name": "_accounts",
          "type": "address[]"
        },
        {
          "components": [
            {
              "internalType": "string",
              "name": "instructionName",
              "type": "string"
            },
            {
              "internalType": "string",
              "name": "paramStr",
              "type": "string"
            },
            {
              "internalType": "uint256",
              "name": "paramUInt",
              "type": "uint256"
            },
            {
              "internalType": "address",
              "name": "paramAddress",
              "type": "address"
            }
          ],
          "internalType": "struct CommonStructs.Article[][]",
          "name": "_rulesList",
          "type": "tuple[][]"
        }
      ],
      "name": "createDeal",
      "outputs": [
        {
          "internalType": "uint256",
          "name": "",
          "type": "uint256"
        }
      ],
      "stateMutability": "nonpayable",
      "type": "function"
    },
    {
      "inputs": [],
      "name": "renounceOwnership",
      "outputs": [],
      "stateMutability": "pure",
      "type": "function",
      "constant": true
    }
  ],
  "bytecode": "0x6080604052600060025534801561001557600080fd5b5061003261002761003760201b60201c565b61003f60201b60201c565b610103565b600033905090565b60008060009054906101000a900473ffffffffffffffffffffffffffffffffffffffff169050816000806101000a81548173ffffffffffffffffffffffffffffffffffffffff021916908373ffffffffffffffffffffffffffffffffffffffff1602179055508173ffffffffffffffffffffffffffffffffffffffff168173ffffffffffffffffffffffffffffffffffffffff167f8be0079c531659141344cd1fd0a4f28419497f9722a3daafe3b4186f6b6457e060405160405180910390a35050565b61184c806101126000396000f3fe608060405234801561001057600080fd5b50600436106100a95760003560e01c8063bf25107711610071578063bf25107714610154578063d315142514610184578063f2fde38b146101b4578063f43fba8c146101d0578063fc51821c146101ec578063fccc610f1461021c576100a9565b80634b0262ac146100ae5780636361f6de146100de578063715018a61461010e5780638da5cb5b146101185780639dff994e14610136575b600080fd5b6100c860048036038101906100c39190610cf4565b61024c565b6040516100d59190610d30565b60405180910390f35b6100f860048036038101906100f39190610d4b565b610269565b6040516101059190610dcc565b60405180910390f35b6101166102c3565b005b6101206102fe565b60405161012d9190610dcc565b60405180910390f35b61013e610327565b60405161014b9190610dcc565b60405180910390f35b61016e60048036038101906101699190610de7565b61034d565b60405161017b9190610f5b565b60405180910390f35b61019e60048036038101906101999190610cf4565b610522565b6040516101ab9190610d30565b60405180910390f35b6101ce60048036038101906101c99190610fa9565b61053f565b005b6101ea60048036038101906101e59190610fa9565b610637565b005b6102066004803603810190610201919061144f565b61075a565b6040516102139190610d30565b60405180910390f35b61023660048036038101906102319190610d4b565b610ace565b6040516102439190610d30565b60405180910390f35b600060036000838152602001908152602001600020549050919050565b60006006600084815260200190815260200160002082815481106102905761028f6114c7565b5b9060005260206000200160009054906101000a900473ffffffffffffffffffffffffffffffffffffffff16905092915050565b6040517f08c379a00000000000000000000000000000000000000000000000000000000081526004016102f590611553565b60405180910390fd5b60008060009054906101000a900473ffffffffffffffffffffffffffffffffffffffff16905090565b600160009054906101000a900473ffffffffffffffffffffffffffffffffffffffff1681565b610355610bc9565b60076000858152602001908152602001600020600084815260200190815260200160002060008381526020019081526020016000206040518060800160405290816000820180546103a5906115a2565b80601f01602080910402602001604051908101604052809291908181526020018280546103d1906115a2565b801561041e5780601f106103f35761010080835404028352916020019161041e565b820191906000526020600020905b81548152906001019060200180831161040157829003601f168201915b50505050508152602001600182018054610437906115a2565b80601f0160208091040260200160405190810160405280929190818152602001828054610463906115a2565b80156104b05780601f10610485576101008083540402835291602001916104b0565b820191906000526020600020905b81548152906001019060200180831161049357829003601f168201915b50505050508152602001600282015481526020016003820160009054906101000a900473ffffffffffffffffffffffffffffffffffffffff1673ffffffffffffffffffffffffffffffffffffffff1673ffffffffffffffffffffffffffffffffffffffff168152505090509392505050565b600060056000838152602001908152602001600020549050919050565b610547610afd565b73ffffffffffffffffffffffffffffffffffffffff166105656102fe565b73ffffffffffffffffffffffffffffffffffffffff16146105bb576040517f08c379a00000000000000000000000000000000000000000000000000000000081526004016105b290611620565b60405180910390fd5b600073ffffffffffffffffffffffffffffffffffffffff168173ffffffffffffffffffffffffffffffffffffffff16141561062b576040517f08c379a0000000000000000000000000000000000000000000000000000000008152600401610622906116b2565b60405180910390fd5b61063481610b05565b50565b61063f610afd565b73ffffffffffffffffffffffffffffffffffffffff1661065d6102fe565b73ffffffffffffffffffffffffffffffffffffffff16146106b3576040517f08c379a00000000000000000000000000000000000000000000000000000000081526004016106aa90611620565b60405180910390fd5b6000600160009054906101000a900473ffffffffffffffffffffffffffffffffffffffff16905081600160006101000a81548173ffffffffffffffffffffffffffffffffffffffff021916908373ffffffffffffffffffffffffffffffffffffffff1602179055507f3f1217b02323e5dc4e83e1bf861d3a5c04873f7e972587684ce1dfcbbb329fa133828460405161074e939291906116d2565b60405180910390a15050565b6000600160009054906101000a900473ffffffffffffffffffffffffffffffffffffffff1673ffffffffffffffffffffffffffffffffffffffff163373ffffffffffffffffffffffffffffffffffffffff16146107ec576040517f08c379a00000000000000000000000000000000000000000000000000000000081526004016107e390611755565b60405180910390fd5b82516005600060025481526020019081526020016000208190555060005b83518110156108b65760066000600254815260200190815260200160002084828151811061083b5761083a6114c7565b5b60200260200101519080600181540180825580915050600190039060005260206000200160009091909190916101000a81548173ffffffffffffffffffffffffffffffffffffffff021916908373ffffffffffffffffffffffffffffffffffffffff16021790555080806108ae906117a4565b91505061080a565b5081516003600060025481526020019081526020016000208190555060005b8251811015610a6b578281815181106108f1576108f06114c7565b5b60200260200101515160046000600254815260200190815260200160002060008381526020019081526020016000208190555060005b83828151811061093a576109396114c7565b5b602002602001015151811015610a575783828151811061095d5761095c6114c7565b5b60200260200101518181518110610977576109766114c7565b5b60200260200101516007600060025481526020019081526020016000206000848152602001908152602001600020600083815260200190815260200160002060008201518160000190805190602001906109d2929190610c07565b5060208201518160010190805190602001906109ef929190610c07565b506040820151816002015560608201518160030160006101000a81548173ffffffffffffffffffffffffffffffffffffffff021916908373ffffffffffffffffffffffffffffffffffffffff1602179055509050508080610a4f906117a4565b915050610927565b508080610a63906117a4565b9150506108d5565b506000600254905060026000815480929190610a86906117a4565b91905055507fd96bfefed58aa313e5af8a78aaac764b3f12d13339be60e009cc7cb05dd701a63382604051610abc9291906117ed565b60405180910390a18091505092915050565b600060046000848152602001908152602001600020600083815260200190815260200160002054905092915050565b600033905090565b60008060009054906101000a900473ffffffffffffffffffffffffffffffffffffffff169050816000806101000a81548173ffffffffffffffffffffffffffffffffffffffff021916908373ffffffffffffffffffffffffffffffffffffffff1602179055508173ffffffffffffffffffffffffffffffffffffffff168173ffffffffffffffffffffffffffffffffffffffff167f8be0079c531659141344cd1fd0a4f28419497f9722a3daafe3b4186f6b6457e060405160405180910390a35050565b6040518060800160405280606081526020016060815260200160008152602001600073ffffffffffffffffffffffffffffffffffffffff1681525090565b828054610c13906115a2565b90600052602060002090601f016020900481019282610c355760008555610c7c565b82601f10610c4e57805160ff1916838001178555610c7c565b82800160010185558215610c7c579182015b82811115610c7b578251825591602001919060010190610c60565b5b509050610c899190610c8d565b5090565b5b80821115610ca6576000816000905550600101610c8e565b5090565b6000604051905090565b600080fd5b600080fd5b6000819050919050565b610cd181610cbe565b8114610cdc57600080fd5b50565b600081359050610cee81610cc8565b92915050565b600060208284031215610d0a57610d09610cb4565b5b6000610d1884828501610cdf565b91505092915050565b610d2a81610cbe565b82525050565b6000602082019050610d456000830184610d21565b92915050565b60008060408385031215610d6257610d61610cb4565b5b6000610d7085828601610cdf565b9250506020610d8185828601610cdf565b9150509250929050565b600073ffffffffffffffffffffffffffffffffffffffff82169050919050565b6000610db682610d8b565b9050919050565b610dc681610dab565b82525050565b6000602082019050610de16000830184610dbd565b92915050565b600080600060608486031215610e0057610dff610cb4565b5b6000610e0e86828701610cdf565b9350506020610e1f86828701610cdf565b9250506040610e3086828701610cdf565b9150509250925092565b600081519050919050565b600082825260208201905092915050565b60005b83811015610e74578082015181840152602081019050610e59565b83811115610e83576000848401525b50505050565b6000601f19601f8301169050919050565b6000610ea582610e3a565b610eaf8185610e45565b9350610ebf818560208601610e56565b610ec881610e89565b840191505092915050565b610edc81610cbe565b82525050565b610eeb81610dab565b82525050565b60006080830160008301518482036000860152610f0e8282610e9a565b91505060208301518482036020860152610f288282610e9a565b9150506040830151610f3d6040860182610ed3565b506060830151610f506060860182610ee2565b508091505092915050565b60006020820190508181036000830152610f758184610ef1565b905092915050565b610f8681610dab565b8114610f9157600080fd5b50565b600081359050610fa381610f7d565b92915050565b600060208284031215610fbf57610fbe610cb4565b5b6000610fcd84828501610f94565b91505092915050565b600080fd5b7f4e487b7100000000000000000000000000000000000000000000000000000000600052604160045260246000fd5b61101382610e89565b810181811067ffffffffffffffff8211171561103257611031610fdb565b5b80604052505050565b6000611045610caa565b9050611051828261100a565b919050565b600067ffffffffffffffff82111561107157611070610fdb565b5b602082029050602081019050919050565b600080fd5b600061109a61109584611056565b61103b565b905080838252602082019050602084028301858111156110bd576110bc611082565b5b835b818110156110e657806110d28882610f94565b8452602084019350506020810190506110bf565b5050509392505050565b600082601f83011261110557611104610fd6565b5b8135611115848260208601611087565b91505092915050565b600067ffffffffffffffff82111561113957611138610fdb565b5b602082029050602081019050919050565b600067ffffffffffffffff82111561116557611164610fdb565b5b602082029050602081019050919050565b600080fd5b600080fd5b600080fd5b600067ffffffffffffffff8211156111a05761119f610fdb565b5b6111a982610e89565b9050602081019050919050565b82818337600083830152505050565b60006111d86111d384611185565b61103b565b9050828152602081018484840111156111f4576111f3611180565b5b6111ff8482856111b6565b509392505050565b600082601f83011261121c5761121b610fd6565b5b813561122c8482602086016111c5565b91505092915050565b60006080828403121561124b5761124a611176565b5b611255608061103b565b9050600082013567ffffffffffffffff8111156112755761127461117b565b5b61128184828501611207565b600083015250602082013567ffffffffffffffff8111156112a5576112a461117b565b5b6112b184828501611207565b60208301525060406112c584828501610cdf565b60408301525060606112d984828501610f94565b60608301525092915050565b60006112f86112f38461114a565b61103b565b9050808382526020820190506020840283018581111561131b5761131a611082565b5b835b8181101561136257803567ffffffffffffffff8111156113405761133f610fd6565b5b80860161134d8982611235565b8552602085019450505060208101905061131d565b5050509392505050565b600082601f83011261138157611380610fd6565b5b81356113918482602086016112e5565b91505092915050565b60006113ad6113a88461111e565b61103b565b905080838252602082019050602084028301858111156113d0576113cf611082565b5b835b8181101561141757803567ffffffffffffffff8111156113f5576113f4610fd6565b5b808601611402898261136c565b855260208501945050506020810190506113d2565b5050509392505050565b600082601f83011261143657611435610fd6565b5b813561144684826020860161139a565b91505092915050565b6000806040838503121561146657611465610cb4565b5b600083013567ffffffffffffffff81111561148457611483610cb9565b5b611490858286016110f0565b925050602083013567ffffffffffffffff8111156114b1576114b0610cb9565b5b6114bd85828601611421565b9150509250929050565b7f4e487b7100000000000000000000000000000000000000000000000000000000600052603260045260246000fd5b600082825260208201905092915050565b7f436f6e74726163742063616e6e6f74206265207265766f6b6564000000000000600082015250565b600061153d601a836114f6565b915061154882611507565b602082019050919050565b6000602082019050818103600083015261156c81611530565b9050919050565b7f4e487b7100000000000000000000000000000000000000000000000000000000600052602260045260246000fd5b600060028204905060018216806115ba57607f821691505b602082108114156115ce576115cd611573565b5b50919050565b7f4f776e61626c653a2063616c6c6572206973206e6f7420746865206f776e6572600082015250565b600061160a6020836114f6565b9150611615826115d4565b602082019050919050565b60006020820190508181036000830152611639816115fd565b9050919050565b7f4f776e61626c653a206e6577206f776e657220697320746865207a65726f206160008201527f6464726573730000000000000000000000000000000000000000000000000000602082015250565b600061169c6026836114f6565b91506116a782611640565b604082019050919050565b600060208201905081810360008301526116cb8161168f565b9050919050565b60006060820190506116e76000830186610dbd565b6116f46020830185610dbd565b6117016040830184610dbd565b949350505050565b7f4465616c733a204f6e6c792050726f7879206d61792063616c6c000000000000600082015250565b600061173f601a836114f6565b915061174a82611709565b602082019050919050565b6000602082019050818103600083015261176e81611732565b9050919050565b7f4e487b7100000000000000000000000000000000000000000000000000000000600052601160045260246000fd5b60006117af82610cbe565b91507fffffffffffffffffffffffffffffffffffffffffffffffffffffffffffffffff8214156117e2576117e1611775565b5b600182019050919050565b60006040820190506118026000830185610dbd565b61180f6020830184610d21565b939250505056fea26469706673582212205d80e4af839515176495b652e7362b9cf37857d55a9ddf67831432f717f489e464736f6c63430008090033",
  "immutableReferences": {},
  "source": "// SPDX-License-Identifier: GPL-3.0\npragma solidity 0.8.9;\n\n/* EXTERNAL DEPENDENCIES */\nimport \"@openzeppelin/contracts/access/Ownable.sol\";\n\n/* INTERNAL DEPENDENCIES */\nimport \"./CommonStructs.sol\";\n\n/**\n * @title Deals contract\n * @notice Contains the client data: mapping of the rules and accounts defined by the client\n */\n\ncontract Deals is Ownable {\n    /* STORAGE VARIABLES */\n\n    /// @dev Proxy contract address\n    address public proxyContractAddress;\n\n    /// @dev Incremental number that represents and gives access to a particular deal\n    uint dealId = 0;\n\n    /// @dev Number of rules for a particular deal (key = dealId)\n    mapping (uint => uint) private rulesCount;\n\n    /// @dev Number of articles for a particular rule (key = dealId, ruleId)\n    mapping (uint => mapping(uint => uint)) private articlesCount;\n\n    /// @dev Number of accounts for a particular deal (key = dealId)\n    mapping (uint => uint) private accountsCount;\n\n    /// @dev Mapping of accounts for a particular deal (key = dealId)\n    mapping (uint => address[]) private accounts;\n\n    /// @dev Mapping of Articles composing a particular deal (key = dealId, ruleId, ArticleId)\n    mapping (uint => mapping (uint => mapping (uint => CommonStructs.Article))) private deals;\n    \n    /* STRUCT */\n   \n    /* EVENTS */\n\n    /**\n     * @dev Event emitted when the Proxy contract address is changed\n     * @param _from Caller address\n     * @param _old Old address of the Proxy contract\n     * @param _new New address of the Proxy contract\n     */\n    event SetProxyContractAddress(address _from, address _old, address _new);\n\n    /** \n     * @dev Event emitted when a deal is created\n     * @param _from address that initiated the deal creation\n     * @param _dealId Id of the deal created\n     */\n    event CreateDeal(address _from, uint _dealId);\n\n    /* MODIFIERS */\n\n    /// @dev Modifier used to assess that the caller is the interpreter contract instance \n    modifier onlyProxy() {\n        require(msg.sender==proxyContractAddress, \"Deals: Only Proxy may call\");\n        _;\n    }\n\n    /* PUBLIC INTERFACE */\n\n    /**\n     * @dev Sets the Proxy contract reference. Emits a SetInterpreterInstance event\n     * @param _new Address of the Interpreter contract\n     */\n    function setProxyContractAddress(address _new) public onlyOwner {\n        address old = proxyContractAddress;\n        proxyContractAddress = _new;\n        emit SetProxyContractAddress(msg.sender, old, _new);\n    }\n\n    /** \n     * @dev Returns the number of rules of a deal\n     * @param _dealId Id of the deal\n     * @return Number of rules in the deal\n     */\n    function getRulesCount(uint _dealId) public view returns(uint) {\n        return rulesCount[_dealId];\n    }\n\n    /** \n     * @dev Returns the number of articles of a rule\n     * @param _dealId Id of the deal\n     * @param _ruleId Id of the rule\n     * @return Number of articles in the rule\n     */\n    function getArticlesCount(uint _dealId, uint _ruleId) public view returns(uint) {\n        return articlesCount[_dealId][_ruleId];\n    }\n\n    /** \n     * @dev Returns the number of accounts of a deal\n     * @param _dealId Id of the deal\n     * @return Number of accounts in the deal\n     */\n    function getAccountsCount(uint _dealId) public view returns(uint) {\n        return accountsCount[_dealId];\n    }\n    \n    /** \n     * @dev Returns the address of an account of a deal\n     * @param _dealId Id of the deal\n     * @param _accountId Id of the account\n     * @return Account address\n     */\n    function getAccount(uint _dealId, uint _accountId) public view returns(address) {\n        return accounts[_dealId][_accountId];\n    }\n\n    /** \n     * @dev Returns an article\n     * @param _dealId Id of the deal\n     * @param _ruleId Id of the rule\n     * @param _articleId Id of the article\n     * @return CommonStructs.Article\n     */\n    function getArticle(uint _dealId, uint _ruleId, uint _articleId) public view returns(CommonStructs.Article memory) {\n        return deals[_dealId][_ruleId][_articleId];\n    }\n    \n    /**\n     * @dev Creates a deal and returns its id\n     *      Only the Proxy contract can call it\n     * @param _accounts List of the external accounts addresses linked to the deal\n     * @param _rulesList List of the rules linked to the deal (rule = list of Articles)\n     * @return Deal Id\n     */\n    function createDeal\n    (\n        address[] memory _accounts, \n        CommonStructs.Article[][] memory _rulesList\n    ) \n    public\n    onlyProxy()\n    returns (uint) {\n        // Save accounts\n        accountsCount[dealId] = _accounts.length;\n        for(uint i=0;i<_accounts.length;i++)\n            accounts[dealId].push(_accounts[i]);\n\n        // Save the rule count\n        rulesCount[dealId] = _rulesList.length;\n\n        // Save the rule list\n        for (uint i=0;i<_rulesList.length;i++){\n            // Save the number of articles in the current rule\n            articlesCount[dealId][i] = _rulesList[i].length;\n            for (uint j=0;j<_rulesList[i].length;j++){\n                deals[dealId][i][j] = _rulesList[i][j];\n            }\n        }\n        \n        // Log a CreateDeal event and increment the global dealId\n        uint currentDealId = dealId;\n        dealId++;\n        emit CreateDeal(msg.sender, currentDealId);\n\n        // Return the deal Id\n        return currentDealId;\n    }\n\n    /* OVERRIDE & BLOCK UNUSED INHERITED FUNCTIONS */\n\n    /**\n     * @dev Block OpenZeppelin Ownable.renounceOwnership\n     * @notice Will always revert\n     */ \n    function renounceOwnership() public pure override {\n        revert('Contract cannot be revoked');\n    }\n}\n",
  "sourcePath": "/home/shakalee/Documents/Consensys/PROJOT-v0/contracts/Deals.sol",
  "compiler": {
    "name": "solc",
    "version": "0.8.9+commit.e5eed63a.Emscripten.clang"
  },
  "schemaVersion": "3.4.3",
  "updatedAt": "2021-12-19T18:56:19.305Z",
  "networkType": "ethereum",
  "devdoc": {
    "events": {
      "CreateDeal(address,uint256)": {
        "details": "Event emitted when a deal is created",
        "params": {
          "_dealId": "Id of the deal created",
          "_from": "address that initiated the deal creation"
        }
      },
      "SetProxyContractAddress(address,address,address)": {
        "details": "Event emitted when the Proxy contract address is changed",
        "params": {
          "_from": "Caller address",
          "_new": "New address of the Proxy contract",
          "_old": "Old address of the Proxy contract"
        }
      }
    },
    "kind": "dev",
    "methods": {
      "createDeal(address[],(string,string,uint256,address)[][])": {
        "details": "Creates a deal and returns its id      Only the Proxy contract can call it",
        "params": {
          "_accounts": "List of the external accounts addresses linked to the deal",
          "_rulesList": "List of the rules linked to the deal (rule = list of Articles)"
        },
        "returns": {
          "_0": "Deal Id"
        }
      },
      "getAccount(uint256,uint256)": {
        "details": "Returns the address of an account of a deal",
        "params": {
          "_accountId": "Id of the account",
          "_dealId": "Id of the deal"
        },
        "returns": {
          "_0": "Account address"
        }
      },
      "getAccountsCount(uint256)": {
        "details": "Returns the number of accounts of a deal",
        "params": {
          "_dealId": "Id of the deal"
        },
        "returns": {
          "_0": "Number of accounts in the deal"
        }
      },
      "getArticle(uint256,uint256,uint256)": {
        "details": "Returns an article",
        "params": {
          "_articleId": "Id of the article",
          "_dealId": "Id of the deal",
          "_ruleId": "Id of the rule"
        },
        "returns": {
          "_0": "CommonStructs.Article"
        }
      },
      "getArticlesCount(uint256,uint256)": {
        "details": "Returns the number of articles of a rule",
        "params": {
          "_dealId": "Id of the deal",
          "_ruleId": "Id of the rule"
        },
        "returns": {
          "_0": "Number of articles in the rule"
        }
      },
      "getRulesCount(uint256)": {
        "details": "Returns the number of rules of a deal",
        "params": {
          "_dealId": "Id of the deal"
        },
        "returns": {
          "_0": "Number of rules in the deal"
        }
      },
      "owner()": {
        "details": "Returns the address of the current owner."
      },
      "renounceOwnership()": {
        "details": "Block OpenZeppelin Ownable.renounceOwnership"
      },
      "setProxyContractAddress(address)": {
        "details": "Sets the Proxy contract reference. Emits a SetInterpreterInstance event",
        "params": {
          "_new": "Address of the Interpreter contract"
        }
      },
      "transferOwnership(address)": {
        "details": "Transfers ownership of the contract to a new account (`newOwner`). Can only be called by the current owner."
      }
    },
    "stateVariables": {
      "accounts": {
        "details": "Mapping of accounts for a particular deal (key = dealId)"
      },
      "accountsCount": {
        "details": "Number of accounts for a particular deal (key = dealId)"
      },
      "articlesCount": {
        "details": "Number of articles for a particular rule (key = dealId, ruleId)"
      },
      "dealId": {
        "details": "Incremental number that represents and gives access to a particular deal"
      },
      "deals": {
        "details": "Mapping of Articles composing a particular deal (key = dealId, ruleId, ArticleId)"
      },
      "proxyContractAddress": {
        "details": "Proxy contract address"
      },
      "rulesCount": {
        "details": "Number of rules for a particular deal (key = dealId)"
      }
    },
    "title": "Deals contract",
    "version": 1
  },
  "userdoc": {
    "kind": "user",
    "methods": {
      "renounceOwnership()": {
        "notice": "Will always revert"
      }
    },
    "notice": "Contains the client data: mapping of the rules and accounts defined by the client",
    "version": 1
  }
}