{
  "contractName": "Deals",
  "abi": [
    {
      "anonymous": false,
      "inputs": [
        {
          "indexed": false,
          "internalType": "address",
          "name": "_from",
          "type": "address"
        },
        {
          "indexed": false,
          "internalType": "uint256",
          "name": "_dealId",
          "type": "uint256"
        }
      ],
      "name": "CreateDeal",
      "type": "event"
    },
    {
      "anonymous": false,
      "inputs": [
        {
          "indexed": true,
          "internalType": "address",
          "name": "previousOwner",
          "type": "address"
        },
        {
          "indexed": true,
          "internalType": "address",
          "name": "newOwner",
          "type": "address"
        }
      ],
      "name": "OwnershipTransferred",
      "type": "event"
    },
    {
      "anonymous": false,
      "inputs": [
        {
          "indexed": false,
          "internalType": "address",
          "name": "account",
          "type": "address"
        }
      ],
      "name": "Paused",
      "type": "event"
    },
    {
      "anonymous": false,
      "inputs": [
        {
          "indexed": false,
          "internalType": "address",
          "name": "_from",
          "type": "address"
        },
        {
          "indexed": false,
          "internalType": "address",
          "name": "_old",
          "type": "address"
        },
        {
          "indexed": false,
          "internalType": "address",
          "name": "_new",
          "type": "address"
        }
      ],
      "name": "SetProxyContractAddress",
      "type": "event"
    },
    {
      "anonymous": false,
      "inputs": [
        {
          "indexed": false,
          "internalType": "address",
          "name": "account",
          "type": "address"
        }
      ],
      "name": "Unpaused",
      "type": "event"
    },
    {
      "inputs": [],
      "name": "owner",
      "outputs": [
        {
          "internalType": "address",
          "name": "",
          "type": "address"
        }
      ],
      "stateMutability": "view",
      "type": "function"
    },
    {
      "inputs": [],
      "name": "paused",
      "outputs": [
        {
          "internalType": "bool",
          "name": "",
          "type": "bool"
        }
      ],
      "stateMutability": "view",
      "type": "function"
    },
    {
      "inputs": [],
      "name": "proxyContractAddress",
      "outputs": [
        {
          "internalType": "address",
          "name": "",
          "type": "address"
        }
      ],
      "stateMutability": "view",
      "type": "function"
    },
    {
      "inputs": [
        {
          "internalType": "address",
          "name": "newOwner",
          "type": "address"
        }
      ],
      "name": "transferOwnership",
      "outputs": [],
      "stateMutability": "nonpayable",
      "type": "function"
    },
    {
      "inputs": [
        {
          "internalType": "address",
          "name": "_new",
          "type": "address"
        }
      ],
      "name": "setProxyContractAddress",
      "outputs": [],
      "stateMutability": "nonpayable",
      "type": "function"
    },
    {
      "inputs": [
        {
          "internalType": "uint256",
          "name": "_dealId",
          "type": "uint256"
        }
      ],
      "name": "getRulesCount",
      "outputs": [
        {
          "internalType": "uint256",
          "name": "",
          "type": "uint256"
        }
      ],
      "stateMutability": "view",
      "type": "function"
    },
    {
      "inputs": [
        {
          "internalType": "uint256",
          "name": "_dealId",
          "type": "uint256"
        },
        {
          "internalType": "uint256",
          "name": "_ruleId",
          "type": "uint256"
        }
      ],
      "name": "getArticlesCount",
      "outputs": [
        {
          "internalType": "uint256",
          "name": "",
          "type": "uint256"
        }
      ],
      "stateMutability": "view",
      "type": "function"
    },
    {
      "inputs": [
        {
          "internalType": "uint256",
          "name": "_dealId",
          "type": "uint256"
        }
      ],
      "name": "getAccountsCount",
      "outputs": [
        {
          "internalType": "uint256",
          "name": "",
          "type": "uint256"
        }
      ],
      "stateMutability": "view",
      "type": "function"
    },
    {
      "inputs": [
        {
          "internalType": "uint256",
          "name": "_dealId",
          "type": "uint256"
        },
        {
          "internalType": "uint256",
          "name": "_accountId",
          "type": "uint256"
        }
      ],
      "name": "getAccount",
      "outputs": [
        {
          "internalType": "address",
          "name": "",
          "type": "address"
        }
      ],
      "stateMutability": "view",
      "type": "function"
    },
    {
      "inputs": [
        {
          "internalType": "uint256",
          "name": "_dealId",
          "type": "uint256"
        },
        {
          "internalType": "uint256",
          "name": "_ruleId",
          "type": "uint256"
        },
        {
          "internalType": "uint256",
          "name": "_articleId",
          "type": "uint256"
        }
      ],
      "name": "getArticle",
      "outputs": [
        {
          "components": [
            {
              "internalType": "string",
              "name": "instructionName",
              "type": "string"
            },
            {
              "internalType": "string",
              "name": "paramStr",
              "type": "string"
            },
            {
              "internalType": "uint256",
              "name": "paramUInt",
              "type": "uint256"
            },
            {
              "internalType": "address",
              "name": "paramAddress",
              "type": "address"
            }
          ],
          "internalType": "struct CommonStructs.Article",
          "name": "",
          "type": "tuple"
        }
      ],
      "stateMutability": "view",
      "type": "function"
    },
    {
      "inputs": [
        {
          "internalType": "address[]",
          "name": "_accounts",
          "type": "address[]"
        },
        {
          "components": [
            {
              "internalType": "string",
              "name": "instructionName",
              "type": "string"
            },
            {
              "internalType": "string",
              "name": "paramStr",
              "type": "string"
            },
            {
              "internalType": "uint256",
              "name": "paramUInt",
              "type": "uint256"
            },
            {
              "internalType": "address",
              "name": "paramAddress",
              "type": "address"
            }
          ],
          "internalType": "struct CommonStructs.Article[][]",
          "name": "_rulesList",
          "type": "tuple[][]"
        }
      ],
      "name": "createDeal",
      "outputs": [
        {
          "internalType": "uint256",
          "name": "",
          "type": "uint256"
        }
      ],
      "stateMutability": "nonpayable",
      "type": "function"
    },
    {
      "inputs": [],
      "name": "pause",
      "outputs": [],
      "stateMutability": "nonpayable",
      "type": "function"
    },
    {
      "inputs": [],
      "name": "unpause",
      "outputs": [],
      "stateMutability": "nonpayable",
      "type": "function"
    },
    {
      "inputs": [],
      "name": "renounceOwnership",
      "outputs": [],
      "stateMutability": "pure",
      "type": "function"
    }
  ],
  "bytecode": "0x6080604052600060025534801561001557600080fd5b5061003261002761005160201b60201c565b61005960201b60201c565b60008060146101000a81548160ff02191690831515021790555061011d565b600033905090565b60008060009054906101000a900473ffffffffffffffffffffffffffffffffffffffff169050816000806101000a81548173ffffffffffffffffffffffffffffffffffffffff021916908373ffffffffffffffffffffffffffffffffffffffff1602179055508173ffffffffffffffffffffffffffffffffffffffff168173ffffffffffffffffffffffffffffffffffffffff167f8be0079c531659141344cd1fd0a4f28419497f9722a3daafe3b4186f6b6457e060405160405180910390a35050565b611d0a8061012c6000396000f3fe608060405234801561001057600080fd5b50600436106100ea5760003560e01c80639dff994e1161008c578063f2fde38b11610066578063f2fde38b14610227578063f43fba8c14610243578063fc51821c1461025f578063fccc610f1461028f576100ea565b80639dff994e146101a9578063bf251077146101c7578063d3151425146101f7576100ea565b80636361f6de116100c85780636361f6de14610147578063715018a6146101775780638456cb59146101815780638da5cb5b1461018b576100ea565b80633f4ba83a146100ef5780634b0262ac146100f95780635c975abb14610129575b600080fd5b6100f76102bf565b005b610113600480360381019061010e91906110a4565b61038c565b60405161012091906110e0565b60405180910390f35b6101316103a9565b60405161013e9190611116565b60405180910390f35b610161600480360381019061015c9190611131565b6103bf565b60405161016e91906111b2565b60405180910390f35b61017f610419565b005b610189610454565b005b610193610522565b6040516101a091906111b2565b60405180910390f35b6101b161054b565b6040516101be91906111b2565b60405180910390f35b6101e160048036038101906101dc91906111cd565b610571565b6040516101ee9190611341565b60405180910390f35b610211600480360381019061020c91906110a4565b610746565b60405161021e91906110e0565b60405180910390f35b610241600480360381019061023c919061138f565b610763565b005b61025d6004803603810190610258919061138f565b61085b565b005b61027960048036038101906102749190611835565b61097e565b60405161028691906110e0565b60405180910390f35b6102a960048036038101906102a49190611131565b610d3a565b6040516102b691906110e0565b60405180910390f35b6102c7610d69565b73ffffffffffffffffffffffffffffffffffffffff166102e5610522565b73ffffffffffffffffffffffffffffffffffffffff161461033b576040517f08c379a00000000000000000000000000000000000000000000000000000000081526004016103329061190a565b60405180910390fd5b6103436103a9565b610382576040517f08c379a000000000000000000000000000000000000000000000000000000000815260040161037990611976565b60405180910390fd5b61038a610d71565b565b600060036000838152602001908152602001600020549050919050565b60008060149054906101000a900460ff16905090565b60006006600084815260200190815260200160002082815481106103e6576103e5611996565b5b9060005260206000200160009054906101000a900473ffffffffffffffffffffffffffffffffffffffff16905092915050565b6040517f08c379a000000000000000000000000000000000000000000000000000000000815260040161044b90611a11565b60405180910390fd5b61045c610d69565b73ffffffffffffffffffffffffffffffffffffffff1661047a610522565b73ffffffffffffffffffffffffffffffffffffffff16146104d0576040517f08c379a00000000000000000000000000000000000000000000000000000000081526004016104c79061190a565b60405180910390fd5b6104d86103a9565b15610518576040517f08c379a000000000000000000000000000000000000000000000000000000000815260040161050f90611a7d565b60405180910390fd5b610520610e12565b565b60008060009054906101000a900473ffffffffffffffffffffffffffffffffffffffff16905090565b600160009054906101000a900473ffffffffffffffffffffffffffffffffffffffff1681565b610579610f79565b60076000858152602001908152602001600020600084815260200190815260200160002060008381526020019081526020016000206040518060800160405290816000820180546105c990611acc565b80601f01602080910402602001604051908101604052809291908181526020018280546105f590611acc565b80156106425780601f1061061757610100808354040283529160200191610642565b820191906000526020600020905b81548152906001019060200180831161062557829003601f168201915b5050505050815260200160018201805461065b90611acc565b80601f016020809104026020016040519081016040528092919081815260200182805461068790611acc565b80156106d45780601f106106a9576101008083540402835291602001916106d4565b820191906000526020600020905b8154815290600101906020018083116106b757829003601f168201915b50505050508152602001600282015481526020016003820160009054906101000a900473ffffffffffffffffffffffffffffffffffffffff1673ffffffffffffffffffffffffffffffffffffffff1673ffffffffffffffffffffffffffffffffffffffff168152505090509392505050565b600060056000838152602001908152602001600020549050919050565b61076b610d69565b73ffffffffffffffffffffffffffffffffffffffff16610789610522565b73ffffffffffffffffffffffffffffffffffffffff16146107df576040517f08c379a00000000000000000000000000000000000000000000000000000000081526004016107d69061190a565b60405180910390fd5b600073ffffffffffffffffffffffffffffffffffffffff168173ffffffffffffffffffffffffffffffffffffffff16141561084f576040517f08c379a000000000000000000000000000000000000000000000000000000000815260040161084690611b70565b60405180910390fd5b61085881610eb5565b50565b610863610d69565b73ffffffffffffffffffffffffffffffffffffffff16610881610522565b73ffffffffffffffffffffffffffffffffffffffff16146108d7576040517f08c379a00000000000000000000000000000000000000000000000000000000081526004016108ce9061190a565b60405180910390fd5b6000600160009054906101000a900473ffffffffffffffffffffffffffffffffffffffff16905081600160006101000a81548173ffffffffffffffffffffffffffffffffffffffff021916908373ffffffffffffffffffffffffffffffffffffffff1602179055507f3f1217b02323e5dc4e83e1bf861d3a5c04873f7e972587684ce1dfcbbb329fa133828460405161097293929190611b90565b60405180910390a15050565b60006109886103a9565b156109c8576040517f08c379a00000000000000000000000000000000000000000000000000000000081526004016109bf90611a7d565b60405180910390fd5b600160009054906101000a900473ffffffffffffffffffffffffffffffffffffffff1673ffffffffffffffffffffffffffffffffffffffff163373ffffffffffffffffffffffffffffffffffffffff1614610a58576040517f08c379a0000000000000000000000000000000000000000000000000000000008152600401610a4f90611c13565b60405180910390fd5b82516005600060025481526020019081526020016000208190555060005b8351811015610b2257600660006002548152602001908152602001600020848281518110610aa757610aa6611996565b5b60200260200101519080600181540180825580915050600190039060005260206000200160009091909190916101000a81548173ffffffffffffffffffffffffffffffffffffffff021916908373ffffffffffffffffffffffffffffffffffffffff1602179055508080610b1a90611c62565b915050610a76565b5081516003600060025481526020019081526020016000208190555060005b8251811015610cd757828181518110610b5d57610b5c611996565b5b60200260200101515160046000600254815260200190815260200160002060008381526020019081526020016000208190555060005b838281518110610ba657610ba5611996565b5b602002602001015151811015610cc357838281518110610bc957610bc8611996565b5b60200260200101518181518110610be357610be2611996565b5b6020026020010151600760006002548152602001908152602001600020600084815260200190815260200160002060008381526020019081526020016000206000820151816000019080519060200190610c3e929190610fb7565b506020820151816001019080519060200190610c5b929190610fb7565b506040820151816002015560608201518160030160006101000a81548173ffffffffffffffffffffffffffffffffffffffff021916908373ffffffffffffffffffffffffffffffffffffffff1602179055509050508080610cbb90611c62565b915050610b93565b508080610ccf90611c62565b915050610b41565b506000600254905060026000815480929190610cf290611c62565b91905055507fd96bfefed58aa313e5af8a78aaac764b3f12d13339be60e009cc7cb05dd701a63382604051610d28929190611cab565b60405180910390a18091505092915050565b600060046000848152602001908152602001600020600083815260200190815260200160002054905092915050565b600033905090565b610d796103a9565b610db8576040517f08c379a0000000000000000000000000000000000000000000000000000000008152600401610daf90611976565b60405180910390fd5b60008060146101000a81548160ff0219169083151502179055507f5db9ee0a495bf2e6ff9c91a7834c1ba4fdd244a5e8aa4e537bd38aeae4b073aa610dfb610d69565b604051610e0891906111b2565b60405180910390a1565b610e1a6103a9565b15610e5a576040517f08c379a0000000000000000000000000000000000000000000000000000000008152600401610e5190611a7d565b60405180910390fd5b6001600060146101000a81548160ff0219169083151502179055507f62e78cea01bee320cd4e420270b5ea74000d11b0c9f74754ebdbfc544b05a258610e9e610d69565b604051610eab91906111b2565b60405180910390a1565b60008060009054906101000a900473ffffffffffffffffffffffffffffffffffffffff169050816000806101000a81548173ffffffffffffffffffffffffffffffffffffffff021916908373ffffffffffffffffffffffffffffffffffffffff1602179055508173ffffffffffffffffffffffffffffffffffffffff168173ffffffffffffffffffffffffffffffffffffffff167f8be0079c531659141344cd1fd0a4f28419497f9722a3daafe3b4186f6b6457e060405160405180910390a35050565b6040518060800160405280606081526020016060815260200160008152602001600073ffffffffffffffffffffffffffffffffffffffff1681525090565b828054610fc390611acc565b90600052602060002090601f016020900481019282610fe5576000855561102c565b82601f10610ffe57805160ff191683800117855561102c565b8280016001018555821561102c579182015b8281111561102b578251825591602001919060010190611010565b5b509050611039919061103d565b5090565b5b8082111561105657600081600090555060010161103e565b5090565b6000604051905090565b600080fd5b600080fd5b6000819050919050565b6110818161106e565b811461108c57600080fd5b50565b60008135905061109e81611078565b92915050565b6000602082840312156110ba576110b9611064565b5b60006110c88482850161108f565b91505092915050565b6110da8161106e565b82525050565b60006020820190506110f560008301846110d1565b92915050565b60008115159050919050565b611110816110fb565b82525050565b600060208201905061112b6000830184611107565b92915050565b6000806040838503121561114857611147611064565b5b60006111568582860161108f565b92505060206111678582860161108f565b9150509250929050565b600073ffffffffffffffffffffffffffffffffffffffff82169050919050565b600061119c82611171565b9050919050565b6111ac81611191565b82525050565b60006020820190506111c760008301846111a3565b92915050565b6000806000606084860312156111e6576111e5611064565b5b60006111f48682870161108f565b93505060206112058682870161108f565b92505060406112168682870161108f565b9150509250925092565b600081519050919050565b600082825260208201905092915050565b60005b8381101561125a57808201518184015260208101905061123f565b83811115611269576000848401525b50505050565b6000601f19601f8301169050919050565b600061128b82611220565b611295818561122b565b93506112a581856020860161123c565b6112ae8161126f565b840191505092915050565b6112c28161106e565b82525050565b6112d181611191565b82525050565b600060808301600083015184820360008601526112f48282611280565b9150506020830151848203602086015261130e8282611280565b915050604083015161132360408601826112b9565b50606083015161133660608601826112c8565b508091505092915050565b6000602082019050818103600083015261135b81846112d7565b905092915050565b61136c81611191565b811461137757600080fd5b50565b60008135905061138981611363565b92915050565b6000602082840312156113a5576113a4611064565b5b60006113b38482850161137a565b91505092915050565b600080fd5b7f4e487b7100000000000000000000000000000000000000000000000000000000600052604160045260246000fd5b6113f98261126f565b810181811067ffffffffffffffff82111715611418576114176113c1565b5b80604052505050565b600061142b61105a565b905061143782826113f0565b919050565b600067ffffffffffffffff821115611457576114566113c1565b5b602082029050602081019050919050565b600080fd5b600061148061147b8461143c565b611421565b905080838252602082019050602084028301858111156114a3576114a2611468565b5b835b818110156114cc57806114b8888261137a565b8452602084019350506020810190506114a5565b5050509392505050565b600082601f8301126114eb576114ea6113bc565b5b81356114fb84826020860161146d565b91505092915050565b600067ffffffffffffffff82111561151f5761151e6113c1565b5b602082029050602081019050919050565b600067ffffffffffffffff82111561154b5761154a6113c1565b5b602082029050602081019050919050565b600080fd5b600080fd5b600080fd5b600067ffffffffffffffff821115611586576115856113c1565b5b61158f8261126f565b9050602081019050919050565b82818337600083830152505050565b60006115be6115b98461156b565b611421565b9050828152602081018484840111156115da576115d9611566565b5b6115e584828561159c565b509392505050565b600082601f830112611602576116016113bc565b5b81356116128482602086016115ab565b91505092915050565b6000608082840312156116315761163061155c565b5b61163b6080611421565b9050600082013567ffffffffffffffff81111561165b5761165a611561565b5b611667848285016115ed565b600083015250602082013567ffffffffffffffff81111561168b5761168a611561565b5b611697848285016115ed565b60208301525060406116ab8482850161108f565b60408301525060606116bf8482850161137a565b60608301525092915050565b60006116de6116d984611530565b611421565b9050808382526020820190506020840283018581111561170157611700611468565b5b835b8181101561174857803567ffffffffffffffff811115611726576117256113bc565b5b808601611733898261161b565b85526020850194505050602081019050611703565b5050509392505050565b600082601f830112611767576117666113bc565b5b81356117778482602086016116cb565b91505092915050565b600061179361178e84611504565b611421565b905080838252602082019050602084028301858111156117b6576117b5611468565b5b835b818110156117fd57803567ffffffffffffffff8111156117db576117da6113bc565b5b8086016117e88982611752565b855260208501945050506020810190506117b8565b5050509392505050565b600082601f83011261181c5761181b6113bc565b5b813561182c848260208601611780565b91505092915050565b6000806040838503121561184c5761184b611064565b5b600083013567ffffffffffffffff81111561186a57611869611069565b5b611876858286016114d6565b925050602083013567ffffffffffffffff81111561189757611896611069565b5b6118a385828601611807565b9150509250929050565b600082825260208201905092915050565b7f4f776e61626c653a2063616c6c6572206973206e6f7420746865206f776e6572600082015250565b60006118f46020836118ad565b91506118ff826118be565b602082019050919050565b60006020820190508181036000830152611923816118e7565b9050919050565b7f5061757361626c653a206e6f7420706175736564000000000000000000000000600082015250565b60006119606014836118ad565b915061196b8261192a565b602082019050919050565b6000602082019050818103600083015261198f81611953565b9050919050565b7f4e487b7100000000000000000000000000000000000000000000000000000000600052603260045260246000fd5b7f436f6e74726163742063616e6e6f74206265207265766f6b6564000000000000600082015250565b60006119fb601a836118ad565b9150611a06826119c5565b602082019050919050565b60006020820190508181036000830152611a2a816119ee565b9050919050565b7f5061757361626c653a2070617573656400000000000000000000000000000000600082015250565b6000611a676010836118ad565b9150611a7282611a31565b602082019050919050565b60006020820190508181036000830152611a9681611a5a565b9050919050565b7f4e487b7100000000000000000000000000000000000000000000000000000000600052602260045260246000fd5b60006002820490506001821680611ae457607f821691505b60208210811415611af857611af7611a9d565b5b50919050565b7f4f776e61626c653a206e6577206f776e657220697320746865207a65726f206160008201527f6464726573730000000000000000000000000000000000000000000000000000602082015250565b6000611b5a6026836118ad565b9150611b6582611afe565b604082019050919050565b60006020820190508181036000830152611b8981611b4d565b9050919050565b6000606082019050611ba560008301866111a3565b611bb260208301856111a3565b611bbf60408301846111a3565b949350505050565b7f4465616c733a204f6e6c792050726f7879206d61792063616c6c000000000000600082015250565b6000611bfd601a836118ad565b9150611c0882611bc7565b602082019050919050565b60006020820190508181036000830152611c2c81611bf0565b9050919050565b7f4e487b7100000000000000000000000000000000000000000000000000000000600052601160045260246000fd5b6000611c6d8261106e565b91507fffffffffffffffffffffffffffffffffffffffffffffffffffffffffffffffff821415611ca057611c9f611c33565b5b600182019050919050565b6000604082019050611cc060008301856111a3565b611ccd60208301846110d1565b939250505056fea264697066735822122023a518a510d8510dbab6c557e2b9c8797b7c8f368339aa220b0a11ed6305c16064736f6c63430008090033",
  "immutableReferences": {},
  "source": "// SPDX-License-Identifier: GPL-3.0\npragma solidity 0.8.9;\n\n/* EXTERNAL DEPENDENCIES */\nimport \"@openzeppelin/contracts/access/Ownable.sol\";\nimport \"@openzeppelin/contracts/security/Pausable.sol\";\n\n\n/* INTERNAL DEPENDENCIES */\nimport \"./CommonStructs.sol\";\n\n/**\n * @title Deals contract\n * @notice Contains the client data: mapping of the rules and accounts defined by the client\n */\n\ncontract Deals is Ownable, Pausable {\n    /* STORAGE VARIABLES */\n\n    /// @dev Proxy contract address\n    address public proxyContractAddress;\n\n    /// @dev Incremental number that represents and gives access to a particular deal\n    uint dealId = 0;\n\n    /// @dev Number of rules for a particular deal (key = dealId)\n    mapping (uint => uint) private rulesCount;\n\n    /// @dev Number of articles for a particular rule (key = dealId, ruleId)\n    mapping (uint => mapping(uint => uint)) private articlesCount;\n\n    /// @dev Number of accounts for a particular deal (key = dealId)\n    mapping (uint => uint) private accountsCount;\n\n    /// @dev Mapping of accounts for a particular deal (key = dealId)\n    mapping (uint => address[]) private accounts;\n\n    /// @dev Mapping of Articles composing a particular deal (key = dealId, ruleId, ArticleId)\n    mapping (uint => mapping (uint => mapping (uint => CommonStructs.Article))) private deals;\n    \n    /* STRUCT */\n   \n    /* EVENTS */\n\n    /**\n    * @dev Event emitted when the Proxy contract address is changed\n    * @param _from Caller address\n    * @param _old Old address of the Proxy contract\n    * @param _new New address of the Proxy contract\n    */\n    event SetProxyContractAddress(address _from, address _old, address _new);\n\n    /** \n    * @dev Event emitted when a deal is created\n    * @param _from address that initiated the deal creation\n    * @param _dealId Id of the deal created\n    */\n    event CreateDeal(address _from, uint _dealId);\n\n    /* MODIFIERS */\n\n    /// @dev Modifier used to assess that the caller is the interpreter contract instance \n    modifier onlyProxy() {\n        require(msg.sender==proxyContractAddress, \"Deals: Only Proxy may call\");\n        _;\n    }\n\n    /* PUBLIC INTERFACE */\n\n    /**\n    * @dev Sets the Proxy contract reference. Emits a SetInterpreterInstance event\n    * @param _new Address of the Interpreter contract\n    */\n    function setProxyContractAddress(address _new) public onlyOwner {\n        address old = proxyContractAddress;\n        proxyContractAddress = _new;\n        emit SetProxyContractAddress(msg.sender, old, _new);\n    }\n\n    /** \n    * @dev Returns the number of rules of a deal\n    * @param _dealId Id of the deal\n    * @return Number of rules in the deal\n    */\n    function getRulesCount(uint _dealId) public view returns(uint) {\n        return rulesCount[_dealId];\n    }\n\n    /** \n    * @dev Returns the number of articles of a rule\n    * @param _dealId Id of the deal\n    * @param _ruleId Id of the rule\n    * @return Number of articles in the rule\n    */\n    function getArticlesCount(uint _dealId, uint _ruleId) public view returns(uint) {\n        return articlesCount[_dealId][_ruleId];\n    }\n\n    /** \n    * @dev Returns the number of accounts of a deal\n    * @param _dealId Id of the deal\n    * @return Number of accounts in the deal\n    */\n    function getAccountsCount(uint _dealId) public view returns(uint) {\n        return accountsCount[_dealId];\n    }\n    \n    /** \n    * @dev Returns the address of an account of a deal\n    * @param _dealId Id of the deal\n    * @param _accountId Id of the account\n    * @return Account address\n    */\n    function getAccount(uint _dealId, uint _accountId) public view returns(address) {\n        return accounts[_dealId][_accountId];\n    }\n\n    /** \n    * @dev Returns an article\n    * @param _dealId Id of the deal\n    * @param _ruleId Id of the rule\n    * @param _articleId Id of the article\n    * @return CommonStructs.Article\n    */\n    function getArticle(uint _dealId, uint _ruleId, uint _articleId) public view returns(CommonStructs.Article memory) {\n        return deals[_dealId][_ruleId][_articleId];\n    }\n    \n    /**\n    * @dev Creates a deal and returns its id\n    *      Only the Proxy contract can call it\n    * @param _accounts List of the external accounts addresses linked to the deal\n    * @param _rulesList List of the rules linked to the deal (rule = list of Articles)\n    * @return Deal Id\n    */\n    function createDeal\n    (\n        address[] memory _accounts, \n        CommonStructs.Article[][] memory _rulesList\n    ) \n    public \n    whenNotPaused()\n    onlyProxy()\n    returns (uint) {\n        // Save accounts\n        accountsCount[dealId] = _accounts.length;\n        for(uint i=0;i<_accounts.length;i++)\n            accounts[dealId].push(_accounts[i]);\n\n        // Save the rule count\n        rulesCount[dealId] = _rulesList.length;\n\n        // Save the rule list\n        for (uint i=0;i<_rulesList.length;i++){\n            // Save the number of articles in the current rule\n            articlesCount[dealId][i] = _rulesList[i].length;\n            for (uint j=0;j<_rulesList[i].length;j++){\n                deals[dealId][i][j] = _rulesList[i][j];\n            }\n        }\n        \n        // Log a CreateDeal event and increment the global dealId\n        uint currentDealId = dealId;\n        dealId++;\n        emit CreateDeal(msg.sender, currentDealId);\n\n        // Return the deal Id\n        return currentDealId;\n    }\n\n    /**\n    * @dev Access control inherited from OpenZeppelin Ownable contract\n    *      Pausing the contract makes the createDeal function not callable\n    *      Getters are still callable\n    *      onlyOwner can call\n    */\n    function pause() public onlyOwner() whenNotPaused() {\n        _pause();\n    }\n\n    /**\n    * @dev Access control inherited from OpenZeppelin Ownable contract\n    *      Unpausing the contract makes the createDeal function callable\n    *      onlyOwner can call\n    */\n    function unpause() public onlyOwner() whenPaused() {\n        _unpause();\n    }\n\n    /* OVERRIDE & BLOCK UNUSED INHERITED FUNCTIONS */\n\n    /**\n    * @dev Block OpenZeppelin Ownable.renounceOwnership\n    * @notice Will always revert\n    */ \n    function renounceOwnership() public pure override {\n        revert('Contract cannot be revoked');\n    }\n}\n",
  "sourcePath": "/home/shakalee/Documents/Consensys/PROJOT-v0/contracts/Deals.sol",
  "compiler": {
    "name": "solc",
    "version": "0.8.9+commit.e5eed63a.Emscripten.clang"
  },
  "schemaVersion": "3.4.3",
  "updatedAt": "2021-11-25T05:21:50.788Z",
  "devdoc": {
    "events": {
      "CreateDeal(address,uint256)": {
        "details": "Event emitted when a deal is created",
        "params": {
          "_dealId": "Id of the deal created",
          "_from": "address that initiated the deal creation"
        }
      },
      "SetProxyContractAddress(address,address,address)": {
        "details": "Event emitted when the Proxy contract address is changed",
        "params": {
          "_from": "Caller address",
          "_new": "New address of the Proxy contract",
          "_old": "Old address of the Proxy contract"
        }
      }
    },
    "kind": "dev",
    "methods": {
      "createDeal(address[],(string,string,uint256,address)[][])": {
        "details": "Creates a deal and returns its id      Only the Proxy contract can call it",
        "params": {
          "_accounts": "List of the external accounts addresses linked to the deal",
          "_rulesList": "List of the rules linked to the deal (rule = list of Articles)"
        },
        "returns": {
          "_0": "Deal Id"
        }
      },
      "getAccount(uint256,uint256)": {
        "details": "Returns the address of an account of a deal",
        "params": {
          "_accountId": "Id of the account",
          "_dealId": "Id of the deal"
        },
        "returns": {
          "_0": "Account address"
        }
      },
      "getAccountsCount(uint256)": {
        "details": "Returns the number of accounts of a deal",
        "params": {
          "_dealId": "Id of the deal"
        },
        "returns": {
          "_0": "Number of accounts in the deal"
        }
      },
      "getArticle(uint256,uint256,uint256)": {
        "details": "Returns an article",
        "params": {
          "_articleId": "Id of the article",
          "_dealId": "Id of the deal",
          "_ruleId": "Id of the rule"
        },
        "returns": {
          "_0": "CommonStructs.Article"
        }
      },
      "getArticlesCount(uint256,uint256)": {
        "details": "Returns the number of articles of a rule",
        "params": {
          "_dealId": "Id of the deal",
          "_ruleId": "Id of the rule"
        },
        "returns": {
          "_0": "Number of articles in the rule"
        }
      },
      "getRulesCount(uint256)": {
        "details": "Returns the number of rules of a deal",
        "params": {
          "_dealId": "Id of the deal"
        },
        "returns": {
          "_0": "Number of rules in the deal"
        }
      },
      "owner()": {
        "details": "Returns the address of the current owner."
      },
      "pause()": {
        "details": "Access control inherited from OpenZeppelin Ownable contract      Pausing the contract makes the createDeal function not callable      Getters are still callable      onlyOwner can call"
      },
      "paused()": {
        "details": "Returns true if the contract is paused, and false otherwise."
      },
      "renounceOwnership()": {
        "details": "Block OpenZeppelin Ownable.renounceOwnership"
      },
      "setProxyContractAddress(address)": {
        "details": "Sets the Proxy contract reference. Emits a SetInterpreterInstance event",
        "params": {
          "_new": "Address of the Interpreter contract"
        }
      },
      "transferOwnership(address)": {
        "details": "Transfers ownership of the contract to a new account (`newOwner`). Can only be called by the current owner."
      },
      "unpause()": {
        "details": "Access control inherited from OpenZeppelin Ownable contract      Unpausing the contract makes the createDeal function callable      onlyOwner can call"
      }
    },
    "stateVariables": {
      "accounts": {
        "details": "Mapping of accounts for a particular deal (key = dealId)"
      },
      "accountsCount": {
        "details": "Number of accounts for a particular deal (key = dealId)"
      },
      "articlesCount": {
        "details": "Number of articles for a particular rule (key = dealId, ruleId)"
      },
      "dealId": {
        "details": "Incremental number that represents and gives access to a particular deal"
      },
      "deals": {
        "details": "Mapping of Articles composing a particular deal (key = dealId, ruleId, ArticleId)"
      },
      "proxyContractAddress": {
        "details": "Proxy contract address"
      },
      "rulesCount": {
        "details": "Number of rules for a particular deal (key = dealId)"
      }
    },
    "title": "Deals contract",
    "version": 1
  },
  "userdoc": {
    "kind": "user",
    "methods": {
      "renounceOwnership()": {
        "notice": "Will always revert"
      }
    },
    "notice": "Contains the client data: mapping of the rules and accounts defined by the client",
    "version": 1
  }
}