{
  "contractName": "InstructionsProvider",
  "abi": [
    {
      "inputs": [
        {
          "internalType": "address",
          "name": "_address",
          "type": "address"
        }
      ],
      "stateMutability": "nonpayable",
      "type": "constructor"
    },
    {
      "anonymous": false,
      "inputs": [
        {
          "indexed": true,
          "internalType": "address",
          "name": "previousOwner",
          "type": "address"
        },
        {
          "indexed": true,
          "internalType": "address",
          "name": "newOwner",
          "type": "address"
        }
      ],
      "name": "OwnershipTransferred",
      "type": "event"
    },
    {
      "anonymous": false,
      "inputs": [
        {
          "indexed": false,
          "internalType": "address",
          "name": "_from",
          "type": "address"
        },
        {
          "indexed": false,
          "internalType": "address",
          "name": "_old",
          "type": "address"
        },
        {
          "indexed": false,
          "internalType": "address",
          "name": "_new",
          "type": "address"
        }
      ],
      "name": "SetInterpreterInstance",
      "type": "event"
    },
    {
      "anonymous": false,
      "inputs": [
        {
          "indexed": false,
          "internalType": "address",
          "name": "_from",
          "type": "address"
        },
        {
          "indexed": false,
          "internalType": "address",
          "name": "_to",
          "type": "address"
        },
        {
          "indexed": false,
          "internalType": "uint256",
          "name": "_success",
          "type": "uint256"
        }
      ],
      "name": "_CALLBACK",
      "type": "event"
    },
    {
      "inputs": [],
      "name": "owner",
      "outputs": [
        {
          "internalType": "address",
          "name": "",
          "type": "address"
        }
      ],
      "stateMutability": "view",
      "type": "function"
    },
    {
      "inputs": [],
      "name": "renounceOwnership",
      "outputs": [],
      "stateMutability": "nonpayable",
      "type": "function"
    },
    {
      "inputs": [
        {
          "internalType": "address",
          "name": "newOwner",
          "type": "address"
        }
      ],
      "name": "transferOwnership",
      "outputs": [],
      "stateMutability": "nonpayable",
      "type": "function"
    },
    {
      "inputs": [
        {
          "internalType": "address",
          "name": "_new",
          "type": "address"
        }
      ],
      "name": "setInterpreterInstance",
      "outputs": [],
      "stateMutability": "nonpayable",
      "type": "function"
    },
    {
      "inputs": [
        {
          "internalType": "bool",
          "name": "_value",
          "type": "bool"
        }
      ],
      "name": "_test",
      "outputs": [
        {
          "internalType": "bool",
          "name": "",
          "type": "bool"
        }
      ],
      "stateMutability": "payable",
      "type": "function"
    },
    {
      "inputs": [
        {
          "internalType": "address",
          "name": "_address1",
          "type": "address"
        },
        {
          "internalType": "address",
          "name": "_address2",
          "type": "address"
        }
      ],
      "name": "_ifAddress",
      "outputs": [
        {
          "internalType": "bool",
          "name": "",
          "type": "bool"
        }
      ],
      "stateMutability": "nonpayable",
      "type": "function"
    },
    {
      "inputs": [
        {
          "internalType": "address",
          "name": "_to",
          "type": "address"
        }
      ],
      "name": "_transferExternal",
      "outputs": [],
      "stateMutability": "payable",
      "type": "function"
    },
    {
      "inputs": [
        {
          "internalType": "address",
          "name": "_to",
          "type": "address"
        }
      ],
      "name": "depositsOf",
      "outputs": [
        {
          "internalType": "uint256",
          "name": "",
          "type": "uint256"
        }
      ],
      "stateMutability": "view",
      "type": "function"
    },
    {
      "inputs": [],
      "name": "withdraw",
      "outputs": [],
      "stateMutability": "nonpayable",
      "type": "function"
    }
  ],
  "bytecode": "0x60806040523480156200001157600080fd5b5060405162001eba38038062001eba83398181016040528101906200003791906200024f565b620000576200004b6200010b60201b60201c565b6200011360201b60201c565b6040516200006590620001d7565b604051809103906000f08015801562000082573d6000803e3d6000fd5b50600260006101000a81548173ffffffffffffffffffffffffffffffffffffffff021916908373ffffffffffffffffffffffffffffffffffffffff16021790555080600160006101000a81548173ffffffffffffffffffffffffffffffffffffffff021916908373ffffffffffffffffffffffffffffffffffffffff1602179055505062000281565b600033905090565b60008060009054906101000a900473ffffffffffffffffffffffffffffffffffffffff169050816000806101000a81548173ffffffffffffffffffffffffffffffffffffffff021916908373ffffffffffffffffffffffffffffffffffffffff1602179055508173ffffffffffffffffffffffffffffffffffffffff168173ffffffffffffffffffffffffffffffffffffffff167f8be0079c531659141344cd1fd0a4f28419497f9722a3daafe3b4186f6b6457e060405160405180910390a35050565b610d1680620011a483390190565b600080fd5b600073ffffffffffffffffffffffffffffffffffffffff82169050919050565b60006200021782620001ea565b9050919050565b62000229816200020a565b81146200023557600080fd5b50565b60008151905062000249816200021e565b92915050565b600060208284031215620002685762000267620001e5565b5b6000620002788482850162000238565b91505092915050565b610f1380620002916000396000f3fe6080604052600436106100865760003560e01c80638da5cb5b116100595780638da5cb5b14610126578063c7ed924e14610151578063cdf6712c1461016d578063e3a9db1a14610196578063f2fde38b146101d357610086565b80633ccfd60b1461008b5780634c0133d2146100a2578063715018a6146100d257806383b5b38b146100e9575b600080fd5b34801561009757600080fd5b506100a06101fc565b005b6100bc60048036038101906100b79190610a2e565b6102d6565b6040516100c99190610a6a565b60405180910390f35b3480156100de57600080fd5b506100e7610370565b005b3480156100f557600080fd5b50610110600480360381019061010b9190610ae3565b6103f8565b60405161011d9190610a6a565b60405180910390f35b34801561013257600080fd5b5061013b6104fe565b6040516101489190610b32565b60405180910390f35b61016b60048036038101906101669190610b4d565b610527565b005b34801561017957600080fd5b50610194600480360381019061018f9190610b4d565b6105c4565b005b3480156101a257600080fd5b506101bd60048036038101906101b89190610b4d565b6106e7565b6040516101ca9190610b93565b60405180910390f35b3480156101df57600080fd5b506101fa60048036038101906101f59190610b4d565b61079b565b005b6000610207336106e7565b11610247576040517f08c379a000000000000000000000000000000000000000000000000000000000815260040161023e90610c0b565b60405180910390fd5b600260009054906101000a900473ffffffffffffffffffffffffffffffffffffffff1673ffffffffffffffffffffffffffffffffffffffff166351cff8d9336040518263ffffffff1660e01b81526004016102a29190610c4c565b600060405180830381600087803b1580156102bc57600080fd5b505af11580156102d0573d6000803e3d6000fd5b50505050565b6000600160009054906101000a900473ffffffffffffffffffffffffffffffffffffffff1673ffffffffffffffffffffffffffffffffffffffff163373ffffffffffffffffffffffffffffffffffffffff1614610368576040517f08c379a000000000000000000000000000000000000000000000000000000000815260040161035f90610cb3565b60405180910390fd5b819050919050565b610378610893565b73ffffffffffffffffffffffffffffffffffffffff166103966104fe565b73ffffffffffffffffffffffffffffffffffffffff16146103ec576040517f08c379a00000000000000000000000000000000000000000000000000000000081526004016103e390610d1f565b60405180910390fd5b6103f6600061089b565b565b6000600160009054906101000a900473ffffffffffffffffffffffffffffffffffffffff1673ffffffffffffffffffffffffffffffffffffffff163373ffffffffffffffffffffffffffffffffffffffff161461048a576040517f08c379a000000000000000000000000000000000000000000000000000000000815260040161048190610cb3565b60405180910390fd5b7f567ef35cd324c0e5d9f1ef6624ccb48ad97a4f072ef249eb34cf9b99c47bc44583836103096040516104bf93929190610d84565b60405180910390a18173ffffffffffffffffffffffffffffffffffffffff168373ffffffffffffffffffffffffffffffffffffffff1614905092915050565b60008060009054906101000a900473ffffffffffffffffffffffffffffffffffffffff16905090565b600160009054906101000a900473ffffffffffffffffffffffffffffffffffffffff1673ffffffffffffffffffffffffffffffffffffffff163373ffffffffffffffffffffffffffffffffffffffff16146105b7576040517f08c379a00000000000000000000000000000000000000000000000000000000081526004016105ae90610cb3565b60405180910390fd5b6105c1813461095f565b50565b6105cc610893565b73ffffffffffffffffffffffffffffffffffffffff166105ea6104fe565b73ffffffffffffffffffffffffffffffffffffffff1614610640576040517f08c379a000000000000000000000000000000000000000000000000000000000815260040161063790610d1f565b60405180910390fd5b6000600160009054906101000a900473ffffffffffffffffffffffffffffffffffffffff16905081600160006101000a81548173ffffffffffffffffffffffffffffffffffffffff021916908373ffffffffffffffffffffffffffffffffffffffff1602179055507f82a5f106cb8825010fc976a68377f2755b179c9df382e413a01b99cf723d2ccb3382846040516106db93929190610dbb565b60405180910390a15050565b6000600260009054906101000a900473ffffffffffffffffffffffffffffffffffffffff1673ffffffffffffffffffffffffffffffffffffffff1663e3a9db1a836040518263ffffffff1660e01b81526004016107449190610b32565b60206040518083038186803b15801561075c57600080fd5b505afa158015610770573d6000803e3d6000fd5b505050506040513d601f19601f820116820180604052508101906107949190610e1e565b9050919050565b6107a3610893565b73ffffffffffffffffffffffffffffffffffffffff166107c16104fe565b73ffffffffffffffffffffffffffffffffffffffff1614610817576040517f08c379a000000000000000000000000000000000000000000000000000000000815260040161080e90610d1f565b60405180910390fd5b600073ffffffffffffffffffffffffffffffffffffffff168173ffffffffffffffffffffffffffffffffffffffff161415610887576040517f08c379a000000000000000000000000000000000000000000000000000000000815260040161087e90610ebd565b60405180910390fd5b6108908161089b565b50565b600033905090565b60008060009054906101000a900473ffffffffffffffffffffffffffffffffffffffff169050816000806101000a81548173ffffffffffffffffffffffffffffffffffffffff021916908373ffffffffffffffffffffffffffffffffffffffff1602179055508173ffffffffffffffffffffffffffffffffffffffff168173ffffffffffffffffffffffffffffffffffffffff167f8be0079c531659141344cd1fd0a4f28419497f9722a3daafe3b4186f6b6457e060405160405180910390a35050565b600260009054906101000a900473ffffffffffffffffffffffffffffffffffffffff1673ffffffffffffffffffffffffffffffffffffffff1663f340fa0182846040518363ffffffff1660e01b81526004016109bb9190610b32565b6000604051808303818588803b1580156109d457600080fd5b505af11580156109e8573d6000803e3d6000fd5b50505050505050565b600080fd5b60008115159050919050565b610a0b816109f6565b8114610a1657600080fd5b50565b600081359050610a2881610a02565b92915050565b600060208284031215610a4457610a436109f1565b5b6000610a5284828501610a19565b91505092915050565b610a64816109f6565b82525050565b6000602082019050610a7f6000830184610a5b565b92915050565b600073ffffffffffffffffffffffffffffffffffffffff82169050919050565b6000610ab082610a85565b9050919050565b610ac081610aa5565b8114610acb57600080fd5b50565b600081359050610add81610ab7565b92915050565b60008060408385031215610afa57610af96109f1565b5b6000610b0885828601610ace565b9250506020610b1985828601610ace565b9150509250929050565b610b2c81610aa5565b82525050565b6000602082019050610b476000830184610b23565b92915050565b600060208284031215610b6357610b626109f1565b5b6000610b7184828501610ace565b91505092915050565b6000819050919050565b610b8d81610b7a565b82525050565b6000602082019050610ba86000830184610b84565b92915050565b600082825260208201905092915050565b7f4e6f7420656e6f7567682062616c616e63650000000000000000000000000000600082015250565b6000610bf5601283610bae565b9150610c0082610bbf565b602082019050919050565b60006020820190508181036000830152610c2481610be8565b9050919050565b6000610c3682610a85565b9050919050565b610c4681610c2b565b82525050565b6000602082019050610c616000830184610c3d565b92915050565b7f43616c6c6572206973206e6f742074686520496e746572707265746572000000600082015250565b6000610c9d601d83610bae565b9150610ca882610c67565b602082019050919050565b60006020820190508181036000830152610ccc81610c90565b9050919050565b7f4f776e61626c653a2063616c6c6572206973206e6f7420746865206f776e6572600082015250565b6000610d09602083610bae565b9150610d1482610cd3565b602082019050919050565b60006020820190508181036000830152610d3881610cfc565b9050919050565b6000819050919050565b6000819050919050565b6000610d6e610d69610d6484610d3f565b610d49565b610b7a565b9050919050565b610d7e81610d53565b82525050565b6000606082019050610d996000830186610b23565b610da66020830185610b23565b610db36040830184610d75565b949350505050565b6000606082019050610dd06000830186610b23565b610ddd6020830185610b23565b610dea6040830184610b23565b949350505050565b610dfb81610b7a565b8114610e0657600080fd5b50565b600081519050610e1881610df2565b92915050565b600060208284031215610e3457610e336109f1565b5b6000610e4284828501610e09565b91505092915050565b7f4f776e61626c653a206e6577206f776e657220697320746865207a65726f206160008201527f6464726573730000000000000000000000000000000000000000000000000000602082015250565b6000610ea7602683610bae565b9150610eb282610e4b565b604082019050919050565b60006020820190508181036000830152610ed681610e9a565b905091905056fea264697066735822122079944ad54f2a52654e29cb637c7e5e1d48e9d81cb5218ac571230cc65637017c64736f6c63430008090033608060405234801561001057600080fd5b5061002d61002261003260201b60201c565b61003a60201b60201c565b6100fe565b600033905090565b60008060009054906101000a900473ffffffffffffffffffffffffffffffffffffffff169050816000806101000a81548173ffffffffffffffffffffffffffffffffffffffff021916908373ffffffffffffffffffffffffffffffffffffffff1602179055508173ffffffffffffffffffffffffffffffffffffffff168173ffffffffffffffffffffffffffffffffffffffff167f8be0079c531659141344cd1fd0a4f28419497f9722a3daafe3b4186f6b6457e060405160405180910390a35050565b610c098061010d6000396000f3fe6080604052600436106100555760003560e01c806351cff8d91461005a578063715018a6146100835780638da5cb5b1461009a578063e3a9db1a146100c5578063f2fde38b14610102578063f340fa011461012b575b600080fd5b34801561006657600080fd5b50610081600480360381019061007c9190610805565b610147565b005b34801561008f57600080fd5b506100986102c7565b005b3480156100a657600080fd5b506100af61034f565b6040516100bc9190610853565b60405180910390f35b3480156100d157600080fd5b506100ec60048036038101906100e7919061089a565b610378565b6040516100f991906108e0565b60405180910390f35b34801561010e57600080fd5b506101296004803603810190610124919061089a565b6103c1565b005b6101456004803603810190610140919061089a565b6104b9565b005b61014f6105e2565b73ffffffffffffffffffffffffffffffffffffffff1661016d61034f565b73ffffffffffffffffffffffffffffffffffffffff16146101c3576040517f08c379a00000000000000000000000000000000000000000000000000000000081526004016101ba90610958565b60405180910390fd5b6000600160008373ffffffffffffffffffffffffffffffffffffffff1673ffffffffffffffffffffffffffffffffffffffff1681526020019081526020016000205490506000600160008473ffffffffffffffffffffffffffffffffffffffff1673ffffffffffffffffffffffffffffffffffffffff16815260200190815260200160002081905550610275818373ffffffffffffffffffffffffffffffffffffffff166105ea90919063ffffffff16565b8173ffffffffffffffffffffffffffffffffffffffff167f7084f5476618d8e60b11ef0d7d3f06914655adb8793e28ff7f018d4c76d505d5826040516102bb91906108e0565b60405180910390a25050565b6102cf6105e2565b73ffffffffffffffffffffffffffffffffffffffff166102ed61034f565b73ffffffffffffffffffffffffffffffffffffffff1614610343576040517f08c379a000000000000000000000000000000000000000000000000000000000815260040161033a90610958565b60405180910390fd5b61034d60006106de565b565b60008060009054906101000a900473ffffffffffffffffffffffffffffffffffffffff16905090565b6000600160008373ffffffffffffffffffffffffffffffffffffffff1673ffffffffffffffffffffffffffffffffffffffff168152602001908152602001600020549050919050565b6103c96105e2565b73ffffffffffffffffffffffffffffffffffffffff166103e761034f565b73ffffffffffffffffffffffffffffffffffffffff161461043d576040517f08c379a000000000000000000000000000000000000000000000000000000000815260040161043490610958565b60405180910390fd5b600073ffffffffffffffffffffffffffffffffffffffff168173ffffffffffffffffffffffffffffffffffffffff1614156104ad576040517f08c379a00000000000000000000000000000000000000000000000000000000081526004016104a4906109ea565b60405180910390fd5b6104b6816106de565b50565b6104c16105e2565b73ffffffffffffffffffffffffffffffffffffffff166104df61034f565b73ffffffffffffffffffffffffffffffffffffffff1614610535576040517f08c379a000000000000000000000000000000000000000000000000000000000815260040161052c90610958565b60405180910390fd5b600034905080600160008473ffffffffffffffffffffffffffffffffffffffff1673ffffffffffffffffffffffffffffffffffffffff16815260200190815260200160002060008282546105899190610a39565b925050819055508173ffffffffffffffffffffffffffffffffffffffff167f2da466a7b24304f47e87fa2e1e5a81b9831ce54fec19055ce277ca2f39ba42c4826040516105d691906108e0565b60405180910390a25050565b600033905090565b8047101561062d576040517f08c379a000000000000000000000000000000000000000000000000000000000815260040161062490610adb565b60405180910390fd5b60008273ffffffffffffffffffffffffffffffffffffffff168260405161065390610b2c565b60006040518083038185875af1925050503d8060008114610690576040519150601f19603f3d011682016040523d82523d6000602084013e610695565b606091505b50509050806106d9576040517f08c379a00000000000000000000000000000000000000000000000000000000081526004016106d090610bb3565b60405180910390fd5b505050565b60008060009054906101000a900473ffffffffffffffffffffffffffffffffffffffff169050816000806101000a81548173ffffffffffffffffffffffffffffffffffffffff021916908373ffffffffffffffffffffffffffffffffffffffff1602179055508173ffffffffffffffffffffffffffffffffffffffff168173ffffffffffffffffffffffffffffffffffffffff167f8be0079c531659141344cd1fd0a4f28419497f9722a3daafe3b4186f6b6457e060405160405180910390a35050565b600080fd5b600073ffffffffffffffffffffffffffffffffffffffff82169050919050565b60006107d2826107a7565b9050919050565b6107e2816107c7565b81146107ed57600080fd5b50565b6000813590506107ff816107d9565b92915050565b60006020828403121561081b5761081a6107a2565b5b6000610829848285016107f0565b91505092915050565b600061083d826107a7565b9050919050565b61084d81610832565b82525050565b60006020820190506108686000830184610844565b92915050565b61087781610832565b811461088257600080fd5b50565b6000813590506108948161086e565b92915050565b6000602082840312156108b0576108af6107a2565b5b60006108be84828501610885565b91505092915050565b6000819050919050565b6108da816108c7565b82525050565b60006020820190506108f560008301846108d1565b92915050565b600082825260208201905092915050565b7f4f776e61626c653a2063616c6c6572206973206e6f7420746865206f776e6572600082015250565b60006109426020836108fb565b915061094d8261090c565b602082019050919050565b6000602082019050818103600083015261097181610935565b9050919050565b7f4f776e61626c653a206e6577206f776e657220697320746865207a65726f206160008201527f6464726573730000000000000000000000000000000000000000000000000000602082015250565b60006109d46026836108fb565b91506109df82610978565b604082019050919050565b60006020820190508181036000830152610a03816109c7565b9050919050565b7f4e487b7100000000000000000000000000000000000000000000000000000000600052601160045260246000fd5b6000610a44826108c7565b9150610a4f836108c7565b9250827fffffffffffffffffffffffffffffffffffffffffffffffffffffffffffffffff03821115610a8457610a83610a0a565b5b828201905092915050565b7f416464726573733a20696e73756666696369656e742062616c616e6365000000600082015250565b6000610ac5601d836108fb565b9150610ad082610a8f565b602082019050919050565b60006020820190508181036000830152610af481610ab8565b9050919050565b600081905092915050565b50565b6000610b16600083610afb565b9150610b2182610b06565b600082019050919050565b6000610b3782610b09565b9150819050919050565b7f416464726573733a20756e61626c6520746f2073656e642076616c75652c207260008201527f6563697069656e74206d61792068617665207265766572746564000000000000602082015250565b6000610b9d603a836108fb565b9150610ba882610b41565b604082019050919050565b60006020820190508181036000830152610bcc81610b90565b905091905056fea26469706673582212200a394df47b424613cba825987a9bb50de82fbfaecf69ce9ca166707747ffd10e64736f6c63430008090033",
  "immutableReferences": {},
  "source": "// SPDX-License-Identifier: GPL-3.0\npragma solidity 0.8.9;\n\n/* EXTERNAL DEPENDENCIES */\nimport \"@openzeppelin/contracts/access/Ownable.sol\";\nimport \"@openzeppelin/contracts/utils/escrow/Escrow.sol\";\n\nimport \"./CommonStructs.sol\";\nimport \"./Interpreter.sol\";\n\ncontract InstructionsProvider is Ownable {\n    \n    /* STORAGE */\n\n    /// @dev Interpreter contract reference\n    Interpreter private interpreterInstance;\n\n    /// @dev OpenZeppelin Escrow contract reference\n    Escrow private escrow;\n\n    /* EVENTS */\n    \n    /**\n    * @dev Event emitted when the Interpreter contract reference is changed\n    * @param _from Caller address\n    * @param _old Old address of the Interpreter contract\n    * @param _new New address of the Interpreter contract\n    */\n    event SetInterpreterInstance(address _from, address _old, address _new);\n\n    // TODO: TESTING: remove this event\n    event _CALLBACK(address _from, address _to, uint _success);\n\n    /* MODIFIERS */\n\n    /// @dev OpenZeppelin Escrow: Modifier used to check whether the sender has a deposit to withdraw \n    modifier hasBalance() {\n        require(depositsOf(msg.sender) > 0, \"Not enough balance\");\n        _;\n    }\n\n    /// @dev Modifier used to assess that the caller is the interpreter contract instance \n    modifier onlyInterpreter() {\n        require(msg.sender==address(interpreterInstance), \"Caller is not the Interpreter\");\n        _;\n    }\n\n    /* PUBLIC INTERFACE */\n\n    /**\n    * @dev Constructor used to instantiate the Escrow contract and set the InterpreterInstance reference\n    * @param _address Address of the Interpreter contract\n    */\n    constructor(address _address) {\n        escrow = new Escrow();\n        interpreterInstance = Interpreter(_address);\n    }\n    \n    /**\n    * @dev Sets the Interpreter reference. Emits a SetInterpreterInstance event\n    * @param _new Address of the Interpreter contract\n    */\n    function setInterpreterInstance(address _new) public onlyOwner {\n        address old = address(interpreterInstance);\n        interpreterInstance = Interpreter(_new);\n        emit SetInterpreterInstance(msg.sender, old, _new);\n    }\n    \n    /* Instructions definitions */\n\n    // TODO: TESTING - Remove this function and the corresponding TCs\n    function _test(bool _value) public payable onlyInterpreter returns(bool)  {\n        return _value;\n    }\n\n    /**\n    * @dev Checks if the addresses in parameters are equal\n    * @param _address1 First address used in the comparison\n    * @param _address2 Second address used in the comparison\n    */\n    function _ifAddress(address _address1, address _address2) public onlyInterpreter returns (bool) {\n        emit _CALLBACK(_address1, _address2, 777);\n        return (_address1 == _address2);\n    }\n\n    /**\n    * @dev Deposits all the msg.value in the corresponding Escrow address\n    * @param _to Address where to deposit funds\n    */\n    function _transferExternal(address _to) public payable onlyInterpreter {\n        _deposit(_to, msg.value);\n    }\n\n    /* Escrow */\n    \n    /**\n     * @dev Escrow: Deposit an _amount that can be withdrawn only by the _to address\n     * @param _to The address to which we deposit ETH\n     * @param _amount The amount to deposit\n     */\n    function _deposit(address _to, uint256 _amount) internal {\n        escrow.deposit{value: _amount}(_to);\n    }\n\n    /**\n     * @dev Escrow: Returns the total amount the address _to can withdrawn\n     * @param _to The address for which we query the balance\n     */\n    function depositsOf(address _to) public view returns (uint256) {\n        return escrow.depositsOf(_to);\n    }\n\n    /**\n     * @dev Withdraw the total balance\n     * Modifiers:\n     * - hasBalance: msg.sender must have enough balance in the escrow\n     */\n    function withdraw() public hasBalance {\n        escrow.withdraw(payable(msg.sender));\n    }\n    \n}",
  "sourcePath": "/home/shakalee/Documents/Consensys/PROJOT-v0/contracts/InstructionsProvider.sol",
  "compiler": {
    "name": "solc",
    "version": "0.8.9+commit.e5eed63a.Emscripten.clang"
  },
  "schemaVersion": "3.4.3",
  "updatedAt": "2021-11-21T23:05:01.357Z",
  "devdoc": {
    "events": {
      "SetInterpreterInstance(address,address,address)": {
        "details": "Event emitted when the Interpreter contract reference is changed",
        "params": {
          "_from": "Caller address",
          "_new": "New address of the Interpreter contract",
          "_old": "Old address of the Interpreter contract"
        }
      }
    },
    "kind": "dev",
    "methods": {
      "_ifAddress(address,address)": {
        "details": "Checks if the addresses in parameters are equal",
        "params": {
          "_address1": "First address used in the comparison",
          "_address2": "Second address used in the comparison"
        }
      },
      "_transferExternal(address)": {
        "details": "Deposits all the msg.value in the corresponding Escrow address",
        "params": {
          "_to": "Address where to deposit funds"
        }
      },
      "constructor": {
        "details": "Constructor used to instantiate the Escrow contract and set the InterpreterInstance reference",
        "params": {
          "_address": "Address of the Interpreter contract"
        }
      },
      "depositsOf(address)": {
        "details": "Escrow: Returns the total amount the address _to can withdrawn",
        "params": {
          "_to": "The address for which we query the balance"
        }
      },
      "owner()": {
        "details": "Returns the address of the current owner."
      },
      "renounceOwnership()": {
        "details": "Leaves the contract without owner. It will not be possible to call `onlyOwner` functions anymore. Can only be called by the current owner. NOTE: Renouncing ownership will leave the contract without an owner, thereby removing any functionality that is only available to the owner."
      },
      "setInterpreterInstance(address)": {
        "details": "Sets the Interpreter reference. Emits a SetInterpreterInstance event",
        "params": {
          "_new": "Address of the Interpreter contract"
        }
      },
      "transferOwnership(address)": {
        "details": "Transfers ownership of the contract to a new account (`newOwner`). Can only be called by the current owner."
      },
      "withdraw()": {
        "details": "Withdraw the total balance Modifiers: - hasBalance: msg.sender must have enough balance in the escrow"
      }
    },
    "stateVariables": {
      "escrow": {
        "details": "OpenZeppelin Escrow contract reference"
      },
      "interpreterInstance": {
        "details": "Interpreter contract reference"
      }
    },
    "version": 1
  },
  "userdoc": {
    "kind": "user",
    "methods": {},
    "version": 1
  }
}