{
  "contractName": "InstructionsProvider",
  "abi": [
    {
      "inputs": [
        {
          "internalType": "address",
          "name": "_address",
          "type": "address"
        }
      ],
      "stateMutability": "nonpayable",
      "type": "constructor"
    },
    {
      "anonymous": false,
      "inputs": [
        {
          "indexed": true,
          "internalType": "address",
          "name": "previousOwner",
          "type": "address"
        },
        {
          "indexed": true,
          "internalType": "address",
          "name": "newOwner",
          "type": "address"
        }
      ],
      "name": "OwnershipTransferred",
      "type": "event"
    },
    {
      "anonymous": false,
      "inputs": [
        {
          "indexed": false,
          "internalType": "address",
          "name": "_from",
          "type": "address"
        },
        {
          "indexed": false,
          "internalType": "address",
          "name": "_old",
          "type": "address"
        },
        {
          "indexed": false,
          "internalType": "address",
          "name": "_new",
          "type": "address"
        }
      ],
      "name": "SetEscrowContractRef",
      "type": "event"
    },
    {
      "anonymous": false,
      "inputs": [
        {
          "indexed": false,
          "internalType": "address",
          "name": "_from",
          "type": "address"
        },
        {
          "indexed": false,
          "internalType": "address",
          "name": "_old",
          "type": "address"
        },
        {
          "indexed": false,
          "internalType": "address",
          "name": "_new",
          "type": "address"
        }
      ],
      "name": "SetInterpreterContractRef",
      "type": "event"
    },
    {
      "inputs": [],
      "name": "escrowInstance",
      "outputs": [
        {
          "internalType": "contract Escrow",
          "name": "",
          "type": "address"
        }
      ],
      "stateMutability": "view",
      "type": "function",
      "constant": true
    },
    {
      "inputs": [],
      "name": "interpreterContractRef",
      "outputs": [
        {
          "internalType": "address",
          "name": "",
          "type": "address"
        }
      ],
      "stateMutability": "view",
      "type": "function",
      "constant": true
    },
    {
      "inputs": [],
      "name": "owner",
      "outputs": [
        {
          "internalType": "address",
          "name": "",
          "type": "address"
        }
      ],
      "stateMutability": "view",
      "type": "function",
      "constant": true
    },
    {
      "inputs": [],
      "name": "proxyInstanceRef",
      "outputs": [
        {
          "internalType": "address",
          "name": "",
          "type": "address"
        }
      ],
      "stateMutability": "view",
      "type": "function",
      "constant": true
    },
    {
      "inputs": [
        {
          "internalType": "address",
          "name": "newOwner",
          "type": "address"
        }
      ],
      "name": "transferOwnership",
      "outputs": [],
      "stateMutability": "nonpayable",
      "type": "function"
    },
    {
      "inputs": [
        {
          "internalType": "address",
          "name": "_address",
          "type": "address"
        }
      ],
      "name": "setProxyInstanceRef",
      "outputs": [],
      "stateMutability": "nonpayable",
      "type": "function"
    },
    {
      "inputs": [
        {
          "internalType": "address",
          "name": "_new",
          "type": "address"
        }
      ],
      "name": "setInterpreterContractRef",
      "outputs": [],
      "stateMutability": "nonpayable",
      "type": "function"
    },
    {
      "inputs": [
        {
          "internalType": "address",
          "name": "_new",
          "type": "address"
        }
      ],
      "name": "setEscrowContractRef",
      "outputs": [],
      "stateMutability": "nonpayable",
      "type": "function"
    },
    {
      "inputs": [
        {
          "internalType": "address",
          "name": "_address",
          "type": "address"
        }
      ],
      "name": "transferEscrow",
      "outputs": [],
      "stateMutability": "nonpayable",
      "type": "function"
    },
    {
      "inputs": [],
      "name": "getBalance",
      "outputs": [
        {
          "internalType": "uint256",
          "name": "",
          "type": "uint256"
        }
      ],
      "stateMutability": "view",
      "type": "function",
      "constant": true
    },
    {
      "inputs": [
        {
          "internalType": "address",
          "name": "_from",
          "type": "address"
        }
      ],
      "name": "withdraw",
      "outputs": [],
      "stateMutability": "nonpayable",
      "type": "function"
    },
    {
      "inputs": [
        {
          "internalType": "uint256",
          "name": "_msgValue",
          "type": "uint256"
        },
        {
          "internalType": "uint256",
          "name": "_comparisonValue",
          "type": "uint256"
        }
      ],
      "name": "_ifMsgValueBigger",
      "outputs": [
        {
          "internalType": "bool",
          "name": "",
          "type": "bool"
        }
      ],
      "stateMutability": "view",
      "type": "function",
      "constant": true
    },
    {
      "inputs": [
        {
          "internalType": "address",
          "name": "_to",
          "type": "address"
        }
      ],
      "name": "_transfer",
      "outputs": [],
      "stateMutability": "payable",
      "type": "function",
      "payable": true
    },
    {
      "inputs": [],
      "name": "renounceOwnership",
      "outputs": [],
      "stateMutability": "pure",
      "type": "function",
      "constant": true
    }
  ],
  "bytecode": "0x60806040523480156200001157600080fd5b50604051620024573803806200245783398181016040528101906200003791906200028c565b620000576200004b6200014860201b60201c565b6200015060201b60201c565b600073ffffffffffffffffffffffffffffffffffffffff168173ffffffffffffffffffffffffffffffffffffffff161415620000ff576040516200009b9062000214565b604051809103906000f080158015620000b8573d6000803e3d6000fd5b50600360006101000a81548173ffffffffffffffffffffffffffffffffffffffff021916908373ffffffffffffffffffffffffffffffffffffffff16021790555062000141565b80600360006101000a81548173ffffffffffffffffffffffffffffffffffffffff021916908373ffffffffffffffffffffffffffffffffffffffff1602179055505b50620002be565b600033905090565b60008060009054906101000a900473ffffffffffffffffffffffffffffffffffffffff169050816000806101000a81548173ffffffffffffffffffffffffffffffffffffffff021916908373ffffffffffffffffffffffffffffffffffffffff1602179055508173ffffffffffffffffffffffffffffffffffffffff168173ffffffffffffffffffffffffffffffffffffffff167f8be0079c531659141344cd1fd0a4f28419497f9722a3daafe3b4186f6b6457e060405160405180910390a35050565b610d16806200174183390190565b600080fd5b600073ffffffffffffffffffffffffffffffffffffffff82169050919050565b6000620002548262000227565b9050919050565b620002668162000247565b81146200027257600080fd5b50565b60008151905062000286816200025b565b92915050565b600060208284031215620002a557620002a462000222565b5b6000620002b58482850162000275565b91505092915050565b61147380620002ce6000396000f3fe6080604052600436106100dd5760003560e01c80636c79eafc1161007f57806396d6cf0b1161005957806396d6cf0b14610286578063cef89998146102b1578063eab06849146102da578063f2fde38b146102f6576100dd565b80636c79eafc14610219578063715018a6146102445780638da5cb5b1461025b576100dd565b80632131d8c3116100bb5780632131d8c3146101735780633feb4fad1461019c57806351cff8d9146101c757806357cd0e27146101f0576100dd565b806307cb0328146100e257806312065fe01461010b57806313ba7e4d14610136575b600080fd5b3480156100ee57600080fd5b5061010960048036038101906101049190610eb0565b61031f565b005b34801561011757600080fd5b50610120610442565b60405161012d9190610ef6565b60405180910390f35b34801561014257600080fd5b5061015d60048036038101906101589190610f3d565b6104f9565b60405161016a9190610f98565b60405180910390f35b34801561017f57600080fd5b5061019a60048036038101906101959190610eb0565b610596565b005b3480156101a857600080fd5b506101b16106b9565b6040516101be9190610fc2565b60405180910390f35b3480156101d357600080fd5b506101ee60048036038101906101e99190610eb0565b6106df565b005b3480156101fc57600080fd5b5061021760048036038101906102129190610eb0565b6108ec565b005b34801561022557600080fd5b5061022e6109f8565b60405161023b9190610fc2565b60405180910390f35b34801561025057600080fd5b50610259610a1e565b005b34801561026757600080fd5b50610270610a59565b60405161027d9190610fc2565b60405180910390f35b34801561029257600080fd5b5061029b610a82565b6040516102a8919061103c565b60405180910390f35b3480156102bd57600080fd5b506102d860048036038101906102d39190610eb0565b610aa8565b005b6102f460048036038101906102ef9190610eb0565b610b68565b005b34801561030257600080fd5b5061031d60048036038101906103189190610eb0565b610c89565b005b610327610d81565b73ffffffffffffffffffffffffffffffffffffffff16610345610a59565b73ffffffffffffffffffffffffffffffffffffffff161461039b576040517f08c379a0000000000000000000000000000000000000000000000000000000008152600401610392906110b4565b60405180910390fd5b6000600360009054906101000a900473ffffffffffffffffffffffffffffffffffffffff16905081600360006101000a81548173ffffffffffffffffffffffffffffffffffffffff021916908373ffffffffffffffffffffffffffffffffffffffff1602179055507faae03ea1c7503c845382c8b6d1e06c8aeec87db1cb524276f2e3965f971c15e2338284604051610436939291906110d4565b60405180910390a15050565b600080600360009054906101000a900473ffffffffffffffffffffffffffffffffffffffff1673ffffffffffffffffffffffffffffffffffffffff1663e3a9db1a336040518263ffffffff1660e01b81526004016104a09190610fc2565b60206040518083038186803b1580156104b857600080fd5b505afa1580156104cc573d6000803e3d6000fd5b505050506040513d601f19601f820116820180604052508101906104f09190611120565b90508091505090565b6000600260009054906101000a900473ffffffffffffffffffffffffffffffffffffffff1673ffffffffffffffffffffffffffffffffffffffff163373ffffffffffffffffffffffffffffffffffffffff161461058b576040517f08c379a0000000000000000000000000000000000000000000000000000000008152600401610582906111bf565b60405180910390fd5b818311905092915050565b61059e610d81565b73ffffffffffffffffffffffffffffffffffffffff166105bc610a59565b73ffffffffffffffffffffffffffffffffffffffff1614610612576040517f08c379a0000000000000000000000000000000000000000000000000000000008152600401610609906110b4565b60405180910390fd5b6000600260009054906101000a900473ffffffffffffffffffffffffffffffffffffffff16905081600260006101000a81548173ffffffffffffffffffffffffffffffffffffffff021916908373ffffffffffffffffffffffffffffffffffffffff1602179055507f764a002b08d88b63b46f530aab7915dde6895eaa976b609f898425ba0d38cc303382846040516106ad939291906110d4565b60405180910390a15050565b600160009054906101000a900473ffffffffffffffffffffffffffffffffffffffff1681565b600160009054906101000a900473ffffffffffffffffffffffffffffffffffffffff1673ffffffffffffffffffffffffffffffffffffffff163373ffffffffffffffffffffffffffffffffffffffff161461076f576040517f08c379a000000000000000000000000000000000000000000000000000000000815260040161076690611251565b60405180910390fd5b6000600360009054906101000a900473ffffffffffffffffffffffffffffffffffffffff1673ffffffffffffffffffffffffffffffffffffffff1663e3a9db1a836040518263ffffffff1660e01b81526004016107cc9190610fc2565b60206040518083038186803b1580156107e457600080fd5b505afa1580156107f8573d6000803e3d6000fd5b505050506040513d601f19601f8201168201806040525081019061081c9190611120565b1161085c576040517f08c379a0000000000000000000000000000000000000000000000000000000008152600401610853906112e3565b60405180910390fd5b600360009054906101000a900473ffffffffffffffffffffffffffffffffffffffff1673ffffffffffffffffffffffffffffffffffffffff166351cff8d9826040518263ffffffff1660e01b81526004016108b79190611324565b600060405180830381600087803b1580156108d157600080fd5b505af11580156108e5573d6000803e3d6000fd5b5050505050565b6108f4610d81565b73ffffffffffffffffffffffffffffffffffffffff16610912610a59565b73ffffffffffffffffffffffffffffffffffffffff1614610968576040517f08c379a000000000000000000000000000000000000000000000000000000000815260040161095f906110b4565b60405180910390fd5b600360009054906101000a900473ffffffffffffffffffffffffffffffffffffffff1673ffffffffffffffffffffffffffffffffffffffff1663f2fde38b826040518263ffffffff1660e01b81526004016109c39190610fc2565b600060405180830381600087803b1580156109dd57600080fd5b505af11580156109f1573d6000803e3d6000fd5b5050505050565b600260009054906101000a900473ffffffffffffffffffffffffffffffffffffffff1681565b6040517f08c379a0000000000000000000000000000000000000000000000000000000008152600401610a509061138b565b60405180910390fd5b60008060009054906101000a900473ffffffffffffffffffffffffffffffffffffffff16905090565b600360009054906101000a900473ffffffffffffffffffffffffffffffffffffffff1681565b610ab0610d81565b73ffffffffffffffffffffffffffffffffffffffff16610ace610a59565b73ffffffffffffffffffffffffffffffffffffffff1614610b24576040517f08c379a0000000000000000000000000000000000000000000000000000000008152600401610b1b906110b4565b60405180910390fd5b80600160006101000a81548173ffffffffffffffffffffffffffffffffffffffff021916908373ffffffffffffffffffffffffffffffffffffffff16021790555050565b600260009054906101000a900473ffffffffffffffffffffffffffffffffffffffff1673ffffffffffffffffffffffffffffffffffffffff163373ffffffffffffffffffffffffffffffffffffffff1614610bf8576040517f08c379a0000000000000000000000000000000000000000000000000000000008152600401610bef906111bf565b60405180910390fd5b600360009054906101000a900473ffffffffffffffffffffffffffffffffffffffff1673ffffffffffffffffffffffffffffffffffffffff1663f340fa0134836040518363ffffffff1660e01b8152600401610c549190610fc2565b6000604051808303818588803b158015610c6d57600080fd5b505af1158015610c81573d6000803e3d6000fd5b505050505050565b610c91610d81565b73ffffffffffffffffffffffffffffffffffffffff16610caf610a59565b73ffffffffffffffffffffffffffffffffffffffff1614610d05576040517f08c379a0000000000000000000000000000000000000000000000000000000008152600401610cfc906110b4565b60405180910390fd5b600073ffffffffffffffffffffffffffffffffffffffff168173ffffffffffffffffffffffffffffffffffffffff161415610d75576040517f08c379a0000000000000000000000000000000000000000000000000000000008152600401610d6c9061141d565b60405180910390fd5b610d7e81610d89565b50565b600033905090565b60008060009054906101000a900473ffffffffffffffffffffffffffffffffffffffff169050816000806101000a81548173ffffffffffffffffffffffffffffffffffffffff021916908373ffffffffffffffffffffffffffffffffffffffff1602179055508173ffffffffffffffffffffffffffffffffffffffff168173ffffffffffffffffffffffffffffffffffffffff167f8be0079c531659141344cd1fd0a4f28419497f9722a3daafe3b4186f6b6457e060405160405180910390a35050565b600080fd5b600073ffffffffffffffffffffffffffffffffffffffff82169050919050565b6000610e7d82610e52565b9050919050565b610e8d81610e72565b8114610e9857600080fd5b50565b600081359050610eaa81610e84565b92915050565b600060208284031215610ec657610ec5610e4d565b5b6000610ed484828501610e9b565b91505092915050565b6000819050919050565b610ef081610edd565b82525050565b6000602082019050610f0b6000830184610ee7565b92915050565b610f1a81610edd565b8114610f2557600080fd5b50565b600081359050610f3781610f11565b92915050565b60008060408385031215610f5457610f53610e4d565b5b6000610f6285828601610f28565b9250506020610f7385828601610f28565b9150509250929050565b60008115159050919050565b610f9281610f7d565b82525050565b6000602082019050610fad6000830184610f89565b92915050565b610fbc81610e72565b82525050565b6000602082019050610fd76000830184610fb3565b92915050565b6000819050919050565b6000611002610ffd610ff884610e52565b610fdd565b610e52565b9050919050565b600061101482610fe7565b9050919050565b600061102682611009565b9050919050565b6110368161101b565b82525050565b6000602082019050611051600083018461102d565b92915050565b600082825260208201905092915050565b7f4f776e61626c653a2063616c6c6572206973206e6f7420746865206f776e6572600082015250565b600061109e602083611057565b91506110a982611068565b602082019050919050565b600060208201905081810360008301526110cd81611091565b9050919050565b60006060820190506110e96000830186610fb3565b6110f66020830185610fb3565b6111036040830184610fb3565b949350505050565b60008151905061111a81610f11565b92915050565b60006020828403121561113657611135610e4d565b5b60006111448482850161110b565b91505092915050565b7f496e737472756374696f6e7350726f76696465723a2043616c6c65722069732060008201527f6e6f742074686520496e74657270726574657200000000000000000000000000602082015250565b60006111a9603383611057565b91506111b48261114d565b604082019050919050565b600060208201905081810360008301526111d88161119c565b9050919050565b7f496e737472756374696f6e7350726f76696465723a204f6e6c792050726f787960008201527f206d61792063616c6c0000000000000000000000000000000000000000000000602082015250565b600061123b602983611057565b9150611246826111df565b604082019050919050565b6000602082019050818103600083015261126a8161122e565b9050919050565b7f496e737472756374696f6e7350726f7669646572203a204e6f7420656e6f756760008201527f682062616c616e63650000000000000000000000000000000000000000000000602082015250565b60006112cd602983611057565b91506112d882611271565b604082019050919050565b600060208201905081810360008301526112fc816112c0565b9050919050565b600061130e82610e52565b9050919050565b61131e81611303565b82525050565b60006020820190506113396000830184611315565b92915050565b7f436f6e74726163742063616e6e6f74206265207265766f6b6564000000000000600082015250565b6000611375601a83611057565b91506113808261133f565b602082019050919050565b600060208201905081810360008301526113a481611368565b9050919050565b7f4f776e61626c653a206e6577206f776e657220697320746865207a65726f206160008201527f6464726573730000000000000000000000000000000000000000000000000000602082015250565b6000611407602683611057565b9150611412826113ab565b604082019050919050565b60006020820190508181036000830152611436816113fa565b905091905056fea2646970667358221220f51cc44fbf32852f0f30c652bf8c19874ede2433d3ec7cadfe38b646727f84e264736f6c63430008090033608060405234801561001057600080fd5b5061002d61002261003260201b60201c565b61003a60201b60201c565b6100fe565b600033905090565b60008060009054906101000a900473ffffffffffffffffffffffffffffffffffffffff169050816000806101000a81548173ffffffffffffffffffffffffffffffffffffffff021916908373ffffffffffffffffffffffffffffffffffffffff1602179055508173ffffffffffffffffffffffffffffffffffffffff168173ffffffffffffffffffffffffffffffffffffffff167f8be0079c531659141344cd1fd0a4f28419497f9722a3daafe3b4186f6b6457e060405160405180910390a35050565b610c098061010d6000396000f3fe6080604052600436106100555760003560e01c806351cff8d91461005a578063715018a6146100835780638da5cb5b1461009a578063e3a9db1a146100c5578063f2fde38b14610102578063f340fa011461012b575b600080fd5b34801561006657600080fd5b50610081600480360381019061007c9190610805565b610147565b005b34801561008f57600080fd5b506100986102c7565b005b3480156100a657600080fd5b506100af61034f565b6040516100bc9190610853565b60405180910390f35b3480156100d157600080fd5b506100ec60048036038101906100e7919061089a565b610378565b6040516100f991906108e0565b60405180910390f35b34801561010e57600080fd5b506101296004803603810190610124919061089a565b6103c1565b005b6101456004803603810190610140919061089a565b6104b9565b005b61014f6105e2565b73ffffffffffffffffffffffffffffffffffffffff1661016d61034f565b73ffffffffffffffffffffffffffffffffffffffff16146101c3576040517f08c379a00000000000000000000000000000000000000000000000000000000081526004016101ba90610958565b60405180910390fd5b6000600160008373ffffffffffffffffffffffffffffffffffffffff1673ffffffffffffffffffffffffffffffffffffffff1681526020019081526020016000205490506000600160008473ffffffffffffffffffffffffffffffffffffffff1673ffffffffffffffffffffffffffffffffffffffff16815260200190815260200160002081905550610275818373ffffffffffffffffffffffffffffffffffffffff166105ea90919063ffffffff16565b8173ffffffffffffffffffffffffffffffffffffffff167f7084f5476618d8e60b11ef0d7d3f06914655adb8793e28ff7f018d4c76d505d5826040516102bb91906108e0565b60405180910390a25050565b6102cf6105e2565b73ffffffffffffffffffffffffffffffffffffffff166102ed61034f565b73ffffffffffffffffffffffffffffffffffffffff1614610343576040517f08c379a000000000000000000000000000000000000000000000000000000000815260040161033a90610958565b60405180910390fd5b61034d60006106de565b565b60008060009054906101000a900473ffffffffffffffffffffffffffffffffffffffff16905090565b6000600160008373ffffffffffffffffffffffffffffffffffffffff1673ffffffffffffffffffffffffffffffffffffffff168152602001908152602001600020549050919050565b6103c96105e2565b73ffffffffffffffffffffffffffffffffffffffff166103e761034f565b73ffffffffffffffffffffffffffffffffffffffff161461043d576040517f08c379a000000000000000000000000000000000000000000000000000000000815260040161043490610958565b60405180910390fd5b600073ffffffffffffffffffffffffffffffffffffffff168173ffffffffffffffffffffffffffffffffffffffff1614156104ad576040517f08c379a00000000000000000000000000000000000000000000000000000000081526004016104a4906109ea565b60405180910390fd5b6104b6816106de565b50565b6104c16105e2565b73ffffffffffffffffffffffffffffffffffffffff166104df61034f565b73ffffffffffffffffffffffffffffffffffffffff1614610535576040517f08c379a000000000000000000000000000000000000000000000000000000000815260040161052c90610958565b60405180910390fd5b600034905080600160008473ffffffffffffffffffffffffffffffffffffffff1673ffffffffffffffffffffffffffffffffffffffff16815260200190815260200160002060008282546105899190610a39565b925050819055508173ffffffffffffffffffffffffffffffffffffffff167f2da466a7b24304f47e87fa2e1e5a81b9831ce54fec19055ce277ca2f39ba42c4826040516105d691906108e0565b60405180910390a25050565b600033905090565b8047101561062d576040517f08c379a000000000000000000000000000000000000000000000000000000000815260040161062490610adb565b60405180910390fd5b60008273ffffffffffffffffffffffffffffffffffffffff168260405161065390610b2c565b60006040518083038185875af1925050503d8060008114610690576040519150601f19603f3d011682016040523d82523d6000602084013e610695565b606091505b50509050806106d9576040517f08c379a00000000000000000000000000000000000000000000000000000000081526004016106d090610bb3565b60405180910390fd5b505050565b60008060009054906101000a900473ffffffffffffffffffffffffffffffffffffffff169050816000806101000a81548173ffffffffffffffffffffffffffffffffffffffff021916908373ffffffffffffffffffffffffffffffffffffffff1602179055508173ffffffffffffffffffffffffffffffffffffffff168173ffffffffffffffffffffffffffffffffffffffff167f8be0079c531659141344cd1fd0a4f28419497f9722a3daafe3b4186f6b6457e060405160405180910390a35050565b600080fd5b600073ffffffffffffffffffffffffffffffffffffffff82169050919050565b60006107d2826107a7565b9050919050565b6107e2816107c7565b81146107ed57600080fd5b50565b6000813590506107ff816107d9565b92915050565b60006020828403121561081b5761081a6107a2565b5b6000610829848285016107f0565b91505092915050565b600061083d826107a7565b9050919050565b61084d81610832565b82525050565b60006020820190506108686000830184610844565b92915050565b61087781610832565b811461088257600080fd5b50565b6000813590506108948161086e565b92915050565b6000602082840312156108b0576108af6107a2565b5b60006108be84828501610885565b91505092915050565b6000819050919050565b6108da816108c7565b82525050565b60006020820190506108f560008301846108d1565b92915050565b600082825260208201905092915050565b7f4f776e61626c653a2063616c6c6572206973206e6f7420746865206f776e6572600082015250565b60006109426020836108fb565b915061094d8261090c565b602082019050919050565b6000602082019050818103600083015261097181610935565b9050919050565b7f4f776e61626c653a206e6577206f776e657220697320746865207a65726f206160008201527f6464726573730000000000000000000000000000000000000000000000000000602082015250565b60006109d46026836108fb565b91506109df82610978565b604082019050919050565b60006020820190508181036000830152610a03816109c7565b9050919050565b7f4e487b7100000000000000000000000000000000000000000000000000000000600052601160045260246000fd5b6000610a44826108c7565b9150610a4f836108c7565b9250827fffffffffffffffffffffffffffffffffffffffffffffffffffffffffffffffff03821115610a8457610a83610a0a565b5b828201905092915050565b7f416464726573733a20696e73756666696369656e742062616c616e6365000000600082015250565b6000610ac5601d836108fb565b9150610ad082610a8f565b602082019050919050565b60006020820190508181036000830152610af481610ab8565b9050919050565b600081905092915050565b50565b6000610b16600083610afb565b9150610b2182610b06565b600082019050919050565b6000610b3782610b09565b9150819050919050565b7f416464726573733a20756e61626c6520746f2073656e642076616c75652c207260008201527f6563697069656e74206d61792068617665207265766572746564000000000000602082015250565b6000610b9d603a836108fb565b9150610ba882610b41565b604082019050919050565b60006020820190508181036000830152610bcc81610b90565b905091905056fea26469706673582212200a394df47b424613cba825987a9bb50de82fbfaecf69ce9ca166707747ffd10e64736f6c63430008090033",
  "immutableReferences": {},
  "source": "// SPDX-License-Identifier: GPL-3.0\npragma solidity 0.8.9;\n\n/* EXTERNAL DEPENDENCIES */\nimport \"@openzeppelin/contracts/access/Ownable.sol\";\nimport \"@openzeppelin/contracts/utils/escrow/Escrow.sol\";\n\n/* INTERNAL DEPENDENCIES */\nimport \"./CommonStructs.sol\";\n\n/**\n * @title Instructions Provider contract\n * @notice This contract is responsible for storing the \n * implementations of the instructions supported used in \n * the Interpreter.InterpretArticle low level calls\n */\n\ncontract InstructionsProvider is Ownable {\n    \n    /* STORAGE */\n\n    /// @dev Proxy instance reference\n    address public proxyInstanceRef;\n\n    /// @dev Interpreter contract reference\n    address public interpreterContractRef;\n\n    /// @dev OpenZeppelin Escrow contract reference\n    Escrow public escrowInstance;\n\n    /* EVENTS */\n    \n    /**\n    * @dev Event emitted when the Interpreter contract reference is changed\n    * @param _from Caller address\n    * @param _old Old address of the Interpreter contract\n    * @param _new New address of the Interpreter contract\n    */\n    event SetInterpreterContractRef(address _from, address _old, address _new);\n\n    /**\n    * @dev Event emitted when the Escrow contract reference is changed\n    * @param _from Caller address\n    * @param _old Old address of the Escrow contract\n    * @param _new New address of the Escrow contract\n    */\n    event SetEscrowContractRef(address _from, address _old, address _new);\n\n    /* MODIFIERS */\n\n    /// @dev Assess that the caller is the Interpreter contract instance \n    modifier onlyInterpreter() {\n        require(msg.sender==interpreterContractRef, \"InstructionsProvider: Caller is not the Interpreter\");\n        _;\n    }\n\n    /// @dev Assess that the caller is the Proxy contract instance \n    modifier onlyProxy() {\n        require(msg.sender==proxyInstanceRef, \"InstructionsProvider: Only Proxy may call\");\n        _;\n    }\n\n    /* PUBLIC INTERFACE */\n\n    constructor(address _address) {\n        if (_address==address(0))\n            escrowInstance = new Escrow();\n        else\n            escrowInstance = Escrow(_address);\n    }\n\n    /**\n    * @dev Sets the Interpreter contract reference. Emits a SetInterpreterInstance event\n    * @param _address Address of the Interpreter contract\n    */\n    function setProxyInstanceRef(address _address) external onlyOwner { \n        proxyInstanceRef = _address;\n    }\n\n    /**\n    * @dev Sets the Interpreter contract reference. Emits a SetInterpreterInstance event\n    * @param _new Address of the Interpreter contract\n    */\n    function setInterpreterContractRef(address _new) public onlyOwner {\n        address old = interpreterContractRef;\n        interpreterContractRef = _new;\n        emit SetInterpreterContractRef(msg.sender, old, _new);\n    }\n    \n    /**\n    * @dev Sets the Escrow instance. Emits a SetEscrowInstance event\n    * @param _new Address of the Escrow contract\n    */\n    function setEscrowContractRef(address _new) public onlyOwner {\n        address old = address(escrowInstance);\n        escrowInstance = Escrow(_new);\n        emit SetEscrowContractRef(msg.sender, old, _new);\n    }\n\n    /**\n    * @dev Upgrability: Allow the old InstructionsProvider instance\n    * to transfer the Escrow ownership to the new instance\n    * @param _address Address of the new InstructionsProvider instance\n    */\n    function transferEscrow(address _address) external onlyOwner {\n        escrowInstance.transferOwnership(_address);\n        //escrowInstance = Escrow(address(0));\n    }\n\n    /**\n    * @dev Escrow: Returns msg.sender balance\n    * @return uint Balance of msg.sender\n    */\n    function getBalance() public view returns (uint) {\n        uint deposits = escrowInstance.depositsOf(msg.sender);\n        return deposits;\n    }\n\n    /**\n    * @dev msg.sender withdraws his total balance\n    *      Modifier hasBalance: msg.sender must have enough balance in the escrow\n    */\n    function withdraw(address _from) external onlyProxy {\n        require(escrowInstance.depositsOf(_from)>0, \"InstructionsProvider : Not enough balance\");\n        escrowInstance.withdraw(payable(_from));\n    }\n\n    /**\n    * @dev Checks if the msg.value is bigger than the param\n    * @param _msgValue Message value\n    * @param _comparisonValue Value used for comparison\n    * @return Returns true if the message value is bigger than the param\n    */\n    function _ifMsgValueBigger(uint _msgValue, uint _comparisonValue) public view onlyInterpreter returns (bool) {\n        return (_msgValue > _comparisonValue);\n    }\n    \n    /**\n     * @dev Escrow: Deposit msg.value to the _to address\n     * @param _to The address to which we deposit ETH\n     */\n    function _transfer(address _to) public payable onlyInterpreter {\n        escrowInstance.deposit{value:msg.value}(_to);\n    }\n\n    /* OVERRIDE & BLOCK UNUSED INHERITED FUNCTIONS */\n\n    /**\n    * @dev Block OpenZeppelin Ownable.renounceOwnership\n    * @notice Will always revert\n    */ \n    function renounceOwnership() public pure override {\n        revert('Contract cannot be revoked');\n    }\n}",
  "sourcePath": "/home/shakalee/Documents/Consensys/PROJOT-v0/contracts/InstructionsProvider.sol",
  "compiler": {
    "name": "solc",
    "version": "0.8.9+commit.e5eed63a.Emscripten.clang"
  },
  "schemaVersion": "3.4.3",
  "updatedAt": "2021-12-21T17:58:34.551Z",
  "networkType": "ethereum",
  "devdoc": {
    "events": {
      "SetEscrowContractRef(address,address,address)": {
        "details": "Event emitted when the Escrow contract reference is changed",
        "params": {
          "_from": "Caller address",
          "_new": "New address of the Escrow contract",
          "_old": "Old address of the Escrow contract"
        }
      },
      "SetInterpreterContractRef(address,address,address)": {
        "details": "Event emitted when the Interpreter contract reference is changed",
        "params": {
          "_from": "Caller address",
          "_new": "New address of the Interpreter contract",
          "_old": "Old address of the Interpreter contract"
        }
      }
    },
    "kind": "dev",
    "methods": {
      "_ifMsgValueBigger(uint256,uint256)": {
        "details": "Checks if the msg.value is bigger than the param",
        "params": {
          "_comparisonValue": "Value used for comparison",
          "_msgValue": "Message value"
        },
        "returns": {
          "_0": "Returns true if the message value is bigger than the param"
        }
      },
      "_transfer(address)": {
        "details": "Escrow: Deposit msg.value to the _to address",
        "params": {
          "_to": "The address to which we deposit ETH"
        }
      },
      "getBalance()": {
        "details": "Escrow: Returns msg.sender balance",
        "returns": {
          "_0": "uint Balance of msg.sender"
        }
      },
      "owner()": {
        "details": "Returns the address of the current owner."
      },
      "renounceOwnership()": {
        "details": "Block OpenZeppelin Ownable.renounceOwnership"
      },
      "setEscrowContractRef(address)": {
        "details": "Sets the Escrow instance. Emits a SetEscrowInstance event",
        "params": {
          "_new": "Address of the Escrow contract"
        }
      },
      "setInterpreterContractRef(address)": {
        "details": "Sets the Interpreter contract reference. Emits a SetInterpreterInstance event",
        "params": {
          "_new": "Address of the Interpreter contract"
        }
      },
      "setProxyInstanceRef(address)": {
        "details": "Sets the Interpreter contract reference. Emits a SetInterpreterInstance event",
        "params": {
          "_address": "Address of the Interpreter contract"
        }
      },
      "transferEscrow(address)": {
        "details": "Upgrability: Allow the old InstructionsProvider instance to transfer the Escrow ownership to the new instance",
        "params": {
          "_address": "Address of the new InstructionsProvider instance"
        }
      },
      "transferOwnership(address)": {
        "details": "Transfers ownership of the contract to a new account (`newOwner`). Can only be called by the current owner."
      },
      "withdraw(address)": {
        "details": "msg.sender withdraws his total balance      Modifier hasBalance: msg.sender must have enough balance in the escrow"
      }
    },
    "stateVariables": {
      "escrowInstance": {
        "details": "OpenZeppelin Escrow contract reference"
      },
      "interpreterContractRef": {
        "details": "Interpreter contract reference"
      },
      "proxyInstanceRef": {
        "details": "Proxy instance reference"
      }
    },
    "title": "Instructions Provider contract",
    "version": 1
  },
  "userdoc": {
    "kind": "user",
    "methods": {
      "renounceOwnership()": {
        "notice": "Will always revert"
      }
    },
    "notice": "This contract is responsible for storing the  implementations of the instructions supported used in  the Interpreter.InterpretArticle low level calls",
    "version": 1
  }
}