{
  "contractName": "InstructionsProvider",
  "abi": [
    {
      "inputs": [
        {
          "internalType": "address",
          "name": "_address",
          "type": "address"
        }
      ],
      "stateMutability": "nonpayable",
      "type": "constructor"
    },
    {
      "anonymous": false,
      "inputs": [
        {
          "indexed": true,
          "internalType": "address",
          "name": "previousOwner",
          "type": "address"
        },
        {
          "indexed": true,
          "internalType": "address",
          "name": "newOwner",
          "type": "address"
        }
      ],
      "name": "OwnershipTransferred",
      "type": "event"
    },
    {
      "anonymous": false,
      "inputs": [
        {
          "indexed": false,
          "internalType": "address",
          "name": "_from",
          "type": "address"
        },
        {
          "indexed": false,
          "internalType": "address",
          "name": "_new",
          "type": "address"
        }
      ],
      "name": "SetInterpreterInstance",
      "type": "event"
    },
    {
      "anonymous": false,
      "inputs": [
        {
          "indexed": false,
          "internalType": "address",
          "name": "_from",
          "type": "address"
        },
        {
          "indexed": false,
          "internalType": "address",
          "name": "_to",
          "type": "address"
        },
        {
          "indexed": false,
          "internalType": "uint256",
          "name": "_success",
          "type": "uint256"
        }
      ],
      "name": "_CALLBACK",
      "type": "event"
    },
    {
      "inputs": [],
      "name": "owner",
      "outputs": [
        {
          "internalType": "address",
          "name": "",
          "type": "address"
        }
      ],
      "stateMutability": "view",
      "type": "function",
      "constant": true
    },
    {
      "inputs": [],
      "name": "renounceOwnership",
      "outputs": [],
      "stateMutability": "nonpayable",
      "type": "function"
    },
    {
      "inputs": [
        {
          "internalType": "address",
          "name": "newOwner",
          "type": "address"
        }
      ],
      "name": "transferOwnership",
      "outputs": [],
      "stateMutability": "nonpayable",
      "type": "function"
    },
    {
      "inputs": [
        {
          "internalType": "address",
          "name": "_address",
          "type": "address"
        }
      ],
      "name": "setInterpreterInstance",
      "outputs": [],
      "stateMutability": "nonpayable",
      "type": "function"
    },
    {
      "inputs": [
        {
          "internalType": "bool",
          "name": "_value",
          "type": "bool"
        }
      ],
      "name": "_test",
      "outputs": [
        {
          "internalType": "bool",
          "name": "",
          "type": "bool"
        }
      ],
      "stateMutability": "payable",
      "type": "function",
      "payable": true
    },
    {
      "inputs": [
        {
          "internalType": "address",
          "name": "_address1",
          "type": "address"
        },
        {
          "internalType": "address",
          "name": "_address2",
          "type": "address"
        }
      ],
      "name": "_ifAddress",
      "outputs": [
        {
          "internalType": "bool",
          "name": "",
          "type": "bool"
        }
      ],
      "stateMutability": "nonpayable",
      "type": "function"
    },
    {
      "inputs": [
        {
          "internalType": "address",
          "name": "_to",
          "type": "address"
        }
      ],
      "name": "_transferExternal",
      "outputs": [],
      "stateMutability": "payable",
      "type": "function",
      "payable": true
    },
    {
      "inputs": [
        {
          "internalType": "address",
          "name": "_to",
          "type": "address"
        }
      ],
      "name": "depositsOf",
      "outputs": [
        {
          "internalType": "uint256",
          "name": "",
          "type": "uint256"
        }
      ],
      "stateMutability": "view",
      "type": "function",
      "constant": true
    },
    {
      "inputs": [],
      "name": "withdraw",
      "outputs": [],
      "stateMutability": "nonpayable",
      "type": "function"
    }
  ],
  "bytecode": "0x60806040523480156200001157600080fd5b506040516200204a3803806200204a833981810160405281019062000037919062000356565b620000576200004b620000db60201b60201c565b620000e360201b60201c565b6040516200006590620002de565b604051809103906000f08015801562000082573d6000803e3d6000fd5b50600260006101000a81548173ffffffffffffffffffffffffffffffffffffffff021916908373ffffffffffffffffffffffffffffffffffffffff160217905550620000d481620001a760201b60201c565b5062000449565b600033905090565b60008060009054906101000a900473ffffffffffffffffffffffffffffffffffffffff169050816000806101000a81548173ffffffffffffffffffffffffffffffffffffffff021916908373ffffffffffffffffffffffffffffffffffffffff1602179055508173ffffffffffffffffffffffffffffffffffffffff168173ffffffffffffffffffffffffffffffffffffffff167f8be0079c531659141344cd1fd0a4f28419497f9722a3daafe3b4186f6b6457e060405160405180910390a35050565b620001b7620000db60201b60201c565b73ffffffffffffffffffffffffffffffffffffffff16620001dd620002b560201b60201c565b73ffffffffffffffffffffffffffffffffffffffff161462000236576040517f08c379a00000000000000000000000000000000000000000000000000000000081526004016200022d90620003e9565b60405180910390fd5b80600160006101000a81548173ffffffffffffffffffffffffffffffffffffffff021916908373ffffffffffffffffffffffffffffffffffffffff1602179055507facbecf3cfa46c6aaac8de83b47902512610e266d3c2ea0758a569cf92b32e3783382604051620002aa9291906200041c565b60405180910390a150565b60008060009054906101000a900473ffffffffffffffffffffffffffffffffffffffff16905090565b610d16806200133483390190565b600080fd5b600073ffffffffffffffffffffffffffffffffffffffff82169050919050565b60006200031e82620002f1565b9050919050565b620003308162000311565b81146200033c57600080fd5b50565b600081519050620003508162000325565b92915050565b6000602082840312156200036f576200036e620002ec565b5b60006200037f848285016200033f565b91505092915050565b600082825260208201905092915050565b7f4f776e61626c653a2063616c6c6572206973206e6f7420746865206f776e6572600082015250565b6000620003d160208362000388565b9150620003de8262000399565b602082019050919050565b600060208201905081810360008301526200040481620003c2565b9050919050565b620004168162000311565b82525050565b60006040820190506200043360008301856200040b565b6200044260208301846200040b565b9392505050565b610edb80620004596000396000f3fe6080604052600436106100865760003560e01c80638da5cb5b116100595780638da5cb5b14610126578063c7ed924e14610151578063cdf6712c1461016d578063e3a9db1a14610196578063f2fde38b146101d357610086565b80633ccfd60b1461008b5780634c0133d2146100a2578063715018a6146100d257806383b5b38b146100e9575b600080fd5b34801561009757600080fd5b506100a06101fc565b005b6100bc60048036038101906100b79190610a04565b6102d6565b6040516100c99190610a40565b60405180910390f35b3480156100de57600080fd5b506100e7610370565b005b3480156100f557600080fd5b50610110600480360381019061010b9190610ab9565b6103f8565b60405161011d9190610a40565b60405180910390f35b34801561013257600080fd5b5061013b6104fe565b6040516101489190610b08565b60405180910390f35b61016b60048036038101906101669190610b23565b610527565b005b34801561017957600080fd5b50610194600480360381019061018f9190610b23565b6105c4565b005b3480156101a257600080fd5b506101bd60048036038101906101b89190610b23565b6106bd565b6040516101ca9190610b69565b60405180910390f35b3480156101df57600080fd5b506101fa60048036038101906101f59190610b23565b610771565b005b6000610207336106bd565b11610247576040517f08c379a000000000000000000000000000000000000000000000000000000000815260040161023e90610be1565b60405180910390fd5b600260009054906101000a900473ffffffffffffffffffffffffffffffffffffffff1673ffffffffffffffffffffffffffffffffffffffff166351cff8d9336040518263ffffffff1660e01b81526004016102a29190610c22565b600060405180830381600087803b1580156102bc57600080fd5b505af11580156102d0573d6000803e3d6000fd5b50505050565b6000600160009054906101000a900473ffffffffffffffffffffffffffffffffffffffff1673ffffffffffffffffffffffffffffffffffffffff163373ffffffffffffffffffffffffffffffffffffffff1614610368576040517f08c379a000000000000000000000000000000000000000000000000000000000815260040161035f90610c89565b60405180910390fd5b819050919050565b610378610869565b73ffffffffffffffffffffffffffffffffffffffff166103966104fe565b73ffffffffffffffffffffffffffffffffffffffff16146103ec576040517f08c379a00000000000000000000000000000000000000000000000000000000081526004016103e390610cf5565b60405180910390fd5b6103f66000610871565b565b6000600160009054906101000a900473ffffffffffffffffffffffffffffffffffffffff1673ffffffffffffffffffffffffffffffffffffffff163373ffffffffffffffffffffffffffffffffffffffff161461048a576040517f08c379a000000000000000000000000000000000000000000000000000000000815260040161048190610c89565b60405180910390fd5b7f567ef35cd324c0e5d9f1ef6624ccb48ad97a4f072ef249eb34cf9b99c47bc44583836103096040516104bf93929190610d5a565b60405180910390a18173ffffffffffffffffffffffffffffffffffffffff168373ffffffffffffffffffffffffffffffffffffffff1614905092915050565b60008060009054906101000a900473ffffffffffffffffffffffffffffffffffffffff16905090565b600160009054906101000a900473ffffffffffffffffffffffffffffffffffffffff1673ffffffffffffffffffffffffffffffffffffffff163373ffffffffffffffffffffffffffffffffffffffff16146105b7576040517f08c379a00000000000000000000000000000000000000000000000000000000081526004016105ae90610c89565b60405180910390fd5b6105c18134610935565b50565b6105cc610869565b73ffffffffffffffffffffffffffffffffffffffff166105ea6104fe565b73ffffffffffffffffffffffffffffffffffffffff1614610640576040517f08c379a000000000000000000000000000000000000000000000000000000000815260040161063790610cf5565b60405180910390fd5b80600160006101000a81548173ffffffffffffffffffffffffffffffffffffffff021916908373ffffffffffffffffffffffffffffffffffffffff1602179055507facbecf3cfa46c6aaac8de83b47902512610e266d3c2ea0758a569cf92b32e37833826040516106b2929190610d91565b60405180910390a150565b6000600260009054906101000a900473ffffffffffffffffffffffffffffffffffffffff1673ffffffffffffffffffffffffffffffffffffffff1663e3a9db1a836040518263ffffffff1660e01b815260040161071a9190610b08565b60206040518083038186803b15801561073257600080fd5b505afa158015610746573d6000803e3d6000fd5b505050506040513d601f19601f8201168201806040525081019061076a9190610de6565b9050919050565b610779610869565b73ffffffffffffffffffffffffffffffffffffffff166107976104fe565b73ffffffffffffffffffffffffffffffffffffffff16146107ed576040517f08c379a00000000000000000000000000000000000000000000000000000000081526004016107e490610cf5565b60405180910390fd5b600073ffffffffffffffffffffffffffffffffffffffff168173ffffffffffffffffffffffffffffffffffffffff16141561085d576040517f08c379a000000000000000000000000000000000000000000000000000000000815260040161085490610e85565b60405180910390fd5b61086681610871565b50565b600033905090565b60008060009054906101000a900473ffffffffffffffffffffffffffffffffffffffff169050816000806101000a81548173ffffffffffffffffffffffffffffffffffffffff021916908373ffffffffffffffffffffffffffffffffffffffff1602179055508173ffffffffffffffffffffffffffffffffffffffff168173ffffffffffffffffffffffffffffffffffffffff167f8be0079c531659141344cd1fd0a4f28419497f9722a3daafe3b4186f6b6457e060405160405180910390a35050565b600260009054906101000a900473ffffffffffffffffffffffffffffffffffffffff1673ffffffffffffffffffffffffffffffffffffffff1663f340fa0182846040518363ffffffff1660e01b81526004016109919190610b08565b6000604051808303818588803b1580156109aa57600080fd5b505af11580156109be573d6000803e3d6000fd5b50505050505050565b600080fd5b60008115159050919050565b6109e1816109cc565b81146109ec57600080fd5b50565b6000813590506109fe816109d8565b92915050565b600060208284031215610a1a57610a196109c7565b5b6000610a28848285016109ef565b91505092915050565b610a3a816109cc565b82525050565b6000602082019050610a556000830184610a31565b92915050565b600073ffffffffffffffffffffffffffffffffffffffff82169050919050565b6000610a8682610a5b565b9050919050565b610a9681610a7b565b8114610aa157600080fd5b50565b600081359050610ab381610a8d565b92915050565b60008060408385031215610ad057610acf6109c7565b5b6000610ade85828601610aa4565b9250506020610aef85828601610aa4565b9150509250929050565b610b0281610a7b565b82525050565b6000602082019050610b1d6000830184610af9565b92915050565b600060208284031215610b3957610b386109c7565b5b6000610b4784828501610aa4565b91505092915050565b6000819050919050565b610b6381610b50565b82525050565b6000602082019050610b7e6000830184610b5a565b92915050565b600082825260208201905092915050565b7f4e6f7420656e6f7567682062616c616e63650000000000000000000000000000600082015250565b6000610bcb601283610b84565b9150610bd682610b95565b602082019050919050565b60006020820190508181036000830152610bfa81610bbe565b9050919050565b6000610c0c82610a5b565b9050919050565b610c1c81610c01565b82525050565b6000602082019050610c376000830184610c13565b92915050565b7f43616c6c6572206973206e6f742074686520496e746572707265746572000000600082015250565b6000610c73601d83610b84565b9150610c7e82610c3d565b602082019050919050565b60006020820190508181036000830152610ca281610c66565b9050919050565b7f4f776e61626c653a2063616c6c6572206973206e6f7420746865206f776e6572600082015250565b6000610cdf602083610b84565b9150610cea82610ca9565b602082019050919050565b60006020820190508181036000830152610d0e81610cd2565b9050919050565b6000819050919050565b6000819050919050565b6000610d44610d3f610d3a84610d15565b610d1f565b610b50565b9050919050565b610d5481610d29565b82525050565b6000606082019050610d6f6000830186610af9565b610d7c6020830185610af9565b610d896040830184610d4b565b949350505050565b6000604082019050610da66000830185610af9565b610db36020830184610af9565b9392505050565b610dc381610b50565b8114610dce57600080fd5b50565b600081519050610de081610dba565b92915050565b600060208284031215610dfc57610dfb6109c7565b5b6000610e0a84828501610dd1565b91505092915050565b7f4f776e61626c653a206e6577206f776e657220697320746865207a65726f206160008201527f6464726573730000000000000000000000000000000000000000000000000000602082015250565b6000610e6f602683610b84565b9150610e7a82610e13565b604082019050919050565b60006020820190508181036000830152610e9e81610e62565b905091905056fea2646970667358221220a0ba18f23bb893210dfae5088d872bcc1229ac3b2b3c94b7818aae835ff9355a64736f6c63430008090033608060405234801561001057600080fd5b5061002d61002261003260201b60201c565b61003a60201b60201c565b6100fe565b600033905090565b60008060009054906101000a900473ffffffffffffffffffffffffffffffffffffffff169050816000806101000a81548173ffffffffffffffffffffffffffffffffffffffff021916908373ffffffffffffffffffffffffffffffffffffffff1602179055508173ffffffffffffffffffffffffffffffffffffffff168173ffffffffffffffffffffffffffffffffffffffff167f8be0079c531659141344cd1fd0a4f28419497f9722a3daafe3b4186f6b6457e060405160405180910390a35050565b610c098061010d6000396000f3fe6080604052600436106100555760003560e01c806351cff8d91461005a578063715018a6146100835780638da5cb5b1461009a578063e3a9db1a146100c5578063f2fde38b14610102578063f340fa011461012b575b600080fd5b34801561006657600080fd5b50610081600480360381019061007c9190610805565b610147565b005b34801561008f57600080fd5b506100986102c7565b005b3480156100a657600080fd5b506100af61034f565b6040516100bc9190610853565b60405180910390f35b3480156100d157600080fd5b506100ec60048036038101906100e7919061089a565b610378565b6040516100f991906108e0565b60405180910390f35b34801561010e57600080fd5b506101296004803603810190610124919061089a565b6103c1565b005b6101456004803603810190610140919061089a565b6104b9565b005b61014f6105e2565b73ffffffffffffffffffffffffffffffffffffffff1661016d61034f565b73ffffffffffffffffffffffffffffffffffffffff16146101c3576040517f08c379a00000000000000000000000000000000000000000000000000000000081526004016101ba90610958565b60405180910390fd5b6000600160008373ffffffffffffffffffffffffffffffffffffffff1673ffffffffffffffffffffffffffffffffffffffff1681526020019081526020016000205490506000600160008473ffffffffffffffffffffffffffffffffffffffff1673ffffffffffffffffffffffffffffffffffffffff16815260200190815260200160002081905550610275818373ffffffffffffffffffffffffffffffffffffffff166105ea90919063ffffffff16565b8173ffffffffffffffffffffffffffffffffffffffff167f7084f5476618d8e60b11ef0d7d3f06914655adb8793e28ff7f018d4c76d505d5826040516102bb91906108e0565b60405180910390a25050565b6102cf6105e2565b73ffffffffffffffffffffffffffffffffffffffff166102ed61034f565b73ffffffffffffffffffffffffffffffffffffffff1614610343576040517f08c379a000000000000000000000000000000000000000000000000000000000815260040161033a90610958565b60405180910390fd5b61034d60006106de565b565b60008060009054906101000a900473ffffffffffffffffffffffffffffffffffffffff16905090565b6000600160008373ffffffffffffffffffffffffffffffffffffffff1673ffffffffffffffffffffffffffffffffffffffff168152602001908152602001600020549050919050565b6103c96105e2565b73ffffffffffffffffffffffffffffffffffffffff166103e761034f565b73ffffffffffffffffffffffffffffffffffffffff161461043d576040517f08c379a000000000000000000000000000000000000000000000000000000000815260040161043490610958565b60405180910390fd5b600073ffffffffffffffffffffffffffffffffffffffff168173ffffffffffffffffffffffffffffffffffffffff1614156104ad576040517f08c379a00000000000000000000000000000000000000000000000000000000081526004016104a4906109ea565b60405180910390fd5b6104b6816106de565b50565b6104c16105e2565b73ffffffffffffffffffffffffffffffffffffffff166104df61034f565b73ffffffffffffffffffffffffffffffffffffffff1614610535576040517f08c379a000000000000000000000000000000000000000000000000000000000815260040161052c90610958565b60405180910390fd5b600034905080600160008473ffffffffffffffffffffffffffffffffffffffff1673ffffffffffffffffffffffffffffffffffffffff16815260200190815260200160002060008282546105899190610a39565b925050819055508173ffffffffffffffffffffffffffffffffffffffff167f2da466a7b24304f47e87fa2e1e5a81b9831ce54fec19055ce277ca2f39ba42c4826040516105d691906108e0565b60405180910390a25050565b600033905090565b8047101561062d576040517f08c379a000000000000000000000000000000000000000000000000000000000815260040161062490610adb565b60405180910390fd5b60008273ffffffffffffffffffffffffffffffffffffffff168260405161065390610b2c565b60006040518083038185875af1925050503d8060008114610690576040519150601f19603f3d011682016040523d82523d6000602084013e610695565b606091505b50509050806106d9576040517f08c379a00000000000000000000000000000000000000000000000000000000081526004016106d090610bb3565b60405180910390fd5b505050565b60008060009054906101000a900473ffffffffffffffffffffffffffffffffffffffff169050816000806101000a81548173ffffffffffffffffffffffffffffffffffffffff021916908373ffffffffffffffffffffffffffffffffffffffff1602179055508173ffffffffffffffffffffffffffffffffffffffff168173ffffffffffffffffffffffffffffffffffffffff167f8be0079c531659141344cd1fd0a4f28419497f9722a3daafe3b4186f6b6457e060405160405180910390a35050565b600080fd5b600073ffffffffffffffffffffffffffffffffffffffff82169050919050565b60006107d2826107a7565b9050919050565b6107e2816107c7565b81146107ed57600080fd5b50565b6000813590506107ff816107d9565b92915050565b60006020828403121561081b5761081a6107a2565b5b6000610829848285016107f0565b91505092915050565b600061083d826107a7565b9050919050565b61084d81610832565b82525050565b60006020820190506108686000830184610844565b92915050565b61087781610832565b811461088257600080fd5b50565b6000813590506108948161086e565b92915050565b6000602082840312156108b0576108af6107a2565b5b60006108be84828501610885565b91505092915050565b6000819050919050565b6108da816108c7565b82525050565b60006020820190506108f560008301846108d1565b92915050565b600082825260208201905092915050565b7f4f776e61626c653a2063616c6c6572206973206e6f7420746865206f776e6572600082015250565b60006109426020836108fb565b915061094d8261090c565b602082019050919050565b6000602082019050818103600083015261097181610935565b9050919050565b7f4f776e61626c653a206e6577206f776e657220697320746865207a65726f206160008201527f6464726573730000000000000000000000000000000000000000000000000000602082015250565b60006109d46026836108fb565b91506109df82610978565b604082019050919050565b60006020820190508181036000830152610a03816109c7565b9050919050565b7f4e487b7100000000000000000000000000000000000000000000000000000000600052601160045260246000fd5b6000610a44826108c7565b9150610a4f836108c7565b9250827fffffffffffffffffffffffffffffffffffffffffffffffffffffffffffffffff03821115610a8457610a83610a0a565b5b828201905092915050565b7f416464726573733a20696e73756666696369656e742062616c616e6365000000600082015250565b6000610ac5601d836108fb565b9150610ad082610a8f565b602082019050919050565b60006020820190508181036000830152610af481610ab8565b9050919050565b600081905092915050565b50565b6000610b16600083610afb565b9150610b2182610b06565b600082019050919050565b6000610b3782610b09565b9150819050919050565b7f416464726573733a20756e61626c6520746f2073656e642076616c75652c207260008201527f6563697069656e74206d61792068617665207265766572746564000000000000602082015250565b6000610b9d603a836108fb565b9150610ba882610b41565b604082019050919050565b60006020820190508181036000830152610bcc81610b90565b905091905056fea26469706673582212200a394df47b424613cba825987a9bb50de82fbfaecf69ce9ca166707747ffd10e64736f6c63430008090033",
  "immutableReferences": {},
  "source": "// SPDX-License-Identifier: GPL-3.0\npragma solidity 0.8.9;\n\n/* EXTERNAL DEPENDENCIES */\nimport \"@openzeppelin/contracts/access/Ownable.sol\";\nimport \"@openzeppelin/contracts/utils/escrow/Escrow.sol\";\n\nimport \"./CommonStructs.sol\";\nimport \"./Interpreter.sol\";\n\ncontract InstructionsProvider is Ownable {\n    \n    /* STORAGE */\n    Interpreter private interpreterInstance;\n\n    // @dev used for escrow to deposit/withdraw ETH\n    Escrow private escrow;\n\n    /* EVENTS */\n    event SetInterpreterInstance(address _from, address _new);\n    event _CALLBACK(address _from, address _to, uint _success);\n\n    /* MODIFIERS */\n\n    /// @dev Called to check enough balance of an account\n    modifier hasBalance() {\n        require(depositsOf(msg.sender) > 0, \"Not enough balance\");\n        _;\n    }\n\n    /// @dev Caller should be the interpreter contract instance \n    modifier onlyInterpreter() {\n        require(msg.sender==address(interpreterInstance), \"Caller is not the Interpreter\");\n        _;\n    }\n\n    /* PUBLIC INTERFACE */\n    constructor(address _address) {\n        escrow = new Escrow();\n        setInterpreterInstance(_address);\n    }\n    \n    function setInterpreterInstance(address _address) public onlyOwner {\n        interpreterInstance = Interpreter(_address);\n        emit SetInterpreterInstance(msg.sender, _address);\n    }\n    \n    /* Instructions definitions/Articles */\n    function _test(bool _value) public payable onlyInterpreter returns(bool)  {\n        return _value;\n    }\n\n    function _ifAddress(address _address1, address _address2) public onlyInterpreter returns (bool) {\n        emit _CALLBACK(_address1, _address2, 777);\n        return (_address1 == _address2);\n    }\n\n    function _transferExternal(address _to) public payable onlyInterpreter {\n        _deposit(_to, msg.value);\n    }\n\n    /* Escrow */\n    \n    /**\n     * @dev Escrow: Deposit an _amount that can be withdrawn only by the _to address\n     * @param _to The address to which we deposit ETH\n     * @param _amount The amount to deposit\n     */\n    function _deposit(address _to, uint256 _amount) internal {\n        escrow.deposit{value: _amount}(_to);\n    }\n\n    /**\n     * @dev Escrow: Returns the total amount the address _to can withdrawn\n     * @param _to The address for which we query the balance\n     */\n    function depositsOf(address _to) public view returns (uint256) {\n        return escrow.depositsOf(_to);\n    }\n\n    /**\n     * @dev Withdraw the total balance\n     * Modifiers:\n     * - hasBalance: msg.sender must have enough balance in the escrow\n     */\n    function withdraw() public hasBalance {\n        escrow.withdraw(payable(msg.sender));\n    }\n    \n}",
  "sourcePath": "/home/shakalee/Documents/Consensys/PROJOT-v0/contracts/InstructionsProvider.sol",
  "compiler": {
    "name": "solc",
    "version": "0.8.9+commit.e5eed63a.Emscripten.clang"
  },
  "schemaVersion": "3.4.3",
  "updatedAt": "2021-11-20T10:33:18.145Z",
  "networkType": "ethereum",
  "devdoc": {
    "kind": "dev",
    "methods": {
      "depositsOf(address)": {
        "details": "Escrow: Returns the total amount the address _to can withdrawn",
        "params": {
          "_to": "The address for which we query the balance"
        }
      },
      "owner()": {
        "details": "Returns the address of the current owner."
      },
      "renounceOwnership()": {
        "details": "Leaves the contract without owner. It will not be possible to call `onlyOwner` functions anymore. Can only be called by the current owner. NOTE: Renouncing ownership will leave the contract without an owner, thereby removing any functionality that is only available to the owner."
      },
      "transferOwnership(address)": {
        "details": "Transfers ownership of the contract to a new account (`newOwner`). Can only be called by the current owner."
      },
      "withdraw()": {
        "details": "Withdraw the total balance Modifiers: - hasBalance: msg.sender must have enough balance in the escrow"
      }
    },
    "version": 1
  },
  "userdoc": {
    "kind": "user",
    "methods": {},
    "version": 1
  }
}