{
  "contractName": "Instructions",
  "abi": [
    {
      "anonymous": false,
      "inputs": [
        {
          "indexed": false,
          "internalType": "string",
          "name": "_instructionName",
          "type": "string"
        },
        {
          "indexed": false,
          "internalType": "enum CommonStructs.InstructionTypes",
          "name": "_instructionType",
          "type": "uint8"
        },
        {
          "indexed": false,
          "internalType": "string",
          "name": "_instructionSignature",
          "type": "string"
        }
      ],
      "name": "AddInstruction",
      "type": "event"
    },
    {
      "anonymous": false,
      "inputs": [
        {
          "indexed": true,
          "internalType": "address",
          "name": "previousOwner",
          "type": "address"
        },
        {
          "indexed": true,
          "internalType": "address",
          "name": "newOwner",
          "type": "address"
        }
      ],
      "name": "OwnershipTransferred",
      "type": "event"
    },
    {
      "inputs": [],
      "name": "owner",
      "outputs": [
        {
          "internalType": "address",
          "name": "",
          "type": "address"
        }
      ],
      "stateMutability": "view",
      "type": "function"
    },
    {
      "inputs": [
        {
          "internalType": "address",
          "name": "newOwner",
          "type": "address"
        }
      ],
      "name": "transferOwnership",
      "outputs": [],
      "stateMutability": "nonpayable",
      "type": "function"
    },
    {
      "inputs": [
        {
          "internalType": "string",
          "name": "_instructionName",
          "type": "string"
        }
      ],
      "name": "getInstruction",
      "outputs": [
        {
          "internalType": "enum CommonStructs.InstructionTypes",
          "name": "",
          "type": "uint8"
        },
        {
          "internalType": "string",
          "name": "",
          "type": "string"
        }
      ],
      "stateMutability": "view",
      "type": "function"
    },
    {
      "inputs": [
        {
          "internalType": "string",
          "name": "_instructionName",
          "type": "string"
        },
        {
          "internalType": "enum CommonStructs.InstructionTypes",
          "name": "_instructionType",
          "type": "uint8"
        },
        {
          "internalType": "string",
          "name": "_instructionSignature",
          "type": "string"
        }
      ],
      "name": "addInstruction",
      "outputs": [],
      "stateMutability": "nonpayable",
      "type": "function"
    },
    {
      "inputs": [],
      "name": "renounceOwnership",
      "outputs": [],
      "stateMutability": "pure",
      "type": "function"
    }
  ],
  "bytecode": "0x608060405234801561001057600080fd5b5061002d61002261003260201b60201c565b61003a60201b60201c565b6100fe565b600033905090565b60008060009054906101000a900473ffffffffffffffffffffffffffffffffffffffff169050816000806101000a81548173ffffffffffffffffffffffffffffffffffffffff021916908373ffffffffffffffffffffffffffffffffffffffff1602179055508173ffffffffffffffffffffffffffffffffffffffff168173ffffffffffffffffffffffffffffffffffffffff167f8be0079c531659141344cd1fd0a4f28419497f9722a3daafe3b4186f6b6457e060405160405180910390a35050565b610ca08061010d6000396000f3fe608060405234801561001057600080fd5b50600436106100575760003560e01c8063715018a61461005c57806379489e3e146100665780638da5cb5b1461008257806399b87f6c146100a0578063f2fde38b146100d1575b600080fd5b6100646100ed565b005b610080600480360381019061007b919061074f565b610128565b005b61008a61025d565b604051610097919061081b565b60405180910390f35b6100ba60048036038101906100b59190610836565b610286565b6040516100c892919061097e565b60405180910390f35b6100eb60048036038101906100e691906109da565b610369565b005b6040517f08c379a000000000000000000000000000000000000000000000000000000000815260040161011f90610a53565b60405180910390fd5b610130610461565b73ffffffffffffffffffffffffffffffffffffffff1661014e61025d565b73ffffffffffffffffffffffffffffffffffffffff16146101a4576040517f08c379a000000000000000000000000000000000000000000000000000000000815260040161019b90610abf565b60405180910390fd5b816002846040516101b59190610b1b565b908152602001604051809103902060006101000a81548160ff021916908360048111156101e5576101e461087f565b5b0217905550806001846040516101fb9190610b1b565b9081526020016040518091039020908051906020019061021c92919061052d565b507f092ebd2f16b29c262dab07f199d3837893fe8c38c96b431f64bef497d931791383838360405161025093929190610b32565b60405180910390a1505050565b60008060009054906101000a900473ffffffffffffffffffffffffffffffffffffffff16905090565b6000606060028360405161029a9190610b1b565b908152602001604051809103902060009054906101000a900460ff166001846040516102c69190610b1b565b90815260200160405180910390208080546102e090610ba6565b80601f016020809104026020016040519081016040528092919081815260200182805461030c90610ba6565b80156103595780601f1061032e57610100808354040283529160200191610359565b820191906000526020600020905b81548152906001019060200180831161033c57829003601f168201915b5050505050905091509150915091565b610371610461565b73ffffffffffffffffffffffffffffffffffffffff1661038f61025d565b73ffffffffffffffffffffffffffffffffffffffff16146103e5576040517f08c379a00000000000000000000000000000000000000000000000000000000081526004016103dc90610abf565b60405180910390fd5b600073ffffffffffffffffffffffffffffffffffffffff168173ffffffffffffffffffffffffffffffffffffffff161415610455576040517f08c379a000000000000000000000000000000000000000000000000000000000815260040161044c90610c4a565b60405180910390fd5b61045e81610469565b50565b600033905090565b60008060009054906101000a900473ffffffffffffffffffffffffffffffffffffffff169050816000806101000a81548173ffffffffffffffffffffffffffffffffffffffff021916908373ffffffffffffffffffffffffffffffffffffffff1602179055508173ffffffffffffffffffffffffffffffffffffffff168173ffffffffffffffffffffffffffffffffffffffff167f8be0079c531659141344cd1fd0a4f28419497f9722a3daafe3b4186f6b6457e060405160405180910390a35050565b82805461053990610ba6565b90600052602060002090601f01602090048101928261055b57600085556105a2565b82601f1061057457805160ff19168380011785556105a2565b828001600101855582156105a2579182015b828111156105a1578251825591602001919060010190610586565b5b5090506105af91906105b3565b5090565b5b808211156105cc5760008160009055506001016105b4565b5090565b6000604051905090565b600080fd5b600080fd5b600080fd5b600080fd5b6000601f19601f8301169050919050565b7f4e487b7100000000000000000000000000000000000000000000000000000000600052604160045260246000fd5b610637826105ee565b810181811067ffffffffffffffff82111715610656576106556105ff565b5b80604052505050565b60006106696105d0565b9050610675828261062e565b919050565b600067ffffffffffffffff821115610695576106946105ff565b5b61069e826105ee565b9050602081019050919050565b82818337600083830152505050565b60006106cd6106c88461067a565b61065f565b9050828152602081018484840111156106e9576106e86105e9565b5b6106f48482856106ab565b509392505050565b600082601f830112610711576107106105e4565b5b81356107218482602086016106ba565b91505092915050565b6005811061073757600080fd5b50565b6000813590506107498161072a565b92915050565b600080600060608486031215610768576107676105da565b5b600084013567ffffffffffffffff811115610786576107856105df565b5b610792868287016106fc565b93505060206107a38682870161073a565b925050604084013567ffffffffffffffff8111156107c4576107c36105df565b5b6107d0868287016106fc565b9150509250925092565b600073ffffffffffffffffffffffffffffffffffffffff82169050919050565b6000610805826107da565b9050919050565b610815816107fa565b82525050565b6000602082019050610830600083018461080c565b92915050565b60006020828403121561084c5761084b6105da565b5b600082013567ffffffffffffffff81111561086a576108696105df565b5b610876848285016106fc565b91505092915050565b7f4e487b7100000000000000000000000000000000000000000000000000000000600052602160045260246000fd5b600581106108bf576108be61087f565b5b50565b60008190506108d0826108ae565b919050565b60006108e0826108c2565b9050919050565b6108f0816108d5565b82525050565b600081519050919050565b600082825260208201905092915050565b60005b83811015610930578082015181840152602081019050610915565b8381111561093f576000848401525b50505050565b6000610950826108f6565b61095a8185610901565b935061096a818560208601610912565b610973816105ee565b840191505092915050565b600060408201905061099360008301856108e7565b81810360208301526109a58184610945565b90509392505050565b6109b7816107fa565b81146109c257600080fd5b50565b6000813590506109d4816109ae565b92915050565b6000602082840312156109f0576109ef6105da565b5b60006109fe848285016109c5565b91505092915050565b7f436f6e74726163742063616e6e6f74206265207265766f6b6564000000000000600082015250565b6000610a3d601a83610901565b9150610a4882610a07565b602082019050919050565b60006020820190508181036000830152610a6c81610a30565b9050919050565b7f4f776e61626c653a2063616c6c6572206973206e6f7420746865206f776e6572600082015250565b6000610aa9602083610901565b9150610ab482610a73565b602082019050919050565b60006020820190508181036000830152610ad881610a9c565b9050919050565b600081905092915050565b6000610af5826108f6565b610aff8185610adf565b9350610b0f818560208601610912565b80840191505092915050565b6000610b278284610aea565b915081905092915050565b60006060820190508181036000830152610b4c8186610945565b9050610b5b60208301856108e7565b8181036040830152610b6d8184610945565b9050949350505050565b7f4e487b7100000000000000000000000000000000000000000000000000000000600052602260045260246000fd5b60006002820490506001821680610bbe57607f821691505b60208210811415610bd257610bd1610b77565b5b50919050565b7f4f776e61626c653a206e6577206f776e657220697320746865207a65726f206160008201527f6464726573730000000000000000000000000000000000000000000000000000602082015250565b6000610c34602683610901565b9150610c3f82610bd8565b604082019050919050565b60006020820190508181036000830152610c6381610c27565b905091905056fea2646970667358221220dc28c00b76f9fc54ea68325895f3e6fe175143153c8cf86cd4873e865a152eb264736f6c63430008090033",
  "immutableReferences": {},
  "source": "// SPDX-License-Identifier: GPL-3.0\npragma solidity 0.8.9;\n\n/* INTERNAL DEPENDENCIES */\nimport \"./CommonStructs.sol\";\nimport \"./InstructionsProvider.sol\";\n\n/**\n * @title Instructions contract\n * @notice This contract is responsible for storing the dynamic instructions defined by the contract owner.\n */\n\n/**\n    An instruction has:\n        - a type that determine which parameters it accepts\n        - a signature that is used for the low level .call()\n        - a name that is used as a key to select an instruction uniquely\n*/\n\ncontract Instructions is Ownable {\n    \n    /* STORAGE VARIABLES */\n    \n    /// @dev Mapping between instruction name used in deals Articles and instruction signature used in low level .call()\n    mapping (string => string) private instructionsSignature;\n\n    /// @dev Mapping between instruction name and its type which determines how the Interpreter will run an Article\n    mapping (string => CommonStructs.InstructionTypes) private instructionsType;\n\n    /* EVENTS */\n    \n    /**\n    * @dev Event emitted when an new instruction is added/supported\n    * @param _instructionName Name of the instruction, for ex: \"IF-ADDR\"\n    * @param _instructionType Type of the instruction, for ex: \"ADDRESS_ADDRESS_R_BOOL\"\n    * @param _instructionSignature Signature of the instruction, for ex: \"_ifAddress(address, address)\"\n    */\n    event AddInstruction(string _instructionName, CommonStructs.InstructionTypes _instructionType, string _instructionSignature);\n    \n    /* PUBLIC INTERFACE */\n\n    /**\n    * @dev Returns an instruction type and signature based on its name\n    * @param _instructionName Name of the instruction, for ex: \"IF-ADDR\"\n    */\n    function getInstruction(string memory _instructionName) public view returns(CommonStructs.InstructionTypes, string memory) {\n        return (instructionsType[_instructionName], instructionsSignature[_instructionName]);\n    }\n    \n    /**\n    * @dev Add an instruction to the list of supported instructions (onlyOwner)\n    * @param _instructionName Name of the instruction, for ex: \"IF-ADDR\"\n    * @param _instructionType Type of the instruction, for ex: \"ADDRESS_ADDRESS_R_BOOL\"\n    * @param _instructionSignature Signature of the instruction, for ex: \"_ifAddress(address, address)\"\n    */\n    function addInstruction(string memory _instructionName, CommonStructs.InstructionTypes _instructionType, string memory _instructionSignature) public onlyOwner {\n        instructionsType[_instructionName] = CommonStructs.InstructionTypes(_instructionType);\n        instructionsSignature[_instructionName] = _instructionSignature;\n        emit AddInstruction(_instructionName, _instructionType, _instructionSignature);\n    }\n\n    /* OVERRIDE & BLOCK UNUSED INHERITED FUNCTIONS */\n\n    /**\n    * @dev Block OpenZeppelin Ownable.renounceOwnership\n    * @notice Will always revert\n    */ \n    function renounceOwnership() public pure override {\n        revert('Contract cannot be revoked');\n    }\n}\n",
  "sourcePath": "/home/shakalee/Documents/Consensys/PROJOT-v0/contracts/Instructions.sol",
  "compiler": {
    "name": "solc",
    "version": "0.8.9+commit.e5eed63a.Emscripten.clang"
  },
  "schemaVersion": "3.4.3",
  "updatedAt": "2021-11-21T08:19:36.737Z",
  "devdoc": {
    "events": {
      "AddInstruction(string,uint8,string)": {
        "details": "Event emitted when an new instruction is added/supported",
        "params": {
          "_instructionName": "Name of the instruction, for ex: \"IF-ADDR\"",
          "_instructionSignature": "Signature of the instruction, for ex: \"_ifAddress(address, address)\"",
          "_instructionType": "Type of the instruction, for ex: \"ADDRESS_ADDRESS_R_BOOL\""
        }
      }
    },
    "kind": "dev",
    "methods": {
      "addInstruction(string,uint8,string)": {
        "details": "Add an instruction to the list of supported instructions (onlyOwner)",
        "params": {
          "_instructionName": "Name of the instruction, for ex: \"IF-ADDR\"",
          "_instructionSignature": "Signature of the instruction, for ex: \"_ifAddress(address, address)\"",
          "_instructionType": "Type of the instruction, for ex: \"ADDRESS_ADDRESS_R_BOOL\""
        }
      },
      "getInstruction(string)": {
        "details": "Returns an instruction type and signature based on its name",
        "params": {
          "_instructionName": "Name of the instruction, for ex: \"IF-ADDR\""
        }
      },
      "owner()": {
        "details": "Returns the address of the current owner."
      },
      "renounceOwnership()": {
        "details": "Block OpenZeppelin Ownable.renounceOwnership"
      },
      "transferOwnership(address)": {
        "details": "Transfers ownership of the contract to a new account (`newOwner`). Can only be called by the current owner."
      }
    },
    "stateVariables": {
      "instructionsSignature": {
        "details": "Mapping between instruction name used in deals Articles and instruction signature used in low level .call()"
      },
      "instructionsType": {
        "details": "Mapping between instruction name and its type which determines how the Interpreter will run an Article"
      }
    },
    "version": 1
  },
  "userdoc": {
    "kind": "user",
    "methods": {
      "renounceOwnership()": {
        "notice": "Will always revert"
      }
    },
    "notice": "An instruction has: - a type that determine which parameters it accepts - a signature that is used for the low level .call() - a name that is used as a key to select an instruction uniquely",
    "version": 1
  }
}