{
  "contractName": "Interpreter",
  "abi": [
    {
      "anonymous": false,
      "inputs": [
        {
          "indexed": false,
          "internalType": "address",
          "name": "_from",
          "type": "address"
        },
        {
          "indexed": false,
          "internalType": "uint256",
          "name": "_dealId",
          "type": "uint256"
        },
        {
          "indexed": false,
          "internalType": "uint256",
          "name": "_ruleId",
          "type": "uint256"
        },
        {
          "indexed": false,
          "internalType": "uint256",
          "name": "_articleId",
          "type": "uint256"
        }
      ],
      "name": "InterpretArticle",
      "type": "event"
    },
    {
      "anonymous": false,
      "inputs": [
        {
          "indexed": true,
          "internalType": "address",
          "name": "previousOwner",
          "type": "address"
        },
        {
          "indexed": true,
          "internalType": "address",
          "name": "newOwner",
          "type": "address"
        }
      ],
      "name": "OwnershipTransferred",
      "type": "event"
    },
    {
      "anonymous": false,
      "inputs": [
        {
          "indexed": false,
          "internalType": "string",
          "name": "",
          "type": "string"
        },
        {
          "indexed": false,
          "internalType": "string",
          "name": "",
          "type": "string"
        },
        {
          "indexed": false,
          "internalType": "address",
          "name": "",
          "type": "address"
        },
        {
          "indexed": false,
          "internalType": "uint256",
          "name": "",
          "type": "uint256"
        }
      ],
      "name": "PACH",
      "type": "event"
    },
    {
      "anonymous": false,
      "inputs": [
        {
          "indexed": false,
          "internalType": "address",
          "name": "_from",
          "type": "address"
        },
        {
          "indexed": false,
          "internalType": "address",
          "name": "_old",
          "type": "address"
        },
        {
          "indexed": false,
          "internalType": "address",
          "name": "_new",
          "type": "address"
        }
      ],
      "name": "SetDealsInstance",
      "type": "event"
    },
    {
      "anonymous": false,
      "inputs": [
        {
          "indexed": false,
          "internalType": "address",
          "name": "_from",
          "type": "address"
        },
        {
          "indexed": false,
          "internalType": "address",
          "name": "_old",
          "type": "address"
        },
        {
          "indexed": false,
          "internalType": "address",
          "name": "_new",
          "type": "address"
        }
      ],
      "name": "SetInstructionsInstance",
      "type": "event"
    },
    {
      "anonymous": false,
      "inputs": [
        {
          "indexed": false,
          "internalType": "address",
          "name": "_from",
          "type": "address"
        },
        {
          "indexed": false,
          "internalType": "address",
          "name": "_old",
          "type": "address"
        },
        {
          "indexed": false,
          "internalType": "address",
          "name": "_new",
          "type": "address"
        }
      ],
      "name": "SetInstructionsProviderInstance",
      "type": "event"
    },
    {
      "anonymous": false,
      "inputs": [
        {
          "indexed": false,
          "internalType": "address",
          "name": "_from",
          "type": "address"
        },
        {
          "indexed": false,
          "internalType": "address",
          "name": "_old",
          "type": "address"
        },
        {
          "indexed": false,
          "internalType": "address",
          "name": "_new",
          "type": "address"
        }
      ],
      "name": "SetProxyContractAddress",
      "type": "event"
    },
    {
      "inputs": [],
      "name": "owner",
      "outputs": [
        {
          "internalType": "address",
          "name": "",
          "type": "address"
        }
      ],
      "stateMutability": "view",
      "type": "function",
      "constant": true
    },
    {
      "inputs": [
        {
          "internalType": "address",
          "name": "newOwner",
          "type": "address"
        }
      ],
      "name": "transferOwnership",
      "outputs": [],
      "stateMutability": "nonpayable",
      "type": "function"
    },
    {
      "inputs": [
        {
          "internalType": "address",
          "name": "_new",
          "type": "address"
        }
      ],
      "name": "setProxyContractAddress",
      "outputs": [],
      "stateMutability": "nonpayable",
      "type": "function"
    },
    {
      "inputs": [
        {
          "internalType": "address",
          "name": "_new",
          "type": "address"
        }
      ],
      "name": "setInstructionsInstance",
      "outputs": [],
      "stateMutability": "nonpayable",
      "type": "function"
    },
    {
      "inputs": [
        {
          "internalType": "address",
          "name": "_new",
          "type": "address"
        }
      ],
      "name": "setInstructionsProviderInstance",
      "outputs": [],
      "stateMutability": "nonpayable",
      "type": "function"
    },
    {
      "inputs": [
        {
          "internalType": "address",
          "name": "_new",
          "type": "address"
        }
      ],
      "name": "setDealsInstance",
      "outputs": [],
      "stateMutability": "nonpayable",
      "type": "function"
    },
    {
      "inputs": [
        {
          "internalType": "address",
          "name": "_from",
          "type": "address"
        },
        {
          "internalType": "uint256",
          "name": "_dealId",
          "type": "uint256"
        },
        {
          "internalType": "uint256",
          "name": "_ruleId",
          "type": "uint256"
        }
      ],
      "name": "interpretRule",
      "outputs": [],
      "stateMutability": "payable",
      "type": "function",
      "payable": true
    },
    {
      "inputs": [],
      "name": "renounceOwnership",
      "outputs": [],
      "stateMutability": "pure",
      "type": "function",
      "constant": true
    }
  ],
  "bytecode": "0x608060405234801561001057600080fd5b5061002d61002261003260201b60201c565b61003a60201b60201c565b6100fe565b600033905090565b60008060009054906101000a900473ffffffffffffffffffffffffffffffffffffffff169050816000806101000a81548173ffffffffffffffffffffffffffffffffffffffff021916908373ffffffffffffffffffffffffffffffffffffffff1602179055508173ffffffffffffffffffffffffffffffffffffffff168173ffffffffffffffffffffffffffffffffffffffff167f8be0079c531659141344cd1fd0a4f28419497f9722a3daafe3b4186f6b6457e060405160405180910390a35050565b6118f18061010d6000396000f3fe60806040526004361061007b5760003560e01c80638da5cb5b1161004e5780638da5cb5b14610105578063b1965ca814610130578063f2fde38b14610159578063f43fba8c146101825761007b565b8063276c997a146100805780635daa4bb9146100a9578063715018a6146100d2578063889f7d85146100e9575b600080fd5b34801561008c57600080fd5b506100a760048036038101906100a29190610f25565b6101ab565b005b3480156100b557600080fd5b506100d060048036038101906100cb9190610f25565b6102ce565b005b3480156100de57600080fd5b506100e76103f1565b005b61010360048036038101906100fe9190610f88565b61042c565b005b34801561011157600080fd5b5061011a6105b1565b6040516101279190610fea565b60405180910390f35b34801561013c57600080fd5b5061015760048036038101906101529190610f25565b6105da565b005b34801561016557600080fd5b50610180600480360381019061017b9190610f25565b6106fd565b005b34801561018e57600080fd5b506101a960048036038101906101a49190610f25565b6107f5565b005b6101b3610918565b73ffffffffffffffffffffffffffffffffffffffff166101d16105b1565b73ffffffffffffffffffffffffffffffffffffffff1614610227576040517f08c379a000000000000000000000000000000000000000000000000000000000815260040161021e90611062565b60405180910390fd5b6000600260009054906101000a900473ffffffffffffffffffffffffffffffffffffffff16905081600260006101000a81548173ffffffffffffffffffffffffffffffffffffffff021916908373ffffffffffffffffffffffffffffffffffffffff1602179055507f2ad4ed8ea23910decfecc56b180d0d6937ec03001748e4072cfe0046dd74acb83382846040516102c293929190611082565b60405180910390a15050565b6102d6610918565b73ffffffffffffffffffffffffffffffffffffffff166102f46105b1565b73ffffffffffffffffffffffffffffffffffffffff161461034a576040517f08c379a000000000000000000000000000000000000000000000000000000000815260040161034190611062565b60405180910390fd5b6000600460009054906101000a900473ffffffffffffffffffffffffffffffffffffffff16905081600460006101000a81548173ffffffffffffffffffffffffffffffffffffffff021916908373ffffffffffffffffffffffffffffffffffffffff1602179055507f917149d640b2daf4230adc393bd7ea28a06eae265d2abbe1da1d90d4361da5123382846040516103e593929190611082565b60405180910390a15050565b6040517f08c379a000000000000000000000000000000000000000000000000000000000815260040161042390611105565b60405180910390fd5b600160009054906101000a900473ffffffffffffffffffffffffffffffffffffffff1673ffffffffffffffffffffffffffffffffffffffff163373ffffffffffffffffffffffffffffffffffffffff16146104bc576040517f08c379a00000000000000000000000000000000000000000000000000000000081526004016104b390611171565b60405180910390fd5b6000600460009054906101000a900473ffffffffffffffffffffffffffffffffffffffff1673ffffffffffffffffffffffffffffffffffffffff1663fccc610f84846040518363ffffffff1660e01b815260040161051b9291906111a0565b60206040518083038186803b15801561053357600080fd5b505afa158015610547573d6000803e3d6000fd5b505050506040513d601f19601f8201168201806040525081019061056b91906111de565b905060006001905060005b828110156105a95761058a86868684610920565b915081610596576105a9565b80806105a19061123a565b915050610576565b505050505050565b60008060009054906101000a900473ffffffffffffffffffffffffffffffffffffffff16905090565b6105e2610918565b73ffffffffffffffffffffffffffffffffffffffff166106006105b1565b73ffffffffffffffffffffffffffffffffffffffff1614610656576040517f08c379a000000000000000000000000000000000000000000000000000000000815260040161064d90611062565b60405180910390fd5b6000600360009054906101000a900473ffffffffffffffffffffffffffffffffffffffff16905081600360006101000a81548173ffffffffffffffffffffffffffffffffffffffff021916908373ffffffffffffffffffffffffffffffffffffffff1602179055507fb24ef369783b0bfd4bac6b2dbb331819fa6ddbb9906e98dc61c3dc63094529093382846040516106f193929190611082565b60405180910390a15050565b610705610918565b73ffffffffffffffffffffffffffffffffffffffff166107236105b1565b73ffffffffffffffffffffffffffffffffffffffff1614610779576040517f08c379a000000000000000000000000000000000000000000000000000000000815260040161077090611062565b60405180910390fd5b600073ffffffffffffffffffffffffffffffffffffffff168173ffffffffffffffffffffffffffffffffffffffff1614156107e9576040517f08c379a00000000000000000000000000000000000000000000000000000000081526004016107e0906112f5565b60405180910390fd5b6107f281610def565b50565b6107fd610918565b73ffffffffffffffffffffffffffffffffffffffff1661081b6105b1565b73ffffffffffffffffffffffffffffffffffffffff1614610871576040517f08c379a000000000000000000000000000000000000000000000000000000000815260040161086890611062565b60405180910390fd5b6000600160009054906101000a900473ffffffffffffffffffffffffffffffffffffffff16905081600160006101000a81548173ffffffffffffffffffffffffffffffffffffffff021916908373ffffffffffffffffffffffffffffffffffffffff1602179055507f3f1217b02323e5dc4e83e1bf861d3a5c04873f7e972587684ce1dfcbbb329fa133828460405161090c93929190611082565b60405180910390a15050565b600033905090565b600080600460009054906101000a900473ffffffffffffffffffffffffffffffffffffffff1673ffffffffffffffffffffffffffffffffffffffff1663bf2510778686866040518463ffffffff1660e01b815260040161098293929190611315565b60006040518083038186803b15801561099a57600080fd5b505afa1580156109ae573d6000803e3d6000fd5b505050506040513d6000823e3d601f19601f820116820180604052508101906109d79190611585565b905060006060600260009054906101000a900473ffffffffffffffffffffffffffffffffffffffff1673ffffffffffffffffffffffffffffffffffffffff166399b87f6c84600001516040518263ffffffff1660e01b8152600401610a3c9190611612565b60006040518083038186803b158015610a5457600080fd5b505afa158015610a68573d6000803e3d6000fd5b505050506040513d6000823e3d601f19601f82011682018060405250810190610a919190611659565b8092508193505050600060016002811115610aaf57610aae6116b5565b5b836002811115610ac257610ac16116b5565b5b1415610c0d5760006060600360009054906101000a900473ffffffffffffffffffffffffffffffffffffffff1673ffffffffffffffffffffffffffffffffffffffff168487606001518d604051602401610b1d9291906116e4565b60405160208183030381529060405290604051610b3a9190611749565b60405180910390207bffffffffffffffffffffffffffffffffffffffffffffffffffffffff19166020820180517bffffffffffffffffffffffffffffffffffffffffffffffffffffffff8381831617835250505050604051610b9c91906117a7565b6000604051808303816000865af19150503d8060008114610bd9576040519150601f19603f3d011682016040523d82523d6000602084013e610bde565b606091505b508092508193505050818015610c04575080806020019051810190610c0391906117f6565b5b92505050610d5e565b600280811115610c2057610c1f6116b5565b5b836002811115610c3357610c326116b5565b5b1415610d5d5760006060600360009054906101000a900473ffffffffffffffffffffffffffffffffffffffff1673ffffffffffffffffffffffffffffffffffffffff1634858860600151604051602401610c8d9190610fea565b60405160208183030381529060405290604051610caa9190611749565b60405180910390207bffffffffffffffffffffffffffffffffffffffffffffffffffffffff19166020820180517bffffffffffffffffffffffffffffffffffffffffffffffffffffffff8381831617835250505050604051610d0c91906117a7565b60006040518083038185875af1925050503d8060008114610d49576040519150601f19603f3d011682016040523d82523d6000602084013e610d4e565b606091505b50809250819350505081925050505b5b7f5977102be6bd21fd83afd12f0ecdd364d2d921783685a3724dbde9415eb459fa89898989604051610d939493929190611823565b60405180910390a17f63adffff186f78226c799461fbcaf35a47f203a344b157e61b6867402617fd7c846000015183866060015134604051610dd89493929190611868565b60405180910390a180945050505050949350505050565b60008060009054906101000a900473ffffffffffffffffffffffffffffffffffffffff169050816000806101000a81548173ffffffffffffffffffffffffffffffffffffffff021916908373ffffffffffffffffffffffffffffffffffffffff1602179055508173ffffffffffffffffffffffffffffffffffffffff168173ffffffffffffffffffffffffffffffffffffffff167f8be0079c531659141344cd1fd0a4f28419497f9722a3daafe3b4186f6b6457e060405160405180910390a35050565b6000604051905090565b600080fd5b600080fd5b600073ffffffffffffffffffffffffffffffffffffffff82169050919050565b6000610ef282610ec7565b9050919050565b610f0281610ee7565b8114610f0d57600080fd5b50565b600081359050610f1f81610ef9565b92915050565b600060208284031215610f3b57610f3a610ebd565b5b6000610f4984828501610f10565b91505092915050565b6000819050919050565b610f6581610f52565b8114610f7057600080fd5b50565b600081359050610f8281610f5c565b92915050565b600080600060608486031215610fa157610fa0610ebd565b5b6000610faf86828701610f10565b9350506020610fc086828701610f73565b9250506040610fd186828701610f73565b9150509250925092565b610fe481610ee7565b82525050565b6000602082019050610fff6000830184610fdb565b92915050565b600082825260208201905092915050565b7f4f776e61626c653a2063616c6c6572206973206e6f7420746865206f776e6572600082015250565b600061104c602083611005565b915061105782611016565b602082019050919050565b6000602082019050818103600083015261107b8161103f565b9050919050565b60006060820190506110976000830186610fdb565b6110a46020830185610fdb565b6110b16040830184610fdb565b949350505050565b7f436f6e74726163742063616e6e6f74206265207265766f6b6564000000000000600082015250565b60006110ef601a83611005565b91506110fa826110b9565b602082019050919050565b6000602082019050818103600083015261111e816110e2565b9050919050565b7f496e7465727072657465723a204f6e6c792050726f7879206d61792063616c6c600082015250565b600061115b602083611005565b915061116682611125565b602082019050919050565b6000602082019050818103600083015261118a8161114e565b9050919050565b61119a81610f52565b82525050565b60006040820190506111b56000830185611191565b6111c26020830184611191565b9392505050565b6000815190506111d881610f5c565b92915050565b6000602082840312156111f4576111f3610ebd565b5b6000611202848285016111c9565b91505092915050565b7f4e487b7100000000000000000000000000000000000000000000000000000000600052601160045260246000fd5b600061124582610f52565b91507fffffffffffffffffffffffffffffffffffffffffffffffffffffffffffffffff8214156112785761127761120b565b5b600182019050919050565b7f4f776e61626c653a206e6577206f776e657220697320746865207a65726f206160008201527f6464726573730000000000000000000000000000000000000000000000000000602082015250565b60006112df602683611005565b91506112ea82611283565b604082019050919050565b6000602082019050818103600083015261130e816112d2565b9050919050565b600060608201905061132a6000830186611191565b6113376020830185611191565b6113446040830184611191565b949350505050565b600080fd5b6000601f19601f8301169050919050565b7f4e487b7100000000000000000000000000000000000000000000000000000000600052604160045260246000fd5b61139a82611351565b810181811067ffffffffffffffff821117156113b9576113b8611362565b5b80604052505050565b60006113cc610eb3565b90506113d88282611391565b919050565b600080fd5b600080fd5b600080fd5b600067ffffffffffffffff82111561140757611406611362565b5b61141082611351565b9050602081019050919050565b60005b8381101561143b578082015181840152602081019050611420565b8381111561144a576000848401525b50505050565b600061146361145e846113ec565b6113c2565b90508281526020810184848401111561147f5761147e6113e7565b5b61148a84828561141d565b509392505050565b600082601f8301126114a7576114a66113e2565b5b81516114b7848260208601611450565b91505092915050565b6000815190506114cf81610ef9565b92915050565b6000608082840312156114eb576114ea61134c565b5b6114f560806113c2565b9050600082015167ffffffffffffffff811115611515576115146113dd565b5b61152184828501611492565b600083015250602082015167ffffffffffffffff811115611545576115446113dd565b5b61155184828501611492565b6020830152506040611565848285016111c9565b6040830152506060611579848285016114c0565b60608301525092915050565b60006020828403121561159b5761159a610ebd565b5b600082015167ffffffffffffffff8111156115b9576115b8610ec2565b5b6115c5848285016114d5565b91505092915050565b600081519050919050565b60006115e4826115ce565b6115ee8185611005565b93506115fe81856020860161141d565b61160781611351565b840191505092915050565b6000602082019050818103600083015261162c81846115d9565b905092915050565b6003811061164157600080fd5b50565b60008151905061165381611634565b92915050565b600080604083850312156116705761166f610ebd565b5b600061167e85828601611644565b925050602083015167ffffffffffffffff81111561169f5761169e610ec2565b5b6116ab85828601611492565b9150509250929050565b7f4e487b7100000000000000000000000000000000000000000000000000000000600052602160045260246000fd5b60006040820190506116f96000830185610fdb565b6117066020830184610fdb565b9392505050565b600081905092915050565b6000611723826115ce565b61172d818561170d565b935061173d81856020860161141d565b80840191505092915050565b60006117558284611718565b915081905092915050565b600081519050919050565b600081905092915050565b600061178182611760565b61178b818561176b565b935061179b81856020860161141d565b80840191505092915050565b60006117b38284611776565b915081905092915050565b60008115159050919050565b6117d3816117be565b81146117de57600080fd5b50565b6000815190506117f0816117ca565b92915050565b60006020828403121561180c5761180b610ebd565b5b600061181a848285016117e1565b91505092915050565b60006080820190506118386000830187610fdb565b6118456020830186611191565b6118526040830185611191565b61185f6060830184611191565b95945050505050565b6000608082019050818103600083015261188281876115d9565b9050818103602083015261189681866115d9565b90506118a56040830185610fdb565b6118b26060830184611191565b9594505050505056fea26469706673582212205cb502de42118200b50cfb718c35c95cbb3a7a1b4f82b0cc6cc99af94fe961a964736f6c63430008090033",
  "immutableReferences": {},
  "source": "// SPDX-License-Identifier: GPL-3.0\npragma solidity 0.8.9;\n\n/* EXTERNAL DEPENDENCIES */\nimport \"@openzeppelin/contracts/access/Ownable.sol\";\n\n/* INTERNAL DEPENDENCIES */\nimport \"./CommonStructs.sol\";\nimport \"./Instructions.sol\";\nimport \"./Deals.sol\";\n\n/**\n * @title Interpreter contract\n * @notice This contract is responsible for interpreting a single rule\n */\n\ncontract Interpreter is Ownable {\n    \n    /* STORAGE VARIABLES */\n\n    /// @dev Proxy contract address\n    address private proxyContractAddress;\n\n    /// @dev Instructions contract reference\n    Instructions private instructionsInstance;\n\n    /// @dev InstructionsProvider contract reference\n    address private instructionsProviderInstance;\n\n    /// @dev Deals contract reference\n    Deals private dealsInstance;\n    \n    /* EVENTS */\n\n    /**\n    * @dev Event emitted when the Proxy contract address is changed\n    * @param _from Caller address\n    * @param _old Old address of the Proxy contract\n    * @param _new New address of the Proxy contract\n    */\n    event SetProxyContractAddress(address _from, address _old, address _new);\n    \n    /**\n    * @dev Event emitted when the Instructions contract reference is changed\n    * @param _from Caller address\n    * @param _old Old address of the Instructions contract\n    * @param _new New address of the Instructions contract\n    */\n    event SetInstructionsInstance(address _from, address _old, address _new);\n\n    /**\n    * @dev Event emitted when the InstructionsProvider contract reference is changed\n    * @param _from Caller address\n    * @param _old Old address of the InstructionsProvider contract\n    * @param _new New address of the InstructionsProvider contract\n    */\n    event SetInstructionsProviderInstance(address _from, address _old, address _new);\n\n    /**\n    * @dev Event emitted when the Deals contract reference is changed\n    * @param _from Caller address\n    * @param _old Old address of the Deals contract\n    * @param _new New address of the Deals contract\n    */\n    event SetDealsInstance(address _from, address _old, address _new);\n\n    /**\n    * @dev Event emitted when the Deals contract reference is changed\n    * @param _from Caller address\n    * @param _dealId Id of the deal to be executed\n    * @param _ruleId Id of the rule to be executed\n    * @param _articleId Id of the article to be executed\n    */\n    event InterpretArticle(address _from, uint _dealId, uint _ruleId, uint _articleId);\n\n    /* MODIFIERS */ \n    \n    /// @dev Modifier used to assess that the caller is the Proxy contract\n    modifier onlyProxy() {\n        require(msg.sender==proxyContractAddress, \"Interpreter: Only Proxy may call\");\n        _;\n    }\n\n    /* PUBLIC INTERFACE */\n\n    /**\n    * @dev Sets the Proxy contract reference. Emits a SetInterpreterInstance event\n    * @param _new Address of the Proxy contract\n    */\n    function setProxyContractAddress(address _new) public onlyOwner {\n        address old = proxyContractAddress;\n        proxyContractAddress = _new;\n        emit SetProxyContractAddress(msg.sender, old, _new);\n    }\n\n    /**\n    * @dev Sets the Instructions contract reference. Emits a SetInstructionsInstance event\n    * @param _new Address of the Instructions contract\n    */\n    function setInstructionsInstance(address _new) public onlyOwner {\n        address old = address(instructionsInstance);\n        instructionsInstance = Instructions(_new);\n        emit SetInstructionsInstance(msg.sender, old, _new);\n    }\n    \n    /**\n    * @dev Sets the InstructionsProvider contract reference. Emits a SetInstructionsProviderInstance event\n    * @param _new Address of the InstructionsProvider contract\n    */\n    function setInstructionsProviderInstance(address _new) public onlyOwner {\n        address old = instructionsProviderInstance;\n        instructionsProviderInstance = _new;\n        emit SetInstructionsProviderInstance(msg.sender, old, _new);\n    }\n\n    /**\n    * @dev Sets the Deals contract reference. Emits a SetDealsInstance event\n    * @param _new Address of the Deals contract\n    */\n    function setDealsInstance(address _new) public onlyOwner {\n        address old = address(dealsInstance);\n        dealsInstance = Deals(_new);\n        emit SetDealsInstance(msg.sender, old, _new);\n    }\n\n    /**\n    * @dev Interprets a rule\n    * @param _from Address of the user who initiated the call\n    * @param _dealId Id of the deal to be executed\n    * @param _ruleId Id of the rule to be executed\n    */\n    function interpretRule(address _from, uint _dealId, uint _ruleId) external payable onlyProxy() {\n        // Get all articles in rule\n        uint articlesCount = dealsInstance.getArticlesCount(_dealId, _ruleId);\n        \n        bool success = true;\n        for (uint i=0;i<articlesCount;i++) {\n            success = interpretArticle(_from, _dealId, _ruleId, i);\n            if (!success) {\n                break;\n            }\n        }\n    }\n\n    event PACH(string, string, address, uint);\n    /**\n    * @dev Interprets a rule\n    * @param _from Address of the user who initiated the call\n    * @param _dealId Id of the deal to be executed\n    * @param _ruleId Id of the rule to be executed\n    * @param _articleId Id of the article to be executed\n    */\n    function interpretArticle(address _from, uint _dealId, uint _ruleId, uint _articleId) private returns (bool) {\n        // Get Article\n        CommonStructs.Article memory article = dealsInstance.getArticle(_dealId, _ruleId, _articleId);\n\n        // Get instruction type and signature\n        CommonStructs.InstructionTypes instructionType;\n        string memory instructionSignature;\n        (instructionType, instructionSignature) = instructionsInstance.getInstruction(article.instructionName);\n\n        //> Params injection depends on the instruction type\n        \n        // CASE ADDRESS_ADDRESS_R_BOOL: pass the Article.paramAddress field\n        bool success=false;\n        if (instructionType == CommonStructs.InstructionTypes.ADDRESS_ADDRESS_R_BOOL) {\n            // Upgrability: Low level call to InstructionsProvider\n            bool _success;\n            bytes memory _result;\n            (_success, _result) = instructionsProviderInstance.call(\n                abi.encodeWithSignature(\n                    instructionSignature,\n                    article.paramAddress,\n                    _from\n                )\n            );\n            success = _success && abi.decode(_result, (bool));\n\n        // CASE ADDRESS_PAYABLE: pass the Article.paramAddress\n        } else if (instructionType == CommonStructs.InstructionTypes.ADDRESS_PAYABLE) {\n            // Upgrability: Low level call to InstructionsProvider\n            bool _success;\n            bytes memory _result;\n            \n            (_success, _result) = instructionsProviderInstance.call{value:msg.value}(\n                abi.encodeWithSignature(\n                    instructionSignature,\n                    article.paramAddress\n                )\n            );\n            success = _success;\n        }\n        \n        // Emit an event to inform the front-end that a particular article in the rule successed or not\n        emit InterpretArticle(_from, _dealId, _ruleId, _articleId);\n        emit PACH(article.instructionName, instructionSignature, article.paramAddress, msg.value);\n        return success;\n    }\n\n    /* OVERRIDE & BLOCK UNUSED INHERITED FUNCTIONS */\n\n    /**\n    * @dev Block OpenZeppelin Ownable.renounceOwnership\n    * @notice Will always revert\n    */ \n    function renounceOwnership() public pure override {\n        revert('Contract cannot be revoked');\n    }\n}",
  "sourcePath": "/home/shakalee/Documents/Consensys/PROJOT-v0/contracts/Interpreter.sol",
  "compiler": {
    "name": "solc",
    "version": "0.8.9+commit.e5eed63a.Emscripten.clang"
  },
  "schemaVersion": "3.4.3",
  "updatedAt": "2021-11-26T21:07:07.642Z",
  "networkType": "ethereum",
  "devdoc": {
    "events": {
      "InterpretArticle(address,uint256,uint256,uint256)": {
        "details": "Event emitted when the Deals contract reference is changed",
        "params": {
          "_articleId": "Id of the article to be executed",
          "_dealId": "Id of the deal to be executed",
          "_from": "Caller address",
          "_ruleId": "Id of the rule to be executed"
        }
      },
      "SetDealsInstance(address,address,address)": {
        "details": "Event emitted when the Deals contract reference is changed",
        "params": {
          "_from": "Caller address",
          "_new": "New address of the Deals contract",
          "_old": "Old address of the Deals contract"
        }
      },
      "SetInstructionsInstance(address,address,address)": {
        "details": "Event emitted when the Instructions contract reference is changed",
        "params": {
          "_from": "Caller address",
          "_new": "New address of the Instructions contract",
          "_old": "Old address of the Instructions contract"
        }
      },
      "SetInstructionsProviderInstance(address,address,address)": {
        "details": "Event emitted when the InstructionsProvider contract reference is changed",
        "params": {
          "_from": "Caller address",
          "_new": "New address of the InstructionsProvider contract",
          "_old": "Old address of the InstructionsProvider contract"
        }
      },
      "SetProxyContractAddress(address,address,address)": {
        "details": "Event emitted when the Proxy contract address is changed",
        "params": {
          "_from": "Caller address",
          "_new": "New address of the Proxy contract",
          "_old": "Old address of the Proxy contract"
        }
      }
    },
    "kind": "dev",
    "methods": {
      "interpretRule(address,uint256,uint256)": {
        "details": "Interprets a rule",
        "params": {
          "_dealId": "Id of the deal to be executed",
          "_from": "Address of the user who initiated the call",
          "_ruleId": "Id of the rule to be executed"
        }
      },
      "owner()": {
        "details": "Returns the address of the current owner."
      },
      "renounceOwnership()": {
        "details": "Block OpenZeppelin Ownable.renounceOwnership"
      },
      "setDealsInstance(address)": {
        "details": "Sets the Deals contract reference. Emits a SetDealsInstance event",
        "params": {
          "_new": "Address of the Deals contract"
        }
      },
      "setInstructionsInstance(address)": {
        "details": "Sets the Instructions contract reference. Emits a SetInstructionsInstance event",
        "params": {
          "_new": "Address of the Instructions contract"
        }
      },
      "setInstructionsProviderInstance(address)": {
        "details": "Sets the InstructionsProvider contract reference. Emits a SetInstructionsProviderInstance event",
        "params": {
          "_new": "Address of the InstructionsProvider contract"
        }
      },
      "setProxyContractAddress(address)": {
        "details": "Sets the Proxy contract reference. Emits a SetInterpreterInstance event",
        "params": {
          "_new": "Address of the Proxy contract"
        }
      },
      "transferOwnership(address)": {
        "details": "Transfers ownership of the contract to a new account (`newOwner`). Can only be called by the current owner."
      }
    },
    "stateVariables": {
      "dealsInstance": {
        "details": "Deals contract reference"
      },
      "instructionsInstance": {
        "details": "Instructions contract reference"
      },
      "instructionsProviderInstance": {
        "details": "InstructionsProvider contract reference"
      },
      "proxyContractAddress": {
        "details": "Proxy contract address"
      }
    },
    "title": "Interpreter contract",
    "version": 1
  },
  "userdoc": {
    "kind": "user",
    "methods": {
      "renounceOwnership()": {
        "notice": "Will always revert"
      }
    },
    "notice": "This contract is responsible for interpreting a single rule",
    "version": 1
  }
}