{
  "contractName": "Interpreter",
  "abi": [
    {
      "anonymous": false,
      "inputs": [
        {
          "indexed": false,
          "internalType": "address",
          "name": "_from",
          "type": "address"
        },
        {
          "indexed": false,
          "internalType": "uint256",
          "name": "_dealId",
          "type": "uint256"
        },
        {
          "indexed": false,
          "internalType": "uint256",
          "name": "_ruleId",
          "type": "uint256"
        },
        {
          "indexed": false,
          "internalType": "uint256",
          "name": "_articleId",
          "type": "uint256"
        },
        {
          "indexed": false,
          "internalType": "bool",
          "name": "_success",
          "type": "bool"
        }
      ],
      "name": "InterpretArticle",
      "type": "event"
    },
    {
      "anonymous": false,
      "inputs": [
        {
          "indexed": false,
          "internalType": "enum CommonStructs.InstructionTypes",
          "name": "_type",
          "type": "uint8"
        },
        {
          "indexed": false,
          "internalType": "string",
          "name": "_signature",
          "type": "string"
        }
      ],
      "name": "Log",
      "type": "event"
    },
    {
      "anonymous": false,
      "inputs": [
        {
          "indexed": false,
          "internalType": "string",
          "name": "_instructionName",
          "type": "string"
        },
        {
          "indexed": false,
          "internalType": "string",
          "name": "_paramStr",
          "type": "string"
        },
        {
          "indexed": false,
          "internalType": "uint256",
          "name": "_paramUInt",
          "type": "uint256"
        },
        {
          "indexed": false,
          "internalType": "address",
          "name": "_paramAddress",
          "type": "address"
        }
      ],
      "name": "LogArticle",
      "type": "event"
    },
    {
      "anonymous": false,
      "inputs": [
        {
          "indexed": false,
          "internalType": "address",
          "name": "_from",
          "type": "address"
        },
        {
          "indexed": false,
          "internalType": "address",
          "name": "_old",
          "type": "address"
        },
        {
          "indexed": false,
          "internalType": "address",
          "name": "_new",
          "type": "address"
        }
      ],
      "name": "SetDealsInstance",
      "type": "event"
    },
    {
      "anonymous": false,
      "inputs": [
        {
          "indexed": false,
          "internalType": "address",
          "name": "_from",
          "type": "address"
        },
        {
          "indexed": false,
          "internalType": "address",
          "name": "_old",
          "type": "address"
        },
        {
          "indexed": false,
          "internalType": "address",
          "name": "_new",
          "type": "address"
        }
      ],
      "name": "SetInstructionsInstance",
      "type": "event"
    },
    {
      "anonymous": false,
      "inputs": [
        {
          "indexed": false,
          "internalType": "address",
          "name": "_from",
          "type": "address"
        },
        {
          "indexed": false,
          "internalType": "address",
          "name": "_old",
          "type": "address"
        },
        {
          "indexed": false,
          "internalType": "address",
          "name": "_new",
          "type": "address"
        }
      ],
      "name": "SetInstructionsProviderInstance",
      "type": "event"
    },
    {
      "inputs": [
        {
          "internalType": "address",
          "name": "_new",
          "type": "address"
        }
      ],
      "name": "setInstructionsInstance",
      "outputs": [],
      "stateMutability": "nonpayable",
      "type": "function"
    },
    {
      "inputs": [
        {
          "internalType": "address",
          "name": "_new",
          "type": "address"
        }
      ],
      "name": "setInstructionsProviderInstance",
      "outputs": [],
      "stateMutability": "nonpayable",
      "type": "function"
    },
    {
      "inputs": [
        {
          "internalType": "address",
          "name": "_new",
          "type": "address"
        }
      ],
      "name": "setDealsInstance",
      "outputs": [],
      "stateMutability": "nonpayable",
      "type": "function"
    },
    {
      "inputs": [
        {
          "internalType": "uint256",
          "name": "_dealId",
          "type": "uint256"
        },
        {
          "internalType": "uint256",
          "name": "_ruleId",
          "type": "uint256"
        }
      ],
      "name": "interpretRule",
      "outputs": [],
      "stateMutability": "payable",
      "type": "function",
      "payable": true
    },
    {
      "inputs": [
        {
          "internalType": "uint256",
          "name": "_dealId",
          "type": "uint256"
        },
        {
          "internalType": "uint256",
          "name": "_ruleId",
          "type": "uint256"
        },
        {
          "internalType": "uint256",
          "name": "_articleId",
          "type": "uint256"
        }
      ],
      "name": "interpretArticle",
      "outputs": [
        {
          "internalType": "bool",
          "name": "",
          "type": "bool"
        }
      ],
      "stateMutability": "payable",
      "type": "function",
      "payable": true
    }
  ],
  "bytecode": "0x608060405234801561001057600080fd5b50611501806100206000396000f3fe60806040526004361061004a5760003560e01c8063276c997a1461004f5780635daa4bb914610078578063b1965ca8146100a1578063dda7b063146100ca578063e2eca5fa146100e6575b600080fd5b34801561005b57600080fd5b5061007660048036038101906100719190610c1b565b610116565b005b34801561008457600080fd5b5061009f600480360381019061009a9190610c1b565b6101bb565b005b3480156100ad57600080fd5b506100c860048036038101906100c39190610c1b565b610262565b005b6100e460048036038101906100df9190610c7e565b610309565b005b61010060048036038101906100fb9190610cbe565b6103fc565b60405161010d9190610d2c565b60405180910390f35b60008060009054906101000a900473ffffffffffffffffffffffffffffffffffffffff169050816000806101000a81548173ffffffffffffffffffffffffffffffffffffffff021916908373ffffffffffffffffffffffffffffffffffffffff1602179055507f2ad4ed8ea23910decfecc56b180d0d6937ec03001748e4072cfe0046dd74acb83382846040516101af93929190610d56565b60405180910390a15050565b6000600260009054906101000a900473ffffffffffffffffffffffffffffffffffffffff16905081600260006101000a81548173ffffffffffffffffffffffffffffffffffffffff021916908373ffffffffffffffffffffffffffffffffffffffff1602179055507f917149d640b2daf4230adc393bd7ea28a06eae265d2abbe1da1d90d4361da51233828460405161025693929190610d56565b60405180910390a15050565b6000600160009054906101000a900473ffffffffffffffffffffffffffffffffffffffff16905081600160006101000a81548173ffffffffffffffffffffffffffffffffffffffff021916908373ffffffffffffffffffffffffffffffffffffffff1602179055507fb24ef369783b0bfd4bac6b2dbb331819fa6ddbb9906e98dc61c3dc63094529093382846040516102fd93929190610d56565b60405180910390a15050565b6000600260009054906101000a900473ffffffffffffffffffffffffffffffffffffffff1673ffffffffffffffffffffffffffffffffffffffff1663fccc610f84846040518363ffffffff1660e01b8152600401610368929190610d9c565b60206040518083038186803b15801561038057600080fd5b505afa158015610394573d6000803e3d6000fd5b505050506040513d601f19601f820116820180604052508101906103b89190610dda565b905060006001905060005b828110156103f5576103d68585836103fc565b9150816103e2576103f5565b80806103ed90610e36565b9150506103c3565b5050505050565b600080600260009054906101000a900473ffffffffffffffffffffffffffffffffffffffff1673ffffffffffffffffffffffffffffffffffffffff1663bf2510778686866040518463ffffffff1660e01b815260040161045e93929190610e7f565b60006040518083038186803b15801561047657600080fd5b505afa15801561048a573d6000803e3d6000fd5b505050506040513d6000823e3d601f19601f820116820180604052508101906104b391906110ef565b90506000606060008054906101000a900473ffffffffffffffffffffffffffffffffffffffff1673ffffffffffffffffffffffffffffffffffffffff166399b87f6c84600001516040518263ffffffff1660e01b8152600401610516919061118d565b60006040518083038186803b15801561052e57600080fd5b505afa158015610542573d6000803e3d6000fd5b505050506040513d6000823e3d601f19601f8201168201806040525081019061056b91906111d4565b80925081935050507f65e40f25ac92211a0992a34efd5daa3e9518b7dbce75ac8f5060ca856982a3f882826040516105a49291906112a7565b60405180910390a16000600190506004808111156105c5576105c4611230565b5b8360048111156105d8576105d7611230565b5b14156107af5760006060600160009054906101000a900473ffffffffffffffffffffffffffffffffffffffff1673ffffffffffffffffffffffffffffffffffffffff16848760600151336040516024016106339291906112d7565b60405160208183030381529060405290604051610650919061133c565b60405180910390207bffffffffffffffffffffffffffffffffffffffffffffffffffffffff19166020820180517bffffffffffffffffffffffffffffffffffffffffffffffffffffffff83818316178352505050506040516106b2919061139a565b6000604051808303816000865af19150503d80600081146106ef576040519150601f19603f3d011682016040523d82523d6000602084013e6106f4565b606091505b50809250819350505081801561071a57508080602001905181019061071991906113dd565b5b92507f785198132e56e5ae6c1d17371208bfca4ecacd9df22b06c05882e692d462e253338b8b8b8760405161075395949392919061140a565b60405180910390a17fc51b02270f9297f07bae96fd8e444f67535dcfc3c3e88af393adf095c67504fa86600001518760200151886040015189606001516040516107a0949392919061145d565b60405180910390a15050610b9b565b600160048111156107c3576107c2611230565b5b8360048111156107d6576107d5611230565b5b14156109905760006060600160009054906101000a900473ffffffffffffffffffffffffffffffffffffffff1673ffffffffffffffffffffffffffffffffffffffff163485886060015160405160240161083091906114b0565b6040516020818303038152906040529060405161084d919061133c565b60405180910390207bffffffffffffffffffffffffffffffffffffffffffffffffffffffff19166020820180517bffffffffffffffffffffffffffffffffffffffffffffffffffffffff83818316178352505050506040516108af919061139a565b60006040518083038185875af1925050503d80600081146108ec576040519150601f19603f3d011682016040523d82523d6000602084013e6108f1565b606091505b5080925081935050508192507f785198132e56e5ae6c1d17371208bfca4ecacd9df22b06c05882e692d462e253338b8b8b8760405161093495949392919061140a565b60405180910390a17fc51b02270f9297f07bae96fd8e444f67535dcfc3c3e88af393adf095c67504fa8660000151876020015188604001518960600151604051610981949392919061145d565b60405180910390a15050610b9a565b600360048111156109a4576109a3611230565b5b8360048111156109b7576109b6611230565b5b1415610b99576000606060006001876040015114156109d557600190505b600160009054906101000a900473ffffffffffffffffffffffffffffffffffffffff1673ffffffffffffffffffffffffffffffffffffffff168582604051602401610a209190610d2c565b60405160208183030381529060405290604051610a3d919061133c565b60405180910390207bffffffffffffffffffffffffffffffffffffffffffffffffffffffff19166020820180517bffffffffffffffffffffffffffffffffffffffffffffffffffffffff8381831617835250505050604051610a9f919061139a565b6000604051808303816000865af19150503d8060008114610adc576040519150601f19603f3d011682016040523d82523d6000602084013e610ae1565b606091505b508093508194505050828015610b07575081806020019051810190610b0691906113dd565b5b93507f785198132e56e5ae6c1d17371208bfca4ecacd9df22b06c05882e692d462e253338c8c8c88604051610b4095949392919061140a565b60405180910390a17fc51b02270f9297f07bae96fd8e444f67535dcfc3c3e88af393adf095c67504fa8760000151886020015189604001518a60600151604051610b8d949392919061145d565b60405180910390a15050505b5b5b809450505050509392505050565b6000604051905090565b600080fd5b600080fd5b600073ffffffffffffffffffffffffffffffffffffffff82169050919050565b6000610be882610bbd565b9050919050565b610bf881610bdd565b8114610c0357600080fd5b50565b600081359050610c1581610bef565b92915050565b600060208284031215610c3157610c30610bb3565b5b6000610c3f84828501610c06565b91505092915050565b6000819050919050565b610c5b81610c48565b8114610c6657600080fd5b50565b600081359050610c7881610c52565b92915050565b60008060408385031215610c9557610c94610bb3565b5b6000610ca385828601610c69565b9250506020610cb485828601610c69565b9150509250929050565b600080600060608486031215610cd757610cd6610bb3565b5b6000610ce586828701610c69565b9350506020610cf686828701610c69565b9250506040610d0786828701610c69565b9150509250925092565b60008115159050919050565b610d2681610d11565b82525050565b6000602082019050610d416000830184610d1d565b92915050565b610d5081610bdd565b82525050565b6000606082019050610d6b6000830186610d47565b610d786020830185610d47565b610d856040830184610d47565b949350505050565b610d9681610c48565b82525050565b6000604082019050610db16000830185610d8d565b610dbe6020830184610d8d565b9392505050565b600081519050610dd481610c52565b92915050565b600060208284031215610df057610def610bb3565b5b6000610dfe84828501610dc5565b91505092915050565b7f4e487b7100000000000000000000000000000000000000000000000000000000600052601160045260246000fd5b6000610e4182610c48565b91507fffffffffffffffffffffffffffffffffffffffffffffffffffffffffffffffff821415610e7457610e73610e07565b5b600182019050919050565b6000606082019050610e946000830186610d8d565b610ea16020830185610d8d565b610eae6040830184610d8d565b949350505050565b600080fd5b6000601f19601f8301169050919050565b7f4e487b7100000000000000000000000000000000000000000000000000000000600052604160045260246000fd5b610f0482610ebb565b810181811067ffffffffffffffff82111715610f2357610f22610ecc565b5b80604052505050565b6000610f36610ba9565b9050610f428282610efb565b919050565b600080fd5b600080fd5b600080fd5b600067ffffffffffffffff821115610f7157610f70610ecc565b5b610f7a82610ebb565b9050602081019050919050565b60005b83811015610fa5578082015181840152602081019050610f8a565b83811115610fb4576000848401525b50505050565b6000610fcd610fc884610f56565b610f2c565b905082815260208101848484011115610fe957610fe8610f51565b5b610ff4848285610f87565b509392505050565b600082601f83011261101157611010610f4c565b5b8151611021848260208601610fba565b91505092915050565b60008151905061103981610bef565b92915050565b60006080828403121561105557611054610eb6565b5b61105f6080610f2c565b9050600082015167ffffffffffffffff81111561107f5761107e610f47565b5b61108b84828501610ffc565b600083015250602082015167ffffffffffffffff8111156110af576110ae610f47565b5b6110bb84828501610ffc565b60208301525060406110cf84828501610dc5565b60408301525060606110e38482850161102a565b60608301525092915050565b60006020828403121561110557611104610bb3565b5b600082015167ffffffffffffffff81111561112357611122610bb8565b5b61112f8482850161103f565b91505092915050565b600081519050919050565b600082825260208201905092915050565b600061115f82611138565b6111698185611143565b9350611179818560208601610f87565b61118281610ebb565b840191505092915050565b600060208201905081810360008301526111a78184611154565b905092915050565b600581106111bc57600080fd5b50565b6000815190506111ce816111af565b92915050565b600080604083850312156111eb576111ea610bb3565b5b60006111f9858286016111bf565b925050602083015167ffffffffffffffff81111561121a57611219610bb8565b5b61122685828601610ffc565b9150509250929050565b7f4e487b7100000000000000000000000000000000000000000000000000000000600052602160045260246000fd5b600581106112705761126f611230565b5b50565b60008190506112818261125f565b919050565b600061129182611273565b9050919050565b6112a181611286565b82525050565b60006040820190506112bc6000830185611298565b81810360208301526112ce8184611154565b90509392505050565b60006040820190506112ec6000830185610d47565b6112f96020830184610d47565b9392505050565b600081905092915050565b600061131682611138565b6113208185611300565b9350611330818560208601610f87565b80840191505092915050565b6000611348828461130b565b915081905092915050565b600081519050919050565b600081905092915050565b600061137482611353565b61137e818561135e565b935061138e818560208601610f87565b80840191505092915050565b60006113a68284611369565b915081905092915050565b6113ba81610d11565b81146113c557600080fd5b50565b6000815190506113d7816113b1565b92915050565b6000602082840312156113f3576113f2610bb3565b5b6000611401848285016113c8565b91505092915050565b600060a08201905061141f6000830188610d47565b61142c6020830187610d8d565b6114396040830186610d8d565b6114466060830185610d8d565b6114536080830184610d1d565b9695505050505050565b600060808201905081810360008301526114778187611154565b9050818103602083015261148b8186611154565b905061149a6040830185610d8d565b6114a76060830184610d47565b95945050505050565b60006020820190506114c56000830184610d47565b9291505056fea2646970667358221220a64603ecd7df07f7981a0ca241bab89b09e6cef31b11e1c19b7cb9c5013e89e064736f6c63430008090033",
  "immutableReferences": {},
  "source": "// SPDX-License-Identifier: GPL-3.0\npragma solidity 0.8.9;\n\n/* INTERNAL DEPENDENCIES */\nimport \"./CommonStructs.sol\";\nimport \"./Instructions.sol\";\nimport \"./InstructionsProvider.sol\";\nimport \"./Deals.sol\";\n\n/**\n * @title Interpreter contract\n * @notice This contract is responsible for interpreting a single rule\n */\n\ncontract Interpreter {\n    \n    /* STORAGE VARIABLES */\n\n    /// @dev Instructions contract reference\n    Instructions private instructionsInstance;\n\n    /// @dev InstructionsProvider contract reference\n    InstructionsProvider private instructionsProviderInstance;\n\n    /// @dev Deals contract reference\n    Deals private dealsInstance;\n    \n    /* EVENTS */\n    \n    /**\n    * @dev Event emitted when the Instructions contract reference is changed\n    * @param _from Caller address\n    * @param _old Old address of the Instructions contract\n    * @param _new New address of the Instructions contract\n    */\n    event SetInstructionsInstance(address _from, address _old, address _new);\n\n    /**\n    * @dev Event emitted when the InstructionsProvider contract reference is changed\n    * @param _from Caller address\n    * @param _old Old address of the InstructionsProvider contract\n    * @param _new New address of the InstructionsProvider contract\n    */\n    event SetInstructionsProviderInstance(address _from, address _old, address _new);\n\n    /**\n    * @dev Event emitted when the Deals contract reference is changed\n    * @param _from Caller address\n    * @param _old Old address of the Deals contract\n    * @param _new New address of the Deals contract\n    */\n    event SetDealsInstance(address _from, address _old, address _new);\n\n    // TODO: remove the events below and adapt TCs\n    event InterpretArticle(address _from, uint _dealId, uint _ruleId, uint _articleId, bool _success);\n    event Log(CommonStructs.InstructionTypes _type, string _signature);\n    event LogArticle(string _instructionName, string _paramStr, uint _paramUInt, address _paramAddress);\n    \n    /* PUBLIC INTERFACE */\n    function setInstructionsInstance(address _new) public {\n        address old = address(instructionsInstance);\n        instructionsInstance = Instructions(_new);\n        emit SetInstructionsInstance(msg.sender, old, _new);\n    }\n    \n    function setInstructionsProviderInstance(address _new) public {\n        address old = address(instructionsProviderInstance);\n        instructionsProviderInstance = InstructionsProvider(_new);\n        emit SetInstructionsProviderInstance(msg.sender, old, _new);\n    }\n\n    function setDealsInstance(address _new) public {\n        address old = address(dealsInstance);\n        dealsInstance = Deals(_new);\n        emit SetDealsInstance(msg.sender, old, _new);\n    }\n\n    function interpretRule(uint _dealId, uint _ruleId) public payable {\n        // Get all articles in rule\n        uint articlesCount = dealsInstance.getArticlesCount(_dealId, _ruleId);\n        \n        bool success = true;\n        for (uint i=0;i<articlesCount;i++) {\n            success = interpretArticle(_dealId, _ruleId, i);\n            if (!success) {\n                break;\n            }\n        }\n    }\n\n    function interpretArticle(uint _dealId, uint _ruleId, uint _articleId) public payable returns (bool) {\n        // Get Article\n        CommonStructs.Article memory article = dealsInstance.getArticle(_dealId, _ruleId, _articleId);\n\n        // Get instruction type and signature\n        CommonStructs.InstructionTypes instructionType;\n        string memory instructionSignature;\n        (instructionType, instructionSignature) = instructionsInstance.getInstruction(article.instructionName);\n        emit Log(instructionType, instructionSignature);\n\n        //> Params injection depends on the instruction type\n        \n        // CASE ADDRESS_R_BOOL: pass the Article.paramAddress field\n        bool success=true;\n        \n        if (instructionType == CommonStructs.InstructionTypes.ADDRESS_ADDRESS_R_BOOL) {\n            // Deletagate Call to InstructionsProvider\n            bool _success;\n            bytes memory _result;\n            (_success, _result) = address(instructionsProviderInstance).call(\n                abi.encodeWithSignature(\n                    instructionSignature,\n                    article.paramAddress,\n                    msg.sender\n                )\n            );\n            success = _success && abi.decode(_result, (bool));\n            emit InterpretArticle(msg.sender, _dealId, _ruleId, _articleId, success);\n            emit LogArticle(article.instructionName, article.paramStr, article.paramUInt, article.paramAddress);\n\n        // CASE ADDRESS_UINT_PAYABLE: pass the Article.paramAddress\n        } else if (instructionType == CommonStructs.InstructionTypes.ADDRESS_UINT_PAYABLE) {\n            // Deletagate Call to InstructionsProvider\n            bool _success;\n            bytes memory _result;\n            \n            (_success, _result) = address(instructionsProviderInstance).call{value:msg.value}(\n                abi.encodeWithSignature(\n                    instructionSignature,\n                    article.paramAddress\n                )\n            );\n            \n            success = _success;\n            emit InterpretArticle(msg.sender, _dealId, _ruleId, _articleId, success);\n            emit LogArticle(article.instructionName, article.paramStr, article.paramUInt, article.paramAddress);\n\n        // CASE BOOL_PAYABLE_R_BOOL: pass the Article.paramUint\n        } else if (instructionType == CommonStructs.InstructionTypes.BOOL_PAYABLE_R_BOOL) {\n            // Deletagate Call to InstructionsProvider\n            bool _success;\n            bytes memory _result;\n            bool param = false;\n            if (article.paramUInt==1)\n                param = true;\n            (_success, _result) = address(instructionsProviderInstance).call(\n                abi.encodeWithSignature(\n                    instructionSignature,\n                    param\n                )\n            );\n            success = _success && abi.decode(_result, (bool));\n            emit InterpretArticle(msg.sender, _dealId, _ruleId, _articleId, success);\n            emit LogArticle(article.instructionName, article.paramStr, article.paramUInt, article.paramAddress);\n        }\n        \n        return success;\n    }\n\n}",
  "sourcePath": "/home/shakalee/Documents/Consensys/PROJOT-v0/contracts/Interpreter.sol",
  "compiler": {
    "name": "solc",
    "version": "0.8.9+commit.e5eed63a.Emscripten.clang"
  },
  "schemaVersion": "3.4.3",
  "updatedAt": "2021-11-20T10:33:18.163Z",
  "networkType": "ethereum",
  "devdoc": {
    "events": {
      "SetDealsInstance(address,address,address)": {
        "details": "Event emitted when the Deals contract reference is changed",
        "params": {
          "_from": "Caller address",
          "_new": "New address of the Deals contract",
          "_old": "Old address of the Deals contract"
        }
      },
      "SetInstructionsInstance(address,address,address)": {
        "details": "Event emitted when the Instructions contract reference is changed",
        "params": {
          "_from": "Caller address",
          "_new": "New address of the Instructions contract",
          "_old": "Old address of the Instructions contract"
        }
      },
      "SetInstructionsProviderInstance(address,address,address)": {
        "details": "Event emitted when the InstructionsProvider contract reference is changed",
        "params": {
          "_from": "Caller address",
          "_new": "New address of the InstructionsProvider contract",
          "_old": "Old address of the InstructionsProvider contract"
        }
      }
    },
    "kind": "dev",
    "methods": {},
    "stateVariables": {
      "dealsInstance": {
        "details": "Deals contract reference"
      },
      "instructionsInstance": {
        "details": "Instructions contract reference"
      },
      "instructionsProviderInstance": {
        "details": "InstructionsProvider contract reference"
      }
    },
    "title": "Interpreter contract",
    "version": 1
  },
  "userdoc": {
    "kind": "user",
    "methods": {},
    "notice": "This contract is responsible for interpreting a single rule",
    "version": 1
  }
}