{
  "contractName": "Interpreter",
  "abi": [
    {
      "anonymous": false,
      "inputs": [
        {
          "indexed": false,
          "internalType": "address",
          "name": "_from",
          "type": "address"
        },
        {
          "indexed": false,
          "internalType": "uint256",
          "name": "_dealId",
          "type": "uint256"
        },
        {
          "indexed": false,
          "internalType": "uint256",
          "name": "_ruleId",
          "type": "uint256"
        },
        {
          "indexed": false,
          "internalType": "uint256",
          "name": "_articleId",
          "type": "uint256"
        }
      ],
      "name": "InterpretArticle",
      "type": "event"
    },
    {
      "anonymous": false,
      "inputs": [
        {
          "indexed": true,
          "internalType": "address",
          "name": "previousOwner",
          "type": "address"
        },
        {
          "indexed": true,
          "internalType": "address",
          "name": "newOwner",
          "type": "address"
        }
      ],
      "name": "OwnershipTransferred",
      "type": "event"
    },
    {
      "anonymous": false,
      "inputs": [
        {
          "indexed": false,
          "internalType": "address",
          "name": "_from",
          "type": "address"
        },
        {
          "indexed": false,
          "internalType": "address",
          "name": "_old",
          "type": "address"
        },
        {
          "indexed": false,
          "internalType": "address",
          "name": "_new",
          "type": "address"
        }
      ],
      "name": "SetDealsInstance",
      "type": "event"
    },
    {
      "anonymous": false,
      "inputs": [
        {
          "indexed": false,
          "internalType": "address",
          "name": "_from",
          "type": "address"
        },
        {
          "indexed": false,
          "internalType": "address",
          "name": "_old",
          "type": "address"
        },
        {
          "indexed": false,
          "internalType": "address",
          "name": "_new",
          "type": "address"
        }
      ],
      "name": "SetInstructionsInstance",
      "type": "event"
    },
    {
      "anonymous": false,
      "inputs": [
        {
          "indexed": false,
          "internalType": "address",
          "name": "_from",
          "type": "address"
        },
        {
          "indexed": false,
          "internalType": "address",
          "name": "_old",
          "type": "address"
        },
        {
          "indexed": false,
          "internalType": "address",
          "name": "_new",
          "type": "address"
        }
      ],
      "name": "SetInstructionsProviderInstance",
      "type": "event"
    },
    {
      "anonymous": false,
      "inputs": [
        {
          "indexed": false,
          "internalType": "address",
          "name": "_from",
          "type": "address"
        },
        {
          "indexed": false,
          "internalType": "address",
          "name": "_old",
          "type": "address"
        },
        {
          "indexed": false,
          "internalType": "address",
          "name": "_new",
          "type": "address"
        }
      ],
      "name": "SetProxyContractAddress",
      "type": "event"
    },
    {
      "inputs": [],
      "name": "dealsInstance",
      "outputs": [
        {
          "internalType": "contract Deals",
          "name": "",
          "type": "address"
        }
      ],
      "stateMutability": "view",
      "type": "function",
      "constant": true
    },
    {
      "inputs": [],
      "name": "instructionsInstance",
      "outputs": [
        {
          "internalType": "contract Instructions",
          "name": "",
          "type": "address"
        }
      ],
      "stateMutability": "view",
      "type": "function",
      "constant": true
    },
    {
      "inputs": [],
      "name": "instructionsProviderInstance",
      "outputs": [
        {
          "internalType": "address",
          "name": "",
          "type": "address"
        }
      ],
      "stateMutability": "view",
      "type": "function",
      "constant": true
    },
    {
      "inputs": [],
      "name": "owner",
      "outputs": [
        {
          "internalType": "address",
          "name": "",
          "type": "address"
        }
      ],
      "stateMutability": "view",
      "type": "function",
      "constant": true
    },
    {
      "inputs": [],
      "name": "proxyContractAddress",
      "outputs": [
        {
          "internalType": "address",
          "name": "",
          "type": "address"
        }
      ],
      "stateMutability": "view",
      "type": "function",
      "constant": true
    },
    {
      "inputs": [
        {
          "internalType": "address",
          "name": "newOwner",
          "type": "address"
        }
      ],
      "name": "transferOwnership",
      "outputs": [],
      "stateMutability": "nonpayable",
      "type": "function"
    },
    {
      "inputs": [
        {
          "internalType": "address",
          "name": "_new",
          "type": "address"
        }
      ],
      "name": "setProxyContractAddress",
      "outputs": [],
      "stateMutability": "nonpayable",
      "type": "function"
    },
    {
      "inputs": [
        {
          "internalType": "address",
          "name": "_new",
          "type": "address"
        }
      ],
      "name": "setInstructionsInstance",
      "outputs": [],
      "stateMutability": "nonpayable",
      "type": "function"
    },
    {
      "inputs": [
        {
          "internalType": "address",
          "name": "_new",
          "type": "address"
        }
      ],
      "name": "setInstructionsProviderInstance",
      "outputs": [],
      "stateMutability": "nonpayable",
      "type": "function"
    },
    {
      "inputs": [
        {
          "internalType": "address",
          "name": "_new",
          "type": "address"
        }
      ],
      "name": "setDealsInstance",
      "outputs": [],
      "stateMutability": "nonpayable",
      "type": "function"
    },
    {
      "inputs": [
        {
          "internalType": "address",
          "name": "_from",
          "type": "address"
        },
        {
          "internalType": "uint256",
          "name": "_dealId",
          "type": "uint256"
        },
        {
          "internalType": "uint256",
          "name": "_ruleId",
          "type": "uint256"
        }
      ],
      "name": "interpretRule",
      "outputs": [],
      "stateMutability": "payable",
      "type": "function",
      "payable": true
    },
    {
      "inputs": [],
      "name": "renounceOwnership",
      "outputs": [],
      "stateMutability": "pure",
      "type": "function",
      "constant": true
    }
  ],
  "bytecode": "0x608060405234801561001057600080fd5b5061002d61002261003260201b60201c565b61003a60201b60201c565b6100fe565b600033905090565b60008060009054906101000a900473ffffffffffffffffffffffffffffffffffffffff169050816000806101000a81548173ffffffffffffffffffffffffffffffffffffffff021916908373ffffffffffffffffffffffffffffffffffffffff1602179055508173ffffffffffffffffffffffffffffffffffffffff168173ffffffffffffffffffffffffffffffffffffffff167f8be0079c531659141344cd1fd0a4f28419497f9722a3daafe3b4186f6b6457e060405160405180910390a35050565b611ca88061010d6000396000f3fe6080604052600436106100a75760003560e01c80639dff994e116100645780639dff994e14610187578063b1965ca8146101b2578063c05d93b5146101db578063cb7306b614610206578063f2fde38b14610231578063f43fba8c1461025a576100a7565b80631862a908146100ac578063276c997a146100d75780635daa4bb914610100578063715018a614610129578063889f7d85146101405780638da5cb5b1461015c575b600080fd5b3480156100b857600080fd5b506100c1610283565b6040516100ce91906110e4565b60405180910390f35b3480156100e357600080fd5b506100fe60048036038101906100f99190611151565b6102a9565b005b34801561010c57600080fd5b5061012760048036038101906101229190611151565b6103cc565b005b34801561013557600080fd5b5061013e6104ef565b005b61015a600480360381019061015591906111b4565b61052a565b005b34801561016857600080fd5b506101716106b7565b60405161017e9190611216565b60405180910390f35b34801561019357600080fd5b5061019c6106e0565b6040516101a99190611216565b60405180910390f35b3480156101be57600080fd5b506101d960048036038101906101d49190611151565b610706565b005b3480156101e757600080fd5b506101f0610829565b6040516101fd9190611216565b60405180910390f35b34801561021257600080fd5b5061021b61084f565b6040516102289190611252565b60405180910390f35b34801561023d57600080fd5b5061025860048036038101906102539190611151565b610875565b005b34801561026657600080fd5b50610281600480360381019061027c9190611151565b61096d565b005b600260009054906101000a900473ffffffffffffffffffffffffffffffffffffffff1681565b6102b1610a90565b73ffffffffffffffffffffffffffffffffffffffff166102cf6106b7565b73ffffffffffffffffffffffffffffffffffffffff1614610325576040517f08c379a000000000000000000000000000000000000000000000000000000000815260040161031c906112ca565b60405180910390fd5b6000600260009054906101000a900473ffffffffffffffffffffffffffffffffffffffff16905081600260006101000a81548173ffffffffffffffffffffffffffffffffffffffff021916908373ffffffffffffffffffffffffffffffffffffffff1602179055507f2ad4ed8ea23910decfecc56b180d0d6937ec03001748e4072cfe0046dd74acb83382846040516103c0939291906112ea565b60405180910390a15050565b6103d4610a90565b73ffffffffffffffffffffffffffffffffffffffff166103f26106b7565b73ffffffffffffffffffffffffffffffffffffffff1614610448576040517f08c379a000000000000000000000000000000000000000000000000000000000815260040161043f906112ca565b60405180910390fd5b6000600460009054906101000a900473ffffffffffffffffffffffffffffffffffffffff16905081600460006101000a81548173ffffffffffffffffffffffffffffffffffffffff021916908373ffffffffffffffffffffffffffffffffffffffff1602179055507f917149d640b2daf4230adc393bd7ea28a06eae265d2abbe1da1d90d4361da5123382846040516104e3939291906112ea565b60405180910390a15050565b6040517f08c379a00000000000000000000000000000000000000000000000000000000081526004016105219061136d565b60405180910390fd5b600160009054906101000a900473ffffffffffffffffffffffffffffffffffffffff1673ffffffffffffffffffffffffffffffffffffffff163373ffffffffffffffffffffffffffffffffffffffff16146105ba576040517f08c379a00000000000000000000000000000000000000000000000000000000081526004016105b1906113d9565b60405180910390fd5b60006005819055506000600460009054906101000a900473ffffffffffffffffffffffffffffffffffffffff1673ffffffffffffffffffffffffffffffffffffffff1663fccc610f84846040518363ffffffff1660e01b8152600401610621929190611408565b60206040518083038186803b15801561063957600080fd5b505afa15801561064d573d6000803e3d6000fd5b505050506040513d601f19601f820116820180604052508101906106719190611446565b905060006001905060005b828110156106af5761069086868684610a98565b91508161069c57600080fd5b80806106a7906114a2565b91505061067c565b505050505050565b60008060009054906101000a900473ffffffffffffffffffffffffffffffffffffffff16905090565b600160009054906101000a900473ffffffffffffffffffffffffffffffffffffffff1681565b61070e610a90565b73ffffffffffffffffffffffffffffffffffffffff1661072c6106b7565b73ffffffffffffffffffffffffffffffffffffffff1614610782576040517f08c379a0000000000000000000000000000000000000000000000000000000008152600401610779906112ca565b60405180910390fd5b6000600360009054906101000a900473ffffffffffffffffffffffffffffffffffffffff16905081600360006101000a81548173ffffffffffffffffffffffffffffffffffffffff021916908373ffffffffffffffffffffffffffffffffffffffff1602179055507fb24ef369783b0bfd4bac6b2dbb331819fa6ddbb9906e98dc61c3dc630945290933828460405161081d939291906112ea565b60405180910390a15050565b600360009054906101000a900473ffffffffffffffffffffffffffffffffffffffff1681565b600460009054906101000a900473ffffffffffffffffffffffffffffffffffffffff1681565b61087d610a90565b73ffffffffffffffffffffffffffffffffffffffff1661089b6106b7565b73ffffffffffffffffffffffffffffffffffffffff16146108f1576040517f08c379a00000000000000000000000000000000000000000000000000000000081526004016108e8906112ca565b60405180910390fd5b600073ffffffffffffffffffffffffffffffffffffffff168173ffffffffffffffffffffffffffffffffffffffff161415610961576040517f08c379a00000000000000000000000000000000000000000000000000000000081526004016109589061155d565b60405180910390fd5b61096a81610fa1565b50565b610975610a90565b73ffffffffffffffffffffffffffffffffffffffff166109936106b7565b73ffffffffffffffffffffffffffffffffffffffff16146109e9576040517f08c379a00000000000000000000000000000000000000000000000000000000081526004016109e0906112ca565b60405180910390fd5b6000600160009054906101000a900473ffffffffffffffffffffffffffffffffffffffff16905081600160006101000a81548173ffffffffffffffffffffffffffffffffffffffff021916908373ffffffffffffffffffffffffffffffffffffffff1602179055507f3f1217b02323e5dc4e83e1bf861d3a5c04873f7e972587684ce1dfcbbb329fa1338284604051610a84939291906112ea565b60405180910390a15050565b600033905090565b600080600460009054906101000a900473ffffffffffffffffffffffffffffffffffffffff1673ffffffffffffffffffffffffffffffffffffffff1663bf2510778686866040518463ffffffff1660e01b8152600401610afa9392919061157d565b60006040518083038186803b158015610b1257600080fd5b505afa158015610b26573d6000803e3d6000fd5b505050506040513d6000823e3d601f19601f82011682018060405250810190610b4f91906117ed565b905060006060600260009054906101000a900473ffffffffffffffffffffffffffffffffffffffff1673ffffffffffffffffffffffffffffffffffffffff166399b87f6c84600001516040518263ffffffff1660e01b8152600401610bb4919061187a565b60006040518083038186803b158015610bcc57600080fd5b505afa158015610be0573d6000803e3d6000fd5b505050506040513d6000823e3d601f19601f82011682018060405250810190610c0991906118c1565b8092508193505050600060016003811115610c2757610c2661191d565b5b836003811115610c3a57610c3961191d565b5b1415610d855760006060600360009054906101000a900473ffffffffffffffffffffffffffffffffffffffff1673ffffffffffffffffffffffffffffffffffffffff168487606001518d604051602401610c9592919061194c565b60405160208183030381529060405290604051610cb291906119b1565b60405180910390207bffffffffffffffffffffffffffffffffffffffffffffffffffffffff19166020820180517bffffffffffffffffffffffffffffffffffffffffffffffffffffffff8381831617835250505050604051610d149190611a0f565b6000604051808303816000865af19150503d8060008114610d51576040519150601f19603f3d011682016040523d82523d6000602084013e610d56565b606091505b508092508193505050818015610d7c575080806020019051810190610d7b9190611a5e565b5b92505050610f55565b60026003811115610d9957610d9861191d565b5b836003811115610dac57610dab61191d565b5b1415610f545760006060856040015160056000828254610dcc9190611a8b565b9250508190555060646005541115610e19576040517f08c379a0000000000000000000000000000000000000000000000000000000008152600401610e1090611b53565b60405180910390fd5b600360009054906101000a900473ffffffffffffffffffffffffffffffffffffffff1673ffffffffffffffffffffffffffffffffffffffff166064876040015134610e649190611b73565b610e6e9190611bfc565b858860600151604051602401610e849190611216565b60405160208183030381529060405290604051610ea191906119b1565b60405180910390207bffffffffffffffffffffffffffffffffffffffffffffffffffffffff19166020820180517bffffffffffffffffffffffffffffffffffffffffffffffffffffffff8381831617835250505050604051610f039190611a0f565b60006040518083038185875af1925050503d8060008114610f40576040519150601f19603f3d011682016040523d82523d6000602084013e610f45565b606091505b50809250819350505081925050505b5b7f5977102be6bd21fd83afd12f0ecdd364d2d921783685a3724dbde9415eb459fa89898989604051610f8a9493929190611c2d565b60405180910390a180945050505050949350505050565b60008060009054906101000a900473ffffffffffffffffffffffffffffffffffffffff169050816000806101000a81548173ffffffffffffffffffffffffffffffffffffffff021916908373ffffffffffffffffffffffffffffffffffffffff1602179055508173ffffffffffffffffffffffffffffffffffffffff168173ffffffffffffffffffffffffffffffffffffffff167f8be0079c531659141344cd1fd0a4f28419497f9722a3daafe3b4186f6b6457e060405160405180910390a35050565b600073ffffffffffffffffffffffffffffffffffffffff82169050919050565b6000819050919050565b60006110aa6110a56110a084611065565b611085565b611065565b9050919050565b60006110bc8261108f565b9050919050565b60006110ce826110b1565b9050919050565b6110de816110c3565b82525050565b60006020820190506110f960008301846110d5565b92915050565b6000604051905090565b600080fd5b600080fd5b600061111e82611065565b9050919050565b61112e81611113565b811461113957600080fd5b50565b60008135905061114b81611125565b92915050565b60006020828403121561116757611166611109565b5b60006111758482850161113c565b91505092915050565b6000819050919050565b6111918161117e565b811461119c57600080fd5b50565b6000813590506111ae81611188565b92915050565b6000806000606084860312156111cd576111cc611109565b5b60006111db8682870161113c565b93505060206111ec8682870161119f565b92505060406111fd8682870161119f565b9150509250925092565b61121081611113565b82525050565b600060208201905061122b6000830184611207565b92915050565b600061123c826110b1565b9050919050565b61124c81611231565b82525050565b60006020820190506112676000830184611243565b92915050565b600082825260208201905092915050565b7f4f776e61626c653a2063616c6c6572206973206e6f7420746865206f776e6572600082015250565b60006112b460208361126d565b91506112bf8261127e565b602082019050919050565b600060208201905081810360008301526112e3816112a7565b9050919050565b60006060820190506112ff6000830186611207565b61130c6020830185611207565b6113196040830184611207565b949350505050565b7f436f6e74726163742063616e6e6f74206265207265766f6b6564000000000000600082015250565b6000611357601a8361126d565b915061136282611321565b602082019050919050565b600060208201905081810360008301526113868161134a565b9050919050565b7f496e7465727072657465723a204f6e6c792050726f7879206d61792063616c6c600082015250565b60006113c360208361126d565b91506113ce8261138d565b602082019050919050565b600060208201905081810360008301526113f2816113b6565b9050919050565b6114028161117e565b82525050565b600060408201905061141d60008301856113f9565b61142a60208301846113f9565b9392505050565b60008151905061144081611188565b92915050565b60006020828403121561145c5761145b611109565b5b600061146a84828501611431565b91505092915050565b7f4e487b7100000000000000000000000000000000000000000000000000000000600052601160045260246000fd5b60006114ad8261117e565b91507fffffffffffffffffffffffffffffffffffffffffffffffffffffffffffffffff8214156114e0576114df611473565b5b600182019050919050565b7f4f776e61626c653a206e6577206f776e657220697320746865207a65726f206160008201527f6464726573730000000000000000000000000000000000000000000000000000602082015250565b600061154760268361126d565b9150611552826114eb565b604082019050919050565b600060208201905081810360008301526115768161153a565b9050919050565b600060608201905061159260008301866113f9565b61159f60208301856113f9565b6115ac60408301846113f9565b949350505050565b600080fd5b6000601f19601f8301169050919050565b7f4e487b7100000000000000000000000000000000000000000000000000000000600052604160045260246000fd5b611602826115b9565b810181811067ffffffffffffffff82111715611621576116206115ca565b5b80604052505050565b60006116346110ff565b905061164082826115f9565b919050565b600080fd5b600080fd5b600080fd5b600067ffffffffffffffff82111561166f5761166e6115ca565b5b611678826115b9565b9050602081019050919050565b60005b838110156116a3578082015181840152602081019050611688565b838111156116b2576000848401525b50505050565b60006116cb6116c684611654565b61162a565b9050828152602081018484840111156116e7576116e661164f565b5b6116f2848285611685565b509392505050565b600082601f83011261170f5761170e61164a565b5b815161171f8482602086016116b8565b91505092915050565b60008151905061173781611125565b92915050565b600060808284031215611753576117526115b4565b5b61175d608061162a565b9050600082015167ffffffffffffffff81111561177d5761177c611645565b5b611789848285016116fa565b600083015250602082015167ffffffffffffffff8111156117ad576117ac611645565b5b6117b9848285016116fa565b60208301525060406117cd84828501611431565b60408301525060606117e184828501611728565b60608301525092915050565b60006020828403121561180357611802611109565b5b600082015167ffffffffffffffff8111156118215761182061110e565b5b61182d8482850161173d565b91505092915050565b600081519050919050565b600061184c82611836565b611856818561126d565b9350611866818560208601611685565b61186f816115b9565b840191505092915050565b600060208201905081810360008301526118948184611841565b905092915050565b600481106118a957600080fd5b50565b6000815190506118bb8161189c565b92915050565b600080604083850312156118d8576118d7611109565b5b60006118e6858286016118ac565b925050602083015167ffffffffffffffff8111156119075761190661110e565b5b611913858286016116fa565b9150509250929050565b7f4e487b7100000000000000000000000000000000000000000000000000000000600052602160045260246000fd5b60006040820190506119616000830185611207565b61196e6020830184611207565b9392505050565b600081905092915050565b600061198b82611836565b6119958185611975565b93506119a5818560208601611685565b80840191505092915050565b60006119bd8284611980565b915081905092915050565b600081519050919050565b600081905092915050565b60006119e9826119c8565b6119f381856119d3565b9350611a03818560208601611685565b80840191505092915050565b6000611a1b82846119de565b915081905092915050565b60008115159050919050565b611a3b81611a26565b8114611a4657600080fd5b50565b600081519050611a5881611a32565b92915050565b600060208284031215611a7457611a73611109565b5b6000611a8284828501611a49565b91505092915050565b6000611a968261117e565b9150611aa18361117e565b9250827fffffffffffffffffffffffffffffffffffffffffffffffffffffffffffffffff03821115611ad657611ad5611473565b5b828201905092915050565b7f496e7465727072657465723a2052756c65206973207370656e64696e67206d6f60008201527f7265206d73672e76616c7565207468616e207265636569766564210000000000602082015250565b6000611b3d603b8361126d565b9150611b4882611ae1565b604082019050919050565b60006020820190508181036000830152611b6c81611b30565b9050919050565b6000611b7e8261117e565b9150611b898361117e565b9250817fffffffffffffffffffffffffffffffffffffffffffffffffffffffffffffffff0483118215151615611bc257611bc1611473565b5b828202905092915050565b7f4e487b7100000000000000000000000000000000000000000000000000000000600052601260045260246000fd5b6000611c078261117e565b9150611c128361117e565b925082611c2257611c21611bcd565b5b828204905092915050565b6000608082019050611c426000830187611207565b611c4f60208301866113f9565b611c5c60408301856113f9565b611c6960608301846113f9565b9594505050505056fea2646970667358221220666b87dcec89c52fb69eeb3eb2532df7ba9bdc42cf58cbab792db31020c378cf64736f6c63430008090033",
  "immutableReferences": {},
  "source": "// SPDX-License-Identifier: GPL-3.0\npragma solidity 0.8.9;\n\n/* EXTERNAL DEPENDENCIES */\nimport \"@openzeppelin/contracts/access/Ownable.sol\";\n\n/* INTERNAL DEPENDENCIES */\nimport \"./CommonStructs.sol\";\nimport \"./Instructions.sol\";\nimport \"./Deals.sol\";\n\n/**\n * @title Interpreter contract\n * @notice This contract is responsible for interpreting a single rule\n */\n\ncontract Interpreter is Ownable {\n    \n    /* STORAGE VARIABLES */\n\n    /// @dev Proxy contract address\n    address public proxyContractAddress;\n\n    /// @dev Instructions contract reference\n    Instructions public instructionsInstance;\n\n    /// @dev InstructionsProvider contract reference\n    address public instructionsProviderInstance;\n\n    /// @dev Deals contract reference\n    Deals public dealsInstance;\n\n    /// @dev Track the msg.value already used by the rule being currently executed\n    uint private msgValueUsed;\n    \n    /* EVENTS */\n\n    /**\n    * @dev Event emitted when the Proxy contract address is changed\n    * @param _from Caller address\n    * @param _old Old address of the Proxy contract\n    * @param _new New address of the Proxy contract\n    */\n    event SetProxyContractAddress(address _from, address _old, address _new);\n    \n    /**\n    * @dev Event emitted when the Instructions contract reference is changed\n    * @param _from Caller address\n    * @param _old Old address of the Instructions contract\n    * @param _new New address of the Instructions contract\n    */\n    event SetInstructionsInstance(address _from, address _old, address _new);\n\n    /**\n    * @dev Event emitted when the InstructionsProvider contract reference is changed\n    * @param _from Caller address\n    * @param _old Old address of the InstructionsProvider contract\n    * @param _new New address of the InstructionsProvider contract\n    */\n    event SetInstructionsProviderInstance(address _from, address _old, address _new);\n\n    /**\n    * @dev Event emitted when the Deals contract reference is changed\n    * @param _from Caller address\n    * @param _old Old address of the Deals contract\n    * @param _new New address of the Deals contract\n    */\n    event SetDealsInstance(address _from, address _old, address _new);\n\n    /**\n    * @dev Event emitted when the Deals contract reference is changed\n    * @param _from Caller address\n    * @param _dealId Id of the deal to be executed\n    * @param _ruleId Id of the rule to be executed\n    * @param _articleId Id of the article to be executed\n    */\n    event InterpretArticle(address _from, uint _dealId, uint _ruleId, uint _articleId);\n\n    /* MODIFIERS */ \n    \n    /// @dev Modifier used to assess that the caller is the Proxy contract\n    modifier onlyProxy() {\n        require(msg.sender==proxyContractAddress, \"Interpreter: Only Proxy may call\");\n        _;\n    }\n\n    /* PUBLIC INTERFACE */\n\n    /**\n    * @dev Sets the Proxy contract reference. Emits a SetInterpreterInstance event\n    * @param _new Address of the Proxy contract\n    */\n    function setProxyContractAddress(address _new) public onlyOwner {\n        address old = proxyContractAddress;\n        proxyContractAddress = _new;\n        emit SetProxyContractAddress(msg.sender, old, _new);\n    }\n\n    /**\n    * @dev Sets the Instructions contract reference. Emits a SetInstructionsInstance event\n    * @param _new Address of the Instructions contract\n    */\n    function setInstructionsInstance(address _new) public onlyOwner {\n        address old = address(instructionsInstance);\n        instructionsInstance = Instructions(_new);\n        emit SetInstructionsInstance(msg.sender, old, _new);\n    }\n    \n    /**\n    * @dev Sets the InstructionsProvider contract reference. Emits a SetInstructionsProviderInstance event\n    * @param _new Address of the InstructionsProvider contract\n    */\n    function setInstructionsProviderInstance(address _new) public onlyOwner {\n        address old = instructionsProviderInstance;\n        instructionsProviderInstance = _new;\n        emit SetInstructionsProviderInstance(msg.sender, old, _new);\n    }\n\n    /**\n    * @dev Sets the Deals contract reference. Emits a SetDealsInstance event\n    * @param _new Address of the Deals contract\n    */\n    function setDealsInstance(address _new) public onlyOwner {\n        address old = address(dealsInstance);\n        dealsInstance = Deals(_new);\n        emit SetDealsInstance(msg.sender, old, _new);\n    }\n\n    /**\n    * @dev Interprets a rule\n    * @param _from Address of the user who initiated the call\n    * @param _dealId Id of the deal to be executed\n    * @param _ruleId Id of the rule to be executed\n    */\n    function interpretRule(address _from, uint _dealId, uint _ruleId) external payable onlyProxy() {\n        // Init the msg value used to 0\n        msgValueUsed = 0;\n        \n        // Get all articles in rule\n        uint articlesCount = dealsInstance.getArticlesCount(_dealId, _ruleId);\n        \n        bool success = true;\n        for (uint i=0;i<articlesCount;i++) {\n            success = interpretArticle(_from, _dealId, _ruleId, i);\n            if (!success) {\n                revert();\n            }\n        }\n    }\n\n    /**\n    * @dev Interprets a rule\n    * @param _from Address of the user who initiated the call\n    * @param _dealId Id of the deal to be executed\n    * @param _ruleId Id of the rule to be executed\n    * @param _articleId Id of the article to be executed\n    */\n    function interpretArticle(address _from, uint _dealId, uint _ruleId, uint _articleId) private returns (bool) {\n        // Get Article\n        CommonStructs.Article memory article = dealsInstance.getArticle(_dealId, _ruleId, _articleId);\n\n        // Get instruction type and signature\n        CommonStructs.InstructionTypes instructionType;\n        string memory instructionSignature;\n        (instructionType, instructionSignature) = instructionsInstance.getInstruction(article.instructionName);\n\n        //> Params injection depends on the instruction type\n        \n        // CASE ADDRESS_ADDRESS_R_BOOL: pass the Article.paramAddress field\n        bool success=false;\n        if (instructionType == CommonStructs.InstructionTypes.ADDRESS_ADDRESS_R_BOOL) {\n            // Upgrability: Low level call to InstructionsProvider\n            bool _success;\n            bytes memory _result;\n            (_success, _result) = instructionsProviderInstance.call(\n                abi.encodeWithSignature(\n                    instructionSignature,\n                    article.paramAddress,\n                    _from\n                )\n            );\n            success = _success && abi.decode(_result, (bool));\n\n        // CASE ADDRESS_PAYABLE: pass the Article.paramAddress\n        } else if (instructionType == CommonStructs.InstructionTypes.ADDRESS_PAYABLE) {\n            // Upgrability: Low level call to InstructionsProvider\n            bool _success;\n            bytes memory _result;\n            \n            // Increment current msg.value % usage\n            msgValueUsed += article.paramUInt;\n            // Revert if used value > 100% of msg.value\n            if (msgValueUsed>100)\n                revert(\"Interpreter: Rule is spending more msg.value than received!\");\n            (_success, _result) = instructionsProviderInstance.call{value:(msg.value*article.paramUInt)/100}(\n                abi.encodeWithSignature(\n                    instructionSignature,\n                    article.paramAddress\n                )\n            );\n            success = _success;\n        }\n        \n        // Emit an event to inform the front-end that a particular article in the rule successed or not\n        emit InterpretArticle(_from, _dealId, _ruleId, _articleId);\n        return success;\n    }\n\n    /* OVERRIDE & BLOCK UNUSED INHERITED FUNCTIONS */\n\n    /**\n    * @dev Block OpenZeppelin Ownable.renounceOwnership\n    * @notice Will always revert\n    */ \n    function renounceOwnership() public pure override {\n        revert('Contract cannot be revoked');\n    }\n}",
  "sourcePath": "/home/shakalee/Documents/Consensys/PROJOT-v0/contracts/Interpreter.sol",
  "compiler": {
    "name": "solc",
    "version": "0.8.9+commit.e5eed63a.Emscripten.clang"
  },
  "schemaVersion": "3.4.3",
  "updatedAt": "2022-01-08T16:47:22.822Z",
  "networkType": "ethereum",
  "devdoc": {
    "events": {
      "InterpretArticle(address,uint256,uint256,uint256)": {
        "details": "Event emitted when the Deals contract reference is changed",
        "params": {
          "_articleId": "Id of the article to be executed",
          "_dealId": "Id of the deal to be executed",
          "_from": "Caller address",
          "_ruleId": "Id of the rule to be executed"
        }
      },
      "SetDealsInstance(address,address,address)": {
        "details": "Event emitted when the Deals contract reference is changed",
        "params": {
          "_from": "Caller address",
          "_new": "New address of the Deals contract",
          "_old": "Old address of the Deals contract"
        }
      },
      "SetInstructionsInstance(address,address,address)": {
        "details": "Event emitted when the Instructions contract reference is changed",
        "params": {
          "_from": "Caller address",
          "_new": "New address of the Instructions contract",
          "_old": "Old address of the Instructions contract"
        }
      },
      "SetInstructionsProviderInstance(address,address,address)": {
        "details": "Event emitted when the InstructionsProvider contract reference is changed",
        "params": {
          "_from": "Caller address",
          "_new": "New address of the InstructionsProvider contract",
          "_old": "Old address of the InstructionsProvider contract"
        }
      },
      "SetProxyContractAddress(address,address,address)": {
        "details": "Event emitted when the Proxy contract address is changed",
        "params": {
          "_from": "Caller address",
          "_new": "New address of the Proxy contract",
          "_old": "Old address of the Proxy contract"
        }
      }
    },
    "kind": "dev",
    "methods": {
      "interpretRule(address,uint256,uint256)": {
        "details": "Interprets a rule",
        "params": {
          "_dealId": "Id of the deal to be executed",
          "_from": "Address of the user who initiated the call",
          "_ruleId": "Id of the rule to be executed"
        }
      },
      "owner()": {
        "details": "Returns the address of the current owner."
      },
      "renounceOwnership()": {
        "details": "Block OpenZeppelin Ownable.renounceOwnership"
      },
      "setDealsInstance(address)": {
        "details": "Sets the Deals contract reference. Emits a SetDealsInstance event",
        "params": {
          "_new": "Address of the Deals contract"
        }
      },
      "setInstructionsInstance(address)": {
        "details": "Sets the Instructions contract reference. Emits a SetInstructionsInstance event",
        "params": {
          "_new": "Address of the Instructions contract"
        }
      },
      "setInstructionsProviderInstance(address)": {
        "details": "Sets the InstructionsProvider contract reference. Emits a SetInstructionsProviderInstance event",
        "params": {
          "_new": "Address of the InstructionsProvider contract"
        }
      },
      "setProxyContractAddress(address)": {
        "details": "Sets the Proxy contract reference. Emits a SetInterpreterInstance event",
        "params": {
          "_new": "Address of the Proxy contract"
        }
      },
      "transferOwnership(address)": {
        "details": "Transfers ownership of the contract to a new account (`newOwner`). Can only be called by the current owner."
      }
    },
    "stateVariables": {
      "dealsInstance": {
        "details": "Deals contract reference"
      },
      "instructionsInstance": {
        "details": "Instructions contract reference"
      },
      "instructionsProviderInstance": {
        "details": "InstructionsProvider contract reference"
      },
      "msgValueUsed": {
        "details": "Track the msg.value already used by the rule being currently executed"
      },
      "proxyContractAddress": {
        "details": "Proxy contract address"
      }
    },
    "title": "Interpreter contract",
    "version": 1
  },
  "userdoc": {
    "kind": "user",
    "methods": {
      "renounceOwnership()": {
        "notice": "Will always revert"
      }
    },
    "notice": "This contract is responsible for interpreting a single rule",
    "version": 1
  }
}