{
  "contractName": "Interpreter",
  "abi": [
    {
      "anonymous": false,
      "inputs": [
        {
          "indexed": false,
          "internalType": "address",
          "name": "_from",
          "type": "address"
        },
        {
          "indexed": false,
          "internalType": "uint256",
          "name": "_dealId",
          "type": "uint256"
        },
        {
          "indexed": false,
          "internalType": "uint256",
          "name": "_ruleId",
          "type": "uint256"
        },
        {
          "indexed": false,
          "internalType": "uint256",
          "name": "_articleId",
          "type": "uint256"
        }
      ],
      "name": "InterpretArticle",
      "type": "event"
    },
    {
      "anonymous": false,
      "inputs": [
        {
          "indexed": true,
          "internalType": "address",
          "name": "previousOwner",
          "type": "address"
        },
        {
          "indexed": true,
          "internalType": "address",
          "name": "newOwner",
          "type": "address"
        }
      ],
      "name": "OwnershipTransferred",
      "type": "event"
    },
    {
      "anonymous": false,
      "inputs": [
        {
          "indexed": false,
          "internalType": "address",
          "name": "_from",
          "type": "address"
        },
        {
          "indexed": false,
          "internalType": "address",
          "name": "_old",
          "type": "address"
        },
        {
          "indexed": false,
          "internalType": "address",
          "name": "_new",
          "type": "address"
        }
      ],
      "name": "SetDealsInstance",
      "type": "event"
    },
    {
      "anonymous": false,
      "inputs": [
        {
          "indexed": false,
          "internalType": "address",
          "name": "_from",
          "type": "address"
        },
        {
          "indexed": false,
          "internalType": "address",
          "name": "_old",
          "type": "address"
        },
        {
          "indexed": false,
          "internalType": "address",
          "name": "_new",
          "type": "address"
        }
      ],
      "name": "SetInstructionsInstance",
      "type": "event"
    },
    {
      "anonymous": false,
      "inputs": [
        {
          "indexed": false,
          "internalType": "address",
          "name": "_from",
          "type": "address"
        },
        {
          "indexed": false,
          "internalType": "address",
          "name": "_old",
          "type": "address"
        },
        {
          "indexed": false,
          "internalType": "address",
          "name": "_new",
          "type": "address"
        }
      ],
      "name": "SetInstructionsProviderInstance",
      "type": "event"
    },
    {
      "anonymous": false,
      "inputs": [
        {
          "indexed": false,
          "internalType": "address",
          "name": "_from",
          "type": "address"
        },
        {
          "indexed": false,
          "internalType": "address",
          "name": "_old",
          "type": "address"
        },
        {
          "indexed": false,
          "internalType": "address",
          "name": "_new",
          "type": "address"
        }
      ],
      "name": "SetProxyContractAddress",
      "type": "event"
    },
    {
      "inputs": [],
      "name": "dealsInstance",
      "outputs": [
        {
          "internalType": "contract Deals",
          "name": "",
          "type": "address"
        }
      ],
      "stateMutability": "view",
      "type": "function",
      "constant": true
    },
    {
      "inputs": [],
      "name": "instructionsInstance",
      "outputs": [
        {
          "internalType": "contract Instructions",
          "name": "",
          "type": "address"
        }
      ],
      "stateMutability": "view",
      "type": "function",
      "constant": true
    },
    {
      "inputs": [],
      "name": "instructionsProviderInstance",
      "outputs": [
        {
          "internalType": "address",
          "name": "",
          "type": "address"
        }
      ],
      "stateMutability": "view",
      "type": "function",
      "constant": true
    },
    {
      "inputs": [],
      "name": "owner",
      "outputs": [
        {
          "internalType": "address",
          "name": "",
          "type": "address"
        }
      ],
      "stateMutability": "view",
      "type": "function",
      "constant": true
    },
    {
      "inputs": [],
      "name": "proxyContractAddress",
      "outputs": [
        {
          "internalType": "address",
          "name": "",
          "type": "address"
        }
      ],
      "stateMutability": "view",
      "type": "function",
      "constant": true
    },
    {
      "inputs": [
        {
          "internalType": "address",
          "name": "newOwner",
          "type": "address"
        }
      ],
      "name": "transferOwnership",
      "outputs": [],
      "stateMutability": "nonpayable",
      "type": "function"
    },
    {
      "inputs": [
        {
          "internalType": "address",
          "name": "_new",
          "type": "address"
        }
      ],
      "name": "setProxyContractAddress",
      "outputs": [],
      "stateMutability": "nonpayable",
      "type": "function"
    },
    {
      "inputs": [
        {
          "internalType": "address",
          "name": "_new",
          "type": "address"
        }
      ],
      "name": "setInstructionsInstance",
      "outputs": [],
      "stateMutability": "nonpayable",
      "type": "function"
    },
    {
      "inputs": [
        {
          "internalType": "address",
          "name": "_new",
          "type": "address"
        }
      ],
      "name": "setInstructionsProviderInstance",
      "outputs": [],
      "stateMutability": "nonpayable",
      "type": "function"
    },
    {
      "inputs": [
        {
          "internalType": "address",
          "name": "_new",
          "type": "address"
        }
      ],
      "name": "setDealsInstance",
      "outputs": [],
      "stateMutability": "nonpayable",
      "type": "function"
    },
    {
      "inputs": [
        {
          "internalType": "address",
          "name": "_from",
          "type": "address"
        },
        {
          "internalType": "uint256",
          "name": "_dealId",
          "type": "uint256"
        },
        {
          "internalType": "uint256",
          "name": "_ruleId",
          "type": "uint256"
        }
      ],
      "name": "interpretRule",
      "outputs": [],
      "stateMutability": "payable",
      "type": "function",
      "payable": true
    },
    {
      "inputs": [],
      "name": "renounceOwnership",
      "outputs": [],
      "stateMutability": "pure",
      "type": "function",
      "constant": true
    }
  ],
  "bytecode": "0x608060405234801561001057600080fd5b5061002d61002261003260201b60201c565b61003a60201b60201c565b6100fe565b600033905090565b60008060009054906101000a900473ffffffffffffffffffffffffffffffffffffffff169050816000806101000a81548173ffffffffffffffffffffffffffffffffffffffff021916908373ffffffffffffffffffffffffffffffffffffffff1602179055508173ffffffffffffffffffffffffffffffffffffffff168173ffffffffffffffffffffffffffffffffffffffff167f8be0079c531659141344cd1fd0a4f28419497f9722a3daafe3b4186f6b6457e060405160405180910390a35050565b611ca78061010d6000396000f3fe6080604052600436106100a75760003560e01c80639dff994e116100645780639dff994e14610187578063b1965ca8146101b2578063c05d93b5146101db578063cb7306b614610206578063f2fde38b14610231578063f43fba8c1461025a576100a7565b80631862a908146100ac578063276c997a146100d75780635daa4bb914610100578063715018a614610129578063889f7d85146101405780638da5cb5b1461015c575b600080fd5b3480156100b857600080fd5b506100c1610283565b6040516100ce91906110e3565b60405180910390f35b3480156100e357600080fd5b506100fe60048036038101906100f99190611150565b6102a9565b005b34801561010c57600080fd5b5061012760048036038101906101229190611150565b6103cc565b005b34801561013557600080fd5b5061013e6104ef565b005b61015a600480360381019061015591906111b3565b61052a565b005b34801561016857600080fd5b506101716106b7565b60405161017e9190611215565b60405180910390f35b34801561019357600080fd5b5061019c6106e0565b6040516101a99190611215565b60405180910390f35b3480156101be57600080fd5b506101d960048036038101906101d49190611150565b610706565b005b3480156101e757600080fd5b506101f0610829565b6040516101fd9190611215565b60405180910390f35b34801561021257600080fd5b5061021b61084f565b6040516102289190611251565b60405180910390f35b34801561023d57600080fd5b5061025860048036038101906102539190611150565b610875565b005b34801561026657600080fd5b50610281600480360381019061027c9190611150565b61096d565b005b600260009054906101000a900473ffffffffffffffffffffffffffffffffffffffff1681565b6102b1610a90565b73ffffffffffffffffffffffffffffffffffffffff166102cf6106b7565b73ffffffffffffffffffffffffffffffffffffffff1614610325576040517f08c379a000000000000000000000000000000000000000000000000000000000815260040161031c906112c9565b60405180910390fd5b6000600260009054906101000a900473ffffffffffffffffffffffffffffffffffffffff16905081600260006101000a81548173ffffffffffffffffffffffffffffffffffffffff021916908373ffffffffffffffffffffffffffffffffffffffff1602179055507f2ad4ed8ea23910decfecc56b180d0d6937ec03001748e4072cfe0046dd74acb83382846040516103c0939291906112e9565b60405180910390a15050565b6103d4610a90565b73ffffffffffffffffffffffffffffffffffffffff166103f26106b7565b73ffffffffffffffffffffffffffffffffffffffff1614610448576040517f08c379a000000000000000000000000000000000000000000000000000000000815260040161043f906112c9565b60405180910390fd5b6000600460009054906101000a900473ffffffffffffffffffffffffffffffffffffffff16905081600460006101000a81548173ffffffffffffffffffffffffffffffffffffffff021916908373ffffffffffffffffffffffffffffffffffffffff1602179055507f917149d640b2daf4230adc393bd7ea28a06eae265d2abbe1da1d90d4361da5123382846040516104e3939291906112e9565b60405180910390a15050565b6040517f08c379a00000000000000000000000000000000000000000000000000000000081526004016105219061136c565b60405180910390fd5b600160009054906101000a900473ffffffffffffffffffffffffffffffffffffffff1673ffffffffffffffffffffffffffffffffffffffff163373ffffffffffffffffffffffffffffffffffffffff16146105ba576040517f08c379a00000000000000000000000000000000000000000000000000000000081526004016105b1906113d8565b60405180910390fd5b60006005819055506000600460009054906101000a900473ffffffffffffffffffffffffffffffffffffffff1673ffffffffffffffffffffffffffffffffffffffff1663fccc610f84846040518363ffffffff1660e01b8152600401610621929190611407565b60206040518083038186803b15801561063957600080fd5b505afa15801561064d573d6000803e3d6000fd5b505050506040513d601f19601f820116820180604052508101906106719190611445565b905060006001905060005b828110156106af5761069086868684610a98565b91508161069c576106af565b80806106a7906114a1565b91505061067c565b505050505050565b60008060009054906101000a900473ffffffffffffffffffffffffffffffffffffffff16905090565b600160009054906101000a900473ffffffffffffffffffffffffffffffffffffffff1681565b61070e610a90565b73ffffffffffffffffffffffffffffffffffffffff1661072c6106b7565b73ffffffffffffffffffffffffffffffffffffffff1614610782576040517f08c379a0000000000000000000000000000000000000000000000000000000008152600401610779906112c9565b60405180910390fd5b6000600360009054906101000a900473ffffffffffffffffffffffffffffffffffffffff16905081600360006101000a81548173ffffffffffffffffffffffffffffffffffffffff021916908373ffffffffffffffffffffffffffffffffffffffff1602179055507fb24ef369783b0bfd4bac6b2dbb331819fa6ddbb9906e98dc61c3dc630945290933828460405161081d939291906112e9565b60405180910390a15050565b600360009054906101000a900473ffffffffffffffffffffffffffffffffffffffff1681565b600460009054906101000a900473ffffffffffffffffffffffffffffffffffffffff1681565b61087d610a90565b73ffffffffffffffffffffffffffffffffffffffff1661089b6106b7565b73ffffffffffffffffffffffffffffffffffffffff16146108f1576040517f08c379a00000000000000000000000000000000000000000000000000000000081526004016108e8906112c9565b60405180910390fd5b600073ffffffffffffffffffffffffffffffffffffffff168173ffffffffffffffffffffffffffffffffffffffff161415610961576040517f08c379a00000000000000000000000000000000000000000000000000000000081526004016109589061155c565b60405180910390fd5b61096a81610fa0565b50565b610975610a90565b73ffffffffffffffffffffffffffffffffffffffff166109936106b7565b73ffffffffffffffffffffffffffffffffffffffff16146109e9576040517f08c379a00000000000000000000000000000000000000000000000000000000081526004016109e0906112c9565b60405180910390fd5b6000600160009054906101000a900473ffffffffffffffffffffffffffffffffffffffff16905081600160006101000a81548173ffffffffffffffffffffffffffffffffffffffff021916908373ffffffffffffffffffffffffffffffffffffffff1602179055507f3f1217b02323e5dc4e83e1bf861d3a5c04873f7e972587684ce1dfcbbb329fa1338284604051610a84939291906112e9565b60405180910390a15050565b600033905090565b600080600460009054906101000a900473ffffffffffffffffffffffffffffffffffffffff1673ffffffffffffffffffffffffffffffffffffffff1663bf2510778686866040518463ffffffff1660e01b8152600401610afa9392919061157c565b60006040518083038186803b158015610b1257600080fd5b505afa158015610b26573d6000803e3d6000fd5b505050506040513d6000823e3d601f19601f82011682018060405250810190610b4f91906117ec565b905060006060600260009054906101000a900473ffffffffffffffffffffffffffffffffffffffff1673ffffffffffffffffffffffffffffffffffffffff166399b87f6c84600001516040518263ffffffff1660e01b8152600401610bb49190611879565b60006040518083038186803b158015610bcc57600080fd5b505afa158015610be0573d6000803e3d6000fd5b505050506040513d6000823e3d601f19601f82011682018060405250810190610c0991906118c0565b8092508193505050600060016002811115610c2757610c2661191c565b5b836002811115610c3a57610c3961191c565b5b1415610d855760006060600360009054906101000a900473ffffffffffffffffffffffffffffffffffffffff1673ffffffffffffffffffffffffffffffffffffffff168487606001518d604051602401610c9592919061194b565b60405160208183030381529060405290604051610cb291906119b0565b60405180910390207bffffffffffffffffffffffffffffffffffffffffffffffffffffffff19166020820180517bffffffffffffffffffffffffffffffffffffffffffffffffffffffff8381831617835250505050604051610d149190611a0e565b6000604051808303816000865af19150503d8060008114610d51576040519150601f19603f3d011682016040523d82523d6000602084013e610d56565b606091505b508092508193505050818015610d7c575080806020019051810190610d7b9190611a5d565b5b92505050610f54565b600280811115610d9857610d9761191c565b5b836002811115610dab57610daa61191c565b5b1415610f535760006060856040015160056000828254610dcb9190611a8a565b9250508190555060646005541115610e18576040517f08c379a0000000000000000000000000000000000000000000000000000000008152600401610e0f90611b52565b60405180910390fd5b600360009054906101000a900473ffffffffffffffffffffffffffffffffffffffff1673ffffffffffffffffffffffffffffffffffffffff166064876040015134610e639190611b72565b610e6d9190611bfb565b858860600151604051602401610e839190611215565b60405160208183030381529060405290604051610ea091906119b0565b60405180910390207bffffffffffffffffffffffffffffffffffffffffffffffffffffffff19166020820180517bffffffffffffffffffffffffffffffffffffffffffffffffffffffff8381831617835250505050604051610f029190611a0e565b60006040518083038185875af1925050503d8060008114610f3f576040519150601f19603f3d011682016040523d82523d6000602084013e610f44565b606091505b50809250819350505081925050505b5b7f5977102be6bd21fd83afd12f0ecdd364d2d921783685a3724dbde9415eb459fa89898989604051610f899493929190611c2c565b60405180910390a180945050505050949350505050565b60008060009054906101000a900473ffffffffffffffffffffffffffffffffffffffff169050816000806101000a81548173ffffffffffffffffffffffffffffffffffffffff021916908373ffffffffffffffffffffffffffffffffffffffff1602179055508173ffffffffffffffffffffffffffffffffffffffff168173ffffffffffffffffffffffffffffffffffffffff167f8be0079c531659141344cd1fd0a4f28419497f9722a3daafe3b4186f6b6457e060405160405180910390a35050565b600073ffffffffffffffffffffffffffffffffffffffff82169050919050565b6000819050919050565b60006110a96110a461109f84611064565b611084565b611064565b9050919050565b60006110bb8261108e565b9050919050565b60006110cd826110b0565b9050919050565b6110dd816110c2565b82525050565b60006020820190506110f860008301846110d4565b92915050565b6000604051905090565b600080fd5b600080fd5b600061111d82611064565b9050919050565b61112d81611112565b811461113857600080fd5b50565b60008135905061114a81611124565b92915050565b60006020828403121561116657611165611108565b5b60006111748482850161113b565b91505092915050565b6000819050919050565b6111908161117d565b811461119b57600080fd5b50565b6000813590506111ad81611187565b92915050565b6000806000606084860312156111cc576111cb611108565b5b60006111da8682870161113b565b93505060206111eb8682870161119e565b92505060406111fc8682870161119e565b9150509250925092565b61120f81611112565b82525050565b600060208201905061122a6000830184611206565b92915050565b600061123b826110b0565b9050919050565b61124b81611230565b82525050565b60006020820190506112666000830184611242565b92915050565b600082825260208201905092915050565b7f4f776e61626c653a2063616c6c6572206973206e6f7420746865206f776e6572600082015250565b60006112b360208361126c565b91506112be8261127d565b602082019050919050565b600060208201905081810360008301526112e2816112a6565b9050919050565b60006060820190506112fe6000830186611206565b61130b6020830185611206565b6113186040830184611206565b949350505050565b7f436f6e74726163742063616e6e6f74206265207265766f6b6564000000000000600082015250565b6000611356601a8361126c565b915061136182611320565b602082019050919050565b6000602082019050818103600083015261138581611349565b9050919050565b7f496e7465727072657465723a204f6e6c792050726f7879206d61792063616c6c600082015250565b60006113c260208361126c565b91506113cd8261138c565b602082019050919050565b600060208201905081810360008301526113f1816113b5565b9050919050565b6114018161117d565b82525050565b600060408201905061141c60008301856113f8565b61142960208301846113f8565b9392505050565b60008151905061143f81611187565b92915050565b60006020828403121561145b5761145a611108565b5b600061146984828501611430565b91505092915050565b7f4e487b7100000000000000000000000000000000000000000000000000000000600052601160045260246000fd5b60006114ac8261117d565b91507fffffffffffffffffffffffffffffffffffffffffffffffffffffffffffffffff8214156114df576114de611472565b5b600182019050919050565b7f4f776e61626c653a206e6577206f776e657220697320746865207a65726f206160008201527f6464726573730000000000000000000000000000000000000000000000000000602082015250565b600061154660268361126c565b9150611551826114ea565b604082019050919050565b6000602082019050818103600083015261157581611539565b9050919050565b600060608201905061159160008301866113f8565b61159e60208301856113f8565b6115ab60408301846113f8565b949350505050565b600080fd5b6000601f19601f8301169050919050565b7f4e487b7100000000000000000000000000000000000000000000000000000000600052604160045260246000fd5b611601826115b8565b810181811067ffffffffffffffff821117156116205761161f6115c9565b5b80604052505050565b60006116336110fe565b905061163f82826115f8565b919050565b600080fd5b600080fd5b600080fd5b600067ffffffffffffffff82111561166e5761166d6115c9565b5b611677826115b8565b9050602081019050919050565b60005b838110156116a2578082015181840152602081019050611687565b838111156116b1576000848401525b50505050565b60006116ca6116c584611653565b611629565b9050828152602081018484840111156116e6576116e561164e565b5b6116f1848285611684565b509392505050565b600082601f83011261170e5761170d611649565b5b815161171e8482602086016116b7565b91505092915050565b60008151905061173681611124565b92915050565b600060808284031215611752576117516115b3565b5b61175c6080611629565b9050600082015167ffffffffffffffff81111561177c5761177b611644565b5b611788848285016116f9565b600083015250602082015167ffffffffffffffff8111156117ac576117ab611644565b5b6117b8848285016116f9565b60208301525060406117cc84828501611430565b60408301525060606117e084828501611727565b60608301525092915050565b60006020828403121561180257611801611108565b5b600082015167ffffffffffffffff8111156118205761181f61110d565b5b61182c8482850161173c565b91505092915050565b600081519050919050565b600061184b82611835565b611855818561126c565b9350611865818560208601611684565b61186e816115b8565b840191505092915050565b600060208201905081810360008301526118938184611840565b905092915050565b600381106118a857600080fd5b50565b6000815190506118ba8161189b565b92915050565b600080604083850312156118d7576118d6611108565b5b60006118e5858286016118ab565b925050602083015167ffffffffffffffff8111156119065761190561110d565b5b611912858286016116f9565b9150509250929050565b7f4e487b7100000000000000000000000000000000000000000000000000000000600052602160045260246000fd5b60006040820190506119606000830185611206565b61196d6020830184611206565b9392505050565b600081905092915050565b600061198a82611835565b6119948185611974565b93506119a4818560208601611684565b80840191505092915050565b60006119bc828461197f565b915081905092915050565b600081519050919050565b600081905092915050565b60006119e8826119c7565b6119f281856119d2565b9350611a02818560208601611684565b80840191505092915050565b6000611a1a82846119dd565b915081905092915050565b60008115159050919050565b611a3a81611a25565b8114611a4557600080fd5b50565b600081519050611a5781611a31565b92915050565b600060208284031215611a7357611a72611108565b5b6000611a8184828501611a48565b91505092915050565b6000611a958261117d565b9150611aa08361117d565b9250827fffffffffffffffffffffffffffffffffffffffffffffffffffffffffffffffff03821115611ad557611ad4611472565b5b828201905092915050565b7f496e7465727072657465723a2052756c65206973207370656e64696e67206d6f60008201527f7265206d73672e76616c7565207468616e207265636569766564210000000000602082015250565b6000611b3c603b8361126c565b9150611b4782611ae0565b604082019050919050565b60006020820190508181036000830152611b6b81611b2f565b9050919050565b6000611b7d8261117d565b9150611b888361117d565b9250817fffffffffffffffffffffffffffffffffffffffffffffffffffffffffffffffff0483118215151615611bc157611bc0611472565b5b828202905092915050565b7f4e487b7100000000000000000000000000000000000000000000000000000000600052601260045260246000fd5b6000611c068261117d565b9150611c118361117d565b925082611c2157611c20611bcc565b5b828204905092915050565b6000608082019050611c416000830187611206565b611c4e60208301866113f8565b611c5b60408301856113f8565b611c6860608301846113f8565b9594505050505056fea264697066735822122000f3ed518784cf96e9ee521529e676c2a13fab128165f856808ab2a251c19d0d64736f6c63430008090033",
  "immutableReferences": {},
  "source": "// SPDX-License-Identifier: GPL-3.0\npragma solidity 0.8.9;\n\n/* EXTERNAL DEPENDENCIES */\nimport \"@openzeppelin/contracts/access/Ownable.sol\";\n\n/* INTERNAL DEPENDENCIES */\nimport \"./CommonStructs.sol\";\nimport \"./Instructions.sol\";\nimport \"./Deals.sol\";\n\n/**\n * @title Interpreter contract\n * @notice This contract is responsible for interpreting a single rule\n */\n\ncontract Interpreter is Ownable {\n    \n    /* STORAGE VARIABLES */\n\n    /// @dev Proxy contract address\n    address public proxyContractAddress;\n\n    /// @dev Instructions contract reference\n    Instructions public instructionsInstance;\n\n    /// @dev InstructionsProvider contract reference\n    address public instructionsProviderInstance;\n\n    /// @dev Deals contract reference\n    Deals public dealsInstance;\n\n    /// @dev Track the msg.value already used by the rule being currently executed\n    uint private msgValueUsed;\n    \n    /* EVENTS */\n\n    /**\n    * @dev Event emitted when the Proxy contract address is changed\n    * @param _from Caller address\n    * @param _old Old address of the Proxy contract\n    * @param _new New address of the Proxy contract\n    */\n    event SetProxyContractAddress(address _from, address _old, address _new);\n    \n    /**\n    * @dev Event emitted when the Instructions contract reference is changed\n    * @param _from Caller address\n    * @param _old Old address of the Instructions contract\n    * @param _new New address of the Instructions contract\n    */\n    event SetInstructionsInstance(address _from, address _old, address _new);\n\n    /**\n    * @dev Event emitted when the InstructionsProvider contract reference is changed\n    * @param _from Caller address\n    * @param _old Old address of the InstructionsProvider contract\n    * @param _new New address of the InstructionsProvider contract\n    */\n    event SetInstructionsProviderInstance(address _from, address _old, address _new);\n\n    /**\n    * @dev Event emitted when the Deals contract reference is changed\n    * @param _from Caller address\n    * @param _old Old address of the Deals contract\n    * @param _new New address of the Deals contract\n    */\n    event SetDealsInstance(address _from, address _old, address _new);\n\n    /**\n    * @dev Event emitted when the Deals contract reference is changed\n    * @param _from Caller address\n    * @param _dealId Id of the deal to be executed\n    * @param _ruleId Id of the rule to be executed\n    * @param _articleId Id of the article to be executed\n    */\n    event InterpretArticle(address _from, uint _dealId, uint _ruleId, uint _articleId);\n\n    /* MODIFIERS */ \n    \n    /// @dev Modifier used to assess that the caller is the Proxy contract\n    modifier onlyProxy() {\n        require(msg.sender==proxyContractAddress, \"Interpreter: Only Proxy may call\");\n        _;\n    }\n\n    /* PUBLIC INTERFACE */\n\n    /**\n    * @dev Sets the Proxy contract reference. Emits a SetInterpreterInstance event\n    * @param _new Address of the Proxy contract\n    */\n    function setProxyContractAddress(address _new) public onlyOwner {\n        address old = proxyContractAddress;\n        proxyContractAddress = _new;\n        emit SetProxyContractAddress(msg.sender, old, _new);\n    }\n\n    /**\n    * @dev Sets the Instructions contract reference. Emits a SetInstructionsInstance event\n    * @param _new Address of the Instructions contract\n    */\n    function setInstructionsInstance(address _new) public onlyOwner {\n        address old = address(instructionsInstance);\n        instructionsInstance = Instructions(_new);\n        emit SetInstructionsInstance(msg.sender, old, _new);\n    }\n    \n    /**\n    * @dev Sets the InstructionsProvider contract reference. Emits a SetInstructionsProviderInstance event\n    * @param _new Address of the InstructionsProvider contract\n    */\n    function setInstructionsProviderInstance(address _new) public onlyOwner {\n        address old = instructionsProviderInstance;\n        instructionsProviderInstance = _new;\n        emit SetInstructionsProviderInstance(msg.sender, old, _new);\n    }\n\n    /**\n    * @dev Sets the Deals contract reference. Emits a SetDealsInstance event\n    * @param _new Address of the Deals contract\n    */\n    function setDealsInstance(address _new) public onlyOwner {\n        address old = address(dealsInstance);\n        dealsInstance = Deals(_new);\n        emit SetDealsInstance(msg.sender, old, _new);\n    }\n\n    /**\n    * @dev Interprets a rule\n    * @param _from Address of the user who initiated the call\n    * @param _dealId Id of the deal to be executed\n    * @param _ruleId Id of the rule to be executed\n    */\n    function interpretRule(address _from, uint _dealId, uint _ruleId) external payable onlyProxy() {\n        // Init the msg value used to 0\n        msgValueUsed = 0;\n        \n        // Get all articles in rule\n        uint articlesCount = dealsInstance.getArticlesCount(_dealId, _ruleId);\n        \n        bool success = true;\n        for (uint i=0;i<articlesCount;i++) {\n            success = interpretArticle(_from, _dealId, _ruleId, i);\n            if (!success) {\n                break;\n            }\n        }\n    }\n\n    /**\n    * @dev Interprets a rule\n    * @param _from Address of the user who initiated the call\n    * @param _dealId Id of the deal to be executed\n    * @param _ruleId Id of the rule to be executed\n    * @param _articleId Id of the article to be executed\n    */\n    function interpretArticle(address _from, uint _dealId, uint _ruleId, uint _articleId) private returns (bool) {\n        // Get Article\n        CommonStructs.Article memory article = dealsInstance.getArticle(_dealId, _ruleId, _articleId);\n\n        // Get instruction type and signature\n        CommonStructs.InstructionTypes instructionType;\n        string memory instructionSignature;\n        (instructionType, instructionSignature) = instructionsInstance.getInstruction(article.instructionName);\n\n        //> Params injection depends on the instruction type\n        \n        // CASE ADDRESS_ADDRESS_R_BOOL: pass the Article.paramAddress field\n        bool success=false;\n        if (instructionType == CommonStructs.InstructionTypes.ADDRESS_ADDRESS_R_BOOL) {\n            // Upgrability: Low level call to InstructionsProvider\n            bool _success;\n            bytes memory _result;\n            (_success, _result) = instructionsProviderInstance.call(\n                abi.encodeWithSignature(\n                    instructionSignature,\n                    article.paramAddress,\n                    _from\n                )\n            );\n            success = _success && abi.decode(_result, (bool));\n\n        // CASE ADDRESS_PAYABLE: pass the Article.paramAddress\n        } else if (instructionType == CommonStructs.InstructionTypes.ADDRESS_PAYABLE) {\n            // Upgrability: Low level call to InstructionsProvider\n            bool _success;\n            bytes memory _result;\n            \n            // Increment current msg.value % usage\n            msgValueUsed += article.paramUInt;\n            // Revert if used value > 100% of msg.value\n            if (msgValueUsed>100)\n                revert(\"Interpreter: Rule is spending more msg.value than received!\");\n            (_success, _result) = instructionsProviderInstance.call{value:(msg.value*article.paramUInt)/100}(\n                abi.encodeWithSignature(\n                    instructionSignature,\n                    article.paramAddress\n                )\n            );\n            success = _success;\n        }\n        \n        // Emit an event to inform the front-end that a particular article in the rule successed or not\n        emit InterpretArticle(_from, _dealId, _ruleId, _articleId);\n        return success;\n    }\n\n    /* OVERRIDE & BLOCK UNUSED INHERITED FUNCTIONS */\n\n    /**\n    * @dev Block OpenZeppelin Ownable.renounceOwnership\n    * @notice Will always revert\n    */ \n    function renounceOwnership() public pure override {\n        revert('Contract cannot be revoked');\n    }\n}",
  "sourcePath": "/home/shakalee/Documents/Consensys/PROJOT-v0/contracts/Interpreter.sol",
  "compiler": {
    "name": "solc",
    "version": "0.8.9+commit.e5eed63a.Emscripten.clang"
  },
  "schemaVersion": "3.4.3",
  "updatedAt": "2021-12-21T17:02:31.734Z",
  "networkType": "ethereum",
  "devdoc": {
    "events": {
      "InterpretArticle(address,uint256,uint256,uint256)": {
        "details": "Event emitted when the Deals contract reference is changed",
        "params": {
          "_articleId": "Id of the article to be executed",
          "_dealId": "Id of the deal to be executed",
          "_from": "Caller address",
          "_ruleId": "Id of the rule to be executed"
        }
      },
      "SetDealsInstance(address,address,address)": {
        "details": "Event emitted when the Deals contract reference is changed",
        "params": {
          "_from": "Caller address",
          "_new": "New address of the Deals contract",
          "_old": "Old address of the Deals contract"
        }
      },
      "SetInstructionsInstance(address,address,address)": {
        "details": "Event emitted when the Instructions contract reference is changed",
        "params": {
          "_from": "Caller address",
          "_new": "New address of the Instructions contract",
          "_old": "Old address of the Instructions contract"
        }
      },
      "SetInstructionsProviderInstance(address,address,address)": {
        "details": "Event emitted when the InstructionsProvider contract reference is changed",
        "params": {
          "_from": "Caller address",
          "_new": "New address of the InstructionsProvider contract",
          "_old": "Old address of the InstructionsProvider contract"
        }
      },
      "SetProxyContractAddress(address,address,address)": {
        "details": "Event emitted when the Proxy contract address is changed",
        "params": {
          "_from": "Caller address",
          "_new": "New address of the Proxy contract",
          "_old": "Old address of the Proxy contract"
        }
      }
    },
    "kind": "dev",
    "methods": {
      "interpretRule(address,uint256,uint256)": {
        "details": "Interprets a rule",
        "params": {
          "_dealId": "Id of the deal to be executed",
          "_from": "Address of the user who initiated the call",
          "_ruleId": "Id of the rule to be executed"
        }
      },
      "owner()": {
        "details": "Returns the address of the current owner."
      },
      "renounceOwnership()": {
        "details": "Block OpenZeppelin Ownable.renounceOwnership"
      },
      "setDealsInstance(address)": {
        "details": "Sets the Deals contract reference. Emits a SetDealsInstance event",
        "params": {
          "_new": "Address of the Deals contract"
        }
      },
      "setInstructionsInstance(address)": {
        "details": "Sets the Instructions contract reference. Emits a SetInstructionsInstance event",
        "params": {
          "_new": "Address of the Instructions contract"
        }
      },
      "setInstructionsProviderInstance(address)": {
        "details": "Sets the InstructionsProvider contract reference. Emits a SetInstructionsProviderInstance event",
        "params": {
          "_new": "Address of the InstructionsProvider contract"
        }
      },
      "setProxyContractAddress(address)": {
        "details": "Sets the Proxy contract reference. Emits a SetInterpreterInstance event",
        "params": {
          "_new": "Address of the Proxy contract"
        }
      },
      "transferOwnership(address)": {
        "details": "Transfers ownership of the contract to a new account (`newOwner`). Can only be called by the current owner."
      }
    },
    "stateVariables": {
      "dealsInstance": {
        "details": "Deals contract reference"
      },
      "instructionsInstance": {
        "details": "Instructions contract reference"
      },
      "instructionsProviderInstance": {
        "details": "InstructionsProvider contract reference"
      },
      "msgValueUsed": {
        "details": "Track the msg.value already used by the rule being currently executed"
      },
      "proxyContractAddress": {
        "details": "Proxy contract address"
      }
    },
    "title": "Interpreter contract",
    "version": 1
  },
  "userdoc": {
    "kind": "user",
    "methods": {
      "renounceOwnership()": {
        "notice": "Will always revert"
      }
    },
    "notice": "This contract is responsible for interpreting a single rule",
    "version": 1
  }
}