{
  "contractName": "Interpreter",
  "abi": [
    {
      "anonymous": false,
      "inputs": [
        {
          "indexed": false,
          "internalType": "address",
          "name": "_from",
          "type": "address"
        },
        {
          "indexed": false,
          "internalType": "uint256",
          "name": "_dealId",
          "type": "uint256"
        },
        {
          "indexed": false,
          "internalType": "uint256",
          "name": "_ruleId",
          "type": "uint256"
        },
        {
          "indexed": false,
          "internalType": "uint256",
          "name": "_articleId",
          "type": "uint256"
        }
      ],
      "name": "InterpretArticle",
      "type": "event"
    },
    {
      "anonymous": false,
      "inputs": [
        {
          "indexed": true,
          "internalType": "address",
          "name": "previousOwner",
          "type": "address"
        },
        {
          "indexed": true,
          "internalType": "address",
          "name": "newOwner",
          "type": "address"
        }
      ],
      "name": "OwnershipTransferred",
      "type": "event"
    },
    {
      "anonymous": false,
      "inputs": [
        {
          "indexed": false,
          "internalType": "address",
          "name": "_from",
          "type": "address"
        },
        {
          "indexed": false,
          "internalType": "address",
          "name": "_old",
          "type": "address"
        },
        {
          "indexed": false,
          "internalType": "address",
          "name": "_new",
          "type": "address"
        }
      ],
      "name": "SetDealsInstance",
      "type": "event"
    },
    {
      "anonymous": false,
      "inputs": [
        {
          "indexed": false,
          "internalType": "address",
          "name": "_from",
          "type": "address"
        },
        {
          "indexed": false,
          "internalType": "address",
          "name": "_old",
          "type": "address"
        },
        {
          "indexed": false,
          "internalType": "address",
          "name": "_new",
          "type": "address"
        }
      ],
      "name": "SetInstructionsInstance",
      "type": "event"
    },
    {
      "anonymous": false,
      "inputs": [
        {
          "indexed": false,
          "internalType": "address",
          "name": "_from",
          "type": "address"
        },
        {
          "indexed": false,
          "internalType": "address",
          "name": "_old",
          "type": "address"
        },
        {
          "indexed": false,
          "internalType": "address",
          "name": "_new",
          "type": "address"
        }
      ],
      "name": "SetInstructionsProviderInstance",
      "type": "event"
    },
    {
      "anonymous": false,
      "inputs": [
        {
          "indexed": false,
          "internalType": "address",
          "name": "_from",
          "type": "address"
        },
        {
          "indexed": false,
          "internalType": "address",
          "name": "_old",
          "type": "address"
        },
        {
          "indexed": false,
          "internalType": "address",
          "name": "_new",
          "type": "address"
        }
      ],
      "name": "SetProxyContractAddress",
      "type": "event"
    },
    {
      "inputs": [],
      "name": "owner",
      "outputs": [
        {
          "internalType": "address",
          "name": "",
          "type": "address"
        }
      ],
      "stateMutability": "view",
      "type": "function",
      "constant": true
    },
    {
      "inputs": [
        {
          "internalType": "address",
          "name": "newOwner",
          "type": "address"
        }
      ],
      "name": "transferOwnership",
      "outputs": [],
      "stateMutability": "nonpayable",
      "type": "function"
    },
    {
      "inputs": [
        {
          "internalType": "address",
          "name": "_new",
          "type": "address"
        }
      ],
      "name": "setProxyContractAddress",
      "outputs": [],
      "stateMutability": "nonpayable",
      "type": "function"
    },
    {
      "inputs": [
        {
          "internalType": "address",
          "name": "_new",
          "type": "address"
        }
      ],
      "name": "setInstructionsInstance",
      "outputs": [],
      "stateMutability": "nonpayable",
      "type": "function"
    },
    {
      "inputs": [
        {
          "internalType": "address",
          "name": "_new",
          "type": "address"
        }
      ],
      "name": "setInstructionsProviderInstance",
      "outputs": [],
      "stateMutability": "nonpayable",
      "type": "function"
    },
    {
      "inputs": [
        {
          "internalType": "address",
          "name": "_new",
          "type": "address"
        }
      ],
      "name": "setDealsInstance",
      "outputs": [],
      "stateMutability": "nonpayable",
      "type": "function"
    },
    {
      "inputs": [
        {
          "internalType": "address",
          "name": "_from",
          "type": "address"
        },
        {
          "internalType": "uint256",
          "name": "_dealId",
          "type": "uint256"
        },
        {
          "internalType": "uint256",
          "name": "_ruleId",
          "type": "uint256"
        }
      ],
      "name": "interpretRule",
      "outputs": [],
      "stateMutability": "payable",
      "type": "function",
      "payable": true
    },
    {
      "inputs": [],
      "name": "renounceOwnership",
      "outputs": [],
      "stateMutability": "pure",
      "type": "function",
      "constant": true
    }
  ],
  "bytecode": "0x608060405234801561001057600080fd5b5061002d61002261003260201b60201c565b61003a60201b60201c565b6100fe565b600033905090565b60008060009054906101000a900473ffffffffffffffffffffffffffffffffffffffff169050816000806101000a81548173ffffffffffffffffffffffffffffffffffffffff021916908373ffffffffffffffffffffffffffffffffffffffff1602179055508173ffffffffffffffffffffffffffffffffffffffff168173ffffffffffffffffffffffffffffffffffffffff167f8be0079c531659141344cd1fd0a4f28419497f9722a3daafe3b4186f6b6457e060405160405180910390a35050565b611a818061010d6000396000f3fe60806040526004361061007b5760003560e01c80638da5cb5b1161004e5780638da5cb5b14610105578063b1965ca814610130578063f2fde38b14610159578063f43fba8c146101825761007b565b8063276c997a146100805780635daa4bb9146100a9578063715018a6146100d2578063889f7d85146100e9575b600080fd5b34801561008c57600080fd5b506100a760048036038101906100a29190610f66565b6101ab565b005b3480156100b557600080fd5b506100d060048036038101906100cb9190610f66565b6102ce565b005b3480156100de57600080fd5b506100e76103f1565b005b61010360048036038101906100fe9190610fc9565b61042c565b005b34801561011157600080fd5b5061011a6105b9565b604051610127919061102b565b60405180910390f35b34801561013c57600080fd5b5061015760048036038101906101529190610f66565b6105e2565b005b34801561016557600080fd5b50610180600480360381019061017b9190610f66565b610705565b005b34801561018e57600080fd5b506101a960048036038101906101a49190610f66565b6107fd565b005b6101b3610920565b73ffffffffffffffffffffffffffffffffffffffff166101d16105b9565b73ffffffffffffffffffffffffffffffffffffffff1614610227576040517f08c379a000000000000000000000000000000000000000000000000000000000815260040161021e906110a3565b60405180910390fd5b6000600260009054906101000a900473ffffffffffffffffffffffffffffffffffffffff16905081600260006101000a81548173ffffffffffffffffffffffffffffffffffffffff021916908373ffffffffffffffffffffffffffffffffffffffff1602179055507f2ad4ed8ea23910decfecc56b180d0d6937ec03001748e4072cfe0046dd74acb83382846040516102c2939291906110c3565b60405180910390a15050565b6102d6610920565b73ffffffffffffffffffffffffffffffffffffffff166102f46105b9565b73ffffffffffffffffffffffffffffffffffffffff161461034a576040517f08c379a0000000000000000000000000000000000000000000000000000000008152600401610341906110a3565b60405180910390fd5b6000600460009054906101000a900473ffffffffffffffffffffffffffffffffffffffff16905081600460006101000a81548173ffffffffffffffffffffffffffffffffffffffff021916908373ffffffffffffffffffffffffffffffffffffffff1602179055507f917149d640b2daf4230adc393bd7ea28a06eae265d2abbe1da1d90d4361da5123382846040516103e5939291906110c3565b60405180910390a15050565b6040517f08c379a000000000000000000000000000000000000000000000000000000000815260040161042390611146565b60405180910390fd5b600160009054906101000a900473ffffffffffffffffffffffffffffffffffffffff1673ffffffffffffffffffffffffffffffffffffffff163373ffffffffffffffffffffffffffffffffffffffff16146104bc576040517f08c379a00000000000000000000000000000000000000000000000000000000081526004016104b3906111b2565b60405180910390fd5b60006005819055506000600460009054906101000a900473ffffffffffffffffffffffffffffffffffffffff1673ffffffffffffffffffffffffffffffffffffffff1663fccc610f84846040518363ffffffff1660e01b81526004016105239291906111e1565b60206040518083038186803b15801561053b57600080fd5b505afa15801561054f573d6000803e3d6000fd5b505050506040513d601f19601f82011682018060405250810190610573919061121f565b905060006001905060005b828110156105b15761059286868684610928565b91508161059e576105b1565b80806105a99061127b565b91505061057e565b505050505050565b60008060009054906101000a900473ffffffffffffffffffffffffffffffffffffffff16905090565b6105ea610920565b73ffffffffffffffffffffffffffffffffffffffff166106086105b9565b73ffffffffffffffffffffffffffffffffffffffff161461065e576040517f08c379a0000000000000000000000000000000000000000000000000000000008152600401610655906110a3565b60405180910390fd5b6000600360009054906101000a900473ffffffffffffffffffffffffffffffffffffffff16905081600360006101000a81548173ffffffffffffffffffffffffffffffffffffffff021916908373ffffffffffffffffffffffffffffffffffffffff1602179055507fb24ef369783b0bfd4bac6b2dbb331819fa6ddbb9906e98dc61c3dc63094529093382846040516106f9939291906110c3565b60405180910390a15050565b61070d610920565b73ffffffffffffffffffffffffffffffffffffffff1661072b6105b9565b73ffffffffffffffffffffffffffffffffffffffff1614610781576040517f08c379a0000000000000000000000000000000000000000000000000000000008152600401610778906110a3565b60405180910390fd5b600073ffffffffffffffffffffffffffffffffffffffff168173ffffffffffffffffffffffffffffffffffffffff1614156107f1576040517f08c379a00000000000000000000000000000000000000000000000000000000081526004016107e890611336565b60405180910390fd5b6107fa81610e30565b50565b610805610920565b73ffffffffffffffffffffffffffffffffffffffff166108236105b9565b73ffffffffffffffffffffffffffffffffffffffff1614610879576040517f08c379a0000000000000000000000000000000000000000000000000000000008152600401610870906110a3565b60405180910390fd5b6000600160009054906101000a900473ffffffffffffffffffffffffffffffffffffffff16905081600160006101000a81548173ffffffffffffffffffffffffffffffffffffffff021916908373ffffffffffffffffffffffffffffffffffffffff1602179055507f3f1217b02323e5dc4e83e1bf861d3a5c04873f7e972587684ce1dfcbbb329fa1338284604051610914939291906110c3565b60405180910390a15050565b600033905090565b600080600460009054906101000a900473ffffffffffffffffffffffffffffffffffffffff1673ffffffffffffffffffffffffffffffffffffffff1663bf2510778686866040518463ffffffff1660e01b815260040161098a93929190611356565b60006040518083038186803b1580156109a257600080fd5b505afa1580156109b6573d6000803e3d6000fd5b505050506040513d6000823e3d601f19601f820116820180604052508101906109df91906115c6565b905060006060600260009054906101000a900473ffffffffffffffffffffffffffffffffffffffff1673ffffffffffffffffffffffffffffffffffffffff166399b87f6c84600001516040518263ffffffff1660e01b8152600401610a449190611653565b60006040518083038186803b158015610a5c57600080fd5b505afa158015610a70573d6000803e3d6000fd5b505050506040513d6000823e3d601f19601f82011682018060405250810190610a99919061169a565b8092508193505050600060016002811115610ab757610ab66116f6565b5b836002811115610aca57610ac96116f6565b5b1415610c155760006060600360009054906101000a900473ffffffffffffffffffffffffffffffffffffffff1673ffffffffffffffffffffffffffffffffffffffff168487606001518d604051602401610b25929190611725565b60405160208183030381529060405290604051610b42919061178a565b60405180910390207bffffffffffffffffffffffffffffffffffffffffffffffffffffffff19166020820180517bffffffffffffffffffffffffffffffffffffffffffffffffffffffff8381831617835250505050604051610ba491906117e8565b6000604051808303816000865af19150503d8060008114610be1576040519150601f19603f3d011682016040523d82523d6000602084013e610be6565b606091505b508092508193505050818015610c0c575080806020019051810190610c0b9190611837565b5b92505050610de4565b600280811115610c2857610c276116f6565b5b836002811115610c3b57610c3a6116f6565b5b1415610de35760006060856040015160056000828254610c5b9190611864565b9250508190555060646005541115610ca8576040517f08c379a0000000000000000000000000000000000000000000000000000000008152600401610c9f9061192c565b60405180910390fd5b600360009054906101000a900473ffffffffffffffffffffffffffffffffffffffff1673ffffffffffffffffffffffffffffffffffffffff166064876040015134610cf3919061194c565b610cfd91906119d5565b858860600151604051602401610d13919061102b565b60405160208183030381529060405290604051610d30919061178a565b60405180910390207bffffffffffffffffffffffffffffffffffffffffffffffffffffffff19166020820180517bffffffffffffffffffffffffffffffffffffffffffffffffffffffff8381831617835250505050604051610d9291906117e8565b60006040518083038185875af1925050503d8060008114610dcf576040519150601f19603f3d011682016040523d82523d6000602084013e610dd4565b606091505b50809250819350505081925050505b5b7f5977102be6bd21fd83afd12f0ecdd364d2d921783685a3724dbde9415eb459fa89898989604051610e199493929190611a06565b60405180910390a180945050505050949350505050565b60008060009054906101000a900473ffffffffffffffffffffffffffffffffffffffff169050816000806101000a81548173ffffffffffffffffffffffffffffffffffffffff021916908373ffffffffffffffffffffffffffffffffffffffff1602179055508173ffffffffffffffffffffffffffffffffffffffff168173ffffffffffffffffffffffffffffffffffffffff167f8be0079c531659141344cd1fd0a4f28419497f9722a3daafe3b4186f6b6457e060405160405180910390a35050565b6000604051905090565b600080fd5b600080fd5b600073ffffffffffffffffffffffffffffffffffffffff82169050919050565b6000610f3382610f08565b9050919050565b610f4381610f28565b8114610f4e57600080fd5b50565b600081359050610f6081610f3a565b92915050565b600060208284031215610f7c57610f7b610efe565b5b6000610f8a84828501610f51565b91505092915050565b6000819050919050565b610fa681610f93565b8114610fb157600080fd5b50565b600081359050610fc381610f9d565b92915050565b600080600060608486031215610fe257610fe1610efe565b5b6000610ff086828701610f51565b935050602061100186828701610fb4565b925050604061101286828701610fb4565b9150509250925092565b61102581610f28565b82525050565b6000602082019050611040600083018461101c565b92915050565b600082825260208201905092915050565b7f4f776e61626c653a2063616c6c6572206973206e6f7420746865206f776e6572600082015250565b600061108d602083611046565b915061109882611057565b602082019050919050565b600060208201905081810360008301526110bc81611080565b9050919050565b60006060820190506110d8600083018661101c565b6110e5602083018561101c565b6110f2604083018461101c565b949350505050565b7f436f6e74726163742063616e6e6f74206265207265766f6b6564000000000000600082015250565b6000611130601a83611046565b915061113b826110fa565b602082019050919050565b6000602082019050818103600083015261115f81611123565b9050919050565b7f496e7465727072657465723a204f6e6c792050726f7879206d61792063616c6c600082015250565b600061119c602083611046565b91506111a782611166565b602082019050919050565b600060208201905081810360008301526111cb8161118f565b9050919050565b6111db81610f93565b82525050565b60006040820190506111f660008301856111d2565b61120360208301846111d2565b9392505050565b60008151905061121981610f9d565b92915050565b60006020828403121561123557611234610efe565b5b60006112438482850161120a565b91505092915050565b7f4e487b7100000000000000000000000000000000000000000000000000000000600052601160045260246000fd5b600061128682610f93565b91507fffffffffffffffffffffffffffffffffffffffffffffffffffffffffffffffff8214156112b9576112b861124c565b5b600182019050919050565b7f4f776e61626c653a206e6577206f776e657220697320746865207a65726f206160008201527f6464726573730000000000000000000000000000000000000000000000000000602082015250565b6000611320602683611046565b915061132b826112c4565b604082019050919050565b6000602082019050818103600083015261134f81611313565b9050919050565b600060608201905061136b60008301866111d2565b61137860208301856111d2565b61138560408301846111d2565b949350505050565b600080fd5b6000601f19601f8301169050919050565b7f4e487b7100000000000000000000000000000000000000000000000000000000600052604160045260246000fd5b6113db82611392565b810181811067ffffffffffffffff821117156113fa576113f96113a3565b5b80604052505050565b600061140d610ef4565b905061141982826113d2565b919050565b600080fd5b600080fd5b600080fd5b600067ffffffffffffffff821115611448576114476113a3565b5b61145182611392565b9050602081019050919050565b60005b8381101561147c578082015181840152602081019050611461565b8381111561148b576000848401525b50505050565b60006114a461149f8461142d565b611403565b9050828152602081018484840111156114c0576114bf611428565b5b6114cb84828561145e565b509392505050565b600082601f8301126114e8576114e7611423565b5b81516114f8848260208601611491565b91505092915050565b60008151905061151081610f3a565b92915050565b60006080828403121561152c5761152b61138d565b5b6115366080611403565b9050600082015167ffffffffffffffff8111156115565761155561141e565b5b611562848285016114d3565b600083015250602082015167ffffffffffffffff8111156115865761158561141e565b5b611592848285016114d3565b60208301525060406115a68482850161120a565b60408301525060606115ba84828501611501565b60608301525092915050565b6000602082840312156115dc576115db610efe565b5b600082015167ffffffffffffffff8111156115fa576115f9610f03565b5b61160684828501611516565b91505092915050565b600081519050919050565b60006116258261160f565b61162f8185611046565b935061163f81856020860161145e565b61164881611392565b840191505092915050565b6000602082019050818103600083015261166d818461161a565b905092915050565b6003811061168257600080fd5b50565b60008151905061169481611675565b92915050565b600080604083850312156116b1576116b0610efe565b5b60006116bf85828601611685565b925050602083015167ffffffffffffffff8111156116e0576116df610f03565b5b6116ec858286016114d3565b9150509250929050565b7f4e487b7100000000000000000000000000000000000000000000000000000000600052602160045260246000fd5b600060408201905061173a600083018561101c565b611747602083018461101c565b9392505050565b600081905092915050565b60006117648261160f565b61176e818561174e565b935061177e81856020860161145e565b80840191505092915050565b60006117968284611759565b915081905092915050565b600081519050919050565b600081905092915050565b60006117c2826117a1565b6117cc81856117ac565b93506117dc81856020860161145e565b80840191505092915050565b60006117f482846117b7565b915081905092915050565b60008115159050919050565b611814816117ff565b811461181f57600080fd5b50565b6000815190506118318161180b565b92915050565b60006020828403121561184d5761184c610efe565b5b600061185b84828501611822565b91505092915050565b600061186f82610f93565b915061187a83610f93565b9250827fffffffffffffffffffffffffffffffffffffffffffffffffffffffffffffffff038211156118af576118ae61124c565b5b828201905092915050565b7f496e7465727072657465723a2052756c65206973207370656e64696e67206d6f60008201527f7265206d73672e76616c7565207468616e207265636569766564210000000000602082015250565b6000611916603b83611046565b9150611921826118ba565b604082019050919050565b6000602082019050818103600083015261194581611909565b9050919050565b600061195782610f93565b915061196283610f93565b9250817fffffffffffffffffffffffffffffffffffffffffffffffffffffffffffffffff048311821515161561199b5761199a61124c565b5b828202905092915050565b7f4e487b7100000000000000000000000000000000000000000000000000000000600052601260045260246000fd5b60006119e082610f93565b91506119eb83610f93565b9250826119fb576119fa6119a6565b5b828204905092915050565b6000608082019050611a1b600083018761101c565b611a2860208301866111d2565b611a3560408301856111d2565b611a4260608301846111d2565b9594505050505056fea264697066735822122024dcd9c66c63ae7d37d8f1b26f916856780857dfe6da49cdcd1f34ad3e4e302664736f6c63430008090033",
  "immutableReferences": {},
  "source": "// SPDX-License-Identifier: GPL-3.0\npragma solidity 0.8.9;\n\n/* EXTERNAL DEPENDENCIES */\nimport \"@openzeppelin/contracts/access/Ownable.sol\";\n\n/* INTERNAL DEPENDENCIES */\nimport \"./CommonStructs.sol\";\nimport \"./Instructions.sol\";\nimport \"./Deals.sol\";\n\n/**\n * @title Interpreter contract\n * @notice This contract is responsible for interpreting a single rule\n */\n\ncontract Interpreter is Ownable {\n    \n    /* STORAGE VARIABLES */\n\n    /// @dev Proxy contract address\n    address private proxyContractAddress;\n\n    /// @dev Instructions contract reference\n    Instructions private instructionsInstance;\n\n    /// @dev InstructionsProvider contract reference\n    address private instructionsProviderInstance;\n\n    /// @dev Deals contract reference\n    Deals private dealsInstance;\n\n    /// @dev Track the msg.value already used by the rule being currently executed\n    uint private msgValueUsed;\n    \n    /* EVENTS */\n\n    /**\n    * @dev Event emitted when the Proxy contract address is changed\n    * @param _from Caller address\n    * @param _old Old address of the Proxy contract\n    * @param _new New address of the Proxy contract\n    */\n    event SetProxyContractAddress(address _from, address _old, address _new);\n    \n    /**\n    * @dev Event emitted when the Instructions contract reference is changed\n    * @param _from Caller address\n    * @param _old Old address of the Instructions contract\n    * @param _new New address of the Instructions contract\n    */\n    event SetInstructionsInstance(address _from, address _old, address _new);\n\n    /**\n    * @dev Event emitted when the InstructionsProvider contract reference is changed\n    * @param _from Caller address\n    * @param _old Old address of the InstructionsProvider contract\n    * @param _new New address of the InstructionsProvider contract\n    */\n    event SetInstructionsProviderInstance(address _from, address _old, address _new);\n\n    /**\n    * @dev Event emitted when the Deals contract reference is changed\n    * @param _from Caller address\n    * @param _old Old address of the Deals contract\n    * @param _new New address of the Deals contract\n    */\n    event SetDealsInstance(address _from, address _old, address _new);\n\n    /**\n    * @dev Event emitted when the Deals contract reference is changed\n    * @param _from Caller address\n    * @param _dealId Id of the deal to be executed\n    * @param _ruleId Id of the rule to be executed\n    * @param _articleId Id of the article to be executed\n    */\n    event InterpretArticle(address _from, uint _dealId, uint _ruleId, uint _articleId);\n\n    /* MODIFIERS */ \n    \n    /// @dev Modifier used to assess that the caller is the Proxy contract\n    modifier onlyProxy() {\n        require(msg.sender==proxyContractAddress, \"Interpreter: Only Proxy may call\");\n        _;\n    }\n\n    /* PUBLIC INTERFACE */\n\n    /**\n    * @dev Sets the Proxy contract reference. Emits a SetInterpreterInstance event\n    * @param _new Address of the Proxy contract\n    */\n    function setProxyContractAddress(address _new) public onlyOwner {\n        address old = proxyContractAddress;\n        proxyContractAddress = _new;\n        emit SetProxyContractAddress(msg.sender, old, _new);\n    }\n\n    /**\n    * @dev Sets the Instructions contract reference. Emits a SetInstructionsInstance event\n    * @param _new Address of the Instructions contract\n    */\n    function setInstructionsInstance(address _new) public onlyOwner {\n        address old = address(instructionsInstance);\n        instructionsInstance = Instructions(_new);\n        emit SetInstructionsInstance(msg.sender, old, _new);\n    }\n    \n    /**\n    * @dev Sets the InstructionsProvider contract reference. Emits a SetInstructionsProviderInstance event\n    * @param _new Address of the InstructionsProvider contract\n    */\n    function setInstructionsProviderInstance(address _new) public onlyOwner {\n        address old = instructionsProviderInstance;\n        instructionsProviderInstance = _new;\n        emit SetInstructionsProviderInstance(msg.sender, old, _new);\n    }\n\n    /**\n    * @dev Sets the Deals contract reference. Emits a SetDealsInstance event\n    * @param _new Address of the Deals contract\n    */\n    function setDealsInstance(address _new) public onlyOwner {\n        address old = address(dealsInstance);\n        dealsInstance = Deals(_new);\n        emit SetDealsInstance(msg.sender, old, _new);\n    }\n\n    /**\n    * @dev Interprets a rule\n    * @param _from Address of the user who initiated the call\n    * @param _dealId Id of the deal to be executed\n    * @param _ruleId Id of the rule to be executed\n    */\n    function interpretRule(address _from, uint _dealId, uint _ruleId) external payable onlyProxy() {\n        // Init the msg value used to 0\n        msgValueUsed = 0;\n        \n        // Get all articles in rule\n        uint articlesCount = dealsInstance.getArticlesCount(_dealId, _ruleId);\n        \n        bool success = true;\n        for (uint i=0;i<articlesCount;i++) {\n            success = interpretArticle(_from, _dealId, _ruleId, i);\n            if (!success) {\n                break;\n            }\n        }\n    }\n\n    /**\n    * @dev Interprets a rule\n    * @param _from Address of the user who initiated the call\n    * @param _dealId Id of the deal to be executed\n    * @param _ruleId Id of the rule to be executed\n    * @param _articleId Id of the article to be executed\n    */\n    function interpretArticle(address _from, uint _dealId, uint _ruleId, uint _articleId) private returns (bool) {\n        // Get Article\n        CommonStructs.Article memory article = dealsInstance.getArticle(_dealId, _ruleId, _articleId);\n\n        // Get instruction type and signature\n        CommonStructs.InstructionTypes instructionType;\n        string memory instructionSignature;\n        (instructionType, instructionSignature) = instructionsInstance.getInstruction(article.instructionName);\n\n        //> Params injection depends on the instruction type\n        \n        // CASE ADDRESS_ADDRESS_R_BOOL: pass the Article.paramAddress field\n        bool success=false;\n        if (instructionType == CommonStructs.InstructionTypes.ADDRESS_ADDRESS_R_BOOL) {\n            // Upgrability: Low level call to InstructionsProvider\n            bool _success;\n            bytes memory _result;\n            (_success, _result) = instructionsProviderInstance.call(\n                abi.encodeWithSignature(\n                    instructionSignature,\n                    article.paramAddress,\n                    _from\n                )\n            );\n            success = _success && abi.decode(_result, (bool));\n\n        // CASE ADDRESS_PAYABLE: pass the Article.paramAddress\n        } else if (instructionType == CommonStructs.InstructionTypes.ADDRESS_PAYABLE) {\n            // Upgrability: Low level call to InstructionsProvider\n            bool _success;\n            bytes memory _result;\n            \n            // Increment current msg.value % usage\n            msgValueUsed += article.paramUInt;\n            // Revert if used value > 100% of msg.value\n            if (msgValueUsed>100)\n                revert(\"Interpreter: Rule is spending more msg.value than received!\");\n            (_success, _result) = instructionsProviderInstance.call{value:(msg.value*article.paramUInt)/100}(\n                abi.encodeWithSignature(\n                    instructionSignature,\n                    article.paramAddress\n                )\n            );\n            success = _success;\n        }\n        \n        // Emit an event to inform the front-end that a particular article in the rule successed or not\n        emit InterpretArticle(_from, _dealId, _ruleId, _articleId);\n        return success;\n    }\n\n    /* OVERRIDE & BLOCK UNUSED INHERITED FUNCTIONS */\n\n    /**\n    * @dev Block OpenZeppelin Ownable.renounceOwnership\n    * @notice Will always revert\n    */ \n    function renounceOwnership() public pure override {\n        revert('Contract cannot be revoked');\n    }\n}",
  "sourcePath": "/home/shakalee/Documents/Consensys/PROJOT-v0/contracts/Interpreter.sol",
  "compiler": {
    "name": "solc",
    "version": "0.8.9+commit.e5eed63a.Emscripten.clang"
  },
  "schemaVersion": "3.4.3",
  "updatedAt": "2021-11-28T21:39:31.779Z",
  "networkType": "ethereum",
  "devdoc": {
    "events": {
      "InterpretArticle(address,uint256,uint256,uint256)": {
        "details": "Event emitted when the Deals contract reference is changed",
        "params": {
          "_articleId": "Id of the article to be executed",
          "_dealId": "Id of the deal to be executed",
          "_from": "Caller address",
          "_ruleId": "Id of the rule to be executed"
        }
      },
      "SetDealsInstance(address,address,address)": {
        "details": "Event emitted when the Deals contract reference is changed",
        "params": {
          "_from": "Caller address",
          "_new": "New address of the Deals contract",
          "_old": "Old address of the Deals contract"
        }
      },
      "SetInstructionsInstance(address,address,address)": {
        "details": "Event emitted when the Instructions contract reference is changed",
        "params": {
          "_from": "Caller address",
          "_new": "New address of the Instructions contract",
          "_old": "Old address of the Instructions contract"
        }
      },
      "SetInstructionsProviderInstance(address,address,address)": {
        "details": "Event emitted when the InstructionsProvider contract reference is changed",
        "params": {
          "_from": "Caller address",
          "_new": "New address of the InstructionsProvider contract",
          "_old": "Old address of the InstructionsProvider contract"
        }
      },
      "SetProxyContractAddress(address,address,address)": {
        "details": "Event emitted when the Proxy contract address is changed",
        "params": {
          "_from": "Caller address",
          "_new": "New address of the Proxy contract",
          "_old": "Old address of the Proxy contract"
        }
      }
    },
    "kind": "dev",
    "methods": {
      "interpretRule(address,uint256,uint256)": {
        "details": "Interprets a rule",
        "params": {
          "_dealId": "Id of the deal to be executed",
          "_from": "Address of the user who initiated the call",
          "_ruleId": "Id of the rule to be executed"
        }
      },
      "owner()": {
        "details": "Returns the address of the current owner."
      },
      "renounceOwnership()": {
        "details": "Block OpenZeppelin Ownable.renounceOwnership"
      },
      "setDealsInstance(address)": {
        "details": "Sets the Deals contract reference. Emits a SetDealsInstance event",
        "params": {
          "_new": "Address of the Deals contract"
        }
      },
      "setInstructionsInstance(address)": {
        "details": "Sets the Instructions contract reference. Emits a SetInstructionsInstance event",
        "params": {
          "_new": "Address of the Instructions contract"
        }
      },
      "setInstructionsProviderInstance(address)": {
        "details": "Sets the InstructionsProvider contract reference. Emits a SetInstructionsProviderInstance event",
        "params": {
          "_new": "Address of the InstructionsProvider contract"
        }
      },
      "setProxyContractAddress(address)": {
        "details": "Sets the Proxy contract reference. Emits a SetInterpreterInstance event",
        "params": {
          "_new": "Address of the Proxy contract"
        }
      },
      "transferOwnership(address)": {
        "details": "Transfers ownership of the contract to a new account (`newOwner`). Can only be called by the current owner."
      }
    },
    "stateVariables": {
      "dealsInstance": {
        "details": "Deals contract reference"
      },
      "instructionsInstance": {
        "details": "Instructions contract reference"
      },
      "instructionsProviderInstance": {
        "details": "InstructionsProvider contract reference"
      },
      "msgValueUsed": {
        "details": "Track the msg.value already used by the rule being currently executed"
      },
      "proxyContractAddress": {
        "details": "Proxy contract address"
      }
    },
    "title": "Interpreter contract",
    "version": 1
  },
  "userdoc": {
    "kind": "user",
    "methods": {
      "renounceOwnership()": {
        "notice": "Will always revert"
      }
    },
    "notice": "This contract is responsible for interpreting a single rule",
    "version": 1
  }
}