{
  "contractName": "Proxy",
  "abi": [
    {
      "inputs": [
        {
          "internalType": "uint256",
          "name": "_accountCreationFees",
          "type": "uint256"
        },
        {
          "internalType": "uint256",
          "name": "_ruleCreationFees",
          "type": "uint256"
        },
        {
          "internalType": "uint256",
          "name": "_allowAllAddressesFees",
          "type": "uint256"
        },
        {
          "internalType": "uint256",
          "name": "_transactionMinimalValue",
          "type": "uint256"
        },
        {
          "internalType": "uint256",
          "name": "_transactionFees",
          "type": "uint256"
        },
        {
          "internalType": "uint256",
          "name": "_USD2WEIConversionRate",
          "type": "uint256"
        }
      ],
      "stateMutability": "nonpayable",
      "type": "constructor"
    },
    {
      "anonymous": false,
      "inputs": [
        {
          "indexed": false,
          "internalType": "uint256",
          "name": "",
          "type": "uint256"
        }
      ],
      "name": "Log",
      "type": "event"
    },
    {
      "anonymous": false,
      "inputs": [
        {
          "indexed": false,
          "internalType": "uint256",
          "name": "",
          "type": "uint256"
        },
        {
          "indexed": false,
          "internalType": "uint256",
          "name": "",
          "type": "uint256"
        }
      ],
      "name": "Log",
      "type": "event"
    },
    {
      "anonymous": false,
      "inputs": [
        {
          "indexed": false,
          "internalType": "address",
          "name": "_from",
          "type": "address"
        },
        {
          "indexed": false,
          "internalType": "uint256",
          "name": "_old",
          "type": "uint256"
        },
        {
          "indexed": false,
          "internalType": "uint256",
          "name": "_new",
          "type": "uint256"
        }
      ],
      "name": "ModifyAccountCreationFees",
      "type": "event"
    },
    {
      "anonymous": false,
      "inputs": [
        {
          "indexed": false,
          "internalType": "address",
          "name": "_from",
          "type": "address"
        },
        {
          "indexed": false,
          "internalType": "uint256",
          "name": "_old",
          "type": "uint256"
        },
        {
          "indexed": false,
          "internalType": "uint256",
          "name": "_new",
          "type": "uint256"
        }
      ],
      "name": "ModifyAllowAllAccountsFees",
      "type": "event"
    },
    {
      "anonymous": false,
      "inputs": [
        {
          "indexed": false,
          "internalType": "address",
          "name": "_from",
          "type": "address"
        },
        {
          "indexed": false,
          "internalType": "address",
          "name": "_old",
          "type": "address"
        },
        {
          "indexed": false,
          "internalType": "address",
          "name": "_new",
          "type": "address"
        }
      ],
      "name": "ModifyDealsContractAddress",
      "type": "event"
    },
    {
      "anonymous": false,
      "inputs": [
        {
          "indexed": false,
          "internalType": "address",
          "name": "_from",
          "type": "address"
        },
        {
          "indexed": false,
          "internalType": "address",
          "name": "_old",
          "type": "address"
        },
        {
          "indexed": false,
          "internalType": "address",
          "name": "_new",
          "type": "address"
        }
      ],
      "name": "ModifyInstructionsContractAddress",
      "type": "event"
    },
    {
      "anonymous": false,
      "inputs": [
        {
          "indexed": false,
          "internalType": "address",
          "name": "_from",
          "type": "address"
        },
        {
          "indexed": false,
          "internalType": "address",
          "name": "_old",
          "type": "address"
        },
        {
          "indexed": false,
          "internalType": "address",
          "name": "_new",
          "type": "address"
        }
      ],
      "name": "ModifyInstructionsProviderContractAddress",
      "type": "event"
    },
    {
      "anonymous": false,
      "inputs": [
        {
          "indexed": false,
          "internalType": "address",
          "name": "_from",
          "type": "address"
        },
        {
          "indexed": false,
          "internalType": "address",
          "name": "_old",
          "type": "address"
        },
        {
          "indexed": false,
          "internalType": "address",
          "name": "_new",
          "type": "address"
        }
      ],
      "name": "ModifyInterpreterContractAddress",
      "type": "event"
    },
    {
      "anonymous": false,
      "inputs": [
        {
          "indexed": false,
          "internalType": "address",
          "name": "_from",
          "type": "address"
        },
        {
          "indexed": false,
          "internalType": "uint256",
          "name": "_old",
          "type": "uint256"
        },
        {
          "indexed": false,
          "internalType": "uint256",
          "name": "_new",
          "type": "uint256"
        }
      ],
      "name": "ModifyRuleCreationFees",
      "type": "event"
    },
    {
      "anonymous": false,
      "inputs": [
        {
          "indexed": false,
          "internalType": "address",
          "name": "_from",
          "type": "address"
        },
        {
          "indexed": false,
          "internalType": "uint256",
          "name": "_old",
          "type": "uint256"
        },
        {
          "indexed": false,
          "internalType": "uint256",
          "name": "_new",
          "type": "uint256"
        }
      ],
      "name": "ModifyTransactionFees",
      "type": "event"
    },
    {
      "anonymous": false,
      "inputs": [
        {
          "indexed": false,
          "internalType": "address",
          "name": "_from",
          "type": "address"
        },
        {
          "indexed": false,
          "internalType": "uint256",
          "name": "_old",
          "type": "uint256"
        },
        {
          "indexed": false,
          "internalType": "uint256",
          "name": "_new",
          "type": "uint256"
        }
      ],
      "name": "ModifyTransactionMinimalValue",
      "type": "event"
    },
    {
      "anonymous": false,
      "inputs": [
        {
          "indexed": false,
          "internalType": "address",
          "name": "_from",
          "type": "address"
        },
        {
          "indexed": false,
          "internalType": "uint256",
          "name": "_old",
          "type": "uint256"
        },
        {
          "indexed": false,
          "internalType": "uint256",
          "name": "_new",
          "type": "uint256"
        }
      ],
      "name": "ModifyUSD2WEIConversionRate",
      "type": "event"
    },
    {
      "anonymous": false,
      "inputs": [
        {
          "indexed": true,
          "internalType": "address",
          "name": "previousOwner",
          "type": "address"
        },
        {
          "indexed": true,
          "internalType": "address",
          "name": "newOwner",
          "type": "address"
        }
      ],
      "name": "OwnershipTransferred",
      "type": "event"
    },
    {
      "anonymous": false,
      "inputs": [
        {
          "indexed": false,
          "internalType": "address",
          "name": "_from",
          "type": "address"
        },
        {
          "indexed": false,
          "internalType": "uint256",
          "name": "_dealId",
          "type": "uint256"
        },
        {
          "indexed": false,
          "internalType": "uint256",
          "name": "_fees",
          "type": "uint256"
        }
      ],
      "name": "PayDealCreationFees",
      "type": "event"
    },
    {
      "anonymous": false,
      "inputs": [
        {
          "indexed": false,
          "internalType": "address",
          "name": "_from",
          "type": "address"
        },
        {
          "indexed": false,
          "internalType": "uint256",
          "name": "_dealId",
          "type": "uint256"
        },
        {
          "indexed": false,
          "internalType": "uint256",
          "name": "_ruleId",
          "type": "uint256"
        },
        {
          "indexed": false,
          "internalType": "uint256",
          "name": "_fees",
          "type": "uint256"
        }
      ],
      "name": "PayTransactionFees",
      "type": "event"
    },
    {
      "anonymous": false,
      "inputs": [
        {
          "indexed": false,
          "internalType": "address",
          "name": "_to",
          "type": "address"
        },
        {
          "indexed": false,
          "internalType": "uint256",
          "name": "_dealId",
          "type": "uint256"
        },
        {
          "indexed": false,
          "internalType": "uint256",
          "name": "_amount",
          "type": "uint256"
        }
      ],
      "name": "ReimburseExcessValue",
      "type": "event"
    },
    {
      "inputs": [],
      "name": "USD2WEIConversionRate",
      "outputs": [
        {
          "internalType": "uint256",
          "name": "",
          "type": "uint256"
        }
      ],
      "stateMutability": "view",
      "type": "function"
    },
    {
      "inputs": [],
      "name": "accountCreationFees",
      "outputs": [
        {
          "internalType": "uint256",
          "name": "",
          "type": "uint256"
        }
      ],
      "stateMutability": "view",
      "type": "function"
    },
    {
      "inputs": [],
      "name": "allowAllAddressesFees",
      "outputs": [
        {
          "internalType": "uint256",
          "name": "",
          "type": "uint256"
        }
      ],
      "stateMutability": "view",
      "type": "function"
    },
    {
      "inputs": [],
      "name": "dealsContractRef",
      "outputs": [
        {
          "internalType": "contract Deals",
          "name": "",
          "type": "address"
        }
      ],
      "stateMutability": "view",
      "type": "function"
    },
    {
      "inputs": [],
      "name": "instructionsContractRef",
      "outputs": [
        {
          "internalType": "contract Instructions",
          "name": "",
          "type": "address"
        }
      ],
      "stateMutability": "view",
      "type": "function"
    },
    {
      "inputs": [],
      "name": "instructionsProviderContractRef",
      "outputs": [
        {
          "internalType": "contract InstructionsProvider",
          "name": "",
          "type": "address"
        }
      ],
      "stateMutability": "view",
      "type": "function"
    },
    {
      "inputs": [],
      "name": "interpreterContractRef",
      "outputs": [
        {
          "internalType": "contract Interpreter",
          "name": "",
          "type": "address"
        }
      ],
      "stateMutability": "view",
      "type": "function"
    },
    {
      "inputs": [],
      "name": "owner",
      "outputs": [
        {
          "internalType": "address",
          "name": "",
          "type": "address"
        }
      ],
      "stateMutability": "view",
      "type": "function"
    },
    {
      "inputs": [],
      "name": "ruleCreationFees",
      "outputs": [
        {
          "internalType": "uint256",
          "name": "",
          "type": "uint256"
        }
      ],
      "stateMutability": "view",
      "type": "function"
    },
    {
      "inputs": [],
      "name": "transactionFees",
      "outputs": [
        {
          "internalType": "uint256",
          "name": "",
          "type": "uint256"
        }
      ],
      "stateMutability": "view",
      "type": "function"
    },
    {
      "inputs": [],
      "name": "transactionMinimalValue",
      "outputs": [
        {
          "internalType": "uint256",
          "name": "",
          "type": "uint256"
        }
      ],
      "stateMutability": "view",
      "type": "function"
    },
    {
      "inputs": [
        {
          "internalType": "address",
          "name": "newOwner",
          "type": "address"
        }
      ],
      "name": "transferOwnership",
      "outputs": [],
      "stateMutability": "nonpayable",
      "type": "function"
    },
    {
      "inputs": [
        {
          "internalType": "address",
          "name": "_new",
          "type": "address"
        }
      ],
      "name": "setInstructionsContractRef",
      "outputs": [],
      "stateMutability": "nonpayable",
      "type": "function"
    },
    {
      "inputs": [
        {
          "internalType": "address",
          "name": "_new",
          "type": "address"
        }
      ],
      "name": "setInstructionsProviderContractRef",
      "outputs": [],
      "stateMutability": "nonpayable",
      "type": "function"
    },
    {
      "inputs": [
        {
          "internalType": "address",
          "name": "_new",
          "type": "address"
        }
      ],
      "name": "setDealsContractRef",
      "outputs": [],
      "stateMutability": "nonpayable",
      "type": "function"
    },
    {
      "inputs": [
        {
          "internalType": "address",
          "name": "_new",
          "type": "address"
        }
      ],
      "name": "setInterpreterContractRef",
      "outputs": [],
      "stateMutability": "nonpayable",
      "type": "function"
    },
    {
      "inputs": [
        {
          "internalType": "uint256",
          "name": "_new",
          "type": "uint256"
        }
      ],
      "name": "setAccountCreationFees",
      "outputs": [],
      "stateMutability": "nonpayable",
      "type": "function"
    },
    {
      "inputs": [
        {
          "internalType": "uint256",
          "name": "_new",
          "type": "uint256"
        }
      ],
      "name": "setRuleCreationFees",
      "outputs": [],
      "stateMutability": "nonpayable",
      "type": "function"
    },
    {
      "inputs": [
        {
          "internalType": "uint256",
          "name": "_new",
          "type": "uint256"
        }
      ],
      "name": "setAllowAllAddressesFees",
      "outputs": [],
      "stateMutability": "nonpayable",
      "type": "function"
    },
    {
      "inputs": [
        {
          "internalType": "uint256",
          "name": "_new",
          "type": "uint256"
        }
      ],
      "name": "setTransactionMinimalValue",
      "outputs": [],
      "stateMutability": "nonpayable",
      "type": "function"
    },
    {
      "inputs": [
        {
          "internalType": "uint256",
          "name": "_new",
          "type": "uint256"
        }
      ],
      "name": "setTransactionFees",
      "outputs": [],
      "stateMutability": "nonpayable",
      "type": "function"
    },
    {
      "inputs": [
        {
          "internalType": "uint256",
          "name": "_new",
          "type": "uint256"
        }
      ],
      "name": "setUSD2WEIConversionRate",
      "outputs": [],
      "stateMutability": "nonpayable",
      "type": "function"
    },
    {
      "inputs": [
        {
          "internalType": "address[]",
          "name": "_accounts",
          "type": "address[]"
        },
        {
          "components": [
            {
              "internalType": "string",
              "name": "instructionName",
              "type": "string"
            },
            {
              "internalType": "string",
              "name": "paramStr",
              "type": "string"
            },
            {
              "internalType": "uint256",
              "name": "paramUInt",
              "type": "uint256"
            },
            {
              "internalType": "address",
              "name": "paramAddress",
              "type": "address"
            }
          ],
          "internalType": "struct CommonStructs.Article[][]",
          "name": "_rulesList",
          "type": "tuple[][]"
        }
      ],
      "name": "createDeal",
      "outputs": [
        {
          "internalType": "uint256",
          "name": "",
          "type": "uint256"
        }
      ],
      "stateMutability": "payable",
      "type": "function"
    },
    {
      "inputs": [
        {
          "internalType": "uint256",
          "name": "_dealId",
          "type": "uint256"
        },
        {
          "internalType": "uint256",
          "name": "_ruleId",
          "type": "uint256"
        }
      ],
      "name": "executeRule",
      "outputs": [],
      "stateMutability": "payable",
      "type": "function"
    },
    {
      "inputs": [],
      "name": "depositsOf",
      "outputs": [
        {
          "internalType": "uint256",
          "name": "",
          "type": "uint256"
        }
      ],
      "stateMutability": "view",
      "type": "function"
    },
    {
      "inputs": [],
      "name": "withdraw",
      "outputs": [],
      "stateMutability": "nonpayable",
      "type": "function"
    },
    {
      "inputs": [],
      "name": "getBalance",
      "outputs": [
        {
          "internalType": "uint256",
          "name": "",
          "type": "uint256"
        }
      ],
      "stateMutability": "view",
      "type": "function"
    },
    {
      "inputs": [
        {
          "internalType": "uint256",
          "name": "_accountsCount",
          "type": "uint256"
        },
        {
          "internalType": "uint256",
          "name": "_rulesCount",
          "type": "uint256"
        }
      ],
      "name": "computeDealCreationFeesInETH",
      "outputs": [
        {
          "internalType": "uint256",
          "name": "",
          "type": "uint256"
        }
      ],
      "stateMutability": "view",
      "type": "function"
    },
    {
      "inputs": [
        {
          "internalType": "uint256",
          "name": "_amountInWEI",
          "type": "uint256"
        }
      ],
      "name": "convertWEI2USD",
      "outputs": [
        {
          "internalType": "uint256",
          "name": "",
          "type": "uint256"
        }
      ],
      "stateMutability": "view",
      "type": "function"
    },
    {
      "inputs": [
        {
          "internalType": "uint256",
          "name": "_amountInUSD",
          "type": "uint256"
        }
      ],
      "name": "convertUSD2WEI",
      "outputs": [
        {
          "internalType": "uint256",
          "name": "",
          "type": "uint256"
        }
      ],
      "stateMutability": "view",
      "type": "function"
    },
    {
      "inputs": [
        {
          "internalType": "string",
          "name": "_s1",
          "type": "string"
        },
        {
          "internalType": "string",
          "name": "_s2",
          "type": "string"
        }
      ],
      "name": "stringsEqual",
      "outputs": [
        {
          "internalType": "bool",
          "name": "",
          "type": "bool"
        }
      ],
      "stateMutability": "pure",
      "type": "function"
    },
    {
      "inputs": [],
      "name": "renounceOwnership",
      "outputs": [],
      "stateMutability": "pure",
      "type": "function"
    }
  ],
  "bytecode": "0x60806040523480156200001157600080fd5b506040516200324138038062003241833981810160405281019062000037919062000199565b620000576200004b6200008d60201b60201c565b6200009560201b60201c565b856005819055508460068190555083600781905550826008819055508160098190555080600a8190555050505050505062000235565b600033905090565b60008060009054906101000a900473ffffffffffffffffffffffffffffffffffffffff169050816000806101000a81548173ffffffffffffffffffffffffffffffffffffffff021916908373ffffffffffffffffffffffffffffffffffffffff1602179055508173ffffffffffffffffffffffffffffffffffffffff168173ffffffffffffffffffffffffffffffffffffffff167f8be0079c531659141344cd1fd0a4f28419497f9722a3daafe3b4186f6b6457e060405160405180910390a35050565b600080fd5b6000819050919050565b62000173816200015e565b81146200017f57600080fd5b50565b600081519050620001938162000168565b92915050565b60008060008060008060c08789031215620001b957620001b862000159565b5b6000620001c989828a0162000182565b9650506020620001dc89828a0162000182565b9550506040620001ef89828a0162000182565b94505060606200020289828a0162000182565b93505060806200021589828a0162000182565b92505060a06200022889828a0162000182565b9150509295509295509295565b612ffc80620002456000396000f3fe6080604052600436106101e35760003560e01c806382eaace611610102578063c82c248811610095578063f2fde38b11610064578063f2fde38b14610687578063f42a4f79146106b0578063f8210b3a146106ed578063fc51821c14610718576101e3565b8063c82c2488146105dd578063d33d6d6a14610606578063e07b905314610631578063e65fcc731461065c576101e3565b80639efe46bc116100d15780639efe46bc14610535578063a2ae0cd214610560578063b37be8e414610589578063b50f34da146105b4576101e3565b806382eaace6146104865780638d249545146104c35780638da5cb5b146104ee57806396b6dc7d14610519576101e3565b80634368080b1161017a578063652522f511610149578063652522f5146103f05780636b18c1ca1461041b5780636c79eafc14610444578063715018a61461046f576101e3565b80634368080b1461034a578063446f772f146103735780634e02b0b31461039c578063562b7d94146103c5576101e3565b80632131d8c3116101b65780632131d8c3146102b857806326698e75146102e15780632a16348c1461030a5780633ccfd60b14610333576101e3565b8063028a84be146101e8578063042c27ea1461021357806312065fe01461025057806313d199501461027b575b600080fd5b3480156101f457600080fd5b506101fd610748565b60405161020a9190611b57565b60405180910390f35b34801561021f57600080fd5b5061023a60048036038101906102359190611bb2565b61074e565b6040516102479190611b57565b60405180910390f35b34801561025c57600080fd5b50610265610765565b6040516102729190611b57565b60405180910390f35b34801561028757600080fd5b506102a2600480360381019061029d9190611d25565b6107e9565b6040516102af9190611db8565b60405180910390f35b3480156102c457600080fd5b506102df60048036038101906102da9190611e31565b610804565b005b3480156102ed57600080fd5b5061030860048036038101906103039190611bb2565b610927565b005b34801561031657600080fd5b50610331600480360381019061032c9190611bb2565b6109f0565b005b34801561033f57600080fd5b50610348610ab9565b005b34801561035657600080fd5b50610371600480360381019061036c9190611e31565b610b48565b005b34801561037f57600080fd5b5061039a60048036038101906103959190611e31565b610c6b565b005b3480156103a857600080fd5b506103c360048036038101906103be9190611e31565b610d8e565b005b3480156103d157600080fd5b506103da610eb1565b6040516103e79190611ebd565b60405180910390f35b3480156103fc57600080fd5b50610405610ed7565b6040516104129190611b57565b60405180910390f35b34801561042757600080fd5b50610442600480360381019061043d9190611bb2565b610edd565b005b34801561045057600080fd5b50610459610fa6565b6040516104669190611ef9565b60405180910390f35b34801561047b57600080fd5b50610484610fcc565b005b34801561049257600080fd5b506104ad60048036038101906104a89190611f14565b611007565b6040516104ba9190611b57565b60405180910390f35b3480156104cf57600080fd5b506104d8611044565b6040516104e59190611b57565b60405180910390f35b3480156104fa57600080fd5b5061050361104a565b6040516105109190611f63565b60405180910390f35b610533600480360381019061052e9190611f14565b611073565b005b34801561054157600080fd5b5061054a611207565b6040516105579190611b57565b60405180910390f35b34801561056c57600080fd5b5061058760048036038101906105829190611bb2565b61120d565b005b34801561059557600080fd5b5061059e6112d6565b6040516105ab9190611b57565b60405180910390f35b3480156105c057600080fd5b506105db60048036038101906105d69190611bb2565b6112dc565b005b3480156105e957600080fd5b5061060460048036038101906105ff9190611bb2565b6113a5565b005b34801561061257600080fd5b5061061b61146e565b6040516106289190611b57565b60405180910390f35b34801561063d57600080fd5b50610646611520565b6040516106539190611b57565b60405180910390f35b34801561066857600080fd5b50610671611526565b60405161067e9190611f9f565b60405180910390f35b34801561069357600080fd5b506106ae60048036038101906106a99190611e31565b61154c565b005b3480156106bc57600080fd5b506106d760048036038101906106d29190611bb2565b611644565b6040516106e49190611b57565b60405180910390f35b3480156106f957600080fd5b5061070261165b565b60405161070f9190611fdb565b60405180910390f35b610732600480360381019061072d919061233a565b611681565b60405161073f9190611b57565b60405180910390f35b60055481565b6000600a548261075e91906123e1565b9050919050565b600061076f611a72565b73ffffffffffffffffffffffffffffffffffffffff1661078d61104a565b73ffffffffffffffffffffffffffffffffffffffff16146107e3576040517f08c379a00000000000000000000000000000000000000000000000000000000081526004016107da90612498565b60405180910390fd5b47905090565b60008180519060200120838051906020012014905092915050565b61080c611a72565b73ffffffffffffffffffffffffffffffffffffffff1661082a61104a565b73ffffffffffffffffffffffffffffffffffffffff1614610880576040517f08c379a000000000000000000000000000000000000000000000000000000000815260040161087790612498565b60405180910390fd5b6000600460009054906101000a900473ffffffffffffffffffffffffffffffffffffffff16905081600460006101000a81548173ffffffffffffffffffffffffffffffffffffffff021916908373ffffffffffffffffffffffffffffffffffffffff1602179055507f81ed796ae91ccecf245e3cb1b6149b3491e1f0989e603b5d1b388bd68f06b52b33828460405161091b939291906124b8565b60405180910390a15050565b61092f611a72565b73ffffffffffffffffffffffffffffffffffffffff1661094d61104a565b73ffffffffffffffffffffffffffffffffffffffff16146109a3576040517f08c379a000000000000000000000000000000000000000000000000000000000815260040161099a90612498565b60405180910390fd5b60006006549050816006819055507f95204251d165fe2245c1dceb4c89885d7b8cfdb88aa079c9428ef4e12df3b0ac3382846040516109e4939291906124ef565b60405180910390a15050565b6109f8611a72565b73ffffffffffffffffffffffffffffffffffffffff16610a1661104a565b73ffffffffffffffffffffffffffffffffffffffff1614610a6c576040517f08c379a0000000000000000000000000000000000000000000000000000000008152600401610a6390612498565b60405180910390fd5b60006008549050816008819055507f9fd5b1fe2d0c3437bd798e95b2f63bd4a3b08887c95a04d22832ccb4aae9fda4338284604051610aad939291906124ef565b60405180910390a15050565b600260009054906101000a900473ffffffffffffffffffffffffffffffffffffffff1673ffffffffffffffffffffffffffffffffffffffff166351cff8d9336040518263ffffffff1660e01b8152600401610b149190612547565b600060405180830381600087803b158015610b2e57600080fd5b505af1158015610b42573d6000803e3d6000fd5b50505050565b610b50611a72565b73ffffffffffffffffffffffffffffffffffffffff16610b6e61104a565b73ffffffffffffffffffffffffffffffffffffffff1614610bc4576040517f08c379a0000000000000000000000000000000000000000000000000000000008152600401610bbb90612498565b60405180910390fd5b6000600160009054906101000a900473ffffffffffffffffffffffffffffffffffffffff16905081600160006101000a81548173ffffffffffffffffffffffffffffffffffffffff021916908373ffffffffffffffffffffffffffffffffffffffff1602179055507f7a98528f6374afdc782de68dfe485f60c47c83eb22d862896ee7c59a13c6d899338284604051610c5f939291906124b8565b60405180910390a15050565b610c73611a72565b73ffffffffffffffffffffffffffffffffffffffff16610c9161104a565b73ffffffffffffffffffffffffffffffffffffffff1614610ce7576040517f08c379a0000000000000000000000000000000000000000000000000000000008152600401610cde90612498565b60405180910390fd5b6000600260009054906101000a900473ffffffffffffffffffffffffffffffffffffffff16905081600260006101000a81548173ffffffffffffffffffffffffffffffffffffffff021916908373ffffffffffffffffffffffffffffffffffffffff1602179055507fdb667aada5a9918e51ab4a84bdf8d3e2f29386d98b52ae66cb26eaa442bbf968338284604051610d82939291906124b8565b60405180910390a15050565b610d96611a72565b73ffffffffffffffffffffffffffffffffffffffff16610db461104a565b73ffffffffffffffffffffffffffffffffffffffff1614610e0a576040517f08c379a0000000000000000000000000000000000000000000000000000000008152600401610e0190612498565b60405180910390fd5b6000600360009054906101000a900473ffffffffffffffffffffffffffffffffffffffff16905081600360006101000a81548173ffffffffffffffffffffffffffffffffffffffff021916908373ffffffffffffffffffffffffffffffffffffffff1602179055507fef88ef88851c867cbde2a8d8f43f01b9b75342fb93a2a7034ea0d656dbe13782338284604051610ea5939291906124b8565b60405180910390a15050565b600160009054906101000a900473ffffffffffffffffffffffffffffffffffffffff1681565b60065481565b610ee5611a72565b73ffffffffffffffffffffffffffffffffffffffff16610f0361104a565b73ffffffffffffffffffffffffffffffffffffffff1614610f59576040517f08c379a0000000000000000000000000000000000000000000000000000000008152600401610f5090612498565b60405180910390fd5b60006005549050816005819055507f20cb277045b07975ddd69579bb7c5703b15359a94bc8b635d4a17c243c8a65ac338284604051610f9a939291906124ef565b60405180910390a15050565b600460009054906101000a900473ffffffffffffffffffffffffffffffffffffffff1681565b6040517f08c379a0000000000000000000000000000000000000000000000000000000008152600401610ffe906125ae565b60405180910390fd5b6000600a546006548361101a91906123e1565b6005548561102891906123e1565b61103291906125ce565b61103c91906123e1565b905092915050565b60075481565b60008060009054906101000a900473ffffffffffffffffffffffffffffffffffffffff16905090565b600061107e34611644565b90506008548110156110c5576040517f08c379a00000000000000000000000000000000000000000000000000000000081526004016110bc90612696565b60405180910390fd5b60006009546064346110d791906126e5565b6110e191906123e1565b9050600460009054906101000a900473ffffffffffffffffffffffffffffffffffffffff1673ffffffffffffffffffffffffffffffffffffffff1663889f7d85823461112d9190612716565b3387876040518563ffffffff1660e01b815260040161114e939291906124ef565b6000604051808303818588803b15801561116757600080fd5b505af115801561117b573d6000803e3d6000fd5b50505050507ffa46e5ec587216687a4a33c4e605f1483f16833be6465e442d80d7bcbaec2eaf338585846040516111b5949392919061274a565b60405180910390a17fbd0faddf87043dd749c1b9d4dca8a12589b8cb5e2106832111ce23f219b143678182346111eb9190612716565b6040516111f992919061278f565b60405180910390a150505050565b60085481565b611215611a72565b73ffffffffffffffffffffffffffffffffffffffff1661123361104a565b73ffffffffffffffffffffffffffffffffffffffff1614611289576040517f08c379a000000000000000000000000000000000000000000000000000000000815260040161128090612498565b60405180910390fd5b60006009549050816009819055507f93dcb4d14ff2c7a93d0076d4d9fbf19c189f2de91a9ba7d79bb80115fe7a852d3382846040516112ca939291906124ef565b60405180910390a15050565b60095481565b6112e4611a72565b73ffffffffffffffffffffffffffffffffffffffff1661130261104a565b73ffffffffffffffffffffffffffffffffffffffff1614611358576040517f08c379a000000000000000000000000000000000000000000000000000000000815260040161134f90612498565b60405180910390fd5b60006007549050816007819055507fd1a0f1c3e15bbeb47f950c6fd7572c460678919e9d839966bf073b487365e4bb338284604051611399939291906124ef565b60405180910390a15050565b6113ad611a72565b73ffffffffffffffffffffffffffffffffffffffff166113cb61104a565b73ffffffffffffffffffffffffffffffffffffffff1614611421576040517f08c379a000000000000000000000000000000000000000000000000000000000815260040161141890612498565b60405180910390fd5b6000600a54905081600a819055507f8e993058079a27823455e3b0dfcb2de50505e7cfc41930033a4a7276e387eddc338284604051611462939291906124ef565b60405180910390a15050565b6000600260009054906101000a900473ffffffffffffffffffffffffffffffffffffffff1673ffffffffffffffffffffffffffffffffffffffff1663e3a9db1a336040518263ffffffff1660e01b81526004016114cb9190611f63565b60206040518083038186803b1580156114e357600080fd5b505afa1580156114f7573d6000803e3d6000fd5b505050506040513d601f19601f8201168201806040525081019061151b91906127cd565b905090565b600a5481565b600260009054906101000a900473ffffffffffffffffffffffffffffffffffffffff1681565b611554611a72565b73ffffffffffffffffffffffffffffffffffffffff1661157261104a565b73ffffffffffffffffffffffffffffffffffffffff16146115c8576040517f08c379a00000000000000000000000000000000000000000000000000000000081526004016115bf90612498565b60405180910390fd5b600073ffffffffffffffffffffffffffffffffffffffff168173ffffffffffffffffffffffffffffffffffffffff161415611638576040517f08c379a000000000000000000000000000000000000000000000000000000000815260040161162f9061286c565b60405180910390fd5b61164181611a7a565b50565b6000600a548261165491906126e5565b9050919050565b600360009054906101000a900473ffffffffffffffffffffffffffffffffffffffff1681565b60008061169084518451611007565b9050803410156116d5576040517f08c379a00000000000000000000000000000000000000000000000000000000081526004016116cc906128fe565b60405180910390fd5b60005b83518110156118755760005b8482815181106116f7576116f661291e565b5b602002602001015151811015611861576000600160009054906101000a900473ffffffffffffffffffffffffffffffffffffffff1673ffffffffffffffffffffffffffffffffffffffff166399b87f6c87858151811061175a5761175961291e565b5b602002602001015184815181106117745761177361291e565b5b6020026020010151600001516040518263ffffffff1660e01b815260040161179c91906129c4565b60006040518083038186803b1580156117b457600080fd5b505afa1580156117c8573d6000803e3d6000fd5b505050506040513d6000823e3d601f19601f820116820180604052508101906117f19190612a7b565b91505061180d81604051806020016040528060008152506107e9565b1561184d576040517f08c379a000000000000000000000000000000000000000000000000000000000815260040161184490612b49565b60405180910390fd5b50808061185990612b69565b9150506116e4565b50808061186d90612b69565b9150506116d8565b506000600360009054906101000a900473ffffffffffffffffffffffffffffffffffffffff1673ffffffffffffffffffffffffffffffffffffffff1663fc51821c86866040518363ffffffff1660e01b81526004016118d5929190612eb7565b602060405180830381600087803b1580156118ef57600080fd5b505af1158015611903573d6000803e3d6000fd5b505050506040513d601f19601f8201168201806040525081019061192791906127cd565b9050600082346119379190612716565b90506000811115611a2b5760003373ffffffffffffffffffffffffffffffffffffffff168260405161196890612f1f565b60006040518083038185875af1925050503d80600081146119a5576040519150601f19603f3d011682016040523d82523d6000602084013e6119aa565b606091505b50509050806119ee576040517f08c379a00000000000000000000000000000000000000000000000000000000081526004016119e590612fa6565b60405180910390fd5b7f06a8acc0e592ef9d5924c211904629acef99f7d13d3c585219454c7fe93cd4ef338484604051611a21939291906124ef565b60405180910390a1505b7f1e34314d10c294e150d9078dc4808fbc4e77807ab189f2556837ace799958890338385604051611a5e939291906124ef565b60405180910390a181935050505092915050565b600033905090565b60008060009054906101000a900473ffffffffffffffffffffffffffffffffffffffff169050816000806101000a81548173ffffffffffffffffffffffffffffffffffffffff021916908373ffffffffffffffffffffffffffffffffffffffff1602179055508173ffffffffffffffffffffffffffffffffffffffff168173ffffffffffffffffffffffffffffffffffffffff167f8be0079c531659141344cd1fd0a4f28419497f9722a3daafe3b4186f6b6457e060405160405180910390a35050565b6000819050919050565b611b5181611b3e565b82525050565b6000602082019050611b6c6000830184611b48565b92915050565b6000604051905090565b600080fd5b600080fd5b611b8f81611b3e565b8114611b9a57600080fd5b50565b600081359050611bac81611b86565b92915050565b600060208284031215611bc857611bc7611b7c565b5b6000611bd684828501611b9d565b91505092915050565b600080fd5b600080fd5b6000601f19601f8301169050919050565b7f4e487b7100000000000000000000000000000000000000000000000000000000600052604160045260246000fd5b611c3282611be9565b810181811067ffffffffffffffff82111715611c5157611c50611bfa565b5b80604052505050565b6000611c64611b72565b9050611c708282611c29565b919050565b600067ffffffffffffffff821115611c9057611c8f611bfa565b5b611c9982611be9565b9050602081019050919050565b82818337600083830152505050565b6000611cc8611cc384611c75565b611c5a565b905082815260208101848484011115611ce457611ce3611be4565b5b611cef848285611ca6565b509392505050565b600082601f830112611d0c57611d0b611bdf565b5b8135611d1c848260208601611cb5565b91505092915050565b60008060408385031215611d3c57611d3b611b7c565b5b600083013567ffffffffffffffff811115611d5a57611d59611b81565b5b611d6685828601611cf7565b925050602083013567ffffffffffffffff811115611d8757611d86611b81565b5b611d9385828601611cf7565b9150509250929050565b60008115159050919050565b611db281611d9d565b82525050565b6000602082019050611dcd6000830184611da9565b92915050565b600073ffffffffffffffffffffffffffffffffffffffff82169050919050565b6000611dfe82611dd3565b9050919050565b611e0e81611df3565b8114611e1957600080fd5b50565b600081359050611e2b81611e05565b92915050565b600060208284031215611e4757611e46611b7c565b5b6000611e5584828501611e1c565b91505092915050565b6000819050919050565b6000611e83611e7e611e7984611dd3565b611e5e565b611dd3565b9050919050565b6000611e9582611e68565b9050919050565b6000611ea782611e8a565b9050919050565b611eb781611e9c565b82525050565b6000602082019050611ed26000830184611eae565b92915050565b6000611ee382611e8a565b9050919050565b611ef381611ed8565b82525050565b6000602082019050611f0e6000830184611eea565b92915050565b60008060408385031215611f2b57611f2a611b7c565b5b6000611f3985828601611b9d565b9250506020611f4a85828601611b9d565b9150509250929050565b611f5d81611df3565b82525050565b6000602082019050611f786000830184611f54565b92915050565b6000611f8982611e8a565b9050919050565b611f9981611f7e565b82525050565b6000602082019050611fb46000830184611f90565b92915050565b6000611fc582611e8a565b9050919050565b611fd581611fba565b82525050565b6000602082019050611ff06000830184611fcc565b92915050565b600067ffffffffffffffff82111561201157612010611bfa565b5b602082029050602081019050919050565b600080fd5b600061203a61203584611ff6565b611c5a565b9050808382526020820190506020840283018581111561205d5761205c612022565b5b835b8181101561208657806120728882611e1c565b84526020840193505060208101905061205f565b5050509392505050565b600082601f8301126120a5576120a4611bdf565b5b81356120b5848260208601612027565b91505092915050565b600067ffffffffffffffff8211156120d9576120d8611bfa565b5b602082029050602081019050919050565b600067ffffffffffffffff82111561210557612104611bfa565b5b602082029050602081019050919050565b600080fd5b600080fd5b60006080828403121561213657612135612116565b5b6121406080611c5a565b9050600082013567ffffffffffffffff8111156121605761215f61211b565b5b61216c84828501611cf7565b600083015250602082013567ffffffffffffffff8111156121905761218f61211b565b5b61219c84828501611cf7565b60208301525060406121b084828501611b9d565b60408301525060606121c484828501611e1c565b60608301525092915050565b60006121e36121de846120ea565b611c5a565b9050808382526020820190506020840283018581111561220657612205612022565b5b835b8181101561224d57803567ffffffffffffffff81111561222b5761222a611bdf565b5b8086016122388982612120565b85526020850194505050602081019050612208565b5050509392505050565b600082601f83011261226c5761226b611bdf565b5b813561227c8482602086016121d0565b91505092915050565b6000612298612293846120be565b611c5a565b905080838252602082019050602084028301858111156122bb576122ba612022565b5b835b8181101561230257803567ffffffffffffffff8111156122e0576122df611bdf565b5b8086016122ed8982612257565b855260208501945050506020810190506122bd565b5050509392505050565b600082601f83011261232157612320611bdf565b5b8135612331848260208601612285565b91505092915050565b6000806040838503121561235157612350611b7c565b5b600083013567ffffffffffffffff81111561236f5761236e611b81565b5b61237b85828601612090565b925050602083013567ffffffffffffffff81111561239c5761239b611b81565b5b6123a88582860161230c565b9150509250929050565b7f4e487b7100000000000000000000000000000000000000000000000000000000600052601160045260246000fd5b60006123ec82611b3e565b91506123f783611b3e565b9250817fffffffffffffffffffffffffffffffffffffffffffffffffffffffffffffffff04831182151516156124305761242f6123b2565b5b828202905092915050565b600082825260208201905092915050565b7f4f776e61626c653a2063616c6c6572206973206e6f7420746865206f776e6572600082015250565b600061248260208361243b565b915061248d8261244c565b602082019050919050565b600060208201905081810360008301526124b181612475565b9050919050565b60006060820190506124cd6000830186611f54565b6124da6020830185611f54565b6124e76040830184611f54565b949350505050565b60006060820190506125046000830186611f54565b6125116020830185611b48565b61251e6040830184611b48565b949350505050565b600061253182611e8a565b9050919050565b61254181612526565b82525050565b600060208201905061255c6000830184612538565b92915050565b7f436f6e74726163742063616e6e6f74206265207265766f6b6564000000000000600082015250565b6000612598601a8361243b565b91506125a382612562565b602082019050919050565b600060208201905081810360008301526125c78161258b565b9050919050565b60006125d982611b3e565b91506125e483611b3e565b9250827fffffffffffffffffffffffffffffffffffffffffffffffffffffffffffffffff03821115612619576126186123b2565b5b828201905092915050565b7f5472616e73616374696f6e206d696e696d616c2076616c7565206e6f7420726560008201527f6163686564000000000000000000000000000000000000000000000000000000602082015250565b600061268060258361243b565b915061268b82612624565b604082019050919050565b600060208201905081810360008301526126af81612673565b9050919050565b7f4e487b7100000000000000000000000000000000000000000000000000000000600052601260045260246000fd5b60006126f082611b3e565b91506126fb83611b3e565b92508261270b5761270a6126b6565b5b828204905092915050565b600061272182611b3e565b915061272c83611b3e565b92508282101561273f5761273e6123b2565b5b828203905092915050565b600060808201905061275f6000830187611f54565b61276c6020830186611b48565b6127796040830185611b48565b6127866060830184611b48565b95945050505050565b60006040820190506127a46000830185611b48565b6127b16020830184611b48565b9392505050565b6000815190506127c781611b86565b92915050565b6000602082840312156127e3576127e2611b7c565b5b60006127f1848285016127b8565b91505092915050565b7f4f776e61626c653a206e6577206f776e657220697320746865207a65726f206160008201527f6464726573730000000000000000000000000000000000000000000000000000602082015250565b600061285660268361243b565b9150612861826127fa565b604082019050919050565b6000602082019050818103600083015261288581612849565b9050919050565b7f496e73756666696369656e742076616c756520746f20636f766572207468652060008201527f6465616c206372656174696f6e20666565730000000000000000000000000000602082015250565b60006128e860328361243b565b91506128f38261288c565b604082019050919050565b60006020820190508181036000830152612917816128db565b9050919050565b7f4e487b7100000000000000000000000000000000000000000000000000000000600052603260045260246000fd5b600081519050919050565b60005b8381101561297657808201518184015260208101905061295b565b83811115612985576000848401525b50505050565b60006129968261294d565b6129a0818561243b565b93506129b0818560208601612958565b6129b981611be9565b840191505092915050565b600060208201905081810360008301526129de818461298b565b905092915050565b600381106129f357600080fd5b50565b600081519050612a05816129e6565b92915050565b6000612a1e612a1984611c75565b611c5a565b905082815260208101848484011115612a3a57612a39611be4565b5b612a45848285612958565b509392505050565b600082601f830112612a6257612a61611bdf565b5b8151612a72848260208601612a0b565b91505092915050565b60008060408385031215612a9257612a91611b7c565b5b6000612aa0858286016129f6565b925050602083015167ffffffffffffffff811115612ac157612ac0611b81565b5b612acd85828601612a4d565b9150509250929050565b7f50726f78792e4372656174654465616c3a20496e737472756374696f6e20697360008201527f206e6f7420737570706f72746564000000000000000000000000000000000000602082015250565b6000612b33602e8361243b565b9150612b3e82612ad7565b604082019050919050565b60006020820190508181036000830152612b6281612b26565b9050919050565b6000612b7482611b3e565b91507fffffffffffffffffffffffffffffffffffffffffffffffffffffffffffffffff821415612ba757612ba66123b2565b5b600182019050919050565b600081519050919050565b600082825260208201905092915050565b6000819050602082019050919050565b612be781611df3565b82525050565b6000612bf98383612bde565b60208301905092915050565b6000602082019050919050565b6000612c1d82612bb2565b612c278185612bbd565b9350612c3283612bce565b8060005b83811015612c63578151612c4a8882612bed565b9750612c5583612c05565b925050600181019050612c36565b5085935050505092915050565b600081519050919050565b600082825260208201905092915050565b6000819050602082019050919050565b600081519050919050565b600082825260208201905092915050565b6000819050602082019050919050565b600082825260208201905092915050565b6000612ce48261294d565b612cee8185612cc8565b9350612cfe818560208601612958565b612d0781611be9565b840191505092915050565b612d1b81611b3e565b82525050565b60006080830160008301518482036000860152612d3e8282612cd9565b91505060208301518482036020860152612d588282612cd9565b9150506040830151612d6d6040860182612d12565b506060830151612d806060860182612bde565b508091505092915050565b6000612d978383612d21565b905092915050565b6000602082019050919050565b6000612db782612c9c565b612dc18185612ca7565b935083602082028501612dd385612cb8565b8060005b85811015612e0f5784840389528151612df08582612d8b565b9450612dfb83612d9f565b925060208a01995050600181019050612dd7565b50829750879550505050505092915050565b6000612e2d8383612dac565b905092915050565b6000602082019050919050565b6000612e4d82612c70565b612e578185612c7b565b935083602082028501612e6985612c8c565b8060005b85811015612ea55784840389528151612e868582612e21565b9450612e9183612e35565b925060208a01995050600181019050612e6d565b50829750879550505050505092915050565b60006040820190508181036000830152612ed18185612c12565b90508181036020830152612ee58184612e42565b90509392505050565b600081905092915050565b50565b6000612f09600083612eee565b9150612f1482612ef9565b600082019050919050565b6000612f2a82612efc565b9150819050919050565b7f50726f78792e6372656174654465616c3a204661696c656420746f207265696d60008201527f6275727365206578636573732045746865720000000000000000000000000000602082015250565b6000612f9060328361243b565b9150612f9b82612f34565b604082019050919050565b60006020820190508181036000830152612fbf81612f83565b905091905056fea26469706673582212201ce9bb7698a8f919d175dc9b7bb568f3a41a6c8f1df080fe2aa823e30e897b0464736f6c63430008090033",
  "immutableReferences": {},
  "source": "// SPDX-License-Identifier: GPL-3.0\npragma solidity ^0.8.0;\n\n/* EXTERNAL DEPENDENCIES */\nimport \"@openzeppelin/contracts/access/Ownable.sol\";\nimport \"@openzeppelin/contracts/utils/escrow/Escrow.sol\";\n\n/* INTERNAL DEPENDENCIES */\nimport \"./CommonStructs.sol\";\nimport \"./Instructions.sol\";\nimport \"./InstructionsProvider.sol\";\nimport \"./Deals.sol\";\nimport \"./Interpreter.sol\";\n\n// TODO: Ajouter un payable fallback a tous les contracts pour voir ce qu'on fait quand on reoit de l'argent par erreur\n//        ==> Hriter d'une classe qui redirige l'argent vers le proxy ou bien juste rembourser les sous\n\n// TODO: Check how to integrate the allowAllAccounts in the interpreter. Should I add it as a param in the deal?\n\n/// @title Proxy Contract\n/// @dev Main DApp entry point. Exposes the public interface and decouple the data and the logic\n/// @notice lets-make-a-deal.eth allows you to make an agreement between different parties and automatically route ETH to different addresses based on simple rules.\ncontract Proxy is Ownable {\n    \n    /* STORAGE VARIABLES */\n\n    // References to external contracts\n\n    /// @dev Reference to the Instructions contract\n    Instructions public instructionsContractRef;\n\n    /// @dev Reference to the InstructionsProvider contract\n    InstructionsProvider public instructionsProviderContractRef;\n\n    /// @dev Reference to the Deals contract\n    Deals public dealsContractRef;\n\n    /// @dev Reference to the Interpreter contract\n    Interpreter public interpreterContractRef;\n\n    // Contract fees\n\n    /// @dev Price per account added to the deal in USD\n    uint public accountCreationFees;\n    \n    /// @dev Price per rule added to the deal in USD\n    uint public ruleCreationFees;\n\n    /// @dev Price to allow incoming payments from all addresses others than internal/external accounts in USD\n    uint public allowAllAddressesFees;\n\n    /// @dev Minimal transaction value able to trigger an execution in USDimport \"@openzeppelin/contracts/security/Pausable.sol\";\n    uint public transactionMinimalValue;\n\n    /// @dev Transaction fees in % of the msg.value perceived on a deal execution in USD\n    uint public transactionFees;\n\n    /// @dev USD/WEI rate\n    uint public USD2WEIConversionRate;\n\n    /* MAPPINGS */\n    \n    /* MODIFIERS */\n\n    /* EVENTS */\n\n    // Modify contract references\n\n    /**\n    * @dev Event emitted when the Instructions contract reference is changed\n    * @param _from Caller address\n    * @param _old Old address of the Instructions contract\n    * @param _new New address of the Instructions contract\n    */\n    event ModifyInstructionsContractAddress(address _from, address _old, address _new);\n\n    /**\n    * @dev Event emitted when the InstructionsProvider contract reference is changed\n    * @param _from Caller address\n    * @param _old Old address of the InstructionsProvider contract\n    * @param _new New address of the InstructionsProvider contract\n    */\n    event ModifyInstructionsProviderContractAddress(address _from, address _old, address _new);\n\n    /**\n    * @dev Event emitted when the Deals contract reference is changed\n    * @param _from Caller address\n    * @param _old Old address of the Deals contract\n    * @param _new New address of the Deals contract\n    */\n    event ModifyDealsContractAddress(address _from, address _old, address _new);\n    \n    /**\n    * @dev Event emitted when the Interpreter contract reference is changed\n    * @param _from Caller address\n    * @param _old Old address of the Interpreter contract\n    * @param _new New address of the Interpreter contract\n    */\n    event ModifyInterpreterContractAddress(address _from, address _old, address _new);\n    \n    // Modify fees\n \n    /** \n    * @dev Event emitted when the account creation fees is changed\n    * @param _from : msg.sender\n    * @param _old : old account creation fees in USD\n    * @param _new : new account creation fees in USD\n    */\n    event ModifyAccountCreationFees(address _from, uint _old, uint _new);\n\n    /** \n    * @dev Event emitted when the rule creation fees is changed\n    * @param _from : msg.sender\n    * @param _old : old rule creation fees in USD\n    * @param _new : new rule creation fees in USD\n    */\n    event ModifyRuleCreationFees(address _from, uint _old, uint _new);\n\n    /** \n    * @dev Event emitted when the allow all accounts fees is changed\n    * @param _from : msg.sender\n    * @param _old : old allow all accounts fees in USD\n    * @param _new : new allow all accounts fees in USD\n    */\n    event ModifyAllowAllAccountsFees(address _from, uint _old, uint _new);\n\n    /** \n    * @dev Event emitted when the transaction minimal value is changed\n    * @param _from : msg.sender\n    * @param _old : old transaction minimal value in USD\n    * @param _new : new transaction minimal value in USD\n    */\n    event ModifyTransactionMinimalValue(address _from, uint _old, uint _new);\n\n    /** \n    * @dev Event emitted when the ETH/USD rate is changed\n    * @param _from : msg.sender\n    * @param _old : old ETH/USD rate in ETH per USD\n    * @param _new : new ETH/USD rate in ETH per USD\n    */\n    event ModifyTransactionFees(address _from, uint _old, uint _new);\n    \n    /** \n    * @dev Event emitted when the WEI to USD conversion rate is changed\n    * @param _from : msg.sender\n    * @param _old : old WEI to USD conversion rate in WEI\n    * @param _new : new WEI to USD conversion rate in WEI\n    */\n    event ModifyUSD2WEIConversionRate(address _from, uint _old, uint _new);\n\n    /** \n    * @dev Event emitted when the deal creation fees are paid\n    * @param _from : msg.sender\n    * @param _dealId : Id of the created deal\n    * @param _fees : Fees paid by the user in ETH\n    */\n    event PayDealCreationFees(address _from, uint _dealId, uint _fees);\n\n    /** \n    * @dev Event emitted when the transaction fees are paid\n    * @param _from : msg.sender\n    * @param _dealId : Id of the executed deal \n    * @param _ruleId : Id of the executed rule\n    * @param _fees : Fees paid by the user in ETH\n    */\n    event PayTransactionFees(address _from, uint _dealId, uint _ruleId, uint _fees);\n\n    /** \n    * @dev Event emitted when an excess value is reimbursed to the user\n    * @param _to : address of the caller (msg.sender) where the excess value is reimbursed\n    * @param _dealId : Id of the created deal \n    * @param _amount : Amount reimbursed to the user in ETH\n    */\n    event ReimburseExcessValue(address _to, uint _dealId, uint _amount);\n    \n\n    /* CONSTRUCTOR */\n\n    /** \n    * @dev Constructor: Initialize storage variables\n    * @param _accountCreationFees Creation fees per account in Wei \n    * @param _ruleCreationFees Creation fees per rule in Wei \n    * @param _allowAllAddressesFees Creation fees to allow incoming payments from all addresses\n    * @param _transactionMinimalValue Minimal value to trigger a rule execution\n    * @param _transactionFees Transaction fees paid to execute a rule in % of msg.value (1=1%)\n    * @param _USD2WEIConversionRate Wei per USD conversion rate\n    */\n    constructor (\n        uint _accountCreationFees, \n        uint _ruleCreationFees,\n        uint _allowAllAddressesFees,\n        uint _transactionMinimalValue,\n        uint _transactionFees,\n        uint _USD2WEIConversionRate\n    ) {\n        accountCreationFees = _accountCreationFees;\n        ruleCreationFees = _ruleCreationFees;\n        allowAllAddressesFees = _allowAllAddressesFees;\n        transactionMinimalValue = _transactionMinimalValue;\n        transactionFees = _transactionFees;\n        USD2WEIConversionRate = _USD2WEIConversionRate;\n    }\n    \n    /* SEND & FALLBACK */\n    // TODO: https://docs.soliditylang.org/en/v0.8.9/contracts.html#receive-ether-function\n    // If I do not include a payable send or fallback, the contract will return any ETH send to the contract with a call without call values (ok for me i think)\n    \n    /* OWNER INTERFACE */\n\n    // References to external contracts\n    \n    /**\n    * @dev Sets the Instructions contract reference to a new value\n    * @param _new New address of the Instructions contract\n    */\n    function setInstructionsContractRef(address _new) public onlyOwner {\n        address old = address(instructionsContractRef);\n        instructionsContractRef = Instructions(_new);\n        emit ModifyInstructionsContractAddress(msg.sender, old, _new);\n    }\n\n    /**\n    * @dev Sets the InstructionsProvider contract reference to a new value\n    * @param _new New address of the InstructionsProvider contract\n    */\n    function setInstructionsProviderContractRef(address _new) public onlyOwner {\n        address old = address(instructionsProviderContractRef);\n        instructionsProviderContractRef = InstructionsProvider(_new);\n        emit ModifyInstructionsProviderContractAddress(msg.sender, old, _new);\n    }\n\n    /**\n    * @dev Sets the Deals contract reference to a new value\n    * @param _new New address of the Deals contract\n    */\n    function setDealsContractRef(address _new) public onlyOwner {\n        address old = address(dealsContractRef);\n        dealsContractRef = Deals(_new);\n        emit ModifyDealsContractAddress(msg.sender, old, _new);\n    }\n    \n    /**\n    * @dev Sets the Interpreter contract reference to a new value\n    * @param _new New address of the Interpreter contract\n    */\n    function setInterpreterContractRef(address _new) public onlyOwner {\n        address old = address(interpreterContractRef);\n        interpreterContractRef = Interpreter(_new);\n        emit ModifyInterpreterContractAddress(msg.sender, old, _new);\n    }\n\n    // Contract fees\n\n    /**\n    * @dev Sets the account creation fees to a new value\n    * @param _new New value for the account creation fees in USD\n    */\n    function setAccountCreationFees(uint _new) public onlyOwner {\n        uint old = accountCreationFees;\n        accountCreationFees = _new;\n        emit ModifyAccountCreationFees(msg.sender, old, _new);\n    }\n    \n    /**\n    * @dev Sets the rule creation fees to a new value\n    * @param _new New value for the rule creation fees in USD\n    */\n    function setRuleCreationFees(uint _new) public onlyOwner {\n        uint old = ruleCreationFees;\n        ruleCreationFees = _new;\n        emit ModifyRuleCreationFees(msg.sender, old, _new);\n    }\n\n    /**\n    * @dev Sets the allow all addresses fees to a new value\n    * @param _new New value for the allow all addresses fees in USD\n    */\n    function setAllowAllAddressesFees(uint _new) public onlyOwner {\n        uint old = allowAllAddressesFees;\n        allowAllAddressesFees = _new;\n        emit ModifyAllowAllAccountsFees(msg.sender, old, _new);\n    }\n\n    /**\n    * @dev Sets the transaction minimal value to a new value\n    * @param _new New value for the transaction minimal value in USD\n    */\n    function setTransactionMinimalValue(uint _new) public onlyOwner {\n        uint old = transactionMinimalValue;\n        transactionMinimalValue = _new;\n        emit ModifyTransactionMinimalValue(msg.sender, old, _new);\n    }\n\n    /**\n    * @dev Sets the transaction fees to a new value\n    * @param _new New value for the transaction fees in USD\n    */\n    function setTransactionFees(uint _new) public onlyOwner {\n        uint old = transactionFees;\n        transactionFees = _new;\n        emit ModifyTransactionFees(msg.sender, old, _new);\n    }\n\n    /**\n    * @dev Sets the WEI to USD conversion rate to a new value\n    * @param _new New value for the USD to WEI conversion rate in USD\n    */\n    function setUSD2WEIConversionRate(uint _new) public onlyOwner {\n        uint old = USD2WEIConversionRate;\n        USD2WEIConversionRate = _new;\n        emit ModifyUSD2WEIConversionRate(msg.sender, old, _new);\n    }\n\n    /* PUBLIC INTERFACE */\n\n    event Log(uint);\n\n    /**\n    * @dev Creates a deal and returns its id\n    * @param _accounts List of accounts addresses linked to the deal\n    * @param _rulesList List of the rules linked to the deal (rule = list of Articles)\n    * @return Id of the deal created\n    */\n    function createDeal\n    (\n        address[] memory _accounts, \n        CommonStructs.Article[][] memory _rulesList\n    ) \n    external payable returns (uint) {\n        // Compute creation fees in ETH\n        uint creationFeesInETH = computeDealCreationFeesInETH(_accounts.length, _rulesList.length);\n\n        // Check 1: Amount sent by the user should cover the deal creation fees\n        require(msg.value >= creationFeesInETH, \"Insufficient value to cover the deal creation fees\");\n        \n        // Check 2: Make sure that the instructions are all supported\n        for (uint i=0;i<_rulesList.length;i++) {\n            for (uint j=0;j<_rulesList[i].length;j++) {\n                // Get the instruction type & signature\n                (, string memory instructionSignature) = instructionsContractRef.getInstruction(_rulesList[i][j].instructionName);\n                \n                // If the signature is empty, this means that the instruction is not present => revert\n                require(!stringsEqual(instructionSignature,''),\"Proxy.CreateDeal: Instruction is not supported\");\n            }\n        }\n\n        // Create the deal\n        uint dealId = dealsContractRef.createDeal(_accounts, _rulesList);\n        \n        // Reimburse excess value to the caller if necessary\n        uint excessValue = (msg.value - creationFeesInETH);\n        if (excessValue > 0){\n            (bool sent, ) = msg.sender.call{value: excessValue } (\"\");\n            require(sent, \"Proxy.createDeal: Failed to reimburse excess Ether\");\n            emit ReimburseExcessValue(msg.sender, dealId, excessValue);\n        }\n\n        // Emit a PayDealCreationFees\n        emit PayDealCreationFees(msg.sender, dealId, creationFeesInETH);\n\n        return dealId;\n    }\n\n    event Log(uint,uint);\n    /**\n    * @dev Execute a deal's rule\n    * @param _dealId : Id of the deal to execute\n    * @param _ruleId : Id of the rule to execute\n    */\n    function executeRule(uint _dealId, uint _ruleId) external payable {\n        // Amount sent by the user should be higher or equal to the minimal transaction value\n        uint msgValueInUSD = convertWEI2USD(msg.value);\n        require( msgValueInUSD >= transactionMinimalValue, \"Transaction minimal value not reached\");\n\n        // Call Interpreter.interpretRule() and include in the call the msg.value - execution fees\n        uint executionFees = (msg.value / 100) * transactionFees;\n        interpreterContractRef.interpretRule{value: (msg.value - executionFees)}(msg.sender, _dealId, _ruleId);\n\n        // Emit a PayTransactionFees\n        emit PayTransactionFees(msg.sender, _dealId, _ruleId, executionFees);\n\n        //TODO: remove\n        emit Log(executionFees,(msg.value-executionFees));\n    }\n\n    /**\n    * @dev Retrieves caller escrow balance.\n    */\n    function depositsOf() public view returns (uint) {\n        return instructionsProviderContractRef.depositsOf(msg.sender);\n    }\n\n    /**\n    * @dev Withdraw all deposit from escrow for msg.sender\n    */\n    function withdraw() external {\n        instructionsProviderContractRef.withdraw(payable(msg.sender));\n    }\n\n    function getBalance() external view onlyOwner returns(uint) {\n        return address(this).balance;\n    }\n    \n\n    /* HELPER FUNCTIONS */\n    \n    /**\n    * @dev Computes the deal creation cost in ETH\n    * @param _accountsCount Number of external accounts defined in the deal\n    * @param _rulesCount Number of rules defined in the deal\n    * @return Deal creation cost in ETH\n    */\n    function computeDealCreationFeesInETH\n    (\n        uint _accountsCount, \n        uint _rulesCount\n    ) \n    public view returns (uint) {\n        return (_accountsCount * accountCreationFees + _rulesCount * ruleCreationFees)*USD2WEIConversionRate;\n    }\n\n    /**\n    * @dev Converts an amount in WEI to USD\n    * @param _amountInWEI Amount in WEI\n    * @return Converted amount in USD\n    */\n    function convertWEI2USD(uint _amountInWEI) public view returns(uint) {\n        return _amountInWEI / USD2WEIConversionRate;\n    }\n\n    /**\n    * @dev Converts an amount in USD to WEI\n    * @param _amountInUSD Amount in USD\n    * @return Converted amount in WEI\n    */\n    function convertUSD2WEI(uint _amountInUSD) public view returns(uint) {\n        return _amountInUSD * USD2WEIConversionRate;\n    }\n\n    /** \n    * @dev Checks whether the strings are equal\n    * @param _s1 First string to compare\n    * @param _s2 Second string to compare\n    * @return Boolean indicating if the 2 strings are equal\n    */\n    function stringsEqual(string memory _s1, string memory _s2) public pure returns(bool) {\n        return keccak256(bytes(_s1)) == keccak256(bytes(_s2));\n    }\n\n    /* OVERRIDE & BLOCK UNUSED INHERITED FUNCTIONS */\n\n    /**\n    * @dev Block OpenZeppelin Ownable.renounceOwnership\n    * @notice Will always revert\n    */ \n    function renounceOwnership() public pure override {\n        revert('Contract cannot be revoked');\n    }\n}\n",
  "sourcePath": "/home/shakalee/Documents/Consensys/PROJOT-v0/contracts/Proxy.sol",
  "compiler": {
    "name": "solc",
    "version": "0.8.9+commit.e5eed63a.Emscripten.clang"
  },
  "schemaVersion": "3.4.3",
  "updatedAt": "2021-11-25T08:21:18.483Z",
  "devdoc": {
    "details": "Main DApp entry point. Exposes the public interface and decouple the data and the logic",
    "events": {
      "ModifyAccountCreationFees(address,uint256,uint256)": {
        "details": "Event emitted when the account creation fees is changed",
        "params": {
          "_from": ": msg.sender",
          "_new": ": new account creation fees in USD",
          "_old": ": old account creation fees in USD"
        }
      },
      "ModifyAllowAllAccountsFees(address,uint256,uint256)": {
        "details": "Event emitted when the allow all accounts fees is changed",
        "params": {
          "_from": ": msg.sender",
          "_new": ": new allow all accounts fees in USD",
          "_old": ": old allow all accounts fees in USD"
        }
      },
      "ModifyDealsContractAddress(address,address,address)": {
        "details": "Event emitted when the Deals contract reference is changed",
        "params": {
          "_from": "Caller address",
          "_new": "New address of the Deals contract",
          "_old": "Old address of the Deals contract"
        }
      },
      "ModifyInstructionsContractAddress(address,address,address)": {
        "details": "Event emitted when the Instructions contract reference is changed",
        "params": {
          "_from": "Caller address",
          "_new": "New address of the Instructions contract",
          "_old": "Old address of the Instructions contract"
        }
      },
      "ModifyInstructionsProviderContractAddress(address,address,address)": {
        "details": "Event emitted when the InstructionsProvider contract reference is changed",
        "params": {
          "_from": "Caller address",
          "_new": "New address of the InstructionsProvider contract",
          "_old": "Old address of the InstructionsProvider contract"
        }
      },
      "ModifyInterpreterContractAddress(address,address,address)": {
        "details": "Event emitted when the Interpreter contract reference is changed",
        "params": {
          "_from": "Caller address",
          "_new": "New address of the Interpreter contract",
          "_old": "Old address of the Interpreter contract"
        }
      },
      "ModifyRuleCreationFees(address,uint256,uint256)": {
        "details": "Event emitted when the rule creation fees is changed",
        "params": {
          "_from": ": msg.sender",
          "_new": ": new rule creation fees in USD",
          "_old": ": old rule creation fees in USD"
        }
      },
      "ModifyTransactionFees(address,uint256,uint256)": {
        "details": "Event emitted when the ETH/USD rate is changed",
        "params": {
          "_from": ": msg.sender",
          "_new": ": new ETH/USD rate in ETH per USD",
          "_old": ": old ETH/USD rate in ETH per USD"
        }
      },
      "ModifyTransactionMinimalValue(address,uint256,uint256)": {
        "details": "Event emitted when the transaction minimal value is changed",
        "params": {
          "_from": ": msg.sender",
          "_new": ": new transaction minimal value in USD",
          "_old": ": old transaction minimal value in USD"
        }
      },
      "ModifyUSD2WEIConversionRate(address,uint256,uint256)": {
        "details": "Event emitted when the WEI to USD conversion rate is changed",
        "params": {
          "_from": ": msg.sender",
          "_new": ": new WEI to USD conversion rate in WEI",
          "_old": ": old WEI to USD conversion rate in WEI"
        }
      },
      "PayDealCreationFees(address,uint256,uint256)": {
        "details": "Event emitted when the deal creation fees are paid",
        "params": {
          "_dealId": ": Id of the created deal",
          "_fees": ": Fees paid by the user in ETH",
          "_from": ": msg.sender"
        }
      },
      "PayTransactionFees(address,uint256,uint256,uint256)": {
        "details": "Event emitted when the transaction fees are paid",
        "params": {
          "_dealId": ": Id of the executed deal ",
          "_fees": ": Fees paid by the user in ETH",
          "_from": ": msg.sender",
          "_ruleId": ": Id of the executed rule"
        }
      },
      "ReimburseExcessValue(address,uint256,uint256)": {
        "details": "Event emitted when an excess value is reimbursed to the user",
        "params": {
          "_amount": ": Amount reimbursed to the user in ETH",
          "_dealId": ": Id of the created deal ",
          "_to": ": address of the caller (msg.sender) where the excess value is reimbursed"
        }
      }
    },
    "kind": "dev",
    "methods": {
      "computeDealCreationFeesInETH(uint256,uint256)": {
        "details": "Computes the deal creation cost in ETH",
        "params": {
          "_accountsCount": "Number of external accounts defined in the deal",
          "_rulesCount": "Number of rules defined in the deal"
        },
        "returns": {
          "_0": "Deal creation cost in ETH"
        }
      },
      "constructor": {
        "details": "Constructor: Initialize storage variables",
        "params": {
          "_USD2WEIConversionRate": "Wei per USD conversion rate",
          "_accountCreationFees": "Creation fees per account in Wei ",
          "_allowAllAddressesFees": "Creation fees to allow incoming payments from all addresses",
          "_ruleCreationFees": "Creation fees per rule in Wei ",
          "_transactionFees": "Transaction fees paid to execute a rule in % of msg.value (1=1%)",
          "_transactionMinimalValue": "Minimal value to trigger a rule execution"
        }
      },
      "convertUSD2WEI(uint256)": {
        "details": "Converts an amount in USD to WEI",
        "params": {
          "_amountInUSD": "Amount in USD"
        },
        "returns": {
          "_0": "Converted amount in WEI"
        }
      },
      "convertWEI2USD(uint256)": {
        "details": "Converts an amount in WEI to USD",
        "params": {
          "_amountInWEI": "Amount in WEI"
        },
        "returns": {
          "_0": "Converted amount in USD"
        }
      },
      "createDeal(address[],(string,string,uint256,address)[][])": {
        "details": "Creates a deal and returns its id",
        "params": {
          "_accounts": "List of accounts addresses linked to the deal",
          "_rulesList": "List of the rules linked to the deal (rule = list of Articles)"
        },
        "returns": {
          "_0": "Id of the deal created"
        }
      },
      "depositsOf()": {
        "details": "Retrieves caller escrow balance."
      },
      "executeRule(uint256,uint256)": {
        "details": "Execute a deal's rule",
        "params": {
          "_dealId": ": Id of the deal to execute",
          "_ruleId": ": Id of the rule to execute"
        }
      },
      "owner()": {
        "details": "Returns the address of the current owner."
      },
      "renounceOwnership()": {
        "details": "Block OpenZeppelin Ownable.renounceOwnership"
      },
      "setAccountCreationFees(uint256)": {
        "details": "Sets the account creation fees to a new value",
        "params": {
          "_new": "New value for the account creation fees in USD"
        }
      },
      "setAllowAllAddressesFees(uint256)": {
        "details": "Sets the allow all addresses fees to a new value",
        "params": {
          "_new": "New value for the allow all addresses fees in USD"
        }
      },
      "setDealsContractRef(address)": {
        "details": "Sets the Deals contract reference to a new value",
        "params": {
          "_new": "New address of the Deals contract"
        }
      },
      "setInstructionsContractRef(address)": {
        "details": "Sets the Instructions contract reference to a new value",
        "params": {
          "_new": "New address of the Instructions contract"
        }
      },
      "setInstructionsProviderContractRef(address)": {
        "details": "Sets the InstructionsProvider contract reference to a new value",
        "params": {
          "_new": "New address of the InstructionsProvider contract"
        }
      },
      "setInterpreterContractRef(address)": {
        "details": "Sets the Interpreter contract reference to a new value",
        "params": {
          "_new": "New address of the Interpreter contract"
        }
      },
      "setRuleCreationFees(uint256)": {
        "details": "Sets the rule creation fees to a new value",
        "params": {
          "_new": "New value for the rule creation fees in USD"
        }
      },
      "setTransactionFees(uint256)": {
        "details": "Sets the transaction fees to a new value",
        "params": {
          "_new": "New value for the transaction fees in USD"
        }
      },
      "setTransactionMinimalValue(uint256)": {
        "details": "Sets the transaction minimal value to a new value",
        "params": {
          "_new": "New value for the transaction minimal value in USD"
        }
      },
      "setUSD2WEIConversionRate(uint256)": {
        "details": "Sets the WEI to USD conversion rate to a new value",
        "params": {
          "_new": "New value for the USD to WEI conversion rate in USD"
        }
      },
      "stringsEqual(string,string)": {
        "details": "Checks whether the strings are equal",
        "params": {
          "_s1": "First string to compare",
          "_s2": "Second string to compare"
        },
        "returns": {
          "_0": "Boolean indicating if the 2 strings are equal"
        }
      },
      "transferOwnership(address)": {
        "details": "Transfers ownership of the contract to a new account (`newOwner`). Can only be called by the current owner."
      },
      "withdraw()": {
        "details": "Withdraw all deposit from escrow for msg.sender"
      }
    },
    "stateVariables": {
      "USD2WEIConversionRate": {
        "details": "USD/WEI rate"
      },
      "accountCreationFees": {
        "details": "Price per account added to the deal in USD"
      },
      "allowAllAddressesFees": {
        "details": "Price to allow incoming payments from all addresses others than internal/external accounts in USD"
      },
      "dealsContractRef": {
        "details": "Reference to the Deals contract"
      },
      "instructionsContractRef": {
        "details": "Reference to the Instructions contract"
      },
      "instructionsProviderContractRef": {
        "details": "Reference to the InstructionsProvider contract"
      },
      "interpreterContractRef": {
        "details": "Reference to the Interpreter contract"
      },
      "ruleCreationFees": {
        "details": "Price per rule added to the deal in USD"
      },
      "transactionFees": {
        "details": "Transaction fees in % of the msg.value perceived on a deal execution in USD"
      },
      "transactionMinimalValue": {
        "details": "Minimal transaction value able to trigger an execution in USDimport \"@openzeppelin/contracts/security/Pausable.sol\";"
      }
    },
    "title": "Proxy Contract",
    "version": 1
  },
  "userdoc": {
    "kind": "user",
    "methods": {
      "renounceOwnership()": {
        "notice": "Will always revert"
      }
    },
    "notice": "lets-make-a-deal.eth allows you to make an agreement between different parties and automatically route ETH to different addresses based on simple rules.",
    "version": 1
  }
}