{
  "contractName": "Proxy",
  "abi": [
    {
      "inputs": [
        {
          "internalType": "uint256",
          "name": "_accountCreationFees",
          "type": "uint256"
        },
        {
          "internalType": "uint256",
          "name": "_ruleCreationFees",
          "type": "uint256"
        },
        {
          "internalType": "uint256",
          "name": "_allowAllAddressesFees",
          "type": "uint256"
        },
        {
          "internalType": "uint256",
          "name": "_transactionMinimalValue",
          "type": "uint256"
        },
        {
          "internalType": "uint256",
          "name": "_transactionFees",
          "type": "uint256"
        },
        {
          "internalType": "uint256",
          "name": "_WEI2USDConversionRate",
          "type": "uint256"
        }
      ],
      "stateMutability": "nonpayable",
      "type": "constructor"
    },
    {
      "anonymous": false,
      "inputs": [
        {
          "indexed": false,
          "internalType": "address",
          "name": "_from",
          "type": "address"
        },
        {
          "indexed": false,
          "internalType": "uint256",
          "name": "_old",
          "type": "uint256"
        },
        {
          "indexed": false,
          "internalType": "uint256",
          "name": "_new",
          "type": "uint256"
        }
      ],
      "name": "ModifyAccountCreationFees",
      "type": "event"
    },
    {
      "anonymous": false,
      "inputs": [
        {
          "indexed": false,
          "internalType": "address",
          "name": "_from",
          "type": "address"
        },
        {
          "indexed": false,
          "internalType": "uint256",
          "name": "_old",
          "type": "uint256"
        },
        {
          "indexed": false,
          "internalType": "uint256",
          "name": "_new",
          "type": "uint256"
        }
      ],
      "name": "ModifyAllowAllAccountsFees",
      "type": "event"
    },
    {
      "anonymous": false,
      "inputs": [
        {
          "indexed": false,
          "internalType": "address",
          "name": "_from",
          "type": "address"
        },
        {
          "indexed": false,
          "internalType": "address",
          "name": "_old",
          "type": "address"
        },
        {
          "indexed": false,
          "internalType": "address",
          "name": "_new",
          "type": "address"
        }
      ],
      "name": "ModifyDealsContractAddress",
      "type": "event"
    },
    {
      "anonymous": false,
      "inputs": [
        {
          "indexed": false,
          "internalType": "address",
          "name": "_from",
          "type": "address"
        },
        {
          "indexed": false,
          "internalType": "address",
          "name": "_old",
          "type": "address"
        },
        {
          "indexed": false,
          "internalType": "address",
          "name": "_new",
          "type": "address"
        }
      ],
      "name": "ModifyInstructionsContractAddress",
      "type": "event"
    },
    {
      "anonymous": false,
      "inputs": [
        {
          "indexed": false,
          "internalType": "address",
          "name": "_from",
          "type": "address"
        },
        {
          "indexed": false,
          "internalType": "address",
          "name": "_old",
          "type": "address"
        },
        {
          "indexed": false,
          "internalType": "address",
          "name": "_new",
          "type": "address"
        }
      ],
      "name": "ModifyInterpreterContractAddress",
      "type": "event"
    },
    {
      "anonymous": false,
      "inputs": [
        {
          "indexed": false,
          "internalType": "address",
          "name": "_from",
          "type": "address"
        },
        {
          "indexed": false,
          "internalType": "uint256",
          "name": "_old",
          "type": "uint256"
        },
        {
          "indexed": false,
          "internalType": "uint256",
          "name": "_new",
          "type": "uint256"
        }
      ],
      "name": "ModifyRuleCreationFees",
      "type": "event"
    },
    {
      "anonymous": false,
      "inputs": [
        {
          "indexed": false,
          "internalType": "address",
          "name": "_from",
          "type": "address"
        },
        {
          "indexed": false,
          "internalType": "uint256",
          "name": "_old",
          "type": "uint256"
        },
        {
          "indexed": false,
          "internalType": "uint256",
          "name": "_new",
          "type": "uint256"
        }
      ],
      "name": "ModifyTransactionFees",
      "type": "event"
    },
    {
      "anonymous": false,
      "inputs": [
        {
          "indexed": false,
          "internalType": "address",
          "name": "_from",
          "type": "address"
        },
        {
          "indexed": false,
          "internalType": "uint256",
          "name": "_old",
          "type": "uint256"
        },
        {
          "indexed": false,
          "internalType": "uint256",
          "name": "_new",
          "type": "uint256"
        }
      ],
      "name": "ModifyTransactionMinimalValue",
      "type": "event"
    },
    {
      "anonymous": false,
      "inputs": [
        {
          "indexed": false,
          "internalType": "address",
          "name": "_from",
          "type": "address"
        },
        {
          "indexed": false,
          "internalType": "uint256",
          "name": "_old",
          "type": "uint256"
        },
        {
          "indexed": false,
          "internalType": "uint256",
          "name": "_new",
          "type": "uint256"
        }
      ],
      "name": "ModifyWEI2USDConversionRate",
      "type": "event"
    },
    {
      "anonymous": false,
      "inputs": [
        {
          "indexed": true,
          "internalType": "address",
          "name": "previousOwner",
          "type": "address"
        },
        {
          "indexed": true,
          "internalType": "address",
          "name": "newOwner",
          "type": "address"
        }
      ],
      "name": "OwnershipTransferred",
      "type": "event"
    },
    {
      "anonymous": false,
      "inputs": [
        {
          "indexed": false,
          "internalType": "address",
          "name": "_from",
          "type": "address"
        },
        {
          "indexed": false,
          "internalType": "uint256",
          "name": "_dealId",
          "type": "uint256"
        },
        {
          "indexed": false,
          "internalType": "uint256",
          "name": "_fees",
          "type": "uint256"
        }
      ],
      "name": "PayDealCreationFees",
      "type": "event"
    },
    {
      "anonymous": false,
      "inputs": [
        {
          "indexed": false,
          "internalType": "address",
          "name": "_from",
          "type": "address"
        },
        {
          "indexed": false,
          "internalType": "uint256",
          "name": "_dealId",
          "type": "uint256"
        },
        {
          "indexed": false,
          "internalType": "uint256",
          "name": "_ruleId",
          "type": "uint256"
        },
        {
          "indexed": false,
          "internalType": "uint256",
          "name": "_fees",
          "type": "uint256"
        }
      ],
      "name": "PayTransactionFees",
      "type": "event"
    },
    {
      "inputs": [],
      "name": "owner",
      "outputs": [
        {
          "internalType": "address",
          "name": "",
          "type": "address"
        }
      ],
      "stateMutability": "view",
      "type": "function"
    },
    {
      "inputs": [],
      "name": "renounceOwnership",
      "outputs": [],
      "stateMutability": "nonpayable",
      "type": "function"
    },
    {
      "inputs": [
        {
          "internalType": "address",
          "name": "newOwner",
          "type": "address"
        }
      ],
      "name": "transferOwnership",
      "outputs": [],
      "stateMutability": "nonpayable",
      "type": "function"
    },
    {
      "inputs": [
        {
          "internalType": "address",
          "name": "_new",
          "type": "address"
        }
      ],
      "name": "setInstructionsContractRef",
      "outputs": [],
      "stateMutability": "nonpayable",
      "type": "function"
    },
    {
      "inputs": [
        {
          "internalType": "address",
          "name": "_new",
          "type": "address"
        }
      ],
      "name": "setDealsContractRef",
      "outputs": [],
      "stateMutability": "nonpayable",
      "type": "function"
    },
    {
      "inputs": [
        {
          "internalType": "address",
          "name": "_new",
          "type": "address"
        }
      ],
      "name": "setInterpreterContractRef",
      "outputs": [],
      "stateMutability": "nonpayable",
      "type": "function"
    },
    {
      "inputs": [
        {
          "internalType": "uint256",
          "name": "_new",
          "type": "uint256"
        }
      ],
      "name": "setAccountCreationFees",
      "outputs": [],
      "stateMutability": "nonpayable",
      "type": "function"
    },
    {
      "inputs": [
        {
          "internalType": "uint256",
          "name": "_new",
          "type": "uint256"
        }
      ],
      "name": "setRuleCreationFees",
      "outputs": [],
      "stateMutability": "nonpayable",
      "type": "function"
    },
    {
      "inputs": [
        {
          "internalType": "uint256",
          "name": "_new",
          "type": "uint256"
        }
      ],
      "name": "setAllowAllAddressesFees",
      "outputs": [],
      "stateMutability": "nonpayable",
      "type": "function"
    },
    {
      "inputs": [
        {
          "internalType": "uint256",
          "name": "_new",
          "type": "uint256"
        }
      ],
      "name": "setTransactionMinimalValue",
      "outputs": [],
      "stateMutability": "nonpayable",
      "type": "function"
    },
    {
      "inputs": [
        {
          "internalType": "uint256",
          "name": "_new",
          "type": "uint256"
        }
      ],
      "name": "setTransactionFees",
      "outputs": [],
      "stateMutability": "nonpayable",
      "type": "function"
    },
    {
      "inputs": [
        {
          "internalType": "uint256",
          "name": "_new",
          "type": "uint256"
        }
      ],
      "name": "setWEI2USDRate",
      "outputs": [],
      "stateMutability": "nonpayable",
      "type": "function"
    },
    {
      "inputs": [
        {
          "internalType": "address[]",
          "name": "_accounts",
          "type": "address[]"
        },
        {
          "components": [
            {
              "internalType": "string",
              "name": "instructionName",
              "type": "string"
            },
            {
              "internalType": "string",
              "name": "paramStr",
              "type": "string"
            },
            {
              "internalType": "uint256",
              "name": "paramUInt",
              "type": "uint256"
            },
            {
              "internalType": "address",
              "name": "paramAddress",
              "type": "address"
            }
          ],
          "internalType": "struct CommonStructs.Article[][]",
          "name": "_rulesList",
          "type": "tuple[][]"
        }
      ],
      "name": "createDeal",
      "outputs": [
        {
          "internalType": "uint256",
          "name": "",
          "type": "uint256"
        }
      ],
      "stateMutability": "payable",
      "type": "function"
    },
    {
      "inputs": [
        {
          "internalType": "uint256",
          "name": "_dealId",
          "type": "uint256"
        },
        {
          "internalType": "uint256",
          "name": "_ruleId",
          "type": "uint256"
        }
      ],
      "name": "executeRule",
      "outputs": [],
      "stateMutability": "payable",
      "type": "function"
    },
    {
      "inputs": [
        {
          "internalType": "string",
          "name": "_s1",
          "type": "string"
        },
        {
          "internalType": "string",
          "name": "_s2",
          "type": "string"
        }
      ],
      "name": "stringsEqual",
      "outputs": [
        {
          "internalType": "bool",
          "name": "",
          "type": "bool"
        }
      ],
      "stateMutability": "pure",
      "type": "function"
    }
  ],
  "bytecode": "0x60806040523480156200001157600080fd5b506040516200286838038062002868833981810160405281019062000037919062000199565b620000576200004b6200008d60201b60201c565b6200009560201b60201c565b85600481905550846005819055508360068190555082600781905550816008819055508060098190555050505050505062000235565b600033905090565b60008060009054906101000a900473ffffffffffffffffffffffffffffffffffffffff169050816000806101000a81548173ffffffffffffffffffffffffffffffffffffffff021916908373ffffffffffffffffffffffffffffffffffffffff1602179055508173ffffffffffffffffffffffffffffffffffffffff168173ffffffffffffffffffffffffffffffffffffffff167f8be0079c531659141344cd1fd0a4f28419497f9722a3daafe3b4186f6b6457e060405160405180910390a35050565b600080fd5b6000819050919050565b62000173816200015e565b81146200017f57600080fd5b50565b600081519050620001938162000168565b92915050565b60008060008060008060c08789031215620001b957620001b862000159565b5b6000620001c989828a0162000182565b9650506020620001dc89828a0162000182565b9550506040620001ef89828a0162000182565b94505060606200020289828a0162000182565b93505060806200021589828a0162000182565b92505060a06200022889828a0162000182565b9150509295509295509295565b61262380620002456000396000f3fe6080604052600436106100e85760003560e01c8063715018a61161008a578063b50f34da11610059578063b50f34da146102a7578063f2fde38b146102d0578063f46ddf24146102f9578063fc51821c14610322576100e8565b8063715018a6146102205780638da5cb5b1461023757806396b6dc7d14610262578063a2ae0cd21461027e576100e8565b80632a16348c116100c65780632a16348c1461017c5780634368080b146101a55780634e02b0b3146101ce5780636b18c1ca146101f7576100e8565b806313d19950146100ed5780632131d8c31461012a57806326698e7514610153575b600080fd5b3480156100f957600080fd5b50610114600480360381019061010f9190611495565b610352565b6040516101219190611528565b60405180910390f35b34801561013657600080fd5b50610151600480360381019061014c91906115a1565b61036d565b005b34801561015f57600080fd5b5061017a60048036038101906101759190611604565b610490565b005b34801561018857600080fd5b506101a3600480360381019061019e9190611604565b610559565b005b3480156101b157600080fd5b506101cc60048036038101906101c791906115a1565b610622565b005b3480156101da57600080fd5b506101f560048036038101906101f091906115a1565b610745565b005b34801561020357600080fd5b5061021e60048036038101906102199190611604565b610868565b005b34801561022c57600080fd5b50610235610931565b005b34801561024357600080fd5b5061024c6109b9565b6040516102599190611640565b60405180910390f35b61027c6004803603810190610277919061165b565b6109e2565b005b34801561028a57600080fd5b506102a560048036038101906102a09190611604565b610b30565b005b3480156102b357600080fd5b506102ce60048036038101906102c99190611604565b610bf9565b005b3480156102dc57600080fd5b506102f760048036038101906102f291906115a1565b610cc2565b005b34801561030557600080fd5b50610320600480360381019061031b9190611604565b610dba565b005b61033c600480360381019061033791906119df565b610e83565b6040516103499190611a66565b60405180910390f35b60008180519060200120838051906020012014905092915050565b610375611228565b73ffffffffffffffffffffffffffffffffffffffff166103936109b9565b73ffffffffffffffffffffffffffffffffffffffff16146103e9576040517f08c379a00000000000000000000000000000000000000000000000000000000081526004016103e090611ade565b60405180910390fd5b6000600360009054906101000a900473ffffffffffffffffffffffffffffffffffffffff16905081600360006101000a81548173ffffffffffffffffffffffffffffffffffffffff021916908373ffffffffffffffffffffffffffffffffffffffff1602179055507f81ed796ae91ccecf245e3cb1b6149b3491e1f0989e603b5d1b388bd68f06b52b33828460405161048493929190611afe565b60405180910390a15050565b610498611228565b73ffffffffffffffffffffffffffffffffffffffff166104b66109b9565b73ffffffffffffffffffffffffffffffffffffffff161461050c576040517f08c379a000000000000000000000000000000000000000000000000000000000815260040161050390611ade565b60405180910390fd5b60006005549050816005819055507f95204251d165fe2245c1dceb4c89885d7b8cfdb88aa079c9428ef4e12df3b0ac33828460405161054d93929190611b35565b60405180910390a15050565b610561611228565b73ffffffffffffffffffffffffffffffffffffffff1661057f6109b9565b73ffffffffffffffffffffffffffffffffffffffff16146105d5576040517f08c379a00000000000000000000000000000000000000000000000000000000081526004016105cc90611ade565b60405180910390fd5b60006007549050816007819055507f9fd5b1fe2d0c3437bd798e95b2f63bd4a3b08887c95a04d22832ccb4aae9fda433828460405161061693929190611b35565b60405180910390a15050565b61062a611228565b73ffffffffffffffffffffffffffffffffffffffff166106486109b9565b73ffffffffffffffffffffffffffffffffffffffff161461069e576040517f08c379a000000000000000000000000000000000000000000000000000000000815260040161069590611ade565b60405180910390fd5b6000600160009054906101000a900473ffffffffffffffffffffffffffffffffffffffff16905081600160006101000a81548173ffffffffffffffffffffffffffffffffffffffff021916908373ffffffffffffffffffffffffffffffffffffffff1602179055507f7a98528f6374afdc782de68dfe485f60c47c83eb22d862896ee7c59a13c6d89933828460405161073993929190611afe565b60405180910390a15050565b61074d611228565b73ffffffffffffffffffffffffffffffffffffffff1661076b6109b9565b73ffffffffffffffffffffffffffffffffffffffff16146107c1576040517f08c379a00000000000000000000000000000000000000000000000000000000081526004016107b890611ade565b60405180910390fd5b6000600260009054906101000a900473ffffffffffffffffffffffffffffffffffffffff16905081600260006101000a81548173ffffffffffffffffffffffffffffffffffffffff021916908373ffffffffffffffffffffffffffffffffffffffff1602179055507fef88ef88851c867cbde2a8d8f43f01b9b75342fb93a2a7034ea0d656dbe1378233828460405161085c93929190611afe565b60405180910390a15050565b610870611228565b73ffffffffffffffffffffffffffffffffffffffff1661088e6109b9565b73ffffffffffffffffffffffffffffffffffffffff16146108e4576040517f08c379a00000000000000000000000000000000000000000000000000000000081526004016108db90611ade565b60405180910390fd5b60006004549050816004819055507f20cb277045b07975ddd69579bb7c5703b15359a94bc8b635d4a17c243c8a65ac33828460405161092593929190611b35565b60405180910390a15050565b610939611228565b73ffffffffffffffffffffffffffffffffffffffff166109576109b9565b73ffffffffffffffffffffffffffffffffffffffff16146109ad576040517f08c379a00000000000000000000000000000000000000000000000000000000081526004016109a490611ade565b60405180910390fd5b6109b76000611230565b565b60008060009054906101000a900473ffffffffffffffffffffffffffffffffffffffff16905090565b60006109ed346112f4565b9050600754811015610a34576040517f08c379a0000000000000000000000000000000000000000000000000000000008152600401610a2b90611bde565b60405180910390fd5b60006064600854610a459190611c5c565b34610a509190611c8d565b9050600360009054906101000a900473ffffffffffffffffffffffffffffffffffffffff1673ffffffffffffffffffffffffffffffffffffffff1663dda7b0638234610a9c9190611ce7565b86866040518463ffffffff1660e01b8152600401610abb929190611d1b565b6000604051808303818588803b158015610ad457600080fd5b505af1158015610ae8573d6000803e3d6000fd5b50505050507ffa46e5ec587216687a4a33c4e605f1483f16833be6465e442d80d7bcbaec2eaf33858584604051610b229493929190611d44565b60405180910390a150505050565b610b38611228565b73ffffffffffffffffffffffffffffffffffffffff16610b566109b9565b73ffffffffffffffffffffffffffffffffffffffff1614610bac576040517f08c379a0000000000000000000000000000000000000000000000000000000008152600401610ba390611ade565b60405180910390fd5b60006008549050816008819055507f93dcb4d14ff2c7a93d0076d4d9fbf19c189f2de91a9ba7d79bb80115fe7a852d338284604051610bed93929190611b35565b60405180910390a15050565b610c01611228565b73ffffffffffffffffffffffffffffffffffffffff16610c1f6109b9565b73ffffffffffffffffffffffffffffffffffffffff1614610c75576040517f08c379a0000000000000000000000000000000000000000000000000000000008152600401610c6c90611ade565b60405180910390fd5b60006006549050816006819055507fd1a0f1c3e15bbeb47f950c6fd7572c460678919e9d839966bf073b487365e4bb338284604051610cb693929190611b35565b60405180910390a15050565b610cca611228565b73ffffffffffffffffffffffffffffffffffffffff16610ce86109b9565b73ffffffffffffffffffffffffffffffffffffffff1614610d3e576040517f08c379a0000000000000000000000000000000000000000000000000000000008152600401610d3590611ade565b60405180910390fd5b600073ffffffffffffffffffffffffffffffffffffffff168173ffffffffffffffffffffffffffffffffffffffff161415610dae576040517f08c379a0000000000000000000000000000000000000000000000000000000008152600401610da590611dfb565b60405180910390fd5b610db781611230565b50565b610dc2611228565b73ffffffffffffffffffffffffffffffffffffffff16610de06109b9565b73ffffffffffffffffffffffffffffffffffffffff1614610e36576040517f08c379a0000000000000000000000000000000000000000000000000000000008152600401610e2d90611ade565b60405180910390fd5b60006009549050816009819055507fabdbf62a0b429ce7d6d10ed04c8ecbccb6631aafcae5f4acab13f27ed9d9055c338284604051610e7793929190611b35565b60405180910390a15050565b600080610e928451845161130b565b905080341015610ed7576040517f08c379a0000000000000000000000000000000000000000000000000000000008152600401610ece90611e8d565b60405180910390fd5b60005b83518110156110765760005b848281518110610ef957610ef8611ead565b5b602002602001015151811015611062576000600160009054906101000a900473ffffffffffffffffffffffffffffffffffffffff1673ffffffffffffffffffffffffffffffffffffffff166399b87f6c878581518110610f5c57610f5b611ead565b5b60200260200101518481518110610f7657610f75611ead565b5b6020026020010151600001516040518263ffffffff1660e01b8152600401610f9e9190611f53565b60006040518083038186803b158015610fb657600080fd5b505afa158015610fca573d6000803e3d6000fd5b505050506040513d6000823e3d601f19601f82011682018060405250810190610ff3919061200a565b91505061100f8160405180602001604052806000815250610352565b61104e576040517f08c379a0000000000000000000000000000000000000000000000000000000008152600401611045906120d8565b60405180910390fd5b50808061105a906120f8565b915050610ee6565b50808061106e906120f8565b915050610eda565b5060003373ffffffffffffffffffffffffffffffffffffffff16823461109c9190611ce7565b6040516110a890612172565b60006040518083038185875af1925050503d80600081146110e5576040519150601f19603f3d011682016040523d82523d6000602084013e6110ea565b606091505b505090508061112e576040517f08c379a0000000000000000000000000000000000000000000000000000000008152600401611125906121f9565b60405180910390fd5b6000600260009054906101000a900473ffffffffffffffffffffffffffffffffffffffff1673ffffffffffffffffffffffffffffffffffffffff1663fc51821c87876040518363ffffffff1660e01b815260040161118d92919061251e565b602060405180830381600087803b1580156111a757600080fd5b505af11580156111bb573d6000803e3d6000fd5b505050506040513d601f19601f820116820180604052508101906111df919061256a565b90507f1e34314d10c294e150d9078dc4808fbc4e77807ab189f2556837ace79995889033828560405161121493929190611b35565b60405180910390a180935050505092915050565b600033905090565b60008060009054906101000a900473ffffffffffffffffffffffffffffffffffffffff169050816000806101000a81548173ffffffffffffffffffffffffffffffffffffffff021916908373ffffffffffffffffffffffffffffffffffffffff1602179055508173ffffffffffffffffffffffffffffffffffffffff168173ffffffffffffffffffffffffffffffffffffffff167f8be0079c531659141344cd1fd0a4f28419497f9722a3daafe3b4186f6b6457e060405160405180910390a35050565b6000600954826113049190611c5c565b9050919050565b60006005548261131b9190611c8d565b600454846113299190611c8d565b6113339190612597565b905092915050565b6000604051905090565b600080fd5b600080fd5b600080fd5b600080fd5b6000601f19601f8301169050919050565b7f4e487b7100000000000000000000000000000000000000000000000000000000600052604160045260246000fd5b6113a282611359565b810181811067ffffffffffffffff821117156113c1576113c061136a565b5b80604052505050565b60006113d461133b565b90506113e08282611399565b919050565b600067ffffffffffffffff821115611400576113ff61136a565b5b61140982611359565b9050602081019050919050565b82818337600083830152505050565b6000611438611433846113e5565b6113ca565b90508281526020810184848401111561145457611453611354565b5b61145f848285611416565b509392505050565b600082601f83011261147c5761147b61134f565b5b813561148c848260208601611425565b91505092915050565b600080604083850312156114ac576114ab611345565b5b600083013567ffffffffffffffff8111156114ca576114c961134a565b5b6114d685828601611467565b925050602083013567ffffffffffffffff8111156114f7576114f661134a565b5b61150385828601611467565b9150509250929050565b60008115159050919050565b6115228161150d565b82525050565b600060208201905061153d6000830184611519565b92915050565b600073ffffffffffffffffffffffffffffffffffffffff82169050919050565b600061156e82611543565b9050919050565b61157e81611563565b811461158957600080fd5b50565b60008135905061159b81611575565b92915050565b6000602082840312156115b7576115b6611345565b5b60006115c58482850161158c565b91505092915050565b6000819050919050565b6115e1816115ce565b81146115ec57600080fd5b50565b6000813590506115fe816115d8565b92915050565b60006020828403121561161a57611619611345565b5b6000611628848285016115ef565b91505092915050565b61163a81611563565b82525050565b60006020820190506116556000830184611631565b92915050565b6000806040838503121561167257611671611345565b5b6000611680858286016115ef565b9250506020611691858286016115ef565b9150509250929050565b600067ffffffffffffffff8211156116b6576116b561136a565b5b602082029050602081019050919050565b600080fd5b60006116df6116da8461169b565b6113ca565b90508083825260208201905060208402830185811115611702576117016116c7565b5b835b8181101561172b5780611717888261158c565b845260208401935050602081019050611704565b5050509392505050565b600082601f83011261174a5761174961134f565b5b813561175a8482602086016116cc565b91505092915050565b600067ffffffffffffffff82111561177e5761177d61136a565b5b602082029050602081019050919050565b600067ffffffffffffffff8211156117aa576117a961136a565b5b602082029050602081019050919050565b600080fd5b600080fd5b6000608082840312156117db576117da6117bb565b5b6117e560806113ca565b9050600082013567ffffffffffffffff811115611805576118046117c0565b5b61181184828501611467565b600083015250602082013567ffffffffffffffff811115611835576118346117c0565b5b61184184828501611467565b6020830152506040611855848285016115ef565b60408301525060606118698482850161158c565b60608301525092915050565b60006118886118838461178f565b6113ca565b905080838252602082019050602084028301858111156118ab576118aa6116c7565b5b835b818110156118f257803567ffffffffffffffff8111156118d0576118cf61134f565b5b8086016118dd89826117c5565b855260208501945050506020810190506118ad565b5050509392505050565b600082601f8301126119115761191061134f565b5b8135611921848260208601611875565b91505092915050565b600061193d61193884611763565b6113ca565b905080838252602082019050602084028301858111156119605761195f6116c7565b5b835b818110156119a757803567ffffffffffffffff8111156119855761198461134f565b5b80860161199289826118fc565b85526020850194505050602081019050611962565b5050509392505050565b600082601f8301126119c6576119c561134f565b5b81356119d684826020860161192a565b91505092915050565b600080604083850312156119f6576119f5611345565b5b600083013567ffffffffffffffff811115611a1457611a1361134a565b5b611a2085828601611735565b925050602083013567ffffffffffffffff811115611a4157611a4061134a565b5b611a4d858286016119b1565b9150509250929050565b611a60816115ce565b82525050565b6000602082019050611a7b6000830184611a57565b92915050565b600082825260208201905092915050565b7f4f776e61626c653a2063616c6c6572206973206e6f7420746865206f776e6572600082015250565b6000611ac8602083611a81565b9150611ad382611a92565b602082019050919050565b60006020820190508181036000830152611af781611abb565b9050919050565b6000606082019050611b136000830186611631565b611b206020830185611631565b611b2d6040830184611631565b949350505050565b6000606082019050611b4a6000830186611631565b611b576020830185611a57565b611b646040830184611a57565b949350505050565b7f5472616e73616374696f6e206d696e696d616c2076616c7565206e6f7420726560008201527f6163686564000000000000000000000000000000000000000000000000000000602082015250565b6000611bc8602583611a81565b9150611bd382611b6c565b604082019050919050565b60006020820190508181036000830152611bf781611bbb565b9050919050565b7f4e487b7100000000000000000000000000000000000000000000000000000000600052601260045260246000fd5b7f4e487b7100000000000000000000000000000000000000000000000000000000600052601160045260246000fd5b6000611c67826115ce565b9150611c72836115ce565b925082611c8257611c81611bfe565b5b828204905092915050565b6000611c98826115ce565b9150611ca3836115ce565b9250817fffffffffffffffffffffffffffffffffffffffffffffffffffffffffffffffff0483118215151615611cdc57611cdb611c2d565b5b828202905092915050565b6000611cf2826115ce565b9150611cfd836115ce565b925082821015611d1057611d0f611c2d565b5b828203905092915050565b6000604082019050611d306000830185611a57565b611d3d6020830184611a57565b9392505050565b6000608082019050611d596000830187611631565b611d666020830186611a57565b611d736040830185611a57565b611d806060830184611a57565b95945050505050565b7f4f776e61626c653a206e6577206f776e657220697320746865207a65726f206160008201527f6464726573730000000000000000000000000000000000000000000000000000602082015250565b6000611de5602683611a81565b9150611df082611d89565b604082019050919050565b60006020820190508181036000830152611e1481611dd8565b9050919050565b7f496e73756666696369656e742076616c756520746f20636f766572207468652060008201527f6465616c206372656174696f6e20666565730000000000000000000000000000602082015250565b6000611e77603283611a81565b9150611e8282611e1b565b604082019050919050565b60006020820190508181036000830152611ea681611e6a565b9050919050565b7f4e487b7100000000000000000000000000000000000000000000000000000000600052603260045260246000fd5b600081519050919050565b60005b83811015611f05578082015181840152602081019050611eea565b83811115611f14576000848401525b50505050565b6000611f2582611edc565b611f2f8185611a81565b9350611f3f818560208601611ee7565b611f4881611359565b840191505092915050565b60006020820190508181036000830152611f6d8184611f1a565b905092915050565b60058110611f8257600080fd5b50565b600081519050611f9481611f75565b92915050565b6000611fad611fa8846113e5565b6113ca565b905082815260208101848484011115611fc957611fc8611354565b5b611fd4848285611ee7565b509392505050565b600082601f830112611ff157611ff061134f565b5b8151612001848260208601611f9a565b91505092915050565b6000806040838503121561202157612020611345565b5b600061202f85828601611f85565b925050602083015167ffffffffffffffff8111156120505761204f61134a565b5b61205c85828601611fdc565b9150509250929050565b7f50726f78792e4372656174654465616c3a20496e737472756374696f6e20697360008201527f206e6f7420737570706f72746564000000000000000000000000000000000000602082015250565b60006120c2602e83611a81565b91506120cd82612066565b604082019050919050565b600060208201905081810360008301526120f1816120b5565b9050919050565b6000612103826115ce565b91507fffffffffffffffffffffffffffffffffffffffffffffffffffffffffffffffff82141561213657612135611c2d565b5b600182019050919050565b600081905092915050565b50565b600061215c600083612141565b91506121678261214c565b600082019050919050565b600061217d8261214f565b9150819050919050565b7f50726f78792e6372656174654465616c3a204661696c656420746f207265696d60008201527f6275727365206578636573732045746865720000000000000000000000000000602082015250565b60006121e3603283611a81565b91506121ee82612187565b604082019050919050565b60006020820190508181036000830152612212816121d6565b9050919050565b600081519050919050565b600082825260208201905092915050565b6000819050602082019050919050565b61224e81611563565b82525050565b60006122608383612245565b60208301905092915050565b6000602082019050919050565b600061228482612219565b61228e8185612224565b935061229983612235565b8060005b838110156122ca5781516122b18882612254565b97506122bc8361226c565b92505060018101905061229d565b5085935050505092915050565b600081519050919050565b600082825260208201905092915050565b6000819050602082019050919050565b600081519050919050565b600082825260208201905092915050565b6000819050602082019050919050565b600082825260208201905092915050565b600061234b82611edc565b612355818561232f565b9350612365818560208601611ee7565b61236e81611359565b840191505092915050565b612382816115ce565b82525050565b600060808301600083015184820360008601526123a58282612340565b915050602083015184820360208601526123bf8282612340565b91505060408301516123d46040860182612379565b5060608301516123e76060860182612245565b508091505092915050565b60006123fe8383612388565b905092915050565b6000602082019050919050565b600061241e82612303565b612428818561230e565b93508360208202850161243a8561231f565b8060005b85811015612476578484038952815161245785826123f2565b945061246283612406565b925060208a0199505060018101905061243e565b50829750879550505050505092915050565b60006124948383612413565b905092915050565b6000602082019050919050565b60006124b4826122d7565b6124be81856122e2565b9350836020820285016124d0856122f3565b8060005b8581101561250c57848403895281516124ed8582612488565b94506124f88361249c565b925060208a019950506001810190506124d4565b50829750879550505050505092915050565b600060408201905081810360008301526125388185612279565b9050818103602083015261254c81846124a9565b90509392505050565b600081519050612564816115d8565b92915050565b6000602082840312156125805761257f611345565b5b600061258e84828501612555565b91505092915050565b60006125a2826115ce565b91506125ad836115ce565b9250827fffffffffffffffffffffffffffffffffffffffffffffffffffffffffffffffff038211156125e2576125e1611c2d565b5b82820190509291505056fea2646970667358221220f5f561003c3ea9f48517900c57546b807d4975a2b5555cb9f2b71b13ed6c0ec064736f6c63430008090033",
  "immutableReferences": {},
  "source": "// SPDX-License-Identifier: GPL-3.0\npragma solidity ^0.8.0;\n\n/* EXTERNAL DEPENDENCIES */\nimport \"@openzeppelin/contracts/access/Ownable.sol\";\n\n/* INTERNAL DEPENDENCIES */\nimport \"./CommonStructs.sol\";\nimport \"./Instructions.sol\";\nimport \"./Deals.sol\";\nimport \"./Interpreter.sol\";\n\n// TODO: Ajouter un payable fallback a tous les contracts pour voir ce qu'on fait quand on reoit de l'argent par erreur\n//        ==> Hriter d'une classe qui redirige l'argent vers le proxy ou bien juste rembourser les sous\n\n// TODO: Check how to integrate the allowAllAccounts in the interpreter. Should I add it as a param in the deal?\n\n/// @title Proxy Contract\n/// @dev Main DApp entry point. Exposes the public interface and decouple the data and the logic\n/// @notice lets-make-a-deal.eth allows you to make an agreement between different parties and automatically route ETH to different addresses based on simple rules.\ncontract Proxy is Ownable {\n    \n    /* STORAGE VARIABLES */\n\n    // References to external contracts\n    \n    /// @dev Reference to the Instructions contract\n    Instructions private instructionsContractRef;\n\n    /// @dev Reference to the Deals contract\n    Deals private dealsContractRef;\n\n    /// @dev Reference to the Interpreter contract\n    Interpreter private interpreterContractRef;\n\n    // Contract fees\n\n    /// @dev Price per account added to the deal in USD\n    uint private accountCreationFees;\n    \n    /// @dev Price per rule added to the deal in USD\n    uint private ruleCreationFees;\n\n    /// @dev Price to allow incoming payments from all addresses others than internal/external accounts in USD\n    uint private allowAllAddressesFees;\n\n    /// @dev Minimal transaction value able to trigger an execution in USD\n    uint private transactionMinimalValue;\n\n    /// @dev Transaction fees in % of the msg.value perceived on a deal execution in USD\n    uint private transactionFees;\n\n    /// @dev USD/WEI rate\n    uint private WEI2USDConversionRate;\n\n    /* MAPPINGS */\n    \n    /* MODIFIERS */\n    \n    /* EVENTS */\n\n    // Modify contract references\n\n    /**\n    * @dev Event emitted when the Instructions contract reference is changed\n    * @param _from Caller address\n    * @param _old Old address of the Instructions contract\n    * @param _new New address of the Instructions contract\n    */\n    event ModifyInstructionsContractAddress(address _from, address _old, address _new);\n\n    /**\n    * @dev Event emitted when the Deals contract reference is changed\n    * @param _from Caller address\n    * @param _old Old address of the Deals contract\n    * @param _new New address of the Deals contract\n    */\n    event ModifyDealsContractAddress(address _from, address _old, address _new);\n    \n    /**\n    * @dev Event emitted when the Interpreter contract reference is changed\n    * @param _from Caller address\n    * @param _old Old address of the Interpreter contract\n    * @param _new New address of the Interpreter contract\n    */\n    event ModifyInterpreterContractAddress(address _from, address _old, address _new);\n    \n    // Modify fees\n \n    /** \n    * @dev Event emitted when the account creation fees is changed\n    * @param _from : msg.sender\n    * @param _old : old account creation fees in USD\n    * @param _new : new account creation fees in USD\n    */\n    event ModifyAccountCreationFees(address _from, uint _old, uint _new);\n\n    /** \n    * @dev Event emitted when the rule creation fees is changed\n    * @param _from : msg.sender\n    * @param _old : old rule creation fees in USD\n    * @param _new : new rule creation fees in USD\n    */\n    event ModifyRuleCreationFees(address _from, uint _old, uint _new);\n\n    /** \n    * @dev Event emitted when the allow all accounts fees is changed\n    * @param _from : msg.sender\n    * @param _old : old allow all accounts fees in USD\n    * @param _new : new allow all accounts fees in USD\n    */\n    event ModifyAllowAllAccountsFees(address _from, uint _old, uint _new);\n\n    /** \n    * @dev Event emitted when the transaction minimal value is changed\n    * @param _from : msg.sender\n    * @param _old : old transaction minimal value in USD\n    * @param _new : new transaction minimal value in USD\n    */\n    event ModifyTransactionMinimalValue(address _from, uint _old, uint _new);\n\n    /** \n    * @dev Event emitted when the ETH/USD rate is changed\n    * @param _from : msg.sender\n    * @param _old : old ETH/USD rate in ETH per USD\n    * @param _new : new ETH/USD rate in ETH per USD\n    */\n    event ModifyTransactionFees(address _from, uint _old, uint _new);\n    \n    /** \n    * @dev Event emitted when the WEI to USD conversion rate is changed\n    * @param _from : msg.sender\n    * @param _old : old WEI to USD conversion rate in WEI\n    * @param _new : new WEI to USD conversion rate in WEI\n    */\n    event ModifyWEI2USDConversionRate(address _from, uint _old, uint _new);\n\n    /** \n    * @dev Event emitted when the deal creation fees are paid\n    * @param _from : msg.sender\n    * @param _dealId : Id of the created deal\n    * @param _fees : Fees paid by the user in ETH\n    */\n    event PayDealCreationFees(address _from, uint _dealId, uint _fees);\n\n    /** \n    * @dev Event emitted when the transaction fees are paid\n    * @param _from : msg.sender\n    * @param _dealId : Id of the executed deal \n    * @param _ruleId : Id of the executed rule\n    * @param _fees : Fees paid by the user in ETH\n    */\n    event PayTransactionFees(address _from, uint _dealId, uint _ruleId, uint _fees);\n    \n\n    /* CONSTRUCTOR */\n\n    /// @dev Constructor: Initialize storage variables\n    constructor (\n        uint _accountCreationFees, \n        uint _ruleCreationFees,\n        uint _allowAllAddressesFees,\n        uint _transactionMinimalValue,\n        uint _transactionFees,\n        uint _WEI2USDConversionRate\n    ) {\n        accountCreationFees = _accountCreationFees;\n        ruleCreationFees = _ruleCreationFees;\n        allowAllAddressesFees = _allowAllAddressesFees;\n        transactionMinimalValue = _transactionMinimalValue;\n        transactionFees = _transactionFees;\n        WEI2USDConversionRate = _WEI2USDConversionRate;\n    }\n    \n    /* SEND & FALLBACK */\n    // TODO: https://docs.soliditylang.org/en/v0.8.9/contracts.html#receive-ether-function\n    // If I do not include a payable send or fallback, the contract will return any ETH send to the contract with a call without call values (ok for me i think)\n    \n    /* OWNER INTERFACE */\n\n    // References to external contracts\n    \n    /**\n    * @dev Sets the Instructions contract reference to a new value\n    * @param _new New address of the Instructions contract\n    */\n    function setInstructionsContractRef(address _new) public onlyOwner {\n        address old = address(instructionsContractRef);\n        instructionsContractRef = Instructions(_new);\n        emit ModifyInstructionsContractAddress(msg.sender, old, _new);\n    }\n\n    /**\n    * @dev Sets the Deals contract reference to a new value\n    * @param _new New address of the Deals contract\n    */\n    function setDealsContractRef(address _new) public onlyOwner {\n        address old = address(dealsContractRef);\n        dealsContractRef = Deals(_new);\n        emit ModifyDealsContractAddress(msg.sender, old, _new);\n    }\n    \n    /**\n    * @dev Sets the Interpreter contract reference to a new value\n    * @param _new New address of the Interpreter contract\n    */\n    function setInterpreterContractRef(address _new) public onlyOwner {\n        address old = address(interpreterContractRef);\n        interpreterContractRef = Interpreter(_new);\n        emit ModifyInterpreterContractAddress(msg.sender, old, _new);\n    }\n\n    // Contract fees\n\n    /**\n    * @dev Sets the account creation fees to a new value\n    * @param _new New value for the account creation fees in USD\n    */\n    function setAccountCreationFees(uint _new) public onlyOwner {\n        uint old = accountCreationFees;\n        accountCreationFees = _new;\n        emit ModifyAccountCreationFees(msg.sender, old, _new);\n    }\n    \n    /**\n    * @dev Sets the rule creation fees to a new value\n    * @param _new New value for the rule creation fees in USD\n    */\n    function setRuleCreationFees(uint _new) public onlyOwner {\n        uint old = ruleCreationFees;\n        ruleCreationFees = _new;\n        emit ModifyRuleCreationFees(msg.sender, old, _new);\n    }\n\n    /**\n    * @dev Sets the allow all addresses fees to a new value\n    * @param _new New value for the allow all addresses fees in USD\n    */\n    function setAllowAllAddressesFees(uint _new) public onlyOwner {\n        uint old = allowAllAddressesFees;\n        allowAllAddressesFees = _new;\n        emit ModifyAllowAllAccountsFees(msg.sender, old, _new);\n    }\n\n    /**\n    * @dev Sets the transaction minimal value to a new value\n    * @param _new New value for the transaction minimal value in USD\n    */\n    function setTransactionMinimalValue(uint _new) public onlyOwner {\n        uint old = transactionMinimalValue;\n        transactionMinimalValue = _new;\n        emit ModifyTransactionMinimalValue(msg.sender, old, _new);\n    }\n\n    /**\n    * @dev Sets the transaction fees to a new value\n    * @param _new New value for the transaction fees in USD\n    */\n    function setTransactionFees(uint _new) public onlyOwner {\n        uint old = transactionFees;\n        transactionFees = _new;\n        emit ModifyTransactionFees(msg.sender, old, _new);\n    }\n\n    /**\n    * @dev Sets the WEI to USD conversion rate to a new value\n    * @param _new New value for the WEI to USD conversion rate in USD\n    */\n    function setWEI2USDRate(uint _new) public onlyOwner {\n        uint old = WEI2USDConversionRate;\n        WEI2USDConversionRate = _new;\n        emit ModifyWEI2USDConversionRate(msg.sender, old, _new);\n    }\n\n    /* PUBLIC INTERFACE */\n\n    /**\n    * @dev Creates a deal and returns its id\n    * @param _accounts List of accounts addresses linked to the deal\n    * @param _rulesList List of the rules linked to the deal (rule = list of Articles)\n    * @return Id of the deal created\n    */\n    function createDeal\n    (\n        address[] memory _accounts, \n        CommonStructs.Article[][] memory _rulesList\n    ) \n    public payable returns (uint) {\n        // Compute creation fees\n        uint creationFees = _computeCreationFees(_accounts.length, _rulesList.length);\n\n        // Check 1: Amount sent by the user should cover the deal creation fees\n        require(msg.value >= creationFees, \"Insufficient value to cover the deal creation fees\");\n\n        // Check 2: Make sure that the instructions are all supported\n        for (uint i=0;i<_rulesList.length;i++) {\n            for (uint j=0;j<_rulesList[i].length;j++) {\n                // Get the instruction type & signature\n                (, string memory instructionSignature) = instructionsContractRef.getInstruction(_rulesList[i][j].instructionName);\n                \n                // If the signature is empty, this means that the instruction is not present => revert\n                require(stringsEqual(instructionSignature,''),\"Proxy.CreateDeal: Instruction is not supported\");\n            }\n        }\n\n        // Reimburse excess value to the caller\n        (bool sent, ) = msg.sender.call{value: (msg.value - creationFees)}(\"\");\n        require(sent, \"Proxy.createDeal: Failed to reimburse excess Ether\");\n\n        // Create the deal\n        uint dealId = dealsContractRef.createDeal(_accounts, _rulesList);\n\n        // Emit a PayDealCreationFees\n        emit PayDealCreationFees(msg.sender, dealId, creationFees);\n\n        return dealId;\n    }\n\n    /**\n    * @dev Execute a deal's rule\n    * @param _dealId : Id of the deal to execute\n    * @param _ruleId : Id of the rule to execute\n    */\n    function executeRule(uint _dealId, uint _ruleId) public payable {\n        // Amount sent by the user should be higher or equal to the minimal transaction value\n        uint msgValueInUSD = _convertWEI2USD(msg.value);\n        require( msgValueInUSD >= transactionMinimalValue, \"Transaction minimal value not reached\");\n\n        // Call Interpreter.interpretRule() and include in the call the msg.value - execution fees\n        uint executionFees = msg.value * (transactionFees/100);\n        interpreterContractRef.interpretRule{value: (msg.value - executionFees)}(_dealId, _ruleId);\n\n        // Emit a PayTransactionFees\n        emit PayTransactionFees(msg.sender, _dealId, _ruleId, executionFees);\n    }\n\n    /* INTERNAL HELPER FUNCTIONS */\n    \n    /**\n    * @dev Computes the deal creation cost\n    * @param _accountsCount Number of external accounts defined in the deal\n    * @param _rulesCount Number of rules defined in the deal\n    * @return Deal creation cost\n    */\n    function _computeCreationFees\n    (\n        uint _accountsCount, \n        uint _rulesCount\n    ) \n    internal view returns (uint) {\n        return _accountsCount * accountCreationFees + _rulesCount * ruleCreationFees;\n    }\n\n    /**\n    * @dev Converts an amount in WEI to USD\n    * @param _amountInWEI Amount in WEI\n    * @return Converted amount in USD\n    */\n    function _convertWEI2USD(uint _amountInWEI) internal view returns(uint) {\n        return _amountInWEI / WEI2USDConversionRate;\n    }\n\n    /**\n    * @dev Converts an amount in USD to WEI\n    * @param _amountInUSD Amount in USD\n    * @return Converted amount in WEI\n    */\n    function _convertUSD2WEI(uint _amountInUSD) internal view returns(uint) {\n        return _amountInUSD * WEI2USDConversionRate;\n    }\n\n    /** \n    * @dev Checks whether the strings are equal\n    * @param _s1 First string to compare\n    * @param _s2 Second string to compare\n    * @return Boolean indicating if the 2 strings are equal\n    */\n    function stringsEqual(string memory _s1, string memory _s2) public pure returns(bool) {\n        return keccak256(bytes(_s1)) == keccak256(bytes(_s2));\n    }\n}\n",
  "sourcePath": "/home/shakalee/Documents/Consensys/PROJOT-v0/contracts/Proxy.sol",
  "compiler": {
    "name": "solc",
    "version": "0.8.9+commit.e5eed63a.Emscripten.clang"
  },
  "schemaVersion": "3.4.3",
  "updatedAt": "2021-11-21T08:19:36.795Z",
  "devdoc": {
    "details": "Main DApp entry point. Exposes the public interface and decouple the data and the logic",
    "events": {
      "ModifyAccountCreationFees(address,uint256,uint256)": {
        "details": "Event emitted when the account creation fees is changed",
        "params": {
          "_from": ": msg.sender",
          "_new": ": new account creation fees in USD",
          "_old": ": old account creation fees in USD"
        }
      },
      "ModifyAllowAllAccountsFees(address,uint256,uint256)": {
        "details": "Event emitted when the allow all accounts fees is changed",
        "params": {
          "_from": ": msg.sender",
          "_new": ": new allow all accounts fees in USD",
          "_old": ": old allow all accounts fees in USD"
        }
      },
      "ModifyDealsContractAddress(address,address,address)": {
        "details": "Event emitted when the Deals contract reference is changed",
        "params": {
          "_from": "Caller address",
          "_new": "New address of the Deals contract",
          "_old": "Old address of the Deals contract"
        }
      },
      "ModifyInstructionsContractAddress(address,address,address)": {
        "details": "Event emitted when the Instructions contract reference is changed",
        "params": {
          "_from": "Caller address",
          "_new": "New address of the Instructions contract",
          "_old": "Old address of the Instructions contract"
        }
      },
      "ModifyInterpreterContractAddress(address,address,address)": {
        "details": "Event emitted when the Interpreter contract reference is changed",
        "params": {
          "_from": "Caller address",
          "_new": "New address of the Interpreter contract",
          "_old": "Old address of the Interpreter contract"
        }
      },
      "ModifyRuleCreationFees(address,uint256,uint256)": {
        "details": "Event emitted when the rule creation fees is changed",
        "params": {
          "_from": ": msg.sender",
          "_new": ": new rule creation fees in USD",
          "_old": ": old rule creation fees in USD"
        }
      },
      "ModifyTransactionFees(address,uint256,uint256)": {
        "details": "Event emitted when the ETH/USD rate is changed",
        "params": {
          "_from": ": msg.sender",
          "_new": ": new ETH/USD rate in ETH per USD",
          "_old": ": old ETH/USD rate in ETH per USD"
        }
      },
      "ModifyTransactionMinimalValue(address,uint256,uint256)": {
        "details": "Event emitted when the transaction minimal value is changed",
        "params": {
          "_from": ": msg.sender",
          "_new": ": new transaction minimal value in USD",
          "_old": ": old transaction minimal value in USD"
        }
      },
      "ModifyWEI2USDConversionRate(address,uint256,uint256)": {
        "details": "Event emitted when the WEI to USD conversion rate is changed",
        "params": {
          "_from": ": msg.sender",
          "_new": ": new WEI to USD conversion rate in WEI",
          "_old": ": old WEI to USD conversion rate in WEI"
        }
      },
      "PayDealCreationFees(address,uint256,uint256)": {
        "details": "Event emitted when the deal creation fees are paid",
        "params": {
          "_dealId": ": Id of the created deal",
          "_fees": ": Fees paid by the user in ETH",
          "_from": ": msg.sender"
        }
      },
      "PayTransactionFees(address,uint256,uint256,uint256)": {
        "details": "Event emitted when the transaction fees are paid",
        "params": {
          "_dealId": ": Id of the executed deal ",
          "_fees": ": Fees paid by the user in ETH",
          "_from": ": msg.sender",
          "_ruleId": ": Id of the executed rule"
        }
      }
    },
    "kind": "dev",
    "methods": {
      "constructor": {
        "details": "Constructor: Initialize storage variables"
      },
      "createDeal(address[],(string,string,uint256,address)[][])": {
        "details": "Creates a deal and returns its id",
        "params": {
          "_accounts": "List of accounts addresses linked to the deal",
          "_rulesList": "List of the rules linked to the deal (rule = list of Articles)"
        },
        "returns": {
          "_0": "Id of the deal created"
        }
      },
      "executeRule(uint256,uint256)": {
        "details": "Execute a deal's rule",
        "params": {
          "_dealId": ": Id of the deal to execute",
          "_ruleId": ": Id of the rule to execute"
        }
      },
      "owner()": {
        "details": "Returns the address of the current owner."
      },
      "renounceOwnership()": {
        "details": "Leaves the contract without owner. It will not be possible to call `onlyOwner` functions anymore. Can only be called by the current owner. NOTE: Renouncing ownership will leave the contract without an owner, thereby removing any functionality that is only available to the owner."
      },
      "setAccountCreationFees(uint256)": {
        "details": "Sets the account creation fees to a new value",
        "params": {
          "_new": "New value for the account creation fees in USD"
        }
      },
      "setAllowAllAddressesFees(uint256)": {
        "details": "Sets the allow all addresses fees to a new value",
        "params": {
          "_new": "New value for the allow all addresses fees in USD"
        }
      },
      "setDealsContractRef(address)": {
        "details": "Sets the Deals contract reference to a new value",
        "params": {
          "_new": "New address of the Deals contract"
        }
      },
      "setInstructionsContractRef(address)": {
        "details": "Sets the Instructions contract reference to a new value",
        "params": {
          "_new": "New address of the Instructions contract"
        }
      },
      "setInterpreterContractRef(address)": {
        "details": "Sets the Interpreter contract reference to a new value",
        "params": {
          "_new": "New address of the Interpreter contract"
        }
      },
      "setRuleCreationFees(uint256)": {
        "details": "Sets the rule creation fees to a new value",
        "params": {
          "_new": "New value for the rule creation fees in USD"
        }
      },
      "setTransactionFees(uint256)": {
        "details": "Sets the transaction fees to a new value",
        "params": {
          "_new": "New value for the transaction fees in USD"
        }
      },
      "setTransactionMinimalValue(uint256)": {
        "details": "Sets the transaction minimal value to a new value",
        "params": {
          "_new": "New value for the transaction minimal value in USD"
        }
      },
      "setWEI2USDRate(uint256)": {
        "details": "Sets the WEI to USD conversion rate to a new value",
        "params": {
          "_new": "New value for the WEI to USD conversion rate in USD"
        }
      },
      "stringsEqual(string,string)": {
        "details": "Checks whether the strings are equal",
        "params": {
          "_s1": "First string to compare",
          "_s2": "Second string to compare"
        },
        "returns": {
          "_0": "Boolean indicating if the 2 strings are equal"
        }
      },
      "transferOwnership(address)": {
        "details": "Transfers ownership of the contract to a new account (`newOwner`). Can only be called by the current owner."
      }
    },
    "stateVariables": {
      "WEI2USDConversionRate": {
        "details": "USD/WEI rate"
      },
      "accountCreationFees": {
        "details": "Price per account added to the deal in USD"
      },
      "allowAllAddressesFees": {
        "details": "Price to allow incoming payments from all addresses others than internal/external accounts in USD"
      },
      "dealsContractRef": {
        "details": "Reference to the Deals contract"
      },
      "instructionsContractRef": {
        "details": "Reference to the Instructions contract"
      },
      "interpreterContractRef": {
        "details": "Reference to the Interpreter contract"
      },
      "ruleCreationFees": {
        "details": "Price per rule added to the deal in USD"
      },
      "transactionFees": {
        "details": "Transaction fees in % of the msg.value perceived on a deal execution in USD"
      },
      "transactionMinimalValue": {
        "details": "Minimal transaction value able to trigger an execution in USD"
      }
    },
    "title": "Proxy Contract",
    "version": 1
  },
  "userdoc": {
    "kind": "user",
    "methods": {},
    "notice": "lets-make-a-deal.eth allows you to make an agreement between different parties and automatically route ETH to different addresses based on simple rules.",
    "version": 1
  }
}