{
  "contractName": "Proxy",
  "abi": [
    {
      "inputs": [
        {
          "internalType": "uint256",
          "name": "_accountCreationFees",
          "type": "uint256"
        },
        {
          "internalType": "uint256",
          "name": "_ruleCreationFees",
          "type": "uint256"
        },
        {
          "internalType": "uint256",
          "name": "_allowAllAddressesFees",
          "type": "uint256"
        },
        {
          "internalType": "uint256",
          "name": "_transactionMinimalValue",
          "type": "uint256"
        },
        {
          "internalType": "uint256",
          "name": "_transactionFees",
          "type": "uint256"
        },
        {
          "internalType": "uint256",
          "name": "_lastQuotationValue",
          "type": "uint256"
        }
      ],
      "stateMutability": "nonpayable",
      "type": "constructor"
    },
    {
      "anonymous": false,
      "inputs": [
        {
          "indexed": false,
          "internalType": "address",
          "name": "_from",
          "type": "address"
        },
        {
          "indexed": false,
          "internalType": "uint256",
          "name": "_old",
          "type": "uint256"
        },
        {
          "indexed": false,
          "internalType": "uint256",
          "name": "_new",
          "type": "uint256"
        }
      ],
      "name": "ModifyAccountCreationFees",
      "type": "event"
    },
    {
      "anonymous": false,
      "inputs": [
        {
          "indexed": false,
          "internalType": "address",
          "name": "_from",
          "type": "address"
        },
        {
          "indexed": false,
          "internalType": "uint256",
          "name": "_old",
          "type": "uint256"
        },
        {
          "indexed": false,
          "internalType": "uint256",
          "name": "_new",
          "type": "uint256"
        }
      ],
      "name": "ModifyAllowAllAccountsFees",
      "type": "event"
    },
    {
      "anonymous": false,
      "inputs": [
        {
          "indexed": false,
          "internalType": "address",
          "name": "_from",
          "type": "address"
        },
        {
          "indexed": false,
          "internalType": "address",
          "name": "_old",
          "type": "address"
        },
        {
          "indexed": false,
          "internalType": "address",
          "name": "_new",
          "type": "address"
        }
      ],
      "name": "ModifyDealsContractAddress",
      "type": "event"
    },
    {
      "anonymous": false,
      "inputs": [
        {
          "indexed": false,
          "internalType": "address",
          "name": "_from",
          "type": "address"
        },
        {
          "indexed": false,
          "internalType": "address",
          "name": "_old",
          "type": "address"
        },
        {
          "indexed": false,
          "internalType": "address",
          "name": "_new",
          "type": "address"
        }
      ],
      "name": "ModifyInstructionsContractAddress",
      "type": "event"
    },
    {
      "anonymous": false,
      "inputs": [
        {
          "indexed": false,
          "internalType": "address",
          "name": "_from",
          "type": "address"
        },
        {
          "indexed": false,
          "internalType": "address",
          "name": "_old",
          "type": "address"
        },
        {
          "indexed": false,
          "internalType": "address",
          "name": "_new",
          "type": "address"
        }
      ],
      "name": "ModifyInstructionsProviderContractAddress",
      "type": "event"
    },
    {
      "anonymous": false,
      "inputs": [
        {
          "indexed": false,
          "internalType": "address",
          "name": "_from",
          "type": "address"
        },
        {
          "indexed": false,
          "internalType": "address",
          "name": "_old",
          "type": "address"
        },
        {
          "indexed": false,
          "internalType": "address",
          "name": "_new",
          "type": "address"
        }
      ],
      "name": "ModifyInterpreterContractAddress",
      "type": "event"
    },
    {
      "anonymous": false,
      "inputs": [
        {
          "indexed": false,
          "internalType": "address",
          "name": "_from",
          "type": "address"
        },
        {
          "indexed": false,
          "internalType": "address",
          "name": "_old",
          "type": "address"
        },
        {
          "indexed": false,
          "internalType": "address",
          "name": "_new",
          "type": "address"
        }
      ],
      "name": "ModifyPriceFeedRefAggregatorAddress",
      "type": "event"
    },
    {
      "anonymous": false,
      "inputs": [
        {
          "indexed": false,
          "internalType": "address",
          "name": "_from",
          "type": "address"
        },
        {
          "indexed": false,
          "internalType": "uint256",
          "name": "_old",
          "type": "uint256"
        },
        {
          "indexed": false,
          "internalType": "uint256",
          "name": "_new",
          "type": "uint256"
        }
      ],
      "name": "ModifyRuleCreationFees",
      "type": "event"
    },
    {
      "anonymous": false,
      "inputs": [
        {
          "indexed": false,
          "internalType": "address",
          "name": "_from",
          "type": "address"
        },
        {
          "indexed": false,
          "internalType": "uint256",
          "name": "_old",
          "type": "uint256"
        },
        {
          "indexed": false,
          "internalType": "uint256",
          "name": "_new",
          "type": "uint256"
        }
      ],
      "name": "ModifyTransactionFees",
      "type": "event"
    },
    {
      "anonymous": false,
      "inputs": [
        {
          "indexed": false,
          "internalType": "address",
          "name": "_from",
          "type": "address"
        },
        {
          "indexed": false,
          "internalType": "uint256",
          "name": "_old",
          "type": "uint256"
        },
        {
          "indexed": false,
          "internalType": "uint256",
          "name": "_new",
          "type": "uint256"
        }
      ],
      "name": "ModifyTransactionMinimalValue",
      "type": "event"
    },
    {
      "anonymous": false,
      "inputs": [
        {
          "indexed": true,
          "internalType": "address",
          "name": "previousOwner",
          "type": "address"
        },
        {
          "indexed": true,
          "internalType": "address",
          "name": "newOwner",
          "type": "address"
        }
      ],
      "name": "OwnershipTransferred",
      "type": "event"
    },
    {
      "anonymous": false,
      "inputs": [
        {
          "indexed": false,
          "internalType": "address",
          "name": "account",
          "type": "address"
        }
      ],
      "name": "Paused",
      "type": "event"
    },
    {
      "anonymous": false,
      "inputs": [
        {
          "indexed": false,
          "internalType": "address",
          "name": "_from",
          "type": "address"
        },
        {
          "indexed": false,
          "internalType": "uint256",
          "name": "_dealId",
          "type": "uint256"
        },
        {
          "indexed": false,
          "internalType": "uint256",
          "name": "_fees",
          "type": "uint256"
        }
      ],
      "name": "PayDealCreationFees",
      "type": "event"
    },
    {
      "anonymous": false,
      "inputs": [
        {
          "indexed": false,
          "internalType": "address",
          "name": "_from",
          "type": "address"
        },
        {
          "indexed": false,
          "internalType": "uint256",
          "name": "_dealId",
          "type": "uint256"
        },
        {
          "indexed": false,
          "internalType": "uint256",
          "name": "_ruleId",
          "type": "uint256"
        },
        {
          "indexed": false,
          "internalType": "uint256",
          "name": "_fees",
          "type": "uint256"
        }
      ],
      "name": "PayTransactionFees",
      "type": "event"
    },
    {
      "anonymous": false,
      "inputs": [
        {
          "indexed": false,
          "internalType": "address",
          "name": "_from",
          "type": "address"
        },
        {
          "indexed": false,
          "internalType": "uint256",
          "name": "_value",
          "type": "uint256"
        },
        {
          "indexed": false,
          "internalType": "uint256",
          "name": "_timestamp",
          "type": "uint256"
        }
      ],
      "name": "QueryLastQuotationFromChainlink",
      "type": "event"
    },
    {
      "anonymous": false,
      "inputs": [
        {
          "indexed": false,
          "internalType": "address",
          "name": "_to",
          "type": "address"
        },
        {
          "indexed": false,
          "internalType": "uint256",
          "name": "_dealId",
          "type": "uint256"
        },
        {
          "indexed": false,
          "internalType": "uint256",
          "name": "_amount",
          "type": "uint256"
        }
      ],
      "name": "ReimburseExcessValue",
      "type": "event"
    },
    {
      "anonymous": false,
      "inputs": [
        {
          "indexed": false,
          "internalType": "address",
          "name": "account",
          "type": "address"
        }
      ],
      "name": "Unpaused",
      "type": "event"
    },
    {
      "inputs": [],
      "name": "accountCreationFees",
      "outputs": [
        {
          "internalType": "uint256",
          "name": "",
          "type": "uint256"
        }
      ],
      "stateMutability": "view",
      "type": "function",
      "constant": true
    },
    {
      "inputs": [],
      "name": "allowAllAddressesFees",
      "outputs": [
        {
          "internalType": "uint256",
          "name": "",
          "type": "uint256"
        }
      ],
      "stateMutability": "view",
      "type": "function",
      "constant": true
    },
    {
      "inputs": [],
      "name": "dealsContractRef",
      "outputs": [
        {
          "internalType": "contract Deals",
          "name": "",
          "type": "address"
        }
      ],
      "stateMutability": "view",
      "type": "function",
      "constant": true
    },
    {
      "inputs": [],
      "name": "instructionsContractRef",
      "outputs": [
        {
          "internalType": "contract Instructions",
          "name": "",
          "type": "address"
        }
      ],
      "stateMutability": "view",
      "type": "function",
      "constant": true
    },
    {
      "inputs": [],
      "name": "instructionsProviderContractRef",
      "outputs": [
        {
          "internalType": "address",
          "name": "",
          "type": "address"
        }
      ],
      "stateMutability": "view",
      "type": "function",
      "constant": true
    },
    {
      "inputs": [],
      "name": "interpreterContractRef",
      "outputs": [
        {
          "internalType": "address",
          "name": "",
          "type": "address"
        }
      ],
      "stateMutability": "view",
      "type": "function",
      "constant": true
    },
    {
      "inputs": [],
      "name": "lastQuotationTimestamp",
      "outputs": [
        {
          "internalType": "uint256",
          "name": "",
          "type": "uint256"
        }
      ],
      "stateMutability": "view",
      "type": "function",
      "constant": true
    },
    {
      "inputs": [],
      "name": "lastQuotationValue",
      "outputs": [
        {
          "internalType": "uint256",
          "name": "",
          "type": "uint256"
        }
      ],
      "stateMutability": "view",
      "type": "function",
      "constant": true
    },
    {
      "inputs": [],
      "name": "owner",
      "outputs": [
        {
          "internalType": "address",
          "name": "",
          "type": "address"
        }
      ],
      "stateMutability": "view",
      "type": "function",
      "constant": true
    },
    {
      "inputs": [],
      "name": "paused",
      "outputs": [
        {
          "internalType": "bool",
          "name": "",
          "type": "bool"
        }
      ],
      "stateMutability": "view",
      "type": "function",
      "constant": true
    },
    {
      "inputs": [],
      "name": "priceFeedRef",
      "outputs": [
        {
          "internalType": "contract AggregatorV3Interface",
          "name": "",
          "type": "address"
        }
      ],
      "stateMutability": "view",
      "type": "function",
      "constant": true
    },
    {
      "inputs": [],
      "name": "ruleCreationFees",
      "outputs": [
        {
          "internalType": "uint256",
          "name": "",
          "type": "uint256"
        }
      ],
      "stateMutability": "view",
      "type": "function",
      "constant": true
    },
    {
      "inputs": [],
      "name": "transactionFees",
      "outputs": [
        {
          "internalType": "uint256",
          "name": "",
          "type": "uint256"
        }
      ],
      "stateMutability": "view",
      "type": "function",
      "constant": true
    },
    {
      "inputs": [],
      "name": "transactionMinimalValue",
      "outputs": [
        {
          "internalType": "uint256",
          "name": "",
          "type": "uint256"
        }
      ],
      "stateMutability": "view",
      "type": "function",
      "constant": true
    },
    {
      "inputs": [
        {
          "internalType": "address",
          "name": "newOwner",
          "type": "address"
        }
      ],
      "name": "transferOwnership",
      "outputs": [],
      "stateMutability": "nonpayable",
      "type": "function"
    },
    {
      "inputs": [
        {
          "internalType": "address",
          "name": "_new",
          "type": "address"
        }
      ],
      "name": "setPriceFeedRefAggregatorAddress",
      "outputs": [],
      "stateMutability": "nonpayable",
      "type": "function"
    },
    {
      "inputs": [
        {
          "internalType": "address",
          "name": "_new",
          "type": "address"
        }
      ],
      "name": "setInstructionsContractRef",
      "outputs": [],
      "stateMutability": "nonpayable",
      "type": "function"
    },
    {
      "inputs": [
        {
          "internalType": "address",
          "name": "_new",
          "type": "address"
        }
      ],
      "name": "setInstructionsProviderContractRef",
      "outputs": [],
      "stateMutability": "nonpayable",
      "type": "function"
    },
    {
      "inputs": [
        {
          "internalType": "address",
          "name": "_new",
          "type": "address"
        }
      ],
      "name": "setDealsContractRef",
      "outputs": [],
      "stateMutability": "nonpayable",
      "type": "function"
    },
    {
      "inputs": [
        {
          "internalType": "address",
          "name": "_new",
          "type": "address"
        }
      ],
      "name": "setInterpreterContractRef",
      "outputs": [],
      "stateMutability": "nonpayable",
      "type": "function"
    },
    {
      "inputs": [
        {
          "internalType": "uint256",
          "name": "_new",
          "type": "uint256"
        }
      ],
      "name": "setAccountCreationFees",
      "outputs": [],
      "stateMutability": "nonpayable",
      "type": "function"
    },
    {
      "inputs": [
        {
          "internalType": "uint256",
          "name": "_new",
          "type": "uint256"
        }
      ],
      "name": "setRuleCreationFees",
      "outputs": [],
      "stateMutability": "nonpayable",
      "type": "function"
    },
    {
      "inputs": [
        {
          "internalType": "uint256",
          "name": "_new",
          "type": "uint256"
        }
      ],
      "name": "setAllowAllAddressesFees",
      "outputs": [],
      "stateMutability": "nonpayable",
      "type": "function"
    },
    {
      "inputs": [
        {
          "internalType": "uint256",
          "name": "_new",
          "type": "uint256"
        }
      ],
      "name": "setTransactionMinimalValue",
      "outputs": [],
      "stateMutability": "nonpayable",
      "type": "function"
    },
    {
      "inputs": [
        {
          "internalType": "uint256",
          "name": "_new",
          "type": "uint256"
        }
      ],
      "name": "setTransactionFees",
      "outputs": [],
      "stateMutability": "nonpayable",
      "type": "function"
    },
    {
      "inputs": [
        {
          "internalType": "address[]",
          "name": "_accounts",
          "type": "address[]"
        },
        {
          "components": [
            {
              "internalType": "string",
              "name": "instructionName",
              "type": "string"
            },
            {
              "internalType": "string",
              "name": "paramStr",
              "type": "string"
            },
            {
              "internalType": "uint256",
              "name": "paramUInt",
              "type": "uint256"
            },
            {
              "internalType": "address",
              "name": "paramAddress",
              "type": "address"
            }
          ],
          "internalType": "struct CommonStructs.Article[][]",
          "name": "_rulesList",
          "type": "tuple[][]"
        }
      ],
      "name": "createDeal",
      "outputs": [
        {
          "internalType": "uint256",
          "name": "",
          "type": "uint256"
        }
      ],
      "stateMutability": "payable",
      "type": "function",
      "payable": true
    },
    {
      "inputs": [
        {
          "internalType": "uint256",
          "name": "_dealId",
          "type": "uint256"
        },
        {
          "internalType": "uint256",
          "name": "_ruleId",
          "type": "uint256"
        }
      ],
      "name": "executeRule",
      "outputs": [],
      "stateMutability": "payable",
      "type": "function",
      "payable": true
    },
    {
      "inputs": [],
      "name": "depositsOf",
      "outputs": [
        {
          "internalType": "uint256",
          "name": "",
          "type": "uint256"
        }
      ],
      "stateMutability": "nonpayable",
      "type": "function"
    },
    {
      "inputs": [],
      "name": "withdraw",
      "outputs": [
        {
          "internalType": "bool",
          "name": "",
          "type": "bool"
        }
      ],
      "stateMutability": "nonpayable",
      "type": "function"
    },
    {
      "inputs": [],
      "name": "getBalance",
      "outputs": [
        {
          "internalType": "uint256",
          "name": "",
          "type": "uint256"
        }
      ],
      "stateMutability": "view",
      "type": "function",
      "constant": true
    },
    {
      "inputs": [],
      "name": "saveLatestQuotation",
      "outputs": [],
      "stateMutability": "nonpayable",
      "type": "function"
    },
    {
      "inputs": [],
      "name": "getLatestQuotation",
      "outputs": [
        {
          "internalType": "uint256",
          "name": "",
          "type": "uint256"
        },
        {
          "internalType": "uint256",
          "name": "",
          "type": "uint256"
        }
      ],
      "stateMutability": "view",
      "type": "function",
      "constant": true
    },
    {
      "inputs": [
        {
          "internalType": "uint256",
          "name": "_accountsCount",
          "type": "uint256"
        },
        {
          "internalType": "uint256",
          "name": "_rulesCount",
          "type": "uint256"
        }
      ],
      "name": "computeDealCreationFeesInWEI",
      "outputs": [
        {
          "internalType": "uint256",
          "name": "",
          "type": "uint256"
        }
      ],
      "stateMutability": "view",
      "type": "function",
      "constant": true
    },
    {
      "inputs": [
        {
          "internalType": "uint256",
          "name": "_amountInWEI",
          "type": "uint256"
        }
      ],
      "name": "convertWEI2USD",
      "outputs": [
        {
          "internalType": "uint256",
          "name": "",
          "type": "uint256"
        }
      ],
      "stateMutability": "view",
      "type": "function",
      "constant": true
    },
    {
      "inputs": [
        {
          "internalType": "uint256",
          "name": "_amountInUSD",
          "type": "uint256"
        }
      ],
      "name": "convertUSD2WEI",
      "outputs": [
        {
          "internalType": "uint256",
          "name": "",
          "type": "uint256"
        }
      ],
      "stateMutability": "view",
      "type": "function",
      "constant": true
    },
    {
      "inputs": [
        {
          "internalType": "string",
          "name": "_s1",
          "type": "string"
        },
        {
          "internalType": "string",
          "name": "_s2",
          "type": "string"
        }
      ],
      "name": "stringsEqual",
      "outputs": [
        {
          "internalType": "bool",
          "name": "",
          "type": "bool"
        }
      ],
      "stateMutability": "pure",
      "type": "function",
      "constant": true
    },
    {
      "inputs": [],
      "name": "pause",
      "outputs": [],
      "stateMutability": "nonpayable",
      "type": "function"
    },
    {
      "inputs": [],
      "name": "unpause",
      "outputs": [],
      "stateMutability": "nonpayable",
      "type": "function"
    },
    {
      "inputs": [],
      "name": "renounceOwnership",
      "outputs": [],
      "stateMutability": "pure",
      "type": "function",
      "constant": true
    }
  ],
  "bytecode": "0x60806040523480156200001157600080fd5b50604051620040b2380380620040b28339818101604052810190620000379190620001b3565b620000576200004b620000a760201b60201c565b620000af60201b60201c565b60008060146101000a81548160ff021916908315150217905550856008819055508460098190555083600a8190555082600b8190555081600c81905550806002819055505050505050506200024f565b600033905090565b60008060009054906101000a900473ffffffffffffffffffffffffffffffffffffffff169050816000806101000a81548173ffffffffffffffffffffffffffffffffffffffff021916908373ffffffffffffffffffffffffffffffffffffffff1602179055508173ffffffffffffffffffffffffffffffffffffffff168173ffffffffffffffffffffffffffffffffffffffff167f8be0079c531659141344cd1fd0a4f28419497f9722a3daafe3b4186f6b6457e060405160405180910390a35050565b600080fd5b6000819050919050565b6200018d8162000178565b81146200019957600080fd5b50565b600081519050620001ad8162000182565b92915050565b60008060008060008060c08789031215620001d357620001d262000173565b5b6000620001e389828a016200019c565b9650506020620001f689828a016200019c565b95505060406200020989828a016200019c565b94505060606200021c89828a016200019c565b93505060806200022f89828a016200019c565b92505060a06200024289828a016200019c565b9150509295509295509295565b613e53806200025f6000396000f3fe6080604052600436106102305760003560e01c80636b18c1ca1161012e578063b50f34da116100ab578063f2fde38b1161006f578063f2fde38b146107af578063f42a4f79146107d8578063f7f9e1e814610815578063f8210b3a14610840578063fc51821c1461086b57610230565b8063b50f34da146106ca578063d33d6d6a146106f3578063d74b47ef1461071e578063e65fcc7314610747578063ec2035c31461077257610230565b80638da5cb5b116100f25780638da5cb5b1461060457806396b6dc7d1461062f5780639efe46bc1461064b578063a2ae0cd214610676578063b37be8e41461069f57610230565b80636b18c1ca146105575780636c79eafc14610580578063715018a6146105ab5780638456cb59146105c25780638d249545146105d957610230565b80633ccfd60b116101bc5780634e02b0b3116101805780634e02b0b31461049657806351bcde62146104bf578063562b7d94146104d65780635c975abb14610501578063652522f51461052c57610230565b80633ccfd60b146103d75780633f4ba83a146104025780634368080b1461041957806343d16ecd14610442578063446f772f1461046d57610230565b80632131d8c3116102035780632131d8c31461030557806326698e751461032e5780632a16348c146103575780633987c9b21461038057806339a6dcc3146103ac57610230565b8063028a84be14610235578063042c27ea1461026057806312065fe01461029d57806313d19950146102c8575b600080fd5b34801561024157600080fd5b5061024a61089b565b604051610257919061270a565b60405180910390f35b34801561026c57600080fd5b5061028760048036038101906102829190612765565b6108a1565b604051610294919061270a565b60405180910390f35b3480156102a957600080fd5b506102b26108b8565b6040516102bf919061270a565b60405180910390f35b3480156102d457600080fd5b506102ef60048036038101906102ea91906128d8565b61093c565b6040516102fc919061296b565b60405180910390f35b34801561031157600080fd5b5061032c600480360381019061032791906129e4565b610957565b005b34801561033a57600080fd5b5061035560048036038101906103509190612765565b610ac1565b005b34801561036357600080fd5b5061037e60048036038101906103799190612765565b610bd1565b005b34801561038c57600080fd5b50610395610ce1565b6040516103a3929190612a11565b60405180910390f35b3480156103b857600080fd5b506103c1610cf2565b6040516103ce919061270a565b60405180910390f35b3480156103e357600080fd5b506103ec610cf8565b6040516103f9919061296b565b60405180910390f35b34801561040e57600080fd5b50610417610e65565b005b34801561042557600080fd5b50610440600480360381019061043b91906129e4565b610f32565b005b34801561044e57600080fd5b5061045761109c565b604051610464919061270a565b60405180910390f35b34801561047957600080fd5b50610494600480360381019061048f91906129e4565b6110a2565b005b3480156104a257600080fd5b506104bd60048036038101906104b891906129e4565b61120c565b005b3480156104cb57600080fd5b506104d4611376565b005b3480156104e257600080fd5b506104eb611501565b6040516104f89190612a99565b60405180910390f35b34801561050d57600080fd5b50610516611527565b604051610523919061296b565b60405180910390f35b34801561053857600080fd5b5061054161153d565b60405161054e919061270a565b60405180910390f35b34801561056357600080fd5b5061057e60048036038101906105799190612765565b611543565b005b34801561058c57600080fd5b50610595611653565b6040516105a29190612ac3565b60405180910390f35b3480156105b757600080fd5b506105c0611679565b005b3480156105ce57600080fd5b506105d76116b4565b005b3480156105e557600080fd5b506105ee611782565b6040516105fb919061270a565b60405180910390f35b34801561061057600080fd5b50610619611788565b6040516106269190612ac3565b60405180910390f35b61064960048036038101906106449190612ade565b6117b1565b005b34801561065757600080fd5b50610660611a19565b60405161066d919061270a565b60405180910390f35b34801561068257600080fd5b5061069d60048036038101906106989190612765565b611a1f565b005b3480156106ab57600080fd5b506106b4611b2f565b6040516106c1919061270a565b60405180910390f35b3480156106d657600080fd5b506106f160048036038101906106ec9190612765565b611b35565b005b3480156106ff57600080fd5b50610708611c45565b604051610715919061270a565b60405180910390f35b34801561072a57600080fd5b50610745600480360381019061074091906129e4565b611dc6565b005b34801561075357600080fd5b5061075c611ee9565b6040516107699190612ac3565b60405180910390f35b34801561077e57600080fd5b5061079960048036038101906107949190612ade565b611f0f565b6040516107a6919061270a565b60405180910390f35b3480156107bb57600080fd5b506107d660048036038101906107d191906129e4565b611f4c565b005b3480156107e457600080fd5b506107ff60048036038101906107fa9190612765565b612044565b60405161080c919061270a565b60405180910390f35b34801561082157600080fd5b5061082a61205b565b6040516108379190612b3f565b60405180910390f35b34801561084c57600080fd5b50610855612081565b6040516108629190612b7b565b60405180910390f35b61088560048036038101906108809190612eda565b6120a7565b604051610892919061270a565b60405180910390f35b60085481565b6000600254826108b19190612f81565b9050919050565b60006108c26124e1565b73ffffffffffffffffffffffffffffffffffffffff166108e0611788565b73ffffffffffffffffffffffffffffffffffffffff1614610936576040517f08c379a000000000000000000000000000000000000000000000000000000000815260040161092d90613038565b60405180910390fd5b47905090565b60008180519060200120838051906020012014905092915050565b61095f6124e1565b73ffffffffffffffffffffffffffffffffffffffff1661097d611788565b73ffffffffffffffffffffffffffffffffffffffff16146109d3576040517f08c379a00000000000000000000000000000000000000000000000000000000081526004016109ca90613038565b60405180910390fd5b6109db611527565b610a1a576040517f08c379a0000000000000000000000000000000000000000000000000000000008152600401610a11906130a4565b60405180910390fd5b6000600760009054906101000a900473ffffffffffffffffffffffffffffffffffffffff16905081600760006101000a81548173ffffffffffffffffffffffffffffffffffffffff021916908373ffffffffffffffffffffffffffffffffffffffff1602179055507f81ed796ae91ccecf245e3cb1b6149b3491e1f0989e603b5d1b388bd68f06b52b338284604051610ab5939291906130c4565b60405180910390a15050565b610ac96124e1565b73ffffffffffffffffffffffffffffffffffffffff16610ae7611788565b73ffffffffffffffffffffffffffffffffffffffff1614610b3d576040517f08c379a0000000000000000000000000000000000000000000000000000000008152600401610b3490613038565b60405180910390fd5b610b45611527565b610b84576040517f08c379a0000000000000000000000000000000000000000000000000000000008152600401610b7b906130a4565b60405180910390fd5b60006009549050816009819055507f95204251d165fe2245c1dceb4c89885d7b8cfdb88aa079c9428ef4e12df3b0ac338284604051610bc5939291906130fb565b60405180910390a15050565b610bd96124e1565b73ffffffffffffffffffffffffffffffffffffffff16610bf7611788565b73ffffffffffffffffffffffffffffffffffffffff1614610c4d576040517f08c379a0000000000000000000000000000000000000000000000000000000008152600401610c4490613038565b60405180910390fd5b610c55611527565b610c94576040517f08c379a0000000000000000000000000000000000000000000000000000000008152600401610c8b906130a4565b60405180910390fd5b6000600b54905081600b819055507f9fd5b1fe2d0c3437bd798e95b2f63bd4a3b08887c95a04d22832ccb4aae9fda4338284604051610cd5939291906130fb565b60405180910390a15050565b600080600254600354915091509091565b60025481565b6000610d02611527565b15610d42576040517f08c379a0000000000000000000000000000000000000000000000000000000008152600401610d399061317e565b60405180910390fd5b6000600560009054906101000a900473ffffffffffffffffffffffffffffffffffffffff1673ffffffffffffffffffffffffffffffffffffffff1633604051602401610d8e9190612ac3565b6040516020818303038152906040527f51cff8d9000000000000000000000000000000000000000000000000000000007bffffffffffffffffffffffffffffffffffffffffffffffffffffffff19166020820180517bffffffffffffffffffffffffffffffffffffffffffffffffffffffff8381831617835250505050604051610e189190613218565b6000604051808303816000865af19150503d8060008114610e55576040519150601f19603f3d011682016040523d82523d6000602084013e610e5a565b606091505b505090508091505090565b610e6d6124e1565b73ffffffffffffffffffffffffffffffffffffffff16610e8b611788565b73ffffffffffffffffffffffffffffffffffffffff1614610ee1576040517f08c379a0000000000000000000000000000000000000000000000000000000008152600401610ed890613038565b60405180910390fd5b610ee9611527565b610f28576040517f08c379a0000000000000000000000000000000000000000000000000000000008152600401610f1f906130a4565b60405180910390fd5b610f306124e9565b565b610f3a6124e1565b73ffffffffffffffffffffffffffffffffffffffff16610f58611788565b73ffffffffffffffffffffffffffffffffffffffff1614610fae576040517f08c379a0000000000000000000000000000000000000000000000000000000008152600401610fa590613038565b60405180910390fd5b610fb6611527565b610ff5576040517f08c379a0000000000000000000000000000000000000000000000000000000008152600401610fec906130a4565b60405180910390fd5b6000600460009054906101000a900473ffffffffffffffffffffffffffffffffffffffff16905081600460006101000a81548173ffffffffffffffffffffffffffffffffffffffff021916908373ffffffffffffffffffffffffffffffffffffffff1602179055507f7a98528f6374afdc782de68dfe485f60c47c83eb22d862896ee7c59a13c6d899338284604051611090939291906130c4565b60405180910390a15050565b60035481565b6110aa6124e1565b73ffffffffffffffffffffffffffffffffffffffff166110c8611788565b73ffffffffffffffffffffffffffffffffffffffff161461111e576040517f08c379a000000000000000000000000000000000000000000000000000000000815260040161111590613038565b60405180910390fd5b611126611527565b611165576040517f08c379a000000000000000000000000000000000000000000000000000000000815260040161115c906130a4565b60405180910390fd5b6000600560009054906101000a900473ffffffffffffffffffffffffffffffffffffffff16905081600560006101000a81548173ffffffffffffffffffffffffffffffffffffffff021916908373ffffffffffffffffffffffffffffffffffffffff1602179055507fdb667aada5a9918e51ab4a84bdf8d3e2f29386d98b52ae66cb26eaa442bbf968338284604051611200939291906130c4565b60405180910390a15050565b6112146124e1565b73ffffffffffffffffffffffffffffffffffffffff16611232611788565b73ffffffffffffffffffffffffffffffffffffffff1614611288576040517f08c379a000000000000000000000000000000000000000000000000000000000815260040161127f90613038565b60405180910390fd5b611290611527565b6112cf576040517f08c379a00000000000000000000000000000000000000000000000000000000081526004016112c6906130a4565b60405180910390fd5b6000600660009054906101000a900473ffffffffffffffffffffffffffffffffffffffff16905081600660006101000a81548173ffffffffffffffffffffffffffffffffffffffff021916908373ffffffffffffffffffffffffffffffffffffffff1602179055507fef88ef88851c867cbde2a8d8f43f01b9b75342fb93a2a7034ea0d656dbe1378233828460405161136a939291906130c4565b60405180910390a15050565b61137e6124e1565b73ffffffffffffffffffffffffffffffffffffffff1661139c611788565b73ffffffffffffffffffffffffffffffffffffffff16146113f2576040517f08c379a00000000000000000000000000000000000000000000000000000000081526004016113e990613038565b60405180910390fd5b600080600160009054906101000a900473ffffffffffffffffffffffffffffffffffffffff1673ffffffffffffffffffffffffffffffffffffffff1663feaf968c6040518163ffffffff1660e01b815260040160a06040518083038186803b15801561145d57600080fd5b505afa158015611471573d6000803e3d6000fd5b505050506040513d601f19601f8201168201806040525081019061149591906132bc565b50935050925050816a52b7d2dcc80cd2e40000006114b39190613366565b600281905550806003819055507f5b351a1cfe437f1ffd3264dd6e306788df85c7a71e50aa62b1b0a42fae257abd33600254836040516114f5939291906130fb565b60405180910390a15050565b600460009054906101000a900473ffffffffffffffffffffffffffffffffffffffff1681565b60008060149054906101000a900460ff16905090565b60095481565b61154b6124e1565b73ffffffffffffffffffffffffffffffffffffffff16611569611788565b73ffffffffffffffffffffffffffffffffffffffff16146115bf576040517f08c379a00000000000000000000000000000000000000000000000000000000081526004016115b690613038565b60405180910390fd5b6115c7611527565b611606576040517f08c379a00000000000000000000000000000000000000000000000000000000081526004016115fd906130a4565b60405180910390fd5b60006008549050816008819055507f20cb277045b07975ddd69579bb7c5703b15359a94bc8b635d4a17c243c8a65ac338284604051611647939291906130fb565b60405180910390a15050565b600760009054906101000a900473ffffffffffffffffffffffffffffffffffffffff1681565b6040517f08c379a00000000000000000000000000000000000000000000000000000000081526004016116ab906133e3565b60405180910390fd5b6116bc6124e1565b73ffffffffffffffffffffffffffffffffffffffff166116da611788565b73ffffffffffffffffffffffffffffffffffffffff1614611730576040517f08c379a000000000000000000000000000000000000000000000000000000000815260040161172790613038565b60405180910390fd5b611738611527565b15611778576040517f08c379a000000000000000000000000000000000000000000000000000000000815260040161176f9061317e565b60405180910390fd5b61178061258a565b565b600a5481565b60008060009054906101000a900473ffffffffffffffffffffffffffffffffffffffff16905090565b6117b9611527565b156117f9576040517f08c379a00000000000000000000000000000000000000000000000000000000081526004016117f09061317e565b60405180910390fd5b600061180434612044565b9050600b5481101561184b576040517f08c379a000000000000000000000000000000000000000000000000000000000815260040161184290613475565b60405180910390fd5b6000600c5460643461185d9190613366565b6118679190612f81565b90506000600760009054906101000a900473ffffffffffffffffffffffffffffffffffffffff1673ffffffffffffffffffffffffffffffffffffffff1682346118b09190613495565b3387876040516024016118c5939291906130fb565b6040516020818303038152906040527f889f7d85000000000000000000000000000000000000000000000000000000007bffffffffffffffffffffffffffffffffffffffffffffffffffffffff19166020820180517bffffffffffffffffffffffffffffffffffffffffffffffffffffffff838183161783525050505060405161194f9190613218565b60006040518083038185875af1925050503d806000811461198c576040519150601f19603f3d011682016040523d82523d6000602084013e611991565b606091505b50509050806119d5576040517f08c379a00000000000000000000000000000000000000000000000000000000081526004016119cc90613515565b60405180910390fd5b7ffa46e5ec587216687a4a33c4e605f1483f16833be6465e442d80d7bcbaec2eaf33868685604051611a0a9493929190613535565b60405180910390a15050505050565b600b5481565b611a276124e1565b73ffffffffffffffffffffffffffffffffffffffff16611a45611788565b73ffffffffffffffffffffffffffffffffffffffff1614611a9b576040517f08c379a0000000000000000000000000000000000000000000000000000000008152600401611a9290613038565b60405180910390fd5b611aa3611527565b611ae2576040517f08c379a0000000000000000000000000000000000000000000000000000000008152600401611ad9906130a4565b60405180910390fd5b6000600c54905081600c819055507f93dcb4d14ff2c7a93d0076d4d9fbf19c189f2de91a9ba7d79bb80115fe7a852d338284604051611b23939291906130fb565b60405180910390a15050565b600c5481565b611b3d6124e1565b73ffffffffffffffffffffffffffffffffffffffff16611b5b611788565b73ffffffffffffffffffffffffffffffffffffffff1614611bb1576040517f08c379a0000000000000000000000000000000000000000000000000000000008152600401611ba890613038565b60405180910390fd5b611bb9611527565b611bf8576040517f08c379a0000000000000000000000000000000000000000000000000000000008152600401611bef906130a4565b60405180910390fd5b6000600a54905081600a819055507fd1a0f1c3e15bbeb47f950c6fd7572c460678919e9d839966bf073b487365e4bb338284604051611c39939291906130fb565b60405180910390a15050565b6000806000600560009054906101000a900473ffffffffffffffffffffffffffffffffffffffff1673ffffffffffffffffffffffffffffffffffffffff1633604051602401611c949190612ac3565b6040516020818303038152906040527fe3a9db1a000000000000000000000000000000000000000000000000000000007bffffffffffffffffffffffffffffffffffffffffffffffffffffffff19166020820180517bffffffffffffffffffffffffffffffffffffffffffffffffffffffff8381831617835250505050604051611d1e9190613218565b6000604051808303816000865af19150503d8060008114611d5b576040519150601f19603f3d011682016040523d82523d6000602084013e611d60565b606091505b509150915081611da5576040517f08c379a0000000000000000000000000000000000000000000000000000000008152600401611d9c906135ec565b60405180910390fd5b600081806020019051810190611dbb919061360c565b905080935050505090565b611dce6124e1565b73ffffffffffffffffffffffffffffffffffffffff16611dec611788565b73ffffffffffffffffffffffffffffffffffffffff1614611e42576040517f08c379a0000000000000000000000000000000000000000000000000000000008152600401611e3990613038565b60405180910390fd5b6000600160009054906101000a900473ffffffffffffffffffffffffffffffffffffffff16905081600160006101000a81548173ffffffffffffffffffffffffffffffffffffffff021916908373ffffffffffffffffffffffffffffffffffffffff1602179055507fb9515b0e9bbaa4038b7497d737691b38d19b454e0bcdc0ecc69472117684e192338284604051611edd939291906130c4565b60405180910390a15050565b600560009054906101000a900473ffffffffffffffffffffffffffffffffffffffff1681565b600060025460095483611f229190612f81565b60085485611f309190612f81565b611f3a9190613639565b611f449190612f81565b905092915050565b611f546124e1565b73ffffffffffffffffffffffffffffffffffffffff16611f72611788565b73ffffffffffffffffffffffffffffffffffffffff1614611fc8576040517f08c379a0000000000000000000000000000000000000000000000000000000008152600401611fbf90613038565b60405180910390fd5b600073ffffffffffffffffffffffffffffffffffffffff168173ffffffffffffffffffffffffffffffffffffffff161415612038576040517f08c379a000000000000000000000000000000000000000000000000000000000815260040161202f90613701565b60405180910390fd5b6120418161262d565b50565b6000600254826120549190613366565b9050919050565b600160009054906101000a900473ffffffffffffffffffffffffffffffffffffffff1681565b600660009054906101000a900473ffffffffffffffffffffffffffffffffffffffff1681565b60006120b1611527565b156120f1576040517f08c379a00000000000000000000000000000000000000000000000000000000081526004016120e89061317e565b60405180910390fd5b60006120ff84518451611f0f565b905080341015612144576040517f08c379a000000000000000000000000000000000000000000000000000000000815260040161213b90613793565b60405180910390fd5b60005b83518110156122e45760005b848281518110612166576121656137b3565b5b6020026020010151518110156122d0576000600460009054906101000a900473ffffffffffffffffffffffffffffffffffffffff1673ffffffffffffffffffffffffffffffffffffffff166399b87f6c8785815181106121c9576121c86137b3565b5b602002602001015184815181106121e3576121e26137b3565b5b6020026020010151600001516040518263ffffffff1660e01b815260040161220b9190613826565b60006040518083038186803b15801561222357600080fd5b505afa158015612237573d6000803e3d6000fd5b505050506040513d6000823e3d601f19601f8201168201806040525081019061226091906138dd565b91505061227c816040518060200160405280600081525061093c565b156122bc576040517f08c379a00000000000000000000000000000000000000000000000000000000081526004016122b3906139ab565b60405180910390fd5b5080806122c8906139cb565b915050612153565b5080806122dc906139cb565b915050612147565b506000600660009054906101000a900473ffffffffffffffffffffffffffffffffffffffff1673ffffffffffffffffffffffffffffffffffffffff1663fc51821c86866040518363ffffffff1660e01b8152600401612344929190613d19565b602060405180830381600087803b15801561235e57600080fd5b505af1158015612372573d6000803e3d6000fd5b505050506040513d601f19601f82011682018060405250810190612396919061360c565b9050600082346123a69190613495565b9050600081111561249a5760003373ffffffffffffffffffffffffffffffffffffffff16826040516123d790613d76565b60006040518083038185875af1925050503d8060008114612414576040519150601f19603f3d011682016040523d82523d6000602084013e612419565b606091505b505090508061245d576040517f08c379a000000000000000000000000000000000000000000000000000000000815260040161245490613dfd565b60405180910390fd5b7f06a8acc0e592ef9d5924c211904629acef99f7d13d3c585219454c7fe93cd4ef338484604051612490939291906130fb565b60405180910390a1505b7f1e34314d10c294e150d9078dc4808fbc4e77807ab189f2556837ace7999588903383856040516124cd939291906130fb565b60405180910390a181935050505092915050565b600033905090565b6124f1611527565b612530576040517f08c379a0000000000000000000000000000000000000000000000000000000008152600401612527906130a4565b60405180910390fd5b60008060146101000a81548160ff0219169083151502179055507f5db9ee0a495bf2e6ff9c91a7834c1ba4fdd244a5e8aa4e537bd38aeae4b073aa6125736124e1565b6040516125809190612ac3565b60405180910390a1565b612592611527565b156125d2576040517f08c379a00000000000000000000000000000000000000000000000000000000081526004016125c99061317e565b60405180910390fd5b6001600060146101000a81548160ff0219169083151502179055507f62e78cea01bee320cd4e420270b5ea74000d11b0c9f74754ebdbfc544b05a2586126166124e1565b6040516126239190612ac3565b60405180910390a1565b60008060009054906101000a900473ffffffffffffffffffffffffffffffffffffffff169050816000806101000a81548173ffffffffffffffffffffffffffffffffffffffff021916908373ffffffffffffffffffffffffffffffffffffffff1602179055508173ffffffffffffffffffffffffffffffffffffffff168173ffffffffffffffffffffffffffffffffffffffff167f8be0079c531659141344cd1fd0a4f28419497f9722a3daafe3b4186f6b6457e060405160405180910390a35050565b6000819050919050565b612704816126f1565b82525050565b600060208201905061271f60008301846126fb565b92915050565b6000604051905090565b600080fd5b600080fd5b612742816126f1565b811461274d57600080fd5b50565b60008135905061275f81612739565b92915050565b60006020828403121561277b5761277a61272f565b5b600061278984828501612750565b91505092915050565b600080fd5b600080fd5b6000601f19601f8301169050919050565b7f4e487b7100000000000000000000000000000000000000000000000000000000600052604160045260246000fd5b6127e58261279c565b810181811067ffffffffffffffff82111715612804576128036127ad565b5b80604052505050565b6000612817612725565b905061282382826127dc565b919050565b600067ffffffffffffffff821115612843576128426127ad565b5b61284c8261279c565b9050602081019050919050565b82818337600083830152505050565b600061287b61287684612828565b61280d565b90508281526020810184848401111561289757612896612797565b5b6128a2848285612859565b509392505050565b600082601f8301126128bf576128be612792565b5b81356128cf848260208601612868565b91505092915050565b600080604083850312156128ef576128ee61272f565b5b600083013567ffffffffffffffff81111561290d5761290c612734565b5b612919858286016128aa565b925050602083013567ffffffffffffffff81111561293a57612939612734565b5b612946858286016128aa565b9150509250929050565b60008115159050919050565b61296581612950565b82525050565b6000602082019050612980600083018461295c565b92915050565b600073ffffffffffffffffffffffffffffffffffffffff82169050919050565b60006129b182612986565b9050919050565b6129c1816129a6565b81146129cc57600080fd5b50565b6000813590506129de816129b8565b92915050565b6000602082840312156129fa576129f961272f565b5b6000612a08848285016129cf565b91505092915050565b6000604082019050612a2660008301856126fb565b612a3360208301846126fb565b9392505050565b6000819050919050565b6000612a5f612a5a612a5584612986565b612a3a565b612986565b9050919050565b6000612a7182612a44565b9050919050565b6000612a8382612a66565b9050919050565b612a9381612a78565b82525050565b6000602082019050612aae6000830184612a8a565b92915050565b612abd816129a6565b82525050565b6000602082019050612ad86000830184612ab4565b92915050565b60008060408385031215612af557612af461272f565b5b6000612b0385828601612750565b9250506020612b1485828601612750565b9150509250929050565b6000612b2982612a66565b9050919050565b612b3981612b1e565b82525050565b6000602082019050612b546000830184612b30565b92915050565b6000612b6582612a66565b9050919050565b612b7581612b5a565b82525050565b6000602082019050612b906000830184612b6c565b92915050565b600067ffffffffffffffff821115612bb157612bb06127ad565b5b602082029050602081019050919050565b600080fd5b6000612bda612bd584612b96565b61280d565b90508083825260208201905060208402830185811115612bfd57612bfc612bc2565b5b835b81811015612c265780612c1288826129cf565b845260208401935050602081019050612bff565b5050509392505050565b600082601f830112612c4557612c44612792565b5b8135612c55848260208601612bc7565b91505092915050565b600067ffffffffffffffff821115612c7957612c786127ad565b5b602082029050602081019050919050565b600067ffffffffffffffff821115612ca557612ca46127ad565b5b602082029050602081019050919050565b600080fd5b600080fd5b600060808284031215612cd657612cd5612cb6565b5b612ce0608061280d565b9050600082013567ffffffffffffffff811115612d0057612cff612cbb565b5b612d0c848285016128aa565b600083015250602082013567ffffffffffffffff811115612d3057612d2f612cbb565b5b612d3c848285016128aa565b6020830152506040612d5084828501612750565b6040830152506060612d64848285016129cf565b60608301525092915050565b6000612d83612d7e84612c8a565b61280d565b90508083825260208201905060208402830185811115612da657612da5612bc2565b5b835b81811015612ded57803567ffffffffffffffff811115612dcb57612dca612792565b5b808601612dd88982612cc0565b85526020850194505050602081019050612da8565b5050509392505050565b600082601f830112612e0c57612e0b612792565b5b8135612e1c848260208601612d70565b91505092915050565b6000612e38612e3384612c5e565b61280d565b90508083825260208201905060208402830185811115612e5b57612e5a612bc2565b5b835b81811015612ea257803567ffffffffffffffff811115612e8057612e7f612792565b5b808601612e8d8982612df7565b85526020850194505050602081019050612e5d565b5050509392505050565b600082601f830112612ec157612ec0612792565b5b8135612ed1848260208601612e25565b91505092915050565b60008060408385031215612ef157612ef061272f565b5b600083013567ffffffffffffffff811115612f0f57612f0e612734565b5b612f1b85828601612c30565b925050602083013567ffffffffffffffff811115612f3c57612f3b612734565b5b612f4885828601612eac565b9150509250929050565b7f4e487b7100000000000000000000000000000000000000000000000000000000600052601160045260246000fd5b6000612f8c826126f1565b9150612f97836126f1565b9250817fffffffffffffffffffffffffffffffffffffffffffffffffffffffffffffffff0483118215151615612fd057612fcf612f52565b5b828202905092915050565b600082825260208201905092915050565b7f4f776e61626c653a2063616c6c6572206973206e6f7420746865206f776e6572600082015250565b6000613022602083612fdb565b915061302d82612fec565b602082019050919050565b6000602082019050818103600083015261305181613015565b9050919050565b7f5061757361626c653a206e6f7420706175736564000000000000000000000000600082015250565b600061308e601483612fdb565b915061309982613058565b602082019050919050565b600060208201905081810360008301526130bd81613081565b9050919050565b60006060820190506130d96000830186612ab4565b6130e66020830185612ab4565b6130f36040830184612ab4565b949350505050565b60006060820190506131106000830186612ab4565b61311d60208301856126fb565b61312a60408301846126fb565b949350505050565b7f5061757361626c653a2070617573656400000000000000000000000000000000600082015250565b6000613168601083612fdb565b915061317382613132565b602082019050919050565b600060208201905081810360008301526131978161315b565b9050919050565b600081519050919050565b600081905092915050565b60005b838110156131d25780820151818401526020810190506131b7565b838111156131e1576000848401525b50505050565b60006131f28261319e565b6131fc81856131a9565b935061320c8185602086016131b4565b80840191505092915050565b600061322482846131e7565b915081905092915050565b600069ffffffffffffffffffff82169050919050565b61324e8161322f565b811461325957600080fd5b50565b60008151905061326b81613245565b92915050565b6000819050919050565b61328481613271565b811461328f57600080fd5b50565b6000815190506132a18161327b565b92915050565b6000815190506132b681612739565b92915050565b600080600080600060a086880312156132d8576132d761272f565b5b60006132e68882890161325c565b95505060206132f788828901613292565b9450506040613308888289016132a7565b9350506060613319888289016132a7565b925050608061332a8882890161325c565b9150509295509295909350565b7f4e487b7100000000000000000000000000000000000000000000000000000000600052601260045260246000fd5b6000613371826126f1565b915061337c836126f1565b92508261338c5761338b613337565b5b828204905092915050565b7f436f6e74726163742063616e6e6f74206265207265766f6b6564000000000000600082015250565b60006133cd601a83612fdb565b91506133d882613397565b602082019050919050565b600060208201905081810360008301526133fc816133c0565b9050919050565b7f5472616e73616374696f6e206d696e696d616c2076616c7565206e6f7420726560008201527f6163686564000000000000000000000000000000000000000000000000000000602082015250565b600061345f602583612fdb565b915061346a82613403565b604082019050919050565b6000602082019050818103600083015261348e81613452565b9050919050565b60006134a0826126f1565b91506134ab836126f1565b9250828210156134be576134bd612f52565b5b828203905092915050565b7f50726f78793a20556e61626c6520746f20657865637574652072756c65000000600082015250565b60006134ff601d83612fdb565b915061350a826134c9565b602082019050919050565b6000602082019050818103600083015261352e816134f2565b9050919050565b600060808201905061354a6000830187612ab4565b61355760208301866126fb565b61356460408301856126fb565b61357160608301846126fb565b95945050505050565b7f50726f78793a20556e61626c6520746f2067657420746865206465706f73697460008201527f206f662063616c6c657221000000000000000000000000000000000000000000602082015250565b60006135d6602b83612fdb565b91506135e18261357a565b604082019050919050565b60006020820190508181036000830152613605816135c9565b9050919050565b6000602082840312156136225761362161272f565b5b6000613630848285016132a7565b91505092915050565b6000613644826126f1565b915061364f836126f1565b9250827fffffffffffffffffffffffffffffffffffffffffffffffffffffffffffffffff0382111561368457613683612f52565b5b828201905092915050565b7f4f776e61626c653a206e6577206f776e657220697320746865207a65726f206160008201527f6464726573730000000000000000000000000000000000000000000000000000602082015250565b60006136eb602683612fdb565b91506136f68261368f565b604082019050919050565b6000602082019050818103600083015261371a816136de565b9050919050565b7f496e73756666696369656e742076616c756520746f20636f766572207468652060008201527f6465616c206372656174696f6e20666565730000000000000000000000000000602082015250565b600061377d603283612fdb565b915061378882613721565b604082019050919050565b600060208201905081810360008301526137ac81613770565b9050919050565b7f4e487b7100000000000000000000000000000000000000000000000000000000600052603260045260246000fd5b600081519050919050565b60006137f8826137e2565b6138028185612fdb565b93506138128185602086016131b4565b61381b8161279c565b840191505092915050565b6000602082019050818103600083015261384081846137ed565b905092915050565b6003811061385557600080fd5b50565b60008151905061386781613848565b92915050565b600061388061387b84612828565b61280d565b90508281526020810184848401111561389c5761389b612797565b5b6138a78482856131b4565b509392505050565b600082601f8301126138c4576138c3612792565b5b81516138d484826020860161386d565b91505092915050565b600080604083850312156138f4576138f361272f565b5b600061390285828601613858565b925050602083015167ffffffffffffffff81111561392357613922612734565b5b61392f858286016138af565b9150509250929050565b7f50726f78792e4372656174654465616c3a20496e737472756374696f6e20697360008201527f206e6f7420737570706f72746564000000000000000000000000000000000000602082015250565b6000613995602e83612fdb565b91506139a082613939565b604082019050919050565b600060208201905081810360008301526139c481613988565b9050919050565b60006139d6826126f1565b91507fffffffffffffffffffffffffffffffffffffffffffffffffffffffffffffffff821415613a0957613a08612f52565b5b600182019050919050565b600081519050919050565b600082825260208201905092915050565b6000819050602082019050919050565b613a49816129a6565b82525050565b6000613a5b8383613a40565b60208301905092915050565b6000602082019050919050565b6000613a7f82613a14565b613a898185613a1f565b9350613a9483613a30565b8060005b83811015613ac5578151613aac8882613a4f565b9750613ab783613a67565b925050600181019050613a98565b5085935050505092915050565b600081519050919050565b600082825260208201905092915050565b6000819050602082019050919050565b600081519050919050565b600082825260208201905092915050565b6000819050602082019050919050565b600082825260208201905092915050565b6000613b46826137e2565b613b508185613b2a565b9350613b608185602086016131b4565b613b698161279c565b840191505092915050565b613b7d816126f1565b82525050565b60006080830160008301518482036000860152613ba08282613b3b565b91505060208301518482036020860152613bba8282613b3b565b9150506040830151613bcf6040860182613b74565b506060830151613be26060860182613a40565b508091505092915050565b6000613bf98383613b83565b905092915050565b6000602082019050919050565b6000613c1982613afe565b613c238185613b09565b935083602082028501613c3585613b1a565b8060005b85811015613c715784840389528151613c528582613bed565b9450613c5d83613c01565b925060208a01995050600181019050613c39565b50829750879550505050505092915050565b6000613c8f8383613c0e565b905092915050565b6000602082019050919050565b6000613caf82613ad2565b613cb98185613add565b935083602082028501613ccb85613aee565b8060005b85811015613d075784840389528151613ce88582613c83565b9450613cf383613c97565b925060208a01995050600181019050613ccf565b50829750879550505050505092915050565b60006040820190508181036000830152613d338185613a74565b90508181036020830152613d478184613ca4565b90509392505050565b50565b6000613d606000836131a9565b9150613d6b82613d50565b600082019050919050565b6000613d8182613d53565b9150819050919050565b7f50726f78792e6372656174654465616c3a204661696c656420746f207265696d60008201527f6275727365206578636573732045544800000000000000000000000000000000602082015250565b6000613de7603083612fdb565b9150613df282613d8b565b604082019050919050565b60006020820190508181036000830152613e1681613dda565b905091905056fea26469706673582212205a61931d8af83572b8dadec0eb465c220f7ac21dee81c1a0da9b06c0636463af64736f6c63430008090033",
  "immutableReferences": {},
  "source": "// SPDX-License-Identifier: GPL-3.0\npragma solidity 0.8.9;\n\n/* EXTERNAL DEPENDENCIES */\nimport \"@openzeppelin/contracts/access/Ownable.sol\";\nimport \"@openzeppelin/contracts/security/Pausable.sol\";\nimport \"@chainlink/contracts/src/v0.8/interfaces/AggregatorV3Interface.sol\";\n\n/* INTERNAL DEPENDENCIES */\nimport \"./CommonStructs.sol\";\nimport \"./Instructions.sol\";\nimport \"./Deals.sol\";\n\n// TODO: Ajouter un payable fallback a tous les contracts pour voir ce qu'on fait quand on reoit de l'argent par erreur\n//        ==> Hriter d'une classe qui redirige l'argent vers le proxy ou bien juste rembourser les sous\n\n// TODO: Check how to integrate the allowAllAccounts in the interpreter. Should I add it as a param in the deal?\n\n/// @title Proxy Contract\n/// @dev Main DApp entry point. Exposes the public interface and decouple the data and the logic\n/// @notice lets-make-a-deal.eth allows you to make an agreement between different parties and automatically route ETH to different addresses based on simple rules.\ncontract Proxy is Ownable, Pausable {\n    \n    /* STORAGE VARIABLES */\n\n    /// @dev Chainlink ETH/USD price feed aggregator link on Rinkeby\n    AggregatorV3Interface public priceFeedRef;\n\n    /// @dev Last quotation value in USD per ETH with 8 decimals precision fetched from Chainlink\n    uint public lastQuotationValue;\n\n    /// @dev Last quotation timestamp fetched from Chainlink\n    uint public lastQuotationTimestamp;\n\n    // References to external contracts\n\n    /// @dev Reference to the Instructions contract\n    Instructions public instructionsContractRef;\n\n    /// @dev Reference to the InstructionsProvider contract\n    address public instructionsProviderContractRef;\n\n    /// @dev Reference to the Deals instance\n    Deals public dealsContractRef;\n\n    /// @dev Reference to the Interpreter contract\n    address public interpreterContractRef;\n\n    // Contract fees\n\n    /// @dev Price per account added to the deal in USD\n    uint public accountCreationFees;\n    \n    /// @dev Price per rule added to the deal in USD\n    uint public ruleCreationFees;\n\n    /// @dev Price to allow incoming payments from all addresses others than internal/external accounts in USD\n    uint public allowAllAddressesFees;\n\n    /// @dev Minimal transaction value able to trigger an execution in USDimport \"@openzeppelin/contracts/security/Pausable.sol\";\n    uint public transactionMinimalValue;\n\n    /// @dev Transaction fees in % of the msg.value perceived on a deal execution in USD\n    uint public transactionFees;\n\n    /* MAPPINGS */\n    \n    /* MODIFIERS */\n\n    /* EVENTS */\n\n    // Modify Chainlink ETH/USD price feed aggregator address\n\n    /**\n    * @dev Event emitted when the Chainlink ETH/USD price feed aggregator address is changed\n    * @param _from Caller address\n    * @param _old Old address of the Chainlink ETH/USD price feed aggregator address\n    * @param _new New address of the Chainlink ETH/USD price feed aggregator address\n    */\n    event ModifyPriceFeedRefAggregatorAddress(address _from, address _old, address _new);\n    \n    // Modify contract references\n\n    /**\n    * @dev Event emitted when the Instructions contract reference is changed\n    * @param _from Caller address\n    * @param _old Old address of the Instructions contract\n    * @param _new New address of the Instructions contract\n    */\n    event ModifyInstructionsContractAddress(address _from, address _old, address _new);\n\n    /**\n    * @dev Event emitted when the InstructionsProvider contract reference is changed\n    * @param _from Caller address\n    * @param _old Old address of the InstructionsProvider contract\n    * @param _new New address of the InstructionsProvider contract\n    */\n    event ModifyInstructionsProviderContractAddress(address _from, address _old, address _new);\n\n    /**\n    * @dev Event emitted when the Deals contract reference is changed\n    * @param _from Caller address\n    * @param _old Old address of the Deals contract\n    * @param _new New address of the Deals contract\n    */\n    event ModifyDealsContractAddress(address _from, address _old, address _new);\n    \n    /**\n    * @dev Event emitted when the Interpreter contract reference is changed\n    * @param _from Caller address\n    * @param _old Old address of the Interpreter contract\n    * @param _new New address of the Interpreter contract\n    */\n    event ModifyInterpreterContractAddress(address _from, address _old, address _new);\n    \n    // Modify fees\n \n    /** \n    * @dev Event emitted when the account creation fees is changed\n    * @param _from : msg.sender\n    * @param _old : old account creation fees in USD\n    * @param _new : new account creation fees in USD\n    */\n    event ModifyAccountCreationFees(address _from, uint _old, uint _new);\n\n    /** \n    * @dev Event emitted when the rule creation fees is changed\n    * @param _from : msg.sender\n    * @param _old : old rule creation fees in USD\n    * @param _new : new rule creation fees in USD\n    */\n    event ModifyRuleCreationFees(address _from, uint _old, uint _new);\n\n    /** \n    * @dev Event emitted when the allow all accounts fees is changed\n    * @param _from : msg.sender\n    * @param _old : old allow all accounts fees in USD\n    * @param _new : new allow all accounts fees in USD\n    */\n    event ModifyAllowAllAccountsFees(address _from, uint _old, uint _new);\n\n    /** \n    * @dev Event emitted when the transaction minimal value is changed\n    * @param _from : msg.sender\n    * @param _old : old transaction minimal value in USD\n    * @param _new : new transaction minimal value in USD\n    */\n    event ModifyTransactionMinimalValue(address _from, uint _old, uint _new);\n\n    /** \n    * @dev Event emitted when the transaction fees are changed\n    * @param _from : msg.sender\n    * @param _old : old transaction fees value in % of msg.value\n    * @param _new : new transaction fees value in % of msg.value\n    */\n    event ModifyTransactionFees(address _from, uint _old, uint _new);\n    \n    /** \n    * @dev Event emitted when the WEI to USD conversion rate is updated from Chainlink\n    * @param _from : msg.sender\n    * @param _value : WEI/USD price at the time the Chainlink Oracle was called\n    * @param _timestamp : timestamp at which the price was fetched from Chainlink\n    */\n    event QueryLastQuotationFromChainlink(address _from, uint _value, uint _timestamp);\n\n    /** \n    * @dev Event emitted when the deal creation fees are paid\n    * @param _from : msg.sender\n    * @param _dealId : Id of the created deal\n    * @param _fees : Fees paid by the user in ETH\n    */\n    event PayDealCreationFees(address _from, uint _dealId, uint _fees);\n\n    /** \n    * @dev Event emitted when the transaction fees are paid\n    * @param _from : msg.sender\n    * @param _dealId : Id of the executed deal \n    * @param _ruleId : Id of the executed rule\n    * @param _fees : Fees paid by the user in ETH\n    */\n    event PayTransactionFees(address _from, uint _dealId, uint _ruleId, uint _fees);\n\n    /** \n    * @dev Event emitted when an excess value is reimbursed to the user\n    * @param _to : address of the caller (msg.sender) where the excess value is reimbursed\n    * @param _dealId : Id of the created deal \n    * @param _amount : Amount reimbursed to the user in ETH\n    */\n    event ReimburseExcessValue(address _to, uint _dealId, uint _amount);\n    \n\n    /* CONSTRUCTOR */\n\n    /** \n    * @dev Constructor: Initialize storage variables\n    * @param _accountCreationFees Creation fees per account in Wei \n    * @param _ruleCreationFees Creation fees per rule in Wei \n    * @param _allowAllAddressesFees Creation fees to allow incoming payments from all addresses\n    * @param _transactionMinimalValue Minimal value to trigger a rule execution\n    * @param _transactionFees Transaction fees paid to execute a rule in % of msg.value (1=1%)\n    * @param _lastQuotationValue Wei per USD conversion rate\n    */\n    constructor (\n        uint _accountCreationFees, \n        uint _ruleCreationFees,\n        uint _allowAllAddressesFees,\n        uint _transactionMinimalValue,\n        uint _transactionFees,\n        uint _lastQuotationValue\n    ) {\n        accountCreationFees = _accountCreationFees;\n        ruleCreationFees = _ruleCreationFees;\n        allowAllAddressesFees = _allowAllAddressesFees;\n        transactionMinimalValue = _transactionMinimalValue;\n        transactionFees = _transactionFees;\n        lastQuotationValue = _lastQuotationValue;\n    }\n    \n    /* SEND & FALLBACK */\n    \n    // No payable send or fallback function includes so that the contract will return any ETH send with a call without call values\n    // https://docs.soliditylang.org/en/v0.8.9/contracts.html#receive-ether-function\n    \n    /* OWNER INTERFACE */\n\n    // Address to Chainlink ETH/USD price feed aggregator\n    \n    /**\n    * @dev Set the address to the Chainlink ETH/USD price feed aggregator\n    * @param _new New address to the Chainlink ETH/USD price feed aggregator\n    */\n    function setPriceFeedRefAggregatorAddress(address _new) public onlyOwner {\n        address old = address(priceFeedRef);\n        priceFeedRef = AggregatorV3Interface(_new);\n        emit ModifyPriceFeedRefAggregatorAddress(msg.sender, old, _new);\n    }\n\n    // References to external contracts\n    \n    /**\n    * @dev Sets the Instructions contract reference to a new value\n    * @param _new New address of the Instructions contract\n    */\n    function setInstructionsContractRef(address _new) public onlyOwner whenPaused {\n        address old = address(instructionsContractRef);\n        instructionsContractRef = Instructions(_new);\n        emit ModifyInstructionsContractAddress(msg.sender, old, _new);\n    }\n\n    /**\n    * @dev Sets the InstructionsProvider contract reference to a new value\n    * @param _new New address of the InstructionsProvider contract\n    */\n    function setInstructionsProviderContractRef(address _new) public onlyOwner whenPaused {\n        address old = instructionsProviderContractRef;\n        instructionsProviderContractRef = _new;\n        emit ModifyInstructionsProviderContractAddress(msg.sender, old, _new);\n    }\n\n    /**\n    * @dev Sets the Deals contract reference to a new value\n    * @param _new New address of the Deals contract\n    */\n    function setDealsContractRef(address _new) public onlyOwner whenPaused {\n        address old = address(dealsContractRef);\n        dealsContractRef = Deals(_new);\n        emit ModifyDealsContractAddress(msg.sender, old, _new);\n    }\n    \n    /**\n    * @dev Sets the Interpreter contract reference to a new value\n    * @param _new New address of the Interpreter contract\n    */\n    function setInterpreterContractRef(address _new) public onlyOwner whenPaused {\n        address old = interpreterContractRef;\n        interpreterContractRef = _new;\n        emit ModifyInterpreterContractAddress(msg.sender, old, _new);\n    }\n\n    // Contract fees\n\n    /**\n    * @dev Sets the account creation fees to a new value\n    * @param _new New value for the account creation fees in USD\n    */\n    function setAccountCreationFees(uint _new) public onlyOwner whenPaused {\n        uint old = accountCreationFees;\n        accountCreationFees = _new;\n        emit ModifyAccountCreationFees(msg.sender, old, _new);\n    }\n    \n    /**\n    * @dev Sets the rule creation fees to a new value\n    * @param _new New value for the rule creation fees in USD\n    */\n    function setRuleCreationFees(uint _new) public onlyOwner whenPaused {\n        uint old = ruleCreationFees;\n        ruleCreationFees = _new;\n        emit ModifyRuleCreationFees(msg.sender, old, _new);\n    }\n\n    /**\n    * @dev Sets the allow all addresses fees to a new value\n    * @param _new New value for the allow all addresses fees in USD\n    */\n    function setAllowAllAddressesFees(uint _new) public onlyOwner whenPaused {\n        uint old = allowAllAddressesFees;\n        allowAllAddressesFees = _new;\n        emit ModifyAllowAllAccountsFees(msg.sender, old, _new);\n    }\n\n    /**\n    * @dev Sets the transaction minimal value to a new value\n    * @param _new New value for the transaction minimal value in USD\n    */\n    function setTransactionMinimalValue(uint _new) public onlyOwner whenPaused {\n        uint old = transactionMinimalValue;\n        transactionMinimalValue = _new;\n        emit ModifyTransactionMinimalValue(msg.sender, old, _new);\n    }\n\n    /**\n    * @dev Sets the transaction fees to a new value\n    * @param _new New value for the transaction fees in USD\n    */\n    function setTransactionFees(uint _new) public onlyOwner whenPaused {\n        uint old = transactionFees;\n        transactionFees = _new;\n        emit ModifyTransactionFees(msg.sender, old, _new);\n    }\n\n    /* PUBLIC INTERFACE */\n\n    /**\n    * @dev Creates a deal and returns its id\n    * @param _accounts List of accounts addresses linked to the deal\n    * @param _rulesList List of the rules linked to the deal (rule = list of Articles)\n    * @return Id of the deal created\n    */\n    function createDeal\n    (\n        address[] memory _accounts, \n        CommonStructs.Article[][] memory _rulesList\n    ) \n    external \n    payable \n    whenNotPaused\n    returns (uint) {\n        // Compute creation fees in WEI\n        uint creationFeesInWEI = computeDealCreationFeesInWEI(_accounts.length, _rulesList.length);\n\n        // Check 1: Amount sent by the user should cover the deal creation fees\n        require(msg.value >= creationFeesInWEI, \"Insufficient value to cover the deal creation fees\");\n        \n        // Check 2: Make sure that the instructions are all supported\n        for (uint i=0;i<_rulesList.length;i++) {\n            for (uint j=0;j<_rulesList[i].length;j++) {\n                // Get the instruction type & signature\n                (, string memory instructionSignature) = instructionsContractRef.getInstruction(_rulesList[i][j].instructionName);\n                \n                // If the signature is empty, this means that the instruction is not present => revert\n                require(!stringsEqual(instructionSignature,''),\"Proxy.CreateDeal: Instruction is not supported\");\n            }\n        }\n\n        // Create the deal\n        uint dealId = dealsContractRef.createDeal(_accounts, _rulesList);\n        \n        // Reimburse excess value to the caller if necessary\n        uint excessValue = (msg.value - creationFeesInWEI);\n        if (excessValue > 0){\n            (bool sent, ) = msg.sender.call{value: excessValue } (\"\");\n            require(sent, \"Proxy.createDeal: Failed to reimburse excess ETH\");\n            emit ReimburseExcessValue(msg.sender, dealId, excessValue);\n        }\n\n        // Emit a PayDealCreationFees\n        emit PayDealCreationFees(msg.sender, dealId, creationFeesInWEI);\n\n        return dealId;\n    }\n\n    /**\n    * @dev Execute a deal's rule\n    * @param _dealId : Id of the deal to execute\n    * @param _ruleId : Id of the rule to execute\n    */\n    function executeRule(uint _dealId, uint _ruleId) external payable whenNotPaused {\n        // Amount sent by the user should be higher or equal to the minimal transaction value\n        uint msgValueInUSD = convertWEI2USD(msg.value);\n        require( msgValueInUSD >= transactionMinimalValue, \"Transaction minimal value not reached\");\n\n        // Upgrability: Low level call to InstructionsProvider\n        // Includes in the call (msg.value - execution fees)\n        uint executionFees = (msg.value / 100) * transactionFees;\n        (bool success, ) = interpreterContractRef.call{value: (msg.value - executionFees)}(\n            abi.encodeWithSignature(\n                \"interpretRule(address,uint256,uint256)\",\n                msg.sender,\n                _dealId, \n                _ruleId\n            )\n        );\n\n        // Did the low level call succeed?\n        require(success,\"Proxy: Unable to execute rule\");\n\n        // Emit a PayTransactionFees\n        emit PayTransactionFees(msg.sender, _dealId, _ruleId, executionFees);\n    }\n\n    /**\n    * @dev Retrieves caller escrow balance.\n    */\n    function depositsOf() public returns (uint) {\n\n        // Upgrability: Low level call to InstructionsProvider\n        (bool success, bytes memory _result) = instructionsProviderContractRef.call(\n            abi.encodeWithSignature(\n                \"depositsOf(address)\",\n                msg.sender\n            )\n        );\n        require(success,\"Proxy: Unable to get the deposit of caller!\");\n\n        uint result = abi.decode(_result, (uint256));\n        return result;\n    }\n\n    /**\n    * @dev Withdraw all deposit from escrow for msg.sender\n    */\n    function withdraw() external whenNotPaused returns(bool) {\n        (bool success,) = instructionsProviderContractRef.call(\n            abi.encodeWithSignature(\n                \"withdraw(address)\",\n                msg.sender\n            )\n        );\n        return success;\n    }\n\n    /**\n    * @dev Get the internal balance of the contract\n    * @return The internal balance of the contract in Wei\n    */\n    function getBalance() external view onlyOwner returns(uint) {\n        return address(this).balance;\n    }\n\n    /* CHAINLINK ETH/USD PRICE FEED AGGREGATOR */    \n    \n    /**\n     * @dev Query & save the latest quotation from ChainLink price feed aggregator on Rinkeby\n     */\n    function saveLatestQuotation() public onlyOwner {\n        // Query last ETH/USD price from ChainLink\n        (\n            //uint80 roundID, \n            ,\n            int price,\n            ,\n            uint timestamp,\n            \n        ) = priceFeedRef.latestRoundData();\n        \n        // Save latest quotation (rounID, price & timestamp)\n        lastQuotationValue = (10**18)*(10**8)/uint(price);\n        lastQuotationTimestamp = timestamp;\n        emit QueryLastQuotationFromChainlink(msg.sender, lastQuotationValue, timestamp);\n    }\n\n    function getLatestQuotation() public view returns(uint, uint) {\n        return (lastQuotationValue, lastQuotationTimestamp);\n    }\n\n    /* HELPER FUNCTIONS */\n    \n    /**\n    * @dev Computes the deal creation cost in WEI\n    * @param _accountsCount Number of external accounts defined in the deal\n    * @param _rulesCount Number of rules defined in the deal\n    * @return Deal creation cost in WEI\n    */\n    function computeDealCreationFeesInWEI\n    (\n        uint _accountsCount, \n        uint _rulesCount\n    ) \n    public view returns (uint) {\n        return (_accountsCount * accountCreationFees + _rulesCount * ruleCreationFees)*lastQuotationValue;\n    }\n\n    /**\n    * @dev Converts an amount in WEI to USD\n    * @param _amountInWEI Amount in WEI\n    * @return Converted amount in USD\n    */\n    function convertWEI2USD(uint _amountInWEI) public view returns(uint) {\n        return _amountInWEI / lastQuotationValue;\n    }\n\n    /**\n    * @dev Converts an amount in USD to WEI\n    * @param _amountInUSD Amount in USD\n    * @return Converted amount in WEI\n    */\n    function convertUSD2WEI(uint _amountInUSD) public view returns(uint) {\n        return _amountInUSD * lastQuotationValue;\n    }\n\n    /** \n    * @dev Checks whether the strings are equal\n    * @param _s1 First string to compare\n    * @param _s2 Second string to compare\n    * @return Boolean indicating if the 2 strings are equal\n    */\n    function stringsEqual(string memory _s1, string memory _s2) public pure returns(bool) {\n        return keccak256(bytes(_s1)) == keccak256(bytes(_s2));\n    }\n\n    /* OpenZeppelin.Pausable */\n\n    /**\n    * @dev Access control inherited from OpenZeppelin Ownable contract\n    * Pausing the contract makes the createDeal function not callable\n    * Getters are still callable\n    * Only owner can call\n    */\n    function pause() public onlyOwner() whenNotPaused() {\n        _pause();\n    }\n\n    /**\n    * @dev Access control inherited from OpenZeppelin Ownable contract\n    * Unpausing the contract makes the createDeal function callable\n    * Only Owner can call\n    */\n    function unpause() public onlyOwner() whenPaused() {\n        _unpause();\n    }\n\n    /* OVERRIDE & BLOCK UNUSED INHERITED FUNCTIONS */\n\n    /**\n    * @dev Block OpenZeppelin Ownable.renounceOwnership\n    * @notice Will always revert\n    */ \n    function renounceOwnership() public pure override {\n        revert('Contract cannot be revoked');\n    }\n}\n",
  "sourcePath": "/home/shakalee/Documents/Consensys/PROJOT-v0/contracts/Proxy.sol",
  "compiler": {
    "name": "solc",
    "version": "0.8.9+commit.e5eed63a.Emscripten.clang"
  },
  "schemaVersion": "3.4.3",
  "updatedAt": "2021-11-29T15:55:47.791Z",
  "networkType": "ethereum",
  "devdoc": {
    "details": "Main DApp entry point. Exposes the public interface and decouple the data and the logic",
    "events": {
      "ModifyAccountCreationFees(address,uint256,uint256)": {
        "details": "Event emitted when the account creation fees is changed",
        "params": {
          "_from": ": msg.sender",
          "_new": ": new account creation fees in USD",
          "_old": ": old account creation fees in USD"
        }
      },
      "ModifyAllowAllAccountsFees(address,uint256,uint256)": {
        "details": "Event emitted when the allow all accounts fees is changed",
        "params": {
          "_from": ": msg.sender",
          "_new": ": new allow all accounts fees in USD",
          "_old": ": old allow all accounts fees in USD"
        }
      },
      "ModifyDealsContractAddress(address,address,address)": {
        "details": "Event emitted when the Deals contract reference is changed",
        "params": {
          "_from": "Caller address",
          "_new": "New address of the Deals contract",
          "_old": "Old address of the Deals contract"
        }
      },
      "ModifyInstructionsContractAddress(address,address,address)": {
        "details": "Event emitted when the Instructions contract reference is changed",
        "params": {
          "_from": "Caller address",
          "_new": "New address of the Instructions contract",
          "_old": "Old address of the Instructions contract"
        }
      },
      "ModifyInstructionsProviderContractAddress(address,address,address)": {
        "details": "Event emitted when the InstructionsProvider contract reference is changed",
        "params": {
          "_from": "Caller address",
          "_new": "New address of the InstructionsProvider contract",
          "_old": "Old address of the InstructionsProvider contract"
        }
      },
      "ModifyInterpreterContractAddress(address,address,address)": {
        "details": "Event emitted when the Interpreter contract reference is changed",
        "params": {
          "_from": "Caller address",
          "_new": "New address of the Interpreter contract",
          "_old": "Old address of the Interpreter contract"
        }
      },
      "ModifyPriceFeedRefAggregatorAddress(address,address,address)": {
        "details": "Event emitted when the Chainlink ETH/USD price feed aggregator address is changed",
        "params": {
          "_from": "Caller address",
          "_new": "New address of the Chainlink ETH/USD price feed aggregator address",
          "_old": "Old address of the Chainlink ETH/USD price feed aggregator address"
        }
      },
      "ModifyRuleCreationFees(address,uint256,uint256)": {
        "details": "Event emitted when the rule creation fees is changed",
        "params": {
          "_from": ": msg.sender",
          "_new": ": new rule creation fees in USD",
          "_old": ": old rule creation fees in USD"
        }
      },
      "ModifyTransactionFees(address,uint256,uint256)": {
        "details": "Event emitted when the transaction fees are changed",
        "params": {
          "_from": ": msg.sender",
          "_new": ": new transaction fees value in % of msg.value",
          "_old": ": old transaction fees value in % of msg.value"
        }
      },
      "ModifyTransactionMinimalValue(address,uint256,uint256)": {
        "details": "Event emitted when the transaction minimal value is changed",
        "params": {
          "_from": ": msg.sender",
          "_new": ": new transaction minimal value in USD",
          "_old": ": old transaction minimal value in USD"
        }
      },
      "PayDealCreationFees(address,uint256,uint256)": {
        "details": "Event emitted when the deal creation fees are paid",
        "params": {
          "_dealId": ": Id of the created deal",
          "_fees": ": Fees paid by the user in ETH",
          "_from": ": msg.sender"
        }
      },
      "PayTransactionFees(address,uint256,uint256,uint256)": {
        "details": "Event emitted when the transaction fees are paid",
        "params": {
          "_dealId": ": Id of the executed deal ",
          "_fees": ": Fees paid by the user in ETH",
          "_from": ": msg.sender",
          "_ruleId": ": Id of the executed rule"
        }
      },
      "QueryLastQuotationFromChainlink(address,uint256,uint256)": {
        "details": "Event emitted when the WEI to USD conversion rate is updated from Chainlink",
        "params": {
          "_from": ": msg.sender",
          "_timestamp": ": timestamp at which the price was fetched from Chainlink",
          "_value": ": WEI/USD price at the time the Chainlink Oracle was called"
        }
      },
      "ReimburseExcessValue(address,uint256,uint256)": {
        "details": "Event emitted when an excess value is reimbursed to the user",
        "params": {
          "_amount": ": Amount reimbursed to the user in ETH",
          "_dealId": ": Id of the created deal ",
          "_to": ": address of the caller (msg.sender) where the excess value is reimbursed"
        }
      }
    },
    "kind": "dev",
    "methods": {
      "computeDealCreationFeesInWEI(uint256,uint256)": {
        "details": "Computes the deal creation cost in WEI",
        "params": {
          "_accountsCount": "Number of external accounts defined in the deal",
          "_rulesCount": "Number of rules defined in the deal"
        },
        "returns": {
          "_0": "Deal creation cost in WEI"
        }
      },
      "constructor": {
        "details": "Constructor: Initialize storage variables",
        "params": {
          "_accountCreationFees": "Creation fees per account in Wei ",
          "_allowAllAddressesFees": "Creation fees to allow incoming payments from all addresses",
          "_lastQuotationValue": "Wei per USD conversion rate",
          "_ruleCreationFees": "Creation fees per rule in Wei ",
          "_transactionFees": "Transaction fees paid to execute a rule in % of msg.value (1=1%)",
          "_transactionMinimalValue": "Minimal value to trigger a rule execution"
        }
      },
      "convertUSD2WEI(uint256)": {
        "details": "Converts an amount in USD to WEI",
        "params": {
          "_amountInUSD": "Amount in USD"
        },
        "returns": {
          "_0": "Converted amount in WEI"
        }
      },
      "convertWEI2USD(uint256)": {
        "details": "Converts an amount in WEI to USD",
        "params": {
          "_amountInWEI": "Amount in WEI"
        },
        "returns": {
          "_0": "Converted amount in USD"
        }
      },
      "createDeal(address[],(string,string,uint256,address)[][])": {
        "details": "Creates a deal and returns its id",
        "params": {
          "_accounts": "List of accounts addresses linked to the deal",
          "_rulesList": "List of the rules linked to the deal (rule = list of Articles)"
        },
        "returns": {
          "_0": "Id of the deal created"
        }
      },
      "depositsOf()": {
        "details": "Retrieves caller escrow balance."
      },
      "executeRule(uint256,uint256)": {
        "details": "Execute a deal's rule",
        "params": {
          "_dealId": ": Id of the deal to execute",
          "_ruleId": ": Id of the rule to execute"
        }
      },
      "getBalance()": {
        "details": "Get the internal balance of the contract",
        "returns": {
          "_0": "The internal balance of the contract in Wei"
        }
      },
      "owner()": {
        "details": "Returns the address of the current owner."
      },
      "pause()": {
        "details": "Access control inherited from OpenZeppelin Ownable contract Pausing the contract makes the createDeal function not callable Getters are still callable Only owner can call"
      },
      "paused()": {
        "details": "Returns true if the contract is paused, and false otherwise."
      },
      "renounceOwnership()": {
        "details": "Block OpenZeppelin Ownable.renounceOwnership"
      },
      "saveLatestQuotation()": {
        "details": "Query & save the latest quotation from ChainLink price feed aggregator on Rinkeby"
      },
      "setAccountCreationFees(uint256)": {
        "details": "Sets the account creation fees to a new value",
        "params": {
          "_new": "New value for the account creation fees in USD"
        }
      },
      "setAllowAllAddressesFees(uint256)": {
        "details": "Sets the allow all addresses fees to a new value",
        "params": {
          "_new": "New value for the allow all addresses fees in USD"
        }
      },
      "setDealsContractRef(address)": {
        "details": "Sets the Deals contract reference to a new value",
        "params": {
          "_new": "New address of the Deals contract"
        }
      },
      "setInstructionsContractRef(address)": {
        "details": "Sets the Instructions contract reference to a new value",
        "params": {
          "_new": "New address of the Instructions contract"
        }
      },
      "setInstructionsProviderContractRef(address)": {
        "details": "Sets the InstructionsProvider contract reference to a new value",
        "params": {
          "_new": "New address of the InstructionsProvider contract"
        }
      },
      "setInterpreterContractRef(address)": {
        "details": "Sets the Interpreter contract reference to a new value",
        "params": {
          "_new": "New address of the Interpreter contract"
        }
      },
      "setPriceFeedRefAggregatorAddress(address)": {
        "details": "Set the address to the Chainlink ETH/USD price feed aggregator",
        "params": {
          "_new": "New address to the Chainlink ETH/USD price feed aggregator"
        }
      },
      "setRuleCreationFees(uint256)": {
        "details": "Sets the rule creation fees to a new value",
        "params": {
          "_new": "New value for the rule creation fees in USD"
        }
      },
      "setTransactionFees(uint256)": {
        "details": "Sets the transaction fees to a new value",
        "params": {
          "_new": "New value for the transaction fees in USD"
        }
      },
      "setTransactionMinimalValue(uint256)": {
        "details": "Sets the transaction minimal value to a new value",
        "params": {
          "_new": "New value for the transaction minimal value in USD"
        }
      },
      "stringsEqual(string,string)": {
        "details": "Checks whether the strings are equal",
        "params": {
          "_s1": "First string to compare",
          "_s2": "Second string to compare"
        },
        "returns": {
          "_0": "Boolean indicating if the 2 strings are equal"
        }
      },
      "transferOwnership(address)": {
        "details": "Transfers ownership of the contract to a new account (`newOwner`). Can only be called by the current owner."
      },
      "unpause()": {
        "details": "Access control inherited from OpenZeppelin Ownable contract Unpausing the contract makes the createDeal function callable Only Owner can call"
      },
      "withdraw()": {
        "details": "Withdraw all deposit from escrow for msg.sender"
      }
    },
    "stateVariables": {
      "accountCreationFees": {
        "details": "Price per account added to the deal in USD"
      },
      "allowAllAddressesFees": {
        "details": "Price to allow incoming payments from all addresses others than internal/external accounts in USD"
      },
      "dealsContractRef": {
        "details": "Reference to the Deals instance"
      },
      "instructionsContractRef": {
        "details": "Reference to the Instructions contract"
      },
      "instructionsProviderContractRef": {
        "details": "Reference to the InstructionsProvider contract"
      },
      "interpreterContractRef": {
        "details": "Reference to the Interpreter contract"
      },
      "lastQuotationTimestamp": {
        "details": "Last quotation timestamp fetched from Chainlink"
      },
      "lastQuotationValue": {
        "details": "Last quotation value in USD per ETH with 8 decimals precision fetched from Chainlink"
      },
      "priceFeedRef": {
        "details": "Chainlink ETH/USD price feed aggregator link on Rinkeby"
      },
      "ruleCreationFees": {
        "details": "Price per rule added to the deal in USD"
      },
      "transactionFees": {
        "details": "Transaction fees in % of the msg.value perceived on a deal execution in USD"
      },
      "transactionMinimalValue": {
        "details": "Minimal transaction value able to trigger an execution in USDimport \"@openzeppelin/contracts/security/Pausable.sol\";"
      }
    },
    "title": "Proxy Contract",
    "version": 1
  },
  "userdoc": {
    "kind": "user",
    "methods": {
      "renounceOwnership()": {
        "notice": "Will always revert"
      }
    },
    "notice": "lets-make-a-deal.eth allows you to make an agreement between different parties and automatically route ETH to different addresses based on simple rules.",
    "version": 1
  }
}