{
  "contractName": "Proxy",
  "abi": [
    {
      "inputs": [
        {
          "internalType": "uint256",
          "name": "_accountCreationFees",
          "type": "uint256"
        },
        {
          "internalType": "uint256",
          "name": "_ruleCreationFees",
          "type": "uint256"
        },
        {
          "internalType": "uint256",
          "name": "_allowAllAddressesFees",
          "type": "uint256"
        },
        {
          "internalType": "uint256",
          "name": "_transactionMinimalValue",
          "type": "uint256"
        },
        {
          "internalType": "uint256",
          "name": "_transactionFees",
          "type": "uint256"
        },
        {
          "internalType": "uint256",
          "name": "_lastQuotationValue",
          "type": "uint256"
        }
      ],
      "stateMutability": "nonpayable",
      "type": "constructor"
    },
    {
      "anonymous": false,
      "inputs": [
        {
          "indexed": false,
          "internalType": "address",
          "name": "_from",
          "type": "address"
        },
        {
          "indexed": false,
          "internalType": "uint256",
          "name": "_old",
          "type": "uint256"
        },
        {
          "indexed": false,
          "internalType": "uint256",
          "name": "_new",
          "type": "uint256"
        }
      ],
      "name": "ModifyAccountCreationFees",
      "type": "event"
    },
    {
      "anonymous": false,
      "inputs": [
        {
          "indexed": false,
          "internalType": "address",
          "name": "_from",
          "type": "address"
        },
        {
          "indexed": false,
          "internalType": "uint256",
          "name": "_old",
          "type": "uint256"
        },
        {
          "indexed": false,
          "internalType": "uint256",
          "name": "_new",
          "type": "uint256"
        }
      ],
      "name": "ModifyAllowAllAccountsFees",
      "type": "event"
    },
    {
      "anonymous": false,
      "inputs": [
        {
          "indexed": false,
          "internalType": "address",
          "name": "_from",
          "type": "address"
        },
        {
          "indexed": false,
          "internalType": "address",
          "name": "_old",
          "type": "address"
        },
        {
          "indexed": false,
          "internalType": "address",
          "name": "_new",
          "type": "address"
        }
      ],
      "name": "ModifyDealsContractAddress",
      "type": "event"
    },
    {
      "anonymous": false,
      "inputs": [
        {
          "indexed": false,
          "internalType": "address",
          "name": "_from",
          "type": "address"
        },
        {
          "indexed": false,
          "internalType": "address",
          "name": "_old",
          "type": "address"
        },
        {
          "indexed": false,
          "internalType": "address",
          "name": "_new",
          "type": "address"
        }
      ],
      "name": "ModifyInstructionsContractAddress",
      "type": "event"
    },
    {
      "anonymous": false,
      "inputs": [
        {
          "indexed": false,
          "internalType": "address",
          "name": "_from",
          "type": "address"
        },
        {
          "indexed": false,
          "internalType": "address",
          "name": "_old",
          "type": "address"
        },
        {
          "indexed": false,
          "internalType": "address",
          "name": "_new",
          "type": "address"
        }
      ],
      "name": "ModifyInstructionsProviderContractAddress",
      "type": "event"
    },
    {
      "anonymous": false,
      "inputs": [
        {
          "indexed": false,
          "internalType": "address",
          "name": "_from",
          "type": "address"
        },
        {
          "indexed": false,
          "internalType": "address",
          "name": "_old",
          "type": "address"
        },
        {
          "indexed": false,
          "internalType": "address",
          "name": "_new",
          "type": "address"
        }
      ],
      "name": "ModifyInterpreterContractAddress",
      "type": "event"
    },
    {
      "anonymous": false,
      "inputs": [
        {
          "indexed": false,
          "internalType": "address",
          "name": "_from",
          "type": "address"
        },
        {
          "indexed": false,
          "internalType": "address",
          "name": "_old",
          "type": "address"
        },
        {
          "indexed": false,
          "internalType": "address",
          "name": "_new",
          "type": "address"
        }
      ],
      "name": "ModifyPriceFeedRefAggregatorAddress",
      "type": "event"
    },
    {
      "anonymous": false,
      "inputs": [
        {
          "indexed": false,
          "internalType": "address",
          "name": "_from",
          "type": "address"
        },
        {
          "indexed": false,
          "internalType": "uint256",
          "name": "_old",
          "type": "uint256"
        },
        {
          "indexed": false,
          "internalType": "uint256",
          "name": "_new",
          "type": "uint256"
        }
      ],
      "name": "ModifyRuleCreationFees",
      "type": "event"
    },
    {
      "anonymous": false,
      "inputs": [
        {
          "indexed": false,
          "internalType": "address",
          "name": "_from",
          "type": "address"
        },
        {
          "indexed": false,
          "internalType": "uint256",
          "name": "_old",
          "type": "uint256"
        },
        {
          "indexed": false,
          "internalType": "uint256",
          "name": "_new",
          "type": "uint256"
        }
      ],
      "name": "ModifyTransactionFees",
      "type": "event"
    },
    {
      "anonymous": false,
      "inputs": [
        {
          "indexed": false,
          "internalType": "address",
          "name": "_from",
          "type": "address"
        },
        {
          "indexed": false,
          "internalType": "uint256",
          "name": "_old",
          "type": "uint256"
        },
        {
          "indexed": false,
          "internalType": "uint256",
          "name": "_new",
          "type": "uint256"
        }
      ],
      "name": "ModifyTransactionMinimalValue",
      "type": "event"
    },
    {
      "anonymous": false,
      "inputs": [
        {
          "indexed": true,
          "internalType": "address",
          "name": "previousOwner",
          "type": "address"
        },
        {
          "indexed": true,
          "internalType": "address",
          "name": "newOwner",
          "type": "address"
        }
      ],
      "name": "OwnershipTransferred",
      "type": "event"
    },
    {
      "anonymous": false,
      "inputs": [
        {
          "indexed": false,
          "internalType": "address",
          "name": "account",
          "type": "address"
        }
      ],
      "name": "Paused",
      "type": "event"
    },
    {
      "anonymous": false,
      "inputs": [
        {
          "indexed": false,
          "internalType": "address",
          "name": "_from",
          "type": "address"
        },
        {
          "indexed": false,
          "internalType": "uint256",
          "name": "_dealId",
          "type": "uint256"
        },
        {
          "indexed": false,
          "internalType": "uint256",
          "name": "_fees",
          "type": "uint256"
        }
      ],
      "name": "PayDealCreationFees",
      "type": "event"
    },
    {
      "anonymous": false,
      "inputs": [
        {
          "indexed": false,
          "internalType": "address",
          "name": "_from",
          "type": "address"
        },
        {
          "indexed": false,
          "internalType": "uint256",
          "name": "_dealId",
          "type": "uint256"
        },
        {
          "indexed": false,
          "internalType": "uint256",
          "name": "_ruleId",
          "type": "uint256"
        },
        {
          "indexed": false,
          "internalType": "uint256",
          "name": "_fees",
          "type": "uint256"
        }
      ],
      "name": "PayTransactionFees",
      "type": "event"
    },
    {
      "anonymous": false,
      "inputs": [
        {
          "indexed": false,
          "internalType": "address",
          "name": "_from",
          "type": "address"
        },
        {
          "indexed": false,
          "internalType": "uint256",
          "name": "_value",
          "type": "uint256"
        },
        {
          "indexed": false,
          "internalType": "uint256",
          "name": "_timestamp",
          "type": "uint256"
        }
      ],
      "name": "QueryLastQuotationFromChainlink",
      "type": "event"
    },
    {
      "anonymous": false,
      "inputs": [
        {
          "indexed": false,
          "internalType": "address",
          "name": "_to",
          "type": "address"
        },
        {
          "indexed": false,
          "internalType": "uint256",
          "name": "_dealId",
          "type": "uint256"
        },
        {
          "indexed": false,
          "internalType": "uint256",
          "name": "_amount",
          "type": "uint256"
        }
      ],
      "name": "ReimburseExcessValue",
      "type": "event"
    },
    {
      "anonymous": false,
      "inputs": [
        {
          "indexed": false,
          "internalType": "address",
          "name": "account",
          "type": "address"
        }
      ],
      "name": "Unpaused",
      "type": "event"
    },
    {
      "inputs": [],
      "name": "accountCreationFees",
      "outputs": [
        {
          "internalType": "uint256",
          "name": "",
          "type": "uint256"
        }
      ],
      "stateMutability": "view",
      "type": "function",
      "constant": true
    },
    {
      "inputs": [],
      "name": "allowAllAddressesFees",
      "outputs": [
        {
          "internalType": "uint256",
          "name": "",
          "type": "uint256"
        }
      ],
      "stateMutability": "view",
      "type": "function",
      "constant": true
    },
    {
      "inputs": [],
      "name": "dealsContractRef",
      "outputs": [
        {
          "internalType": "contract Deals",
          "name": "",
          "type": "address"
        }
      ],
      "stateMutability": "view",
      "type": "function",
      "constant": true
    },
    {
      "inputs": [],
      "name": "instructionsContractRef",
      "outputs": [
        {
          "internalType": "contract Instructions",
          "name": "",
          "type": "address"
        }
      ],
      "stateMutability": "view",
      "type": "function",
      "constant": true
    },
    {
      "inputs": [],
      "name": "instructionsProviderContractRef",
      "outputs": [
        {
          "internalType": "address",
          "name": "",
          "type": "address"
        }
      ],
      "stateMutability": "view",
      "type": "function",
      "constant": true
    },
    {
      "inputs": [],
      "name": "interpreterContractRef",
      "outputs": [
        {
          "internalType": "address",
          "name": "",
          "type": "address"
        }
      ],
      "stateMutability": "view",
      "type": "function",
      "constant": true
    },
    {
      "inputs": [],
      "name": "lastQuotationTimestamp",
      "outputs": [
        {
          "internalType": "uint256",
          "name": "",
          "type": "uint256"
        }
      ],
      "stateMutability": "view",
      "type": "function",
      "constant": true
    },
    {
      "inputs": [],
      "name": "lastQuotationValue",
      "outputs": [
        {
          "internalType": "uint256",
          "name": "",
          "type": "uint256"
        }
      ],
      "stateMutability": "view",
      "type": "function",
      "constant": true
    },
    {
      "inputs": [],
      "name": "owner",
      "outputs": [
        {
          "internalType": "address",
          "name": "",
          "type": "address"
        }
      ],
      "stateMutability": "view",
      "type": "function",
      "constant": true
    },
    {
      "inputs": [],
      "name": "paused",
      "outputs": [
        {
          "internalType": "bool",
          "name": "",
          "type": "bool"
        }
      ],
      "stateMutability": "view",
      "type": "function",
      "constant": true
    },
    {
      "inputs": [],
      "name": "priceFeedRef",
      "outputs": [
        {
          "internalType": "contract AggregatorV3Interface",
          "name": "",
          "type": "address"
        }
      ],
      "stateMutability": "view",
      "type": "function",
      "constant": true
    },
    {
      "inputs": [],
      "name": "ruleCreationFees",
      "outputs": [
        {
          "internalType": "uint256",
          "name": "",
          "type": "uint256"
        }
      ],
      "stateMutability": "view",
      "type": "function",
      "constant": true
    },
    {
      "inputs": [],
      "name": "transactionFees",
      "outputs": [
        {
          "internalType": "uint256",
          "name": "",
          "type": "uint256"
        }
      ],
      "stateMutability": "view",
      "type": "function",
      "constant": true
    },
    {
      "inputs": [],
      "name": "transactionMinimalValue",
      "outputs": [
        {
          "internalType": "uint256",
          "name": "",
          "type": "uint256"
        }
      ],
      "stateMutability": "view",
      "type": "function",
      "constant": true
    },
    {
      "inputs": [
        {
          "internalType": "address",
          "name": "newOwner",
          "type": "address"
        }
      ],
      "name": "transferOwnership",
      "outputs": [],
      "stateMutability": "nonpayable",
      "type": "function"
    },
    {
      "inputs": [
        {
          "internalType": "address",
          "name": "_new",
          "type": "address"
        }
      ],
      "name": "setPriceFeedRefAggregatorAddress",
      "outputs": [],
      "stateMutability": "nonpayable",
      "type": "function"
    },
    {
      "inputs": [
        {
          "internalType": "address",
          "name": "_new",
          "type": "address"
        }
      ],
      "name": "setInstructionsContractRef",
      "outputs": [],
      "stateMutability": "nonpayable",
      "type": "function"
    },
    {
      "inputs": [
        {
          "internalType": "address",
          "name": "_new",
          "type": "address"
        }
      ],
      "name": "setInstructionsProviderContractRef",
      "outputs": [],
      "stateMutability": "nonpayable",
      "type": "function"
    },
    {
      "inputs": [
        {
          "internalType": "address",
          "name": "_new",
          "type": "address"
        }
      ],
      "name": "setDealsContractRef",
      "outputs": [],
      "stateMutability": "nonpayable",
      "type": "function"
    },
    {
      "inputs": [
        {
          "internalType": "address",
          "name": "_new",
          "type": "address"
        }
      ],
      "name": "setInterpreterContractRef",
      "outputs": [],
      "stateMutability": "nonpayable",
      "type": "function"
    },
    {
      "inputs": [
        {
          "internalType": "uint256",
          "name": "_new",
          "type": "uint256"
        }
      ],
      "name": "setAccountCreationFees",
      "outputs": [],
      "stateMutability": "nonpayable",
      "type": "function"
    },
    {
      "inputs": [
        {
          "internalType": "uint256",
          "name": "_new",
          "type": "uint256"
        }
      ],
      "name": "setRuleCreationFees",
      "outputs": [],
      "stateMutability": "nonpayable",
      "type": "function"
    },
    {
      "inputs": [
        {
          "internalType": "uint256",
          "name": "_new",
          "type": "uint256"
        }
      ],
      "name": "setAllowAllAddressesFees",
      "outputs": [],
      "stateMutability": "nonpayable",
      "type": "function"
    },
    {
      "inputs": [
        {
          "internalType": "uint256",
          "name": "_new",
          "type": "uint256"
        }
      ],
      "name": "setTransactionMinimalValue",
      "outputs": [],
      "stateMutability": "nonpayable",
      "type": "function"
    },
    {
      "inputs": [
        {
          "internalType": "uint256",
          "name": "_new",
          "type": "uint256"
        }
      ],
      "name": "setTransactionFees",
      "outputs": [],
      "stateMutability": "nonpayable",
      "type": "function"
    },
    {
      "inputs": [
        {
          "internalType": "address[]",
          "name": "_accounts",
          "type": "address[]"
        },
        {
          "components": [
            {
              "internalType": "string",
              "name": "instructionName",
              "type": "string"
            },
            {
              "internalType": "string",
              "name": "paramStr",
              "type": "string"
            },
            {
              "internalType": "uint256",
              "name": "paramUInt",
              "type": "uint256"
            },
            {
              "internalType": "address",
              "name": "paramAddress",
              "type": "address"
            }
          ],
          "internalType": "struct CommonStructs.Article[][]",
          "name": "_rulesList",
          "type": "tuple[][]"
        }
      ],
      "name": "createDeal",
      "outputs": [
        {
          "internalType": "uint256",
          "name": "",
          "type": "uint256"
        }
      ],
      "stateMutability": "payable",
      "type": "function",
      "payable": true
    },
    {
      "inputs": [
        {
          "internalType": "uint256",
          "name": "_dealId",
          "type": "uint256"
        },
        {
          "internalType": "uint256",
          "name": "_ruleId",
          "type": "uint256"
        }
      ],
      "name": "executeRule",
      "outputs": [],
      "stateMutability": "payable",
      "type": "function",
      "payable": true
    },
    {
      "inputs": [],
      "name": "depositsOf",
      "outputs": [
        {
          "internalType": "uint256",
          "name": "",
          "type": "uint256"
        }
      ],
      "stateMutability": "nonpayable",
      "type": "function"
    },
    {
      "inputs": [],
      "name": "withdraw",
      "outputs": [],
      "stateMutability": "nonpayable",
      "type": "function"
    },
    {
      "inputs": [],
      "name": "getBalance",
      "outputs": [
        {
          "internalType": "uint256",
          "name": "",
          "type": "uint256"
        }
      ],
      "stateMutability": "view",
      "type": "function",
      "constant": true
    },
    {
      "inputs": [],
      "name": "saveLatestQuotation",
      "outputs": [],
      "stateMutability": "nonpayable",
      "type": "function"
    },
    {
      "inputs": [],
      "name": "getLatestQuotation",
      "outputs": [
        {
          "internalType": "uint256",
          "name": "",
          "type": "uint256"
        },
        {
          "internalType": "uint256",
          "name": "",
          "type": "uint256"
        }
      ],
      "stateMutability": "view",
      "type": "function",
      "constant": true
    },
    {
      "inputs": [
        {
          "internalType": "uint256",
          "name": "_accountsCount",
          "type": "uint256"
        },
        {
          "internalType": "uint256",
          "name": "_rulesCount",
          "type": "uint256"
        }
      ],
      "name": "computeDealCreationFeesInWEI",
      "outputs": [
        {
          "internalType": "uint256",
          "name": "",
          "type": "uint256"
        }
      ],
      "stateMutability": "view",
      "type": "function",
      "constant": true
    },
    {
      "inputs": [
        {
          "internalType": "uint256",
          "name": "_amountInWEI",
          "type": "uint256"
        }
      ],
      "name": "convertWEI2USD",
      "outputs": [
        {
          "internalType": "uint256",
          "name": "",
          "type": "uint256"
        }
      ],
      "stateMutability": "view",
      "type": "function",
      "constant": true
    },
    {
      "inputs": [
        {
          "internalType": "uint256",
          "name": "_amountInUSD",
          "type": "uint256"
        }
      ],
      "name": "convertUSD2WEI",
      "outputs": [
        {
          "internalType": "uint256",
          "name": "",
          "type": "uint256"
        }
      ],
      "stateMutability": "view",
      "type": "function",
      "constant": true
    },
    {
      "inputs": [
        {
          "internalType": "string",
          "name": "_s1",
          "type": "string"
        },
        {
          "internalType": "string",
          "name": "_s2",
          "type": "string"
        }
      ],
      "name": "stringsEqual",
      "outputs": [
        {
          "internalType": "bool",
          "name": "",
          "type": "bool"
        }
      ],
      "stateMutability": "pure",
      "type": "function",
      "constant": true
    },
    {
      "inputs": [],
      "name": "pause",
      "outputs": [],
      "stateMutability": "nonpayable",
      "type": "function"
    },
    {
      "inputs": [],
      "name": "unpause",
      "outputs": [],
      "stateMutability": "nonpayable",
      "type": "function"
    },
    {
      "inputs": [],
      "name": "renounceOwnership",
      "outputs": [],
      "stateMutability": "pure",
      "type": "function",
      "constant": true
    }
  ],
  "bytecode": "0x60806040523480156200001157600080fd5b5060405162004144380380620041448339818101604052810190620000379190620001b3565b620000576200004b620000a760201b60201c565b620000af60201b60201c565b60008060146101000a81548160ff021916908315150217905550856008819055508460098190555083600a8190555082600b8190555081600c81905550806002819055505050505050506200024f565b600033905090565b60008060009054906101000a900473ffffffffffffffffffffffffffffffffffffffff169050816000806101000a81548173ffffffffffffffffffffffffffffffffffffffff021916908373ffffffffffffffffffffffffffffffffffffffff1602179055508173ffffffffffffffffffffffffffffffffffffffff168173ffffffffffffffffffffffffffffffffffffffff167f8be0079c531659141344cd1fd0a4f28419497f9722a3daafe3b4186f6b6457e060405160405180910390a35050565b600080fd5b6000819050919050565b6200018d8162000178565b81146200019957600080fd5b50565b600081519050620001ad8162000182565b92915050565b60008060008060008060c08789031215620001d357620001d262000173565b5b6000620001e389828a016200019c565b9650506020620001f689828a016200019c565b95505060406200020989828a016200019c565b94505060606200021c89828a016200019c565b93505060806200022f89828a016200019c565b92505060a06200024289828a016200019c565b9150509295509295509295565b613ee5806200025f6000396000f3fe6080604052600436106102305760003560e01c80636b18c1ca1161012e578063b50f34da116100ab578063f2fde38b1161006f578063f2fde38b1461079b578063f42a4f79146107c4578063f7f9e1e814610801578063f8210b3a1461082c578063fc51821c1461085757610230565b8063b50f34da146106b6578063d33d6d6a146106df578063d74b47ef1461070a578063e65fcc7314610733578063ec2035c31461075e57610230565b80638da5cb5b116100f25780638da5cb5b146105f057806396b6dc7d1461061b5780639efe46bc14610637578063a2ae0cd214610662578063b37be8e41461068b57610230565b80636b18c1ca146105435780636c79eafc1461056c578063715018a6146105975780638456cb59146105ae5780638d249545146105c557610230565b80633ccfd60b116101bc5780634e02b0b3116101805780634e02b0b31461048257806351bcde62146104ab578063562b7d94146104c25780635c975abb146104ed578063652522f51461051857610230565b80633ccfd60b146103d75780633f4ba83a146103ee5780634368080b1461040557806343d16ecd1461042e578063446f772f1461045957610230565b80632131d8c3116102035780632131d8c31461030557806326698e751461032e5780632a16348c146103575780633987c9b21461038057806339a6dcc3146103ac57610230565b8063028a84be14610235578063042c27ea1461026057806312065fe01461029d57806313d19950146102c8575b600080fd5b34801561024157600080fd5b5061024a610887565b6040516102579190612730565b60405180910390f35b34801561026c57600080fd5b506102876004803603810190610282919061278b565b61088d565b6040516102949190612730565b60405180910390f35b3480156102a957600080fd5b506102b26108a4565b6040516102bf9190612730565b60405180910390f35b3480156102d457600080fd5b506102ef60048036038101906102ea91906128fe565b610928565b6040516102fc9190612991565b60405180910390f35b34801561031157600080fd5b5061032c60048036038101906103279190612a0a565b610943565b005b34801561033a57600080fd5b506103556004803603810190610350919061278b565b610aad565b005b34801561036357600080fd5b5061037e6004803603810190610379919061278b565b610bbd565b005b34801561038c57600080fd5b50610395610ccd565b6040516103a3929190612a37565b60405180910390f35b3480156103b857600080fd5b506103c1610cde565b6040516103ce9190612730565b60405180910390f35b3480156103e357600080fd5b506103ec610ce4565b005b3480156103fa57600080fd5b50610403610e8b565b005b34801561041157600080fd5b5061042c60048036038101906104279190612a0a565b610f58565b005b34801561043a57600080fd5b506104436110c2565b6040516104509190612730565b60405180910390f35b34801561046557600080fd5b50610480600480360381019061047b9190612a0a565b6110c8565b005b34801561048e57600080fd5b506104a960048036038101906104a49190612a0a565b611232565b005b3480156104b757600080fd5b506104c061139c565b005b3480156104ce57600080fd5b506104d7611527565b6040516104e49190612abf565b60405180910390f35b3480156104f957600080fd5b5061050261154d565b60405161050f9190612991565b60405180910390f35b34801561052457600080fd5b5061052d611563565b60405161053a9190612730565b60405180910390f35b34801561054f57600080fd5b5061056a6004803603810190610565919061278b565b611569565b005b34801561057857600080fd5b50610581611679565b60405161058e9190612ae9565b60405180910390f35b3480156105a357600080fd5b506105ac61169f565b005b3480156105ba57600080fd5b506105c36116da565b005b3480156105d157600080fd5b506105da6117a8565b6040516105e79190612730565b60405180910390f35b3480156105fc57600080fd5b506106056117ae565b6040516106129190612ae9565b60405180910390f35b61063560048036038101906106309190612b04565b6117d7565b005b34801561064357600080fd5b5061064c611a3f565b6040516106599190612730565b60405180910390f35b34801561066e57600080fd5b506106896004803603810190610684919061278b565b611a45565b005b34801561069757600080fd5b506106a0611b55565b6040516106ad9190612730565b60405180910390f35b3480156106c257600080fd5b506106dd60048036038101906106d8919061278b565b611b5b565b005b3480156106eb57600080fd5b506106f4611c6b565b6040516107019190612730565b60405180910390f35b34801561071657600080fd5b50610731600480360381019061072c9190612a0a565b611dec565b005b34801561073f57600080fd5b50610748611f0f565b6040516107559190612ae9565b60405180910390f35b34801561076a57600080fd5b5061078560048036038101906107809190612b04565b611f35565b6040516107929190612730565b60405180910390f35b3480156107a757600080fd5b506107c260048036038101906107bd9190612a0a565b611f72565b005b3480156107d057600080fd5b506107eb60048036038101906107e6919061278b565b61206a565b6040516107f89190612730565b60405180910390f35b34801561080d57600080fd5b50610816612081565b6040516108239190612b65565b60405180910390f35b34801561083857600080fd5b506108416120a7565b60405161084e9190612ba1565b60405180910390f35b610871600480360381019061086c9190612f00565b6120cd565b60405161087e9190612730565b60405180910390f35b60085481565b60006002548261089d9190612fa7565b9050919050565b60006108ae612507565b73ffffffffffffffffffffffffffffffffffffffff166108cc6117ae565b73ffffffffffffffffffffffffffffffffffffffff1614610922576040517f08c379a00000000000000000000000000000000000000000000000000000000081526004016109199061305e565b60405180910390fd5b47905090565b60008180519060200120838051906020012014905092915050565b61094b612507565b73ffffffffffffffffffffffffffffffffffffffff166109696117ae565b73ffffffffffffffffffffffffffffffffffffffff16146109bf576040517f08c379a00000000000000000000000000000000000000000000000000000000081526004016109b69061305e565b60405180910390fd5b6109c761154d565b610a06576040517f08c379a00000000000000000000000000000000000000000000000000000000081526004016109fd906130ca565b60405180910390fd5b6000600760009054906101000a900473ffffffffffffffffffffffffffffffffffffffff16905081600760006101000a81548173ffffffffffffffffffffffffffffffffffffffff021916908373ffffffffffffffffffffffffffffffffffffffff1602179055507f81ed796ae91ccecf245e3cb1b6149b3491e1f0989e603b5d1b388bd68f06b52b338284604051610aa1939291906130ea565b60405180910390a15050565b610ab5612507565b73ffffffffffffffffffffffffffffffffffffffff16610ad36117ae565b73ffffffffffffffffffffffffffffffffffffffff1614610b29576040517f08c379a0000000000000000000000000000000000000000000000000000000008152600401610b209061305e565b60405180910390fd5b610b3161154d565b610b70576040517f08c379a0000000000000000000000000000000000000000000000000000000008152600401610b67906130ca565b60405180910390fd5b60006009549050816009819055507f95204251d165fe2245c1dceb4c89885d7b8cfdb88aa079c9428ef4e12df3b0ac338284604051610bb193929190613121565b60405180910390a15050565b610bc5612507565b73ffffffffffffffffffffffffffffffffffffffff16610be36117ae565b73ffffffffffffffffffffffffffffffffffffffff1614610c39576040517f08c379a0000000000000000000000000000000000000000000000000000000008152600401610c309061305e565b60405180910390fd5b610c4161154d565b610c80576040517f08c379a0000000000000000000000000000000000000000000000000000000008152600401610c77906130ca565b60405180910390fd5b6000600b54905081600b819055507f9fd5b1fe2d0c3437bd798e95b2f63bd4a3b08887c95a04d22832ccb4aae9fda4338284604051610cc193929190613121565b60405180910390a15050565b600080600254600354915091509091565b60025481565b610cec61154d565b15610d2c576040517f08c379a0000000000000000000000000000000000000000000000000000000008152600401610d23906131a4565b60405180910390fd5b6000600560009054906101000a900473ffffffffffffffffffffffffffffffffffffffff1673ffffffffffffffffffffffffffffffffffffffff1633604051602401610d789190612ae9565b6040516020818303038152906040527f51cff8d9000000000000000000000000000000000000000000000000000000007bffffffffffffffffffffffffffffffffffffffffffffffffffffffff19166020820180517bffffffffffffffffffffffffffffffffffffffffffffffffffffffff8381831617835250505050604051610e02919061323e565b6000604051808303816000865af19150503d8060008114610e3f576040519150601f19603f3d011682016040523d82523d6000602084013e610e44565b606091505b5050905080610e88576040517f08c379a0000000000000000000000000000000000000000000000000000000008152600401610e7f906132a1565b60405180910390fd5b50565b610e93612507565b73ffffffffffffffffffffffffffffffffffffffff16610eb16117ae565b73ffffffffffffffffffffffffffffffffffffffff1614610f07576040517f08c379a0000000000000000000000000000000000000000000000000000000008152600401610efe9061305e565b60405180910390fd5b610f0f61154d565b610f4e576040517f08c379a0000000000000000000000000000000000000000000000000000000008152600401610f45906130ca565b60405180910390fd5b610f5661250f565b565b610f60612507565b73ffffffffffffffffffffffffffffffffffffffff16610f7e6117ae565b73ffffffffffffffffffffffffffffffffffffffff1614610fd4576040517f08c379a0000000000000000000000000000000000000000000000000000000008152600401610fcb9061305e565b60405180910390fd5b610fdc61154d565b61101b576040517f08c379a0000000000000000000000000000000000000000000000000000000008152600401611012906130ca565b60405180910390fd5b6000600460009054906101000a900473ffffffffffffffffffffffffffffffffffffffff16905081600460006101000a81548173ffffffffffffffffffffffffffffffffffffffff021916908373ffffffffffffffffffffffffffffffffffffffff1602179055507f7a98528f6374afdc782de68dfe485f60c47c83eb22d862896ee7c59a13c6d8993382846040516110b6939291906130ea565b60405180910390a15050565b60035481565b6110d0612507565b73ffffffffffffffffffffffffffffffffffffffff166110ee6117ae565b73ffffffffffffffffffffffffffffffffffffffff1614611144576040517f08c379a000000000000000000000000000000000000000000000000000000000815260040161113b9061305e565b60405180910390fd5b61114c61154d565b61118b576040517f08c379a0000000000000000000000000000000000000000000000000000000008152600401611182906130ca565b60405180910390fd5b6000600560009054906101000a900473ffffffffffffffffffffffffffffffffffffffff16905081600560006101000a81548173ffffffffffffffffffffffffffffffffffffffff021916908373ffffffffffffffffffffffffffffffffffffffff1602179055507fdb667aada5a9918e51ab4a84bdf8d3e2f29386d98b52ae66cb26eaa442bbf968338284604051611226939291906130ea565b60405180910390a15050565b61123a612507565b73ffffffffffffffffffffffffffffffffffffffff166112586117ae565b73ffffffffffffffffffffffffffffffffffffffff16146112ae576040517f08c379a00000000000000000000000000000000000000000000000000000000081526004016112a59061305e565b60405180910390fd5b6112b661154d565b6112f5576040517f08c379a00000000000000000000000000000000000000000000000000000000081526004016112ec906130ca565b60405180910390fd5b6000600660009054906101000a900473ffffffffffffffffffffffffffffffffffffffff16905081600660006101000a81548173ffffffffffffffffffffffffffffffffffffffff021916908373ffffffffffffffffffffffffffffffffffffffff1602179055507fef88ef88851c867cbde2a8d8f43f01b9b75342fb93a2a7034ea0d656dbe13782338284604051611390939291906130ea565b60405180910390a15050565b6113a4612507565b73ffffffffffffffffffffffffffffffffffffffff166113c26117ae565b73ffffffffffffffffffffffffffffffffffffffff1614611418576040517f08c379a000000000000000000000000000000000000000000000000000000000815260040161140f9061305e565b60405180910390fd5b600080600160009054906101000a900473ffffffffffffffffffffffffffffffffffffffff1673ffffffffffffffffffffffffffffffffffffffff1663feaf968c6040518163ffffffff1660e01b815260040160a06040518083038186803b15801561148357600080fd5b505afa158015611497573d6000803e3d6000fd5b505050506040513d601f19601f820116820180604052508101906114bb919061334e565b50935050925050816a52b7d2dcc80cd2e40000006114d991906133f8565b600281905550806003819055507f5b351a1cfe437f1ffd3264dd6e306788df85c7a71e50aa62b1b0a42fae257abd336002548360405161151b93929190613121565b60405180910390a15050565b600460009054906101000a900473ffffffffffffffffffffffffffffffffffffffff1681565b60008060149054906101000a900460ff16905090565b60095481565b611571612507565b73ffffffffffffffffffffffffffffffffffffffff1661158f6117ae565b73ffffffffffffffffffffffffffffffffffffffff16146115e5576040517f08c379a00000000000000000000000000000000000000000000000000000000081526004016115dc9061305e565b60405180910390fd5b6115ed61154d565b61162c576040517f08c379a0000000000000000000000000000000000000000000000000000000008152600401611623906130ca565b60405180910390fd5b60006008549050816008819055507f20cb277045b07975ddd69579bb7c5703b15359a94bc8b635d4a17c243c8a65ac33828460405161166d93929190613121565b60405180910390a15050565b600760009054906101000a900473ffffffffffffffffffffffffffffffffffffffff1681565b6040517f08c379a00000000000000000000000000000000000000000000000000000000081526004016116d190613475565b60405180910390fd5b6116e2612507565b73ffffffffffffffffffffffffffffffffffffffff166117006117ae565b73ffffffffffffffffffffffffffffffffffffffff1614611756576040517f08c379a000000000000000000000000000000000000000000000000000000000815260040161174d9061305e565b60405180910390fd5b61175e61154d565b1561179e576040517f08c379a0000000000000000000000000000000000000000000000000000000008152600401611795906131a4565b60405180910390fd5b6117a66125b0565b565b600a5481565b60008060009054906101000a900473ffffffffffffffffffffffffffffffffffffffff16905090565b6117df61154d565b1561181f576040517f08c379a0000000000000000000000000000000000000000000000000000000008152600401611816906131a4565b60405180910390fd5b600061182a3461206a565b9050600b54811015611871576040517f08c379a000000000000000000000000000000000000000000000000000000000815260040161186890613507565b60405180910390fd5b6000600c5460643461188391906133f8565b61188d9190612fa7565b90506000600760009054906101000a900473ffffffffffffffffffffffffffffffffffffffff1673ffffffffffffffffffffffffffffffffffffffff1682346118d69190613527565b3387876040516024016118eb93929190613121565b6040516020818303038152906040527f889f7d85000000000000000000000000000000000000000000000000000000007bffffffffffffffffffffffffffffffffffffffffffffffffffffffff19166020820180517bffffffffffffffffffffffffffffffffffffffffffffffffffffffff8381831617835250505050604051611975919061323e565b60006040518083038185875af1925050503d80600081146119b2576040519150601f19603f3d011682016040523d82523d6000602084013e6119b7565b606091505b50509050806119fb576040517f08c379a00000000000000000000000000000000000000000000000000000000081526004016119f2906135a7565b60405180910390fd5b7ffa46e5ec587216687a4a33c4e605f1483f16833be6465e442d80d7bcbaec2eaf33868685604051611a3094939291906135c7565b60405180910390a15050505050565b600b5481565b611a4d612507565b73ffffffffffffffffffffffffffffffffffffffff16611a6b6117ae565b73ffffffffffffffffffffffffffffffffffffffff1614611ac1576040517f08c379a0000000000000000000000000000000000000000000000000000000008152600401611ab89061305e565b60405180910390fd5b611ac961154d565b611b08576040517f08c379a0000000000000000000000000000000000000000000000000000000008152600401611aff906130ca565b60405180910390fd5b6000600c54905081600c819055507f93dcb4d14ff2c7a93d0076d4d9fbf19c189f2de91a9ba7d79bb80115fe7a852d338284604051611b4993929190613121565b60405180910390a15050565b600c5481565b611b63612507565b73ffffffffffffffffffffffffffffffffffffffff16611b816117ae565b73ffffffffffffffffffffffffffffffffffffffff1614611bd7576040517f08c379a0000000000000000000000000000000000000000000000000000000008152600401611bce9061305e565b60405180910390fd5b611bdf61154d565b611c1e576040517f08c379a0000000000000000000000000000000000000000000000000000000008152600401611c15906130ca565b60405180910390fd5b6000600a54905081600a819055507fd1a0f1c3e15bbeb47f950c6fd7572c460678919e9d839966bf073b487365e4bb338284604051611c5f93929190613121565b60405180910390a15050565b6000806000600560009054906101000a900473ffffffffffffffffffffffffffffffffffffffff1673ffffffffffffffffffffffffffffffffffffffff1633604051602401611cba9190612ae9565b6040516020818303038152906040527fe3a9db1a000000000000000000000000000000000000000000000000000000007bffffffffffffffffffffffffffffffffffffffffffffffffffffffff19166020820180517bffffffffffffffffffffffffffffffffffffffffffffffffffffffff8381831617835250505050604051611d44919061323e565b6000604051808303816000865af19150503d8060008114611d81576040519150601f19603f3d011682016040523d82523d6000602084013e611d86565b606091505b509150915081611dcb576040517f08c379a0000000000000000000000000000000000000000000000000000000008152600401611dc29061367e565b60405180910390fd5b600081806020019051810190611de1919061369e565b905080935050505090565b611df4612507565b73ffffffffffffffffffffffffffffffffffffffff16611e126117ae565b73ffffffffffffffffffffffffffffffffffffffff1614611e68576040517f08c379a0000000000000000000000000000000000000000000000000000000008152600401611e5f9061305e565b60405180910390fd5b6000600160009054906101000a900473ffffffffffffffffffffffffffffffffffffffff16905081600160006101000a81548173ffffffffffffffffffffffffffffffffffffffff021916908373ffffffffffffffffffffffffffffffffffffffff1602179055507fb9515b0e9bbaa4038b7497d737691b38d19b454e0bcdc0ecc69472117684e192338284604051611f03939291906130ea565b60405180910390a15050565b600560009054906101000a900473ffffffffffffffffffffffffffffffffffffffff1681565b600060025460095483611f489190612fa7565b60085485611f569190612fa7565b611f6091906136cb565b611f6a9190612fa7565b905092915050565b611f7a612507565b73ffffffffffffffffffffffffffffffffffffffff16611f986117ae565b73ffffffffffffffffffffffffffffffffffffffff1614611fee576040517f08c379a0000000000000000000000000000000000000000000000000000000008152600401611fe59061305e565b60405180910390fd5b600073ffffffffffffffffffffffffffffffffffffffff168173ffffffffffffffffffffffffffffffffffffffff16141561205e576040517f08c379a000000000000000000000000000000000000000000000000000000000815260040161205590613793565b60405180910390fd5b61206781612653565b50565b60006002548261207a91906133f8565b9050919050565b600160009054906101000a900473ffffffffffffffffffffffffffffffffffffffff1681565b600660009054906101000a900473ffffffffffffffffffffffffffffffffffffffff1681565b60006120d761154d565b15612117576040517f08c379a000000000000000000000000000000000000000000000000000000000815260040161210e906131a4565b60405180910390fd5b600061212584518451611f35565b90508034101561216a576040517f08c379a000000000000000000000000000000000000000000000000000000000815260040161216190613825565b60405180910390fd5b60005b835181101561230a5760005b84828151811061218c5761218b613845565b5b6020026020010151518110156122f6576000600460009054906101000a900473ffffffffffffffffffffffffffffffffffffffff1673ffffffffffffffffffffffffffffffffffffffff166399b87f6c8785815181106121ef576121ee613845565b5b6020026020010151848151811061220957612208613845565b5b6020026020010151600001516040518263ffffffff1660e01b815260040161223191906138b8565b60006040518083038186803b15801561224957600080fd5b505afa15801561225d573d6000803e3d6000fd5b505050506040513d6000823e3d601f19601f82011682018060405250810190612286919061396f565b9150506122a28160405180602001604052806000815250610928565b156122e2576040517f08c379a00000000000000000000000000000000000000000000000000000000081526004016122d990613a3d565b60405180910390fd5b5080806122ee90613a5d565b915050612179565b50808061230290613a5d565b91505061216d565b506000600660009054906101000a900473ffffffffffffffffffffffffffffffffffffffff1673ffffffffffffffffffffffffffffffffffffffff1663fc51821c86866040518363ffffffff1660e01b815260040161236a929190613dab565b602060405180830381600087803b15801561238457600080fd5b505af1158015612398573d6000803e3d6000fd5b505050506040513d601f19601f820116820180604052508101906123bc919061369e565b9050600082346123cc9190613527565b905060008111156124c05760003373ffffffffffffffffffffffffffffffffffffffff16826040516123fd90613e08565b60006040518083038185875af1925050503d806000811461243a576040519150601f19603f3d011682016040523d82523d6000602084013e61243f565b606091505b5050905080612483576040517f08c379a000000000000000000000000000000000000000000000000000000000815260040161247a90613e8f565b60405180910390fd5b7f06a8acc0e592ef9d5924c211904629acef99f7d13d3c585219454c7fe93cd4ef3384846040516124b693929190613121565b60405180910390a1505b7f1e34314d10c294e150d9078dc4808fbc4e77807ab189f2556837ace7999588903383856040516124f393929190613121565b60405180910390a181935050505092915050565b600033905090565b61251761154d565b612556576040517f08c379a000000000000000000000000000000000000000000000000000000000815260040161254d906130ca565b60405180910390fd5b60008060146101000a81548160ff0219169083151502179055507f5db9ee0a495bf2e6ff9c91a7834c1ba4fdd244a5e8aa4e537bd38aeae4b073aa612599612507565b6040516125a69190612ae9565b60405180910390a1565b6125b861154d565b156125f8576040517f08c379a00000000000000000000000000000000000000000000000000000000081526004016125ef906131a4565b60405180910390fd5b6001600060146101000a81548160ff0219169083151502179055507f62e78cea01bee320cd4e420270b5ea74000d11b0c9f74754ebdbfc544b05a25861263c612507565b6040516126499190612ae9565b60405180910390a1565b60008060009054906101000a900473ffffffffffffffffffffffffffffffffffffffff169050816000806101000a81548173ffffffffffffffffffffffffffffffffffffffff021916908373ffffffffffffffffffffffffffffffffffffffff1602179055508173ffffffffffffffffffffffffffffffffffffffff168173ffffffffffffffffffffffffffffffffffffffff167f8be0079c531659141344cd1fd0a4f28419497f9722a3daafe3b4186f6b6457e060405160405180910390a35050565b6000819050919050565b61272a81612717565b82525050565b60006020820190506127456000830184612721565b92915050565b6000604051905090565b600080fd5b600080fd5b61276881612717565b811461277357600080fd5b50565b6000813590506127858161275f565b92915050565b6000602082840312156127a1576127a0612755565b5b60006127af84828501612776565b91505092915050565b600080fd5b600080fd5b6000601f19601f8301169050919050565b7f4e487b7100000000000000000000000000000000000000000000000000000000600052604160045260246000fd5b61280b826127c2565b810181811067ffffffffffffffff8211171561282a576128296127d3565b5b80604052505050565b600061283d61274b565b90506128498282612802565b919050565b600067ffffffffffffffff821115612869576128686127d3565b5b612872826127c2565b9050602081019050919050565b82818337600083830152505050565b60006128a161289c8461284e565b612833565b9050828152602081018484840111156128bd576128bc6127bd565b5b6128c884828561287f565b509392505050565b600082601f8301126128e5576128e46127b8565b5b81356128f584826020860161288e565b91505092915050565b6000806040838503121561291557612914612755565b5b600083013567ffffffffffffffff8111156129335761293261275a565b5b61293f858286016128d0565b925050602083013567ffffffffffffffff8111156129605761295f61275a565b5b61296c858286016128d0565b9150509250929050565b60008115159050919050565b61298b81612976565b82525050565b60006020820190506129a66000830184612982565b92915050565b600073ffffffffffffffffffffffffffffffffffffffff82169050919050565b60006129d7826129ac565b9050919050565b6129e7816129cc565b81146129f257600080fd5b50565b600081359050612a04816129de565b92915050565b600060208284031215612a2057612a1f612755565b5b6000612a2e848285016129f5565b91505092915050565b6000604082019050612a4c6000830185612721565b612a596020830184612721565b9392505050565b6000819050919050565b6000612a85612a80612a7b846129ac565b612a60565b6129ac565b9050919050565b6000612a9782612a6a565b9050919050565b6000612aa982612a8c565b9050919050565b612ab981612a9e565b82525050565b6000602082019050612ad46000830184612ab0565b92915050565b612ae3816129cc565b82525050565b6000602082019050612afe6000830184612ada565b92915050565b60008060408385031215612b1b57612b1a612755565b5b6000612b2985828601612776565b9250506020612b3a85828601612776565b9150509250929050565b6000612b4f82612a8c565b9050919050565b612b5f81612b44565b82525050565b6000602082019050612b7a6000830184612b56565b92915050565b6000612b8b82612a8c565b9050919050565b612b9b81612b80565b82525050565b6000602082019050612bb66000830184612b92565b92915050565b600067ffffffffffffffff821115612bd757612bd66127d3565b5b602082029050602081019050919050565b600080fd5b6000612c00612bfb84612bbc565b612833565b90508083825260208201905060208402830185811115612c2357612c22612be8565b5b835b81811015612c4c5780612c3888826129f5565b845260208401935050602081019050612c25565b5050509392505050565b600082601f830112612c6b57612c6a6127b8565b5b8135612c7b848260208601612bed565b91505092915050565b600067ffffffffffffffff821115612c9f57612c9e6127d3565b5b602082029050602081019050919050565b600067ffffffffffffffff821115612ccb57612cca6127d3565b5b602082029050602081019050919050565b600080fd5b600080fd5b600060808284031215612cfc57612cfb612cdc565b5b612d066080612833565b9050600082013567ffffffffffffffff811115612d2657612d25612ce1565b5b612d32848285016128d0565b600083015250602082013567ffffffffffffffff811115612d5657612d55612ce1565b5b612d62848285016128d0565b6020830152506040612d7684828501612776565b6040830152506060612d8a848285016129f5565b60608301525092915050565b6000612da9612da484612cb0565b612833565b90508083825260208201905060208402830185811115612dcc57612dcb612be8565b5b835b81811015612e1357803567ffffffffffffffff811115612df157612df06127b8565b5b808601612dfe8982612ce6565b85526020850194505050602081019050612dce565b5050509392505050565b600082601f830112612e3257612e316127b8565b5b8135612e42848260208601612d96565b91505092915050565b6000612e5e612e5984612c84565b612833565b90508083825260208201905060208402830185811115612e8157612e80612be8565b5b835b81811015612ec857803567ffffffffffffffff811115612ea657612ea56127b8565b5b808601612eb38982612e1d565b85526020850194505050602081019050612e83565b5050509392505050565b600082601f830112612ee757612ee66127b8565b5b8135612ef7848260208601612e4b565b91505092915050565b60008060408385031215612f1757612f16612755565b5b600083013567ffffffffffffffff811115612f3557612f3461275a565b5b612f4185828601612c56565b925050602083013567ffffffffffffffff811115612f6257612f6161275a565b5b612f6e85828601612ed2565b9150509250929050565b7f4e487b7100000000000000000000000000000000000000000000000000000000600052601160045260246000fd5b6000612fb282612717565b9150612fbd83612717565b9250817fffffffffffffffffffffffffffffffffffffffffffffffffffffffffffffffff0483118215151615612ff657612ff5612f78565b5b828202905092915050565b600082825260208201905092915050565b7f4f776e61626c653a2063616c6c6572206973206e6f7420746865206f776e6572600082015250565b6000613048602083613001565b915061305382613012565b602082019050919050565b600060208201905081810360008301526130778161303b565b9050919050565b7f5061757361626c653a206e6f7420706175736564000000000000000000000000600082015250565b60006130b4601483613001565b91506130bf8261307e565b602082019050919050565b600060208201905081810360008301526130e3816130a7565b9050919050565b60006060820190506130ff6000830186612ada565b61310c6020830185612ada565b6131196040830184612ada565b949350505050565b60006060820190506131366000830186612ada565b6131436020830185612721565b6131506040830184612721565b949350505050565b7f5061757361626c653a2070617573656400000000000000000000000000000000600082015250565b600061318e601083613001565b915061319982613158565b602082019050919050565b600060208201905081810360008301526131bd81613181565b9050919050565b600081519050919050565b600081905092915050565b60005b838110156131f85780820151818401526020810190506131dd565b83811115613207576000848401525b50505050565b6000613218826131c4565b61322281856131cf565b93506132328185602086016131da565b80840191505092915050565b600061324a828461320d565b915081905092915050565b7f50726f78793a20556e61626c6520746f20776974686472617721000000000000600082015250565b600061328b601a83613001565b915061329682613255565b602082019050919050565b600060208201905081810360008301526132ba8161327e565b9050919050565b600069ffffffffffffffffffff82169050919050565b6132e0816132c1565b81146132eb57600080fd5b50565b6000815190506132fd816132d7565b92915050565b6000819050919050565b61331681613303565b811461332157600080fd5b50565b6000815190506133338161330d565b92915050565b6000815190506133488161275f565b92915050565b600080600080600060a0868803121561336a57613369612755565b5b6000613378888289016132ee565b955050602061338988828901613324565b945050604061339a88828901613339565b93505060606133ab88828901613339565b92505060806133bc888289016132ee565b9150509295509295909350565b7f4e487b7100000000000000000000000000000000000000000000000000000000600052601260045260246000fd5b600061340382612717565b915061340e83612717565b92508261341e5761341d6133c9565b5b828204905092915050565b7f436f6e74726163742063616e6e6f74206265207265766f6b6564000000000000600082015250565b600061345f601a83613001565b915061346a82613429565b602082019050919050565b6000602082019050818103600083015261348e81613452565b9050919050565b7f5472616e73616374696f6e206d696e696d616c2076616c7565206e6f7420726560008201527f6163686564000000000000000000000000000000000000000000000000000000602082015250565b60006134f1602583613001565b91506134fc82613495565b604082019050919050565b60006020820190508181036000830152613520816134e4565b9050919050565b600061353282612717565b915061353d83612717565b9250828210156135505761354f612f78565b5b828203905092915050565b7f50726f78793a20556e61626c6520746f20657865637574652072756c65000000600082015250565b6000613591601d83613001565b915061359c8261355b565b602082019050919050565b600060208201905081810360008301526135c081613584565b9050919050565b60006080820190506135dc6000830187612ada565b6135e96020830186612721565b6135f66040830185612721565b6136036060830184612721565b95945050505050565b7f50726f78793a20556e61626c6520746f2067657420746865206465706f73697460008201527f206f662063616c6c657221000000000000000000000000000000000000000000602082015250565b6000613668602b83613001565b91506136738261360c565b604082019050919050565b600060208201905081810360008301526136978161365b565b9050919050565b6000602082840312156136b4576136b3612755565b5b60006136c284828501613339565b91505092915050565b60006136d682612717565b91506136e183612717565b9250827fffffffffffffffffffffffffffffffffffffffffffffffffffffffffffffffff0382111561371657613715612f78565b5b828201905092915050565b7f4f776e61626c653a206e6577206f776e657220697320746865207a65726f206160008201527f6464726573730000000000000000000000000000000000000000000000000000602082015250565b600061377d602683613001565b915061378882613721565b604082019050919050565b600060208201905081810360008301526137ac81613770565b9050919050565b7f496e73756666696369656e742076616c756520746f20636f766572207468652060008201527f6465616c206372656174696f6e20666565730000000000000000000000000000602082015250565b600061380f603283613001565b915061381a826137b3565b604082019050919050565b6000602082019050818103600083015261383e81613802565b9050919050565b7f4e487b7100000000000000000000000000000000000000000000000000000000600052603260045260246000fd5b600081519050919050565b600061388a82613874565b6138948185613001565b93506138a48185602086016131da565b6138ad816127c2565b840191505092915050565b600060208201905081810360008301526138d2818461387f565b905092915050565b600381106138e757600080fd5b50565b6000815190506138f9816138da565b92915050565b600061391261390d8461284e565b612833565b90508281526020810184848401111561392e5761392d6127bd565b5b6139398482856131da565b509392505050565b600082601f830112613956576139556127b8565b5b81516139668482602086016138ff565b91505092915050565b6000806040838503121561398657613985612755565b5b6000613994858286016138ea565b925050602083015167ffffffffffffffff8111156139b5576139b461275a565b5b6139c185828601613941565b9150509250929050565b7f50726f78792e4372656174654465616c3a20496e737472756374696f6e20697360008201527f206e6f7420737570706f72746564000000000000000000000000000000000000602082015250565b6000613a27602e83613001565b9150613a32826139cb565b604082019050919050565b60006020820190508181036000830152613a5681613a1a565b9050919050565b6000613a6882612717565b91507fffffffffffffffffffffffffffffffffffffffffffffffffffffffffffffffff821415613a9b57613a9a612f78565b5b600182019050919050565b600081519050919050565b600082825260208201905092915050565b6000819050602082019050919050565b613adb816129cc565b82525050565b6000613aed8383613ad2565b60208301905092915050565b6000602082019050919050565b6000613b1182613aa6565b613b1b8185613ab1565b9350613b2683613ac2565b8060005b83811015613b57578151613b3e8882613ae1565b9750613b4983613af9565b925050600181019050613b2a565b5085935050505092915050565b600081519050919050565b600082825260208201905092915050565b6000819050602082019050919050565b600081519050919050565b600082825260208201905092915050565b6000819050602082019050919050565b600082825260208201905092915050565b6000613bd882613874565b613be28185613bbc565b9350613bf28185602086016131da565b613bfb816127c2565b840191505092915050565b613c0f81612717565b82525050565b60006080830160008301518482036000860152613c328282613bcd565b91505060208301518482036020860152613c4c8282613bcd565b9150506040830151613c616040860182613c06565b506060830151613c746060860182613ad2565b508091505092915050565b6000613c8b8383613c15565b905092915050565b6000602082019050919050565b6000613cab82613b90565b613cb58185613b9b565b935083602082028501613cc785613bac565b8060005b85811015613d035784840389528151613ce48582613c7f565b9450613cef83613c93565b925060208a01995050600181019050613ccb565b50829750879550505050505092915050565b6000613d218383613ca0565b905092915050565b6000602082019050919050565b6000613d4182613b64565b613d4b8185613b6f565b935083602082028501613d5d85613b80565b8060005b85811015613d995784840389528151613d7a8582613d15565b9450613d8583613d29565b925060208a01995050600181019050613d61565b50829750879550505050505092915050565b60006040820190508181036000830152613dc58185613b06565b90508181036020830152613dd98184613d36565b90509392505050565b50565b6000613df26000836131cf565b9150613dfd82613de2565b600082019050919050565b6000613e1382613de5565b9150819050919050565b7f50726f78792e6372656174654465616c3a204661696c656420746f207265696d60008201527f6275727365206578636573732045544800000000000000000000000000000000602082015250565b6000613e79603083613001565b9150613e8482613e1d565b604082019050919050565b60006020820190508181036000830152613ea881613e6c565b905091905056fea26469706673582212205741472b6f9a0610a0a1682ed8ac668c94b3882ee404d145ab73ff706328e71964736f6c63430008090033",
  "immutableReferences": {},
  "source": "// SPDX-License-Identifier: GPL-3.0\npragma solidity ^0.8.0;\n\n/* EXTERNAL DEPENDENCIES */\nimport \"@openzeppelin/contracts/access/Ownable.sol\";\nimport \"@openzeppelin/contracts/security/Pausable.sol\";\nimport \"@chainlink/contracts/src/v0.8/interfaces/AggregatorV3Interface.sol\";\n\n/* INTERNAL DEPENDENCIES */\nimport \"./CommonStructs.sol\";\nimport \"./Instructions.sol\";\nimport \"./Deals.sol\";\n\n// TODO: Ajouter un payable fallback a tous les contracts pour voir ce qu'on fait quand on reoit de l'argent par erreur\n//        ==> Hriter d'une classe qui redirige l'argent vers le proxy ou bien juste rembourser les sous\n\n// TODO: Check how to integrate the allowAllAccounts in the interpreter. Should I add it as a param in the deal?\n\n/// @title Proxy Contract\n/// @dev Main DApp entry point. Exposes the public interface and decouple the data and the logic\n/// @notice lets-make-a-deal.eth allows you to make an agreement between different parties and automatically route ETH to different addresses based on simple rules.\ncontract Proxy is Ownable, Pausable {\n    \n    /* STORAGE VARIABLES */\n\n    /// @dev Chainlink ETH/USD price feed aggregator link on Rinkeby\n    AggregatorV3Interface public priceFeedRef;\n\n    /// @dev Last quotation value in USD per ETH with 8 decimals precision fetched from Chainlink\n    uint public lastQuotationValue;\n\n    /// @dev Last quotation timestamp fetched from Chainlink\n    uint public lastQuotationTimestamp;\n\n    // References to external contracts\n\n    /// @dev Reference to the Instructions contract\n    Instructions public instructionsContractRef;\n\n    /// @dev Reference to the InstructionsProvider contract\n    address public instructionsProviderContractRef;\n\n    /// @dev Reference to the Deals instance\n    Deals public dealsContractRef;\n\n    /// @dev Reference to the Interpreter contract\n    address public interpreterContractRef;\n\n    // Contract fees\n\n    /// @dev Price per account added to the deal in USD\n    uint public accountCreationFees;\n    \n    /// @dev Price per rule added to the deal in USD\n    uint public ruleCreationFees;\n\n    /// @dev Price to allow incoming payments from all addresses others than internal/external accounts in USD\n    uint public allowAllAddressesFees;\n\n    /// @dev Minimal transaction value able to trigger an execution in USDimport \"@openzeppelin/contracts/security/Pausable.sol\";\n    uint public transactionMinimalValue;\n\n    /// @dev Transaction fees in % of the msg.value perceived on a deal execution in USD\n    uint public transactionFees;\n\n    /* MAPPINGS */\n    \n    /* MODIFIERS */\n\n    /* EVENTS */\n\n    // Modify Chainlink ETH/USD price feed aggregator address\n\n    /**\n    * @dev Event emitted when the Chainlink ETH/USD price feed aggregator address is changed\n    * @param _from Caller address\n    * @param _old Old address of the Chainlink ETH/USD price feed aggregator address\n    * @param _new New address of the Chainlink ETH/USD price feed aggregator address\n    */\n    event ModifyPriceFeedRefAggregatorAddress(address _from, address _old, address _new);\n    \n    // Modify contract references\n\n    /**\n    * @dev Event emitted when the Instructions contract reference is changed\n    * @param _from Caller address\n    * @param _old Old address of the Instructions contract\n    * @param _new New address of the Instructions contract\n    */\n    event ModifyInstructionsContractAddress(address _from, address _old, address _new);\n\n    /**\n    * @dev Event emitted when the InstructionsProvider contract reference is changed\n    * @param _from Caller address\n    * @param _old Old address of the InstructionsProvider contract\n    * @param _new New address of the InstructionsProvider contract\n    */\n    event ModifyInstructionsProviderContractAddress(address _from, address _old, address _new);\n\n    /**\n    * @dev Event emitted when the Deals contract reference is changed\n    * @param _from Caller address\n    * @param _old Old address of the Deals contract\n    * @param _new New address of the Deals contract\n    */\n    event ModifyDealsContractAddress(address _from, address _old, address _new);\n    \n    /**\n    * @dev Event emitted when the Interpreter contract reference is changed\n    * @param _from Caller address\n    * @param _old Old address of the Interpreter contract\n    * @param _new New address of the Interpreter contract\n    */\n    event ModifyInterpreterContractAddress(address _from, address _old, address _new);\n    \n    // Modify fees\n \n    /** \n    * @dev Event emitted when the account creation fees is changed\n    * @param _from : msg.sender\n    * @param _old : old account creation fees in USD\n    * @param _new : new account creation fees in USD\n    */\n    event ModifyAccountCreationFees(address _from, uint _old, uint _new);\n\n    /** \n    * @dev Event emitted when the rule creation fees is changed\n    * @param _from : msg.sender\n    * @param _old : old rule creation fees in USD\n    * @param _new : new rule creation fees in USD\n    */\n    event ModifyRuleCreationFees(address _from, uint _old, uint _new);\n\n    /** \n    * @dev Event emitted when the allow all accounts fees is changed\n    * @param _from : msg.sender\n    * @param _old : old allow all accounts fees in USD\n    * @param _new : new allow all accounts fees in USD\n    */\n    event ModifyAllowAllAccountsFees(address _from, uint _old, uint _new);\n\n    /** \n    * @dev Event emitted when the transaction minimal value is changed\n    * @param _from : msg.sender\n    * @param _old : old transaction minimal value in USD\n    * @param _new : new transaction minimal value in USD\n    */\n    event ModifyTransactionMinimalValue(address _from, uint _old, uint _new);\n\n    /** \n    * @dev Event emitted when the transaction fees are changed\n    * @param _from : msg.sender\n    * @param _old : old transaction fees value in % of msg.value\n    * @param _new : new transaction fees value in % of msg.value\n    */\n    event ModifyTransactionFees(address _from, uint _old, uint _new);\n    \n    /** \n    * @dev Event emitted when the WEI to USD conversion rate is updated from Chainlink\n    * @param _from : msg.sender\n    * @param _value : WEI/USD price at the time the Chainlink Oracle was called\n    * @param _timestamp : timestamp at which the price was fetched from Chainlink\n    */\n    event QueryLastQuotationFromChainlink(address _from, uint _value, uint _timestamp);\n\n    /** \n    * @dev Event emitted when the deal creation fees are paid\n    * @param _from : msg.sender\n    * @param _dealId : Id of the created deal\n    * @param _fees : Fees paid by the user in ETH\n    */\n    event PayDealCreationFees(address _from, uint _dealId, uint _fees);\n\n    /** \n    * @dev Event emitted when the transaction fees are paid\n    * @param _from : msg.sender\n    * @param _dealId : Id of the executed deal \n    * @param _ruleId : Id of the executed rule\n    * @param _fees : Fees paid by the user in ETH\n    */\n    event PayTransactionFees(address _from, uint _dealId, uint _ruleId, uint _fees);\n\n    /** \n    * @dev Event emitted when an excess value is reimbursed to the user\n    * @param _to : address of the caller (msg.sender) where the excess value is reimbursed\n    * @param _dealId : Id of the created deal \n    * @param _amount : Amount reimbursed to the user in ETH\n    */\n    event ReimburseExcessValue(address _to, uint _dealId, uint _amount);\n    \n\n    /* CONSTRUCTOR */\n\n    /** \n    * @dev Constructor: Initialize storage variables\n    * @param _accountCreationFees Creation fees per account in Wei \n    * @param _ruleCreationFees Creation fees per rule in Wei \n    * @param _allowAllAddressesFees Creation fees to allow incoming payments from all addresses\n    * @param _transactionMinimalValue Minimal value to trigger a rule execution\n    * @param _transactionFees Transaction fees paid to execute a rule in % of msg.value (1=1%)\n    * @param _lastQuotationValue Wei per USD conversion rate\n    */\n    constructor (\n        uint _accountCreationFees, \n        uint _ruleCreationFees,\n        uint _allowAllAddressesFees,\n        uint _transactionMinimalValue,\n        uint _transactionFees,\n        uint _lastQuotationValue\n    ) {\n        accountCreationFees = _accountCreationFees;\n        ruleCreationFees = _ruleCreationFees;\n        allowAllAddressesFees = _allowAllAddressesFees;\n        transactionMinimalValue = _transactionMinimalValue;\n        transactionFees = _transactionFees;\n        lastQuotationValue = _lastQuotationValue;\n    }\n    \n    /* SEND & FALLBACK */\n    \n    // No payable send or fallback function includes so that the contract will return any ETH send with a call without call values\n    // https://docs.soliditylang.org/en/v0.8.9/contracts.html#receive-ether-function\n    \n    /* OWNER INTERFACE */\n\n    // Address to Chainlink ETH/USD price feed aggregator\n    \n    /**\n    * @dev Set the address to the Chainlink ETH/USD price feed aggregator\n    * @param _new New address to the Chainlink ETH/USD price feed aggregator\n    */\n    function setPriceFeedRefAggregatorAddress(address _new) public onlyOwner {\n        address old = address(priceFeedRef);\n        priceFeedRef = AggregatorV3Interface(_new);\n        emit ModifyPriceFeedRefAggregatorAddress(msg.sender, old, _new);\n    }\n\n    // References to external contracts\n    \n    /**\n    * @dev Sets the Instructions contract reference to a new value\n    * @param _new New address of the Instructions contract\n    */\n    function setInstructionsContractRef(address _new) public onlyOwner whenPaused {\n        address old = address(instructionsContractRef);\n        instructionsContractRef = Instructions(_new);\n        emit ModifyInstructionsContractAddress(msg.sender, old, _new);\n    }\n\n    /**\n    * @dev Sets the InstructionsProvider contract reference to a new value\n    * @param _new New address of the InstructionsProvider contract\n    */\n    function setInstructionsProviderContractRef(address _new) public onlyOwner whenPaused {\n        address old = instructionsProviderContractRef;\n        instructionsProviderContractRef = _new;\n        emit ModifyInstructionsProviderContractAddress(msg.sender, old, _new);\n    }\n\n    /**\n    * @dev Sets the Deals contract reference to a new value\n    * @param _new New address of the Deals contract\n    */\n    function setDealsContractRef(address _new) public onlyOwner whenPaused {\n        address old = address(dealsContractRef);\n        dealsContractRef = Deals(_new);\n        emit ModifyDealsContractAddress(msg.sender, old, _new);\n    }\n    \n    /**\n    * @dev Sets the Interpreter contract reference to a new value\n    * @param _new New address of the Interpreter contract\n    */\n    function setInterpreterContractRef(address _new) public onlyOwner whenPaused {\n        address old = interpreterContractRef;\n        interpreterContractRef = _new;\n        emit ModifyInterpreterContractAddress(msg.sender, old, _new);\n    }\n\n    // Contract fees\n\n    /**\n    * @dev Sets the account creation fees to a new value\n    * @param _new New value for the account creation fees in USD\n    */\n    function setAccountCreationFees(uint _new) public onlyOwner whenPaused {\n        uint old = accountCreationFees;\n        accountCreationFees = _new;\n        emit ModifyAccountCreationFees(msg.sender, old, _new);\n    }\n    \n    /**\n    * @dev Sets the rule creation fees to a new value\n    * @param _new New value for the rule creation fees in USD\n    */\n    function setRuleCreationFees(uint _new) public onlyOwner whenPaused {\n        uint old = ruleCreationFees;\n        ruleCreationFees = _new;\n        emit ModifyRuleCreationFees(msg.sender, old, _new);\n    }\n\n    /**\n    * @dev Sets the allow all addresses fees to a new value\n    * @param _new New value for the allow all addresses fees in USD\n    */\n    function setAllowAllAddressesFees(uint _new) public onlyOwner whenPaused {\n        uint old = allowAllAddressesFees;\n        allowAllAddressesFees = _new;\n        emit ModifyAllowAllAccountsFees(msg.sender, old, _new);\n    }\n\n    /**\n    * @dev Sets the transaction minimal value to a new value\n    * @param _new New value for the transaction minimal value in USD\n    */\n    function setTransactionMinimalValue(uint _new) public onlyOwner whenPaused {\n        uint old = transactionMinimalValue;\n        transactionMinimalValue = _new;\n        emit ModifyTransactionMinimalValue(msg.sender, old, _new);\n    }\n\n    /**\n    * @dev Sets the transaction fees to a new value\n    * @param _new New value for the transaction fees in USD\n    */\n    function setTransactionFees(uint _new) public onlyOwner whenPaused {\n        uint old = transactionFees;\n        transactionFees = _new;\n        emit ModifyTransactionFees(msg.sender, old, _new);\n    }\n\n    /* PUBLIC INTERFACE */\n\n    /**\n    * @dev Creates a deal and returns its id\n    * @param _accounts List of accounts addresses linked to the deal\n    * @param _rulesList List of the rules linked to the deal (rule = list of Articles)\n    * @return Id of the deal created\n    */\n    function createDeal\n    (\n        address[] memory _accounts, \n        CommonStructs.Article[][] memory _rulesList\n    ) \n    external \n    payable \n    whenNotPaused\n    returns (uint) {\n        // Compute creation fees in WEI\n        uint creationFeesInWEI = computeDealCreationFeesInWEI(_accounts.length, _rulesList.length);\n\n        // Check 1: Amount sent by the user should cover the deal creation fees\n        require(msg.value >= creationFeesInWEI, \"Insufficient value to cover the deal creation fees\");\n        \n        // Check 2: Make sure that the instructions are all supported\n        for (uint i=0;i<_rulesList.length;i++) {\n            for (uint j=0;j<_rulesList[i].length;j++) {\n                // Get the instruction type & signature\n                (, string memory instructionSignature) = instructionsContractRef.getInstruction(_rulesList[i][j].instructionName);\n                \n                // If the signature is empty, this means that the instruction is not present => revert\n                require(!stringsEqual(instructionSignature,''),\"Proxy.CreateDeal: Instruction is not supported\");\n            }\n        }\n\n        // Create the deal\n        uint dealId = dealsContractRef.createDeal(_accounts, _rulesList);\n        \n        // Reimburse excess value to the caller if necessary\n        uint excessValue = (msg.value - creationFeesInWEI);\n        if (excessValue > 0){\n            (bool sent, ) = msg.sender.call{value: excessValue } (\"\");\n            require(sent, \"Proxy.createDeal: Failed to reimburse excess ETH\");\n            emit ReimburseExcessValue(msg.sender, dealId, excessValue);\n        }\n\n        // Emit a PayDealCreationFees\n        emit PayDealCreationFees(msg.sender, dealId, creationFeesInWEI);\n\n        return dealId;\n    }\n\n    /**\n    * @dev Execute a deal's rule\n    * @param _dealId : Id of the deal to execute\n    * @param _ruleId : Id of the rule to execute\n    */\n    function executeRule(uint _dealId, uint _ruleId) external payable whenNotPaused {\n        // Amount sent by the user should be higher or equal to the minimal transaction value\n        uint msgValueInUSD = convertWEI2USD(msg.value);\n        require( msgValueInUSD >= transactionMinimalValue, \"Transaction minimal value not reached\");\n\n        // Upgrability: Low level call to InstructionsProvider\n        // Includes in the call (msg.value - execution fees)\n        uint executionFees = (msg.value / 100) * transactionFees;\n        (bool success, ) = interpreterContractRef.call{value: (msg.value - executionFees)}(\n            abi.encodeWithSignature(\n                \"interpretRule(address,uint256,uint256)\",\n                msg.sender,\n                _dealId, \n                _ruleId\n            )\n        );\n\n        // Did the low level call succeed?\n        require(success,\"Proxy: Unable to execute rule\");\n\n        // Emit a PayTransactionFees\n        emit PayTransactionFees(msg.sender, _dealId, _ruleId, executionFees);\n    }\n\n    /**\n    * @dev Retrieves caller escrow balance.\n    */\n    function depositsOf() public returns (uint) {\n\n        // Upgrability: Low level call to InstructionsProvider\n        (bool success, bytes memory _result) = instructionsProviderContractRef.call(\n            abi.encodeWithSignature(\n                \"depositsOf(address)\",\n                msg.sender\n            )\n        );\n        require(success,\"Proxy: Unable to get the deposit of caller!\");\n\n        uint result = abi.decode(_result, (uint256));\n        return result;\n    }\n\n    /**\n    * @dev Withdraw all deposit from escrow for msg.sender\n    */\n    function withdraw() external whenNotPaused {\n        (bool success,) = instructionsProviderContractRef.call(\n            abi.encodeWithSignature(\n                \"withdraw(address)\",\n                msg.sender\n            )\n        );\n        // Did the low level call succeed?\n        require(success,\"Proxy: Unable to withdraw!\");\n    }\n\n    /**\n    * @dev Get the internal balance of the contract\n    * @return The internal balance of the contract in Wei\n    */\n    function getBalance() external view onlyOwner returns(uint) {\n        return address(this).balance;\n    }\n\n    /* CHAINLINK ETH/USD PRICE FEED AGGREGATOR */    \n    \n    /**\n     * @dev Query & save the latest quotation from ChainLink price feed aggregator on Rinkeby\n     */\n    function saveLatestQuotation() public onlyOwner {\n        // Query last ETH/USD price from ChainLink\n        (\n            //uint80 roundID, \n            ,\n            int price,\n            ,\n            uint timestamp,\n            \n        ) = priceFeedRef.latestRoundData();\n        \n        // Save latest quotation (rounID, price & timestamp)\n        lastQuotationValue = (10**18)*(10**8)/uint(price);\n        lastQuotationTimestamp = timestamp;\n        emit QueryLastQuotationFromChainlink(msg.sender, lastQuotationValue, timestamp);\n    }\n\n    function getLatestQuotation() public view returns(uint, uint) {\n        return (lastQuotationValue, lastQuotationTimestamp);\n    }\n\n    /* HELPER FUNCTIONS */\n    \n    /**\n    * @dev Computes the deal creation cost in WEI\n    * @param _accountsCount Number of external accounts defined in the deal\n    * @param _rulesCount Number of rules defined in the deal\n    * @return Deal creation cost in WEI\n    */\n    function computeDealCreationFeesInWEI\n    (\n        uint _accountsCount, \n        uint _rulesCount\n    ) \n    public view returns (uint) {\n        return (_accountsCount * accountCreationFees + _rulesCount * ruleCreationFees)*lastQuotationValue;\n    }\n\n    /**\n    * @dev Converts an amount in WEI to USD\n    * @param _amountInWEI Amount in WEI\n    * @return Converted amount in USD\n    */\n    function convertWEI2USD(uint _amountInWEI) public view returns(uint) {\n        return _amountInWEI / lastQuotationValue;\n    }\n\n    /**\n    * @dev Converts an amount in USD to WEI\n    * @param _amountInUSD Amount in USD\n    * @return Converted amount in WEI\n    */\n    function convertUSD2WEI(uint _amountInUSD) public view returns(uint) {\n        return _amountInUSD * lastQuotationValue;\n    }\n\n    /** \n    * @dev Checks whether the strings are equal\n    * @param _s1 First string to compare\n    * @param _s2 Second string to compare\n    * @return Boolean indicating if the 2 strings are equal\n    */\n    function stringsEqual(string memory _s1, string memory _s2) public pure returns(bool) {\n        return keccak256(bytes(_s1)) == keccak256(bytes(_s2));\n    }\n\n    /* OpenZeppelin.Pausable */\n\n    /**\n    * @dev Access control inherited from OpenZeppelin Ownable contract\n    * Pausing the contract makes the createDeal function not callable\n    * Getters are still callable\n    * Only owner can call\n    */\n    function pause() public onlyOwner() whenNotPaused() {\n        _pause();\n    }\n\n    /**\n    * @dev Access control inherited from OpenZeppelin Ownable contract\n    * Unpausing the contract makes the createDeal function callable\n    * Only Owner can call\n    */\n    function unpause() public onlyOwner() whenPaused() {\n        _unpause();\n    }\n\n    /* OVERRIDE & BLOCK UNUSED INHERITED FUNCTIONS */\n\n    /**\n    * @dev Block OpenZeppelin Ownable.renounceOwnership\n    * @notice Will always revert\n    */ \n    function renounceOwnership() public pure override {\n        revert('Contract cannot be revoked');\n    }\n}\n",
  "sourcePath": "/home/shakalee/Documents/Consensys/PROJOT-v0/contracts/Proxy.sol",
  "compiler": {
    "name": "solc",
    "version": "0.8.9+commit.e5eed63a.Emscripten.clang"
  },
  "schemaVersion": "3.4.3",
  "updatedAt": "2021-11-28T10:47:33.061Z",
  "networkType": "ethereum",
  "devdoc": {
    "details": "Main DApp entry point. Exposes the public interface and decouple the data and the logic",
    "events": {
      "ModifyAccountCreationFees(address,uint256,uint256)": {
        "details": "Event emitted when the account creation fees is changed",
        "params": {
          "_from": ": msg.sender",
          "_new": ": new account creation fees in USD",
          "_old": ": old account creation fees in USD"
        }
      },
      "ModifyAllowAllAccountsFees(address,uint256,uint256)": {
        "details": "Event emitted when the allow all accounts fees is changed",
        "params": {
          "_from": ": msg.sender",
          "_new": ": new allow all accounts fees in USD",
          "_old": ": old allow all accounts fees in USD"
        }
      },
      "ModifyDealsContractAddress(address,address,address)": {
        "details": "Event emitted when the Deals contract reference is changed",
        "params": {
          "_from": "Caller address",
          "_new": "New address of the Deals contract",
          "_old": "Old address of the Deals contract"
        }
      },
      "ModifyInstructionsContractAddress(address,address,address)": {
        "details": "Event emitted when the Instructions contract reference is changed",
        "params": {
          "_from": "Caller address",
          "_new": "New address of the Instructions contract",
          "_old": "Old address of the Instructions contract"
        }
      },
      "ModifyInstructionsProviderContractAddress(address,address,address)": {
        "details": "Event emitted when the InstructionsProvider contract reference is changed",
        "params": {
          "_from": "Caller address",
          "_new": "New address of the InstructionsProvider contract",
          "_old": "Old address of the InstructionsProvider contract"
        }
      },
      "ModifyInterpreterContractAddress(address,address,address)": {
        "details": "Event emitted when the Interpreter contract reference is changed",
        "params": {
          "_from": "Caller address",
          "_new": "New address of the Interpreter contract",
          "_old": "Old address of the Interpreter contract"
        }
      },
      "ModifyPriceFeedRefAggregatorAddress(address,address,address)": {
        "details": "Event emitted when the Chainlink ETH/USD price feed aggregator address is changed",
        "params": {
          "_from": "Caller address",
          "_new": "New address of the Chainlink ETH/USD price feed aggregator address",
          "_old": "Old address of the Chainlink ETH/USD price feed aggregator address"
        }
      },
      "ModifyRuleCreationFees(address,uint256,uint256)": {
        "details": "Event emitted when the rule creation fees is changed",
        "params": {
          "_from": ": msg.sender",
          "_new": ": new rule creation fees in USD",
          "_old": ": old rule creation fees in USD"
        }
      },
      "ModifyTransactionFees(address,uint256,uint256)": {
        "details": "Event emitted when the transaction fees are changed",
        "params": {
          "_from": ": msg.sender",
          "_new": ": new transaction fees value in % of msg.value",
          "_old": ": old transaction fees value in % of msg.value"
        }
      },
      "ModifyTransactionMinimalValue(address,uint256,uint256)": {
        "details": "Event emitted when the transaction minimal value is changed",
        "params": {
          "_from": ": msg.sender",
          "_new": ": new transaction minimal value in USD",
          "_old": ": old transaction minimal value in USD"
        }
      },
      "PayDealCreationFees(address,uint256,uint256)": {
        "details": "Event emitted when the deal creation fees are paid",
        "params": {
          "_dealId": ": Id of the created deal",
          "_fees": ": Fees paid by the user in ETH",
          "_from": ": msg.sender"
        }
      },
      "PayTransactionFees(address,uint256,uint256,uint256)": {
        "details": "Event emitted when the transaction fees are paid",
        "params": {
          "_dealId": ": Id of the executed deal ",
          "_fees": ": Fees paid by the user in ETH",
          "_from": ": msg.sender",
          "_ruleId": ": Id of the executed rule"
        }
      },
      "QueryLastQuotationFromChainlink(address,uint256,uint256)": {
        "details": "Event emitted when the WEI to USD conversion rate is updated from Chainlink",
        "params": {
          "_from": ": msg.sender",
          "_timestamp": ": timestamp at which the price was fetched from Chainlink",
          "_value": ": WEI/USD price at the time the Chainlink Oracle was called"
        }
      },
      "ReimburseExcessValue(address,uint256,uint256)": {
        "details": "Event emitted when an excess value is reimbursed to the user",
        "params": {
          "_amount": ": Amount reimbursed to the user in ETH",
          "_dealId": ": Id of the created deal ",
          "_to": ": address of the caller (msg.sender) where the excess value is reimbursed"
        }
      }
    },
    "kind": "dev",
    "methods": {
      "computeDealCreationFeesInWEI(uint256,uint256)": {
        "details": "Computes the deal creation cost in WEI",
        "params": {
          "_accountsCount": "Number of external accounts defined in the deal",
          "_rulesCount": "Number of rules defined in the deal"
        },
        "returns": {
          "_0": "Deal creation cost in WEI"
        }
      },
      "constructor": {
        "details": "Constructor: Initialize storage variables",
        "params": {
          "_accountCreationFees": "Creation fees per account in Wei ",
          "_allowAllAddressesFees": "Creation fees to allow incoming payments from all addresses",
          "_lastQuotationValue": "Wei per USD conversion rate",
          "_ruleCreationFees": "Creation fees per rule in Wei ",
          "_transactionFees": "Transaction fees paid to execute a rule in % of msg.value (1=1%)",
          "_transactionMinimalValue": "Minimal value to trigger a rule execution"
        }
      },
      "convertUSD2WEI(uint256)": {
        "details": "Converts an amount in USD to WEI",
        "params": {
          "_amountInUSD": "Amount in USD"
        },
        "returns": {
          "_0": "Converted amount in WEI"
        }
      },
      "convertWEI2USD(uint256)": {
        "details": "Converts an amount in WEI to USD",
        "params": {
          "_amountInWEI": "Amount in WEI"
        },
        "returns": {
          "_0": "Converted amount in USD"
        }
      },
      "createDeal(address[],(string,string,uint256,address)[][])": {
        "details": "Creates a deal and returns its id",
        "params": {
          "_accounts": "List of accounts addresses linked to the deal",
          "_rulesList": "List of the rules linked to the deal (rule = list of Articles)"
        },
        "returns": {
          "_0": "Id of the deal created"
        }
      },
      "depositsOf()": {
        "details": "Retrieves caller escrow balance."
      },
      "executeRule(uint256,uint256)": {
        "details": "Execute a deal's rule",
        "params": {
          "_dealId": ": Id of the deal to execute",
          "_ruleId": ": Id of the rule to execute"
        }
      },
      "getBalance()": {
        "details": "Get the internal balance of the contract",
        "returns": {
          "_0": "The internal balance of the contract in Wei"
        }
      },
      "owner()": {
        "details": "Returns the address of the current owner."
      },
      "pause()": {
        "details": "Access control inherited from OpenZeppelin Ownable contract Pausing the contract makes the createDeal function not callable Getters are still callable Only owner can call"
      },
      "paused()": {
        "details": "Returns true if the contract is paused, and false otherwise."
      },
      "renounceOwnership()": {
        "details": "Block OpenZeppelin Ownable.renounceOwnership"
      },
      "saveLatestQuotation()": {
        "details": "Query & save the latest quotation from ChainLink price feed aggregator on Rinkeby"
      },
      "setAccountCreationFees(uint256)": {
        "details": "Sets the account creation fees to a new value",
        "params": {
          "_new": "New value for the account creation fees in USD"
        }
      },
      "setAllowAllAddressesFees(uint256)": {
        "details": "Sets the allow all addresses fees to a new value",
        "params": {
          "_new": "New value for the allow all addresses fees in USD"
        }
      },
      "setDealsContractRef(address)": {
        "details": "Sets the Deals contract reference to a new value",
        "params": {
          "_new": "New address of the Deals contract"
        }
      },
      "setInstructionsContractRef(address)": {
        "details": "Sets the Instructions contract reference to a new value",
        "params": {
          "_new": "New address of the Instructions contract"
        }
      },
      "setInstructionsProviderContractRef(address)": {
        "details": "Sets the InstructionsProvider contract reference to a new value",
        "params": {
          "_new": "New address of the InstructionsProvider contract"
        }
      },
      "setInterpreterContractRef(address)": {
        "details": "Sets the Interpreter contract reference to a new value",
        "params": {
          "_new": "New address of the Interpreter contract"
        }
      },
      "setPriceFeedRefAggregatorAddress(address)": {
        "details": "Set the address to the Chainlink ETH/USD price feed aggregator",
        "params": {
          "_new": "New address to the Chainlink ETH/USD price feed aggregator"
        }
      },
      "setRuleCreationFees(uint256)": {
        "details": "Sets the rule creation fees to a new value",
        "params": {
          "_new": "New value for the rule creation fees in USD"
        }
      },
      "setTransactionFees(uint256)": {
        "details": "Sets the transaction fees to a new value",
        "params": {
          "_new": "New value for the transaction fees in USD"
        }
      },
      "setTransactionMinimalValue(uint256)": {
        "details": "Sets the transaction minimal value to a new value",
        "params": {
          "_new": "New value for the transaction minimal value in USD"
        }
      },
      "stringsEqual(string,string)": {
        "details": "Checks whether the strings are equal",
        "params": {
          "_s1": "First string to compare",
          "_s2": "Second string to compare"
        },
        "returns": {
          "_0": "Boolean indicating if the 2 strings are equal"
        }
      },
      "transferOwnership(address)": {
        "details": "Transfers ownership of the contract to a new account (`newOwner`). Can only be called by the current owner."
      },
      "unpause()": {
        "details": "Access control inherited from OpenZeppelin Ownable contract Unpausing the contract makes the createDeal function callable Only Owner can call"
      },
      "withdraw()": {
        "details": "Withdraw all deposit from escrow for msg.sender"
      }
    },
    "stateVariables": {
      "accountCreationFees": {
        "details": "Price per account added to the deal in USD"
      },
      "allowAllAddressesFees": {
        "details": "Price to allow incoming payments from all addresses others than internal/external accounts in USD"
      },
      "dealsContractRef": {
        "details": "Reference to the Deals instance"
      },
      "instructionsContractRef": {
        "details": "Reference to the Instructions contract"
      },
      "instructionsProviderContractRef": {
        "details": "Reference to the InstructionsProvider contract"
      },
      "interpreterContractRef": {
        "details": "Reference to the Interpreter contract"
      },
      "lastQuotationTimestamp": {
        "details": "Last quotation timestamp fetched from Chainlink"
      },
      "lastQuotationValue": {
        "details": "Last quotation value in USD per ETH with 8 decimals precision fetched from Chainlink"
      },
      "priceFeedRef": {
        "details": "Chainlink ETH/USD price feed aggregator link on Rinkeby"
      },
      "ruleCreationFees": {
        "details": "Price per rule added to the deal in USD"
      },
      "transactionFees": {
        "details": "Transaction fees in % of the msg.value perceived on a deal execution in USD"
      },
      "transactionMinimalValue": {
        "details": "Minimal transaction value able to trigger an execution in USDimport \"@openzeppelin/contracts/security/Pausable.sol\";"
      }
    },
    "title": "Proxy Contract",
    "version": 1
  },
  "userdoc": {
    "kind": "user",
    "methods": {
      "renounceOwnership()": {
        "notice": "Will always revert"
      }
    },
    "notice": "lets-make-a-deal.eth allows you to make an agreement between different parties and automatically route ETH to different addresses based on simple rules.",
    "version": 1
  }
}