{
  "contractName": "Proxy",
  "abi": [
    {
      "inputs": [
        {
          "internalType": "uint256",
          "name": "_accountCreationFees",
          "type": "uint256"
        },
        {
          "internalType": "uint256",
          "name": "_ruleCreationFees",
          "type": "uint256"
        },
        {
          "internalType": "uint256",
          "name": "_allowAllAddressesFees",
          "type": "uint256"
        },
        {
          "internalType": "uint256",
          "name": "_transactionMinimalValue",
          "type": "uint256"
        },
        {
          "internalType": "uint256",
          "name": "_transactionFees",
          "type": "uint256"
        },
        {
          "internalType": "uint256",
          "name": "_WEI2USDConversionRate",
          "type": "uint256"
        }
      ],
      "stateMutability": "nonpayable",
      "type": "constructor"
    },
    {
      "anonymous": false,
      "inputs": [
        {
          "indexed": false,
          "internalType": "address",
          "name": "_from",
          "type": "address"
        },
        {
          "indexed": false,
          "internalType": "uint256",
          "name": "_old",
          "type": "uint256"
        },
        {
          "indexed": false,
          "internalType": "uint256",
          "name": "_new",
          "type": "uint256"
        }
      ],
      "name": "ModifyAccountCreationFees",
      "type": "event"
    },
    {
      "anonymous": false,
      "inputs": [
        {
          "indexed": false,
          "internalType": "address",
          "name": "_from",
          "type": "address"
        },
        {
          "indexed": false,
          "internalType": "uint256",
          "name": "_old",
          "type": "uint256"
        },
        {
          "indexed": false,
          "internalType": "uint256",
          "name": "_new",
          "type": "uint256"
        }
      ],
      "name": "ModifyAllowAllAccountsFees",
      "type": "event"
    },
    {
      "anonymous": false,
      "inputs": [
        {
          "indexed": false,
          "internalType": "address",
          "name": "_from",
          "type": "address"
        },
        {
          "indexed": false,
          "internalType": "address",
          "name": "_old",
          "type": "address"
        },
        {
          "indexed": false,
          "internalType": "address",
          "name": "_new",
          "type": "address"
        }
      ],
      "name": "ModifyDealsContractAddress",
      "type": "event"
    },
    {
      "anonymous": false,
      "inputs": [
        {
          "indexed": false,
          "internalType": "address",
          "name": "_from",
          "type": "address"
        },
        {
          "indexed": false,
          "internalType": "address",
          "name": "_old",
          "type": "address"
        },
        {
          "indexed": false,
          "internalType": "address",
          "name": "_new",
          "type": "address"
        }
      ],
      "name": "ModifyInstructionsContractAddress",
      "type": "event"
    },
    {
      "anonymous": false,
      "inputs": [
        {
          "indexed": false,
          "internalType": "address",
          "name": "_from",
          "type": "address"
        },
        {
          "indexed": false,
          "internalType": "address",
          "name": "_old",
          "type": "address"
        },
        {
          "indexed": false,
          "internalType": "address",
          "name": "_new",
          "type": "address"
        }
      ],
      "name": "ModifyInterpreterContractAddress",
      "type": "event"
    },
    {
      "anonymous": false,
      "inputs": [
        {
          "indexed": false,
          "internalType": "address",
          "name": "_from",
          "type": "address"
        },
        {
          "indexed": false,
          "internalType": "uint256",
          "name": "_old",
          "type": "uint256"
        },
        {
          "indexed": false,
          "internalType": "uint256",
          "name": "_new",
          "type": "uint256"
        }
      ],
      "name": "ModifyRuleCreationFees",
      "type": "event"
    },
    {
      "anonymous": false,
      "inputs": [
        {
          "indexed": false,
          "internalType": "address",
          "name": "_from",
          "type": "address"
        },
        {
          "indexed": false,
          "internalType": "uint256",
          "name": "_old",
          "type": "uint256"
        },
        {
          "indexed": false,
          "internalType": "uint256",
          "name": "_new",
          "type": "uint256"
        }
      ],
      "name": "ModifyTransactionFees",
      "type": "event"
    },
    {
      "anonymous": false,
      "inputs": [
        {
          "indexed": false,
          "internalType": "address",
          "name": "_from",
          "type": "address"
        },
        {
          "indexed": false,
          "internalType": "uint256",
          "name": "_old",
          "type": "uint256"
        },
        {
          "indexed": false,
          "internalType": "uint256",
          "name": "_new",
          "type": "uint256"
        }
      ],
      "name": "ModifyTransactionMinimalValue",
      "type": "event"
    },
    {
      "anonymous": false,
      "inputs": [
        {
          "indexed": false,
          "internalType": "address",
          "name": "_from",
          "type": "address"
        },
        {
          "indexed": false,
          "internalType": "uint256",
          "name": "_old",
          "type": "uint256"
        },
        {
          "indexed": false,
          "internalType": "uint256",
          "name": "_new",
          "type": "uint256"
        }
      ],
      "name": "ModifyWEI2USDConversionRate",
      "type": "event"
    },
    {
      "anonymous": false,
      "inputs": [
        {
          "indexed": true,
          "internalType": "address",
          "name": "previousOwner",
          "type": "address"
        },
        {
          "indexed": true,
          "internalType": "address",
          "name": "newOwner",
          "type": "address"
        }
      ],
      "name": "OwnershipTransferred",
      "type": "event"
    },
    {
      "anonymous": false,
      "inputs": [
        {
          "indexed": false,
          "internalType": "address",
          "name": "_from",
          "type": "address"
        },
        {
          "indexed": false,
          "internalType": "uint256",
          "name": "_dealId",
          "type": "uint256"
        },
        {
          "indexed": false,
          "internalType": "uint256",
          "name": "_fees",
          "type": "uint256"
        }
      ],
      "name": "PayDealCreationFees",
      "type": "event"
    },
    {
      "anonymous": false,
      "inputs": [
        {
          "indexed": false,
          "internalType": "address",
          "name": "_from",
          "type": "address"
        },
        {
          "indexed": false,
          "internalType": "uint256",
          "name": "_dealId",
          "type": "uint256"
        },
        {
          "indexed": false,
          "internalType": "uint256",
          "name": "_ruleId",
          "type": "uint256"
        },
        {
          "indexed": false,
          "internalType": "uint256",
          "name": "_fees",
          "type": "uint256"
        }
      ],
      "name": "PayTransactionFees",
      "type": "event"
    },
    {
      "inputs": [],
      "name": "owner",
      "outputs": [
        {
          "internalType": "address",
          "name": "",
          "type": "address"
        }
      ],
      "stateMutability": "view",
      "type": "function"
    },
    {
      "inputs": [],
      "name": "renounceOwnership",
      "outputs": [],
      "stateMutability": "nonpayable",
      "type": "function"
    },
    {
      "inputs": [
        {
          "internalType": "address",
          "name": "newOwner",
          "type": "address"
        }
      ],
      "name": "transferOwnership",
      "outputs": [],
      "stateMutability": "nonpayable",
      "type": "function"
    },
    {
      "inputs": [
        {
          "internalType": "address",
          "name": "_new",
          "type": "address"
        }
      ],
      "name": "setInstructionsContractRef",
      "outputs": [],
      "stateMutability": "nonpayable",
      "type": "function"
    },
    {
      "inputs": [
        {
          "internalType": "address",
          "name": "_new",
          "type": "address"
        }
      ],
      "name": "setDealsContractRef",
      "outputs": [],
      "stateMutability": "nonpayable",
      "type": "function"
    },
    {
      "inputs": [
        {
          "internalType": "address",
          "name": "_new",
          "type": "address"
        }
      ],
      "name": "setInterpreterContractRef",
      "outputs": [],
      "stateMutability": "nonpayable",
      "type": "function"
    },
    {
      "inputs": [
        {
          "internalType": "uint256",
          "name": "_new",
          "type": "uint256"
        }
      ],
      "name": "setAccountCreationFees",
      "outputs": [],
      "stateMutability": "nonpayable",
      "type": "function"
    },
    {
      "inputs": [
        {
          "internalType": "uint256",
          "name": "_new",
          "type": "uint256"
        }
      ],
      "name": "setRuleCreationFees",
      "outputs": [],
      "stateMutability": "nonpayable",
      "type": "function"
    },
    {
      "inputs": [
        {
          "internalType": "uint256",
          "name": "_new",
          "type": "uint256"
        }
      ],
      "name": "setAllowAllAddressesFees",
      "outputs": [],
      "stateMutability": "nonpayable",
      "type": "function"
    },
    {
      "inputs": [
        {
          "internalType": "uint256",
          "name": "_new",
          "type": "uint256"
        }
      ],
      "name": "setTransactionMinimalValue",
      "outputs": [],
      "stateMutability": "nonpayable",
      "type": "function"
    },
    {
      "inputs": [
        {
          "internalType": "uint256",
          "name": "_new",
          "type": "uint256"
        }
      ],
      "name": "setTransactionFees",
      "outputs": [],
      "stateMutability": "nonpayable",
      "type": "function"
    },
    {
      "inputs": [
        {
          "internalType": "uint256",
          "name": "_new",
          "type": "uint256"
        }
      ],
      "name": "setWEI2USDRate",
      "outputs": [],
      "stateMutability": "nonpayable",
      "type": "function"
    },
    {
      "inputs": [
        {
          "internalType": "address[]",
          "name": "_externalAccounts",
          "type": "address[]"
        },
        {
          "internalType": "address[]",
          "name": "_internalAccounts",
          "type": "address[]"
        },
        {
          "components": [
            {
              "internalType": "string",
              "name": "instructionName",
              "type": "string"
            },
            {
              "internalType": "string",
              "name": "paramStr",
              "type": "string"
            },
            {
              "internalType": "uint256",
              "name": "paramUInt",
              "type": "uint256"
            },
            {
              "internalType": "address",
              "name": "paramAddress",
              "type": "address"
            }
          ],
          "internalType": "struct CommonStructs.Article[][]",
          "name": "_rulesList",
          "type": "tuple[][]"
        }
      ],
      "name": "createDeal",
      "outputs": [
        {
          "internalType": "uint256",
          "name": "",
          "type": "uint256"
        }
      ],
      "stateMutability": "payable",
      "type": "function"
    },
    {
      "inputs": [
        {
          "internalType": "uint256",
          "name": "_dealId",
          "type": "uint256"
        },
        {
          "internalType": "uint256",
          "name": "_ruleId",
          "type": "uint256"
        }
      ],
      "name": "executeRule",
      "outputs": [],
      "stateMutability": "payable",
      "type": "function"
    },
    {
      "inputs": [
        {
          "internalType": "string",
          "name": "_s1",
          "type": "string"
        },
        {
          "internalType": "string",
          "name": "_s2",
          "type": "string"
        }
      ],
      "name": "stringsEqual",
      "outputs": [
        {
          "internalType": "bool",
          "name": "",
          "type": "bool"
        }
      ],
      "stateMutability": "pure",
      "type": "function"
    }
  ],
  "bytecode": "0x60806040523480156200001157600080fd5b50604051620028bd380380620028bd833981810160405281019062000037919062000199565b620000576200004b6200008d60201b60201c565b6200009560201b60201c565b85600481905550846005819055508360068190555082600781905550816008819055508060098190555050505050505062000235565b600033905090565b60008060009054906101000a900473ffffffffffffffffffffffffffffffffffffffff169050816000806101000a81548173ffffffffffffffffffffffffffffffffffffffff021916908373ffffffffffffffffffffffffffffffffffffffff1602179055508173ffffffffffffffffffffffffffffffffffffffff168173ffffffffffffffffffffffffffffffffffffffff167f8be0079c531659141344cd1fd0a4f28419497f9722a3daafe3b4186f6b6457e060405160405180910390a35050565b600080fd5b6000819050919050565b62000173816200015e565b81146200017f57600080fd5b50565b600081519050620001938162000168565b92915050565b60008060008060008060c08789031215620001b957620001b862000159565b5b6000620001c989828a0162000182565b9650506020620001dc89828a0162000182565b9550506040620001ef89828a0162000182565b94505060606200020289828a0162000182565b93505060806200021589828a0162000182565b92505060a06200022889828a0162000182565b9150509295509295509295565b61267880620002456000396000f3fe6080604052600436106100e85760003560e01c80636b18c1ca1161008a578063a2ae0cd211610059578063a2ae0cd2146102ae578063b50f34da146102d7578063f2fde38b14610300578063f46ddf2414610329576100e8565b80636b18c1ca14610227578063715018a6146102505780638da5cb5b1461026757806396b6dc7d14610292576100e8565b80632a16348c116100c65780632a16348c1461017c57806333d71975146101a55780634368080b146101d55780634e02b0b3146101fe576100e8565b806313d19950146100ed5780632131d8c31461012a57806326698e7514610153575b600080fd5b3480156100f957600080fd5b50610114600480360381019061010f91906114a6565b610352565b6040516101219190611539565b60405180910390f35b34801561013657600080fd5b50610151600480360381019061014c91906115b2565b61036d565b005b34801561015f57600080fd5b5061017a60048036038101906101759190611615565b610490565b005b34801561018857600080fd5b506101a3600480360381019061019e9190611615565b610559565b005b6101bf60048036038101906101ba9190611986565b610622565b6040516101cc9190611a3c565b60405180910390f35b3480156101e157600080fd5b506101fc60048036038101906101f791906115b2565b6109cc565b005b34801561020a57600080fd5b50610225600480360381019061022091906115b2565b610aef565b005b34801561023357600080fd5b5061024e60048036038101906102499190611615565b610c12565b005b34801561025c57600080fd5b50610265610cdb565b005b34801561027357600080fd5b5061027c610d63565b6040516102899190611a66565b60405180910390f35b6102ac60048036038101906102a79190611a81565b610d8c565b005b3480156102ba57600080fd5b506102d560048036038101906102d09190611615565b610eda565b005b3480156102e357600080fd5b506102fe60048036038101906102f99190611615565b610fa3565b005b34801561030c57600080fd5b50610327600480360381019061032291906115b2565b61106c565b005b34801561033557600080fd5b50610350600480360381019061034b9190611615565b611164565b005b60008180519060200120838051906020012014905092915050565b61037561122d565b73ffffffffffffffffffffffffffffffffffffffff16610393610d63565b73ffffffffffffffffffffffffffffffffffffffff16146103e9576040517f08c379a00000000000000000000000000000000000000000000000000000000081526004016103e090611b1e565b60405180910390fd5b6000600360009054906101000a900473ffffffffffffffffffffffffffffffffffffffff16905081600360006101000a81548173ffffffffffffffffffffffffffffffffffffffff021916908373ffffffffffffffffffffffffffffffffffffffff1602179055507f81ed796ae91ccecf245e3cb1b6149b3491e1f0989e603b5d1b388bd68f06b52b33828460405161048493929190611b3e565b60405180910390a15050565b61049861122d565b73ffffffffffffffffffffffffffffffffffffffff166104b6610d63565b73ffffffffffffffffffffffffffffffffffffffff161461050c576040517f08c379a000000000000000000000000000000000000000000000000000000000815260040161050390611b1e565b60405180910390fd5b60006005549050816005819055507f95204251d165fe2245c1dceb4c89885d7b8cfdb88aa079c9428ef4e12df3b0ac33828460405161054d93929190611b75565b60405180910390a15050565b61056161122d565b73ffffffffffffffffffffffffffffffffffffffff1661057f610d63565b73ffffffffffffffffffffffffffffffffffffffff16146105d5576040517f08c379a00000000000000000000000000000000000000000000000000000000081526004016105cc90611b1e565b60405180910390fd5b60006007549050816007819055507f9fd5b1fe2d0c3437bd798e95b2f63bd4a3b08887c95a04d22832ccb4aae9fda433828460405161061693929190611b75565b60405180910390a15050565b600080610633855185518551611235565b905080341015610678576040517f08c379a000000000000000000000000000000000000000000000000000000000815260040161066f90611c1e565b60405180910390fd5b60005b83518110156108175760005b84828151811061069a57610699611c3e565b5b602002602001015151811015610803576000600160009054906101000a900473ffffffffffffffffffffffffffffffffffffffff1673ffffffffffffffffffffffffffffffffffffffff166399b87f6c8785815181106106fd576106fc611c3e565b5b6020026020010151848151811061071757610716611c3e565b5b6020026020010151600001516040518263ffffffff1660e01b815260040161073f9190611ce4565b60006040518083038186803b15801561075757600080fd5b505afa15801561076b573d6000803e3d6000fd5b505050506040513d6000823e3d601f19601f820116820180604052508101906107949190611d9b565b9150506107b08160405180602001604052806000815250610352565b6107ef576040517f08c379a00000000000000000000000000000000000000000000000000000000081526004016107e690611e69565b60405180910390fd5b5080806107fb90611eb8565b915050610687565b50808061080f90611eb8565b91505061067b565b5060003373ffffffffffffffffffffffffffffffffffffffff16823461083d9190611f01565b60405161084990611f66565b60006040518083038185875af1925050503d8060008114610886576040519150601f19603f3d011682016040523d82523d6000602084013e61088b565b606091505b50509050806108cf576040517f08c379a00000000000000000000000000000000000000000000000000000000081526004016108c690611fed565b60405180910390fd5b6000600260009054906101000a900473ffffffffffffffffffffffffffffffffffffffff1673ffffffffffffffffffffffffffffffffffffffff166333d719758888886040518463ffffffff1660e01b815260040161093093929190612312565b602060405180830381600087803b15801561094a57600080fd5b505af115801561095e573d6000803e3d6000fd5b505050506040513d601f19601f820116820180604052508101906109829190612373565b90507f1e34314d10c294e150d9078dc4808fbc4e77807ab189f2556837ace7999588903382856040516109b793929190611b75565b60405180910390a18093505050509392505050565b6109d461122d565b73ffffffffffffffffffffffffffffffffffffffff166109f2610d63565b73ffffffffffffffffffffffffffffffffffffffff1614610a48576040517f08c379a0000000000000000000000000000000000000000000000000000000008152600401610a3f90611b1e565b60405180910390fd5b6000600160009054906101000a900473ffffffffffffffffffffffffffffffffffffffff16905081600160006101000a81548173ffffffffffffffffffffffffffffffffffffffff021916908373ffffffffffffffffffffffffffffffffffffffff1602179055507f7a98528f6374afdc782de68dfe485f60c47c83eb22d862896ee7c59a13c6d899338284604051610ae393929190611b3e565b60405180910390a15050565b610af761122d565b73ffffffffffffffffffffffffffffffffffffffff16610b15610d63565b73ffffffffffffffffffffffffffffffffffffffff1614610b6b576040517f08c379a0000000000000000000000000000000000000000000000000000000008152600401610b6290611b1e565b60405180910390fd5b6000600260009054906101000a900473ffffffffffffffffffffffffffffffffffffffff16905081600260006101000a81548173ffffffffffffffffffffffffffffffffffffffff021916908373ffffffffffffffffffffffffffffffffffffffff1602179055507fef88ef88851c867cbde2a8d8f43f01b9b75342fb93a2a7034ea0d656dbe13782338284604051610c0693929190611b3e565b60405180910390a15050565b610c1a61122d565b73ffffffffffffffffffffffffffffffffffffffff16610c38610d63565b73ffffffffffffffffffffffffffffffffffffffff1614610c8e576040517f08c379a0000000000000000000000000000000000000000000000000000000008152600401610c8590611b1e565b60405180910390fd5b60006004549050816004819055507f20cb277045b07975ddd69579bb7c5703b15359a94bc8b635d4a17c243c8a65ac338284604051610ccf93929190611b75565b60405180910390a15050565b610ce361122d565b73ffffffffffffffffffffffffffffffffffffffff16610d01610d63565b73ffffffffffffffffffffffffffffffffffffffff1614610d57576040517f08c379a0000000000000000000000000000000000000000000000000000000008152600401610d4e90611b1e565b60405180910390fd5b610d616000611271565b565b60008060009054906101000a900473ffffffffffffffffffffffffffffffffffffffff16905090565b6000610d9734611335565b9050600754811015610dde576040517f08c379a0000000000000000000000000000000000000000000000000000000008152600401610dd590612412565b60405180910390fd5b60006064600854610def9190612461565b34610dfa9190612492565b9050600360009054906101000a900473ffffffffffffffffffffffffffffffffffffffff1673ffffffffffffffffffffffffffffffffffffffff1663dda7b0638234610e469190611f01565b86866040518463ffffffff1660e01b8152600401610e659291906124ec565b6000604051808303818588803b158015610e7e57600080fd5b505af1158015610e92573d6000803e3d6000fd5b50505050507ffa46e5ec587216687a4a33c4e605f1483f16833be6465e442d80d7bcbaec2eaf33858584604051610ecc9493929190612515565b60405180910390a150505050565b610ee261122d565b73ffffffffffffffffffffffffffffffffffffffff16610f00610d63565b73ffffffffffffffffffffffffffffffffffffffff1614610f56576040517f08c379a0000000000000000000000000000000000000000000000000000000008152600401610f4d90611b1e565b60405180910390fd5b60006008549050816008819055507f93dcb4d14ff2c7a93d0076d4d9fbf19c189f2de91a9ba7d79bb80115fe7a852d338284604051610f9793929190611b75565b60405180910390a15050565b610fab61122d565b73ffffffffffffffffffffffffffffffffffffffff16610fc9610d63565b73ffffffffffffffffffffffffffffffffffffffff161461101f576040517f08c379a000000000000000000000000000000000000000000000000000000000815260040161101690611b1e565b60405180910390fd5b60006006549050816006819055507fd1a0f1c3e15bbeb47f950c6fd7572c460678919e9d839966bf073b487365e4bb33828460405161106093929190611b75565b60405180910390a15050565b61107461122d565b73ffffffffffffffffffffffffffffffffffffffff16611092610d63565b73ffffffffffffffffffffffffffffffffffffffff16146110e8576040517f08c379a00000000000000000000000000000000000000000000000000000000081526004016110df90611b1e565b60405180910390fd5b600073ffffffffffffffffffffffffffffffffffffffff168173ffffffffffffffffffffffffffffffffffffffff161415611158576040517f08c379a000000000000000000000000000000000000000000000000000000000815260040161114f906125cc565b60405180910390fd5b61116181611271565b50565b61116c61122d565b73ffffffffffffffffffffffffffffffffffffffff1661118a610d63565b73ffffffffffffffffffffffffffffffffffffffff16146111e0576040517f08c379a00000000000000000000000000000000000000000000000000000000081526004016111d790611b1e565b60405180910390fd5b60006009549050816009819055507fabdbf62a0b429ce7d6d10ed04c8ecbccb6631aafcae5f4acab13f27ed9d9055c33828460405161122193929190611b75565b60405180910390a15050565b600033905090565b6000600554826112459190612492565b600454848661125491906125ec565b61125e9190612492565b61126891906125ec565b90509392505050565b60008060009054906101000a900473ffffffffffffffffffffffffffffffffffffffff169050816000806101000a81548173ffffffffffffffffffffffffffffffffffffffff021916908373ffffffffffffffffffffffffffffffffffffffff1602179055508173ffffffffffffffffffffffffffffffffffffffff168173ffffffffffffffffffffffffffffffffffffffff167f8be0079c531659141344cd1fd0a4f28419497f9722a3daafe3b4186f6b6457e060405160405180910390a35050565b6000600954826113459190612461565b9050919050565b6000604051905090565b600080fd5b600080fd5b600080fd5b600080fd5b6000601f19601f8301169050919050565b7f4e487b7100000000000000000000000000000000000000000000000000000000600052604160045260246000fd5b6113b38261136a565b810181811067ffffffffffffffff821117156113d2576113d161137b565b5b80604052505050565b60006113e561134c565b90506113f182826113aa565b919050565b600067ffffffffffffffff8211156114115761141061137b565b5b61141a8261136a565b9050602081019050919050565b82818337600083830152505050565b6000611449611444846113f6565b6113db565b90508281526020810184848401111561146557611464611365565b5b611470848285611427565b509392505050565b600082601f83011261148d5761148c611360565b5b813561149d848260208601611436565b91505092915050565b600080604083850312156114bd576114bc611356565b5b600083013567ffffffffffffffff8111156114db576114da61135b565b5b6114e785828601611478565b925050602083013567ffffffffffffffff8111156115085761150761135b565b5b61151485828601611478565b9150509250929050565b60008115159050919050565b6115338161151e565b82525050565b600060208201905061154e600083018461152a565b92915050565b600073ffffffffffffffffffffffffffffffffffffffff82169050919050565b600061157f82611554565b9050919050565b61158f81611574565b811461159a57600080fd5b50565b6000813590506115ac81611586565b92915050565b6000602082840312156115c8576115c7611356565b5b60006115d68482850161159d565b91505092915050565b6000819050919050565b6115f2816115df565b81146115fd57600080fd5b50565b60008135905061160f816115e9565b92915050565b60006020828403121561162b5761162a611356565b5b600061163984828501611600565b91505092915050565b600067ffffffffffffffff82111561165d5761165c61137b565b5b602082029050602081019050919050565b600080fd5b600061168661168184611642565b6113db565b905080838252602082019050602084028301858111156116a9576116a861166e565b5b835b818110156116d257806116be888261159d565b8452602084019350506020810190506116ab565b5050509392505050565b600082601f8301126116f1576116f0611360565b5b8135611701848260208601611673565b91505092915050565b600067ffffffffffffffff8211156117255761172461137b565b5b602082029050602081019050919050565b600067ffffffffffffffff8211156117515761175061137b565b5b602082029050602081019050919050565b600080fd5b600080fd5b60006080828403121561178257611781611762565b5b61178c60806113db565b9050600082013567ffffffffffffffff8111156117ac576117ab611767565b5b6117b884828501611478565b600083015250602082013567ffffffffffffffff8111156117dc576117db611767565b5b6117e884828501611478565b60208301525060406117fc84828501611600565b60408301525060606118108482850161159d565b60608301525092915050565b600061182f61182a84611736565b6113db565b905080838252602082019050602084028301858111156118525761185161166e565b5b835b8181101561189957803567ffffffffffffffff81111561187757611876611360565b5b808601611884898261176c565b85526020850194505050602081019050611854565b5050509392505050565b600082601f8301126118b8576118b7611360565b5b81356118c884826020860161181c565b91505092915050565b60006118e46118df8461170a565b6113db565b905080838252602082019050602084028301858111156119075761190661166e565b5b835b8181101561194e57803567ffffffffffffffff81111561192c5761192b611360565b5b80860161193989826118a3565b85526020850194505050602081019050611909565b5050509392505050565b600082601f83011261196d5761196c611360565b5b813561197d8482602086016118d1565b91505092915050565b60008060006060848603121561199f5761199e611356565b5b600084013567ffffffffffffffff8111156119bd576119bc61135b565b5b6119c9868287016116dc565b935050602084013567ffffffffffffffff8111156119ea576119e961135b565b5b6119f6868287016116dc565b925050604084013567ffffffffffffffff811115611a1757611a1661135b565b5b611a2386828701611958565b9150509250925092565b611a36816115df565b82525050565b6000602082019050611a516000830184611a2d565b92915050565b611a6081611574565b82525050565b6000602082019050611a7b6000830184611a57565b92915050565b60008060408385031215611a9857611a97611356565b5b6000611aa685828601611600565b9250506020611ab785828601611600565b9150509250929050565b600082825260208201905092915050565b7f4f776e61626c653a2063616c6c6572206973206e6f7420746865206f776e6572600082015250565b6000611b08602083611ac1565b9150611b1382611ad2565b602082019050919050565b60006020820190508181036000830152611b3781611afb565b9050919050565b6000606082019050611b536000830186611a57565b611b606020830185611a57565b611b6d6040830184611a57565b949350505050565b6000606082019050611b8a6000830186611a57565b611b976020830185611a2d565b611ba46040830184611a2d565b949350505050565b7f496e73756666696369656e742076616c756520746f20636f766572207468652060008201527f6465616c206372656174696f6e20666565730000000000000000000000000000602082015250565b6000611c08603283611ac1565b9150611c1382611bac565b604082019050919050565b60006020820190508181036000830152611c3781611bfb565b9050919050565b7f4e487b7100000000000000000000000000000000000000000000000000000000600052603260045260246000fd5b600081519050919050565b60005b83811015611c96578082015181840152602081019050611c7b565b83811115611ca5576000848401525b50505050565b6000611cb682611c6d565b611cc08185611ac1565b9350611cd0818560208601611c78565b611cd98161136a565b840191505092915050565b60006020820190508181036000830152611cfe8184611cab565b905092915050565b60058110611d1357600080fd5b50565b600081519050611d2581611d06565b92915050565b6000611d3e611d39846113f6565b6113db565b905082815260208101848484011115611d5a57611d59611365565b5b611d65848285611c78565b509392505050565b600082601f830112611d8257611d81611360565b5b8151611d92848260208601611d2b565b91505092915050565b60008060408385031215611db257611db1611356565b5b6000611dc085828601611d16565b925050602083015167ffffffffffffffff811115611de157611de061135b565b5b611ded85828601611d6d565b9150509250929050565b7f50726f78792e4372656174654465616c3a20496e737472756374696f6e20697360008201527f206e6f7420737570706f72746564000000000000000000000000000000000000602082015250565b6000611e53602e83611ac1565b9150611e5e82611df7565b604082019050919050565b60006020820190508181036000830152611e8281611e46565b9050919050565b7f4e487b7100000000000000000000000000000000000000000000000000000000600052601160045260246000fd5b6000611ec3826115df565b91507fffffffffffffffffffffffffffffffffffffffffffffffffffffffffffffffff821415611ef657611ef5611e89565b5b600182019050919050565b6000611f0c826115df565b9150611f17836115df565b925082821015611f2a57611f29611e89565b5b828203905092915050565b600081905092915050565b50565b6000611f50600083611f35565b9150611f5b82611f40565b600082019050919050565b6000611f7182611f43565b9150819050919050565b7f50726f78792e6372656174654465616c3a204661696c656420746f207265696d60008201527f6275727365206578636573732045746865720000000000000000000000000000602082015250565b6000611fd7603283611ac1565b9150611fe282611f7b565b604082019050919050565b6000602082019050818103600083015261200681611fca565b9050919050565b600081519050919050565b600082825260208201905092915050565b6000819050602082019050919050565b61204281611574565b82525050565b60006120548383612039565b60208301905092915050565b6000602082019050919050565b60006120788261200d565b6120828185612018565b935061208d83612029565b8060005b838110156120be5781516120a58882612048565b97506120b083612060565b925050600181019050612091565b5085935050505092915050565b600081519050919050565b600082825260208201905092915050565b6000819050602082019050919050565b600081519050919050565b600082825260208201905092915050565b6000819050602082019050919050565b600082825260208201905092915050565b600061213f82611c6d565b6121498185612123565b9350612159818560208601611c78565b6121628161136a565b840191505092915050565b612176816115df565b82525050565b600060808301600083015184820360008601526121998282612134565b915050602083015184820360208601526121b38282612134565b91505060408301516121c8604086018261216d565b5060608301516121db6060860182612039565b508091505092915050565b60006121f2838361217c565b905092915050565b6000602082019050919050565b6000612212826120f7565b61221c8185612102565b93508360208202850161222e85612113565b8060005b8581101561226a578484038952815161224b85826121e6565b9450612256836121fa565b925060208a01995050600181019050612232565b50829750879550505050505092915050565b60006122888383612207565b905092915050565b6000602082019050919050565b60006122a8826120cb565b6122b281856120d6565b9350836020820285016122c4856120e7565b8060005b8581101561230057848403895281516122e1858261227c565b94506122ec83612290565b925060208a019950506001810190506122c8565b50829750879550505050505092915050565b6000606082019050818103600083015261232c818661206d565b90508181036020830152612340818561206d565b90508181036040830152612354818461229d565b9050949350505050565b60008151905061236d816115e9565b92915050565b60006020828403121561238957612388611356565b5b60006123978482850161235e565b91505092915050565b7f5472616e73616374696f6e206d696e696d616c2076616c7565206e6f7420726560008201527f6163686564000000000000000000000000000000000000000000000000000000602082015250565b60006123fc602583611ac1565b9150612407826123a0565b604082019050919050565b6000602082019050818103600083015261242b816123ef565b9050919050565b7f4e487b7100000000000000000000000000000000000000000000000000000000600052601260045260246000fd5b600061246c826115df565b9150612477836115df565b92508261248757612486612432565b5b828204905092915050565b600061249d826115df565b91506124a8836115df565b9250817fffffffffffffffffffffffffffffffffffffffffffffffffffffffffffffffff04831182151516156124e1576124e0611e89565b5b828202905092915050565b60006040820190506125016000830185611a2d565b61250e6020830184611a2d565b9392505050565b600060808201905061252a6000830187611a57565b6125376020830186611a2d565b6125446040830185611a2d565b6125516060830184611a2d565b95945050505050565b7f4f776e61626c653a206e6577206f776e657220697320746865207a65726f206160008201527f6464726573730000000000000000000000000000000000000000000000000000602082015250565b60006125b6602683611ac1565b91506125c18261255a565b604082019050919050565b600060208201905081810360008301526125e5816125a9565b9050919050565b60006125f7826115df565b9150612602836115df565b9250827fffffffffffffffffffffffffffffffffffffffffffffffffffffffffffffffff0382111561263757612636611e89565b5b82820190509291505056fea2646970667358221220026af395fa53024ec8e00cf378f6a43818de14749f23a6cb9cf26fefb1f6476a64736f6c63430008090033",
  "immutableReferences": {},
  "source": "// SPDX-License-Identifier: GPL-3.0\npragma solidity ^0.8.0;\n\n/* EXTERNAL DEPENDENCIES */\nimport \"@openzeppelin/contracts/access/Ownable.sol\";\n\n/* INTERNAL DEPENDENCIES */\nimport \"./CommonStructs.sol\";\nimport \"./Instructions.sol\";\nimport \"./Deals.sol\";\nimport \"./Interpreter.sol\";\n\n// TODO: Ajouter un payable fallback a tous les contracts pour voir ce qu'on fait quand on reoit de l'argent par erreur\n//        ==> Hriter d'une classe qui redirige l'argent vers le proxy ou bien juste rembourser les sous\n\n// TODO: Check how to integrate the allowAllAccounts in the interpreter. Should I add it as a param in the deal?\n\n/// @title Proxy Contract\n/// @dev Main DApp entry point. Exposes the public interface and decouple the data and the logic\n/// @notice lets-make-a-deal.eth allows you to make an agreement between different parties and automatically route ETH to different addresses based on simple rules.\ncontract Proxy is Ownable {\n    \n    /* STORAGE VARIABLES */\n\n    // References to external contracts\n    \n    /// @dev Reference to the Instructions contract\n    Instructions private instructionsContractRef;\n\n    /// @dev Reference to the Deals contract\n    Deals private dealsContractRef;\n\n    /// @dev Reference to the Interpreter contract\n    Interpreter private interpreterContractRef;\n\n    // Contract fees\n\n    /// @dev Price per account added to the deal in USD\n    uint private accountCreationFees;\n    \n    /// @dev Price per rule added to the deal in USD\n    uint private ruleCreationFees;\n\n    /// @dev Price to allow incoming payments from all addresses others than internal/external accounts in USD\n    uint private allowAllAddressesFees;\n\n    /// @dev Minimal transaction value able to trigger an execution in USD\n    uint private transactionMinimalValue;\n\n    /// @dev Transaction fees in % of the msg.value perceived on a deal execution in USD\n    uint private transactionFees;\n\n    /// @dev USD/WEI rate\n    uint private WEI2USDConversionRate;\n\n    /* MAPPINGS */\n    \n    /* MODIFIERS */\n    \n    /* EVENTS */\n\n    // Modify contract references\n\n    /**\n    * @dev Event emitted when the Instructions contract reference is changed\n    * @param _from Caller address\n    * @param _old Old address of the Instructions contract\n    * @param _new New address of the Instructions contract\n    */\n    event ModifyInstructionsContractAddress(address _from, address _old, address _new);\n\n    /**\n    * @dev Event emitted when the Deals contract reference is changed\n    * @param _from Caller address\n    * @param _old Old address of the Deals contract\n    * @param _new New address of the Deals contract\n    */\n    event ModifyDealsContractAddress(address _from, address _old, address _new);\n    \n    /**\n    * @dev Event emitted when the Interpreter contract reference is changed\n    * @param _from Caller address\n    * @param _old Old address of the Interpreter contract\n    * @param _new New address of the Interpreter contract\n    */\n    event ModifyInterpreterContractAddress(address _from, address _old, address _new);\n    \n    // Modify fees\n \n    /** \n    * @dev Event emitted when the account creation fees is changed\n    * @param _from : msg.sender\n    * @param _old : old account creation fees in USD\n    * @param _new : new account creation fees in USD\n    */\n    event ModifyAccountCreationFees(address _from, uint _old, uint _new);\n\n    /** \n    * @dev Event emitted when the rule creation fees is changed\n    * @param _from : msg.sender\n    * @param _old : old rule creation fees in USD\n    * @param _new : new rule creation fees in USD\n    */\n    event ModifyRuleCreationFees(address _from, uint _old, uint _new);\n\n    /** \n    * @dev Event emitted when the allow all accounts fees is changed\n    * @param _from : msg.sender\n    * @param _old : old allow all accounts fees in USD\n    * @param _new : new allow all accounts fees in USD\n    */\n    event ModifyAllowAllAccountsFees(address _from, uint _old, uint _new);\n\n    /** \n    * @dev Event emitted when the transaction minimal value is changed\n    * @param _from : msg.sender\n    * @param _old : old transaction minimal value in USD\n    * @param _new : new transaction minimal value in USD\n    */\n    event ModifyTransactionMinimalValue(address _from, uint _old, uint _new);\n\n    /** \n    * @dev Event emitted when the ETH/USD rate is changed\n    * @param _from : msg.sender\n    * @param _old : old ETH/USD rate in ETH per USD\n    * @param _new : new ETH/USD rate in ETH per USD\n    */\n    event ModifyTransactionFees(address _from, uint _old, uint _new);\n    \n    /** \n    * @dev Event emitted when the WEI to USD conversion rate is changed\n    * @param _from : msg.sender\n    * @param _old : old WEI to USD conversion rate in WEI\n    * @param _new : new WEI to USD conversion rate in WEI\n    */\n    event ModifyWEI2USDConversionRate(address _from, uint _old, uint _new);\n\n    /** \n    * @dev Event emitted when the deal creation fees are paid\n    * @param _from : msg.sender\n    * @param _dealId : Id of the created deal\n    * @param _fees : Fees paid by the user in ETH\n    */\n    event PayDealCreationFees(address _from, uint _dealId, uint _fees);\n\n    /** \n    * @dev Event emitted when the transaction fees are paid\n    * @param _from : msg.sender\n    * @param _dealId : Id of the executed deal \n    * @param _ruleId : Id of the executed rule\n    * @param _fees : Fees paid by the user in ETH\n    */\n    event PayTransactionFees(address _from, uint _dealId, uint _ruleId, uint _fees);\n    \n\n    /* CONSTRUCTOR */\n\n    /// @dev Constructor: Initialize storage variables\n    constructor (\n        uint _accountCreationFees, \n        uint _ruleCreationFees,\n        uint _allowAllAddressesFees,\n        uint _transactionMinimalValue,\n        uint _transactionFees,\n        uint _WEI2USDConversionRate\n    ) {\n        accountCreationFees = _accountCreationFees;\n        ruleCreationFees = _ruleCreationFees;\n        allowAllAddressesFees = _allowAllAddressesFees;\n        transactionMinimalValue = _transactionMinimalValue;\n        transactionFees = _transactionFees;\n        WEI2USDConversionRate = _WEI2USDConversionRate;\n    }\n    \n    /* SEND & FALLBACK */\n    // TODO: https://docs.soliditylang.org/en/v0.8.9/contracts.html#receive-ether-function\n    // If I do not include a payable send or fallback, the contract will return any ETH send to the contract with a call without call values (ok for me i think)\n    \n    /* OWNER INTERFACE */\n\n    // References to external contracts\n    \n    /**\n    * @dev Sets the Instructions contract reference to a new value\n    * @param _new New address of the Instructions contract\n    */\n    function setInstructionsContractRef(address _new) public onlyOwner {\n        address old = address(instructionsContractRef);\n        instructionsContractRef = Instructions(_new);\n        emit ModifyInstructionsContractAddress(msg.sender, old, _new);\n    }\n\n    /**\n    * @dev Sets the Deals contract reference to a new value\n    * @param _new New address of the Deals contract\n    */\n    function setDealsContractRef(address _new) public onlyOwner {\n        address old = address(dealsContractRef);\n        dealsContractRef = Deals(_new);\n        emit ModifyDealsContractAddress(msg.sender, old, _new);\n    }\n    \n    /**\n    * @dev Sets the Interpreter contract reference to a new value\n    * @param _new New address of the Interpreter contract\n    */\n    function setInterpreterContractRef(address _new) public onlyOwner {\n        address old = address(interpreterContractRef);\n        interpreterContractRef = Interpreter(_new);\n        emit ModifyInterpreterContractAddress(msg.sender, old, _new);\n    }\n\n    // Contract fees\n\n    /**\n    * @dev Sets the account creation fees to a new value\n    * @param _new New value for the account creation fees in USD\n    */\n    function setAccountCreationFees(uint _new) public onlyOwner {\n        uint old = accountCreationFees;\n        accountCreationFees = _new;\n        emit ModifyAccountCreationFees(msg.sender, old, _new);\n    }\n    \n    /**\n    * @dev Sets the rule creation fees to a new value\n    * @param _new New value for the rule creation fees in USD\n    */\n    function setRuleCreationFees(uint _new) public onlyOwner {\n        uint old = ruleCreationFees;\n        ruleCreationFees = _new;\n        emit ModifyRuleCreationFees(msg.sender, old, _new);\n    }\n\n    /**\n    * @dev Sets the allow all addresses fees to a new value\n    * @param _new New value for the allow all addresses fees in USD\n    */\n    function setAllowAllAddressesFees(uint _new) public onlyOwner {\n        uint old = allowAllAddressesFees;\n        allowAllAddressesFees = _new;\n        emit ModifyAllowAllAccountsFees(msg.sender, old, _new);\n    }\n\n    /**\n    * @dev Sets the transaction minimal value to a new value\n    * @param _new New value for the transaction minimal value in USD\n    */\n    function setTransactionMinimalValue(uint _new) public onlyOwner {\n        uint old = transactionMinimalValue;\n        transactionMinimalValue = _new;\n        emit ModifyTransactionMinimalValue(msg.sender, old, _new);\n    }\n\n    /**\n    * @dev Sets the transaction fees to a new value\n    * @param _new New value for the transaction fees in USD\n    */\n    function setTransactionFees(uint _new) public onlyOwner {\n        uint old = transactionFees;\n        transactionFees = _new;\n        emit ModifyTransactionFees(msg.sender, old, _new);\n    }\n\n    /**\n    * @dev Sets the WEI to USD conversion rate to a new value\n    * @param _new New value for the WEI to USD conversion rate in USD\n    */\n    function setWEI2USDRate(uint _new) public onlyOwner {\n        uint old = WEI2USDConversionRate;\n        WEI2USDConversionRate = _new;\n        emit ModifyWEI2USDConversionRate(msg.sender, old, _new);\n    }\n\n    /* PUBLIC INTERFACE */\n\n    /**\n    * @dev Creates a deal and returns its id\n    * @param _externalAccounts List of the external accounts addresses linked to the deal\n    * @param _internalAccounts List of the internal accounts addresses linked to the deal\n    * @param _rulesList List of the rules linked to the deal (rule = list of Articles)\n    * @return Id of the deal created\n    */\n    function createDeal\n    (\n        address[] memory _externalAccounts, \n        address[] memory _internalAccounts, \n        CommonStructs.Article[][] memory _rulesList\n    ) \n    public payable returns (uint) {\n        // Compute creation fees\n        uint creationFees = _computeCreationFees(_externalAccounts.length, _internalAccounts.length, _rulesList.length);\n\n        // Check 1: Amount sent by the user should cover the deal creation fees\n        require(msg.value >= creationFees, \"Insufficient value to cover the deal creation fees\");\n\n        // Check 2: Make sure that the instructions are all supported\n        for (uint i=0;i<_rulesList.length;i++) {\n            for (uint j=0;j<_rulesList[i].length;j++) {\n                // Get the instruction type & signature\n                (, string memory instructionSignature) = instructionsContractRef.getInstruction(_rulesList[i][j].instructionName);\n                \n                // If the signature is empty, this means that the instruction is not present => revert\n                require(stringsEqual(instructionSignature,''),\"Proxy.CreateDeal: Instruction is not supported\");\n            }\n        }\n\n        // Reimburse excess value to the caller\n        (bool sent, ) = msg.sender.call{value: (msg.value - creationFees)}(\"\");\n        require(sent, \"Proxy.createDeal: Failed to reimburse excess Ether\");\n\n        // Create the deal\n        uint dealId = dealsContractRef.createDeal(_externalAccounts, _internalAccounts, _rulesList);\n\n        // Emit a PayDealCreationFees\n        emit PayDealCreationFees(msg.sender, dealId, creationFees);\n\n        return dealId;\n    }\n\n    /**\n    * @dev Execute a deal's rule\n    * @param _dealId : Id of the deal to execute\n    * @param _ruleId : Id of the rule to execute\n    */\n    function executeRule(uint _dealId, uint _ruleId) public payable {\n        // Amount sent by the user should be higher or equal to the minimal transaction value\n        uint msgValueInUSD = _convertWEI2USD(msg.value);\n        require( msgValueInUSD >= transactionMinimalValue, \"Transaction minimal value not reached\");\n\n        // Call Interpreter.interpretRule() and include in the call the msg.value - execution fees\n        uint executionFees = msg.value * (transactionFees/100);\n        interpreterContractRef.interpretRule{value: (msg.value - executionFees)}(_dealId, _ruleId);\n\n        // Emit a PayTransactionFees\n        emit PayTransactionFees(msg.sender, _dealId, _ruleId, executionFees);\n    }\n\n    /* INTERNAL HELPER FUNCTIONS */\n    \n    /**\n    * @dev Computes the deal creation cost\n    * @param _externalAccountsCount Number of external accounts defined in the deal\n    * @param _internalAccountsCount Number of internal accounts defined in the deal\n    * @param _rulesCount Number of rules defined in the deal\n    * @return Deal creation cost\n    */\n    function _computeCreationFees\n    (\n        uint _externalAccountsCount, \n        uint _internalAccountsCount, \n        uint _rulesCount\n    ) \n    internal view returns (uint) {\n        return (_externalAccountsCount + _internalAccountsCount) * accountCreationFees + _rulesCount * ruleCreationFees;\n    }\n\n    /**\n    * @dev Converts an amount in WEI to USD\n    * @param _amountInWEI Amount in WEI\n    * @return Converted amount in USD\n    */\n    function _convertWEI2USD(uint _amountInWEI) internal view returns(uint) {\n        return _amountInWEI / WEI2USDConversionRate;\n    }\n\n    /**\n    * @dev Converts an amount in USD to WEI\n    * @param _amountInUSD Amount in USD\n    * @return Converted amount in WEI\n    */\n    function _convertUSD2WEI(uint _amountInUSD) internal view returns(uint) {\n        return _amountInUSD * WEI2USDConversionRate;\n    }\n\n    /** \n    * @dev Checks whether the strings are equal\n    * @param _s1 First string to compare\n    * @param _s2 Second string to compare\n    * @return Boolean indicating if the 2 strings are equal\n    */\n    function stringsEqual(string memory _s1, string memory _s2) public pure returns(bool) {\n        return keccak256(bytes(_s1)) == keccak256(bytes(_s2));\n    }\n}\n",
  "sourcePath": "/home/shakalee/Documents/Consensys/PROJOT-v0/contracts/Proxy.sol",
  "compiler": {
    "name": "solc",
    "version": "0.8.9+commit.e5eed63a.Emscripten.clang"
  },
  "schemaVersion": "3.4.3",
  "updatedAt": "2021-11-20T22:55:09.360Z",
  "devdoc": {
    "details": "Main DApp entry point. Exposes the public interface and decouple the data and the logic",
    "events": {
      "ModifyAccountCreationFees(address,uint256,uint256)": {
        "details": "Event emitted when the account creation fees is changed",
        "params": {
          "_from": ": msg.sender",
          "_new": ": new account creation fees in USD",
          "_old": ": old account creation fees in USD"
        }
      },
      "ModifyAllowAllAccountsFees(address,uint256,uint256)": {
        "details": "Event emitted when the allow all accounts fees is changed",
        "params": {
          "_from": ": msg.sender",
          "_new": ": new allow all accounts fees in USD",
          "_old": ": old allow all accounts fees in USD"
        }
      },
      "ModifyDealsContractAddress(address,address,address)": {
        "details": "Event emitted when the Deals contract reference is changed",
        "params": {
          "_from": "Caller address",
          "_new": "New address of the Deals contract",
          "_old": "Old address of the Deals contract"
        }
      },
      "ModifyInstructionsContractAddress(address,address,address)": {
        "details": "Event emitted when the Instructions contract reference is changed",
        "params": {
          "_from": "Caller address",
          "_new": "New address of the Instructions contract",
          "_old": "Old address of the Instructions contract"
        }
      },
      "ModifyInterpreterContractAddress(address,address,address)": {
        "details": "Event emitted when the Interpreter contract reference is changed",
        "params": {
          "_from": "Caller address",
          "_new": "New address of the Interpreter contract",
          "_old": "Old address of the Interpreter contract"
        }
      },
      "ModifyRuleCreationFees(address,uint256,uint256)": {
        "details": "Event emitted when the rule creation fees is changed",
        "params": {
          "_from": ": msg.sender",
          "_new": ": new rule creation fees in USD",
          "_old": ": old rule creation fees in USD"
        }
      },
      "ModifyTransactionFees(address,uint256,uint256)": {
        "details": "Event emitted when the ETH/USD rate is changed",
        "params": {
          "_from": ": msg.sender",
          "_new": ": new ETH/USD rate in ETH per USD",
          "_old": ": old ETH/USD rate in ETH per USD"
        }
      },
      "ModifyTransactionMinimalValue(address,uint256,uint256)": {
        "details": "Event emitted when the transaction minimal value is changed",
        "params": {
          "_from": ": msg.sender",
          "_new": ": new transaction minimal value in USD",
          "_old": ": old transaction minimal value in USD"
        }
      },
      "ModifyWEI2USDConversionRate(address,uint256,uint256)": {
        "details": "Event emitted when the WEI to USD conversion rate is changed",
        "params": {
          "_from": ": msg.sender",
          "_new": ": new WEI to USD conversion rate in WEI",
          "_old": ": old WEI to USD conversion rate in WEI"
        }
      },
      "PayDealCreationFees(address,uint256,uint256)": {
        "details": "Event emitted when the deal creation fees are paid",
        "params": {
          "_dealId": ": Id of the created deal",
          "_fees": ": Fees paid by the user in ETH",
          "_from": ": msg.sender"
        }
      },
      "PayTransactionFees(address,uint256,uint256,uint256)": {
        "details": "Event emitted when the transaction fees are paid",
        "params": {
          "_dealId": ": Id of the executed deal ",
          "_fees": ": Fees paid by the user in ETH",
          "_from": ": msg.sender",
          "_ruleId": ": Id of the executed rule"
        }
      }
    },
    "kind": "dev",
    "methods": {
      "constructor": {
        "details": "Constructor: Initialize storage variables"
      },
      "createDeal(address[],address[],(string,string,uint256,address)[][])": {
        "details": "Creates a deal and returns its id",
        "params": {
          "_externalAccounts": "List of the external accounts addresses linked to the deal",
          "_internalAccounts": "List of the internal accounts addresses linked to the deal",
          "_rulesList": "List of the rules linked to the deal (rule = list of Articles)"
        },
        "returns": {
          "_0": "Id of the deal created"
        }
      },
      "executeRule(uint256,uint256)": {
        "details": "Execute a deal's rule",
        "params": {
          "_dealId": ": Id of the deal to execute",
          "_ruleId": ": Id of the rule to execute"
        }
      },
      "owner()": {
        "details": "Returns the address of the current owner."
      },
      "renounceOwnership()": {
        "details": "Leaves the contract without owner. It will not be possible to call `onlyOwner` functions anymore. Can only be called by the current owner. NOTE: Renouncing ownership will leave the contract without an owner, thereby removing any functionality that is only available to the owner."
      },
      "setAccountCreationFees(uint256)": {
        "details": "Sets the account creation fees to a new value",
        "params": {
          "_new": "New value for the account creation fees in USD"
        }
      },
      "setAllowAllAddressesFees(uint256)": {
        "details": "Sets the allow all addresses fees to a new value",
        "params": {
          "_new": "New value for the allow all addresses fees in USD"
        }
      },
      "setDealsContractRef(address)": {
        "details": "Sets the Deals contract reference to a new value",
        "params": {
          "_new": "New address of the Deals contract"
        }
      },
      "setInstructionsContractRef(address)": {
        "details": "Sets the Instructions contract reference to a new value",
        "params": {
          "_new": "New address of the Instructions contract"
        }
      },
      "setInterpreterContractRef(address)": {
        "details": "Sets the Interpreter contract reference to a new value",
        "params": {
          "_new": "New address of the Interpreter contract"
        }
      },
      "setRuleCreationFees(uint256)": {
        "details": "Sets the rule creation fees to a new value",
        "params": {
          "_new": "New value for the rule creation fees in USD"
        }
      },
      "setTransactionFees(uint256)": {
        "details": "Sets the transaction fees to a new value",
        "params": {
          "_new": "New value for the transaction fees in USD"
        }
      },
      "setTransactionMinimalValue(uint256)": {
        "details": "Sets the transaction minimal value to a new value",
        "params": {
          "_new": "New value for the transaction minimal value in USD"
        }
      },
      "setWEI2USDRate(uint256)": {
        "details": "Sets the WEI to USD conversion rate to a new value",
        "params": {
          "_new": "New value for the WEI to USD conversion rate in USD"
        }
      },
      "stringsEqual(string,string)": {
        "details": "Checks whether the strings are equal",
        "params": {
          "_s1": "First string to compare",
          "_s2": "Second string to compare"
        },
        "returns": {
          "_0": "Boolean indicating if the 2 strings are equal"
        }
      },
      "transferOwnership(address)": {
        "details": "Transfers ownership of the contract to a new account (`newOwner`). Can only be called by the current owner."
      }
    },
    "stateVariables": {
      "WEI2USDConversionRate": {
        "details": "USD/WEI rate"
      },
      "accountCreationFees": {
        "details": "Price per account added to the deal in USD"
      },
      "allowAllAddressesFees": {
        "details": "Price to allow incoming payments from all addresses others than internal/external accounts in USD"
      },
      "dealsContractRef": {
        "details": "Reference to the Deals contract"
      },
      "instructionsContractRef": {
        "details": "Reference to the Instructions contract"
      },
      "interpreterContractRef": {
        "details": "Reference to the Interpreter contract"
      },
      "ruleCreationFees": {
        "details": "Price per rule added to the deal in USD"
      },
      "transactionFees": {
        "details": "Transaction fees in % of the msg.value perceived on a deal execution in USD"
      },
      "transactionMinimalValue": {
        "details": "Minimal transaction value able to trigger an execution in USD"
      }
    },
    "title": "Proxy Contract",
    "version": 1
  },
  "userdoc": {
    "kind": "user",
    "methods": {},
    "notice": "lets-make-a-deal.eth allows you to make an agreement between different parties and automatically route ETH to different addresses based on simple rules.",
    "version": 1
  }
}