{
  "contractName": "Proxy",
  "abi": [
    {
      "inputs": [
        {
          "internalType": "uint256",
          "name": "_accountCreationFees",
          "type": "uint256"
        },
        {
          "internalType": "uint256",
          "name": "_ruleCreationFees",
          "type": "uint256"
        },
        {
          "internalType": "uint256",
          "name": "_allowAllAddressesFees",
          "type": "uint256"
        },
        {
          "internalType": "uint256",
          "name": "_transactionMinimalValue",
          "type": "uint256"
        },
        {
          "internalType": "uint256",
          "name": "_transactionFees",
          "type": "uint256"
        },
        {
          "internalType": "uint256",
          "name": "_lastQuotationValue",
          "type": "uint256"
        }
      ],
      "stateMutability": "nonpayable",
      "type": "constructor"
    },
    {
      "anonymous": false,
      "inputs": [
        {
          "indexed": false,
          "internalType": "address",
          "name": "_from",
          "type": "address"
        },
        {
          "indexed": false,
          "internalType": "uint256",
          "name": "_old",
          "type": "uint256"
        },
        {
          "indexed": false,
          "internalType": "uint256",
          "name": "_new",
          "type": "uint256"
        }
      ],
      "name": "ModifyAccountCreationFees",
      "type": "event"
    },
    {
      "anonymous": false,
      "inputs": [
        {
          "indexed": false,
          "internalType": "address",
          "name": "_from",
          "type": "address"
        },
        {
          "indexed": false,
          "internalType": "uint256",
          "name": "_old",
          "type": "uint256"
        },
        {
          "indexed": false,
          "internalType": "uint256",
          "name": "_new",
          "type": "uint256"
        }
      ],
      "name": "ModifyAllowAllAccountsFees",
      "type": "event"
    },
    {
      "anonymous": false,
      "inputs": [
        {
          "indexed": false,
          "internalType": "address",
          "name": "_from",
          "type": "address"
        },
        {
          "indexed": false,
          "internalType": "address",
          "name": "_old",
          "type": "address"
        },
        {
          "indexed": false,
          "internalType": "address",
          "name": "_new",
          "type": "address"
        }
      ],
      "name": "ModifyDealsContractAddress",
      "type": "event"
    },
    {
      "anonymous": false,
      "inputs": [
        {
          "indexed": false,
          "internalType": "address",
          "name": "_from",
          "type": "address"
        },
        {
          "indexed": false,
          "internalType": "address",
          "name": "_old",
          "type": "address"
        },
        {
          "indexed": false,
          "internalType": "address",
          "name": "_new",
          "type": "address"
        }
      ],
      "name": "ModifyInstructionsContractAddress",
      "type": "event"
    },
    {
      "anonymous": false,
      "inputs": [
        {
          "indexed": false,
          "internalType": "address",
          "name": "_from",
          "type": "address"
        },
        {
          "indexed": false,
          "internalType": "address",
          "name": "_old",
          "type": "address"
        },
        {
          "indexed": false,
          "internalType": "address",
          "name": "_new",
          "type": "address"
        }
      ],
      "name": "ModifyInstructionsProviderContractAddress",
      "type": "event"
    },
    {
      "anonymous": false,
      "inputs": [
        {
          "indexed": false,
          "internalType": "address",
          "name": "_from",
          "type": "address"
        },
        {
          "indexed": false,
          "internalType": "address",
          "name": "_old",
          "type": "address"
        },
        {
          "indexed": false,
          "internalType": "address",
          "name": "_new",
          "type": "address"
        }
      ],
      "name": "ModifyInterpreterContractAddress",
      "type": "event"
    },
    {
      "anonymous": false,
      "inputs": [
        {
          "indexed": false,
          "internalType": "address",
          "name": "_from",
          "type": "address"
        },
        {
          "indexed": false,
          "internalType": "address",
          "name": "_old",
          "type": "address"
        },
        {
          "indexed": false,
          "internalType": "address",
          "name": "_new",
          "type": "address"
        }
      ],
      "name": "ModifyPriceFeedRefAggregatorAddress",
      "type": "event"
    },
    {
      "anonymous": false,
      "inputs": [
        {
          "indexed": false,
          "internalType": "address",
          "name": "_from",
          "type": "address"
        },
        {
          "indexed": false,
          "internalType": "uint256",
          "name": "_old",
          "type": "uint256"
        },
        {
          "indexed": false,
          "internalType": "uint256",
          "name": "_new",
          "type": "uint256"
        }
      ],
      "name": "ModifyRuleCreationFees",
      "type": "event"
    },
    {
      "anonymous": false,
      "inputs": [
        {
          "indexed": false,
          "internalType": "address",
          "name": "_from",
          "type": "address"
        },
        {
          "indexed": false,
          "internalType": "uint256",
          "name": "_old",
          "type": "uint256"
        },
        {
          "indexed": false,
          "internalType": "uint256",
          "name": "_new",
          "type": "uint256"
        }
      ],
      "name": "ModifyTransactionFees",
      "type": "event"
    },
    {
      "anonymous": false,
      "inputs": [
        {
          "indexed": false,
          "internalType": "address",
          "name": "_from",
          "type": "address"
        },
        {
          "indexed": false,
          "internalType": "uint256",
          "name": "_old",
          "type": "uint256"
        },
        {
          "indexed": false,
          "internalType": "uint256",
          "name": "_new",
          "type": "uint256"
        }
      ],
      "name": "ModifyTransactionMinimalValue",
      "type": "event"
    },
    {
      "anonymous": false,
      "inputs": [
        {
          "indexed": true,
          "internalType": "address",
          "name": "previousOwner",
          "type": "address"
        },
        {
          "indexed": true,
          "internalType": "address",
          "name": "newOwner",
          "type": "address"
        }
      ],
      "name": "OwnershipTransferred",
      "type": "event"
    },
    {
      "anonymous": false,
      "inputs": [
        {
          "indexed": false,
          "internalType": "address",
          "name": "account",
          "type": "address"
        }
      ],
      "name": "Paused",
      "type": "event"
    },
    {
      "anonymous": false,
      "inputs": [
        {
          "indexed": false,
          "internalType": "address",
          "name": "_from",
          "type": "address"
        },
        {
          "indexed": false,
          "internalType": "uint256",
          "name": "_dealId",
          "type": "uint256"
        },
        {
          "indexed": false,
          "internalType": "uint256",
          "name": "_fees",
          "type": "uint256"
        }
      ],
      "name": "PayDealCreationFees",
      "type": "event"
    },
    {
      "anonymous": false,
      "inputs": [
        {
          "indexed": false,
          "internalType": "address",
          "name": "_from",
          "type": "address"
        },
        {
          "indexed": false,
          "internalType": "uint256",
          "name": "_dealId",
          "type": "uint256"
        },
        {
          "indexed": false,
          "internalType": "uint256",
          "name": "_ruleId",
          "type": "uint256"
        },
        {
          "indexed": false,
          "internalType": "uint256",
          "name": "_fees",
          "type": "uint256"
        }
      ],
      "name": "PayTransactionFees",
      "type": "event"
    },
    {
      "anonymous": false,
      "inputs": [
        {
          "indexed": false,
          "internalType": "address",
          "name": "_from",
          "type": "address"
        },
        {
          "indexed": false,
          "internalType": "uint256",
          "name": "_value",
          "type": "uint256"
        },
        {
          "indexed": false,
          "internalType": "uint256",
          "name": "_timestamp",
          "type": "uint256"
        }
      ],
      "name": "QueryLastQuotationFromChainlink",
      "type": "event"
    },
    {
      "anonymous": false,
      "inputs": [
        {
          "indexed": false,
          "internalType": "address",
          "name": "_to",
          "type": "address"
        },
        {
          "indexed": false,
          "internalType": "uint256",
          "name": "_dealId",
          "type": "uint256"
        },
        {
          "indexed": false,
          "internalType": "uint256",
          "name": "_amount",
          "type": "uint256"
        }
      ],
      "name": "ReimburseExcessValue",
      "type": "event"
    },
    {
      "anonymous": false,
      "inputs": [
        {
          "indexed": false,
          "internalType": "address",
          "name": "account",
          "type": "address"
        }
      ],
      "name": "Unpaused",
      "type": "event"
    },
    {
      "inputs": [],
      "name": "accountCreationFees",
      "outputs": [
        {
          "internalType": "uint256",
          "name": "",
          "type": "uint256"
        }
      ],
      "stateMutability": "view",
      "type": "function",
      "constant": true
    },
    {
      "inputs": [],
      "name": "allowAllAddressesFees",
      "outputs": [
        {
          "internalType": "uint256",
          "name": "",
          "type": "uint256"
        }
      ],
      "stateMutability": "view",
      "type": "function",
      "constant": true
    },
    {
      "inputs": [],
      "name": "dealsContractRef",
      "outputs": [
        {
          "internalType": "contract Deals",
          "name": "",
          "type": "address"
        }
      ],
      "stateMutability": "view",
      "type": "function",
      "constant": true
    },
    {
      "inputs": [],
      "name": "instructionsContractRef",
      "outputs": [
        {
          "internalType": "contract Instructions",
          "name": "",
          "type": "address"
        }
      ],
      "stateMutability": "view",
      "type": "function",
      "constant": true
    },
    {
      "inputs": [],
      "name": "instructionsProviderContractRef",
      "outputs": [
        {
          "internalType": "address",
          "name": "",
          "type": "address"
        }
      ],
      "stateMutability": "view",
      "type": "function",
      "constant": true
    },
    {
      "inputs": [],
      "name": "interpreterContractRef",
      "outputs": [
        {
          "internalType": "address",
          "name": "",
          "type": "address"
        }
      ],
      "stateMutability": "view",
      "type": "function",
      "constant": true
    },
    {
      "inputs": [],
      "name": "lastQuotationTimestamp",
      "outputs": [
        {
          "internalType": "uint256",
          "name": "",
          "type": "uint256"
        }
      ],
      "stateMutability": "view",
      "type": "function",
      "constant": true
    },
    {
      "inputs": [],
      "name": "lastQuotationValue",
      "outputs": [
        {
          "internalType": "uint256",
          "name": "",
          "type": "uint256"
        }
      ],
      "stateMutability": "view",
      "type": "function",
      "constant": true
    },
    {
      "inputs": [],
      "name": "owner",
      "outputs": [
        {
          "internalType": "address",
          "name": "",
          "type": "address"
        }
      ],
      "stateMutability": "view",
      "type": "function",
      "constant": true
    },
    {
      "inputs": [],
      "name": "paused",
      "outputs": [
        {
          "internalType": "bool",
          "name": "",
          "type": "bool"
        }
      ],
      "stateMutability": "view",
      "type": "function",
      "constant": true
    },
    {
      "inputs": [],
      "name": "priceFeedRef",
      "outputs": [
        {
          "internalType": "contract AggregatorV3Interface",
          "name": "",
          "type": "address"
        }
      ],
      "stateMutability": "view",
      "type": "function",
      "constant": true
    },
    {
      "inputs": [],
      "name": "ruleCreationFees",
      "outputs": [
        {
          "internalType": "uint256",
          "name": "",
          "type": "uint256"
        }
      ],
      "stateMutability": "view",
      "type": "function",
      "constant": true
    },
    {
      "inputs": [],
      "name": "transactionFees",
      "outputs": [
        {
          "internalType": "uint256",
          "name": "",
          "type": "uint256"
        }
      ],
      "stateMutability": "view",
      "type": "function",
      "constant": true
    },
    {
      "inputs": [],
      "name": "transactionMinimalValue",
      "outputs": [
        {
          "internalType": "uint256",
          "name": "",
          "type": "uint256"
        }
      ],
      "stateMutability": "view",
      "type": "function",
      "constant": true
    },
    {
      "inputs": [
        {
          "internalType": "address",
          "name": "newOwner",
          "type": "address"
        }
      ],
      "name": "transferOwnership",
      "outputs": [],
      "stateMutability": "nonpayable",
      "type": "function"
    },
    {
      "inputs": [
        {
          "internalType": "address",
          "name": "_new",
          "type": "address"
        }
      ],
      "name": "setPriceFeedRefAggregatorAddress",
      "outputs": [],
      "stateMutability": "nonpayable",
      "type": "function"
    },
    {
      "inputs": [
        {
          "internalType": "address",
          "name": "_new",
          "type": "address"
        }
      ],
      "name": "setInstructionsContractRef",
      "outputs": [],
      "stateMutability": "nonpayable",
      "type": "function"
    },
    {
      "inputs": [
        {
          "internalType": "address",
          "name": "_new",
          "type": "address"
        }
      ],
      "name": "setInstructionsProviderContractRef",
      "outputs": [],
      "stateMutability": "nonpayable",
      "type": "function"
    },
    {
      "inputs": [
        {
          "internalType": "address",
          "name": "_new",
          "type": "address"
        }
      ],
      "name": "setDealsContractRef",
      "outputs": [],
      "stateMutability": "nonpayable",
      "type": "function"
    },
    {
      "inputs": [
        {
          "internalType": "address",
          "name": "_new",
          "type": "address"
        }
      ],
      "name": "setInterpreterContractRef",
      "outputs": [],
      "stateMutability": "nonpayable",
      "type": "function"
    },
    {
      "inputs": [
        {
          "internalType": "uint256",
          "name": "_new",
          "type": "uint256"
        }
      ],
      "name": "setAccountCreationFees",
      "outputs": [],
      "stateMutability": "nonpayable",
      "type": "function"
    },
    {
      "inputs": [
        {
          "internalType": "uint256",
          "name": "_new",
          "type": "uint256"
        }
      ],
      "name": "setRuleCreationFees",
      "outputs": [],
      "stateMutability": "nonpayable",
      "type": "function"
    },
    {
      "inputs": [
        {
          "internalType": "uint256",
          "name": "_new",
          "type": "uint256"
        }
      ],
      "name": "setAllowAllAddressesFees",
      "outputs": [],
      "stateMutability": "nonpayable",
      "type": "function"
    },
    {
      "inputs": [
        {
          "internalType": "uint256",
          "name": "_new",
          "type": "uint256"
        }
      ],
      "name": "setTransactionMinimalValue",
      "outputs": [],
      "stateMutability": "nonpayable",
      "type": "function"
    },
    {
      "inputs": [
        {
          "internalType": "uint256",
          "name": "_new",
          "type": "uint256"
        }
      ],
      "name": "setTransactionFees",
      "outputs": [],
      "stateMutability": "nonpayable",
      "type": "function"
    },
    {
      "inputs": [
        {
          "internalType": "address[]",
          "name": "_accounts",
          "type": "address[]"
        },
        {
          "components": [
            {
              "internalType": "string",
              "name": "instructionName",
              "type": "string"
            },
            {
              "internalType": "string",
              "name": "paramStr",
              "type": "string"
            },
            {
              "internalType": "uint256",
              "name": "paramUInt",
              "type": "uint256"
            },
            {
              "internalType": "address",
              "name": "paramAddress",
              "type": "address"
            }
          ],
          "internalType": "struct CommonStructs.Article[][]",
          "name": "_rulesList",
          "type": "tuple[][]"
        }
      ],
      "name": "createDeal",
      "outputs": [
        {
          "internalType": "uint256",
          "name": "",
          "type": "uint256"
        }
      ],
      "stateMutability": "payable",
      "type": "function",
      "payable": true
    },
    {
      "inputs": [
        {
          "internalType": "uint256",
          "name": "_dealId",
          "type": "uint256"
        },
        {
          "internalType": "uint256",
          "name": "_ruleId",
          "type": "uint256"
        }
      ],
      "name": "executeRule",
      "outputs": [],
      "stateMutability": "payable",
      "type": "function",
      "payable": true
    },
    {
      "inputs": [],
      "name": "withdraw",
      "outputs": [],
      "stateMutability": "nonpayable",
      "type": "function"
    },
    {
      "inputs": [],
      "name": "getBalance",
      "outputs": [
        {
          "internalType": "uint256",
          "name": "",
          "type": "uint256"
        }
      ],
      "stateMutability": "view",
      "type": "function",
      "constant": true
    },
    {
      "inputs": [],
      "name": "saveLatestQuotation",
      "outputs": [],
      "stateMutability": "nonpayable",
      "type": "function"
    },
    {
      "inputs": [],
      "name": "getLatestQuotation",
      "outputs": [
        {
          "internalType": "uint256",
          "name": "",
          "type": "uint256"
        },
        {
          "internalType": "uint256",
          "name": "",
          "type": "uint256"
        }
      ],
      "stateMutability": "view",
      "type": "function",
      "constant": true
    },
    {
      "inputs": [
        {
          "internalType": "uint256",
          "name": "_accountsCount",
          "type": "uint256"
        },
        {
          "internalType": "uint256",
          "name": "_rulesCount",
          "type": "uint256"
        }
      ],
      "name": "computeDealCreationFeesInWEI",
      "outputs": [
        {
          "internalType": "uint256",
          "name": "",
          "type": "uint256"
        }
      ],
      "stateMutability": "view",
      "type": "function",
      "constant": true
    },
    {
      "inputs": [
        {
          "internalType": "uint256",
          "name": "_amountInWEI",
          "type": "uint256"
        }
      ],
      "name": "convertWEI2USD",
      "outputs": [
        {
          "internalType": "uint256",
          "name": "",
          "type": "uint256"
        }
      ],
      "stateMutability": "view",
      "type": "function",
      "constant": true
    },
    {
      "inputs": [
        {
          "internalType": "uint256",
          "name": "_amountInUSD",
          "type": "uint256"
        }
      ],
      "name": "convertUSD2WEI",
      "outputs": [
        {
          "internalType": "uint256",
          "name": "",
          "type": "uint256"
        }
      ],
      "stateMutability": "view",
      "type": "function",
      "constant": true
    },
    {
      "inputs": [
        {
          "internalType": "string",
          "name": "_s1",
          "type": "string"
        },
        {
          "internalType": "string",
          "name": "_s2",
          "type": "string"
        }
      ],
      "name": "stringsEqual",
      "outputs": [
        {
          "internalType": "bool",
          "name": "",
          "type": "bool"
        }
      ],
      "stateMutability": "pure",
      "type": "function",
      "constant": true
    },
    {
      "inputs": [],
      "name": "pause",
      "outputs": [],
      "stateMutability": "nonpayable",
      "type": "function"
    },
    {
      "inputs": [],
      "name": "unpause",
      "outputs": [],
      "stateMutability": "nonpayable",
      "type": "function"
    },
    {
      "inputs": [],
      "name": "renounceOwnership",
      "outputs": [],
      "stateMutability": "pure",
      "type": "function",
      "constant": true
    }
  ],
  "bytecode": "0x60806040523480156200001157600080fd5b5060405162003f2138038062003f218339818101604052810190620000379190620001b3565b620000576200004b620000a760201b60201c565b620000af60201b60201c565b60008060146101000a81548160ff021916908315150217905550856008819055508460098190555083600a8190555082600b8190555081600c81905550806002819055505050505050506200024f565b600033905090565b60008060009054906101000a900473ffffffffffffffffffffffffffffffffffffffff169050816000806101000a81548173ffffffffffffffffffffffffffffffffffffffff021916908373ffffffffffffffffffffffffffffffffffffffff1602179055508173ffffffffffffffffffffffffffffffffffffffff168173ffffffffffffffffffffffffffffffffffffffff167f8be0079c531659141344cd1fd0a4f28419497f9722a3daafe3b4186f6b6457e060405160405180910390a35050565b600080fd5b6000819050919050565b6200018d8162000178565b81146200019957600080fd5b50565b600081519050620001ad8162000182565b92915050565b60008060008060008060c08789031215620001d357620001d262000173565b5b6000620001e389828a016200019c565b9650506020620001f689828a016200019c565b95505060406200020989828a016200019c565b94505060606200021c89828a016200019c565b93505060806200022f89828a016200019c565b92505060a06200024289828a016200019c565b9150509295509295509295565b613cc2806200025f6000396000f3fe6080604052600436106102255760003560e01c80636b18c1ca11610123578063b37be8e4116100ab578063f2fde38b1161006f578063f2fde38b14610765578063f42a4f791461078e578063f7f9e1e8146107cb578063f8210b3a146107f6578063fc51821c1461082157610225565b8063b37be8e414610680578063b50f34da146106ab578063d74b47ef146106d4578063e65fcc73146106fd578063ec2035c31461072857610225565b80638d249545116100f25780638d249545146105ba5780638da5cb5b146105e557806396b6dc7d146106105780639efe46bc1461062c578063a2ae0cd21461065757610225565b80636b18c1ca146105385780636c79eafc14610561578063715018a61461058c5780638456cb59146105a357610225565b80633ccfd60b116101b15780634e02b0b3116101755780634e02b0b31461047757806351bcde62146104a0578063562b7d94146104b75780635c975abb146104e2578063652522f51461050d57610225565b80633ccfd60b146103cc5780633f4ba83a146103e35780634368080b146103fa57806343d16ecd14610423578063446f772f1461044e57610225565b80632131d8c3116101f85780632131d8c3146102fa57806326698e75146103235780632a16348c1461034c5780633987c9b21461037557806339a6dcc3146103a157610225565b8063028a84be1461022a578063042c27ea1461025557806312065fe01461029257806313d19950146102bd575b600080fd5b34801561023657600080fd5b5061023f610851565b60405161024c9190612579565b60405180910390f35b34801561026157600080fd5b5061027c600480360381019061027791906125d4565b610857565b6040516102899190612579565b60405180910390f35b34801561029e57600080fd5b506102a761086e565b6040516102b49190612579565b60405180910390f35b3480156102c957600080fd5b506102e460048036038101906102df9190612747565b6108f2565b6040516102f191906127da565b60405180910390f35b34801561030657600080fd5b50610321600480360381019061031c9190612853565b61090d565b005b34801561032f57600080fd5b5061034a600480360381019061034591906125d4565b610a77565b005b34801561035857600080fd5b50610373600480360381019061036e91906125d4565b610b87565b005b34801561038157600080fd5b5061038a610c97565b604051610398929190612880565b60405180910390f35b3480156103ad57600080fd5b506103b6610ca8565b6040516103c39190612579565b60405180910390f35b3480156103d857600080fd5b506103e1610cae565b005b3480156103ef57600080fd5b506103f8610e55565b005b34801561040657600080fd5b50610421600480360381019061041c9190612853565b610f22565b005b34801561042f57600080fd5b5061043861108c565b6040516104459190612579565b60405180910390f35b34801561045a57600080fd5b5061047560048036038101906104709190612853565b611092565b005b34801561048357600080fd5b5061049e60048036038101906104999190612853565b6111fc565b005b3480156104ac57600080fd5b506104b5611366565b005b3480156104c357600080fd5b506104cc6114f1565b6040516104d99190612908565b60405180910390f35b3480156104ee57600080fd5b506104f7611517565b60405161050491906127da565b60405180910390f35b34801561051957600080fd5b5061052261152d565b60405161052f9190612579565b60405180910390f35b34801561054457600080fd5b5061055f600480360381019061055a91906125d4565b611533565b005b34801561056d57600080fd5b50610576611643565b6040516105839190612932565b60405180910390f35b34801561059857600080fd5b506105a1611669565b005b3480156105af57600080fd5b506105b86116a4565b005b3480156105c657600080fd5b506105cf611772565b6040516105dc9190612579565b60405180910390f35b3480156105f157600080fd5b506105fa611778565b6040516106079190612932565b60405180910390f35b61062a6004803603810190610625919061294d565b6117a1565b005b34801561063857600080fd5b50610641611a09565b60405161064e9190612579565b60405180910390f35b34801561066357600080fd5b5061067e600480360381019061067991906125d4565b611a0f565b005b34801561068c57600080fd5b50610695611b1f565b6040516106a29190612579565b60405180910390f35b3480156106b757600080fd5b506106d260048036038101906106cd91906125d4565b611b25565b005b3480156106e057600080fd5b506106fb60048036038101906106f69190612853565b611c35565b005b34801561070957600080fd5b50610712611d58565b60405161071f9190612932565b60405180910390f35b34801561073457600080fd5b5061074f600480360381019061074a919061294d565b611d7e565b60405161075c9190612579565b60405180910390f35b34801561077157600080fd5b5061078c60048036038101906107879190612853565b611dbb565b005b34801561079a57600080fd5b506107b560048036038101906107b091906125d4565b611eb3565b6040516107c29190612579565b60405180910390f35b3480156107d757600080fd5b506107e0611eca565b6040516107ed91906129ae565b60405180910390f35b34801561080257600080fd5b5061080b611ef0565b60405161081891906129ea565b60405180910390f35b61083b60048036038101906108369190612d49565b611f16565b6040516108489190612579565b60405180910390f35b60085481565b6000600254826108679190612df0565b9050919050565b6000610878612350565b73ffffffffffffffffffffffffffffffffffffffff16610896611778565b73ffffffffffffffffffffffffffffffffffffffff16146108ec576040517f08c379a00000000000000000000000000000000000000000000000000000000081526004016108e390612ea7565b60405180910390fd5b47905090565b60008180519060200120838051906020012014905092915050565b610915612350565b73ffffffffffffffffffffffffffffffffffffffff16610933611778565b73ffffffffffffffffffffffffffffffffffffffff1614610989576040517f08c379a000000000000000000000000000000000000000000000000000000000815260040161098090612ea7565b60405180910390fd5b610991611517565b6109d0576040517f08c379a00000000000000000000000000000000000000000000000000000000081526004016109c790612f13565b60405180910390fd5b6000600760009054906101000a900473ffffffffffffffffffffffffffffffffffffffff16905081600760006101000a81548173ffffffffffffffffffffffffffffffffffffffff021916908373ffffffffffffffffffffffffffffffffffffffff1602179055507f81ed796ae91ccecf245e3cb1b6149b3491e1f0989e603b5d1b388bd68f06b52b338284604051610a6b93929190612f33565b60405180910390a15050565b610a7f612350565b73ffffffffffffffffffffffffffffffffffffffff16610a9d611778565b73ffffffffffffffffffffffffffffffffffffffff1614610af3576040517f08c379a0000000000000000000000000000000000000000000000000000000008152600401610aea90612ea7565b60405180910390fd5b610afb611517565b610b3a576040517f08c379a0000000000000000000000000000000000000000000000000000000008152600401610b3190612f13565b60405180910390fd5b60006009549050816009819055507f95204251d165fe2245c1dceb4c89885d7b8cfdb88aa079c9428ef4e12df3b0ac338284604051610b7b93929190612f6a565b60405180910390a15050565b610b8f612350565b73ffffffffffffffffffffffffffffffffffffffff16610bad611778565b73ffffffffffffffffffffffffffffffffffffffff1614610c03576040517f08c379a0000000000000000000000000000000000000000000000000000000008152600401610bfa90612ea7565b60405180910390fd5b610c0b611517565b610c4a576040517f08c379a0000000000000000000000000000000000000000000000000000000008152600401610c4190612f13565b60405180910390fd5b6000600b54905081600b819055507f9fd5b1fe2d0c3437bd798e95b2f63bd4a3b08887c95a04d22832ccb4aae9fda4338284604051610c8b93929190612f6a565b60405180910390a15050565b600080600254600354915091509091565b60025481565b610cb6611517565b15610cf6576040517f08c379a0000000000000000000000000000000000000000000000000000000008152600401610ced90612fed565b60405180910390fd5b6000600560009054906101000a900473ffffffffffffffffffffffffffffffffffffffff1673ffffffffffffffffffffffffffffffffffffffff1633604051602401610d429190612932565b6040516020818303038152906040527f51cff8d9000000000000000000000000000000000000000000000000000000007bffffffffffffffffffffffffffffffffffffffffffffffffffffffff19166020820180517bffffffffffffffffffffffffffffffffffffffffffffffffffffffff8381831617835250505050604051610dcc9190613087565b6000604051808303816000865af19150503d8060008114610e09576040519150601f19603f3d011682016040523d82523d6000602084013e610e0e565b606091505b5050905080610e52576040517f08c379a0000000000000000000000000000000000000000000000000000000008152600401610e4990613110565b60405180910390fd5b50565b610e5d612350565b73ffffffffffffffffffffffffffffffffffffffff16610e7b611778565b73ffffffffffffffffffffffffffffffffffffffff1614610ed1576040517f08c379a0000000000000000000000000000000000000000000000000000000008152600401610ec890612ea7565b60405180910390fd5b610ed9611517565b610f18576040517f08c379a0000000000000000000000000000000000000000000000000000000008152600401610f0f90612f13565b60405180910390fd5b610f20612358565b565b610f2a612350565b73ffffffffffffffffffffffffffffffffffffffff16610f48611778565b73ffffffffffffffffffffffffffffffffffffffff1614610f9e576040517f08c379a0000000000000000000000000000000000000000000000000000000008152600401610f9590612ea7565b60405180910390fd5b610fa6611517565b610fe5576040517f08c379a0000000000000000000000000000000000000000000000000000000008152600401610fdc90612f13565b60405180910390fd5b6000600460009054906101000a900473ffffffffffffffffffffffffffffffffffffffff16905081600460006101000a81548173ffffffffffffffffffffffffffffffffffffffff021916908373ffffffffffffffffffffffffffffffffffffffff1602179055507f7a98528f6374afdc782de68dfe485f60c47c83eb22d862896ee7c59a13c6d89933828460405161108093929190612f33565b60405180910390a15050565b60035481565b61109a612350565b73ffffffffffffffffffffffffffffffffffffffff166110b8611778565b73ffffffffffffffffffffffffffffffffffffffff161461110e576040517f08c379a000000000000000000000000000000000000000000000000000000000815260040161110590612ea7565b60405180910390fd5b611116611517565b611155576040517f08c379a000000000000000000000000000000000000000000000000000000000815260040161114c90612f13565b60405180910390fd5b6000600560009054906101000a900473ffffffffffffffffffffffffffffffffffffffff16905081600560006101000a81548173ffffffffffffffffffffffffffffffffffffffff021916908373ffffffffffffffffffffffffffffffffffffffff1602179055507fdb667aada5a9918e51ab4a84bdf8d3e2f29386d98b52ae66cb26eaa442bbf9683382846040516111f093929190612f33565b60405180910390a15050565b611204612350565b73ffffffffffffffffffffffffffffffffffffffff16611222611778565b73ffffffffffffffffffffffffffffffffffffffff1614611278576040517f08c379a000000000000000000000000000000000000000000000000000000000815260040161126f90612ea7565b60405180910390fd5b611280611517565b6112bf576040517f08c379a00000000000000000000000000000000000000000000000000000000081526004016112b690612f13565b60405180910390fd5b6000600660009054906101000a900473ffffffffffffffffffffffffffffffffffffffff16905081600660006101000a81548173ffffffffffffffffffffffffffffffffffffffff021916908373ffffffffffffffffffffffffffffffffffffffff1602179055507fef88ef88851c867cbde2a8d8f43f01b9b75342fb93a2a7034ea0d656dbe1378233828460405161135a93929190612f33565b60405180910390a15050565b61136e612350565b73ffffffffffffffffffffffffffffffffffffffff1661138c611778565b73ffffffffffffffffffffffffffffffffffffffff16146113e2576040517f08c379a00000000000000000000000000000000000000000000000000000000081526004016113d990612ea7565b60405180910390fd5b600080600160009054906101000a900473ffffffffffffffffffffffffffffffffffffffff1673ffffffffffffffffffffffffffffffffffffffff1663feaf968c6040518163ffffffff1660e01b815260040160a06040518083038186803b15801561144d57600080fd5b505afa158015611461573d6000803e3d6000fd5b505050506040513d601f19601f8201168201806040525081019061148591906131bd565b50935050925050816a52b7d2dcc80cd2e40000006114a39190613267565b600281905550806003819055507f5b351a1cfe437f1ffd3264dd6e306788df85c7a71e50aa62b1b0a42fae257abd33600254836040516114e593929190612f6a565b60405180910390a15050565b600460009054906101000a900473ffffffffffffffffffffffffffffffffffffffff1681565b60008060149054906101000a900460ff16905090565b60095481565b61153b612350565b73ffffffffffffffffffffffffffffffffffffffff16611559611778565b73ffffffffffffffffffffffffffffffffffffffff16146115af576040517f08c379a00000000000000000000000000000000000000000000000000000000081526004016115a690612ea7565b60405180910390fd5b6115b7611517565b6115f6576040517f08c379a00000000000000000000000000000000000000000000000000000000081526004016115ed90612f13565b60405180910390fd5b60006008549050816008819055507f20cb277045b07975ddd69579bb7c5703b15359a94bc8b635d4a17c243c8a65ac33828460405161163793929190612f6a565b60405180910390a15050565b600760009054906101000a900473ffffffffffffffffffffffffffffffffffffffff1681565b6040517f08c379a000000000000000000000000000000000000000000000000000000000815260040161169b906132e4565b60405180910390fd5b6116ac612350565b73ffffffffffffffffffffffffffffffffffffffff166116ca611778565b73ffffffffffffffffffffffffffffffffffffffff1614611720576040517f08c379a000000000000000000000000000000000000000000000000000000000815260040161171790612ea7565b60405180910390fd5b611728611517565b15611768576040517f08c379a000000000000000000000000000000000000000000000000000000000815260040161175f90612fed565b60405180910390fd5b6117706123f9565b565b600a5481565b60008060009054906101000a900473ffffffffffffffffffffffffffffffffffffffff16905090565b6117a9611517565b156117e9576040517f08c379a00000000000000000000000000000000000000000000000000000000081526004016117e090612fed565b60405180910390fd5b60006117f434611eb3565b9050600b5481101561183b576040517f08c379a000000000000000000000000000000000000000000000000000000000815260040161183290613376565b60405180910390fd5b6000600c5460643461184d9190613267565b6118579190612df0565b90506000600760009054906101000a900473ffffffffffffffffffffffffffffffffffffffff1673ffffffffffffffffffffffffffffffffffffffff1682346118a09190613396565b3387876040516024016118b593929190612f6a565b6040516020818303038152906040527f889f7d85000000000000000000000000000000000000000000000000000000007bffffffffffffffffffffffffffffffffffffffffffffffffffffffff19166020820180517bffffffffffffffffffffffffffffffffffffffffffffffffffffffff838183161783525050505060405161193f9190613087565b60006040518083038185875af1925050503d806000811461197c576040519150601f19603f3d011682016040523d82523d6000602084013e611981565b606091505b50509050806119c5576040517f08c379a00000000000000000000000000000000000000000000000000000000081526004016119bc90613416565b60405180910390fd5b7ffa46e5ec587216687a4a33c4e605f1483f16833be6465e442d80d7bcbaec2eaf338686856040516119fa9493929190613436565b60405180910390a15050505050565b600b5481565b611a17612350565b73ffffffffffffffffffffffffffffffffffffffff16611a35611778565b73ffffffffffffffffffffffffffffffffffffffff1614611a8b576040517f08c379a0000000000000000000000000000000000000000000000000000000008152600401611a8290612ea7565b60405180910390fd5b611a93611517565b611ad2576040517f08c379a0000000000000000000000000000000000000000000000000000000008152600401611ac990612f13565b60405180910390fd5b6000600c54905081600c819055507f93dcb4d14ff2c7a93d0076d4d9fbf19c189f2de91a9ba7d79bb80115fe7a852d338284604051611b1393929190612f6a565b60405180910390a15050565b600c5481565b611b2d612350565b73ffffffffffffffffffffffffffffffffffffffff16611b4b611778565b73ffffffffffffffffffffffffffffffffffffffff1614611ba1576040517f08c379a0000000000000000000000000000000000000000000000000000000008152600401611b9890612ea7565b60405180910390fd5b611ba9611517565b611be8576040517f08c379a0000000000000000000000000000000000000000000000000000000008152600401611bdf90612f13565b60405180910390fd5b6000600a54905081600a819055507fd1a0f1c3e15bbeb47f950c6fd7572c460678919e9d839966bf073b487365e4bb338284604051611c2993929190612f6a565b60405180910390a15050565b611c3d612350565b73ffffffffffffffffffffffffffffffffffffffff16611c5b611778565b73ffffffffffffffffffffffffffffffffffffffff1614611cb1576040517f08c379a0000000000000000000000000000000000000000000000000000000008152600401611ca890612ea7565b60405180910390fd5b6000600160009054906101000a900473ffffffffffffffffffffffffffffffffffffffff16905081600160006101000a81548173ffffffffffffffffffffffffffffffffffffffff021916908373ffffffffffffffffffffffffffffffffffffffff1602179055507fb9515b0e9bbaa4038b7497d737691b38d19b454e0bcdc0ecc69472117684e192338284604051611d4c93929190612f33565b60405180910390a15050565b600560009054906101000a900473ffffffffffffffffffffffffffffffffffffffff1681565b600060025460095483611d919190612df0565b60085485611d9f9190612df0565b611da9919061347b565b611db39190612df0565b905092915050565b611dc3612350565b73ffffffffffffffffffffffffffffffffffffffff16611de1611778565b73ffffffffffffffffffffffffffffffffffffffff1614611e37576040517f08c379a0000000000000000000000000000000000000000000000000000000008152600401611e2e90612ea7565b60405180910390fd5b600073ffffffffffffffffffffffffffffffffffffffff168173ffffffffffffffffffffffffffffffffffffffff161415611ea7576040517f08c379a0000000000000000000000000000000000000000000000000000000008152600401611e9e90613543565b60405180910390fd5b611eb08161249c565b50565b600060025482611ec39190613267565b9050919050565b600160009054906101000a900473ffffffffffffffffffffffffffffffffffffffff1681565b600660009054906101000a900473ffffffffffffffffffffffffffffffffffffffff1681565b6000611f20611517565b15611f60576040517f08c379a0000000000000000000000000000000000000000000000000000000008152600401611f5790612fed565b60405180910390fd5b6000611f6e84518451611d7e565b905080341015611fb3576040517f08c379a0000000000000000000000000000000000000000000000000000000008152600401611faa906135d5565b60405180910390fd5b60005b83518110156121535760005b848281518110611fd557611fd46135f5565b5b60200260200101515181101561213f576000600460009054906101000a900473ffffffffffffffffffffffffffffffffffffffff1673ffffffffffffffffffffffffffffffffffffffff166399b87f6c878581518110612038576120376135f5565b5b60200260200101518481518110612052576120516135f5565b5b6020026020010151600001516040518263ffffffff1660e01b815260040161207a9190613668565b60006040518083038186803b15801561209257600080fd5b505afa1580156120a6573d6000803e3d6000fd5b505050506040513d6000823e3d601f19601f820116820180604052508101906120cf919061371f565b9150506120eb81604051806020016040528060008152506108f2565b1561212b576040517f08c379a0000000000000000000000000000000000000000000000000000000008152600401612122906137ed565b60405180910390fd5b5080806121379061380d565b915050611fc2565b50808061214b9061380d565b915050611fb6565b506000600660009054906101000a900473ffffffffffffffffffffffffffffffffffffffff1673ffffffffffffffffffffffffffffffffffffffff1663fc51821c86866040518363ffffffff1660e01b81526004016121b3929190613b5b565b602060405180830381600087803b1580156121cd57600080fd5b505af11580156121e1573d6000803e3d6000fd5b505050506040513d601f19601f820116820180604052508101906122059190613b92565b9050600082346122159190613396565b905060008111156123095760003373ffffffffffffffffffffffffffffffffffffffff168260405161224690613be5565b60006040518083038185875af1925050503d8060008114612283576040519150601f19603f3d011682016040523d82523d6000602084013e612288565b606091505b50509050806122cc576040517f08c379a00000000000000000000000000000000000000000000000000000000081526004016122c390613c6c565b60405180910390fd5b7f06a8acc0e592ef9d5924c211904629acef99f7d13d3c585219454c7fe93cd4ef3384846040516122ff93929190612f6a565b60405180910390a1505b7f1e34314d10c294e150d9078dc4808fbc4e77807ab189f2556837ace79995889033838560405161233c93929190612f6a565b60405180910390a181935050505092915050565b600033905090565b612360611517565b61239f576040517f08c379a000000000000000000000000000000000000000000000000000000000815260040161239690612f13565b60405180910390fd5b60008060146101000a81548160ff0219169083151502179055507f5db9ee0a495bf2e6ff9c91a7834c1ba4fdd244a5e8aa4e537bd38aeae4b073aa6123e2612350565b6040516123ef9190612932565b60405180910390a1565b612401611517565b15612441576040517f08c379a000000000000000000000000000000000000000000000000000000000815260040161243890612fed565b60405180910390fd5b6001600060146101000a81548160ff0219169083151502179055507f62e78cea01bee320cd4e420270b5ea74000d11b0c9f74754ebdbfc544b05a258612485612350565b6040516124929190612932565b60405180910390a1565b60008060009054906101000a900473ffffffffffffffffffffffffffffffffffffffff169050816000806101000a81548173ffffffffffffffffffffffffffffffffffffffff021916908373ffffffffffffffffffffffffffffffffffffffff1602179055508173ffffffffffffffffffffffffffffffffffffffff168173ffffffffffffffffffffffffffffffffffffffff167f8be0079c531659141344cd1fd0a4f28419497f9722a3daafe3b4186f6b6457e060405160405180910390a35050565b6000819050919050565b61257381612560565b82525050565b600060208201905061258e600083018461256a565b92915050565b6000604051905090565b600080fd5b600080fd5b6125b181612560565b81146125bc57600080fd5b50565b6000813590506125ce816125a8565b92915050565b6000602082840312156125ea576125e961259e565b5b60006125f8848285016125bf565b91505092915050565b600080fd5b600080fd5b6000601f19601f8301169050919050565b7f4e487b7100000000000000000000000000000000000000000000000000000000600052604160045260246000fd5b6126548261260b565b810181811067ffffffffffffffff821117156126735761267261261c565b5b80604052505050565b6000612686612594565b9050612692828261264b565b919050565b600067ffffffffffffffff8211156126b2576126b161261c565b5b6126bb8261260b565b9050602081019050919050565b82818337600083830152505050565b60006126ea6126e584612697565b61267c565b90508281526020810184848401111561270657612705612606565b5b6127118482856126c8565b509392505050565b600082601f83011261272e5761272d612601565b5b813561273e8482602086016126d7565b91505092915050565b6000806040838503121561275e5761275d61259e565b5b600083013567ffffffffffffffff81111561277c5761277b6125a3565b5b61278885828601612719565b925050602083013567ffffffffffffffff8111156127a9576127a86125a3565b5b6127b585828601612719565b9150509250929050565b60008115159050919050565b6127d4816127bf565b82525050565b60006020820190506127ef60008301846127cb565b92915050565b600073ffffffffffffffffffffffffffffffffffffffff82169050919050565b6000612820826127f5565b9050919050565b61283081612815565b811461283b57600080fd5b50565b60008135905061284d81612827565b92915050565b6000602082840312156128695761286861259e565b5b60006128778482850161283e565b91505092915050565b6000604082019050612895600083018561256a565b6128a2602083018461256a565b9392505050565b6000819050919050565b60006128ce6128c96128c4846127f5565b6128a9565b6127f5565b9050919050565b60006128e0826128b3565b9050919050565b60006128f2826128d5565b9050919050565b612902816128e7565b82525050565b600060208201905061291d60008301846128f9565b92915050565b61292c81612815565b82525050565b60006020820190506129476000830184612923565b92915050565b600080604083850312156129645761296361259e565b5b6000612972858286016125bf565b9250506020612983858286016125bf565b9150509250929050565b6000612998826128d5565b9050919050565b6129a88161298d565b82525050565b60006020820190506129c3600083018461299f565b92915050565b60006129d4826128d5565b9050919050565b6129e4816129c9565b82525050565b60006020820190506129ff60008301846129db565b92915050565b600067ffffffffffffffff821115612a2057612a1f61261c565b5b602082029050602081019050919050565b600080fd5b6000612a49612a4484612a05565b61267c565b90508083825260208201905060208402830185811115612a6c57612a6b612a31565b5b835b81811015612a955780612a81888261283e565b845260208401935050602081019050612a6e565b5050509392505050565b600082601f830112612ab457612ab3612601565b5b8135612ac4848260208601612a36565b91505092915050565b600067ffffffffffffffff821115612ae857612ae761261c565b5b602082029050602081019050919050565b600067ffffffffffffffff821115612b1457612b1361261c565b5b602082029050602081019050919050565b600080fd5b600080fd5b600060808284031215612b4557612b44612b25565b5b612b4f608061267c565b9050600082013567ffffffffffffffff811115612b6f57612b6e612b2a565b5b612b7b84828501612719565b600083015250602082013567ffffffffffffffff811115612b9f57612b9e612b2a565b5b612bab84828501612719565b6020830152506040612bbf848285016125bf565b6040830152506060612bd38482850161283e565b60608301525092915050565b6000612bf2612bed84612af9565b61267c565b90508083825260208201905060208402830185811115612c1557612c14612a31565b5b835b81811015612c5c57803567ffffffffffffffff811115612c3a57612c39612601565b5b808601612c478982612b2f565b85526020850194505050602081019050612c17565b5050509392505050565b600082601f830112612c7b57612c7a612601565b5b8135612c8b848260208601612bdf565b91505092915050565b6000612ca7612ca284612acd565b61267c565b90508083825260208201905060208402830185811115612cca57612cc9612a31565b5b835b81811015612d1157803567ffffffffffffffff811115612cef57612cee612601565b5b808601612cfc8982612c66565b85526020850194505050602081019050612ccc565b5050509392505050565b600082601f830112612d3057612d2f612601565b5b8135612d40848260208601612c94565b91505092915050565b60008060408385031215612d6057612d5f61259e565b5b600083013567ffffffffffffffff811115612d7e57612d7d6125a3565b5b612d8a85828601612a9f565b925050602083013567ffffffffffffffff811115612dab57612daa6125a3565b5b612db785828601612d1b565b9150509250929050565b7f4e487b7100000000000000000000000000000000000000000000000000000000600052601160045260246000fd5b6000612dfb82612560565b9150612e0683612560565b9250817fffffffffffffffffffffffffffffffffffffffffffffffffffffffffffffffff0483118215151615612e3f57612e3e612dc1565b5b828202905092915050565b600082825260208201905092915050565b7f4f776e61626c653a2063616c6c6572206973206e6f7420746865206f776e6572600082015250565b6000612e91602083612e4a565b9150612e9c82612e5b565b602082019050919050565b60006020820190508181036000830152612ec081612e84565b9050919050565b7f5061757361626c653a206e6f7420706175736564000000000000000000000000600082015250565b6000612efd601483612e4a565b9150612f0882612ec7565b602082019050919050565b60006020820190508181036000830152612f2c81612ef0565b9050919050565b6000606082019050612f486000830186612923565b612f556020830185612923565b612f626040830184612923565b949350505050565b6000606082019050612f7f6000830186612923565b612f8c602083018561256a565b612f99604083018461256a565b949350505050565b7f5061757361626c653a2070617573656400000000000000000000000000000000600082015250565b6000612fd7601083612e4a565b9150612fe282612fa1565b602082019050919050565b6000602082019050818103600083015261300681612fca565b9050919050565b600081519050919050565b600081905092915050565b60005b83811015613041578082015181840152602081019050613026565b83811115613050576000848401525b50505050565b60006130618261300d565b61306b8185613018565b935061307b818560208601613023565b80840191505092915050565b60006130938284613056565b915081905092915050565b7f50726f78793a20556e61626c6520746f2067657420776974686472617720646560008201527f706f73697473206f662063616c6c65722066726f6d20457363726f7721000000602082015250565b60006130fa603d83612e4a565b91506131058261309e565b604082019050919050565b60006020820190508181036000830152613129816130ed565b9050919050565b600069ffffffffffffffffffff82169050919050565b61314f81613130565b811461315a57600080fd5b50565b60008151905061316c81613146565b92915050565b6000819050919050565b61318581613172565b811461319057600080fd5b50565b6000815190506131a28161317c565b92915050565b6000815190506131b7816125a8565b92915050565b600080600080600060a086880312156131d9576131d861259e565b5b60006131e78882890161315d565b95505060206131f888828901613193565b9450506040613209888289016131a8565b935050606061321a888289016131a8565b925050608061322b8882890161315d565b9150509295509295909350565b7f4e487b7100000000000000000000000000000000000000000000000000000000600052601260045260246000fd5b600061327282612560565b915061327d83612560565b92508261328d5761328c613238565b5b828204905092915050565b7f436f6e74726163742063616e6e6f74206265207265766f6b6564000000000000600082015250565b60006132ce601a83612e4a565b91506132d982613298565b602082019050919050565b600060208201905081810360008301526132fd816132c1565b9050919050565b7f5472616e73616374696f6e206d696e696d616c2076616c7565206e6f7420726560008201527f6163686564000000000000000000000000000000000000000000000000000000602082015250565b6000613360602583612e4a565b915061336b82613304565b604082019050919050565b6000602082019050818103600083015261338f81613353565b9050919050565b60006133a182612560565b91506133ac83612560565b9250828210156133bf576133be612dc1565b5b828203905092915050565b7f50726f78793a20556e61626c6520746f20657865637574652072756c65000000600082015250565b6000613400601d83612e4a565b915061340b826133ca565b602082019050919050565b6000602082019050818103600083015261342f816133f3565b9050919050565b600060808201905061344b6000830187612923565b613458602083018661256a565b613465604083018561256a565b613472606083018461256a565b95945050505050565b600061348682612560565b915061349183612560565b9250827fffffffffffffffffffffffffffffffffffffffffffffffffffffffffffffffff038211156134c6576134c5612dc1565b5b828201905092915050565b7f4f776e61626c653a206e6577206f776e657220697320746865207a65726f206160008201527f6464726573730000000000000000000000000000000000000000000000000000602082015250565b600061352d602683612e4a565b9150613538826134d1565b604082019050919050565b6000602082019050818103600083015261355c81613520565b9050919050565b7f496e73756666696369656e742076616c756520746f20636f766572207468652060008201527f6465616c206372656174696f6e20666565730000000000000000000000000000602082015250565b60006135bf603283612e4a565b91506135ca82613563565b604082019050919050565b600060208201905081810360008301526135ee816135b2565b9050919050565b7f4e487b7100000000000000000000000000000000000000000000000000000000600052603260045260246000fd5b600081519050919050565b600061363a82613624565b6136448185612e4a565b9350613654818560208601613023565b61365d8161260b565b840191505092915050565b60006020820190508181036000830152613682818461362f565b905092915050565b6004811061369757600080fd5b50565b6000815190506136a98161368a565b92915050565b60006136c26136bd84612697565b61267c565b9050828152602081018484840111156136de576136dd612606565b5b6136e9848285613023565b509392505050565b600082601f83011261370657613705612601565b5b81516137168482602086016136af565b91505092915050565b600080604083850312156137365761373561259e565b5b60006137448582860161369a565b925050602083015167ffffffffffffffff811115613765576137646125a3565b5b613771858286016136f1565b9150509250929050565b7f50726f78792e4372656174654465616c3a20496e737472756374696f6e20697360008201527f206e6f7420737570706f72746564000000000000000000000000000000000000602082015250565b60006137d7602e83612e4a565b91506137e28261377b565b604082019050919050565b60006020820190508181036000830152613806816137ca565b9050919050565b600061381882612560565b91507fffffffffffffffffffffffffffffffffffffffffffffffffffffffffffffffff82141561384b5761384a612dc1565b5b600182019050919050565b600081519050919050565b600082825260208201905092915050565b6000819050602082019050919050565b61388b81612815565b82525050565b600061389d8383613882565b60208301905092915050565b6000602082019050919050565b60006138c182613856565b6138cb8185613861565b93506138d683613872565b8060005b838110156139075781516138ee8882613891565b97506138f9836138a9565b9250506001810190506138da565b5085935050505092915050565b600081519050919050565b600082825260208201905092915050565b6000819050602082019050919050565b600081519050919050565b600082825260208201905092915050565b6000819050602082019050919050565b600082825260208201905092915050565b600061398882613624565b613992818561396c565b93506139a2818560208601613023565b6139ab8161260b565b840191505092915050565b6139bf81612560565b82525050565b600060808301600083015184820360008601526139e2828261397d565b915050602083015184820360208601526139fc828261397d565b9150506040830151613a1160408601826139b6565b506060830151613a246060860182613882565b508091505092915050565b6000613a3b83836139c5565b905092915050565b6000602082019050919050565b6000613a5b82613940565b613a65818561394b565b935083602082028501613a778561395c565b8060005b85811015613ab35784840389528151613a948582613a2f565b9450613a9f83613a43565b925060208a01995050600181019050613a7b565b50829750879550505050505092915050565b6000613ad18383613a50565b905092915050565b6000602082019050919050565b6000613af182613914565b613afb818561391f565b935083602082028501613b0d85613930565b8060005b85811015613b495784840389528151613b2a8582613ac5565b9450613b3583613ad9565b925060208a01995050600181019050613b11565b50829750879550505050505092915050565b60006040820190508181036000830152613b7581856138b6565b90508181036020830152613b898184613ae6565b90509392505050565b600060208284031215613ba857613ba761259e565b5b6000613bb6848285016131a8565b91505092915050565b50565b6000613bcf600083613018565b9150613bda82613bbf565b600082019050919050565b6000613bf082613bc2565b9150819050919050565b7f50726f78792e6372656174654465616c3a204661696c656420746f207265696d60008201527f6275727365206578636573732045544800000000000000000000000000000000602082015250565b6000613c56603083612e4a565b9150613c6182613bfa565b604082019050919050565b60006020820190508181036000830152613c8581613c49565b905091905056fea2646970667358221220ae852c07277bee0f83e47b2a16a5ade6018a024e12209ad352551dc6fe2e01c864736f6c63430008090033",
  "immutableReferences": {},
  "source": "// SPDX-License-Identifier: GPL-3.0\npragma solidity 0.8.9;\n\n/* EXTERNAL DEPENDENCIES */\nimport \"@openzeppelin/contracts/access/Ownable.sol\";\nimport \"@openzeppelin/contracts/security/Pausable.sol\";\nimport \"@chainlink/contracts/src/v0.8/interfaces/AggregatorV3Interface.sol\";\n\n/* INTERNAL DEPENDENCIES */\nimport \"./CommonStructs.sol\";\nimport \"./Instructions.sol\";\nimport \"./Deals.sol\";\n\n// TODO: Ajouter un payable fallback a tous les contracts pour voir ce qu'on fait quand on reoit de l'argent par erreur\n//        ==> Hriter d'une classe qui redirige l'argent vers le proxy ou bien juste rembourser les sous\n\n// TODO: Check how to integrate the allowAllAccounts in the interpreter. Should I add it as a param in the deal?\n\n/// @title Proxy Contract\n/// @dev Main DApp entry point. Exposes the public interface and decouple the data and the logic\n/// @notice lets-make-a-deal.eth allows you to make an agreement between different parties and automatically route ETH to different addresses based on simple rules.\ncontract Proxy is Ownable, Pausable {\n    \n    /* STORAGE VARIABLES */\n\n    /// @dev Chainlink ETH/USD price feed aggregator link on Rinkeby\n    AggregatorV3Interface public priceFeedRef;\n\n    /// @dev Last quotation value in USD per ETH with 8 decimals precision fetched from Chainlink\n    uint public lastQuotationValue;\n\n    /// @dev Last quotation timestamp fetched from Chainlink\n    uint public lastQuotationTimestamp;\n\n    // References to external contracts\n\n    /// @dev Reference to the Instructions contract\n    Instructions public instructionsContractRef;\n\n    /// @dev Reference to the InstructionsProvider contract\n    address public instructionsProviderContractRef;\n\n    /// @dev Reference to the Deals instance\n    Deals public dealsContractRef;\n\n    /// @dev Reference to the Interpreter contract\n    address public interpreterContractRef;\n\n    // Contract fees\n\n    /// @dev Price per account added to the deal in USD\n    uint public accountCreationFees;\n    \n    /// @dev Price per rule added to the deal in USD\n    uint public ruleCreationFees;\n\n    /// @dev Price to allow incoming payments from all addresses others than internal/external accounts in USD\n    uint public allowAllAddressesFees;\n\n    /// @dev Minimal transaction value able to trigger an execution in USDimport \"@openzeppelin/contracts/security/Pausable.sol\";\n    uint public transactionMinimalValue;\n\n    /// @dev Transaction fees in % of the msg.value perceived on a deal execution in USD\n    uint public transactionFees;\n\n    /* MAPPINGS */\n    \n    /* MODIFIERS */\n\n    /* EVENTS */\n\n    // Modify Chainlink ETH/USD price feed aggregator address\n\n    /**\n    * @dev Event emitted when the Chainlink ETH/USD price feed aggregator address is changed\n    * @param _from Caller address\n    * @param _old Old address of the Chainlink ETH/USD price feed aggregator address\n    * @param _new New address of the Chainlink ETH/USD price feed aggregator address\n    */\n    event ModifyPriceFeedRefAggregatorAddress(address _from, address _old, address _new);\n    \n    // Modify contract references\n\n    /**\n    * @dev Event emitted when the Instructions contract reference is changed\n    * @param _from Caller address\n    * @param _old Old address of the Instructions contract\n    * @param _new New address of the Instructions contract\n    */\n    event ModifyInstructionsContractAddress(address _from, address _old, address _new);\n\n    /**\n    * @dev Event emitted when the InstructionsProvider contract reference is changed\n    * @param _from Caller address\n    * @param _old Old address of the InstructionsProvider contract\n    * @param _new New address of the InstructionsProvider contract\n    */\n    event ModifyInstructionsProviderContractAddress(address _from, address _old, address _new);\n\n    /**\n    * @dev Event emitted when the Deals contract reference is changed\n    * @param _from Caller address\n    * @param _old Old address of the Deals contract\n    * @param _new New address of the Deals contract\n    */\n    event ModifyDealsContractAddress(address _from, address _old, address _new);\n    \n    /**\n    * @dev Event emitted when the Interpreter contract reference is changed\n    * @param _from Caller address\n    * @param _old Old address of the Interpreter contract\n    * @param _new New address of the Interpreter contract\n    */\n    event ModifyInterpreterContractAddress(address _from, address _old, address _new);\n    \n    // Modify fees\n \n    /** \n    * @dev Event emitted when the account creation fees is changed\n    * @param _from : msg.sender\n    * @param _old : old account creation fees in USD\n    * @param _new : new account creation fees in USD\n    */\n    event ModifyAccountCreationFees(address _from, uint _old, uint _new);\n\n    /** \n    * @dev Event emitted when the rule creation fees is changed\n    * @param _from : msg.sender\n    * @param _old : old rule creation fees in USD\n    * @param _new : new rule creation fees in USD\n    */\n    event ModifyRuleCreationFees(address _from, uint _old, uint _new);\n\n    /** \n    * @dev Event emitted when the allow all accounts fees is changed\n    * @param _from : msg.sender\n    * @param _old : old allow all accounts fees in USD\n    * @param _new : new allow all accounts fees in USD\n    */\n    event ModifyAllowAllAccountsFees(address _from, uint _old, uint _new);\n\n    /** \n    * @dev Event emitted when the transaction minimal value is changed\n    * @param _from : msg.sender\n    * @param _old : old transaction minimal value in USD\n    * @param _new : new transaction minimal value in USD\n    */\n    event ModifyTransactionMinimalValue(address _from, uint _old, uint _new);\n\n    /** \n    * @dev Event emitted when the transaction fees are changed\n    * @param _from : msg.sender\n    * @param _old : old transaction fees value in % of msg.value\n    * @param _new : new transaction fees value in % of msg.value\n    */\n    event ModifyTransactionFees(address _from, uint _old, uint _new);\n    \n    /** \n    * @dev Event emitted when the WEI to USD conversion rate is updated from Chainlink\n    * @param _from : msg.sender\n    * @param _value : WEI/USD price at the time the Chainlink Oracle was called\n    * @param _timestamp : timestamp at which the price was fetched from Chainlink\n    */\n    event QueryLastQuotationFromChainlink(address _from, uint _value, uint _timestamp);\n\n    /** \n    * @dev Event emitted when the deal creation fees are paid\n    * @param _from : msg.sender\n    * @param _dealId : Id of the created deal\n    * @param _fees : Fees paid by the user in ETH\n    */\n    event PayDealCreationFees(address _from, uint _dealId, uint _fees);\n\n    /** \n    * @dev Event emitted when the transaction fees are paid\n    * @param _from : msg.sender\n    * @param _dealId : Id of the executed deal \n    * @param _ruleId : Id of the executed rule\n    * @param _fees : Fees paid by the user in ETH\n    */\n    event PayTransactionFees(address _from, uint _dealId, uint _ruleId, uint _fees);\n\n    /** \n    * @dev Event emitted when an excess value is reimbursed to the user\n    * @param _to : address of the caller (msg.sender) where the excess value is reimbursed\n    * @param _dealId : Id of the created deal \n    * @param _amount : Amount reimbursed to the user in ETH\n    */\n    event ReimburseExcessValue(address _to, uint _dealId, uint _amount);\n    \n\n    /* CONSTRUCTOR */\n\n    /** \n    * @dev Constructor: Initialize storage variables\n    * @param _accountCreationFees Creation fees per account in Wei \n    * @param _ruleCreationFees Creation fees per rule in Wei \n    * @param _allowAllAddressesFees Creation fees to allow incoming payments from all addresses\n    * @param _transactionMinimalValue Minimal value to trigger a rule execution\n    * @param _transactionFees Transaction fees paid to execute a rule in % of msg.value (1=1%)\n    * @param _lastQuotationValue Wei per USD conversion rate\n    */\n    constructor (\n        uint _accountCreationFees, \n        uint _ruleCreationFees,\n        uint _allowAllAddressesFees,\n        uint _transactionMinimalValue,\n        uint _transactionFees,\n        uint _lastQuotationValue\n    ) {\n        accountCreationFees = _accountCreationFees;\n        ruleCreationFees = _ruleCreationFees;\n        allowAllAddressesFees = _allowAllAddressesFees;\n        transactionMinimalValue = _transactionMinimalValue;\n        transactionFees = _transactionFees;\n        lastQuotationValue = _lastQuotationValue;\n    }\n    \n    /* SEND & FALLBACK */\n    \n    // No payable send or fallback function includes so that the contract will return any ETH send with a call without call values\n    // https://docs.soliditylang.org/en/v0.8.9/contracts.html#receive-ether-function\n    \n    /* OWNER INTERFACE */\n\n    // Address to Chainlink ETH/USD price feed aggregator\n    \n    /**\n    * @dev Set the address to the Chainlink ETH/USD price feed aggregator\n    * @param _new New address to the Chainlink ETH/USD price feed aggregator\n    */\n    function setPriceFeedRefAggregatorAddress(address _new) public onlyOwner {\n        address old = address(priceFeedRef);\n        priceFeedRef = AggregatorV3Interface(_new);\n        emit ModifyPriceFeedRefAggregatorAddress(msg.sender, old, _new);\n    }\n\n    // References to external contracts\n    \n    /**\n    * @dev Sets the Instructions contract reference to a new value\n    * @param _new New address of the Instructions contract\n    */\n    function setInstructionsContractRef(address _new) public onlyOwner whenPaused {\n        address old = address(instructionsContractRef);\n        instructionsContractRef = Instructions(_new);\n        emit ModifyInstructionsContractAddress(msg.sender, old, _new);\n    }\n\n    /**\n    * @dev Sets the InstructionsProvider contract reference to a new value\n    * @param _new New address of the InstructionsProvider contract\n    */\n    function setInstructionsProviderContractRef(address _new) public onlyOwner whenPaused {\n        address old = instructionsProviderContractRef;\n        instructionsProviderContractRef = _new;\n        emit ModifyInstructionsProviderContractAddress(msg.sender, old, _new);\n    }\n\n    /**\n    * @dev Sets the Deals contract reference to a new value\n    * @param _new New address of the Deals contract\n    */\n    function setDealsContractRef(address _new) public onlyOwner whenPaused {\n        address old = address(dealsContractRef);\n        dealsContractRef = Deals(_new);\n        emit ModifyDealsContractAddress(msg.sender, old, _new);\n    }\n    \n    /**\n    * @dev Sets the Interpreter contract reference to a new value\n    * @param _new New address of the Interpreter contract\n    */\n    function setInterpreterContractRef(address _new) public onlyOwner whenPaused {\n        address old = interpreterContractRef;\n        interpreterContractRef = _new;\n        emit ModifyInterpreterContractAddress(msg.sender, old, _new);\n    }\n\n    // Contract fees\n\n    /**\n    * @dev Sets the account creation fees to a new value\n    * @param _new New value for the account creation fees in USD\n    */\n    function setAccountCreationFees(uint _new) public onlyOwner whenPaused {\n        uint old = accountCreationFees;\n        accountCreationFees = _new;\n        emit ModifyAccountCreationFees(msg.sender, old, _new);\n    }\n    \n    /**\n    * @dev Sets the rule creation fees to a new value\n    * @param _new New value for the rule creation fees in USD\n    */\n    function setRuleCreationFees(uint _new) public onlyOwner whenPaused {\n        uint old = ruleCreationFees;\n        ruleCreationFees = _new;\n        emit ModifyRuleCreationFees(msg.sender, old, _new);\n    }\n\n    /**\n    * @dev Sets the allow all addresses fees to a new value\n    * @param _new New value for the allow all addresses fees in USD\n    */\n    function setAllowAllAddressesFees(uint _new) public onlyOwner whenPaused {\n        uint old = allowAllAddressesFees;\n        allowAllAddressesFees = _new;\n        emit ModifyAllowAllAccountsFees(msg.sender, old, _new);\n    }\n\n    /**\n    * @dev Sets the transaction minimal value to a new value\n    * @param _new New value for the transaction minimal value in USD\n    */\n    function setTransactionMinimalValue(uint _new) public onlyOwner whenPaused {\n        uint old = transactionMinimalValue;\n        transactionMinimalValue = _new;\n        emit ModifyTransactionMinimalValue(msg.sender, old, _new);\n    }\n\n    /**\n    * @dev Sets the transaction fees to a new value\n    * @param _new New value for the transaction fees in % of msg.value\n    */\n    function setTransactionFees(uint _new) public onlyOwner whenPaused {\n        uint old = transactionFees;\n        transactionFees = _new;\n        emit ModifyTransactionFees(msg.sender, old, _new);\n    }\n\n    /* PUBLIC INTERFACE */\n\n    /**\n    * @dev Creates a deal and returns its id\n    * @param _accounts List of accounts addresses linked to the deal\n    * @param _rulesList List of the rules linked to the deal (rule = list of Articles)\n    * @return Id of the deal created\n    */\n    function createDeal\n    (\n        address[] memory _accounts, \n        CommonStructs.Article[][] memory _rulesList\n    ) \n    external \n    payable \n    whenNotPaused\n    returns (uint) {\n        // Compute creation fees in WEI\n        uint creationFeesInWEI = computeDealCreationFeesInWEI(_accounts.length, _rulesList.length);\n\n        // Check 1: Amount sent by the user should cover the deal creation fees\n        require(msg.value >= creationFeesInWEI, \"Insufficient value to cover the deal creation fees\");\n        \n        // Check 2: Make sure that the instructions are all supported\n        for (uint i=0;i<_rulesList.length;i++) {\n            for (uint j=0;j<_rulesList[i].length;j++) {\n                // Get the instruction type & signature\n                (, string memory instructionSignature) = instructionsContractRef.getInstruction(_rulesList[i][j].instructionName);\n                \n                // If the signature is empty, this means that the instruction is not present => revert\n                require(!stringsEqual(instructionSignature,''),\"Proxy.CreateDeal: Instruction is not supported\");\n            }\n        }\n\n        // Create the deal\n        uint dealId = dealsContractRef.createDeal(_accounts, _rulesList);\n        \n        // Reimburse excess value to the caller if necessary\n        uint excessValue = (msg.value - creationFeesInWEI);\n        if (excessValue > 0){\n            (bool sent, ) = msg.sender.call{value: excessValue } (\"\");\n            require(sent, \"Proxy.createDeal: Failed to reimburse excess ETH\");\n            emit ReimburseExcessValue(msg.sender, dealId, excessValue);\n        }\n\n        // Emit a PayDealCreationFees\n        emit PayDealCreationFees(msg.sender, dealId, creationFeesInWEI);\n\n        return dealId;\n    }\n\n    /**\n    * @dev Execute a deal's rule\n    * @param _dealId : Id of the deal to execute\n    * @param _ruleId : Id of the rule to execute\n    */\n    function executeRule(uint _dealId, uint _ruleId) external payable whenNotPaused {\n        // Amount sent by the user should be higher or equal to the minimal transaction value\n        uint msgValueInUSD = convertWEI2USD(msg.value);\n        require( msgValueInUSD >= transactionMinimalValue, \"Transaction minimal value not reached\");\n\n        // Upgrability: Low level call to InstructionsProvider\n        // Includes in the call (msg.value - execution fees)\n        uint executionFees = (msg.value / 100) * transactionFees;\n        (bool success, ) = interpreterContractRef.call{value: (msg.value - executionFees)}(\n            abi.encodeWithSignature(\n                \"interpretRule(address,uint256,uint256)\",\n                msg.sender,\n                _dealId, \n                _ruleId\n            )\n        );\n\n        // Did the low level call succeed?\n        require(success,\"Proxy: Unable to execute rule\");\n\n        // Emit a PayTransactionFees\n        emit PayTransactionFees(msg.sender, _dealId, _ruleId, executionFees);\n    }\n\n    /**\n    * @dev Withdraw all deposit from escrow for msg.sender\n    */\n    function withdraw() external whenNotPaused {\n        (bool success,) = instructionsProviderContractRef.call(\n            abi.encodeWithSignature(\n                \"withdraw(address)\",\n                msg.sender\n            )\n        );\n        require(success,\"Proxy: Unable to get withdraw deposits of caller from Escrow!\");\n    }\n\n    /**\n    * @dev Get the internal balance of the contract\n    * @return The internal balance of the contract in Wei\n    */\n    function getBalance() external view onlyOwner returns(uint) {\n        return address(this).balance;\n    }\n\n    /* CHAINLINK ETH/USD PRICE FEED AGGREGATOR */    \n    \n    /**\n     * @dev Query & save the latest quotation from ChainLink price feed aggregator on Rinkeby\n     */\n    function saveLatestQuotation() public onlyOwner {\n        // Query last ETH/USD price from ChainLink\n        (, int price, , uint timestamp, ) = priceFeedRef.latestRoundData();\n        \n        // Save latest quotation (rounID, price & timestamp)\n        lastQuotationValue = (10**18)*(10**8)/uint(price);\n        lastQuotationTimestamp = timestamp;\n        emit QueryLastQuotationFromChainlink(msg.sender, lastQuotationValue, timestamp);\n    }\n\n    /**\n    * @dev Return the last quotation from Chainlink\n    * @return Last quotation from Chainlink in WEI per USD\n    * along with the query timestamp\n    */\n    function getLatestQuotation() public view returns(uint, uint) {\n        return (lastQuotationValue, lastQuotationTimestamp);\n    }\n\n    /* HELPER FUNCTIONS */\n    \n    /**\n    * @dev Computes the deal creation cost in WEI\n    * @param _accountsCount Number of external accounts defined in the deal\n    * @param _rulesCount Number of rules defined in the deal\n    * @return Deal creation cost in WEI\n    */\n    function computeDealCreationFeesInWEI\n    (\n        uint _accountsCount, \n        uint _rulesCount\n    ) \n    public view returns (uint) {\n        return (_accountsCount * accountCreationFees + _rulesCount * ruleCreationFees)*lastQuotationValue;\n    }\n\n    /**\n    * @dev Converts an amount in WEI to USD\n    * @param _amountInWEI Amount in WEI\n    * @return Converted amount in USD\n    */\n    function convertWEI2USD(uint _amountInWEI) public view returns(uint) {\n        return _amountInWEI / lastQuotationValue;\n    }\n\n    /**\n    * @dev Converts an amount in USD to WEI\n    * @param _amountInUSD Amount in USD\n    * @return Converted amount in WEI\n    */\n    function convertUSD2WEI(uint _amountInUSD) public view returns(uint) {\n        return _amountInUSD * lastQuotationValue;\n    }\n\n    /** \n    * @dev Checks whether the strings are equal\n    * @param _s1 First string to compare\n    * @param _s2 Second string to compare\n    * @return Boolean indicating if the 2 strings are equal\n    */\n    function stringsEqual(string memory _s1, string memory _s2) public pure returns(bool) {\n        return keccak256(bytes(_s1)) == keccak256(bytes(_s2));\n    }\n\n    /* OpenZeppelin.Pausable */\n\n    /**\n    * @dev Access control inherited from OpenZeppelin Ownable contract\n    * Pausing the contract makes the createDeal function not callable\n    * Getters are still callable\n    * Only owner can call\n    */\n    function pause() public onlyOwner() whenNotPaused() {\n        _pause();\n    }\n\n    /**\n    * @dev Access control inherited from OpenZeppelin Ownable contract\n    * Unpausing the contract makes the createDeal function callable\n    * Only Owner can call\n    */\n    function unpause() public onlyOwner() whenPaused() {\n        _unpause();\n    }\n\n    /* OVERRIDE & BLOCK UNUSED INHERITED FUNCTIONS */\n\n    /**\n    * @dev Block OpenZeppelin Ownable.renounceOwnership\n    * @notice Will always revert\n    */ \n    function renounceOwnership() public pure override {\n        revert('Contract cannot be revoked');\n    }\n\n}\n",
  "sourcePath": "/home/shakalee/Documents/Consensys/PROJOT-v0/contracts/Proxy.sol",
  "compiler": {
    "name": "solc",
    "version": "0.8.9+commit.e5eed63a.Emscripten.clang"
  },
  "schemaVersion": "3.4.3",
  "updatedAt": "2021-12-16T13:09:19.870Z",
  "networkType": "ethereum",
  "devdoc": {
    "details": "Main DApp entry point. Exposes the public interface and decouple the data and the logic",
    "events": {
      "ModifyAccountCreationFees(address,uint256,uint256)": {
        "details": "Event emitted when the account creation fees is changed",
        "params": {
          "_from": ": msg.sender",
          "_new": ": new account creation fees in USD",
          "_old": ": old account creation fees in USD"
        }
      },
      "ModifyAllowAllAccountsFees(address,uint256,uint256)": {
        "details": "Event emitted when the allow all accounts fees is changed",
        "params": {
          "_from": ": msg.sender",
          "_new": ": new allow all accounts fees in USD",
          "_old": ": old allow all accounts fees in USD"
        }
      },
      "ModifyDealsContractAddress(address,address,address)": {
        "details": "Event emitted when the Deals contract reference is changed",
        "params": {
          "_from": "Caller address",
          "_new": "New address of the Deals contract",
          "_old": "Old address of the Deals contract"
        }
      },
      "ModifyInstructionsContractAddress(address,address,address)": {
        "details": "Event emitted when the Instructions contract reference is changed",
        "params": {
          "_from": "Caller address",
          "_new": "New address of the Instructions contract",
          "_old": "Old address of the Instructions contract"
        }
      },
      "ModifyInstructionsProviderContractAddress(address,address,address)": {
        "details": "Event emitted when the InstructionsProvider contract reference is changed",
        "params": {
          "_from": "Caller address",
          "_new": "New address of the InstructionsProvider contract",
          "_old": "Old address of the InstructionsProvider contract"
        }
      },
      "ModifyInterpreterContractAddress(address,address,address)": {
        "details": "Event emitted when the Interpreter contract reference is changed",
        "params": {
          "_from": "Caller address",
          "_new": "New address of the Interpreter contract",
          "_old": "Old address of the Interpreter contract"
        }
      },
      "ModifyPriceFeedRefAggregatorAddress(address,address,address)": {
        "details": "Event emitted when the Chainlink ETH/USD price feed aggregator address is changed",
        "params": {
          "_from": "Caller address",
          "_new": "New address of the Chainlink ETH/USD price feed aggregator address",
          "_old": "Old address of the Chainlink ETH/USD price feed aggregator address"
        }
      },
      "ModifyRuleCreationFees(address,uint256,uint256)": {
        "details": "Event emitted when the rule creation fees is changed",
        "params": {
          "_from": ": msg.sender",
          "_new": ": new rule creation fees in USD",
          "_old": ": old rule creation fees in USD"
        }
      },
      "ModifyTransactionFees(address,uint256,uint256)": {
        "details": "Event emitted when the transaction fees are changed",
        "params": {
          "_from": ": msg.sender",
          "_new": ": new transaction fees value in % of msg.value",
          "_old": ": old transaction fees value in % of msg.value"
        }
      },
      "ModifyTransactionMinimalValue(address,uint256,uint256)": {
        "details": "Event emitted when the transaction minimal value is changed",
        "params": {
          "_from": ": msg.sender",
          "_new": ": new transaction minimal value in USD",
          "_old": ": old transaction minimal value in USD"
        }
      },
      "PayDealCreationFees(address,uint256,uint256)": {
        "details": "Event emitted when the deal creation fees are paid",
        "params": {
          "_dealId": ": Id of the created deal",
          "_fees": ": Fees paid by the user in ETH",
          "_from": ": msg.sender"
        }
      },
      "PayTransactionFees(address,uint256,uint256,uint256)": {
        "details": "Event emitted when the transaction fees are paid",
        "params": {
          "_dealId": ": Id of the executed deal ",
          "_fees": ": Fees paid by the user in ETH",
          "_from": ": msg.sender",
          "_ruleId": ": Id of the executed rule"
        }
      },
      "QueryLastQuotationFromChainlink(address,uint256,uint256)": {
        "details": "Event emitted when the WEI to USD conversion rate is updated from Chainlink",
        "params": {
          "_from": ": msg.sender",
          "_timestamp": ": timestamp at which the price was fetched from Chainlink",
          "_value": ": WEI/USD price at the time the Chainlink Oracle was called"
        }
      },
      "ReimburseExcessValue(address,uint256,uint256)": {
        "details": "Event emitted when an excess value is reimbursed to the user",
        "params": {
          "_amount": ": Amount reimbursed to the user in ETH",
          "_dealId": ": Id of the created deal ",
          "_to": ": address of the caller (msg.sender) where the excess value is reimbursed"
        }
      }
    },
    "kind": "dev",
    "methods": {
      "computeDealCreationFeesInWEI(uint256,uint256)": {
        "details": "Computes the deal creation cost in WEI",
        "params": {
          "_accountsCount": "Number of external accounts defined in the deal",
          "_rulesCount": "Number of rules defined in the deal"
        },
        "returns": {
          "_0": "Deal creation cost in WEI"
        }
      },
      "constructor": {
        "details": "Constructor: Initialize storage variables",
        "params": {
          "_accountCreationFees": "Creation fees per account in Wei ",
          "_allowAllAddressesFees": "Creation fees to allow incoming payments from all addresses",
          "_lastQuotationValue": "Wei per USD conversion rate",
          "_ruleCreationFees": "Creation fees per rule in Wei ",
          "_transactionFees": "Transaction fees paid to execute a rule in % of msg.value (1=1%)",
          "_transactionMinimalValue": "Minimal value to trigger a rule execution"
        }
      },
      "convertUSD2WEI(uint256)": {
        "details": "Converts an amount in USD to WEI",
        "params": {
          "_amountInUSD": "Amount in USD"
        },
        "returns": {
          "_0": "Converted amount in WEI"
        }
      },
      "convertWEI2USD(uint256)": {
        "details": "Converts an amount in WEI to USD",
        "params": {
          "_amountInWEI": "Amount in WEI"
        },
        "returns": {
          "_0": "Converted amount in USD"
        }
      },
      "createDeal(address[],(string,string,uint256,address)[][])": {
        "details": "Creates a deal and returns its id",
        "params": {
          "_accounts": "List of accounts addresses linked to the deal",
          "_rulesList": "List of the rules linked to the deal (rule = list of Articles)"
        },
        "returns": {
          "_0": "Id of the deal created"
        }
      },
      "executeRule(uint256,uint256)": {
        "details": "Execute a deal's rule",
        "params": {
          "_dealId": ": Id of the deal to execute",
          "_ruleId": ": Id of the rule to execute"
        }
      },
      "getBalance()": {
        "details": "Get the internal balance of the contract",
        "returns": {
          "_0": "The internal balance of the contract in Wei"
        }
      },
      "getLatestQuotation()": {
        "details": "Return the last quotation from Chainlink",
        "returns": {
          "_0": "Last quotation from Chainlink in WEI per USD along with the query timestamp"
        }
      },
      "owner()": {
        "details": "Returns the address of the current owner."
      },
      "pause()": {
        "details": "Access control inherited from OpenZeppelin Ownable contract Pausing the contract makes the createDeal function not callable Getters are still callable Only owner can call"
      },
      "paused()": {
        "details": "Returns true if the contract is paused, and false otherwise."
      },
      "renounceOwnership()": {
        "details": "Block OpenZeppelin Ownable.renounceOwnership"
      },
      "saveLatestQuotation()": {
        "details": "Query & save the latest quotation from ChainLink price feed aggregator on Rinkeby"
      },
      "setAccountCreationFees(uint256)": {
        "details": "Sets the account creation fees to a new value",
        "params": {
          "_new": "New value for the account creation fees in USD"
        }
      },
      "setAllowAllAddressesFees(uint256)": {
        "details": "Sets the allow all addresses fees to a new value",
        "params": {
          "_new": "New value for the allow all addresses fees in USD"
        }
      },
      "setDealsContractRef(address)": {
        "details": "Sets the Deals contract reference to a new value",
        "params": {
          "_new": "New address of the Deals contract"
        }
      },
      "setInstructionsContractRef(address)": {
        "details": "Sets the Instructions contract reference to a new value",
        "params": {
          "_new": "New address of the Instructions contract"
        }
      },
      "setInstructionsProviderContractRef(address)": {
        "details": "Sets the InstructionsProvider contract reference to a new value",
        "params": {
          "_new": "New address of the InstructionsProvider contract"
        }
      },
      "setInterpreterContractRef(address)": {
        "details": "Sets the Interpreter contract reference to a new value",
        "params": {
          "_new": "New address of the Interpreter contract"
        }
      },
      "setPriceFeedRefAggregatorAddress(address)": {
        "details": "Set the address to the Chainlink ETH/USD price feed aggregator",
        "params": {
          "_new": "New address to the Chainlink ETH/USD price feed aggregator"
        }
      },
      "setRuleCreationFees(uint256)": {
        "details": "Sets the rule creation fees to a new value",
        "params": {
          "_new": "New value for the rule creation fees in USD"
        }
      },
      "setTransactionFees(uint256)": {
        "details": "Sets the transaction fees to a new value",
        "params": {
          "_new": "New value for the transaction fees in % of msg.value"
        }
      },
      "setTransactionMinimalValue(uint256)": {
        "details": "Sets the transaction minimal value to a new value",
        "params": {
          "_new": "New value for the transaction minimal value in USD"
        }
      },
      "stringsEqual(string,string)": {
        "details": "Checks whether the strings are equal",
        "params": {
          "_s1": "First string to compare",
          "_s2": "Second string to compare"
        },
        "returns": {
          "_0": "Boolean indicating if the 2 strings are equal"
        }
      },
      "transferOwnership(address)": {
        "details": "Transfers ownership of the contract to a new account (`newOwner`). Can only be called by the current owner."
      },
      "unpause()": {
        "details": "Access control inherited from OpenZeppelin Ownable contract Unpausing the contract makes the createDeal function callable Only Owner can call"
      },
      "withdraw()": {
        "details": "Withdraw all deposit from escrow for msg.sender"
      }
    },
    "stateVariables": {
      "accountCreationFees": {
        "details": "Price per account added to the deal in USD"
      },
      "allowAllAddressesFees": {
        "details": "Price to allow incoming payments from all addresses others than internal/external accounts in USD"
      },
      "dealsContractRef": {
        "details": "Reference to the Deals instance"
      },
      "instructionsContractRef": {
        "details": "Reference to the Instructions contract"
      },
      "instructionsProviderContractRef": {
        "details": "Reference to the InstructionsProvider contract"
      },
      "interpreterContractRef": {
        "details": "Reference to the Interpreter contract"
      },
      "lastQuotationTimestamp": {
        "details": "Last quotation timestamp fetched from Chainlink"
      },
      "lastQuotationValue": {
        "details": "Last quotation value in USD per ETH with 8 decimals precision fetched from Chainlink"
      },
      "priceFeedRef": {
        "details": "Chainlink ETH/USD price feed aggregator link on Rinkeby"
      },
      "ruleCreationFees": {
        "details": "Price per rule added to the deal in USD"
      },
      "transactionFees": {
        "details": "Transaction fees in % of the msg.value perceived on a deal execution in USD"
      },
      "transactionMinimalValue": {
        "details": "Minimal transaction value able to trigger an execution in USDimport \"@openzeppelin/contracts/security/Pausable.sol\";"
      }
    },
    "title": "Proxy Contract",
    "version": 1
  },
  "userdoc": {
    "kind": "user",
    "methods": {
      "renounceOwnership()": {
        "notice": "Will always revert"
      }
    },
    "notice": "lets-make-a-deal.eth allows you to make an agreement between different parties and automatically route ETH to different addresses based on simple rules.",
    "version": 1
  }
}