{
  "contractName": "Proxy",
  "abi": [
    {
      "inputs": [
        {
          "internalType": "uint256",
          "name": "_accountCreationFees",
          "type": "uint256"
        },
        {
          "internalType": "uint256",
          "name": "_ruleCreationFees",
          "type": "uint256"
        },
        {
          "internalType": "uint256",
          "name": "_allowAllAddressesFees",
          "type": "uint256"
        },
        {
          "internalType": "uint256",
          "name": "_transactionMinimalValue",
          "type": "uint256"
        },
        {
          "internalType": "uint256",
          "name": "_transactionFees",
          "type": "uint256"
        },
        {
          "internalType": "uint256",
          "name": "_WEI2USDConversionRate",
          "type": "uint256"
        }
      ],
      "stateMutability": "nonpayable",
      "type": "constructor"
    },
    {
      "anonymous": false,
      "inputs": [
        {
          "indexed": false,
          "internalType": "address",
          "name": "_from",
          "type": "address"
        },
        {
          "indexed": false,
          "internalType": "uint256",
          "name": "_old",
          "type": "uint256"
        },
        {
          "indexed": false,
          "internalType": "uint256",
          "name": "_new",
          "type": "uint256"
        }
      ],
      "name": "ModifyAccountCreationFees",
      "type": "event"
    },
    {
      "anonymous": false,
      "inputs": [
        {
          "indexed": false,
          "internalType": "address",
          "name": "_from",
          "type": "address"
        },
        {
          "indexed": false,
          "internalType": "uint256",
          "name": "_old",
          "type": "uint256"
        },
        {
          "indexed": false,
          "internalType": "uint256",
          "name": "_new",
          "type": "uint256"
        }
      ],
      "name": "ModifyAllowAllAccountsFees",
      "type": "event"
    },
    {
      "anonymous": false,
      "inputs": [
        {
          "indexed": false,
          "internalType": "address",
          "name": "_from",
          "type": "address"
        },
        {
          "indexed": false,
          "internalType": "address",
          "name": "_old",
          "type": "address"
        },
        {
          "indexed": false,
          "internalType": "address",
          "name": "_new",
          "type": "address"
        }
      ],
      "name": "ModifyDealsContractAddress",
      "type": "event"
    },
    {
      "anonymous": false,
      "inputs": [
        {
          "indexed": false,
          "internalType": "address",
          "name": "_from",
          "type": "address"
        },
        {
          "indexed": false,
          "internalType": "address",
          "name": "_old",
          "type": "address"
        },
        {
          "indexed": false,
          "internalType": "address",
          "name": "_new",
          "type": "address"
        }
      ],
      "name": "ModifyInstructionsContractAddress",
      "type": "event"
    },
    {
      "anonymous": false,
      "inputs": [
        {
          "indexed": false,
          "internalType": "address",
          "name": "_from",
          "type": "address"
        },
        {
          "indexed": false,
          "internalType": "address",
          "name": "_old",
          "type": "address"
        },
        {
          "indexed": false,
          "internalType": "address",
          "name": "_new",
          "type": "address"
        }
      ],
      "name": "ModifyInterpreterContractAddress",
      "type": "event"
    },
    {
      "anonymous": false,
      "inputs": [
        {
          "indexed": false,
          "internalType": "address",
          "name": "_from",
          "type": "address"
        },
        {
          "indexed": false,
          "internalType": "uint256",
          "name": "_old",
          "type": "uint256"
        },
        {
          "indexed": false,
          "internalType": "uint256",
          "name": "_new",
          "type": "uint256"
        }
      ],
      "name": "ModifyRuleCreationFees",
      "type": "event"
    },
    {
      "anonymous": false,
      "inputs": [
        {
          "indexed": false,
          "internalType": "address",
          "name": "_from",
          "type": "address"
        },
        {
          "indexed": false,
          "internalType": "uint256",
          "name": "_old",
          "type": "uint256"
        },
        {
          "indexed": false,
          "internalType": "uint256",
          "name": "_new",
          "type": "uint256"
        }
      ],
      "name": "ModifyTransactionFees",
      "type": "event"
    },
    {
      "anonymous": false,
      "inputs": [
        {
          "indexed": false,
          "internalType": "address",
          "name": "_from",
          "type": "address"
        },
        {
          "indexed": false,
          "internalType": "uint256",
          "name": "_old",
          "type": "uint256"
        },
        {
          "indexed": false,
          "internalType": "uint256",
          "name": "_new",
          "type": "uint256"
        }
      ],
      "name": "ModifyTransactionMinimalValue",
      "type": "event"
    },
    {
      "anonymous": false,
      "inputs": [
        {
          "indexed": false,
          "internalType": "address",
          "name": "_from",
          "type": "address"
        },
        {
          "indexed": false,
          "internalType": "uint256",
          "name": "_old",
          "type": "uint256"
        },
        {
          "indexed": false,
          "internalType": "uint256",
          "name": "_new",
          "type": "uint256"
        }
      ],
      "name": "ModifyWEI2USDConversionRate",
      "type": "event"
    },
    {
      "anonymous": false,
      "inputs": [
        {
          "indexed": true,
          "internalType": "address",
          "name": "previousOwner",
          "type": "address"
        },
        {
          "indexed": true,
          "internalType": "address",
          "name": "newOwner",
          "type": "address"
        }
      ],
      "name": "OwnershipTransferred",
      "type": "event"
    },
    {
      "anonymous": false,
      "inputs": [
        {
          "indexed": false,
          "internalType": "address",
          "name": "_from",
          "type": "address"
        },
        {
          "indexed": false,
          "internalType": "uint256",
          "name": "_dealId",
          "type": "uint256"
        },
        {
          "indexed": false,
          "internalType": "uint256",
          "name": "_fees",
          "type": "uint256"
        }
      ],
      "name": "PayDealCreationFees",
      "type": "event"
    },
    {
      "anonymous": false,
      "inputs": [
        {
          "indexed": false,
          "internalType": "address",
          "name": "_from",
          "type": "address"
        },
        {
          "indexed": false,
          "internalType": "uint256",
          "name": "_dealId",
          "type": "uint256"
        },
        {
          "indexed": false,
          "internalType": "uint256",
          "name": "_ruleId",
          "type": "uint256"
        },
        {
          "indexed": false,
          "internalType": "uint256",
          "name": "_fees",
          "type": "uint256"
        }
      ],
      "name": "PayTransactionFees",
      "type": "event"
    },
    {
      "inputs": [],
      "name": "owner",
      "outputs": [
        {
          "internalType": "address",
          "name": "",
          "type": "address"
        }
      ],
      "stateMutability": "view",
      "type": "function"
    },
    {
      "inputs": [],
      "name": "renounceOwnership",
      "outputs": [],
      "stateMutability": "nonpayable",
      "type": "function"
    },
    {
      "inputs": [
        {
          "internalType": "address",
          "name": "newOwner",
          "type": "address"
        }
      ],
      "name": "transferOwnership",
      "outputs": [],
      "stateMutability": "nonpayable",
      "type": "function"
    },
    {
      "inputs": [
        {
          "internalType": "address",
          "name": "_new",
          "type": "address"
        }
      ],
      "name": "setInstructionsContractRef",
      "outputs": [],
      "stateMutability": "nonpayable",
      "type": "function"
    },
    {
      "inputs": [
        {
          "internalType": "address",
          "name": "_new",
          "type": "address"
        }
      ],
      "name": "setDealsContractRef",
      "outputs": [],
      "stateMutability": "nonpayable",
      "type": "function"
    },
    {
      "inputs": [
        {
          "internalType": "address",
          "name": "_new",
          "type": "address"
        }
      ],
      "name": "setInterpreterContractRef",
      "outputs": [],
      "stateMutability": "nonpayable",
      "type": "function"
    },
    {
      "inputs": [
        {
          "internalType": "uint256",
          "name": "_new",
          "type": "uint256"
        }
      ],
      "name": "setAccountCreationFees",
      "outputs": [],
      "stateMutability": "nonpayable",
      "type": "function"
    },
    {
      "inputs": [
        {
          "internalType": "uint256",
          "name": "_new",
          "type": "uint256"
        }
      ],
      "name": "setRuleCreationFees",
      "outputs": [],
      "stateMutability": "nonpayable",
      "type": "function"
    },
    {
      "inputs": [
        {
          "internalType": "uint256",
          "name": "_new",
          "type": "uint256"
        }
      ],
      "name": "setAllowAllAddressesFees",
      "outputs": [],
      "stateMutability": "nonpayable",
      "type": "function"
    },
    {
      "inputs": [
        {
          "internalType": "uint256",
          "name": "_new",
          "type": "uint256"
        }
      ],
      "name": "setTransactionMinimalValue",
      "outputs": [],
      "stateMutability": "nonpayable",
      "type": "function"
    },
    {
      "inputs": [
        {
          "internalType": "uint256",
          "name": "_new",
          "type": "uint256"
        }
      ],
      "name": "setTransactionFees",
      "outputs": [],
      "stateMutability": "nonpayable",
      "type": "function"
    },
    {
      "inputs": [
        {
          "internalType": "uint256",
          "name": "_new",
          "type": "uint256"
        }
      ],
      "name": "setWEI2USDRate",
      "outputs": [],
      "stateMutability": "nonpayable",
      "type": "function"
    },
    {
      "inputs": [
        {
          "internalType": "address[]",
          "name": "_accounts",
          "type": "address[]"
        },
        {
          "components": [
            {
              "internalType": "string",
              "name": "instructionName",
              "type": "string"
            },
            {
              "internalType": "string",
              "name": "paramStr",
              "type": "string"
            },
            {
              "internalType": "uint256",
              "name": "paramUInt",
              "type": "uint256"
            },
            {
              "internalType": "address",
              "name": "paramAddress",
              "type": "address"
            }
          ],
          "internalType": "struct CommonStructs.Article[][]",
          "name": "_rulesList",
          "type": "tuple[][]"
        }
      ],
      "name": "createDeal",
      "outputs": [
        {
          "internalType": "uint256",
          "name": "",
          "type": "uint256"
        }
      ],
      "stateMutability": "payable",
      "type": "function"
    },
    {
      "inputs": [
        {
          "internalType": "uint256",
          "name": "_dealId",
          "type": "uint256"
        },
        {
          "internalType": "uint256",
          "name": "_ruleId",
          "type": "uint256"
        }
      ],
      "name": "executeRule",
      "outputs": [],
      "stateMutability": "payable",
      "type": "function"
    },
    {
      "inputs": [
        {
          "internalType": "uint256",
          "name": "_accountsCount",
          "type": "uint256"
        },
        {
          "internalType": "uint256",
          "name": "_rulesCount",
          "type": "uint256"
        }
      ],
      "name": "computeDealCreationFees",
      "outputs": [
        {
          "internalType": "uint256",
          "name": "",
          "type": "uint256"
        }
      ],
      "stateMutability": "view",
      "type": "function"
    },
    {
      "inputs": [
        {
          "internalType": "uint256",
          "name": "_amountInWEI",
          "type": "uint256"
        }
      ],
      "name": "convertWEI2USD",
      "outputs": [
        {
          "internalType": "uint256",
          "name": "",
          "type": "uint256"
        }
      ],
      "stateMutability": "view",
      "type": "function"
    },
    {
      "inputs": [
        {
          "internalType": "uint256",
          "name": "_amountInUSD",
          "type": "uint256"
        }
      ],
      "name": "convertUSD2WEI",
      "outputs": [
        {
          "internalType": "uint256",
          "name": "",
          "type": "uint256"
        }
      ],
      "stateMutability": "view",
      "type": "function"
    },
    {
      "inputs": [
        {
          "internalType": "string",
          "name": "_s1",
          "type": "string"
        },
        {
          "internalType": "string",
          "name": "_s2",
          "type": "string"
        }
      ],
      "name": "stringsEqual",
      "outputs": [
        {
          "internalType": "bool",
          "name": "",
          "type": "bool"
        }
      ],
      "stateMutability": "pure",
      "type": "function"
    }
  ],
  "bytecode": "0x60806040523480156200001157600080fd5b506040516200296438038062002964833981810160405281019062000037919062000199565b620000576200004b6200008d60201b60201c565b6200009560201b60201c565b85600481905550846005819055508360068190555082600781905550816008819055508060098190555050505050505062000235565b600033905090565b60008060009054906101000a900473ffffffffffffffffffffffffffffffffffffffff169050816000806101000a81548173ffffffffffffffffffffffffffffffffffffffff021916908373ffffffffffffffffffffffffffffffffffffffff1602179055508173ffffffffffffffffffffffffffffffffffffffff168173ffffffffffffffffffffffffffffffffffffffff167f8be0079c531659141344cd1fd0a4f28419497f9722a3daafe3b4186f6b6457e060405160405180910390a35050565b600080fd5b6000819050919050565b62000173816200015e565b81146200017f57600080fd5b50565b600081519050620001938162000168565b92915050565b60008060008060008060c08789031215620001b957620001b862000159565b5b6000620001c989828a0162000182565b9650506020620001dc89828a0162000182565b9550506040620001ef89828a0162000182565b94505060606200020289828a0162000182565b93505060806200021589828a0162000182565b92505060a06200022889828a0162000182565b9150509295509295509295565b61271f80620002456000396000f3fe6080604052600436106101095760003560e01c8063715018a611610095578063b50f34da11610064578063b50f34da14610342578063f2fde38b1461036b578063f42a4f7914610394578063f46ddf24146103d1578063fc51821c146103fa57610109565b8063715018a6146102bb5780638da5cb5b146102d257806396b6dc7d146102fd578063a2ae0cd21461031957610109565b80632a16348c116100dc5780632a16348c146101da5780634368080b14610203578063446431911461022c5780634e02b0b3146102695780636b18c1ca1461029257610109565b8063042c27ea1461010e57806313d199501461014b5780632131d8c31461018857806326698e75146101b1575b600080fd5b34801561011a57600080fd5b5061013560048036038101906101309190611481565b61042a565b60405161014291906114bd565b60405180910390f35b34801561015757600080fd5b50610172600480360381019061016d919061161e565b610441565b60405161017f91906116b1565b60405180910390f35b34801561019457600080fd5b506101af60048036038101906101aa919061172a565b61045c565b005b3480156101bd57600080fd5b506101d860048036038101906101d39190611481565b61057f565b005b3480156101e657600080fd5b5061020160048036038101906101fc9190611481565b610648565b005b34801561020f57600080fd5b5061022a6004803603810190610225919061172a565b610711565b005b34801561023857600080fd5b50610253600480360381019061024e9190611757565b610834565b60405161026091906114bd565b60405180910390f35b34801561027557600080fd5b50610290600480360381019061028b919061172a565b610871565b005b34801561029e57600080fd5b506102b960048036038101906102b49190611481565b610994565b005b3480156102c757600080fd5b506102d0610a5d565b005b3480156102de57600080fd5b506102e7610ae5565b6040516102f491906117a6565b60405180910390f35b61031760048036038101906103129190611757565b610b0e565b005b34801561032557600080fd5b50610340600480360381019061033b9190611481565b610c5c565b005b34801561034e57600080fd5b5061036960048036038101906103649190611481565b610d25565b005b34801561037757600080fd5b50610392600480360381019061038d919061172a565b610dee565b005b3480156103a057600080fd5b506103bb60048036038101906103b69190611481565b610ee6565b6040516103c891906114bd565b60405180910390f35b3480156103dd57600080fd5b506103f860048036038101906103f39190611481565b610efd565b005b610414600480360381019061040f9190611b05565b610fc6565b60405161042191906114bd565b60405180910390f35b60006009548261043a9190611bac565b9050919050565b60008180519060200120838051906020012014905092915050565b61046461136b565b73ffffffffffffffffffffffffffffffffffffffff16610482610ae5565b73ffffffffffffffffffffffffffffffffffffffff16146104d8576040517f08c379a00000000000000000000000000000000000000000000000000000000081526004016104cf90611c63565b60405180910390fd5b6000600360009054906101000a900473ffffffffffffffffffffffffffffffffffffffff16905081600360006101000a81548173ffffffffffffffffffffffffffffffffffffffff021916908373ffffffffffffffffffffffffffffffffffffffff1602179055507f81ed796ae91ccecf245e3cb1b6149b3491e1f0989e603b5d1b388bd68f06b52b33828460405161057393929190611c83565b60405180910390a15050565b61058761136b565b73ffffffffffffffffffffffffffffffffffffffff166105a5610ae5565b73ffffffffffffffffffffffffffffffffffffffff16146105fb576040517f08c379a00000000000000000000000000000000000000000000000000000000081526004016105f290611c63565b60405180910390fd5b60006005549050816005819055507f95204251d165fe2245c1dceb4c89885d7b8cfdb88aa079c9428ef4e12df3b0ac33828460405161063c93929190611cba565b60405180910390a15050565b61065061136b565b73ffffffffffffffffffffffffffffffffffffffff1661066e610ae5565b73ffffffffffffffffffffffffffffffffffffffff16146106c4576040517f08c379a00000000000000000000000000000000000000000000000000000000081526004016106bb90611c63565b60405180910390fd5b60006007549050816007819055507f9fd5b1fe2d0c3437bd798e95b2f63bd4a3b08887c95a04d22832ccb4aae9fda433828460405161070593929190611cba565b60405180910390a15050565b61071961136b565b73ffffffffffffffffffffffffffffffffffffffff16610737610ae5565b73ffffffffffffffffffffffffffffffffffffffff161461078d576040517f08c379a000000000000000000000000000000000000000000000000000000000815260040161078490611c63565b60405180910390fd5b6000600160009054906101000a900473ffffffffffffffffffffffffffffffffffffffff16905081600160006101000a81548173ffffffffffffffffffffffffffffffffffffffff021916908373ffffffffffffffffffffffffffffffffffffffff1602179055507f7a98528f6374afdc782de68dfe485f60c47c83eb22d862896ee7c59a13c6d89933828460405161082893929190611c83565b60405180910390a15050565b6000600954600554836108479190611bac565b600454856108559190611bac565b61085f9190611cf1565b6108699190611bac565b905092915050565b61087961136b565b73ffffffffffffffffffffffffffffffffffffffff16610897610ae5565b73ffffffffffffffffffffffffffffffffffffffff16146108ed576040517f08c379a00000000000000000000000000000000000000000000000000000000081526004016108e490611c63565b60405180910390fd5b6000600260009054906101000a900473ffffffffffffffffffffffffffffffffffffffff16905081600260006101000a81548173ffffffffffffffffffffffffffffffffffffffff021916908373ffffffffffffffffffffffffffffffffffffffff1602179055507fef88ef88851c867cbde2a8d8f43f01b9b75342fb93a2a7034ea0d656dbe1378233828460405161098893929190611c83565b60405180910390a15050565b61099c61136b565b73ffffffffffffffffffffffffffffffffffffffff166109ba610ae5565b73ffffffffffffffffffffffffffffffffffffffff1614610a10576040517f08c379a0000000000000000000000000000000000000000000000000000000008152600401610a0790611c63565b60405180910390fd5b60006004549050816004819055507f20cb277045b07975ddd69579bb7c5703b15359a94bc8b635d4a17c243c8a65ac338284604051610a5193929190611cba565b60405180910390a15050565b610a6561136b565b73ffffffffffffffffffffffffffffffffffffffff16610a83610ae5565b73ffffffffffffffffffffffffffffffffffffffff1614610ad9576040517f08c379a0000000000000000000000000000000000000000000000000000000008152600401610ad090611c63565b60405180910390fd5b610ae36000611373565b565b60008060009054906101000a900473ffffffffffffffffffffffffffffffffffffffff16905090565b6000610b1934610ee6565b9050600754811015610b60576040517f08c379a0000000000000000000000000000000000000000000000000000000008152600401610b5790611db9565b60405180910390fd5b60006064600854610b719190611e08565b34610b7c9190611bac565b9050600360009054906101000a900473ffffffffffffffffffffffffffffffffffffffff1673ffffffffffffffffffffffffffffffffffffffff1663dda7b0638234610bc89190611e39565b86866040518463ffffffff1660e01b8152600401610be7929190611e6d565b6000604051808303818588803b158015610c0057600080fd5b505af1158015610c14573d6000803e3d6000fd5b50505050507ffa46e5ec587216687a4a33c4e605f1483f16833be6465e442d80d7bcbaec2eaf33858584604051610c4e9493929190611e96565b60405180910390a150505050565b610c6461136b565b73ffffffffffffffffffffffffffffffffffffffff16610c82610ae5565b73ffffffffffffffffffffffffffffffffffffffff1614610cd8576040517f08c379a0000000000000000000000000000000000000000000000000000000008152600401610ccf90611c63565b60405180910390fd5b60006008549050816008819055507f93dcb4d14ff2c7a93d0076d4d9fbf19c189f2de91a9ba7d79bb80115fe7a852d338284604051610d1993929190611cba565b60405180910390a15050565b610d2d61136b565b73ffffffffffffffffffffffffffffffffffffffff16610d4b610ae5565b73ffffffffffffffffffffffffffffffffffffffff1614610da1576040517f08c379a0000000000000000000000000000000000000000000000000000000008152600401610d9890611c63565b60405180910390fd5b60006006549050816006819055507fd1a0f1c3e15bbeb47f950c6fd7572c460678919e9d839966bf073b487365e4bb338284604051610de293929190611cba565b60405180910390a15050565b610df661136b565b73ffffffffffffffffffffffffffffffffffffffff16610e14610ae5565b73ffffffffffffffffffffffffffffffffffffffff1614610e6a576040517f08c379a0000000000000000000000000000000000000000000000000000000008152600401610e6190611c63565b60405180910390fd5b600073ffffffffffffffffffffffffffffffffffffffff168173ffffffffffffffffffffffffffffffffffffffff161415610eda576040517f08c379a0000000000000000000000000000000000000000000000000000000008152600401610ed190611f4d565b60405180910390fd5b610ee381611373565b50565b600060095482610ef69190611e08565b9050919050565b610f0561136b565b73ffffffffffffffffffffffffffffffffffffffff16610f23610ae5565b73ffffffffffffffffffffffffffffffffffffffff1614610f79576040517f08c379a0000000000000000000000000000000000000000000000000000000008152600401610f7090611c63565b60405180910390fd5b60006009549050816009819055507fabdbf62a0b429ce7d6d10ed04c8ecbccb6631aafcae5f4acab13f27ed9d9055c338284604051610fba93929190611cba565b60405180910390a15050565b600080610fd584518451610834565b90508034101561101a576040517f08c379a000000000000000000000000000000000000000000000000000000000815260040161101190611fdf565b60405180910390fd5b60005b83518110156111b95760005b84828151811061103c5761103b611fff565b5b6020026020010151518110156111a5576000600160009054906101000a900473ffffffffffffffffffffffffffffffffffffffff1673ffffffffffffffffffffffffffffffffffffffff166399b87f6c87858151811061109f5761109e611fff565b5b602002602001015184815181106110b9576110b8611fff565b5b6020026020010151600001516040518263ffffffff1660e01b81526004016110e191906120a5565b60006040518083038186803b1580156110f957600080fd5b505afa15801561110d573d6000803e3d6000fd5b505050506040513d6000823e3d601f19601f82011682018060405250810190611136919061215c565b9150506111528160405180602001604052806000815250610441565b611191576040517f08c379a00000000000000000000000000000000000000000000000000000000081526004016111889061222a565b60405180910390fd5b50808061119d9061224a565b915050611029565b5080806111b19061224a565b91505061101d565b5060003373ffffffffffffffffffffffffffffffffffffffff1682346111df9190611e39565b6040516111eb906122c4565b60006040518083038185875af1925050503d8060008114611228576040519150601f19603f3d011682016040523d82523d6000602084013e61122d565b606091505b5050905080611271576040517f08c379a00000000000000000000000000000000000000000000000000000000081526004016112689061234b565b60405180910390fd5b6000600260009054906101000a900473ffffffffffffffffffffffffffffffffffffffff1673ffffffffffffffffffffffffffffffffffffffff1663fc51821c87876040518363ffffffff1660e01b81526004016112d0929190612670565b602060405180830381600087803b1580156112ea57600080fd5b505af11580156112fe573d6000803e3d6000fd5b505050506040513d601f19601f8201168201806040525081019061132291906126bc565b90507f1e34314d10c294e150d9078dc4808fbc4e77807ab189f2556837ace79995889033828560405161135793929190611cba565b60405180910390a180935050505092915050565b600033905090565b60008060009054906101000a900473ffffffffffffffffffffffffffffffffffffffff169050816000806101000a81548173ffffffffffffffffffffffffffffffffffffffff021916908373ffffffffffffffffffffffffffffffffffffffff1602179055508173ffffffffffffffffffffffffffffffffffffffff168173ffffffffffffffffffffffffffffffffffffffff167f8be0079c531659141344cd1fd0a4f28419497f9722a3daafe3b4186f6b6457e060405160405180910390a35050565b6000604051905090565b600080fd5b600080fd5b6000819050919050565b61145e8161144b565b811461146957600080fd5b50565b60008135905061147b81611455565b92915050565b60006020828403121561149757611496611441565b5b60006114a58482850161146c565b91505092915050565b6114b78161144b565b82525050565b60006020820190506114d260008301846114ae565b92915050565b600080fd5b600080fd5b6000601f19601f8301169050919050565b7f4e487b7100000000000000000000000000000000000000000000000000000000600052604160045260246000fd5b61152b826114e2565b810181811067ffffffffffffffff8211171561154a576115496114f3565b5b80604052505050565b600061155d611437565b90506115698282611522565b919050565b600067ffffffffffffffff821115611589576115886114f3565b5b611592826114e2565b9050602081019050919050565b82818337600083830152505050565b60006115c16115bc8461156e565b611553565b9050828152602081018484840111156115dd576115dc6114dd565b5b6115e884828561159f565b509392505050565b600082601f830112611605576116046114d8565b5b81356116158482602086016115ae565b91505092915050565b6000806040838503121561163557611634611441565b5b600083013567ffffffffffffffff81111561165357611652611446565b5b61165f858286016115f0565b925050602083013567ffffffffffffffff8111156116805761167f611446565b5b61168c858286016115f0565b9150509250929050565b60008115159050919050565b6116ab81611696565b82525050565b60006020820190506116c660008301846116a2565b92915050565b600073ffffffffffffffffffffffffffffffffffffffff82169050919050565b60006116f7826116cc565b9050919050565b611707816116ec565b811461171257600080fd5b50565b600081359050611724816116fe565b92915050565b6000602082840312156117405761173f611441565b5b600061174e84828501611715565b91505092915050565b6000806040838503121561176e5761176d611441565b5b600061177c8582860161146c565b925050602061178d8582860161146c565b9150509250929050565b6117a0816116ec565b82525050565b60006020820190506117bb6000830184611797565b92915050565b600067ffffffffffffffff8211156117dc576117db6114f3565b5b602082029050602081019050919050565b600080fd5b6000611805611800846117c1565b611553565b90508083825260208201905060208402830185811115611828576118276117ed565b5b835b81811015611851578061183d8882611715565b84526020840193505060208101905061182a565b5050509392505050565b600082601f8301126118705761186f6114d8565b5b81356118808482602086016117f2565b91505092915050565b600067ffffffffffffffff8211156118a4576118a36114f3565b5b602082029050602081019050919050565b600067ffffffffffffffff8211156118d0576118cf6114f3565b5b602082029050602081019050919050565b600080fd5b600080fd5b600060808284031215611901576119006118e1565b5b61190b6080611553565b9050600082013567ffffffffffffffff81111561192b5761192a6118e6565b5b611937848285016115f0565b600083015250602082013567ffffffffffffffff81111561195b5761195a6118e6565b5b611967848285016115f0565b602083015250604061197b8482850161146c565b604083015250606061198f84828501611715565b60608301525092915050565b60006119ae6119a9846118b5565b611553565b905080838252602082019050602084028301858111156119d1576119d06117ed565b5b835b81811015611a1857803567ffffffffffffffff8111156119f6576119f56114d8565b5b808601611a0389826118eb565b855260208501945050506020810190506119d3565b5050509392505050565b600082601f830112611a3757611a366114d8565b5b8135611a4784826020860161199b565b91505092915050565b6000611a63611a5e84611889565b611553565b90508083825260208201905060208402830185811115611a8657611a856117ed565b5b835b81811015611acd57803567ffffffffffffffff811115611aab57611aaa6114d8565b5b808601611ab88982611a22565b85526020850194505050602081019050611a88565b5050509392505050565b600082601f830112611aec57611aeb6114d8565b5b8135611afc848260208601611a50565b91505092915050565b60008060408385031215611b1c57611b1b611441565b5b600083013567ffffffffffffffff811115611b3a57611b39611446565b5b611b468582860161185b565b925050602083013567ffffffffffffffff811115611b6757611b66611446565b5b611b7385828601611ad7565b9150509250929050565b7f4e487b7100000000000000000000000000000000000000000000000000000000600052601160045260246000fd5b6000611bb78261144b565b9150611bc28361144b565b9250817fffffffffffffffffffffffffffffffffffffffffffffffffffffffffffffffff0483118215151615611bfb57611bfa611b7d565b5b828202905092915050565b600082825260208201905092915050565b7f4f776e61626c653a2063616c6c6572206973206e6f7420746865206f776e6572600082015250565b6000611c4d602083611c06565b9150611c5882611c17565b602082019050919050565b60006020820190508181036000830152611c7c81611c40565b9050919050565b6000606082019050611c986000830186611797565b611ca56020830185611797565b611cb26040830184611797565b949350505050565b6000606082019050611ccf6000830186611797565b611cdc60208301856114ae565b611ce960408301846114ae565b949350505050565b6000611cfc8261144b565b9150611d078361144b565b9250827fffffffffffffffffffffffffffffffffffffffffffffffffffffffffffffffff03821115611d3c57611d3b611b7d565b5b828201905092915050565b7f5472616e73616374696f6e206d696e696d616c2076616c7565206e6f7420726560008201527f6163686564000000000000000000000000000000000000000000000000000000602082015250565b6000611da3602583611c06565b9150611dae82611d47565b604082019050919050565b60006020820190508181036000830152611dd281611d96565b9050919050565b7f4e487b7100000000000000000000000000000000000000000000000000000000600052601260045260246000fd5b6000611e138261144b565b9150611e1e8361144b565b925082611e2e57611e2d611dd9565b5b828204905092915050565b6000611e448261144b565b9150611e4f8361144b565b925082821015611e6257611e61611b7d565b5b828203905092915050565b6000604082019050611e8260008301856114ae565b611e8f60208301846114ae565b9392505050565b6000608082019050611eab6000830187611797565b611eb860208301866114ae565b611ec560408301856114ae565b611ed260608301846114ae565b95945050505050565b7f4f776e61626c653a206e6577206f776e657220697320746865207a65726f206160008201527f6464726573730000000000000000000000000000000000000000000000000000602082015250565b6000611f37602683611c06565b9150611f4282611edb565b604082019050919050565b60006020820190508181036000830152611f6681611f2a565b9050919050565b7f496e73756666696369656e742076616c756520746f20636f766572207468652060008201527f6465616c206372656174696f6e20666565730000000000000000000000000000602082015250565b6000611fc9603283611c06565b9150611fd482611f6d565b604082019050919050565b60006020820190508181036000830152611ff881611fbc565b9050919050565b7f4e487b7100000000000000000000000000000000000000000000000000000000600052603260045260246000fd5b600081519050919050565b60005b8381101561205757808201518184015260208101905061203c565b83811115612066576000848401525b50505050565b60006120778261202e565b6120818185611c06565b9350612091818560208601612039565b61209a816114e2565b840191505092915050565b600060208201905081810360008301526120bf818461206c565b905092915050565b600581106120d457600080fd5b50565b6000815190506120e6816120c7565b92915050565b60006120ff6120fa8461156e565b611553565b90508281526020810184848401111561211b5761211a6114dd565b5b612126848285612039565b509392505050565b600082601f830112612143576121426114d8565b5b81516121538482602086016120ec565b91505092915050565b6000806040838503121561217357612172611441565b5b6000612181858286016120d7565b925050602083015167ffffffffffffffff8111156121a2576121a1611446565b5b6121ae8582860161212e565b9150509250929050565b7f50726f78792e4372656174654465616c3a20496e737472756374696f6e20697360008201527f206e6f7420737570706f72746564000000000000000000000000000000000000602082015250565b6000612214602e83611c06565b915061221f826121b8565b604082019050919050565b6000602082019050818103600083015261224381612207565b9050919050565b60006122558261144b565b91507fffffffffffffffffffffffffffffffffffffffffffffffffffffffffffffffff82141561228857612287611b7d565b5b600182019050919050565b600081905092915050565b50565b60006122ae600083612293565b91506122b98261229e565b600082019050919050565b60006122cf826122a1565b9150819050919050565b7f50726f78792e6372656174654465616c3a204661696c656420746f207265696d60008201527f6275727365206578636573732045746865720000000000000000000000000000602082015250565b6000612335603283611c06565b9150612340826122d9565b604082019050919050565b6000602082019050818103600083015261236481612328565b9050919050565b600081519050919050565b600082825260208201905092915050565b6000819050602082019050919050565b6123a0816116ec565b82525050565b60006123b28383612397565b60208301905092915050565b6000602082019050919050565b60006123d68261236b565b6123e08185612376565b93506123eb83612387565b8060005b8381101561241c57815161240388826123a6565b975061240e836123be565b9250506001810190506123ef565b5085935050505092915050565b600081519050919050565b600082825260208201905092915050565b6000819050602082019050919050565b600081519050919050565b600082825260208201905092915050565b6000819050602082019050919050565b600082825260208201905092915050565b600061249d8261202e565b6124a78185612481565b93506124b7818560208601612039565b6124c0816114e2565b840191505092915050565b6124d48161144b565b82525050565b600060808301600083015184820360008601526124f78282612492565b915050602083015184820360208601526125118282612492565b915050604083015161252660408601826124cb565b5060608301516125396060860182612397565b508091505092915050565b600061255083836124da565b905092915050565b6000602082019050919050565b600061257082612455565b61257a8185612460565b93508360208202850161258c85612471565b8060005b858110156125c857848403895281516125a98582612544565b94506125b483612558565b925060208a01995050600181019050612590565b50829750879550505050505092915050565b60006125e68383612565565b905092915050565b6000602082019050919050565b600061260682612429565b6126108185612434565b93508360208202850161262285612445565b8060005b8581101561265e578484038952815161263f85826125da565b945061264a836125ee565b925060208a01995050600181019050612626565b50829750879550505050505092915050565b6000604082019050818103600083015261268a81856123cb565b9050818103602083015261269e81846125fb565b90509392505050565b6000815190506126b681611455565b92915050565b6000602082840312156126d2576126d1611441565b5b60006126e0848285016126a7565b9150509291505056fea264697066735822122093a052e2774d1e0cec418d2b7a8caef9913037349a7a2e826b53e606f781710b64736f6c63430008090033",
  "immutableReferences": {},
  "source": "// SPDX-License-Identifier: GPL-3.0\npragma solidity ^0.8.0;\n\n/* EXTERNAL DEPENDENCIES */\nimport \"@openzeppelin/contracts/access/Ownable.sol\";\n\n/* INTERNAL DEPENDENCIES */\nimport \"./CommonStructs.sol\";\nimport \"./Instructions.sol\";\nimport \"./Deals.sol\";\nimport \"./Interpreter.sol\";\n\n// TODO: Ajouter un payable fallback a tous les contracts pour voir ce qu'on fait quand on reoit de l'argent par erreur\n//        ==> Hriter d'une classe qui redirige l'argent vers le proxy ou bien juste rembourser les sous\n\n// TODO: Check how to integrate the allowAllAccounts in the interpreter. Should I add it as a param in the deal?\n\n/// @title Proxy Contract\n/// @dev Main DApp entry point. Exposes the public interface and decouple the data and the logic\n/// @notice lets-make-a-deal.eth allows you to make an agreement between different parties and automatically route ETH to different addresses based on simple rules.\ncontract Proxy is Ownable {\n    \n    /* STORAGE VARIABLES */\n\n    // References to external contracts\n    \n    /// @dev Reference to the Instructions contract\n    Instructions private instructionsContractRef;\n\n    /// @dev Reference to the Deals contract\n    Deals private dealsContractRef;\n\n    /// @dev Reference to the Interpreter contract\n    Interpreter private interpreterContractRef;\n\n    // Contract fees\n\n    /// @dev Price per account added to the deal in USD\n    uint private accountCreationFees;\n    \n    /// @dev Price per rule added to the deal in USD\n    uint private ruleCreationFees;\n\n    /// @dev Price to allow incoming payments from all addresses others than internal/external accounts in USD\n    uint private allowAllAddressesFees;\n\n    /// @dev Minimal transaction value able to trigger an execution in USD\n    uint private transactionMinimalValue;\n\n    /// @dev Transaction fees in % of the msg.value perceived on a deal execution in USD\n    uint private transactionFees;\n\n    /// @dev USD/WEI rate\n    uint private WEI2USDConversionRate;\n\n    /* MAPPINGS */\n    \n    /* MODIFIERS */\n    \n    /* EVENTS */\n\n    // Modify contract references\n\n    /**\n    * @dev Event emitted when the Instructions contract reference is changed\n    * @param _from Caller address\n    * @param _old Old address of the Instructions contract\n    * @param _new New address of the Instructions contract\n    */\n    event ModifyInstructionsContractAddress(address _from, address _old, address _new);\n\n    /**\n    * @dev Event emitted when the Deals contract reference is changed\n    * @param _from Caller address\n    * @param _old Old address of the Deals contract\n    * @param _new New address of the Deals contract\n    */\n    event ModifyDealsContractAddress(address _from, address _old, address _new);\n    \n    /**\n    * @dev Event emitted when the Interpreter contract reference is changed\n    * @param _from Caller address\n    * @param _old Old address of the Interpreter contract\n    * @param _new New address of the Interpreter contract\n    */\n    event ModifyInterpreterContractAddress(address _from, address _old, address _new);\n    \n    // Modify fees\n \n    /** \n    * @dev Event emitted when the account creation fees is changed\n    * @param _from : msg.sender\n    * @param _old : old account creation fees in USD\n    * @param _new : new account creation fees in USD\n    */\n    event ModifyAccountCreationFees(address _from, uint _old, uint _new);\n\n    /** \n    * @dev Event emitted when the rule creation fees is changed\n    * @param _from : msg.sender\n    * @param _old : old rule creation fees in USD\n    * @param _new : new rule creation fees in USD\n    */\n    event ModifyRuleCreationFees(address _from, uint _old, uint _new);\n\n    /** \n    * @dev Event emitted when the allow all accounts fees is changed\n    * @param _from : msg.sender\n    * @param _old : old allow all accounts fees in USD\n    * @param _new : new allow all accounts fees in USD\n    */\n    event ModifyAllowAllAccountsFees(address _from, uint _old, uint _new);\n\n    /** \n    * @dev Event emitted when the transaction minimal value is changed\n    * @param _from : msg.sender\n    * @param _old : old transaction minimal value in USD\n    * @param _new : new transaction minimal value in USD\n    */\n    event ModifyTransactionMinimalValue(address _from, uint _old, uint _new);\n\n    /** \n    * @dev Event emitted when the ETH/USD rate is changed\n    * @param _from : msg.sender\n    * @param _old : old ETH/USD rate in ETH per USD\n    * @param _new : new ETH/USD rate in ETH per USD\n    */\n    event ModifyTransactionFees(address _from, uint _old, uint _new);\n    \n    /** \n    * @dev Event emitted when the WEI to USD conversion rate is changed\n    * @param _from : msg.sender\n    * @param _old : old WEI to USD conversion rate in WEI\n    * @param _new : new WEI to USD conversion rate in WEI\n    */\n    event ModifyWEI2USDConversionRate(address _from, uint _old, uint _new);\n\n    /** \n    * @dev Event emitted when the deal creation fees are paid\n    * @param _from : msg.sender\n    * @param _dealId : Id of the created deal\n    * @param _fees : Fees paid by the user in ETH\n    */\n    event PayDealCreationFees(address _from, uint _dealId, uint _fees);\n\n    /** \n    * @dev Event emitted when the transaction fees are paid\n    * @param _from : msg.sender\n    * @param _dealId : Id of the executed deal \n    * @param _ruleId : Id of the executed rule\n    * @param _fees : Fees paid by the user in ETH\n    */\n    event PayTransactionFees(address _from, uint _dealId, uint _ruleId, uint _fees);\n    \n\n    /* CONSTRUCTOR */\n\n    /** \n    * @dev Constructor: Initialize storage variables\n    * @param _accountCreationFees Creation fees per account in Wei \n    * @param _ruleCreationFees Creation fees per rule in Wei \n    * @param _allowAllAddressesFees Creation fees to allow incoming payments from all addresses\n    * @param _transactionMinimalValue Minimal value to trigger a rule execution\n    * @param _transactionFees Transaction fees paid to execute a rule in % of msg.value (1=1%)\n    * @param _WEI2USDConversionRate Wei per USD conversion rate\n    */\n    constructor (\n        uint _accountCreationFees, \n        uint _ruleCreationFees,\n        uint _allowAllAddressesFees,\n        uint _transactionMinimalValue,\n        uint _transactionFees,\n        uint _WEI2USDConversionRate\n    ) {\n        accountCreationFees = _accountCreationFees;\n        ruleCreationFees = _ruleCreationFees;\n        allowAllAddressesFees = _allowAllAddressesFees;\n        transactionMinimalValue = _transactionMinimalValue;\n        transactionFees = _transactionFees;\n        WEI2USDConversionRate = _WEI2USDConversionRate;\n    }\n    \n    /* SEND & FALLBACK */\n    // TODO: https://docs.soliditylang.org/en/v0.8.9/contracts.html#receive-ether-function\n    // If I do not include a payable send or fallback, the contract will return any ETH send to the contract with a call without call values (ok for me i think)\n    \n    /* OWNER INTERFACE */\n\n    // References to external contracts\n    \n    /**\n    * @dev Sets the Instructions contract reference to a new value\n    * @param _new New address of the Instructions contract\n    */\n    function setInstructionsContractRef(address _new) public onlyOwner {\n        address old = address(instructionsContractRef);\n        instructionsContractRef = Instructions(_new);\n        emit ModifyInstructionsContractAddress(msg.sender, old, _new);\n    }\n\n    /**\n    * @dev Sets the Deals contract reference to a new value\n    * @param _new New address of the Deals contract\n    */\n    function setDealsContractRef(address _new) public onlyOwner {\n        address old = address(dealsContractRef);\n        dealsContractRef = Deals(_new);\n        emit ModifyDealsContractAddress(msg.sender, old, _new);\n    }\n    \n    /**\n    * @dev Sets the Interpreter contract reference to a new value\n    * @param _new New address of the Interpreter contract\n    */\n    function setInterpreterContractRef(address _new) public onlyOwner {\n        address old = address(interpreterContractRef);\n        interpreterContractRef = Interpreter(_new);\n        emit ModifyInterpreterContractAddress(msg.sender, old, _new);\n    }\n\n    // Contract fees\n\n    /**\n    * @dev Sets the account creation fees to a new value\n    * @param _new New value for the account creation fees in USD\n    */\n    function setAccountCreationFees(uint _new) public onlyOwner {\n        uint old = accountCreationFees;\n        accountCreationFees = _new;\n        emit ModifyAccountCreationFees(msg.sender, old, _new);\n    }\n    \n    /**\n    * @dev Sets the rule creation fees to a new value\n    * @param _new New value for the rule creation fees in USD\n    */\n    function setRuleCreationFees(uint _new) public onlyOwner {\n        uint old = ruleCreationFees;\n        ruleCreationFees = _new;\n        emit ModifyRuleCreationFees(msg.sender, old, _new);\n    }\n\n    /**\n    * @dev Sets the allow all addresses fees to a new value\n    * @param _new New value for the allow all addresses fees in USD\n    */\n    function setAllowAllAddressesFees(uint _new) public onlyOwner {\n        uint old = allowAllAddressesFees;\n        allowAllAddressesFees = _new;\n        emit ModifyAllowAllAccountsFees(msg.sender, old, _new);\n    }\n\n    /**\n    * @dev Sets the transaction minimal value to a new value\n    * @param _new New value for the transaction minimal value in USD\n    */\n    function setTransactionMinimalValue(uint _new) public onlyOwner {\n        uint old = transactionMinimalValue;\n        transactionMinimalValue = _new;\n        emit ModifyTransactionMinimalValue(msg.sender, old, _new);\n    }\n\n    /**\n    * @dev Sets the transaction fees to a new value\n    * @param _new New value for the transaction fees in USD\n    */\n    function setTransactionFees(uint _new) public onlyOwner {\n        uint old = transactionFees;\n        transactionFees = _new;\n        emit ModifyTransactionFees(msg.sender, old, _new);\n    }\n\n    /**\n    * @dev Sets the WEI to USD conversion rate to a new value\n    * @param _new New value for the WEI to USD conversion rate in USD\n    */\n    function setWEI2USDRate(uint _new) public onlyOwner {\n        uint old = WEI2USDConversionRate;\n        WEI2USDConversionRate = _new;\n        emit ModifyWEI2USDConversionRate(msg.sender, old, _new);\n    }\n\n    /* PUBLIC INTERFACE */\n\n    /**\n    * @dev Creates a deal and returns its id\n    * @param _accounts List of accounts addresses linked to the deal\n    * @param _rulesList List of the rules linked to the deal (rule = list of Articles)\n    * @return Id of the deal created\n    */\n    function createDeal\n    (\n        address[] memory _accounts, \n        CommonStructs.Article[][] memory _rulesList\n    ) \n    public payable returns (uint) {\n        // Compute creation fees\n        uint creationFees = computeDealCreationFees(_accounts.length, _rulesList.length);\n\n        // Check 1: Amount sent by the user should cover the deal creation fees\n        require(msg.value >= creationFees, \"Insufficient value to cover the deal creation fees\");\n\n        // Check 2: Make sure that the instructions are all supported\n        for (uint i=0;i<_rulesList.length;i++) {\n            for (uint j=0;j<_rulesList[i].length;j++) {\n                // Get the instruction type & signature\n                (, string memory instructionSignature) = instructionsContractRef.getInstruction(_rulesList[i][j].instructionName);\n                \n                // If the signature is empty, this means that the instruction is not present => revert\n                require(stringsEqual(instructionSignature,''),\"Proxy.CreateDeal: Instruction is not supported\");\n            }\n        }\n\n        // Reimburse excess value to the caller\n        (bool sent, ) = msg.sender.call{value: (msg.value - creationFees)}(\"\");\n        require(sent, \"Proxy.createDeal: Failed to reimburse excess Ether\");\n\n        // Create the deal\n        uint dealId = dealsContractRef.createDeal(_accounts, _rulesList);\n\n        // Emit a PayDealCreationFees\n        emit PayDealCreationFees(msg.sender, dealId, creationFees);\n\n        return dealId;\n    }\n\n    /**\n    * @dev Execute a deal's rule\n    * @param _dealId : Id of the deal to execute\n    * @param _ruleId : Id of the rule to execute\n    */\n    function executeRule(uint _dealId, uint _ruleId) public payable {\n        // Amount sent by the user should be higher or equal to the minimal transaction value\n        uint msgValueInUSD = convertWEI2USD(msg.value);\n        require( msgValueInUSD >= transactionMinimalValue, \"Transaction minimal value not reached\");\n\n        // Call Interpreter.interpretRule() and include in the call the msg.value - execution fees\n        uint executionFees = msg.value * (transactionFees/100);\n        interpreterContractRef.interpretRule{value: (msg.value - executionFees)}(_dealId, _ruleId);\n\n        // Emit a PayTransactionFees\n        emit PayTransactionFees(msg.sender, _dealId, _ruleId, executionFees);\n    }\n\n    /* HELPER FUNCTIONS */\n    \n    /**\n    * @dev Computes the deal creation cost in ETH\n    * @param _accountsCount Number of external accounts defined in the deal\n    * @param _rulesCount Number of rules defined in the deal\n    * @return Deal creation cost in ETH\n    */\n    function computeDealCreationFees\n    (\n        uint _accountsCount, \n        uint _rulesCount\n    ) \n    public view returns (uint) {\n        return (_accountsCount * accountCreationFees + _rulesCount * ruleCreationFees)*WEI2USDConversionRate;\n    }\n\n    /**\n    * @dev Converts an amount in WEI to USD\n    * @param _amountInWEI Amount in WEI\n    * @return Converted amount in USD\n    */\n    function convertWEI2USD(uint _amountInWEI) public view returns(uint) {\n        return _amountInWEI / WEI2USDConversionRate;\n    }\n\n    /**\n    * @dev Converts an amount in USD to WEI\n    * @param _amountInUSD Amount in USD\n    * @return Converted amount in WEI\n    */\n    function convertUSD2WEI(uint _amountInUSD) public view returns(uint) {\n        return _amountInUSD * WEI2USDConversionRate;\n    }\n\n    /** \n    * @dev Checks whether the strings are equal\n    * @param _s1 First string to compare\n    * @param _s2 Second string to compare\n    * @return Boolean indicating if the 2 strings are equal\n    */\n    function stringsEqual(string memory _s1, string memory _s2) public pure returns(bool) {\n        return keccak256(bytes(_s1)) == keccak256(bytes(_s2));\n    }\n}\n",
  "sourcePath": "/home/shakalee/Documents/Consensys/PROJOT-v0/contracts/Proxy.sol",
  "compiler": {
    "name": "solc",
    "version": "0.8.9+commit.e5eed63a.Emscripten.clang"
  },
  "schemaVersion": "3.4.3",
  "updatedAt": "2021-11-21T23:18:08.968Z",
  "devdoc": {
    "details": "Main DApp entry point. Exposes the public interface and decouple the data and the logic",
    "events": {
      "ModifyAccountCreationFees(address,uint256,uint256)": {
        "details": "Event emitted when the account creation fees is changed",
        "params": {
          "_from": ": msg.sender",
          "_new": ": new account creation fees in USD",
          "_old": ": old account creation fees in USD"
        }
      },
      "ModifyAllowAllAccountsFees(address,uint256,uint256)": {
        "details": "Event emitted when the allow all accounts fees is changed",
        "params": {
          "_from": ": msg.sender",
          "_new": ": new allow all accounts fees in USD",
          "_old": ": old allow all accounts fees in USD"
        }
      },
      "ModifyDealsContractAddress(address,address,address)": {
        "details": "Event emitted when the Deals contract reference is changed",
        "params": {
          "_from": "Caller address",
          "_new": "New address of the Deals contract",
          "_old": "Old address of the Deals contract"
        }
      },
      "ModifyInstructionsContractAddress(address,address,address)": {
        "details": "Event emitted when the Instructions contract reference is changed",
        "params": {
          "_from": "Caller address",
          "_new": "New address of the Instructions contract",
          "_old": "Old address of the Instructions contract"
        }
      },
      "ModifyInterpreterContractAddress(address,address,address)": {
        "details": "Event emitted when the Interpreter contract reference is changed",
        "params": {
          "_from": "Caller address",
          "_new": "New address of the Interpreter contract",
          "_old": "Old address of the Interpreter contract"
        }
      },
      "ModifyRuleCreationFees(address,uint256,uint256)": {
        "details": "Event emitted when the rule creation fees is changed",
        "params": {
          "_from": ": msg.sender",
          "_new": ": new rule creation fees in USD",
          "_old": ": old rule creation fees in USD"
        }
      },
      "ModifyTransactionFees(address,uint256,uint256)": {
        "details": "Event emitted when the ETH/USD rate is changed",
        "params": {
          "_from": ": msg.sender",
          "_new": ": new ETH/USD rate in ETH per USD",
          "_old": ": old ETH/USD rate in ETH per USD"
        }
      },
      "ModifyTransactionMinimalValue(address,uint256,uint256)": {
        "details": "Event emitted when the transaction minimal value is changed",
        "params": {
          "_from": ": msg.sender",
          "_new": ": new transaction minimal value in USD",
          "_old": ": old transaction minimal value in USD"
        }
      },
      "ModifyWEI2USDConversionRate(address,uint256,uint256)": {
        "details": "Event emitted when the WEI to USD conversion rate is changed",
        "params": {
          "_from": ": msg.sender",
          "_new": ": new WEI to USD conversion rate in WEI",
          "_old": ": old WEI to USD conversion rate in WEI"
        }
      },
      "PayDealCreationFees(address,uint256,uint256)": {
        "details": "Event emitted when the deal creation fees are paid",
        "params": {
          "_dealId": ": Id of the created deal",
          "_fees": ": Fees paid by the user in ETH",
          "_from": ": msg.sender"
        }
      },
      "PayTransactionFees(address,uint256,uint256,uint256)": {
        "details": "Event emitted when the transaction fees are paid",
        "params": {
          "_dealId": ": Id of the executed deal ",
          "_fees": ": Fees paid by the user in ETH",
          "_from": ": msg.sender",
          "_ruleId": ": Id of the executed rule"
        }
      }
    },
    "kind": "dev",
    "methods": {
      "computeDealCreationFees(uint256,uint256)": {
        "details": "Computes the deal creation cost in ETH",
        "params": {
          "_accountsCount": "Number of external accounts defined in the deal",
          "_rulesCount": "Number of rules defined in the deal"
        },
        "returns": {
          "_0": "Deal creation cost in ETH"
        }
      },
      "constructor": {
        "details": "Constructor: Initialize storage variables",
        "params": {
          "_WEI2USDConversionRate": "Wei per USD conversion rate",
          "_accountCreationFees": "Creation fees per account in Wei ",
          "_allowAllAddressesFees": "Creation fees to allow incoming payments from all addresses",
          "_ruleCreationFees": "Creation fees per rule in Wei ",
          "_transactionFees": "Transaction fees paid to execute a rule in % of msg.value (1=1%)",
          "_transactionMinimalValue": "Minimal value to trigger a rule execution"
        }
      },
      "convertUSD2WEI(uint256)": {
        "details": "Converts an amount in USD to WEI",
        "params": {
          "_amountInUSD": "Amount in USD"
        },
        "returns": {
          "_0": "Converted amount in WEI"
        }
      },
      "convertWEI2USD(uint256)": {
        "details": "Converts an amount in WEI to USD",
        "params": {
          "_amountInWEI": "Amount in WEI"
        },
        "returns": {
          "_0": "Converted amount in USD"
        }
      },
      "createDeal(address[],(string,string,uint256,address)[][])": {
        "details": "Creates a deal and returns its id",
        "params": {
          "_accounts": "List of accounts addresses linked to the deal",
          "_rulesList": "List of the rules linked to the deal (rule = list of Articles)"
        },
        "returns": {
          "_0": "Id of the deal created"
        }
      },
      "executeRule(uint256,uint256)": {
        "details": "Execute a deal's rule",
        "params": {
          "_dealId": ": Id of the deal to execute",
          "_ruleId": ": Id of the rule to execute"
        }
      },
      "owner()": {
        "details": "Returns the address of the current owner."
      },
      "renounceOwnership()": {
        "details": "Leaves the contract without owner. It will not be possible to call `onlyOwner` functions anymore. Can only be called by the current owner. NOTE: Renouncing ownership will leave the contract without an owner, thereby removing any functionality that is only available to the owner."
      },
      "setAccountCreationFees(uint256)": {
        "details": "Sets the account creation fees to a new value",
        "params": {
          "_new": "New value for the account creation fees in USD"
        }
      },
      "setAllowAllAddressesFees(uint256)": {
        "details": "Sets the allow all addresses fees to a new value",
        "params": {
          "_new": "New value for the allow all addresses fees in USD"
        }
      },
      "setDealsContractRef(address)": {
        "details": "Sets the Deals contract reference to a new value",
        "params": {
          "_new": "New address of the Deals contract"
        }
      },
      "setInstructionsContractRef(address)": {
        "details": "Sets the Instructions contract reference to a new value",
        "params": {
          "_new": "New address of the Instructions contract"
        }
      },
      "setInterpreterContractRef(address)": {
        "details": "Sets the Interpreter contract reference to a new value",
        "params": {
          "_new": "New address of the Interpreter contract"
        }
      },
      "setRuleCreationFees(uint256)": {
        "details": "Sets the rule creation fees to a new value",
        "params": {
          "_new": "New value for the rule creation fees in USD"
        }
      },
      "setTransactionFees(uint256)": {
        "details": "Sets the transaction fees to a new value",
        "params": {
          "_new": "New value for the transaction fees in USD"
        }
      },
      "setTransactionMinimalValue(uint256)": {
        "details": "Sets the transaction minimal value to a new value",
        "params": {
          "_new": "New value for the transaction minimal value in USD"
        }
      },
      "setWEI2USDRate(uint256)": {
        "details": "Sets the WEI to USD conversion rate to a new value",
        "params": {
          "_new": "New value for the WEI to USD conversion rate in USD"
        }
      },
      "stringsEqual(string,string)": {
        "details": "Checks whether the strings are equal",
        "params": {
          "_s1": "First string to compare",
          "_s2": "Second string to compare"
        },
        "returns": {
          "_0": "Boolean indicating if the 2 strings are equal"
        }
      },
      "transferOwnership(address)": {
        "details": "Transfers ownership of the contract to a new account (`newOwner`). Can only be called by the current owner."
      }
    },
    "stateVariables": {
      "WEI2USDConversionRate": {
        "details": "USD/WEI rate"
      },
      "accountCreationFees": {
        "details": "Price per account added to the deal in USD"
      },
      "allowAllAddressesFees": {
        "details": "Price to allow incoming payments from all addresses others than internal/external accounts in USD"
      },
      "dealsContractRef": {
        "details": "Reference to the Deals contract"
      },
      "instructionsContractRef": {
        "details": "Reference to the Instructions contract"
      },
      "interpreterContractRef": {
        "details": "Reference to the Interpreter contract"
      },
      "ruleCreationFees": {
        "details": "Price per rule added to the deal in USD"
      },
      "transactionFees": {
        "details": "Transaction fees in % of the msg.value perceived on a deal execution in USD"
      },
      "transactionMinimalValue": {
        "details": "Minimal transaction value able to trigger an execution in USD"
      }
    },
    "title": "Proxy Contract",
    "version": 1
  },
  "userdoc": {
    "kind": "user",
    "methods": {},
    "notice": "lets-make-a-deal.eth allows you to make an agreement between different parties and automatically route ETH to different addresses based on simple rules.",
    "version": 1
  }
}