{
  "contractName": "Proxy",
  "abi": [
    {
      "inputs": [
        {
          "internalType": "uint256",
          "name": "_accountCreationFees",
          "type": "uint256"
        },
        {
          "internalType": "uint256",
          "name": "_ruleCreationFees",
          "type": "uint256"
        },
        {
          "internalType": "uint256",
          "name": "_allowAllAddressesFees",
          "type": "uint256"
        },
        {
          "internalType": "uint256",
          "name": "_transactionMinimalValue",
          "type": "uint256"
        },
        {
          "internalType": "uint256",
          "name": "_transactionFees",
          "type": "uint256"
        },
        {
          "internalType": "uint256",
          "name": "_lastQuotationValue",
          "type": "uint256"
        }
      ],
      "stateMutability": "nonpayable",
      "type": "constructor"
    },
    {
      "anonymous": false,
      "inputs": [
        {
          "indexed": false,
          "internalType": "address",
          "name": "_from",
          "type": "address"
        },
        {
          "indexed": false,
          "internalType": "uint256",
          "name": "_old",
          "type": "uint256"
        },
        {
          "indexed": false,
          "internalType": "uint256",
          "name": "_new",
          "type": "uint256"
        }
      ],
      "name": "ModifyAccountCreationFees",
      "type": "event"
    },
    {
      "anonymous": false,
      "inputs": [
        {
          "indexed": false,
          "internalType": "address",
          "name": "_from",
          "type": "address"
        },
        {
          "indexed": false,
          "internalType": "uint256",
          "name": "_old",
          "type": "uint256"
        },
        {
          "indexed": false,
          "internalType": "uint256",
          "name": "_new",
          "type": "uint256"
        }
      ],
      "name": "ModifyAllowAllAccountsFees",
      "type": "event"
    },
    {
      "anonymous": false,
      "inputs": [
        {
          "indexed": false,
          "internalType": "address",
          "name": "_from",
          "type": "address"
        },
        {
          "indexed": false,
          "internalType": "address",
          "name": "_old",
          "type": "address"
        },
        {
          "indexed": false,
          "internalType": "address",
          "name": "_new",
          "type": "address"
        }
      ],
      "name": "ModifyDealsContractAddress",
      "type": "event"
    },
    {
      "anonymous": false,
      "inputs": [
        {
          "indexed": false,
          "internalType": "address",
          "name": "_from",
          "type": "address"
        },
        {
          "indexed": false,
          "internalType": "address",
          "name": "_old",
          "type": "address"
        },
        {
          "indexed": false,
          "internalType": "address",
          "name": "_new",
          "type": "address"
        }
      ],
      "name": "ModifyInstructionsContractAddress",
      "type": "event"
    },
    {
      "anonymous": false,
      "inputs": [
        {
          "indexed": false,
          "internalType": "address",
          "name": "_from",
          "type": "address"
        },
        {
          "indexed": false,
          "internalType": "address",
          "name": "_old",
          "type": "address"
        },
        {
          "indexed": false,
          "internalType": "address",
          "name": "_new",
          "type": "address"
        }
      ],
      "name": "ModifyInstructionsProviderContractAddress",
      "type": "event"
    },
    {
      "anonymous": false,
      "inputs": [
        {
          "indexed": false,
          "internalType": "address",
          "name": "_from",
          "type": "address"
        },
        {
          "indexed": false,
          "internalType": "address",
          "name": "_old",
          "type": "address"
        },
        {
          "indexed": false,
          "internalType": "address",
          "name": "_new",
          "type": "address"
        }
      ],
      "name": "ModifyInterpreterContractAddress",
      "type": "event"
    },
    {
      "anonymous": false,
      "inputs": [
        {
          "indexed": false,
          "internalType": "address",
          "name": "_from",
          "type": "address"
        },
        {
          "indexed": false,
          "internalType": "address",
          "name": "_old",
          "type": "address"
        },
        {
          "indexed": false,
          "internalType": "address",
          "name": "_new",
          "type": "address"
        }
      ],
      "name": "ModifyPriceFeedRefAggregatorAddress",
      "type": "event"
    },
    {
      "anonymous": false,
      "inputs": [
        {
          "indexed": false,
          "internalType": "address",
          "name": "_from",
          "type": "address"
        },
        {
          "indexed": false,
          "internalType": "uint256",
          "name": "_old",
          "type": "uint256"
        },
        {
          "indexed": false,
          "internalType": "uint256",
          "name": "_new",
          "type": "uint256"
        }
      ],
      "name": "ModifyRuleCreationFees",
      "type": "event"
    },
    {
      "anonymous": false,
      "inputs": [
        {
          "indexed": false,
          "internalType": "address",
          "name": "_from",
          "type": "address"
        },
        {
          "indexed": false,
          "internalType": "uint256",
          "name": "_old",
          "type": "uint256"
        },
        {
          "indexed": false,
          "internalType": "uint256",
          "name": "_new",
          "type": "uint256"
        }
      ],
      "name": "ModifyTransactionFees",
      "type": "event"
    },
    {
      "anonymous": false,
      "inputs": [
        {
          "indexed": false,
          "internalType": "address",
          "name": "_from",
          "type": "address"
        },
        {
          "indexed": false,
          "internalType": "uint256",
          "name": "_old",
          "type": "uint256"
        },
        {
          "indexed": false,
          "internalType": "uint256",
          "name": "_new",
          "type": "uint256"
        }
      ],
      "name": "ModifyTransactionMinimalValue",
      "type": "event"
    },
    {
      "anonymous": false,
      "inputs": [
        {
          "indexed": true,
          "internalType": "address",
          "name": "previousOwner",
          "type": "address"
        },
        {
          "indexed": true,
          "internalType": "address",
          "name": "newOwner",
          "type": "address"
        }
      ],
      "name": "OwnershipTransferred",
      "type": "event"
    },
    {
      "anonymous": false,
      "inputs": [
        {
          "indexed": false,
          "internalType": "address",
          "name": "account",
          "type": "address"
        }
      ],
      "name": "Paused",
      "type": "event"
    },
    {
      "anonymous": false,
      "inputs": [
        {
          "indexed": false,
          "internalType": "address",
          "name": "_from",
          "type": "address"
        },
        {
          "indexed": false,
          "internalType": "uint256",
          "name": "_dealId",
          "type": "uint256"
        },
        {
          "indexed": false,
          "internalType": "uint256",
          "name": "_fees",
          "type": "uint256"
        }
      ],
      "name": "PayDealCreationFees",
      "type": "event"
    },
    {
      "anonymous": false,
      "inputs": [
        {
          "indexed": false,
          "internalType": "address",
          "name": "_from",
          "type": "address"
        },
        {
          "indexed": false,
          "internalType": "uint256",
          "name": "_dealId",
          "type": "uint256"
        },
        {
          "indexed": false,
          "internalType": "uint256",
          "name": "_ruleId",
          "type": "uint256"
        },
        {
          "indexed": false,
          "internalType": "uint256",
          "name": "_fees",
          "type": "uint256"
        }
      ],
      "name": "PayTransactionFees",
      "type": "event"
    },
    {
      "anonymous": false,
      "inputs": [
        {
          "indexed": false,
          "internalType": "address",
          "name": "_from",
          "type": "address"
        },
        {
          "indexed": false,
          "internalType": "uint256",
          "name": "_value",
          "type": "uint256"
        },
        {
          "indexed": false,
          "internalType": "uint256",
          "name": "_timestamp",
          "type": "uint256"
        }
      ],
      "name": "QueryLastQuotationFromChainlink",
      "type": "event"
    },
    {
      "anonymous": false,
      "inputs": [
        {
          "indexed": false,
          "internalType": "address",
          "name": "_to",
          "type": "address"
        },
        {
          "indexed": false,
          "internalType": "uint256",
          "name": "_dealId",
          "type": "uint256"
        },
        {
          "indexed": false,
          "internalType": "uint256",
          "name": "_amount",
          "type": "uint256"
        }
      ],
      "name": "ReimburseExcessValue",
      "type": "event"
    },
    {
      "anonymous": false,
      "inputs": [
        {
          "indexed": false,
          "internalType": "address",
          "name": "account",
          "type": "address"
        }
      ],
      "name": "Unpaused",
      "type": "event"
    },
    {
      "inputs": [],
      "name": "accountCreationFees",
      "outputs": [
        {
          "internalType": "uint256",
          "name": "",
          "type": "uint256"
        }
      ],
      "stateMutability": "view",
      "type": "function",
      "constant": true
    },
    {
      "inputs": [],
      "name": "allowAllAddressesFees",
      "outputs": [
        {
          "internalType": "uint256",
          "name": "",
          "type": "uint256"
        }
      ],
      "stateMutability": "view",
      "type": "function",
      "constant": true
    },
    {
      "inputs": [],
      "name": "dealsContractRef",
      "outputs": [
        {
          "internalType": "contract Deals",
          "name": "",
          "type": "address"
        }
      ],
      "stateMutability": "view",
      "type": "function",
      "constant": true
    },
    {
      "inputs": [],
      "name": "instructionsContractRef",
      "outputs": [
        {
          "internalType": "contract Instructions",
          "name": "",
          "type": "address"
        }
      ],
      "stateMutability": "view",
      "type": "function",
      "constant": true
    },
    {
      "inputs": [],
      "name": "instructionsProviderContractRef",
      "outputs": [
        {
          "internalType": "address",
          "name": "",
          "type": "address"
        }
      ],
      "stateMutability": "view",
      "type": "function",
      "constant": true
    },
    {
      "inputs": [],
      "name": "interpreterContractRef",
      "outputs": [
        {
          "internalType": "address",
          "name": "",
          "type": "address"
        }
      ],
      "stateMutability": "view",
      "type": "function",
      "constant": true
    },
    {
      "inputs": [],
      "name": "lastQuotationTimestamp",
      "outputs": [
        {
          "internalType": "uint256",
          "name": "",
          "type": "uint256"
        }
      ],
      "stateMutability": "view",
      "type": "function",
      "constant": true
    },
    {
      "inputs": [],
      "name": "lastQuotationValue",
      "outputs": [
        {
          "internalType": "uint256",
          "name": "",
          "type": "uint256"
        }
      ],
      "stateMutability": "view",
      "type": "function",
      "constant": true
    },
    {
      "inputs": [],
      "name": "owner",
      "outputs": [
        {
          "internalType": "address",
          "name": "",
          "type": "address"
        }
      ],
      "stateMutability": "view",
      "type": "function",
      "constant": true
    },
    {
      "inputs": [],
      "name": "paused",
      "outputs": [
        {
          "internalType": "bool",
          "name": "",
          "type": "bool"
        }
      ],
      "stateMutability": "view",
      "type": "function",
      "constant": true
    },
    {
      "inputs": [],
      "name": "priceFeedRef",
      "outputs": [
        {
          "internalType": "contract AggregatorV3Interface",
          "name": "",
          "type": "address"
        }
      ],
      "stateMutability": "view",
      "type": "function",
      "constant": true
    },
    {
      "inputs": [],
      "name": "ruleCreationFees",
      "outputs": [
        {
          "internalType": "uint256",
          "name": "",
          "type": "uint256"
        }
      ],
      "stateMutability": "view",
      "type": "function",
      "constant": true
    },
    {
      "inputs": [],
      "name": "transactionFees",
      "outputs": [
        {
          "internalType": "uint256",
          "name": "",
          "type": "uint256"
        }
      ],
      "stateMutability": "view",
      "type": "function",
      "constant": true
    },
    {
      "inputs": [],
      "name": "transactionMinimalValue",
      "outputs": [
        {
          "internalType": "uint256",
          "name": "",
          "type": "uint256"
        }
      ],
      "stateMutability": "view",
      "type": "function",
      "constant": true
    },
    {
      "inputs": [
        {
          "internalType": "address",
          "name": "newOwner",
          "type": "address"
        }
      ],
      "name": "transferOwnership",
      "outputs": [],
      "stateMutability": "nonpayable",
      "type": "function"
    },
    {
      "inputs": [
        {
          "internalType": "address",
          "name": "_new",
          "type": "address"
        }
      ],
      "name": "setPriceFeedRefAggregatorAddress",
      "outputs": [],
      "stateMutability": "nonpayable",
      "type": "function"
    },
    {
      "inputs": [
        {
          "internalType": "address",
          "name": "_new",
          "type": "address"
        }
      ],
      "name": "setInstructionsContractRef",
      "outputs": [],
      "stateMutability": "nonpayable",
      "type": "function"
    },
    {
      "inputs": [
        {
          "internalType": "address",
          "name": "_new",
          "type": "address"
        }
      ],
      "name": "setInstructionsProviderContractRef",
      "outputs": [],
      "stateMutability": "nonpayable",
      "type": "function"
    },
    {
      "inputs": [
        {
          "internalType": "address",
          "name": "_new",
          "type": "address"
        }
      ],
      "name": "setDealsContractRef",
      "outputs": [],
      "stateMutability": "nonpayable",
      "type": "function"
    },
    {
      "inputs": [
        {
          "internalType": "address",
          "name": "_new",
          "type": "address"
        }
      ],
      "name": "setInterpreterContractRef",
      "outputs": [],
      "stateMutability": "nonpayable",
      "type": "function"
    },
    {
      "inputs": [
        {
          "internalType": "uint256",
          "name": "_new",
          "type": "uint256"
        }
      ],
      "name": "setAccountCreationFees",
      "outputs": [],
      "stateMutability": "nonpayable",
      "type": "function"
    },
    {
      "inputs": [
        {
          "internalType": "uint256",
          "name": "_new",
          "type": "uint256"
        }
      ],
      "name": "setRuleCreationFees",
      "outputs": [],
      "stateMutability": "nonpayable",
      "type": "function"
    },
    {
      "inputs": [
        {
          "internalType": "uint256",
          "name": "_new",
          "type": "uint256"
        }
      ],
      "name": "setAllowAllAddressesFees",
      "outputs": [],
      "stateMutability": "nonpayable",
      "type": "function"
    },
    {
      "inputs": [
        {
          "internalType": "uint256",
          "name": "_new",
          "type": "uint256"
        }
      ],
      "name": "setTransactionMinimalValue",
      "outputs": [],
      "stateMutability": "nonpayable",
      "type": "function"
    },
    {
      "inputs": [
        {
          "internalType": "uint256",
          "name": "_new",
          "type": "uint256"
        }
      ],
      "name": "setTransactionFees",
      "outputs": [],
      "stateMutability": "nonpayable",
      "type": "function"
    },
    {
      "inputs": [
        {
          "internalType": "address[]",
          "name": "_accounts",
          "type": "address[]"
        },
        {
          "components": [
            {
              "internalType": "string",
              "name": "instructionName",
              "type": "string"
            },
            {
              "internalType": "string",
              "name": "paramStr",
              "type": "string"
            },
            {
              "internalType": "uint256",
              "name": "paramUInt",
              "type": "uint256"
            },
            {
              "internalType": "address",
              "name": "paramAddress",
              "type": "address"
            }
          ],
          "internalType": "struct CommonStructs.Article[][]",
          "name": "_rulesList",
          "type": "tuple[][]"
        }
      ],
      "name": "createDeal",
      "outputs": [
        {
          "internalType": "uint256",
          "name": "",
          "type": "uint256"
        }
      ],
      "stateMutability": "payable",
      "type": "function",
      "payable": true
    },
    {
      "inputs": [
        {
          "internalType": "uint256",
          "name": "_dealId",
          "type": "uint256"
        },
        {
          "internalType": "uint256",
          "name": "_ruleId",
          "type": "uint256"
        }
      ],
      "name": "executeRule",
      "outputs": [],
      "stateMutability": "payable",
      "type": "function",
      "payable": true
    },
    {
      "inputs": [],
      "name": "withdraw",
      "outputs": [],
      "stateMutability": "nonpayable",
      "type": "function"
    },
    {
      "inputs": [],
      "name": "getContractBalance",
      "outputs": [
        {
          "internalType": "uint256",
          "name": "",
          "type": "uint256"
        }
      ],
      "stateMutability": "view",
      "type": "function",
      "constant": true
    },
    {
      "inputs": [],
      "name": "harvest",
      "outputs": [],
      "stateMutability": "payable",
      "type": "function",
      "payable": true
    },
    {
      "inputs": [],
      "name": "saveLatestQuotation",
      "outputs": [],
      "stateMutability": "nonpayable",
      "type": "function"
    },
    {
      "inputs": [],
      "name": "getLatestQuotation",
      "outputs": [
        {
          "internalType": "uint256",
          "name": "",
          "type": "uint256"
        },
        {
          "internalType": "uint256",
          "name": "",
          "type": "uint256"
        }
      ],
      "stateMutability": "view",
      "type": "function",
      "constant": true
    },
    {
      "inputs": [
        {
          "internalType": "uint256",
          "name": "_accountsCount",
          "type": "uint256"
        },
        {
          "internalType": "uint256",
          "name": "_rulesCount",
          "type": "uint256"
        }
      ],
      "name": "computeDealCreationFeesInWEI",
      "outputs": [
        {
          "internalType": "uint256",
          "name": "",
          "type": "uint256"
        }
      ],
      "stateMutability": "view",
      "type": "function",
      "constant": true
    },
    {
      "inputs": [
        {
          "internalType": "uint256",
          "name": "_amountInWEI",
          "type": "uint256"
        }
      ],
      "name": "convertWEI2USD",
      "outputs": [
        {
          "internalType": "uint256",
          "name": "",
          "type": "uint256"
        }
      ],
      "stateMutability": "view",
      "type": "function",
      "constant": true
    },
    {
      "inputs": [
        {
          "internalType": "uint256",
          "name": "_amountInUSD",
          "type": "uint256"
        }
      ],
      "name": "convertUSD2WEI",
      "outputs": [
        {
          "internalType": "uint256",
          "name": "",
          "type": "uint256"
        }
      ],
      "stateMutability": "view",
      "type": "function",
      "constant": true
    },
    {
      "inputs": [
        {
          "internalType": "string",
          "name": "_s1",
          "type": "string"
        },
        {
          "internalType": "string",
          "name": "_s2",
          "type": "string"
        }
      ],
      "name": "stringsEqual",
      "outputs": [
        {
          "internalType": "bool",
          "name": "",
          "type": "bool"
        }
      ],
      "stateMutability": "pure",
      "type": "function",
      "constant": true
    },
    {
      "inputs": [],
      "name": "pause",
      "outputs": [],
      "stateMutability": "nonpayable",
      "type": "function"
    },
    {
      "inputs": [],
      "name": "unpause",
      "outputs": [],
      "stateMutability": "nonpayable",
      "type": "function"
    },
    {
      "inputs": [],
      "name": "renounceOwnership",
      "outputs": [],
      "stateMutability": "pure",
      "type": "function",
      "constant": true
    }
  ],
  "bytecode": "0x60806040523480156200001157600080fd5b506040516200400b3803806200400b8339818101604052810190620000379190620001b3565b620000576200004b620000a760201b60201c565b620000af60201b60201c565b60008060146101000a81548160ff021916908315150217905550856008819055508460098190555083600a8190555082600b8190555081600c81905550806002819055505050505050506200024f565b600033905090565b60008060009054906101000a900473ffffffffffffffffffffffffffffffffffffffff169050816000806101000a81548173ffffffffffffffffffffffffffffffffffffffff021916908373ffffffffffffffffffffffffffffffffffffffff1602179055508173ffffffffffffffffffffffffffffffffffffffff168173ffffffffffffffffffffffffffffffffffffffff167f8be0079c531659141344cd1fd0a4f28419497f9722a3daafe3b4186f6b6457e060405160405180910390a35050565b600080fd5b6000819050919050565b6200018d8162000178565b81146200019957600080fd5b50565b600081519050620001ad8162000182565b92915050565b60008060008060008060c08789031215620001d357620001d262000173565b5b6000620001e389828a016200019c565b9650506020620001f689828a016200019c565b95505060406200020989828a016200019c565b94505060606200021c89828a016200019c565b93505060806200022f89828a016200019c565b92505060a06200024289828a016200019c565b9150509295509295509295565b613dac806200025f6000396000f3fe6080604052600436106102305760003560e01c80636b18c1ca1161012e578063b37be8e4116100ab578063f2fde38b1161006f578063f2fde38b1461077a578063f42a4f79146107a3578063f7f9e1e8146107e0578063f8210b3a1461080b578063fc51821c1461083657610230565b8063b37be8e414610695578063b50f34da146106c0578063d74b47ef146106e9578063e65fcc7314610712578063ec2035c31461073d57610230565b80638d249545116100f25780638d249545146105cf5780638da5cb5b146105fa57806396b6dc7d146106255780639efe46bc14610641578063a2ae0cd21461066c57610230565b80636b18c1ca146105225780636c79eafc1461054b5780636f9fb98a14610576578063715018a6146105a15780638456cb59146105b857610230565b80633f4ba83a116101bc5780634e02b0b3116101805780634e02b0b31461046157806351bcde621461048a578063562b7d94146104a15780635c975abb146104cc578063652522f5146104f757610230565b80633f4ba83a146103c35780634368080b146103da57806343d16ecd14610403578063446f772f1461042e5780634641257d1461045757610230565b806326698e751161020357806326698e75146103035780632a16348c1461032c5780633987c9b21461035557806339a6dcc3146103815780633ccfd60b146103ac57610230565b8063028a84be14610235578063042c27ea1461026057806313d199501461029d5780632131d8c3146102da575b600080fd5b34801561024157600080fd5b5061024a610866565b6040516102579190612663565b60405180910390f35b34801561026c57600080fd5b50610287600480360381019061028291906126be565b61086c565b6040516102949190612663565b60405180910390f35b3480156102a957600080fd5b506102c460048036038101906102bf9190612831565b610883565b6040516102d191906128c4565b60405180910390f35b3480156102e657600080fd5b5061030160048036038101906102fc919061293d565b61089e565b005b34801561030f57600080fd5b5061032a600480360381019061032591906126be565b610a08565b005b34801561033857600080fd5b50610353600480360381019061034e91906126be565b610b18565b005b34801561036157600080fd5b5061036a610c28565b60405161037892919061296a565b60405180910390f35b34801561038d57600080fd5b50610396610c39565b6040516103a39190612663565b60405180910390f35b3480156103b857600080fd5b506103c1610c3f565b005b3480156103cf57600080fd5b506103d8610de6565b005b3480156103e657600080fd5b5061040160048036038101906103fc919061293d565b610eb3565b005b34801561040f57600080fd5b5061041861101d565b6040516104259190612663565b60405180910390f35b34801561043a57600080fd5b506104556004803603810190610450919061293d565b611023565b005b61045f61118d565b005b34801561046d57600080fd5b506104886004803603810190610483919061293d565b611262565b005b34801561049657600080fd5b5061049f6113cc565b005b3480156104ad57600080fd5b506104b6611557565b6040516104c391906129f2565b60405180910390f35b3480156104d857600080fd5b506104e161157d565b6040516104ee91906128c4565b60405180910390f35b34801561050357600080fd5b5061050c611593565b6040516105199190612663565b60405180910390f35b34801561052e57600080fd5b50610549600480360381019061054491906126be565b611599565b005b34801561055757600080fd5b506105606116a9565b60405161056d9190612a1c565b60405180910390f35b34801561058257600080fd5b5061058b6116cf565b6040516105989190612663565b60405180910390f35b3480156105ad57600080fd5b506105b6611753565b005b3480156105c457600080fd5b506105cd61178e565b005b3480156105db57600080fd5b506105e461185c565b6040516105f19190612663565b60405180910390f35b34801561060657600080fd5b5061060f611862565b60405161061c9190612a1c565b60405180910390f35b61063f600480360381019061063a9190612a37565b61188b565b005b34801561064d57600080fd5b50610656611af3565b6040516106639190612663565b60405180910390f35b34801561067857600080fd5b50610693600480360381019061068e91906126be565b611af9565b005b3480156106a157600080fd5b506106aa611c09565b6040516106b79190612663565b60405180910390f35b3480156106cc57600080fd5b506106e760048036038101906106e291906126be565b611c0f565b005b3480156106f557600080fd5b50610710600480360381019061070b919061293d565b611d1f565b005b34801561071e57600080fd5b50610727611e42565b6040516107349190612a1c565b60405180910390f35b34801561074957600080fd5b50610764600480360381019061075f9190612a37565b611e68565b6040516107719190612663565b60405180910390f35b34801561078657600080fd5b506107a1600480360381019061079c919061293d565b611ea5565b005b3480156107af57600080fd5b506107ca60048036038101906107c591906126be565b611f9d565b6040516107d79190612663565b60405180910390f35b3480156107ec57600080fd5b506107f5611fb4565b6040516108029190612a98565b60405180910390f35b34801561081757600080fd5b50610820611fda565b60405161082d9190612ad4565b60405180910390f35b610850600480360381019061084b9190612e33565b612000565b60405161085d9190612663565b60405180910390f35b60085481565b60006002548261087c9190612eda565b9050919050565b60008180519060200120838051906020012014905092915050565b6108a661243a565b73ffffffffffffffffffffffffffffffffffffffff166108c4611862565b73ffffffffffffffffffffffffffffffffffffffff161461091a576040517f08c379a000000000000000000000000000000000000000000000000000000000815260040161091190612f91565b60405180910390fd5b61092261157d565b610961576040517f08c379a000000000000000000000000000000000000000000000000000000000815260040161095890612ffd565b60405180910390fd5b6000600760009054906101000a900473ffffffffffffffffffffffffffffffffffffffff16905081600760006101000a81548173ffffffffffffffffffffffffffffffffffffffff021916908373ffffffffffffffffffffffffffffffffffffffff1602179055507f81ed796ae91ccecf245e3cb1b6149b3491e1f0989e603b5d1b388bd68f06b52b3382846040516109fc9392919061301d565b60405180910390a15050565b610a1061243a565b73ffffffffffffffffffffffffffffffffffffffff16610a2e611862565b73ffffffffffffffffffffffffffffffffffffffff1614610a84576040517f08c379a0000000000000000000000000000000000000000000000000000000008152600401610a7b90612f91565b60405180910390fd5b610a8c61157d565b610acb576040517f08c379a0000000000000000000000000000000000000000000000000000000008152600401610ac290612ffd565b60405180910390fd5b60006009549050816009819055507f95204251d165fe2245c1dceb4c89885d7b8cfdb88aa079c9428ef4e12df3b0ac338284604051610b0c93929190613054565b60405180910390a15050565b610b2061243a565b73ffffffffffffffffffffffffffffffffffffffff16610b3e611862565b73ffffffffffffffffffffffffffffffffffffffff1614610b94576040517f08c379a0000000000000000000000000000000000000000000000000000000008152600401610b8b90612f91565b60405180910390fd5b610b9c61157d565b610bdb576040517f08c379a0000000000000000000000000000000000000000000000000000000008152600401610bd290612ffd565b60405180910390fd5b6000600b54905081600b819055507f9fd5b1fe2d0c3437bd798e95b2f63bd4a3b08887c95a04d22832ccb4aae9fda4338284604051610c1c93929190613054565b60405180910390a15050565b600080600254600354915091509091565b60025481565b610c4761157d565b15610c87576040517f08c379a0000000000000000000000000000000000000000000000000000000008152600401610c7e906130d7565b60405180910390fd5b6000600560009054906101000a900473ffffffffffffffffffffffffffffffffffffffff1673ffffffffffffffffffffffffffffffffffffffff1633604051602401610cd39190612a1c565b6040516020818303038152906040527f51cff8d9000000000000000000000000000000000000000000000000000000007bffffffffffffffffffffffffffffffffffffffffffffffffffffffff19166020820180517bffffffffffffffffffffffffffffffffffffffffffffffffffffffff8381831617835250505050604051610d5d9190613171565b6000604051808303816000865af19150503d8060008114610d9a576040519150601f19603f3d011682016040523d82523d6000602084013e610d9f565b606091505b5050905080610de3576040517f08c379a0000000000000000000000000000000000000000000000000000000008152600401610dda906131fa565b60405180910390fd5b50565b610dee61243a565b73ffffffffffffffffffffffffffffffffffffffff16610e0c611862565b73ffffffffffffffffffffffffffffffffffffffff1614610e62576040517f08c379a0000000000000000000000000000000000000000000000000000000008152600401610e5990612f91565b60405180910390fd5b610e6a61157d565b610ea9576040517f08c379a0000000000000000000000000000000000000000000000000000000008152600401610ea090612ffd565b60405180910390fd5b610eb1612442565b565b610ebb61243a565b73ffffffffffffffffffffffffffffffffffffffff16610ed9611862565b73ffffffffffffffffffffffffffffffffffffffff1614610f2f576040517f08c379a0000000000000000000000000000000000000000000000000000000008152600401610f2690612f91565b60405180910390fd5b610f3761157d565b610f76576040517f08c379a0000000000000000000000000000000000000000000000000000000008152600401610f6d90612ffd565b60405180910390fd5b6000600460009054906101000a900473ffffffffffffffffffffffffffffffffffffffff16905081600460006101000a81548173ffffffffffffffffffffffffffffffffffffffff021916908373ffffffffffffffffffffffffffffffffffffffff1602179055507f7a98528f6374afdc782de68dfe485f60c47c83eb22d862896ee7c59a13c6d8993382846040516110119392919061301d565b60405180910390a15050565b60035481565b61102b61243a565b73ffffffffffffffffffffffffffffffffffffffff16611049611862565b73ffffffffffffffffffffffffffffffffffffffff161461109f576040517f08c379a000000000000000000000000000000000000000000000000000000000815260040161109690612f91565b60405180910390fd5b6110a761157d565b6110e6576040517f08c379a00000000000000000000000000000000000000000000000000000000081526004016110dd90612ffd565b60405180910390fd5b6000600560009054906101000a900473ffffffffffffffffffffffffffffffffffffffff16905081600560006101000a81548173ffffffffffffffffffffffffffffffffffffffff021916908373ffffffffffffffffffffffffffffffffffffffff1602179055507fdb667aada5a9918e51ab4a84bdf8d3e2f29386d98b52ae66cb26eaa442bbf9683382846040516111819392919061301d565b60405180910390a15050565b61119561243a565b73ffffffffffffffffffffffffffffffffffffffff166111b3611862565b73ffffffffffffffffffffffffffffffffffffffff1614611209576040517f08c379a000000000000000000000000000000000000000000000000000000000815260040161120090612f91565b60405180910390fd5b6000479050600081111561125f573373ffffffffffffffffffffffffffffffffffffffff166108fc829081150290604051600060405180830381858888f1935050505015801561125d573d6000803e3d6000fd5b505b50565b61126a61243a565b73ffffffffffffffffffffffffffffffffffffffff16611288611862565b73ffffffffffffffffffffffffffffffffffffffff16146112de576040517f08c379a00000000000000000000000000000000000000000000000000000000081526004016112d590612f91565b60405180910390fd5b6112e661157d565b611325576040517f08c379a000000000000000000000000000000000000000000000000000000000815260040161131c90612ffd565b60405180910390fd5b6000600660009054906101000a900473ffffffffffffffffffffffffffffffffffffffff16905081600660006101000a81548173ffffffffffffffffffffffffffffffffffffffff021916908373ffffffffffffffffffffffffffffffffffffffff1602179055507fef88ef88851c867cbde2a8d8f43f01b9b75342fb93a2a7034ea0d656dbe137823382846040516113c09392919061301d565b60405180910390a15050565b6113d461243a565b73ffffffffffffffffffffffffffffffffffffffff166113f2611862565b73ffffffffffffffffffffffffffffffffffffffff1614611448576040517f08c379a000000000000000000000000000000000000000000000000000000000815260040161143f90612f91565b60405180910390fd5b600080600160009054906101000a900473ffffffffffffffffffffffffffffffffffffffff1673ffffffffffffffffffffffffffffffffffffffff1663feaf968c6040518163ffffffff1660e01b815260040160a06040518083038186803b1580156114b357600080fd5b505afa1580156114c7573d6000803e3d6000fd5b505050506040513d601f19601f820116820180604052508101906114eb91906132a7565b50935050925050816a52b7d2dcc80cd2e40000006115099190613351565b600281905550806003819055507f5b351a1cfe437f1ffd3264dd6e306788df85c7a71e50aa62b1b0a42fae257abd336002548360405161154b93929190613054565b60405180910390a15050565b600460009054906101000a900473ffffffffffffffffffffffffffffffffffffffff1681565b60008060149054906101000a900460ff16905090565b60095481565b6115a161243a565b73ffffffffffffffffffffffffffffffffffffffff166115bf611862565b73ffffffffffffffffffffffffffffffffffffffff1614611615576040517f08c379a000000000000000000000000000000000000000000000000000000000815260040161160c90612f91565b60405180910390fd5b61161d61157d565b61165c576040517f08c379a000000000000000000000000000000000000000000000000000000000815260040161165390612ffd565b60405180910390fd5b60006008549050816008819055507f20cb277045b07975ddd69579bb7c5703b15359a94bc8b635d4a17c243c8a65ac33828460405161169d93929190613054565b60405180910390a15050565b600760009054906101000a900473ffffffffffffffffffffffffffffffffffffffff1681565b60006116d961243a565b73ffffffffffffffffffffffffffffffffffffffff166116f7611862565b73ffffffffffffffffffffffffffffffffffffffff161461174d576040517f08c379a000000000000000000000000000000000000000000000000000000000815260040161174490612f91565b60405180910390fd5b47905090565b6040517f08c379a0000000000000000000000000000000000000000000000000000000008152600401611785906133ce565b60405180910390fd5b61179661243a565b73ffffffffffffffffffffffffffffffffffffffff166117b4611862565b73ffffffffffffffffffffffffffffffffffffffff161461180a576040517f08c379a000000000000000000000000000000000000000000000000000000000815260040161180190612f91565b60405180910390fd5b61181261157d565b15611852576040517f08c379a0000000000000000000000000000000000000000000000000000000008152600401611849906130d7565b60405180910390fd5b61185a6124e3565b565b600a5481565b60008060009054906101000a900473ffffffffffffffffffffffffffffffffffffffff16905090565b61189361157d565b156118d3576040517f08c379a00000000000000000000000000000000000000000000000000000000081526004016118ca906130d7565b60405180910390fd5b60006118de34611f9d565b9050600b54811015611925576040517f08c379a000000000000000000000000000000000000000000000000000000000815260040161191c90613460565b60405180910390fd5b6000600c546064346119379190613351565b6119419190612eda565b90506000600760009054906101000a900473ffffffffffffffffffffffffffffffffffffffff1673ffffffffffffffffffffffffffffffffffffffff16823461198a9190613480565b33878760405160240161199f93929190613054565b6040516020818303038152906040527f889f7d85000000000000000000000000000000000000000000000000000000007bffffffffffffffffffffffffffffffffffffffffffffffffffffffff19166020820180517bffffffffffffffffffffffffffffffffffffffffffffffffffffffff8381831617835250505050604051611a299190613171565b60006040518083038185875af1925050503d8060008114611a66576040519150601f19603f3d011682016040523d82523d6000602084013e611a6b565b606091505b5050905080611aaf576040517f08c379a0000000000000000000000000000000000000000000000000000000008152600401611aa690613500565b60405180910390fd5b7ffa46e5ec587216687a4a33c4e605f1483f16833be6465e442d80d7bcbaec2eaf33868685604051611ae49493929190613520565b60405180910390a15050505050565b600b5481565b611b0161243a565b73ffffffffffffffffffffffffffffffffffffffff16611b1f611862565b73ffffffffffffffffffffffffffffffffffffffff1614611b75576040517f08c379a0000000000000000000000000000000000000000000000000000000008152600401611b6c90612f91565b60405180910390fd5b611b7d61157d565b611bbc576040517f08c379a0000000000000000000000000000000000000000000000000000000008152600401611bb390612ffd565b60405180910390fd5b6000600c54905081600c819055507f93dcb4d14ff2c7a93d0076d4d9fbf19c189f2de91a9ba7d79bb80115fe7a852d338284604051611bfd93929190613054565b60405180910390a15050565b600c5481565b611c1761243a565b73ffffffffffffffffffffffffffffffffffffffff16611c35611862565b73ffffffffffffffffffffffffffffffffffffffff1614611c8b576040517f08c379a0000000000000000000000000000000000000000000000000000000008152600401611c8290612f91565b60405180910390fd5b611c9361157d565b611cd2576040517f08c379a0000000000000000000000000000000000000000000000000000000008152600401611cc990612ffd565b60405180910390fd5b6000600a54905081600a819055507fd1a0f1c3e15bbeb47f950c6fd7572c460678919e9d839966bf073b487365e4bb338284604051611d1393929190613054565b60405180910390a15050565b611d2761243a565b73ffffffffffffffffffffffffffffffffffffffff16611d45611862565b73ffffffffffffffffffffffffffffffffffffffff1614611d9b576040517f08c379a0000000000000000000000000000000000000000000000000000000008152600401611d9290612f91565b60405180910390fd5b6000600160009054906101000a900473ffffffffffffffffffffffffffffffffffffffff16905081600160006101000a81548173ffffffffffffffffffffffffffffffffffffffff021916908373ffffffffffffffffffffffffffffffffffffffff1602179055507fb9515b0e9bbaa4038b7497d737691b38d19b454e0bcdc0ecc69472117684e192338284604051611e369392919061301d565b60405180910390a15050565b600560009054906101000a900473ffffffffffffffffffffffffffffffffffffffff1681565b600060025460095483611e7b9190612eda565b60085485611e899190612eda565b611e939190613565565b611e9d9190612eda565b905092915050565b611ead61243a565b73ffffffffffffffffffffffffffffffffffffffff16611ecb611862565b73ffffffffffffffffffffffffffffffffffffffff1614611f21576040517f08c379a0000000000000000000000000000000000000000000000000000000008152600401611f1890612f91565b60405180910390fd5b600073ffffffffffffffffffffffffffffffffffffffff168173ffffffffffffffffffffffffffffffffffffffff161415611f91576040517f08c379a0000000000000000000000000000000000000000000000000000000008152600401611f889061362d565b60405180910390fd5b611f9a81612586565b50565b600060025482611fad9190613351565b9050919050565b600160009054906101000a900473ffffffffffffffffffffffffffffffffffffffff1681565b600660009054906101000a900473ffffffffffffffffffffffffffffffffffffffff1681565b600061200a61157d565b1561204a576040517f08c379a0000000000000000000000000000000000000000000000000000000008152600401612041906130d7565b60405180910390fd5b600061205884518451611e68565b90508034101561209d576040517f08c379a0000000000000000000000000000000000000000000000000000000008152600401612094906136bf565b60405180910390fd5b60005b835181101561223d5760005b8482815181106120bf576120be6136df565b5b602002602001015151811015612229576000600460009054906101000a900473ffffffffffffffffffffffffffffffffffffffff1673ffffffffffffffffffffffffffffffffffffffff166399b87f6c878581518110612122576121216136df565b5b6020026020010151848151811061213c5761213b6136df565b5b6020026020010151600001516040518263ffffffff1660e01b81526004016121649190613752565b60006040518083038186803b15801561217c57600080fd5b505afa158015612190573d6000803e3d6000fd5b505050506040513d6000823e3d601f19601f820116820180604052508101906121b99190613809565b9150506121d58160405180602001604052806000815250610883565b15612215576040517f08c379a000000000000000000000000000000000000000000000000000000000815260040161220c906138d7565b60405180910390fd5b508080612221906138f7565b9150506120ac565b508080612235906138f7565b9150506120a0565b506000600660009054906101000a900473ffffffffffffffffffffffffffffffffffffffff1673ffffffffffffffffffffffffffffffffffffffff1663fc51821c86866040518363ffffffff1660e01b815260040161229d929190613c45565b602060405180830381600087803b1580156122b757600080fd5b505af11580156122cb573d6000803e3d6000fd5b505050506040513d601f19601f820116820180604052508101906122ef9190613c7c565b9050600082346122ff9190613480565b905060008111156123f35760003373ffffffffffffffffffffffffffffffffffffffff168260405161233090613ccf565b60006040518083038185875af1925050503d806000811461236d576040519150601f19603f3d011682016040523d82523d6000602084013e612372565b606091505b50509050806123b6576040517f08c379a00000000000000000000000000000000000000000000000000000000081526004016123ad90613d56565b60405180910390fd5b7f06a8acc0e592ef9d5924c211904629acef99f7d13d3c585219454c7fe93cd4ef3384846040516123e993929190613054565b60405180910390a1505b7f1e34314d10c294e150d9078dc4808fbc4e77807ab189f2556837ace79995889033838560405161242693929190613054565b60405180910390a181935050505092915050565b600033905090565b61244a61157d565b612489576040517f08c379a000000000000000000000000000000000000000000000000000000000815260040161248090612ffd565b60405180910390fd5b60008060146101000a81548160ff0219169083151502179055507f5db9ee0a495bf2e6ff9c91a7834c1ba4fdd244a5e8aa4e537bd38aeae4b073aa6124cc61243a565b6040516124d99190612a1c565b60405180910390a1565b6124eb61157d565b1561252b576040517f08c379a0000000000000000000000000000000000000000000000000000000008152600401612522906130d7565b60405180910390fd5b6001600060146101000a81548160ff0219169083151502179055507f62e78cea01bee320cd4e420270b5ea74000d11b0c9f74754ebdbfc544b05a25861256f61243a565b60405161257c9190612a1c565b60405180910390a1565b60008060009054906101000a900473ffffffffffffffffffffffffffffffffffffffff169050816000806101000a81548173ffffffffffffffffffffffffffffffffffffffff021916908373ffffffffffffffffffffffffffffffffffffffff1602179055508173ffffffffffffffffffffffffffffffffffffffff168173ffffffffffffffffffffffffffffffffffffffff167f8be0079c531659141344cd1fd0a4f28419497f9722a3daafe3b4186f6b6457e060405160405180910390a35050565b6000819050919050565b61265d8161264a565b82525050565b60006020820190506126786000830184612654565b92915050565b6000604051905090565b600080fd5b600080fd5b61269b8161264a565b81146126a657600080fd5b50565b6000813590506126b881612692565b92915050565b6000602082840312156126d4576126d3612688565b5b60006126e2848285016126a9565b91505092915050565b600080fd5b600080fd5b6000601f19601f8301169050919050565b7f4e487b7100000000000000000000000000000000000000000000000000000000600052604160045260246000fd5b61273e826126f5565b810181811067ffffffffffffffff8211171561275d5761275c612706565b5b80604052505050565b600061277061267e565b905061277c8282612735565b919050565b600067ffffffffffffffff82111561279c5761279b612706565b5b6127a5826126f5565b9050602081019050919050565b82818337600083830152505050565b60006127d46127cf84612781565b612766565b9050828152602081018484840111156127f0576127ef6126f0565b5b6127fb8482856127b2565b509392505050565b600082601f830112612818576128176126eb565b5b81356128288482602086016127c1565b91505092915050565b6000806040838503121561284857612847612688565b5b600083013567ffffffffffffffff8111156128665761286561268d565b5b61287285828601612803565b925050602083013567ffffffffffffffff8111156128935761289261268d565b5b61289f85828601612803565b9150509250929050565b60008115159050919050565b6128be816128a9565b82525050565b60006020820190506128d960008301846128b5565b92915050565b600073ffffffffffffffffffffffffffffffffffffffff82169050919050565b600061290a826128df565b9050919050565b61291a816128ff565b811461292557600080fd5b50565b60008135905061293781612911565b92915050565b60006020828403121561295357612952612688565b5b600061296184828501612928565b91505092915050565b600060408201905061297f6000830185612654565b61298c6020830184612654565b9392505050565b6000819050919050565b60006129b86129b36129ae846128df565b612993565b6128df565b9050919050565b60006129ca8261299d565b9050919050565b60006129dc826129bf565b9050919050565b6129ec816129d1565b82525050565b6000602082019050612a0760008301846129e3565b92915050565b612a16816128ff565b82525050565b6000602082019050612a316000830184612a0d565b92915050565b60008060408385031215612a4e57612a4d612688565b5b6000612a5c858286016126a9565b9250506020612a6d858286016126a9565b9150509250929050565b6000612a82826129bf565b9050919050565b612a9281612a77565b82525050565b6000602082019050612aad6000830184612a89565b92915050565b6000612abe826129bf565b9050919050565b612ace81612ab3565b82525050565b6000602082019050612ae96000830184612ac5565b92915050565b600067ffffffffffffffff821115612b0a57612b09612706565b5b602082029050602081019050919050565b600080fd5b6000612b33612b2e84612aef565b612766565b90508083825260208201905060208402830185811115612b5657612b55612b1b565b5b835b81811015612b7f5780612b6b8882612928565b845260208401935050602081019050612b58565b5050509392505050565b600082601f830112612b9e57612b9d6126eb565b5b8135612bae848260208601612b20565b91505092915050565b600067ffffffffffffffff821115612bd257612bd1612706565b5b602082029050602081019050919050565b600067ffffffffffffffff821115612bfe57612bfd612706565b5b602082029050602081019050919050565b600080fd5b600080fd5b600060808284031215612c2f57612c2e612c0f565b5b612c396080612766565b9050600082013567ffffffffffffffff811115612c5957612c58612c14565b5b612c6584828501612803565b600083015250602082013567ffffffffffffffff811115612c8957612c88612c14565b5b612c9584828501612803565b6020830152506040612ca9848285016126a9565b6040830152506060612cbd84828501612928565b60608301525092915050565b6000612cdc612cd784612be3565b612766565b90508083825260208201905060208402830185811115612cff57612cfe612b1b565b5b835b81811015612d4657803567ffffffffffffffff811115612d2457612d236126eb565b5b808601612d318982612c19565b85526020850194505050602081019050612d01565b5050509392505050565b600082601f830112612d6557612d646126eb565b5b8135612d75848260208601612cc9565b91505092915050565b6000612d91612d8c84612bb7565b612766565b90508083825260208201905060208402830185811115612db457612db3612b1b565b5b835b81811015612dfb57803567ffffffffffffffff811115612dd957612dd86126eb565b5b808601612de68982612d50565b85526020850194505050602081019050612db6565b5050509392505050565b600082601f830112612e1a57612e196126eb565b5b8135612e2a848260208601612d7e565b91505092915050565b60008060408385031215612e4a57612e49612688565b5b600083013567ffffffffffffffff811115612e6857612e6761268d565b5b612e7485828601612b89565b925050602083013567ffffffffffffffff811115612e9557612e9461268d565b5b612ea185828601612e05565b9150509250929050565b7f4e487b7100000000000000000000000000000000000000000000000000000000600052601160045260246000fd5b6000612ee58261264a565b9150612ef08361264a565b9250817fffffffffffffffffffffffffffffffffffffffffffffffffffffffffffffffff0483118215151615612f2957612f28612eab565b5b828202905092915050565b600082825260208201905092915050565b7f4f776e61626c653a2063616c6c6572206973206e6f7420746865206f776e6572600082015250565b6000612f7b602083612f34565b9150612f8682612f45565b602082019050919050565b60006020820190508181036000830152612faa81612f6e565b9050919050565b7f5061757361626c653a206e6f7420706175736564000000000000000000000000600082015250565b6000612fe7601483612f34565b9150612ff282612fb1565b602082019050919050565b6000602082019050818103600083015261301681612fda565b9050919050565b60006060820190506130326000830186612a0d565b61303f6020830185612a0d565b61304c6040830184612a0d565b949350505050565b60006060820190506130696000830186612a0d565b6130766020830185612654565b6130836040830184612654565b949350505050565b7f5061757361626c653a2070617573656400000000000000000000000000000000600082015250565b60006130c1601083612f34565b91506130cc8261308b565b602082019050919050565b600060208201905081810360008301526130f0816130b4565b9050919050565b600081519050919050565b600081905092915050565b60005b8381101561312b578082015181840152602081019050613110565b8381111561313a576000848401525b50505050565b600061314b826130f7565b6131558185613102565b935061316581856020860161310d565b80840191505092915050565b600061317d8284613140565b915081905092915050565b7f50726f78793a20556e61626c6520746f2067657420776974686472617720646560008201527f706f73697473206f662063616c6c65722066726f6d20457363726f7721000000602082015250565b60006131e4603d83612f34565b91506131ef82613188565b604082019050919050565b60006020820190508181036000830152613213816131d7565b9050919050565b600069ffffffffffffffffffff82169050919050565b6132398161321a565b811461324457600080fd5b50565b60008151905061325681613230565b92915050565b6000819050919050565b61326f8161325c565b811461327a57600080fd5b50565b60008151905061328c81613266565b92915050565b6000815190506132a181612692565b92915050565b600080600080600060a086880312156132c3576132c2612688565b5b60006132d188828901613247565b95505060206132e28882890161327d565b94505060406132f388828901613292565b935050606061330488828901613292565b925050608061331588828901613247565b9150509295509295909350565b7f4e487b7100000000000000000000000000000000000000000000000000000000600052601260045260246000fd5b600061335c8261264a565b91506133678361264a565b92508261337757613376613322565b5b828204905092915050565b7f436f6e74726163742063616e6e6f74206265207265766f6b6564000000000000600082015250565b60006133b8601a83612f34565b91506133c382613382565b602082019050919050565b600060208201905081810360008301526133e7816133ab565b9050919050565b7f5472616e73616374696f6e206d696e696d616c2076616c7565206e6f7420726560008201527f6163686564000000000000000000000000000000000000000000000000000000602082015250565b600061344a602583612f34565b9150613455826133ee565b604082019050919050565b600060208201905081810360008301526134798161343d565b9050919050565b600061348b8261264a565b91506134968361264a565b9250828210156134a9576134a8612eab565b5b828203905092915050565b7f50726f78793a20556e61626c6520746f20657865637574652072756c65000000600082015250565b60006134ea601d83612f34565b91506134f5826134b4565b602082019050919050565b60006020820190508181036000830152613519816134dd565b9050919050565b60006080820190506135356000830187612a0d565b6135426020830186612654565b61354f6040830185612654565b61355c6060830184612654565b95945050505050565b60006135708261264a565b915061357b8361264a565b9250827fffffffffffffffffffffffffffffffffffffffffffffffffffffffffffffffff038211156135b0576135af612eab565b5b828201905092915050565b7f4f776e61626c653a206e6577206f776e657220697320746865207a65726f206160008201527f6464726573730000000000000000000000000000000000000000000000000000602082015250565b6000613617602683612f34565b9150613622826135bb565b604082019050919050565b600060208201905081810360008301526136468161360a565b9050919050565b7f496e73756666696369656e742076616c756520746f20636f766572207468652060008201527f6465616c206372656174696f6e20666565730000000000000000000000000000602082015250565b60006136a9603283612f34565b91506136b48261364d565b604082019050919050565b600060208201905081810360008301526136d88161369c565b9050919050565b7f4e487b7100000000000000000000000000000000000000000000000000000000600052603260045260246000fd5b600081519050919050565b60006137248261370e565b61372e8185612f34565b935061373e81856020860161310d565b613747816126f5565b840191505092915050565b6000602082019050818103600083015261376c8184613719565b905092915050565b6004811061378157600080fd5b50565b60008151905061379381613774565b92915050565b60006137ac6137a784612781565b612766565b9050828152602081018484840111156137c8576137c76126f0565b5b6137d384828561310d565b509392505050565b600082601f8301126137f0576137ef6126eb565b5b8151613800848260208601613799565b91505092915050565b600080604083850312156138205761381f612688565b5b600061382e85828601613784565b925050602083015167ffffffffffffffff81111561384f5761384e61268d565b5b61385b858286016137db565b9150509250929050565b7f50726f78792e4372656174654465616c3a20496e737472756374696f6e20697360008201527f206e6f7420737570706f72746564000000000000000000000000000000000000602082015250565b60006138c1602e83612f34565b91506138cc82613865565b604082019050919050565b600060208201905081810360008301526138f0816138b4565b9050919050565b60006139028261264a565b91507fffffffffffffffffffffffffffffffffffffffffffffffffffffffffffffffff82141561393557613934612eab565b5b600182019050919050565b600081519050919050565b600082825260208201905092915050565b6000819050602082019050919050565b613975816128ff565b82525050565b6000613987838361396c565b60208301905092915050565b6000602082019050919050565b60006139ab82613940565b6139b5818561394b565b93506139c08361395c565b8060005b838110156139f15781516139d8888261397b565b97506139e383613993565b9250506001810190506139c4565b5085935050505092915050565b600081519050919050565b600082825260208201905092915050565b6000819050602082019050919050565b600081519050919050565b600082825260208201905092915050565b6000819050602082019050919050565b600082825260208201905092915050565b6000613a728261370e565b613a7c8185613a56565b9350613a8c81856020860161310d565b613a95816126f5565b840191505092915050565b613aa98161264a565b82525050565b60006080830160008301518482036000860152613acc8282613a67565b91505060208301518482036020860152613ae68282613a67565b9150506040830151613afb6040860182613aa0565b506060830151613b0e606086018261396c565b508091505092915050565b6000613b258383613aaf565b905092915050565b6000602082019050919050565b6000613b4582613a2a565b613b4f8185613a35565b935083602082028501613b6185613a46565b8060005b85811015613b9d5784840389528151613b7e8582613b19565b9450613b8983613b2d565b925060208a01995050600181019050613b65565b50829750879550505050505092915050565b6000613bbb8383613b3a565b905092915050565b6000602082019050919050565b6000613bdb826139fe565b613be58185613a09565b935083602082028501613bf785613a1a565b8060005b85811015613c335784840389528151613c148582613baf565b9450613c1f83613bc3565b925060208a01995050600181019050613bfb565b50829750879550505050505092915050565b60006040820190508181036000830152613c5f81856139a0565b90508181036020830152613c738184613bd0565b90509392505050565b600060208284031215613c9257613c91612688565b5b6000613ca084828501613292565b91505092915050565b50565b6000613cb9600083613102565b9150613cc482613ca9565b600082019050919050565b6000613cda82613cac565b9150819050919050565b7f50726f78792e6372656174654465616c3a204661696c656420746f207265696d60008201527f6275727365206578636573732045544800000000000000000000000000000000602082015250565b6000613d40603083612f34565b9150613d4b82613ce4565b604082019050919050565b60006020820190508181036000830152613d6f81613d33565b905091905056fea264697066735822122085cad6f80b00bfb2496d51579bc6abc9cd70024b0eaa0274d0338cef1aa6e26c64736f6c63430008090033",
  "immutableReferences": {},
  "source": "// SPDX-License-Identifier: GPL-3.0\npragma solidity 0.8.9;\n\n/* EXTERNAL DEPENDENCIES */\nimport \"@openzeppelin/contracts/access/Ownable.sol\";\nimport \"@openzeppelin/contracts/security/Pausable.sol\";\nimport \"@chainlink/contracts/src/v0.8/interfaces/AggregatorV3Interface.sol\";\n\n/* INTERNAL DEPENDENCIES */\nimport \"./CommonStructs.sol\";\nimport \"./Instructions.sol\";\nimport \"./Deals.sol\";\n\n// TODO: Ajouter un payable fallback a tous les contracts pour voir ce qu'on fait quand on reoit de l'argent par erreur\n//        ==> Hriter d'une classe qui redirige l'argent vers le proxy ou bien juste rembourser les sous\n\n// TODO: Check how to integrate the allowAllAccounts in the interpreter. Should I add it as a param in the deal?\n\n/// @title Proxy Contract\n/// @dev Main DApp entry point. Exposes the public interface and decouple the data and the logic\n/// @notice lets-make-a-deal.eth allows you to make an agreement between different parties and automatically route ETH to different addresses based on simple rules.\ncontract Proxy is Ownable, Pausable {\n    \n    /* STORAGE VARIABLES */\n\n    /// @dev Chainlink ETH/USD price feed aggregator link on Rinkeby\n    AggregatorV3Interface public priceFeedRef;\n\n    /// @dev Last quotation value in USD per ETH with 8 decimals precision fetched from Chainlink\n    uint public lastQuotationValue;\n\n    /// @dev Last quotation timestamp fetched from Chainlink\n    uint public lastQuotationTimestamp;\n\n    // References to external contracts\n\n    /// @dev Reference to the Instructions contract\n    Instructions public instructionsContractRef;\n\n    /// @dev Reference to the InstructionsProvider contract\n    address public instructionsProviderContractRef;\n\n    /// @dev Reference to the Deals instance\n    Deals public dealsContractRef;\n\n    /// @dev Reference to the Interpreter contract\n    address public interpreterContractRef;\n\n    // Contract fees\n\n    /// @dev Price per account added to the deal in USD\n    uint public accountCreationFees;\n    \n    /// @dev Price per rule added to the deal in USD\n    uint public ruleCreationFees;\n\n    /// @dev Price to allow incoming payments from all addresses others than internal/external accounts in USD\n    uint public allowAllAddressesFees;\n\n    /// @dev Minimal transaction value able to trigger an execution in USDimport \"@openzeppelin/contracts/security/Pausable.sol\";\n    uint public transactionMinimalValue;\n\n    /// @dev Transaction fees in % of the msg.value perceived on a deal execution in USD\n    uint public transactionFees;\n\n    /* MAPPINGS */\n    \n    /* MODIFIERS */\n\n    /* EVENTS */\n\n    // Modify Chainlink ETH/USD price feed aggregator address\n\n    /**\n    * @dev Event emitted when the Chainlink ETH/USD price feed aggregator address is changed\n    * @param _from Caller address\n    * @param _old Old address of the Chainlink ETH/USD price feed aggregator address\n    * @param _new New address of the Chainlink ETH/USD price feed aggregator address\n    */\n    event ModifyPriceFeedRefAggregatorAddress(address _from, address _old, address _new);\n    \n    // Modify contract references\n\n    /**\n    * @dev Event emitted when the Instructions contract reference is changed\n    * @param _from Caller address\n    * @param _old Old address of the Instructions contract\n    * @param _new New address of the Instructions contract\n    */\n    event ModifyInstructionsContractAddress(address _from, address _old, address _new);\n\n    /**\n    * @dev Event emitted when the InstructionsProvider contract reference is changed\n    * @param _from Caller address\n    * @param _old Old address of the InstructionsProvider contract\n    * @param _new New address of the InstructionsProvider contract\n    */\n    event ModifyInstructionsProviderContractAddress(address _from, address _old, address _new);\n\n    /**\n    * @dev Event emitted when the Deals contract reference is changed\n    * @param _from Caller address\n    * @param _old Old address of the Deals contract\n    * @param _new New address of the Deals contract\n    */\n    event ModifyDealsContractAddress(address _from, address _old, address _new);\n    \n    /**\n    * @dev Event emitted when the Interpreter contract reference is changed\n    * @param _from Caller address\n    * @param _old Old address of the Interpreter contract\n    * @param _new New address of the Interpreter contract\n    */\n    event ModifyInterpreterContractAddress(address _from, address _old, address _new);\n    \n    // Modify fees\n \n    /** \n    * @dev Event emitted when the account creation fees is changed\n    * @param _from : msg.sender\n    * @param _old : old account creation fees in USD\n    * @param _new : new account creation fees in USD\n    */\n    event ModifyAccountCreationFees(address _from, uint _old, uint _new);\n\n    /** \n    * @dev Event emitted when the rule creation fees is changed\n    * @param _from : msg.sender\n    * @param _old : old rule creation fees in USD\n    * @param _new : new rule creation fees in USD\n    */\n    event ModifyRuleCreationFees(address _from, uint _old, uint _new);\n\n    /** \n    * @dev Event emitted when the allow all accounts fees is changed\n    * @param _from : msg.sender\n    * @param _old : old allow all accounts fees in USD\n    * @param _new : new allow all accounts fees in USD\n    */\n    event ModifyAllowAllAccountsFees(address _from, uint _old, uint _new);\n\n    /** \n    * @dev Event emitted when the transaction minimal value is changed\n    * @param _from : msg.sender\n    * @param _old : old transaction minimal value in USD\n    * @param _new : new transaction minimal value in USD\n    */\n    event ModifyTransactionMinimalValue(address _from, uint _old, uint _new);\n\n    /** \n    * @dev Event emitted when the transaction fees are changed\n    * @param _from : msg.sender\n    * @param _old : old transaction fees value in % of msg.value\n    * @param _new : new transaction fees value in % of msg.value\n    */\n    event ModifyTransactionFees(address _from, uint _old, uint _new);\n    \n    /** \n    * @dev Event emitted when the WEI to USD conversion rate is updated from Chainlink\n    * @param _from : msg.sender\n    * @param _value : WEI/USD price at the time the Chainlink Oracle was called\n    * @param _timestamp : timestamp at which the price was fetched from Chainlink\n    */\n    event QueryLastQuotationFromChainlink(address _from, uint _value, uint _timestamp);\n\n    /** \n    * @dev Event emitted when the deal creation fees are paid\n    * @param _from : msg.sender\n    * @param _dealId : Id of the created deal\n    * @param _fees : Fees paid by the user in ETH\n    */\n    event PayDealCreationFees(address _from, uint _dealId, uint _fees);\n\n    /** \n    * @dev Event emitted when the transaction fees are paid\n    * @param _from : msg.sender\n    * @param _dealId : Id of the executed deal \n    * @param _ruleId : Id of the executed rule\n    * @param _fees : Fees paid by the user in ETH\n    */\n    event PayTransactionFees(address _from, uint _dealId, uint _ruleId, uint _fees);\n\n    /** \n    * @dev Event emitted when an excess value is reimbursed to the user\n    * @param _to : address of the caller (msg.sender) where the excess value is reimbursed\n    * @param _dealId : Id of the created deal \n    * @param _amount : Amount reimbursed to the user in ETH\n    */\n    event ReimburseExcessValue(address _to, uint _dealId, uint _amount);\n    \n\n    /* CONSTRUCTOR */\n\n    /** \n    * @dev Constructor: Initialize storage variables\n    * @param _accountCreationFees Creation fees per account in Wei \n    * @param _ruleCreationFees Creation fees per rule in Wei \n    * @param _allowAllAddressesFees Creation fees to allow incoming payments from all addresses\n    * @param _transactionMinimalValue Minimal value to trigger a rule execution\n    * @param _transactionFees Transaction fees paid to execute a rule in % of msg.value (1=1%)\n    * @param _lastQuotationValue Wei per USD conversion rate\n    */\n    constructor (\n        uint _accountCreationFees, \n        uint _ruleCreationFees,\n        uint _allowAllAddressesFees,\n        uint _transactionMinimalValue,\n        uint _transactionFees,\n        uint _lastQuotationValue\n    ) {\n        accountCreationFees = _accountCreationFees;\n        ruleCreationFees = _ruleCreationFees;\n        allowAllAddressesFees = _allowAllAddressesFees;\n        transactionMinimalValue = _transactionMinimalValue;\n        transactionFees = _transactionFees;\n        lastQuotationValue = _lastQuotationValue;\n    }\n    \n    /* SEND & FALLBACK */\n    \n    // No payable send or fallback function includes so that the contract will return any ETH send with a call without call values\n    // https://docs.soliditylang.org/en/v0.8.9/contracts.html#receive-ether-function\n    \n    /* OWNER INTERFACE */\n\n    // Address to Chainlink ETH/USD price feed aggregator\n    \n    /**\n    * @dev Set the address to the Chainlink ETH/USD price feed aggregator\n    * @param _new New address to the Chainlink ETH/USD price feed aggregator\n    */\n    function setPriceFeedRefAggregatorAddress(address _new) public onlyOwner {\n        address old = address(priceFeedRef);\n        priceFeedRef = AggregatorV3Interface(_new);\n        emit ModifyPriceFeedRefAggregatorAddress(msg.sender, old, _new);\n    }\n\n    // References to external contracts\n    \n    /**\n    * @dev Sets the Instructions contract reference to a new value\n    * @param _new New address of the Instructions contract\n    */\n    function setInstructionsContractRef(address _new) public onlyOwner whenPaused {\n        address old = address(instructionsContractRef);\n        instructionsContractRef = Instructions(_new);\n        emit ModifyInstructionsContractAddress(msg.sender, old, _new);\n    }\n\n    /**\n    * @dev Sets the InstructionsProvider contract reference to a new value\n    * @param _new New address of the InstructionsProvider contract\n    */\n    function setInstructionsProviderContractRef(address _new) public onlyOwner whenPaused {\n        address old = instructionsProviderContractRef;\n        instructionsProviderContractRef = _new;\n        emit ModifyInstructionsProviderContractAddress(msg.sender, old, _new);\n    }\n\n    /**\n    * @dev Sets the Deals contract reference to a new value\n    * @param _new New address of the Deals contract\n    */\n    function setDealsContractRef(address _new) public onlyOwner whenPaused {\n        address old = address(dealsContractRef);\n        dealsContractRef = Deals(_new);\n        emit ModifyDealsContractAddress(msg.sender, old, _new);\n    }\n    \n    /**\n    * @dev Sets the Interpreter contract reference to a new value\n    * @param _new New address of the Interpreter contract\n    */\n    function setInterpreterContractRef(address _new) public onlyOwner whenPaused {\n        address old = interpreterContractRef;\n        interpreterContractRef = _new;\n        emit ModifyInterpreterContractAddress(msg.sender, old, _new);\n    }\n\n    // Contract fees\n\n    /**\n    * @dev Sets the account creation fees to a new value\n    * @param _new New value for the account creation fees in USD\n    */\n    function setAccountCreationFees(uint _new) public onlyOwner whenPaused {\n        uint old = accountCreationFees;\n        accountCreationFees = _new;\n        emit ModifyAccountCreationFees(msg.sender, old, _new);\n    }\n    \n    /**\n    * @dev Sets the rule creation fees to a new value\n    * @param _new New value for the rule creation fees in USD\n    */\n    function setRuleCreationFees(uint _new) public onlyOwner whenPaused {\n        uint old = ruleCreationFees;\n        ruleCreationFees = _new;\n        emit ModifyRuleCreationFees(msg.sender, old, _new);\n    }\n\n    /**\n    * @dev Sets the allow all addresses fees to a new value\n    * @param _new New value for the allow all addresses fees in USD\n    */\n    function setAllowAllAddressesFees(uint _new) public onlyOwner whenPaused {\n        uint old = allowAllAddressesFees;\n        allowAllAddressesFees = _new;\n        emit ModifyAllowAllAccountsFees(msg.sender, old, _new);\n    }\n\n    /**\n    * @dev Sets the transaction minimal value to a new value\n    * @param _new New value for the transaction minimal value in USD\n    */\n    function setTransactionMinimalValue(uint _new) public onlyOwner whenPaused {\n        uint old = transactionMinimalValue;\n        transactionMinimalValue = _new;\n        emit ModifyTransactionMinimalValue(msg.sender, old, _new);\n    }\n\n    /**\n    * @dev Sets the transaction fees to a new value\n    * @param _new New value for the transaction fees in % of msg.value\n    */\n    function setTransactionFees(uint _new) public onlyOwner whenPaused {\n        uint old = transactionFees;\n        transactionFees = _new;\n        emit ModifyTransactionFees(msg.sender, old, _new);\n    }\n\n    /* PUBLIC INTERFACE */\n\n    /**\n    * @dev Creates a deal and returns its id\n    * @param _accounts List of accounts addresses linked to the deal\n    * @param _rulesList List of the rules linked to the deal (rule = list of Articles)\n    * @return Id of the deal created\n    */\n    function createDeal\n    (\n        address[] memory _accounts, \n        CommonStructs.Article[][] memory _rulesList\n    ) \n    external \n    payable \n    whenNotPaused\n    returns (uint) {\n        // Compute creation fees in WEI\n        uint creationFeesInWEI = computeDealCreationFeesInWEI(_accounts.length, _rulesList.length);\n\n        // Check 1: Amount sent by the user should cover the deal creation fees\n        require(msg.value >= creationFeesInWEI, \"Insufficient value to cover the deal creation fees\");\n        \n        // Check 2: Make sure that the instructions are all supported\n        for (uint i=0;i<_rulesList.length;i++) {\n            for (uint j=0;j<_rulesList[i].length;j++) {\n                // Get the instruction type & signature\n                (, string memory instructionSignature) = instructionsContractRef.getInstruction(_rulesList[i][j].instructionName);\n                \n                // If the signature is empty, this means that the instruction is not present => revert\n                require(!stringsEqual(instructionSignature,''),\"Proxy.CreateDeal: Instruction is not supported\");\n            }\n        }\n\n        // Create the deal\n        uint dealId = dealsContractRef.createDeal(_accounts, _rulesList);\n        \n        // Reimburse excess value to the caller if necessary\n        uint excessValue = (msg.value - creationFeesInWEI);\n        if (excessValue > 0){\n            (bool sent, ) = msg.sender.call{value: excessValue } (\"\");\n            require(sent, \"Proxy.createDeal: Failed to reimburse excess ETH\");\n            emit ReimburseExcessValue(msg.sender, dealId, excessValue);\n        }\n\n        // Emit a PayDealCreationFees\n        emit PayDealCreationFees(msg.sender, dealId, creationFeesInWEI);\n\n        return dealId;\n    }\n\n    /**\n    * @dev Execute a deal's rule\n    * @param _dealId : Id of the deal to execute\n    * @param _ruleId : Id of the rule to execute\n    */\n    function executeRule(uint _dealId, uint _ruleId) external payable whenNotPaused {\n        // Amount sent by the user should be higher or equal to the minimal transaction value\n        uint msgValueInUSD = convertWEI2USD(msg.value);\n        require( msgValueInUSD >= transactionMinimalValue, \"Transaction minimal value not reached\");\n\n        // Upgrability: Low level call to InstructionsProvider\n        // Includes in the call (msg.value - execution fees)\n        uint executionFees = (msg.value / 100) * transactionFees;\n        (bool success, ) = interpreterContractRef.call{value: (msg.value - executionFees)}(\n            abi.encodeWithSignature(\n                \"interpretRule(address,uint256,uint256)\",\n                msg.sender,\n                _dealId, \n                _ruleId\n            )\n        );\n\n        // Did the low level call succeed?\n        require(success,\"Proxy: Unable to execute rule\");\n\n        // Emit a PayTransactionFees\n        emit PayTransactionFees(msg.sender, _dealId, _ruleId, executionFees);\n    }\n\n    /**\n    * @dev Withdraw all deposit from escrow for msg.sender\n    */\n    function withdraw() external whenNotPaused {\n        (bool success,) = instructionsProviderContractRef.call(\n            abi.encodeWithSignature(\n                \"withdraw(address)\",\n                msg.sender\n            )\n        );\n        require(success,\"Proxy: Unable to get withdraw deposits of caller from Escrow!\");\n    }\n\n    /**\n    * @dev Get the internal balance of the contract\n    * @return The internal balance of the contract in Wei\n    */\n    function getContractBalance() public view onlyOwner returns(uint) {\n        return address(this).balance;\n    }\n\n    /**\n    * @dev Owner can withdraw ETH from the contract balance\n    */\n    function harvest() external payable onlyOwner {\n        // Sends contract ETH balance to owner if balance > 0\n        uint balance = address(this).balance;\n\n        if (balance>0)\n            payable(msg.sender).transfer(balance);\n        \n    }\n\n    /* CHAINLINK ETH/USD PRICE FEED AGGREGATOR */    \n    \n    /**\n     * @dev Query & save the latest quotation from ChainLink price feed aggregator on Rinkeby\n     */\n    function saveLatestQuotation() public onlyOwner {\n        // Query last ETH/USD price from ChainLink\n        (, int price, , uint timestamp, ) = priceFeedRef.latestRoundData();\n        \n        // Save latest quotation (rounID, price & timestamp)\n        lastQuotationValue = (10**18)*(10**8)/uint(price);\n        lastQuotationTimestamp = timestamp;\n        emit QueryLastQuotationFromChainlink(msg.sender, lastQuotationValue, timestamp);\n    }\n\n    /**\n    * @dev Return the last quotation from Chainlink\n    * @return Last quotation from Chainlink in WEI per USD\n    * along with the query timestamp\n    */\n    function getLatestQuotation() public view returns(uint, uint) {\n        return (lastQuotationValue, lastQuotationTimestamp);\n    }\n\n    /* HELPER FUNCTIONS */\n    \n    /**\n    * @dev Computes the deal creation cost in WEI\n    * @param _accountsCount Number of external accounts defined in the deal\n    * @param _rulesCount Number of rules defined in the deal\n    * @return Deal creation cost in WEI\n    */\n    function computeDealCreationFeesInWEI\n    (\n        uint _accountsCount, \n        uint _rulesCount\n    ) \n    public view returns (uint) {\n        return (_accountsCount * accountCreationFees + _rulesCount * ruleCreationFees)*lastQuotationValue;\n    }\n\n    /**\n    * @dev Converts an amount in WEI to USD\n    * @param _amountInWEI Amount in WEI\n    * @return Converted amount in USD\n    */\n    function convertWEI2USD(uint _amountInWEI) public view returns(uint) {\n        return _amountInWEI / lastQuotationValue;\n    }\n\n    /**\n    * @dev Converts an amount in USD to WEI\n    * @param _amountInUSD Amount in USD\n    * @return Converted amount in WEI\n    */\n    function convertUSD2WEI(uint _amountInUSD) public view returns(uint) {\n        return _amountInUSD * lastQuotationValue;\n    }\n\n    /** \n    * @dev Checks whether the strings are equal\n    * @param _s1 First string to compare\n    * @param _s2 Second string to compare\n    * @return Boolean indicating if the 2 strings are equal\n    */\n    function stringsEqual(string memory _s1, string memory _s2) public pure returns(bool) {\n        return keccak256(bytes(_s1)) == keccak256(bytes(_s2));\n    }\n\n    /* OpenZeppelin.Pausable */\n\n    /**\n    * @dev Access control inherited from OpenZeppelin Ownable contract\n    * Pausing the contract makes the createDeal function not callable\n    * Getters are still callable\n    * Only owner can call\n    */\n    function pause() public onlyOwner() whenNotPaused() {\n        _pause();\n    }\n\n    /**\n    * @dev Access control inherited from OpenZeppelin Ownable contract\n    * Unpausing the contract makes the createDeal function callable\n    * Only Owner can call\n    */\n    function unpause() public onlyOwner() whenPaused() {\n        _unpause();\n    }\n\n    /* OVERRIDE & BLOCK UNUSED INHERITED FUNCTIONS */\n\n    /**\n    * @dev Block OpenZeppelin Ownable.renounceOwnership\n    * @notice Will always revert\n    */ \n    function renounceOwnership() public pure override {\n        revert('Contract cannot be revoked');\n    }\n\n}\n",
  "sourcePath": "/home/shakalee/Documents/Consensys/PROJOT-v0/contracts/Proxy.sol",
  "compiler": {
    "name": "solc",
    "version": "0.8.9+commit.e5eed63a.Emscripten.clang"
  },
  "schemaVersion": "3.4.3",
  "updatedAt": "2022-01-08T16:47:22.842Z",
  "networkType": "ethereum",
  "devdoc": {
    "details": "Main DApp entry point. Exposes the public interface and decouple the data and the logic",
    "events": {
      "ModifyAccountCreationFees(address,uint256,uint256)": {
        "details": "Event emitted when the account creation fees is changed",
        "params": {
          "_from": ": msg.sender",
          "_new": ": new account creation fees in USD",
          "_old": ": old account creation fees in USD"
        }
      },
      "ModifyAllowAllAccountsFees(address,uint256,uint256)": {
        "details": "Event emitted when the allow all accounts fees is changed",
        "params": {
          "_from": ": msg.sender",
          "_new": ": new allow all accounts fees in USD",
          "_old": ": old allow all accounts fees in USD"
        }
      },
      "ModifyDealsContractAddress(address,address,address)": {
        "details": "Event emitted when the Deals contract reference is changed",
        "params": {
          "_from": "Caller address",
          "_new": "New address of the Deals contract",
          "_old": "Old address of the Deals contract"
        }
      },
      "ModifyInstructionsContractAddress(address,address,address)": {
        "details": "Event emitted when the Instructions contract reference is changed",
        "params": {
          "_from": "Caller address",
          "_new": "New address of the Instructions contract",
          "_old": "Old address of the Instructions contract"
        }
      },
      "ModifyInstructionsProviderContractAddress(address,address,address)": {
        "details": "Event emitted when the InstructionsProvider contract reference is changed",
        "params": {
          "_from": "Caller address",
          "_new": "New address of the InstructionsProvider contract",
          "_old": "Old address of the InstructionsProvider contract"
        }
      },
      "ModifyInterpreterContractAddress(address,address,address)": {
        "details": "Event emitted when the Interpreter contract reference is changed",
        "params": {
          "_from": "Caller address",
          "_new": "New address of the Interpreter contract",
          "_old": "Old address of the Interpreter contract"
        }
      },
      "ModifyPriceFeedRefAggregatorAddress(address,address,address)": {
        "details": "Event emitted when the Chainlink ETH/USD price feed aggregator address is changed",
        "params": {
          "_from": "Caller address",
          "_new": "New address of the Chainlink ETH/USD price feed aggregator address",
          "_old": "Old address of the Chainlink ETH/USD price feed aggregator address"
        }
      },
      "ModifyRuleCreationFees(address,uint256,uint256)": {
        "details": "Event emitted when the rule creation fees is changed",
        "params": {
          "_from": ": msg.sender",
          "_new": ": new rule creation fees in USD",
          "_old": ": old rule creation fees in USD"
        }
      },
      "ModifyTransactionFees(address,uint256,uint256)": {
        "details": "Event emitted when the transaction fees are changed",
        "params": {
          "_from": ": msg.sender",
          "_new": ": new transaction fees value in % of msg.value",
          "_old": ": old transaction fees value in % of msg.value"
        }
      },
      "ModifyTransactionMinimalValue(address,uint256,uint256)": {
        "details": "Event emitted when the transaction minimal value is changed",
        "params": {
          "_from": ": msg.sender",
          "_new": ": new transaction minimal value in USD",
          "_old": ": old transaction minimal value in USD"
        }
      },
      "PayDealCreationFees(address,uint256,uint256)": {
        "details": "Event emitted when the deal creation fees are paid",
        "params": {
          "_dealId": ": Id of the created deal",
          "_fees": ": Fees paid by the user in ETH",
          "_from": ": msg.sender"
        }
      },
      "PayTransactionFees(address,uint256,uint256,uint256)": {
        "details": "Event emitted when the transaction fees are paid",
        "params": {
          "_dealId": ": Id of the executed deal ",
          "_fees": ": Fees paid by the user in ETH",
          "_from": ": msg.sender",
          "_ruleId": ": Id of the executed rule"
        }
      },
      "QueryLastQuotationFromChainlink(address,uint256,uint256)": {
        "details": "Event emitted when the WEI to USD conversion rate is updated from Chainlink",
        "params": {
          "_from": ": msg.sender",
          "_timestamp": ": timestamp at which the price was fetched from Chainlink",
          "_value": ": WEI/USD price at the time the Chainlink Oracle was called"
        }
      },
      "ReimburseExcessValue(address,uint256,uint256)": {
        "details": "Event emitted when an excess value is reimbursed to the user",
        "params": {
          "_amount": ": Amount reimbursed to the user in ETH",
          "_dealId": ": Id of the created deal ",
          "_to": ": address of the caller (msg.sender) where the excess value is reimbursed"
        }
      }
    },
    "kind": "dev",
    "methods": {
      "computeDealCreationFeesInWEI(uint256,uint256)": {
        "details": "Computes the deal creation cost in WEI",
        "params": {
          "_accountsCount": "Number of external accounts defined in the deal",
          "_rulesCount": "Number of rules defined in the deal"
        },
        "returns": {
          "_0": "Deal creation cost in WEI"
        }
      },
      "constructor": {
        "details": "Constructor: Initialize storage variables",
        "params": {
          "_accountCreationFees": "Creation fees per account in Wei ",
          "_allowAllAddressesFees": "Creation fees to allow incoming payments from all addresses",
          "_lastQuotationValue": "Wei per USD conversion rate",
          "_ruleCreationFees": "Creation fees per rule in Wei ",
          "_transactionFees": "Transaction fees paid to execute a rule in % of msg.value (1=1%)",
          "_transactionMinimalValue": "Minimal value to trigger a rule execution"
        }
      },
      "convertUSD2WEI(uint256)": {
        "details": "Converts an amount in USD to WEI",
        "params": {
          "_amountInUSD": "Amount in USD"
        },
        "returns": {
          "_0": "Converted amount in WEI"
        }
      },
      "convertWEI2USD(uint256)": {
        "details": "Converts an amount in WEI to USD",
        "params": {
          "_amountInWEI": "Amount in WEI"
        },
        "returns": {
          "_0": "Converted amount in USD"
        }
      },
      "createDeal(address[],(string,string,uint256,address)[][])": {
        "details": "Creates a deal and returns its id",
        "params": {
          "_accounts": "List of accounts addresses linked to the deal",
          "_rulesList": "List of the rules linked to the deal (rule = list of Articles)"
        },
        "returns": {
          "_0": "Id of the deal created"
        }
      },
      "executeRule(uint256,uint256)": {
        "details": "Execute a deal's rule",
        "params": {
          "_dealId": ": Id of the deal to execute",
          "_ruleId": ": Id of the rule to execute"
        }
      },
      "getContractBalance()": {
        "details": "Get the internal balance of the contract",
        "returns": {
          "_0": "The internal balance of the contract in Wei"
        }
      },
      "getLatestQuotation()": {
        "details": "Return the last quotation from Chainlink",
        "returns": {
          "_0": "Last quotation from Chainlink in WEI per USD along with the query timestamp"
        }
      },
      "harvest()": {
        "details": "Owner can withdraw ETH from the contract balance"
      },
      "owner()": {
        "details": "Returns the address of the current owner."
      },
      "pause()": {
        "details": "Access control inherited from OpenZeppelin Ownable contract Pausing the contract makes the createDeal function not callable Getters are still callable Only owner can call"
      },
      "paused()": {
        "details": "Returns true if the contract is paused, and false otherwise."
      },
      "renounceOwnership()": {
        "details": "Block OpenZeppelin Ownable.renounceOwnership"
      },
      "saveLatestQuotation()": {
        "details": "Query & save the latest quotation from ChainLink price feed aggregator on Rinkeby"
      },
      "setAccountCreationFees(uint256)": {
        "details": "Sets the account creation fees to a new value",
        "params": {
          "_new": "New value for the account creation fees in USD"
        }
      },
      "setAllowAllAddressesFees(uint256)": {
        "details": "Sets the allow all addresses fees to a new value",
        "params": {
          "_new": "New value for the allow all addresses fees in USD"
        }
      },
      "setDealsContractRef(address)": {
        "details": "Sets the Deals contract reference to a new value",
        "params": {
          "_new": "New address of the Deals contract"
        }
      },
      "setInstructionsContractRef(address)": {
        "details": "Sets the Instructions contract reference to a new value",
        "params": {
          "_new": "New address of the Instructions contract"
        }
      },
      "setInstructionsProviderContractRef(address)": {
        "details": "Sets the InstructionsProvider contract reference to a new value",
        "params": {
          "_new": "New address of the InstructionsProvider contract"
        }
      },
      "setInterpreterContractRef(address)": {
        "details": "Sets the Interpreter contract reference to a new value",
        "params": {
          "_new": "New address of the Interpreter contract"
        }
      },
      "setPriceFeedRefAggregatorAddress(address)": {
        "details": "Set the address to the Chainlink ETH/USD price feed aggregator",
        "params": {
          "_new": "New address to the Chainlink ETH/USD price feed aggregator"
        }
      },
      "setRuleCreationFees(uint256)": {
        "details": "Sets the rule creation fees to a new value",
        "params": {
          "_new": "New value for the rule creation fees in USD"
        }
      },
      "setTransactionFees(uint256)": {
        "details": "Sets the transaction fees to a new value",
        "params": {
          "_new": "New value for the transaction fees in % of msg.value"
        }
      },
      "setTransactionMinimalValue(uint256)": {
        "details": "Sets the transaction minimal value to a new value",
        "params": {
          "_new": "New value for the transaction minimal value in USD"
        }
      },
      "stringsEqual(string,string)": {
        "details": "Checks whether the strings are equal",
        "params": {
          "_s1": "First string to compare",
          "_s2": "Second string to compare"
        },
        "returns": {
          "_0": "Boolean indicating if the 2 strings are equal"
        }
      },
      "transferOwnership(address)": {
        "details": "Transfers ownership of the contract to a new account (`newOwner`). Can only be called by the current owner."
      },
      "unpause()": {
        "details": "Access control inherited from OpenZeppelin Ownable contract Unpausing the contract makes the createDeal function callable Only Owner can call"
      },
      "withdraw()": {
        "details": "Withdraw all deposit from escrow for msg.sender"
      }
    },
    "stateVariables": {
      "accountCreationFees": {
        "details": "Price per account added to the deal in USD"
      },
      "allowAllAddressesFees": {
        "details": "Price to allow incoming payments from all addresses others than internal/external accounts in USD"
      },
      "dealsContractRef": {
        "details": "Reference to the Deals instance"
      },
      "instructionsContractRef": {
        "details": "Reference to the Instructions contract"
      },
      "instructionsProviderContractRef": {
        "details": "Reference to the InstructionsProvider contract"
      },
      "interpreterContractRef": {
        "details": "Reference to the Interpreter contract"
      },
      "lastQuotationTimestamp": {
        "details": "Last quotation timestamp fetched from Chainlink"
      },
      "lastQuotationValue": {
        "details": "Last quotation value in USD per ETH with 8 decimals precision fetched from Chainlink"
      },
      "priceFeedRef": {
        "details": "Chainlink ETH/USD price feed aggregator link on Rinkeby"
      },
      "ruleCreationFees": {
        "details": "Price per rule added to the deal in USD"
      },
      "transactionFees": {
        "details": "Transaction fees in % of the msg.value perceived on a deal execution in USD"
      },
      "transactionMinimalValue": {
        "details": "Minimal transaction value able to trigger an execution in USDimport \"@openzeppelin/contracts/security/Pausable.sol\";"
      }
    },
    "title": "Proxy Contract",
    "version": 1
  },
  "userdoc": {
    "kind": "user",
    "methods": {
      "renounceOwnership()": {
        "notice": "Will always revert"
      }
    },
    "notice": "lets-make-a-deal.eth allows you to make an agreement between different parties and automatically route ETH to different addresses based on simple rules.",
    "version": 1
  }
}